{
  "_format": "hh-sol-artifact-1",
  "contractName": "DhedgeStakingV2Storage",
  "sourceName": "contracts/stakingv2/DhedgeStakingV2Storage.sol",
  "abi": [
    {
      "anonymous": false,
      "inputs": [
        {
          "indexed": false,
          "internalType": "string",
          "name": "operation",
          "type": "string"
        }
      ],
      "name": "OwnerOperation",
      "type": "event"
    },
    {
      "anonymous": false,
      "inputs": [
        {
          "indexed": true,
          "internalType": "address",
          "name": "previousOwner",
          "type": "address"
        },
        {
          "indexed": true,
          "internalType": "address",
          "name": "newOwner",
          "type": "address"
        }
      ],
      "name": "OwnershipTransferred",
      "type": "event"
    },
    {
      "inputs": [],
      "name": "aggregateStakeStartTime",
      "outputs": [
        {
          "internalType": "uint256",
          "name": "",
          "type": "uint256"
        }
      ],
      "stateMutability": "view",
      "type": "function"
    },
    {
      "inputs": [
        {
          "internalType": "address",
          "name": "pool",
          "type": "address"
        },
        {
          "internalType": "uint256",
          "name": "cap",
          "type": "uint256"
        }
      ],
      "name": "configurePool",
      "outputs": [],
      "stateMutability": "nonpayable",
      "type": "function"
    },
    {
      "inputs": [],
      "name": "dhtAddress",
      "outputs": [
        {
          "internalType": "address",
          "name": "",
          "type": "address"
        }
      ],
      "stateMutability": "view",
      "type": "function"
    },
    {
      "inputs": [],
      "name": "dhtCap",
      "outputs": [
        {
          "internalType": "uint256",
          "name": "",
          "type": "uint256"
        }
      ],
      "stateMutability": "view",
      "type": "function"
    },
    {
      "inputs": [],
      "name": "dhtRewarded",
      "outputs": [
        {
          "internalType": "uint256",
          "name": "",
          "type": "uint256"
        }
      ],
      "stateMutability": "view",
      "type": "function"
    },
    {
      "inputs": [],
      "name": "dhtStaked",
      "outputs": [
        {
          "internalType": "uint256",
          "name": "",
          "type": "uint256"
        }
      ],
      "stateMutability": "view",
      "type": "function"
    },
    {
      "inputs": [],
      "name": "maxVDurationTimeSeconds",
      "outputs": [
        {
          "internalType": "uint256",
          "name": "",
          "type": "uint256"
        }
      ],
      "stateMutability": "view",
      "type": "function"
    },
    {
      "inputs": [],
      "name": "numberOfPoolsConfigured",
      "outputs": [
        {
          "internalType": "uint256",
          "name": "",
          "type": "uint256"
        }
      ],
      "stateMutability": "view",
      "type": "function"
    },
    {
      "inputs": [],
      "name": "owner",
      "outputs": [
        {
          "internalType": "address",
          "name": "",
          "type": "address"
        }
      ],
      "stateMutability": "view",
      "type": "function"
    },
    {
      "inputs": [
        {
          "internalType": "uint256",
          "name": "",
          "type": "uint256"
        }
      ],
      "name": "poolConfiguredByIndex",
      "outputs": [
        {
          "internalType": "address",
          "name": "",
          "type": "address"
        }
      ],
      "stateMutability": "view",
      "type": "function"
    },
    {
      "inputs": [],
      "name": "renounceOwnership",
      "outputs": [],
      "stateMutability": "nonpayable",
      "type": "function"
    },
    {
      "inputs": [],
      "name": "rewardParams",
      "outputs": [
        {
          "internalType": "uint256",
          "name": "stakeDurationDelaySeconds",
          "type": "uint256"
        },
        {
          "internalType": "uint256",
          "name": "maxDurationBoostSeconds",
          "type": "uint256"
        },
        {
          "internalType": "uint256",
          "name": "maxPerformanceBoostNumerator",
          "type": "uint256"
        },
        {
          "internalType": "uint256",
          "name": "maxPerformanceBoostDenominator",
          "type": "uint256"
        },
        {
          "internalType": "uint256",
          "name": "stakingRatio",
          "type": "uint256"
        },
        {
          "internalType": "uint256",
          "name": "emissionsRate",
          "type": "uint256"
        },
        {
          "internalType": "uint256",
          "name": "emissionsRateDenominator",
          "type": "uint256"
        }
      ],
      "stateMutability": "view",
      "type": "function"
    },
    {
      "inputs": [],
      "name": "rewardStreamingTime",
      "outputs": [
        {
          "internalType": "uint256",
          "name": "",
          "type": "uint256"
        }
      ],
      "stateMutability": "view",
      "type": "function"
    },
    {
      "inputs": [
        {
          "internalType": "uint256",
          "name": "newDHTCap",
          "type": "uint256"
        }
      ],
      "name": "setDHTCap",
      "outputs": [],
      "stateMutability": "nonpayable",
      "type": "function"
    },
    {
      "inputs": [
        {
          "internalType": "uint256",
          "name": "newEmissionsRate",
          "type": "uint256"
        }
      ],
      "name": "setEmissionsRate",
      "outputs": [],
      "stateMutability": "nonpayable",
      "type": "function"
    },
    {
      "inputs": [
        {
          "internalType": "uint256",
          "name": "newMaxDurationBoostSeconds",
          "type": "uint256"
        }
      ],
      "name": "setMaxDurationBoostSeconds",
      "outputs": [],
      "stateMutability": "nonpayable",
      "type": "function"
    },
    {
      "inputs": [
        {
          "internalType": "uint256",
          "name": "newMaxPerformanceBoostNumerator",
          "type": "uint256"
        }
      ],
      "name": "setMaxPerformanceBoostNumerator",
      "outputs": [],
      "stateMutability": "nonpayable",
      "type": "function"
    },
    {
      "inputs": [
        {
          "internalType": "uint256",
          "name": "newMaxVDurationTimeSeconds",
          "type": "uint256"
        }
      ],
      "name": "setMaxVDurationTimeSeconds",
      "outputs": [],
      "stateMutability": "nonpayable",
      "type": "function"
    },
    {
      "inputs": [
        {
          "internalType": "uint256",
          "name": "newRewardStreamingTime",
          "type": "uint256"
        }
      ],
      "name": "setRewardStreamingTime",
      "outputs": [],
      "stateMutability": "nonpayable",
      "type": "function"
    },
    {
      "inputs": [
        {
          "internalType": "uint256",
          "name": "newStakeDurationDelaySeconds",
          "type": "uint256"
        }
      ],
      "name": "setStakeDurationDelaySeconds",
      "outputs": [],
      "stateMutability": "nonpayable",
      "type": "function"
    },
    {
      "inputs": [
        {
          "internalType": "uint256",
          "name": "newStakingRatio",
          "type": "uint256"
        }
      ],
      "name": "setStakingRatio",
      "outputs": [],
      "stateMutability": "nonpayable",
      "type": "function"
    },
    {
      "inputs": [
        {
          "internalType": "contract IDhedgeStakingV2NFTJson",
          "name": "newTokenUriGenerator",
          "type": "address"
        }
      ],
      "name": "setTokenUriGenerator",
      "outputs": [],
      "stateMutability": "nonpayable",
      "type": "function"
    },
    {
      "inputs": [
        {
          "internalType": "uint256",
          "name": "",
          "type": "uint256"
        }
      ],
      "name": "stakes",
      "outputs": [
        {
          "internalType": "uint256",
          "name": "dhtAmount",
          "type": "uint256"
        },
        {
          "internalType": "uint256",
          "name": "dhtStakeStartTime",
          "type": "uint256"
        },
        {
          "internalType": "address",
          "name": "dhedgePoolAddress",
          "type": "address"
        },
        {
          "internalType": "uint256",
          "name": "dhedgePoolAmount",
          "type": "uint256"
        },
        {
          "internalType": "uint256",
          "name": "dhedgePoolStakeStartTime",
          "type": "uint256"
        },
        {
          "internalType": "uint256",
          "name": "stakeStartTokenPrice",
          "type": "uint256"
        },
        {
          "internalType": "bool",
          "name": "unstaked",
          "type": "bool"
        },
        {
          "internalType": "uint256",
          "name": "unstakeTime",
          "type": "uint256"
        },
        {
          "internalType": "uint256",
          "name": "reward",
          "type": "uint256"
        },
        {
          "internalType": "uint256",
          "name": "claimedReward",
          "type": "uint256"
        },
        {
          "internalType": "uint256",
          "name": "rewardParamsEmissionsRate",
          "type": "uint256"
        },
        {
          "internalType": "uint256",
          "name": "stakeFinishTokenPrice",
          "type": "uint256"
        },
        {
          "internalType": "uint256",
          "name": "vdhtAccruedAtUnstake",
          "type": "uint256"
        },
        {
          "internalType": "uint256",
          "name": "dhedgePoolRemainingExitCooldownAtStakeTime",
          "type": "uint256"
        }
      ],
      "stateMutability": "view",
      "type": "function"
    },
    {
      "inputs": [],
      "name": "tokenUriGenerator",
      "outputs": [
        {
          "internalType": "contract IDhedgeStakingV2NFTJson",
          "name": "",
          "type": "address"
        }
      ],
      "stateMutability": "view",
      "type": "function"
    },
    {
      "inputs": [],
      "name": "totalStakingValue",
      "outputs": [
        {
          "internalType": "uint256",
          "name": "",
          "type": "uint256"
        }
      ],
      "stateMutability": "view",
      "type": "function"
    },
    {
      "inputs": [
        {
          "internalType": "address",
          "name": "newOwner",
          "type": "address"
        }
      ],
      "name": "transferOwnership",
      "outputs": [],
      "stateMutability": "nonpayable",
      "type": "function"
    }
  ],
  "bytecode": "0x608060405234801561001057600080fd5b506113c4806100206000396000f3fe608060405234801561001057600080fd5b506004361061013e5760003560e01c806302c9651e146101435780630ee8d2d5146101585780631bfc03a21461016b57806329379cc31461017e5780633b09de811461019157806352057fec146101af5780635de9bdf6146101b7578063637de3e3146101bf5780636fa3a5ee146101c7578063715018a6146101da578063723050e4146101e257806376346914146101f5578063770346c61461021057806379eba7171461021857806380c8e7cb1461022b57806386091394146102405780638da5cb5b14610248578063a2c1f8ae14610250578063aeb2c24e14610258578063c93bd89914610260578063cc5f5f2114610268578063d5a44f861461027b578063d7394c63146102a8578063e5095b2b146102bb578063eeaa4f2c146102ce578063f2fde38b146102e1575b600080fd5b610156610151366004610e1f565b6102f4565b005b610156610166366004610e1f565b6103cb565b610156610179366004610e1f565b610470565b61015661018c366004610e1f565b61051e565b6101996105e3565b6040516101a6919061126b565b60405180910390f35b6101996105e9565b6101996105ef565b6101996105f5565b6101566101d5366004610e1f565b6105fb565b6101566106bf565b6101566101f0366004610e1f565b61076b565b6101fd610833565b6040516101a697969594939291906112e0565b61019961084b565b610156610226366004610df4565b610851565b610233610971565b6040516101a69190610e37565b610199610980565b610233610986565b610199610995565b61019961099b565b6102336109a1565b610156610276366004610e1f565b6109b0565b61028e610289366004610e1f565b610a55565b6040516101a69e9d9c9b9a99989796959493929190611274565b6101566102b6366004610dd8565b610ad0565b6102336102c9366004610e1f565b610b8f565b6101566102dc366004610e1f565b610baa565b6101566102ef366004610dd8565b610c72565b6102fc610d75565b6001600160a01b031661030d610986565b6001600160a01b031614610356576040805162461bcd60e51b8152602060048201819052602482015260008051602061134f833981519152604482015290519081900360640190fd5b6000811161037f5760405162461bcd60e51b815260040161037690610fc1565b60405180910390fd5b6014811061039f5760405162461bcd60e51b815260040161037690610f07565b607681905560405160008051602061136f833981519152906103c090610f98565b60405180910390a150565b6103d3610d75565b6001600160a01b03166103e4610986565b6001600160a01b03161461042d576040805162461bcd60e51b8152602060048201819052602482015260008051602061134f833981519152604482015290519081900360640190fd5b6276a700811061044f5760405162461bcd60e51b815260040161037690611238565b607281905560405160008051602061136f833981519152906103c0906111a8565b610478610d75565b6001600160a01b0316610489610986565b6001600160a01b0316146104d2576040805162461bcd60e51b8152602060048201819052602482015260008051602061134f833981519152604482015290519081900360640190fd5b6a05ca4ec2a79a7f670000008111156104fd5760405162461bcd60e51b815260040161037690611083565b606f81905560405160008051602061136f833981519152906103c090610e4b565b610526610d75565b6001600160a01b0316610537610986565b6001600160a01b031614610580576040805162461bcd60e51b8152602060048201819052602482015260008051602061134f833981519152604482015290519081900360640190fd5b600081116105a05760405162461bcd60e51b815260040161037690610fc1565b62278d0081106105c25760405162461bcd60e51b8152600401610376906110e8565b607181905560405160008051602061136f833981519152906103c0906110b8565b606c5481565b606d5481565b606f5481565b60665481565b610603610d75565b6001600160a01b0316610614610986565b6001600160a01b03161461065d576040805162461bcd60e51b8152602060048201819052602482015260008051602061134f833981519152604482015290519081900360640190fd5b6064811161067d5760405162461bcd60e51b815260040161037690611145565b6107d0811061069e5760405162461bcd60e51b815260040161037690610f35565b607481905560405160008051602061136f833981519152906103c090610ed0565b6106c7610d75565b6001600160a01b03166106d8610986565b6001600160a01b031614610721576040805162461bcd60e51b8152602060048201819052602482015260008051602061134f833981519152604482015290519081900360640190fd5b6033546040516000916001600160a01b0316907f8be0079c531659141344cd1fd0a4f28419497f9722a3daafe3b4186f6b6457e0908390a3603380546001600160a01b0319169055565b610773610d75565b6001600160a01b0316610784610986565b6001600160a01b0316146107cd576040805162461bcd60e51b8152602060048201819052602482015260008051602061134f833981519152604482015290519081900360640190fd5b62278d0081116107ef5760405162461bcd60e51b815260040161037690610ff1565b6303c2670081106108125760405162461bcd60e51b815260040161037690610f65565b607081905560405160008051602061136f833981519152906103c090611174565b60725460735460745460755460765460775460785487565b60715481565b610859610d75565b6001600160a01b031661086a610986565b6001600160a01b0316146108b3576040805162461bcd60e51b8152602060048201819052602482015260008051602061134f833981519152604482015290519081900360640190fd5b6001600160a01b0382166108d95760405162461bcd60e51b815260040161037690611205565b6001600160a01b0382166000908152606860205260409020805460ff16610941578054600160ff199091168117825560668054600090815260676020526040902080546001600160a01b0319166001600160a01b0387161790555461093d91610d79565b6066555b6001810182905560405160008051602061136f83398151915290610964906111de565b60405180910390a1505050565b6065546001600160a01b031681565b606e5481565b6033546001600160a01b031690565b60705481565b606b5481565b6079546001600160a01b031681565b6109b8610d75565b6001600160a01b03166109c9610986565b6001600160a01b031614610a12576040805162461bcd60e51b8152602060048201819052602482015260008051602061134f833981519152604482015290519081900360640190fd5b610bb8811115610a345760405162461bcd60e51b815260040161037690611024565b607781905560405160008051602061136f833981519152906103c09061111b565b606960205260009081526040902080546001820154600283015460038401546004850154600586015460068701546007880154600889015460098a0154600a8b0154600b8c0154600c8d0154600d909d01549b9c9a9b6001600160a01b03909a169a98999798969760ff90961696949593949293919290918e565b610ad8610d75565b6001600160a01b0316610ae9610986565b6001600160a01b031614610b32576040805162461bcd60e51b8152602060048201819052602482015260008051602061134f833981519152604482015290519081900360640190fd5b6001600160a01b038116610b585760405162461bcd60e51b815260040161037690610e6e565b607980546001600160a01b0319166001600160a01b03831617905560405160008051602061136f833981519152906103c090611055565b6067602052600090815260409020546001600160a01b031681565b610bb2610d75565b6001600160a01b0316610bc3610986565b6001600160a01b031614610c0c576040805162461bcd60e51b8152602060048201819052602482015260008051602061134f833981519152604482015290519081900360640190fd5b62278d008111610c2e5760405162461bcd60e51b815260040161037690610ff1565b6303c267008110610c515760405162461bcd60e51b815260040161037690610f65565b607381905560405160008051602061136f833981519152906103c090610e9c565b610c7a610d75565b6001600160a01b0316610c8b610986565b6001600160a01b031614610cd4576040805162461bcd60e51b8152602060048201819052602482015260008051602061134f833981519152604482015290519081900360640190fd5b6001600160a01b038116610d195760405162461bcd60e51b81526004018080602001828103825260268152602001806113296026913960400191505060405180910390fd5b6033546040516001600160a01b038084169216907f8be0079c531659141344cd1fd0a4f28419497f9722a3daafe3b4186f6b6457e090600090a3603380546001600160a01b0319166001600160a01b0392909216919091179055565b3390565b600082820183811015610dd1576040805162461bcd60e51b815260206004820152601b60248201527a536166654d6174683a206164646974696f6e206f766572666c6f7760281b604482015290519081900360640190fd5b9392505050565b600060208284031215610de9578081fd5b8135610dd181611310565b60008060408385031215610e06578081fd5b8235610e1181611310565b946020939093013593505050565b600060208284031215610e30578081fd5b5035919050565b6001600160a01b0391909116815260200190565b60208082526009908201526807365744448544361760bc1b604082015260600190565b60208082526014908201527343616e6e6f74206265206164647265737328302960601b604082015260600190565b6020808252601a90820152797365744d61784475726174696f6e426f6f73745365636f6e647360301b604082015260600190565b6020808252601f908201527f7365744d6178506572666f726d616e6365426f6f73744e756d657261746f7200604082015260600190565b60208082526014908201527304d757374206265206c657373207468616e2032360641b604082015260600190565b6020808252601690820152754d757374206265206c657373207468616e203230302560501b604082015260600190565b6020808252601990820152784d757374206265206c657373207468616e203220796561727360381b604082015260600190565b6020808252600f908201526e7365745374616b696e67526174696f60881b604082015260600190565b60208082526016908201527504d7573742062652067726561746572207468616e20360541b604082015260600190565b6020808252601990820152784d757374206265206d6f7265207468616e203330206461797360381b604082015260600190565b6020808252601790820152764d757374206265206c6f776572207468616e203330302560481b604082015260600190565b60208082526014908201527339b2ba2a37b5b2b72ab934a3b2b732b930ba37b960611b604082015260600190565b6020808252818101527f4d757374206265206c6f776572207468616e2037206d696c6c696f6e20646874604082015260600190565b60208082526016908201527573657452657761726453747265616d696e6754696d6560501b604082015260600190565b6020808252601990820152784d757374206265206c657373207468616e203330206461797360381b604082015260600190565b60208082526010908201526f736574456d697373696f6e735261746560801b604082015260600190565b6020808252601590820152744d757374206265206d6f7265207468616e2031302560581b604082015260600190565b6020808252601a90820152797365744d6178564475726174696f6e54696d655365636f6e647360301b604082015260600190565b6020808252601c908201527b7365745374616b654475726174696f6e44656c61795365636f6e647360201b604082015260600190565b6020808252600d908201526c18dbdb999a59dd5c99541bdbdb609a1b604082015260600190565b602080825260199082015278506f6f6c2063616e6e6f74206265206164647265737328302960381b604082015260600190565b6020808252601990820152784d757374206265206c657373207468616e203930206461797360381b604082015260600190565b90815260200190565b9d8e5260208e019c909c526001600160a01b039a909a1660408d015260608c019890985260808b019690965260a08a019490945291151560c089015260e08801526101008701526101208601526101408501526101608401526101808301526101a08201526101c00190565b968752602087019590955260408601939093526060850191909152608084015260a083015260c082015260e00190565b6001600160a01b038116811461132557600080fd5b5056fe4f776e61626c653a206e6577206f776e657220697320746865207a65726f20616464726573734f776e61626c653a2063616c6c6572206973206e6f7420746865206f776e65722a187da20163582a863d51103d3f0eeb25238ed59c945293838f3168ff2f337ea2646970667358221220711415a385f6faa846a784114a7410fe84ab2a133766b7ffc4d731b81945351364736f6c63430007060033",
  "linkReferences": {},
  "deployedLinkReferences": {}
}