{
  "_format": "hh-sol-artifact-1",
  "contractName": "BalancerComposableStablePoolAggregator",
  "sourceName": "contracts/priceAggregators/BalancerComposableStablePoolAggregator.sol",
  "abi": [
    {
      "inputs": [
        {
          "internalType": "address",
          "name": "_factory",
          "type": "address"
        },
        {
          "internalType": "contract IBalancerComposablePool",
          "name": "_pool",
          "type": "address"
        }
      ],
      "stateMutability": "nonpayable",
      "type": "constructor"
    },
    {
      "inputs": [],
      "name": "decimals",
      "outputs": [
        {
          "internalType": "uint8",
          "name": "",
          "type": "uint8"
        }
      ],
      "stateMutability": "pure",
      "type": "function"
    },
    {
      "inputs": [],
      "name": "factory",
      "outputs": [
        {
          "internalType": "address",
          "name": "",
          "type": "address"
        }
      ],
      "stateMutability": "view",
      "type": "function"
    },
    {
      "inputs": [],
      "name": "latestRoundData",
      "outputs": [
        {
          "internalType": "uint80",
          "name": "",
          "type": "uint80"
        },
        {
          "internalType": "int256",
          "name": "",
          "type": "int256"
        },
        {
          "internalType": "uint256",
          "name": "",
          "type": "uint256"
        },
        {
          "internalType": "uint256",
          "name": "",
          "type": "uint256"
        },
        {
          "internalType": "uint80",
          "name": "",
          "type": "uint80"
        }
      ],
      "stateMutability": "view",
      "type": "function"
    },
    {
      "inputs": [],
      "name": "pool",
      "outputs": [
        {
          "internalType": "contract IBalancerComposablePool",
          "name": "",
          "type": "address"
        }
      ],
      "stateMutability": "view",
      "type": "function"
    },
    {
      "inputs": [],
      "name": "poolId",
      "outputs": [
        {
          "internalType": "bytes32",
          "name": "",
          "type": "bytes32"
        }
      ],
      "stateMutability": "view",
      "type": "function"
    },
    {
      "inputs": [
        {
          "internalType": "uint256",
          "name": "",
          "type": "uint256"
        }
      ],
      "name": "tokenDecimals",
      "outputs": [
        {
          "internalType": "uint8",
          "name": "",
          "type": "uint8"
        }
      ],
      "stateMutability": "view",
      "type": "function"
    },
    {
      "inputs": [
        {
          "internalType": "uint256",
          "name": "",
          "type": "uint256"
        }
      ],
      "name": "tokens",
      "outputs": [
        {
          "internalType": "address",
          "name": "",
          "type": "address"
        }
      ],
      "stateMutability": "view",
      "type": "function"
    },
    {
      "inputs": [],
      "name": "vault",
      "outputs": [
        {
          "internalType": "contract IBalancerV2Vault",
          "name": "",
          "type": "address"
        }
      ],
      "stateMutability": "view",
      "type": "function"
    }
  ],
  "bytecode": "0x60806040523480156200001157600080fd5b5060405162000f3138038062000f3183398101604081905262000034916200047a565b6001600160a01b038216620000665760405162461bcd60e51b81526004016200005d906200060d565b60405180910390fd5b6001600160a01b0381166200008f5760405162461bcd60e51b81526004016200005d90620005d6565b600080546001600160a01b038085166001600160a01b031992831617909255600280549284169290911682179055604080516311b2515f60e31b81529051638d928af891600480820192602092909190829003018186803b158015620000f457600080fd5b505afa15801562000109573d6000803e3d6000fd5b505050506040513d601f19601f820116820180604052508101906200012f919062000454565b600160006101000a8154816001600160a01b0302191690836001600160a01b03160217905550806001600160a01b03166338fff2d06040518163ffffffff1660e01b815260040160206040518083038186803b1580156200018f57600080fd5b505afa158015620001a4573d6000803e3d6000fd5b505050506040513d601f19601f82011682018060405250810190620001ca919062000591565b6003819055600154604051631f29a8cd60e31b81526001600160a01b039091169163f94d466891620002009190600401620005cd565b60006040518083038186803b1580156200021957600080fd5b505afa1580156200022e573d6000803e3d6000fd5b505050506040513d6000823e601f3d908101601f19168201604052620002589190810190620004b8565b505080516200026f9060049060208401906200035f565b505060005b60045481101562000356576005600482815481106200028f57fe5b600091825260209182902001546040805163313ce56760e01b815290516001600160a01b039092169263313ce56792600480840193829003018186803b158015620002d957600080fd5b505afa158015620002ee573d6000803e3d6000fd5b505050506040513d601f19601f82011682018060405250810190620003149190620005aa565b8154600181810184556000938452602093849020938204909301805460ff938416601f9093166101000a92830293909202199091169190911790550162000274565b5050506200069f565b828054828255906000526020600020908101928215620003b7579160200282015b82811115620003b757825182546001600160a01b0319166001600160a01b0390911617825560209092019160019091019062000380565b50620003c5929150620003c9565b5090565b5b80821115620003c55760008155600101620003ca565b600082601f830112620003f1578081fd5b815160206200040a620004048362000668565b62000644565b828152818101908583018385028701840188101562000427578586fd5b855b85811015620004475781518452928401929084019060010162000429565b5090979650505050505050565b60006020828403121562000466578081fd5b8151620004738162000686565b9392505050565b600080604083850312156200048d578081fd5b82516200049a8162000686565b6020840151909250620004ad8162000686565b809150509250929050565b600080600060608486031215620004cd578081fd5b83516001600160401b0380821115620004e4578283fd5b818601915086601f830112620004f8578283fd5b815160206200050b620004048362000668565b82815281810190858301838502870184018c101562000528578788fd5b8796505b8487101562000557578051620005428162000686565b8352600196909601959183019183016200052c565b509189015191975090935050508082111562000571578283fd5b506200058086828701620003e0565b925050604084015190509250925092565b600060208284031215620005a3578081fd5b5051919050565b600060208284031215620005bc578081fd5b815160ff8116811462000473578182fd5b90815260200190565b60208082526019908201527f5f706f6f6c20616464726573732063616e6e6f74206265203000000000000000604082015260600190565b6020808252601c908201527f5f666163746f727920616464726573732063616e6e6f74206265203000000000604082015260600190565b6040518181016001600160401b03811182821017156200066057fe5b604052919050565b60006001600160401b038211156200067c57fe5b5060209081020190565b6001600160a01b03811681146200069c57600080fd5b50565b61088280620006af6000396000f3fe608060405234801561001057600080fd5b50600436106100785760003560e01c806316f0115b1461007d578063313ce5671461009b5780633e0dc34e146100b05780634f64b2be146100c55780638609f458146100d8578063c45a0155146100eb578063fbfa77cf146100f3578063feaf968c146100fb575b600080fd5b610085610114565b6040516100929190610790565b60405180910390f35b6100a3610123565b60405161009291906107dd565b6100b8610128565b60405161009291906107a4565b6100856100d3366004610760565b61012e565b6100a36100e6366004610760565b610158565b61008561018c565b61008561019b565b6101036101aa565b6040516100929594939291906107ad565b6002546001600160a01b031681565b600890565b60035481565b6004818154811061013e57600080fd5b6000918252602090912001546001600160a01b0316905081565b6005818154811061016857600080fd5b9060005260206000209060209182820401919006915054906101000a900460ff1681565b6000546001600160a01b031681565b6001546001600160a01b031681565b60008080808080806101ba6101ed565b90506101c5816103af565b915060006101d8836402540be400610486565b90989097506000965042955086945092505050565b6004546060906001600160401b038111801561020857600080fd5b50604051908082528060200260200182016040528015610232578160200160208202803683370190505b50600154600354604051631f29a8cd60e31b81529293506000926001600160a01b039092169163f94d46689161026a916004016107a4565b60006040518083038186803b15801561028257600080fd5b505afa158015610296573d6000803e3d6000fd5b505050506040513d6000823e601f3d908101601f191682016040526102be919081019061068a565b5091505060005b6004548110156103aa57600254600480546001600160a01b0390921691839081106102ec57fe5b6000918252602090912001546001600160a01b0316146103a2576103896005828154811061031657fe5b90600052602060002090602091828204019190069054906101000a900460ff1660ff16600a0a61038384848151811061034b57fe5b602002602001015161037d6004868154811061036357fe5b6000918252602090912001546001600160a01b03166104ec565b9061056d565b90610486565b83828151811061039557fe5b6020026020010181815250505b6001016102c5565b505090565b600080805b6004548110156103ee576103e48482815181106103cd57fe5b6020026020010151836105c690919063ffffffff16565b91506001016103b4565b506002546040805163876f303b60e01b8152905161047f926001600160a01b03169163876f303b916004808301926020929190829003018186803b15801561043557600080fd5b505afa158015610449573d6000803e3d6000fd5b505050506040513d601f19601f8201168201806040525081019061046d9190610778565b61038383670de0b6b3a764000061056d565b9392505050565b60008082116104d9576040805162461bcd60e51b815260206004820152601a602482015279536166654d6174683a206469766973696f6e206279207a65726f60301b604482015290519081900360640190fd5b8183816104e257fe5b0490505b92915050565b6000805460405163b3596f0760e01b81526001600160a01b039091169063b3596f079061051d908590600401610790565b60206040518083038186803b15801561053557600080fd5b505afa158015610549573d6000803e3d6000fd5b505050506040513d601f19601f820116820180604052508101906104e69190610778565b60008261057c575060006104e6565b8282028284828161058957fe5b041461047f5760405162461bcd60e51b815260040180806020018281038252602181526020018061082c6021913960400191505060405180910390fd5b60008282018381101561047f576040805162461bcd60e51b815260206004820152601b60248201527a536166654d6174683a206164646974696f6e206f766572666c6f7760281b604482015290519081900360640190fd5b600082601f83011261062e578081fd5b8151602061064361063e8361080e565b6107eb565b828152818101908583018385028701840188101561065f578586fd5b855b8581101561067d57815184529284019290840190600101610661565b5090979650505050505050565b60008060006060848603121561069e578283fd5b83516001600160401b03808211156106b4578485fd5b818601915086601f8301126106c7578485fd5b815160206106d761063e8361080e565b82815281810190858301838502870184018c10156106f357898afd5b8996505b848710156107295780516001600160a01b0381168114610715578a8bfd5b8352600196909601959183019183016106f7565b5091890151919750909350505080821115610742578384fd5b5061074f8682870161061e565b925050604084015190509250925092565b600060208284031215610771578081fd5b5035919050565b600060208284031215610789578081fd5b5051919050565b6001600160a01b0391909116815260200190565b90815260200190565b6001600160501b039586168152602081019490945260408401929092526060830152909116608082015260a00190565b60ff91909116815260200190565b6040518181016001600160401b038111828210171561080657fe5b604052919050565b60006001600160401b0382111561082157fe5b506020908102019056fe536166654d6174683a206d756c7469706c69636174696f6e206f766572666c6f77a26469706673582212203e7276bdda176d93f40200c3505b0431a9d4e49e7598ed8ca26efb6f7edc8d3f64736f6c63430007060033",
  "linkReferences": {},
  "deployedLinkReferences": {}
}