{
  "_format": "hh-sol-artifact-1",
  "contractName": "UniswapV3PriceLibraryTest",
  "sourceName": "contracts/test/UniswapV3PriceLibraryTest.sol",
  "abi": [
    {
      "inputs": [
        {
          "internalType": "address",
          "name": "dhedgeFactory",
          "type": "address"
        },
        {
          "internalType": "address",
          "name": "uniswapV3Factory",
          "type": "address"
        },
        {
          "internalType": "address",
          "name": "token0",
          "type": "address"
        },
        {
          "internalType": "address",
          "name": "token1",
          "type": "address"
        },
        {
          "internalType": "uint24",
          "name": "fee",
          "type": "uint24"
        }
      ],
      "name": "assertFairPrice",
      "outputs": [],
      "stateMutability": "view",
      "type": "function"
    }
  ],
  "bytecode": "0x608060405234801561001057600080fd5b50610941806100206000396000f3fe608060405234801561001057600080fd5b506004361061002b5760003560e01c8063ca4de61c14610030575b600080fd5b61007c600480360360a081101561004657600080fd5b5080356001600160a01b0390811691602081013582169160408201358116916060810135909116906080013562ffffff1661007e565b005b61008b8585858585610093565b505050505050565b600061013686866001600160a01b0316631698ee828787876040518463ffffffff1660e01b815260040180846001600160a01b03168152602001836001600160a01b031681526020018262ffffff168152602001935050505060206040518083038186803b15801561010457600080fd5b505afa158015610118573d6000803e3d6000fd5b505050506040513d602081101561012e57600080fd5b505184610140565b9695505050505050565b600080839050806001600160a01b0316633850c7bd6040518163ffffffff1660e01b815260040160e06040518083038186803b15801561017f57600080fd5b505afa158015610193573d6000803e3d6000fd5b505050506040513d60e08110156101a957600080fd5b505160408051630dfe168160e01b815290519193506000916102949188916001600160a01b03861691630dfe1681916004808301926020929190829003018186803b1580156101f757600080fd5b505afa15801561020b573d6000803e3d6000fd5b505050506040513d602081101561022157600080fd5b50516040805163d21220a760e01b815290516001600160a01b0387169163d21220a7916004808301926020929190829003018186803b15801561026357600080fd5b505afa158015610277573d6000803e3d6000fd5b505050506040513d602081101561028d57600080fd5b505161039a565b90506000610bb862ffffff861610156102af57610bb86102ca565b6102ca60646102c462ffffff88166096610590565b906105f2565b90506102f96102e9620f42406102c46001600160a01b03861685610590565b6001600160a01b03841690610656565b846001600160a01b03161080156103445750610338610328620f42406102c46001600160a01b03861685610590565b6001600160a01b03861690610656565b826001600160a01b0316105b610390576040805162461bcd60e51b81526020600482015260186024820152770aadcd240ec664098a040e0e4d2c6ca40dad2e6dac2e8c6d60431b604482015290519081900360640190fd5b5050509392505050565b600080846001600160a01b031663b3596f07856040518263ffffffff1660e01b815260040180826001600160a01b0316815260200191505060206040518083038186803b1580156103ea57600080fd5b505afa1580156103fe573d6000803e3d6000fd5b505050506040513d602081101561041457600080fd5b50516040805163b3596f0760e01b81526001600160a01b03868116600483015291519293506000929188169163b3596f0791602480820192602092909190829003018186803b15801561046657600080fd5b505afa15801561047a573d6000803e3d6000fd5b505050506040513d602081101561049057600080fd5b50516040805163313ce56760e01b815290519192506000916001600160a01b0388169163313ce567916004808301926020929190829003018186803b1580156104d857600080fd5b505afa1580156104ec573d6000803e3d6000fd5b505050506040513d602081101561050257600080fd5b50516040805163313ce56760e01b815290519192506000916001600160a01b0388169163313ce567916004808301926020929190829003018186803b15801561054a57600080fd5b505afa15801561055e573d6000803e3d6000fd5b505050506040513d602081101561057457600080fd5b50519050610584848484846106ae565b98975050505050505050565b60008261059f575060006105ec565b828202828482816105ac57fe5b04146105e95760405162461bcd60e51b81526004018080602001828103825260218152602001806108eb6021913960400191505060405180910390fd5b90505b92915050565b6000808211610645576040805162461bcd60e51b815260206004820152601a602482015279536166654d6174683a206469766973696f6e206279207a65726f60301b604482015290519081900360640190fd5b81838161064e57fe5b049392505050565b6000828201838110156105e9576040805162461bcd60e51b815260206004820152601b60248201527a536166654d6174683a206164646974696f6e206f766572666c6f7760281b604482015290519081900360640190fd5b6000806106c5856102c48860ff8716600a0a610590565b90506000670de0b6b3a76400008211156106ee575060016106eb826402540be4006105f2565b91505b670de0b6b3a7640000821115801561070757506103e882115b610758576040805162461bcd60e51b815260206004820181905260248201527f556e6920763320707269636520726174696f206f7574206f6620626f756e6473604482015290519081900360640190fd5b61077461076f60c084901b60ff8816600a0a6105f2565b6107a8565b6001600160801b03169250801561079e5761079b6001600160a01b038416620186a0610590565b92505b5050949350505050565b6000816107b7575060006108e5565b816001600160801b82106107d05760809190911c9060401b5b600160401b82106107e65760409190911c9060201b5b600160201b82106107fc5760209190911c9060101b5b6201000082106108115760109190911c9060081b5b61010082106108255760089190911c9060041b5b601082106108385760049190911c9060021b5b600882106108445760011b5b600181858161084f57fe5b048201901c9050600181858161086157fe5b048201901c9050600181858161087357fe5b048201901c9050600181858161088557fe5b048201901c9050600181858161089757fe5b048201901c905060018185816108a957fe5b048201901c905060018185816108bb57fe5b048201901c905060008185816108cd57fe5b0490508082106108dd57806108df565b815b93505050505b91905056fe536166654d6174683a206d756c7469706c69636174696f6e206f766572666c6f77a2646970667358221220de1479a404ddae5ef0c91bcc8196212b8f00189d571544e17427ef46931a5f4664736f6c63430007060033",
  "linkReferences": {},
  "deployedLinkReferences": {}
}