{
  "_format": "hh-sol-artifact-1",
  "contractName": "MaiVaultContractGuard",
  "sourceName": "contracts/guards/contractGuards/MaiVaultContractGuard.sol",
  "abi": [
    {
      "inputs": [
        {
          "internalType": "address",
          "name": "_nftTracker",
          "type": "address"
        }
      ],
      "stateMutability": "nonpayable",
      "type": "constructor"
    },
    {
      "anonymous": false,
      "inputs": [
        {
          "indexed": false,
          "internalType": "address",
          "name": "poolLogic",
          "type": "address"
        },
        {
          "indexed": false,
          "internalType": "address",
          "name": "pair",
          "type": "address"
        },
        {
          "indexed": false,
          "internalType": "bytes",
          "name": "params",
          "type": "bytes"
        },
        {
          "indexed": false,
          "internalType": "uint256",
          "name": "time",
          "type": "uint256"
        }
      ],
      "name": "AddLiquidity",
      "type": "event"
    },
    {
      "anonymous": false,
      "inputs": [
        {
          "indexed": false,
          "internalType": "address",
          "name": "fundAddress",
          "type": "address"
        },
        {
          "indexed": false,
          "internalType": "address",
          "name": "asset",
          "type": "address"
        },
        {
          "indexed": false,
          "internalType": "address",
          "name": "liquidityPool",
          "type": "address"
        },
        {
          "indexed": false,
          "internalType": "uint256",
          "name": "amount",
          "type": "uint256"
        },
        {
          "indexed": false,
          "internalType": "uint256",
          "name": "time",
          "type": "uint256"
        }
      ],
      "name": "AddLiquiditySingle",
      "type": "event"
    },
    {
      "anonymous": false,
      "inputs": [
        {
          "indexed": false,
          "internalType": "address",
          "name": "poolLogic",
          "type": "address"
        },
        {
          "indexed": false,
          "internalType": "address",
          "name": "stakingContract",
          "type": "address"
        },
        {
          "indexed": false,
          "internalType": "uint256",
          "name": "time",
          "type": "uint256"
        }
      ],
      "name": "Claim",
      "type": "event"
    },
    {
      "anonymous": false,
      "inputs": [
        {
          "indexed": false,
          "internalType": "address",
          "name": "fundAddress",
          "type": "address"
        },
        {
          "indexed": false,
          "internalType": "address",
          "name": "sourceAsset",
          "type": "address"
        },
        {
          "indexed": false,
          "internalType": "uint256",
          "name": "sourceAmount",
          "type": "uint256"
        },
        {
          "indexed": false,
          "internalType": "address",
          "name": "dstAsset",
          "type": "address"
        },
        {
          "indexed": false,
          "internalType": "uint256",
          "name": "time",
          "type": "uint256"
        }
      ],
      "name": "ExchangeFrom",
      "type": "event"
    },
    {
      "anonymous": false,
      "inputs": [
        {
          "indexed": false,
          "internalType": "address",
          "name": "fundAddress",
          "type": "address"
        },
        {
          "indexed": false,
          "internalType": "address",
          "name": "sourceAsset",
          "type": "address"
        },
        {
          "indexed": false,
          "internalType": "address",
          "name": "dstAsset",
          "type": "address"
        },
        {
          "indexed": false,
          "internalType": "uint256",
          "name": "dstAmount",
          "type": "uint256"
        },
        {
          "indexed": false,
          "internalType": "uint256",
          "name": "time",
          "type": "uint256"
        }
      ],
      "name": "ExchangeTo",
      "type": "event"
    },
    {
      "anonymous": false,
      "inputs": [
        {
          "indexed": false,
          "internalType": "address",
          "name": "fundAddress",
          "type": "address"
        },
        {
          "indexed": false,
          "internalType": "address",
          "name": "maiVault",
          "type": "address"
        }
      ],
      "name": "MaiEvent",
      "type": "event"
    },
    {
      "anonymous": false,
      "inputs": [
        {
          "indexed": false,
          "internalType": "address",
          "name": "poolLogic",
          "type": "address"
        },
        {
          "indexed": false,
          "internalType": "address",
          "name": "pair",
          "type": "address"
        },
        {
          "indexed": false,
          "internalType": "bytes",
          "name": "params",
          "type": "bytes"
        },
        {
          "indexed": false,
          "internalType": "uint256",
          "name": "time",
          "type": "uint256"
        }
      ],
      "name": "RemoveLiquidity",
      "type": "event"
    },
    {
      "anonymous": false,
      "inputs": [
        {
          "indexed": false,
          "internalType": "address",
          "name": "fundAddress",
          "type": "address"
        },
        {
          "indexed": false,
          "internalType": "address",
          "name": "asset",
          "type": "address"
        },
        {
          "indexed": false,
          "internalType": "address",
          "name": "liquidityPool",
          "type": "address"
        },
        {
          "indexed": false,
          "internalType": "uint256",
          "name": "amount",
          "type": "uint256"
        },
        {
          "indexed": false,
          "internalType": "uint256",
          "name": "time",
          "type": "uint256"
        }
      ],
      "name": "RemoveLiquiditySingle",
      "type": "event"
    },
    {
      "anonymous": false,
      "inputs": [
        {
          "indexed": true,
          "internalType": "address",
          "name": "fundAddress",
          "type": "address"
        },
        {
          "indexed": false,
          "internalType": "address",
          "name": "asset",
          "type": "address"
        },
        {
          "indexed": false,
          "internalType": "address",
          "name": "cToken",
          "type": "address"
        },
        {
          "indexed": false,
          "internalType": "uint256",
          "name": "amount",
          "type": "uint256"
        },
        {
          "indexed": false,
          "internalType": "uint256",
          "name": "time",
          "type": "uint256"
        }
      ],
      "name": "SonneBorrowEvent",
      "type": "event"
    },
    {
      "anonymous": false,
      "inputs": [
        {
          "indexed": true,
          "internalType": "address",
          "name": "poolLogic",
          "type": "address"
        },
        {
          "indexed": false,
          "internalType": "address[]",
          "name": "cTokens",
          "type": "address[]"
        },
        {
          "indexed": false,
          "internalType": "uint256",
          "name": "time",
          "type": "uint256"
        }
      ],
      "name": "SonneEnterMarkets",
      "type": "event"
    },
    {
      "anonymous": false,
      "inputs": [
        {
          "indexed": true,
          "internalType": "address",
          "name": "poolLogic",
          "type": "address"
        },
        {
          "indexed": false,
          "internalType": "address",
          "name": "cToken",
          "type": "address"
        },
        {
          "indexed": false,
          "internalType": "uint256",
          "name": "time",
          "type": "uint256"
        }
      ],
      "name": "SonneExitMarket",
      "type": "event"
    },
    {
      "anonymous": false,
      "inputs": [
        {
          "indexed": true,
          "internalType": "address",
          "name": "fundAddress",
          "type": "address"
        },
        {
          "indexed": false,
          "internalType": "address",
          "name": "asset",
          "type": "address"
        },
        {
          "indexed": false,
          "internalType": "address",
          "name": "cToken",
          "type": "address"
        },
        {
          "indexed": false,
          "internalType": "uint256",
          "name": "amount",
          "type": "uint256"
        },
        {
          "indexed": false,
          "internalType": "uint256",
          "name": "time",
          "type": "uint256"
        }
      ],
      "name": "SonneMintEvent",
      "type": "event"
    },
    {
      "anonymous": false,
      "inputs": [
        {
          "indexed": true,
          "internalType": "address",
          "name": "fundAddress",
          "type": "address"
        },
        {
          "indexed": false,
          "internalType": "address",
          "name": "asset",
          "type": "address"
        },
        {
          "indexed": false,
          "internalType": "address",
          "name": "cToken",
          "type": "address"
        },
        {
          "indexed": false,
          "internalType": "uint256",
          "name": "amount",
          "type": "uint256"
        },
        {
          "indexed": false,
          "internalType": "uint256",
          "name": "time",
          "type": "uint256"
        }
      ],
      "name": "SonneRedeemEvent",
      "type": "event"
    },
    {
      "anonymous": false,
      "inputs": [
        {
          "indexed": true,
          "internalType": "address",
          "name": "fundAddress",
          "type": "address"
        },
        {
          "indexed": false,
          "internalType": "address",
          "name": "asset",
          "type": "address"
        },
        {
          "indexed": false,
          "internalType": "address",
          "name": "cToken",
          "type": "address"
        },
        {
          "indexed": false,
          "internalType": "uint256",
          "name": "amount",
          "type": "uint256"
        },
        {
          "indexed": false,
          "internalType": "uint256",
          "name": "time",
          "type": "uint256"
        }
      ],
      "name": "SonneRedeemUnderlyingEvent",
      "type": "event"
    },
    {
      "anonymous": false,
      "inputs": [
        {
          "indexed": true,
          "internalType": "address",
          "name": "fundAddress",
          "type": "address"
        },
        {
          "indexed": false,
          "internalType": "address",
          "name": "asset",
          "type": "address"
        },
        {
          "indexed": false,
          "internalType": "address",
          "name": "cToken",
          "type": "address"
        },
        {
          "indexed": false,
          "internalType": "uint256",
          "name": "amount",
          "type": "uint256"
        },
        {
          "indexed": false,
          "internalType": "uint256",
          "name": "time",
          "type": "uint256"
        }
      ],
      "name": "SonneRepayEvent",
      "type": "event"
    },
    {
      "anonymous": false,
      "inputs": [
        {
          "indexed": false,
          "internalType": "address",
          "name": "poolLogic",
          "type": "address"
        },
        {
          "indexed": false,
          "internalType": "address",
          "name": "stakingToken",
          "type": "address"
        },
        {
          "indexed": false,
          "internalType": "address",
          "name": "to",
          "type": "address"
        },
        {
          "indexed": false,
          "internalType": "uint256",
          "name": "amount",
          "type": "uint256"
        },
        {
          "indexed": false,
          "internalType": "uint256",
          "name": "time",
          "type": "uint256"
        }
      ],
      "name": "Stake",
      "type": "event"
    },
    {
      "anonymous": false,
      "inputs": [
        {
          "indexed": false,
          "internalType": "address",
          "name": "poolAddress",
          "type": "address"
        },
        {
          "indexed": false,
          "internalType": "contract IERC20[]",
          "name": "synthProxies",
          "type": "address[]"
        }
      ],
      "name": "SynthRedeem",
      "type": "event"
    },
    {
      "anonymous": false,
      "inputs": [
        {
          "indexed": false,
          "internalType": "address",
          "name": "poolLogic",
          "type": "address"
        },
        {
          "indexed": false,
          "internalType": "uint256",
          "name": "txType",
          "type": "uint256"
        }
      ],
      "name": "SynthetixV3Event",
      "type": "event"
    },
    {
      "anonymous": false,
      "inputs": [
        {
          "indexed": false,
          "internalType": "address",
          "name": "poolLogic",
          "type": "address"
        },
        {
          "indexed": false,
          "internalType": "address",
          "name": "stakingToken",
          "type": "address"
        },
        {
          "indexed": false,
          "internalType": "address",
          "name": "to",
          "type": "address"
        },
        {
          "indexed": false,
          "internalType": "uint256",
          "name": "amount",
          "type": "uint256"
        },
        {
          "indexed": false,
          "internalType": "uint256",
          "name": "time",
          "type": "uint256"
        }
      ],
      "name": "Unstake",
      "type": "event"
    },
    {
      "inputs": [],
      "name": "MAX_POSITION_COUNT",
      "outputs": [
        {
          "internalType": "uint256",
          "name": "",
          "type": "uint256"
        }
      ],
      "stateMutability": "view",
      "type": "function"
    },
    {
      "inputs": [
        {
          "internalType": "address",
          "name": "_poolManagerLogic",
          "type": "address"
        },
        {
          "internalType": "address",
          "name": "to",
          "type": "address"
        },
        {
          "internalType": "bytes",
          "name": "data",
          "type": "bytes"
        }
      ],
      "name": "afterTxGuard",
      "outputs": [],
      "stateMutability": "nonpayable",
      "type": "function"
    },
    {
      "inputs": [
        {
          "internalType": "bytes32",
          "name": "data",
          "type": "bytes32"
        }
      ],
      "name": "convert32toAddress",
      "outputs": [
        {
          "internalType": "address",
          "name": "o",
          "type": "address"
        }
      ],
      "stateMutability": "pure",
      "type": "function"
    },
    {
      "inputs": [
        {
          "internalType": "bytes",
          "name": "data",
          "type": "bytes"
        },
        {
          "internalType": "uint8",
          "name": "inputNum",
          "type": "uint8"
        },
        {
          "internalType": "uint8",
          "name": "arrayIndex",
          "type": "uint8"
        }
      ],
      "name": "getArrayIndex",
      "outputs": [
        {
          "internalType": "bytes32",
          "name": "",
          "type": "bytes32"
        }
      ],
      "stateMutability": "pure",
      "type": "function"
    },
    {
      "inputs": [
        {
          "internalType": "bytes",
          "name": "data",
          "type": "bytes"
        },
        {
          "internalType": "uint8",
          "name": "inputNum",
          "type": "uint8"
        }
      ],
      "name": "getArrayLast",
      "outputs": [
        {
          "internalType": "bytes32",
          "name": "",
          "type": "bytes32"
        }
      ],
      "stateMutability": "pure",
      "type": "function"
    },
    {
      "inputs": [
        {
          "internalType": "bytes",
          "name": "data",
          "type": "bytes"
        },
        {
          "internalType": "uint8",
          "name": "inputNum",
          "type": "uint8"
        }
      ],
      "name": "getArrayLength",
      "outputs": [
        {
          "internalType": "uint256",
          "name": "",
          "type": "uint256"
        }
      ],
      "stateMutability": "pure",
      "type": "function"
    },
    {
      "inputs": [
        {
          "internalType": "bytes",
          "name": "data",
          "type": "bytes"
        },
        {
          "internalType": "uint8",
          "name": "inputNum",
          "type": "uint8"
        },
        {
          "internalType": "uint256",
          "name": "offset",
          "type": "uint256"
        }
      ],
      "name": "getBytes",
      "outputs": [
        {
          "internalType": "bytes",
          "name": "",
          "type": "bytes"
        }
      ],
      "stateMutability": "pure",
      "type": "function"
    },
    {
      "inputs": [
        {
          "internalType": "bytes",
          "name": "data",
          "type": "bytes"
        },
        {
          "internalType": "uint8",
          "name": "inputNum",
          "type": "uint8"
        }
      ],
      "name": "getInput",
      "outputs": [
        {
          "internalType": "bytes32",
          "name": "",
          "type": "bytes32"
        }
      ],
      "stateMutability": "pure",
      "type": "function"
    },
    {
      "inputs": [
        {
          "internalType": "bytes",
          "name": "data",
          "type": "bytes"
        }
      ],
      "name": "getMethod",
      "outputs": [
        {
          "internalType": "bytes4",
          "name": "",
          "type": "bytes4"
        }
      ],
      "stateMutability": "pure",
      "type": "function"
    },
    {
      "inputs": [
        {
          "internalType": "address",
          "name": "pool",
          "type": "address"
        },
        {
          "internalType": "address",
          "name": "maiVault",
          "type": "address"
        }
      ],
      "name": "getNftIds",
      "outputs": [
        {
          "internalType": "uint256[]",
          "name": "",
          "type": "uint256[]"
        }
      ],
      "stateMutability": "view",
      "type": "function"
    },
    {
      "inputs": [
        {
          "internalType": "address",
          "name": "to",
          "type": "address"
        }
      ],
      "name": "getNftType",
      "outputs": [
        {
          "internalType": "bytes32",
          "name": "",
          "type": "bytes32"
        }
      ],
      "stateMutability": "pure",
      "type": "function"
    },
    {
      "inputs": [
        {
          "internalType": "bytes",
          "name": "data",
          "type": "bytes"
        }
      ],
      "name": "getParams",
      "outputs": [
        {
          "internalType": "bytes",
          "name": "",
          "type": "bytes"
        }
      ],
      "stateMutability": "pure",
      "type": "function"
    },
    {
      "inputs": [],
      "name": "isTxTrackingGuard",
      "outputs": [
        {
          "internalType": "bool",
          "name": "",
          "type": "bool"
        }
      ],
      "stateMutability": "view",
      "type": "function"
    },
    {
      "inputs": [],
      "name": "nftTracker",
      "outputs": [
        {
          "internalType": "contract DhedgeNftTrackerStorage",
          "name": "",
          "type": "address"
        }
      ],
      "stateMutability": "view",
      "type": "function"
    },
    {
      "inputs": [
        {
          "internalType": "bytes",
          "name": "data",
          "type": "bytes"
        },
        {
          "internalType": "uint256",
          "name": "offset",
          "type": "uint256"
        },
        {
          "internalType": "uint256",
          "name": "length",
          "type": "uint256"
        }
      ],
      "name": "read32",
      "outputs": [
        {
          "internalType": "bytes32",
          "name": "o",
          "type": "bytes32"
        }
      ],
      "stateMutability": "pure",
      "type": "function"
    },
    {
      "inputs": [
        {
          "internalType": "bytes",
          "name": "data",
          "type": "bytes"
        },
        {
          "internalType": "uint256",
          "name": "offset",
          "type": "uint256"
        }
      ],
      "name": "read4left",
      "outputs": [
        {
          "internalType": "bytes4",
          "name": "o",
          "type": "bytes4"
        }
      ],
      "stateMutability": "pure",
      "type": "function"
    },
    {
      "inputs": [
        {
          "internalType": "address",
          "name": "_poolManagerLogic",
          "type": "address"
        },
        {
          "internalType": "address",
          "name": "to",
          "type": "address"
        },
        {
          "internalType": "bytes",
          "name": "data",
          "type": "bytes"
        }
      ],
      "name": "txGuard",
      "outputs": [
        {
          "internalType": "uint16",
          "name": "txType",
          "type": "uint16"
        },
        {
          "internalType": "bool",
          "name": "",
          "type": "bool"
        }
      ],
      "stateMutability": "nonpayable",
      "type": "function"
    }
  ],
  "bytecode": "0x60a06040526000805460ff1916600117905534801561001d57600080fd5b5060405161178c38038061178c83398101604081905261003c91610051565b60601b6001600160601b03191660805261007f565b600060208284031215610062578081fd5b81516001600160a01b0381168114610078578182fd5b9392505050565b60805160601c6116e16100ab6000398061050d5280610a315280610cd35280610dd752506116e16000f3fe608060405234801561001057600080fd5b50600436106100db5760003560e01c8063070a2c94146100e057806309ff5c7d146101095780631053f9521461011c5780631eba30771461013c578063293d80631461015c57806341dc16c31461017c57806342ff4b501461018f57806352dac656146101975780636179309d1461019f57806368901513146101c05780637bf98119146101d357806382f86acc146101e8578063998546e3146101fb578063c3c6279f1461020e578063c695201314610221578063db896b5714610241578063f66c9dd214610254575b600080fd5b6100f36100ee36600461108e565b610269565b6040516101009190611526565b60405180910390f35b6100f3610117366004611321565b61029a565b61012f61012a36600461136c565b61032b565b604051610100919061155b565b61014f61014a36600461124a565b6103c3565b604051610100919061144b565b61016f61016a366004611294565b6103c6565b6040516101009190611546565b6100f361018a3660046113c0565b610428565b6100f3610506565b61014f61050b565b6101b26101ad3660046110fe565b61052f565b60405161010092919061165a565b61012f6101ce366004611262565b6109a7565b6101db6109c8565b604051610100919061151b565b6100f36101f6366004611321565b6109d1565b6100f3610209366004611321565b6109ef565b61016f61021c366004611262565b610a20565b61023461022f3660046110c6565b610a2d565b60405161010091906114d7565b6100f361024f3660046112d6565b610ad9565b6102676102623660046110fe565b610b58565b005b60008160405160200161027c9190611433565b6040516020818303038152906040528051906020012090505b919050565b6000806102b2848460200260040160ff166020610ad9565b905060006102c585600484016020610ad9565b90508061030e576040805162461bcd60e51b8152602060048201526012602482015271696e707574206973206e6f7420617272617960701b604482015290519081900360640190fd5b610322856020808402850160040190610ad9565b95945050505050565b606060148210610373576040805162461bcd60e51b815260206004820152600e60248201526d1a5b9d985b1a59081bd9999cd95d60921b604482015290519081900360640190fd5b816020029150600061039285848660200260040160ff16016020610ad9565b905060006103a7868584016004016020610ad9565b90506103b98660248487010183610e6b565b9695505050505050565b90565b6000816004018351101561041f576040805162461bcd60e51b815260206004820152601b60248201527a52656164696e67206279746573206f7574206f6620626f756e647360281b604482015290519081900360640190fd5b50016020015190565b600080610440858560200260040160ff166020610ad9565b9050600061045386600484016020610ad9565b90508061049c576040805162461bcd60e51b8152602060048201526012602482015271696e707574206973206e6f7420617272617960701b604482015290519081900360640190fd5b60ff841681116104ec576040805162461bcd60e51b815260206004820152601660248201527534b73b30b634b21030b93930bc903837b9b4ba34b7b760511b604482015290519081900360640190fd5b6103b9866020600160ff8816018102850160040190610ad9565b600181565b7f000000000000000000000000000000000000000000000000000000000000000081565b600080600061057385858080601f016020809104026020016040519081016040528093929190818152602001838380828437600092019190915250610a2092505050565b90506000876001600160a01b03166339b81fd96040518163ffffffff1660e01b815260040160206040518083038186803b1580156105b057600080fd5b505afa1580156105c4573d6000803e3d6000fd5b505050506040513d601f19601f820116820180604052508101906105e891906110aa565b604051634df48c7360e11b815290915088906001600160a01b03821690639be918e690610619908b9060040161144b565b60206040518083038186803b15801561063157600080fd5b505afa158015610645573d6000803e3d6000fd5b505050506040513d601f19601f82011682018060405250810190610669919061122a565b61068e5760405162461bcd60e51b8152600401610685906115de565b60405180910390fd5b806001600160a01b0316639be918e6896001600160a01b031663d8dfeb456040518163ffffffff1660e01b815260040160206040518083038186803b1580156106d657600080fd5b505afa1580156106ea573d6000803e3d6000fd5b505050506040513d601f19601f8201168201806040525081019061070e91906110aa565b6040518263ffffffff1660e01b815260040161072a919061144b565b60206040518083038186803b15801561074257600080fd5b505afa158015610756573d6000803e3d6000fd5b505050506040513d601f19601f8201168201806040525081019061077a919061122a565b6107965760405162461bcd60e51b8152600401610685906115ae565b806001600160a01b0316639be918e6896001600160a01b031663570b2b846040518163ffffffff1660e01b815260040160206040518083038186803b1580156107de57600080fd5b505afa1580156107f2573d6000803e3d6000fd5b505050506040513d601f19601f8201168201806040525081019061081691906110aa565b6040518263ffffffff1660e01b8152600401610832919061144b565b60206040518083038186803b15801561084a57600080fd5b505afa15801561085e573d6000803e3d6000fd5b505050506040513d601f19601f82011682018060405250810190610882919061122a565b61089e5760405162461bcd60e51b815260040161068590611631565b6001600160e01b03198316635d12928b60e01b14806108cd57506001600160e01b031983166385e290a360e01b145b806108e857506001600160e01b031983166376709b9960e11b145b8061090357506001600160e01b03198316634bd20dc760e11b145b8061091e57506001600160e01b03198316633128ef2760e01b145b8061093957506001600160e01b031983166333d7c3cf60e21b145b8061095457506001600160e01b0319831663767a7b0560e01b145b15610997577fbc946644caee3db26fe458708d934e59c593bcd4fb401e8d7ce8015afc4c4a4f828960405161098a92919061145f565b60405180910390a1602094505b5060009250505094509492505050565b60606109c260048084510384610e6b9092919063ffffffff16565b92915050565b60005460ff1681565b60006109e8838360200260040160ff166020610ad9565b9392505050565b600080610a07848460200260040160ff166020610ad9565b9050610a1884600483016020610ad9565b949350505050565b60006109c28260006103c6565b60607f00000000000000000000000000000000000000000000000000000000000000006001600160a01b031663d6b6aa49610a6784610269565b856040518363ffffffff1660e01b8152600401610a8592919061152f565b60006040518083038186803b158015610a9d57600080fd5b505afa158015610ab1573d6000803e3d6000fd5b505050506040513d6000823e601f3d908101601f191682016040526109e8919081019061118a565b600081830184511015610b31576040805162461bcd60e51b815260206004820152601b60248201527a52656164696e67206279746573206f7574206f6620626f756e647360281b604482015290519081900360640190fd5b826020018401519050816020038015610b50576008810260020a820491505b509392505050565b6000846001600160a01b03166339b81fd96040518163ffffffff1660e01b815260040160206040518083038186803b158015610b9357600080fd5b505afa158015610ba7573d6000803e3d6000fd5b505050506040513d601f19601f82011682018060405250810190610bcb91906110aa565b9050336001600160a01b03821614610bf55760405162461bcd60e51b815260040161068590611609565b6000610c3684848080601f016020809104026020016040519081016040528093929190818152602001838380828437600092019190915250610a2092505050565b90506001600160e01b03198116635d12928b60e01b1415610d66576000610ccf6001876001600160a01b031663a7c6a1006040518163ffffffff1660e01b815260040160206040518083038186803b158015610c9157600080fd5b505afa158015610ca5573d6000803e3d6000fd5b505050506040513d601f19601f82011682018060405250810190610cc9919061141b565b90610fbc565b90507f00000000000000000000000000000000000000000000000000000000000000006001600160a01b03166376d1bdf687610d0a89610269565b868560016040518663ffffffff1660e01b8152600401610d2e9594939291906114a3565b600060405180830381600087803b158015610d4857600080fd5b505af1158015610d5c573d6000803e3d6000fd5b5050505050610e63565b6001600160e01b031981166385e290a360e01b1415610e63576000610dc085858080601f0160208091040260200160405190810160405280939291908181526020018383808284376000920191909152506109a792505050565b806020019051810190610dd3919061141b565b90507f00000000000000000000000000000000000000000000000000000000000000006001600160a01b0316638ac31ac387610e0e89610269565b86856040518563ffffffff1660e01b8152600401610e2f9493929190611479565b600060405180830381600087803b158015610e4957600080fd5b505af1158015610e5d573d6000803e3d6000fd5b50505050505b505050505050565b60608182601f011015610eb6576040805162461bcd60e51b815260206004820152600e60248201526d736c6963655f6f766572666c6f7760901b604482015290519081900360640190fd5b828284011015610efe576040805162461bcd60e51b815260206004820152600e60248201526d736c6963655f6f766572666c6f7760901b604482015290519081900360640190fd5b81830184511015610f4a576040805162461bcd60e51b8152602060048201526011602482015270736c6963655f6f75744f66426f756e647360781b604482015290519081900360640190fd5b606082158015610f695760405191506000825260208201604052610fb3565b6040519150601f8416801560200281840101858101878315602002848b0101015b81831015610fa2578051835260209283019201610f8a565b5050858452601f01601f1916604052505b50949350505050565b600082821115611013576040805162461bcd60e51b815260206004820152601e60248201527f536166654d6174683a207375627472616374696f6e206f766572666c6f770000604482015290519081900360640190fd5b50900390565b600082601f830112611029578081fd5b81356001600160401b0381111561103c57fe5b61104f601f8201601f1916602001611670565b818152846020838601011115611063578283fd5b816020850160208301379081016020019190915292915050565b803560ff8116811461029557600080fd5b60006020828403121561109f578081fd5b81356109e881611693565b6000602082840312156110bb578081fd5b81516109e881611693565b600080604083850312156110d8578081fd5b82356110e381611693565b915060208301356110f381611693565b809150509250929050565b60008060008060608587031215611113578182fd5b843561111e81611693565b9350602085013561112e81611693565b925060408501356001600160401b0380821115611149578384fd5b818701915087601f83011261115c578384fd5b81358181111561116a578485fd5b88602082850101111561117b578485fd5b95989497505060200194505050565b6000602080838503121561119c578182fd5b82516001600160401b03808211156111b2578384fd5b818501915085601f8301126111c5578384fd5b8151818111156111d157fe5b83810291506111e1848301611670565b8181528481019084860184860187018a10156111fb578788fd5b8795505b8386101561121d5780518352600195909501949186019186016111ff565b5098975050505050505050565b60006020828403121561123b578081fd5b815180151581146109e8578182fd5b60006020828403121561125b578081fd5b5035919050565b600060208284031215611273578081fd5b81356001600160401b03811115611288578182fd5b610a1884828501611019565b600080604083850312156112a6578182fd5b82356001600160401b038111156112bb578283fd5b6112c785828601611019565b95602094909401359450505050565b6000806000606084860312156112ea578283fd5b83356001600160401b038111156112ff578384fd5b61130b86828701611019565b9660208601359650604090950135949350505050565b60008060408385031215611333578182fd5b82356001600160401b03811115611348578283fd5b61135485828601611019565b9250506113636020840161107d565b90509250929050565b600080600060608486031215611380578283fd5b83356001600160401b03811115611395578384fd5b6113a186828701611019565b9350506113b06020850161107d565b9150604084013590509250925092565b6000806000606084860312156113d4578081fd5b83356001600160401b038111156113e9578182fd5b6113f586828701611019565b9350506114046020850161107d565b91506114126040850161107d565b90509250925092565b60006020828403121561142c578081fd5b5051919050565b60609190911b6001600160601b031916815260140190565b6001600160a01b0391909116815260200190565b6001600160a01b0392831681529116602082015260400190565b6001600160a01b039485168152602081019390935292166040820152606081019190915260800190565b6001600160a01b03958616815260208101949094529190931660408301526060820192909252608081019190915260a00190565b6020808252825182820181905260009190848201906040850190845b8181101561150f578351835292840192918401916001016114f3565b50909695505050505050565b901515815260200190565b90815260200190565b9182526001600160a01b0316602082015260400190565b6001600160e01b031991909116815260200190565b6000602080835283518082850152825b818110156115875785810183015185820160400152820161156b565b818111156115985783604083870101525b50601f01601f1916929092016040019392505050565b60208082526016908201527518dbdb1b185d195c985b081b9bdd08195b98589b195960521b604082015260600190565b6020808252601190820152701d5b9cdd5c1c1bdc9d195908185cdcd95d607a1b604082015260600190565b6020808252600e908201526d6e6f7420706f6f6c206c6f67696360901b604082015260600190565b6020808252600f908201526e1b585a481b9bdd08195b98589b1959608a1b604082015260600190565b61ffff9290921682521515602082015260400190565b6040518181016001600160401b038111828210171561168b57fe5b604052919050565b6001600160a01b03811681146116a857600080fd5b5056fea2646970667358221220014897b417139f44b88df702e06ea5bea91a74b585badd741309c2b7cbedc9bf64736f6c63430007060033",
  "linkReferences": {},
  "deployedLinkReferences": {}
}