{
  "_format": "hh-sol-artifact-1",
  "contractName": "ArrakisV1RouterStakingGuard",
  "sourceName": "contracts/guards/contractGuards/ArrakisV1RouterStakingGuard.sol",
  "abi": [
    {
      "anonymous": false,
      "inputs": [
        {
          "indexed": false,
          "internalType": "address",
          "name": "fundAddress",
          "type": "address"
        },
        {
          "indexed": false,
          "internalType": "address",
          "name": "sourceAsset",
          "type": "address"
        },
        {
          "indexed": false,
          "internalType": "uint256",
          "name": "sourceAmount",
          "type": "uint256"
        },
        {
          "indexed": false,
          "internalType": "address",
          "name": "dstAsset",
          "type": "address"
        },
        {
          "indexed": false,
          "internalType": "uint256",
          "name": "time",
          "type": "uint256"
        }
      ],
      "name": "ExchangeFrom",
      "type": "event"
    },
    {
      "anonymous": false,
      "inputs": [
        {
          "indexed": false,
          "internalType": "address",
          "name": "fundAddress",
          "type": "address"
        },
        {
          "indexed": false,
          "internalType": "address",
          "name": "sourceAsset",
          "type": "address"
        },
        {
          "indexed": false,
          "internalType": "address",
          "name": "dstAsset",
          "type": "address"
        },
        {
          "indexed": false,
          "internalType": "uint256",
          "name": "dstAmount",
          "type": "uint256"
        },
        {
          "indexed": false,
          "internalType": "uint256",
          "name": "time",
          "type": "uint256"
        }
      ],
      "name": "ExchangeTo",
      "type": "event"
    },
    {
      "anonymous": false,
      "inputs": [
        {
          "indexed": false,
          "internalType": "address",
          "name": "fundAddress",
          "type": "address"
        },
        {
          "indexed": false,
          "internalType": "address",
          "name": "stakingToken",
          "type": "address"
        },
        {
          "indexed": false,
          "internalType": "address",
          "name": "stakingContract",
          "type": "address"
        },
        {
          "indexed": false,
          "internalType": "uint256",
          "name": "time",
          "type": "uint256"
        }
      ],
      "name": "Stake",
      "type": "event"
    },
    {
      "anonymous": false,
      "inputs": [
        {
          "indexed": false,
          "internalType": "address",
          "name": "fundAddress",
          "type": "address"
        },
        {
          "indexed": false,
          "internalType": "address",
          "name": "stakingToken",
          "type": "address"
        },
        {
          "indexed": false,
          "internalType": "address",
          "name": "stakingContract",
          "type": "address"
        },
        {
          "indexed": false,
          "internalType": "uint256",
          "name": "amount",
          "type": "uint256"
        },
        {
          "indexed": false,
          "internalType": "uint256",
          "name": "time",
          "type": "uint256"
        }
      ],
      "name": "Unstake",
      "type": "event"
    },
    {
      "inputs": [
        {
          "internalType": "bytes32",
          "name": "data",
          "type": "bytes32"
        }
      ],
      "name": "convert32toAddress",
      "outputs": [
        {
          "internalType": "address",
          "name": "o",
          "type": "address"
        }
      ],
      "stateMutability": "pure",
      "type": "function"
    },
    {
      "inputs": [
        {
          "internalType": "bytes",
          "name": "data",
          "type": "bytes"
        },
        {
          "internalType": "uint8",
          "name": "inputNum",
          "type": "uint8"
        },
        {
          "internalType": "uint8",
          "name": "arrayIndex",
          "type": "uint8"
        }
      ],
      "name": "getArrayIndex",
      "outputs": [
        {
          "internalType": "bytes32",
          "name": "",
          "type": "bytes32"
        }
      ],
      "stateMutability": "pure",
      "type": "function"
    },
    {
      "inputs": [
        {
          "internalType": "bytes",
          "name": "data",
          "type": "bytes"
        },
        {
          "internalType": "uint8",
          "name": "inputNum",
          "type": "uint8"
        }
      ],
      "name": "getArrayLast",
      "outputs": [
        {
          "internalType": "bytes32",
          "name": "",
          "type": "bytes32"
        }
      ],
      "stateMutability": "pure",
      "type": "function"
    },
    {
      "inputs": [
        {
          "internalType": "bytes",
          "name": "data",
          "type": "bytes"
        },
        {
          "internalType": "uint8",
          "name": "inputNum",
          "type": "uint8"
        }
      ],
      "name": "getArrayLength",
      "outputs": [
        {
          "internalType": "uint256",
          "name": "",
          "type": "uint256"
        }
      ],
      "stateMutability": "pure",
      "type": "function"
    },
    {
      "inputs": [
        {
          "internalType": "bytes",
          "name": "data",
          "type": "bytes"
        },
        {
          "internalType": "uint8",
          "name": "inputNum",
          "type": "uint8"
        },
        {
          "internalType": "uint256",
          "name": "offset",
          "type": "uint256"
        }
      ],
      "name": "getBytes",
      "outputs": [
        {
          "internalType": "bytes",
          "name": "",
          "type": "bytes"
        }
      ],
      "stateMutability": "pure",
      "type": "function"
    },
    {
      "inputs": [
        {
          "internalType": "bytes",
          "name": "data",
          "type": "bytes"
        },
        {
          "internalType": "uint8",
          "name": "inputNum",
          "type": "uint8"
        }
      ],
      "name": "getInput",
      "outputs": [
        {
          "internalType": "bytes32",
          "name": "",
          "type": "bytes32"
        }
      ],
      "stateMutability": "pure",
      "type": "function"
    },
    {
      "inputs": [
        {
          "internalType": "bytes",
          "name": "data",
          "type": "bytes"
        }
      ],
      "name": "getMethod",
      "outputs": [
        {
          "internalType": "bytes4",
          "name": "",
          "type": "bytes4"
        }
      ],
      "stateMutability": "pure",
      "type": "function"
    },
    {
      "inputs": [
        {
          "internalType": "bytes",
          "name": "data",
          "type": "bytes"
        }
      ],
      "name": "getParams",
      "outputs": [
        {
          "internalType": "bytes",
          "name": "",
          "type": "bytes"
        }
      ],
      "stateMutability": "pure",
      "type": "function"
    },
    {
      "inputs": [
        {
          "internalType": "bytes",
          "name": "data",
          "type": "bytes"
        },
        {
          "internalType": "uint256",
          "name": "offset",
          "type": "uint256"
        },
        {
          "internalType": "uint256",
          "name": "length",
          "type": "uint256"
        }
      ],
      "name": "read32",
      "outputs": [
        {
          "internalType": "bytes32",
          "name": "o",
          "type": "bytes32"
        }
      ],
      "stateMutability": "pure",
      "type": "function"
    },
    {
      "inputs": [
        {
          "internalType": "bytes",
          "name": "data",
          "type": "bytes"
        },
        {
          "internalType": "uint256",
          "name": "offset",
          "type": "uint256"
        }
      ],
      "name": "read4left",
      "outputs": [
        {
          "internalType": "bytes4",
          "name": "o",
          "type": "bytes4"
        }
      ],
      "stateMutability": "pure",
      "type": "function"
    },
    {
      "inputs": [
        {
          "internalType": "address",
          "name": "_poolManagerLogic",
          "type": "address"
        },
        {
          "internalType": "address",
          "name": "to",
          "type": "address"
        },
        {
          "internalType": "bytes",
          "name": "data",
          "type": "bytes"
        }
      ],
      "name": "txGuard",
      "outputs": [
        {
          "internalType": "uint16",
          "name": "txType",
          "type": "uint16"
        },
        {
          "internalType": "bool",
          "name": "",
          "type": "bool"
        }
      ],
      "stateMutability": "nonpayable",
      "type": "function"
    }
  ],
  "bytecode": "0x608060405234801561001057600080fd5b50611b3b806100206000396000f3fe608060405234801561001057600080fd5b50600436106100995760003560e01c806309ff5c7d1461009e5780631053f952146100c75780631eba3077146100e7578063293d80631461010757806341dc16c3146101275780636179309d1461013a578063689015131461015b57806382f86acc1461016e578063998546e314610181578063c3c6279f14610194578063db896b57146101a7575b600080fd5b6100b16100ac3660046117d6565b6101ba565b6040516100be9190611974565b60405180910390f35b6100da6100d5366004611821565b61024b565b6040516100be9190611992565b6100fa6100f53660046116ff565b6102e3565b6040516100be91906118e8565b61011a610115366004611749565b6102ea565b6040516100be919061197d565b6100b1610135366004611875565b61034c565b61014d610148366004611653565b61042a565b6040516100be929190611ad7565b6100da610169366004611717565b610f71565b6100b161017c3660046117d6565b610f92565b6100b161018f3660046117d6565b610fb0565b61011a6101a2366004611717565b610fe1565b6100b16101b536600461178b565b610fee565b6000806101d2848460200260040160ff166020610fee565b905060006101e585600484016020610fee565b90508061022e576040805162461bcd60e51b8152602060048201526012602482015271696e707574206973206e6f7420617272617960701b604482015290519081900360640190fd5b610242856020808402850160040190610fee565b95945050505050565b606060148210610293576040805162461bcd60e51b815260206004820152600e60248201526d1a5b9d985b1a59081bd9999cd95d60921b604482015290519081900360640190fd5b81602002915060006102b285848660200260040160ff16016020610fee565b905060006102c7868584016004016020610fee565b90506102d9866024848701018361106d565b9695505050505050565b805b919050565b60008160040183511015610343576040805162461bcd60e51b815260206004820152601b60248201527a52656164696e67206279746573206f7574206f6620626f756e647360281b604482015290519081900360640190fd5b50016020015190565b600080610364858560200260040160ff166020610fee565b9050600061037786600484016020610fee565b9050806103c0576040805162461bcd60e51b8152602060048201526012602482015271696e707574206973206e6f7420617272617960701b604482015290519081900360640190fd5b60ff84168111610410576040805162461bcd60e51b815260206004820152601660248201527534b73b30b634b21030b93930bc903837b9b4ba34b7b760511b604482015290519081900360640190fd5b6102d9866020600160ff8816018102850160040190610fee565b60008060008690506000879050600061047887878080601f016020809104026020016040519081016040528093929190818152602001838380828437600092019190915250610fe192505050565b90506001600160e01b0319811663a6446c8960e01b14156109f2576000806104d589898080601f016020809104026020016040519081016040528093929190818152602001838380828437600092019190915250610f7192505050565b8060200190518101906104e891906115e9565b9650505050505091506000826001600160a01b0316632dc7d74c6040518163ffffffff1660e01b815260040160206040518083038186803b15801561052c57600080fd5b505afa158015610540573d6000803e3d6000fd5b505050506040513d601f19601f820116820180604052508101906105649190611576565b604051634df48c7360e11b815290915081906001600160a01b03871690639be918e6906105959087906004016118e8565b60206040518083038186803b1580156105ad57600080fd5b505afa1580156105c1573d6000803e3d6000fd5b505050506040513d601f19601f820116820180604052508101906105e591906116df565b61060a5760405162461bcd60e51b8152600401610601906119e5565b60405180910390fd5b856001600160a01b0316639be918e6826001600160a01b0316630dfe16816040518163ffffffff1660e01b815260040160206040518083038186803b15801561065257600080fd5b505afa158015610666573d6000803e3d6000fd5b505050506040513d601f19601f8201168201806040525081019061068a9190611576565b6040518263ffffffff1660e01b81526004016106a691906118e8565b60206040518083038186803b1580156106be57600080fd5b505afa1580156106d2573d6000803e3d6000fd5b505050506040513d601f19601f820116820180604052508101906106f691906116df565b6107125760405162461bcd60e51b815260040161060190611a49565b856001600160a01b0316639be918e6826001600160a01b031663d21220a76040518163ffffffff1660e01b815260040160206040518083038186803b15801561075a57600080fd5b505afa15801561076e573d6000803e3d6000fd5b505050506040513d601f19601f820116820180604052508101906107929190611576565b6040518263ffffffff1660e01b81526004016107ae91906118e8565b60206040518083038186803b1580156107c657600080fd5b505afa1580156107da573d6000803e3d6000fd5b505050506040513d601f19601f820116820180604052508101906107fe91906116df565b61081a5760405162461bcd60e51b815260040161060190611a16565b610897848e896001600160a01b03166339b81fd96040518163ffffffff1660e01b815260040160206040518083038186803b15801561085857600080fd5b505afa15801561086c573d6000803e3d6000fd5b505050506040513d601f19601f820116820180604052508101906108909190611576565b60006111be565b826001600160a01b0316876001600160a01b03166339b81fd96040518163ffffffff1660e01b815260040160206040518083038186803b1580156108da57600080fd5b505afa1580156108ee573d6000803e3d6000fd5b505050506040513d601f19601f820116820180604052508101906109129190611576565b6001600160a01b0316146109385760405162461bcd60e51b815260040161060190611aa9565b7fc5017594d2723c038bb216e5bcef3ac65910ade839c0e63253bf5b59efbf0fd7876001600160a01b03166339b81fd96040518163ffffffff1660e01b815260040160206040518083038186803b15801561099257600080fd5b505afa1580156109a6573d6000803e3d6000fd5b505050506040513d601f19601f820116820180604052508101906109ca9190611576565b838e426040516109dd9493929190611916565b60405180910390a16005985050505050610f61565b6001600160e01b0319811663b83a75b360e01b1415610f61576000806000610a4f8a8a8080601f016020809104026020016040519081016040528093929190818152602001838380828437600092019190915250610f7192505050565b806020019051810190610a629190611592565b94505050925092506000836001600160a01b0316632dc7d74c6040518163ffffffff1660e01b815260040160206040518083038186803b158015610aa557600080fd5b505afa158015610ab9573d6000803e3d6000fd5b505050506040513d601f19601f82011682018060405250810190610add9190611576565b604051634df48c7360e11b815290915081906001600160a01b03881690639be918e690610b0e9088906004016118e8565b60206040518083038186803b158015610b2657600080fd5b505afa158015610b3a573d6000803e3d6000fd5b505050506040513d601f19601f82011682018060405250810190610b5e91906116df565b610b7a5760405162461bcd60e51b8152600401610601906119e5565b866001600160a01b0316639be918e6826001600160a01b0316630dfe16816040518163ffffffff1660e01b815260040160206040518083038186803b158015610bc257600080fd5b505afa158015610bd6573d6000803e3d6000fd5b505050506040513d601f19601f82011682018060405250810190610bfa9190611576565b6040518263ffffffff1660e01b8152600401610c1691906118e8565b60206040518083038186803b158015610c2e57600080fd5b505afa158015610c42573d6000803e3d6000fd5b505050506040513d601f19601f82011682018060405250810190610c6691906116df565b610c825760405162461bcd60e51b815260040161060190611a49565b866001600160a01b0316639be918e6826001600160a01b031663d21220a76040518163ffffffff1660e01b815260040160206040518083038186803b158015610cca57600080fd5b505afa158015610cde573d6000803e3d6000fd5b505050506040513d601f19601f82011682018060405250810190610d029190611576565b6040518263ffffffff1660e01b8152600401610d1e91906118e8565b60206040518083038186803b158015610d3657600080fd5b505afa158015610d4a573d6000803e3d6000fd5b505050506040513d601f19601f82011682018060405250810190610d6e91906116df565b610d8a5760405162461bcd60e51b815260040161060190611a16565b610e07858f8a6001600160a01b03166339b81fd96040518163ffffffff1660e01b815260040160206040518083038186803b158015610dc857600080fd5b505afa158015610ddc573d6000803e3d6000fd5b505050506040513d601f19601f82011682018060405250810190610e009190611576565b60016111be565b826001600160a01b0316886001600160a01b03166339b81fd96040518163ffffffff1660e01b815260040160206040518083038186803b158015610e4a57600080fd5b505afa158015610e5e573d6000803e3d6000fd5b505050506040513d601f19601f82011682018060405250810190610e829190611576565b6001600160a01b031614610ea85760405162461bcd60e51b815260040161060190611aa9565b7f844b93bba1dfa65e9a88d080df57fa731c72bebc9653aea6be132abde68c27c3886001600160a01b03166339b81fd96040518163ffffffff1660e01b815260040160206040518083038186803b158015610f0257600080fd5b505afa158015610f16573d6000803e3d6000fd5b505050506040513d601f19601f82011682018060405250810190610f3a9190611576565b838f8742604051610f4f959493929190611940565b60405180910390a16006995050505050505b5060009250505094509492505050565b6060610f8c6004808451038461106d9092919063ffffffff16565b92915050565b6000610fa9838360200260040160ff166020610fee565b9392505050565b600080610fc8848460200260040160ff166020610fee565b9050610fd984600483016020610fee565b949350505050565b6000610f8c8260006102ea565b600081830184511015611046576040805162461bcd60e51b815260206004820152601b60248201527a52656164696e67206279746573206f7574206f6620626f756e647360281b604482015290519081900360640190fd5b826020018401519050816020038015611065576008810260020a820491505b509392505050565b60608182601f0110156110b8576040805162461bcd60e51b815260206004820152600e60248201526d736c6963655f6f766572666c6f7760901b604482015290519081900360640190fd5b828284011015611100576040805162461bcd60e51b815260206004820152600e60248201526d736c6963655f6f766572666c6f7760901b604482015290519081900360640190fd5b8183018451101561114c576040805162461bcd60e51b8152602060048201526011602482015270736c6963655f6f75744f66426f756e647360781b604482015290519081900360640190fd5b60608215801561116b57604051915060008252602082016040526111b5565b6040519150601f8416801560200281840101858101878315602002848b0101015b818310156111a457805183526020928301920161118c565b5050858452601f01601f1916604052505b50949350505050565b6000826001600160a01b031663c45a01556040518163ffffffff1660e01b815260040160206040518083038186803b1580156111f957600080fd5b505afa15801561120d573d6000803e3d6000fd5b505050506040513d601f19601f820116820180604052508101906112319190611576565b90506000856001600160a01b031663963c94b96040518163ffffffff1660e01b815260040160206040518083038186803b15801561126e57600080fd5b505afa158015611282573d6000803e3d6000fd5b505050506040513d601f19601f820116820180604052508101906112a691906118d0565b905060005b818110156114e8576040516354c49fe960e01b81526000906001600160a01b038916906354c49fe9906112e2908590600401611974565b60206040518083038186803b1580156112fa57600080fd5b505afa15801561130e573d6000803e3d6000fd5b505050506040513d601f19601f820116820180604052508101906113329190611576565b90508415806113bf5750604051630cff5bdd60e21b81526000906001600160a01b038a16906333fd6f749061136d908a9086906004016118fc565b60206040518083038186803b15801561138557600080fd5b505afa158015611399573d6000803e3d6000fd5b505050506040513d601f19601f820116820180604052508101906113bd91906118d0565b115b156114df5760405163cc435bf360e01b81526001600160a01b0385169063cc435bf3906113f09084906004016118e8565b60206040518083038186803b15801561140857600080fd5b505afa15801561141c573d6000803e3d6000fd5b505050506040513d601f19601f8201168201806040525081019061144091906116df565b15806114c35750604051634df48c7360e11b81526001600160a01b03881690639be918e6906114739084906004016118e8565b60206040518083038186803b15801561148b57600080fd5b505afa15801561149f573d6000803e3d6000fd5b505050506040513d601f19601f820116820180604052508101906114c391906116df565b6114df5760405162461bcd60e51b815260040161060190611a7c565b506001016112ab565b50505050505050565b600082601f830112611501578081fd5b81356001600160401b038082111561151557fe5b604051601f8301601f19168101602001828111828210171561153357fe5b60405282815284830160200186101561154a578384fd5b82602086016020830137918201602001929092529392505050565b803560ff811681146102e557600080fd5b600060208284031215611587578081fd5b8151610fa981611aed565b600080600080600060a086880312156115a9578081fd5b85516115b481611aed565b8095505060208601519350604086015192506060860151915060808601516115db81611aed565b809150509295509295909350565b600080600080600080600060e0888a031215611603578182fd5b875161160e81611aed565b809750506020880151955060408801519450606088015193506080880151925060a0880151915060c088015161164381611aed565b8091505092959891949750929550565b60008060008060608587031215611668578384fd5b843561167381611aed565b9350602085013561168381611aed565b925060408501356001600160401b038082111561169e578384fd5b818701915087601f8301126116b1578384fd5b8135818111156116bf578485fd5b8860208285010111156116d0578485fd5b95989497505060200194505050565b6000602082840312156116f0578081fd5b81518015158114610fa9578182fd5b600060208284031215611710578081fd5b5035919050565b600060208284031215611728578081fd5b81356001600160401b0381111561173d578182fd5b610fd9848285016114f1565b6000806040838503121561175b578182fd5b82356001600160401b03811115611770578283fd5b61177c858286016114f1565b95602094909401359450505050565b60008060006060848603121561179f578283fd5b83356001600160401b038111156117b4578384fd5b6117c0868287016114f1565b9660208601359650604090950135949350505050565b600080604083850312156117e8578182fd5b82356001600160401b038111156117fd578283fd5b611809858286016114f1565b92505061181860208401611565565b90509250929050565b600080600060608486031215611835578283fd5b83356001600160401b0381111561184a578384fd5b611856868287016114f1565b93505061186560208501611565565b9150604084013590509250925092565b600080600060608486031215611889578081fd5b83356001600160401b0381111561189e578182fd5b6118aa868287016114f1565b9350506118b960208501611565565b91506118c760408501611565565b90509250925092565b6000602082840312156118e1578081fd5b5051919050565b6001600160a01b0391909116815260200190565b6001600160a01b0392831681529116602082015260400190565b6001600160a01b039485168152928416602084015292166040820152606081019190915260800190565b6001600160a01b03958616815293851660208501529190931660408301526060820192909252608081019190915260a00190565b90815260200190565b6001600160e01b031991909116815260200190565b6000602080835283518082850152825b818110156119be578581018301518582016040015282016119a2565b818111156119cf5783604083870101525b50601f01601f1916929092016040019392505050565b6020808252601790820152763ab739bab83837b93a32b21033b0bab3b2903a37b5b2b760491b604082015260600190565b602080825260199082015278756e737570706f727465642061737365743a20746f6b656e3160381b604082015260600190565b6020808252601990820152780756e737570706f727465642061737365743a20746f6b656e3603c1b604082015260600190565b60208082526013908201527232b730b13632903932bbb0b932103a37b5b2b760691b604082015260600190565b6020808252601490820152731c9958d95a5d995c881a5cc81b9bdd081c1bdbdb60621b604082015260600190565b61ffff9290921682521515602082015260400190565b6001600160a01b0381168114611b0257600080fd5b5056fea264697066735822122004fb1b1dd6fe440dd8ca3261bb159f46a404828cfa9cdc5765b5b80c7843f33b64736f6c63430007060033",
  "linkReferences": {},
  "deployedLinkReferences": {}
}