{
  "_format": "hh-sol-artifact-1",
  "contractName": "LyraOptionMarketWrapperAssetGuard",
  "sourceName": "contracts/guards/assetGuards/LyraOptionMarketWrapperAssetGuard.sol",
  "abi": [
    {
      "inputs": [
        {
          "internalType": "contract DhedgeOptionMarketWrapperForLyra",
          "name": "_dhedgeLyraWrapper",
          "type": "address"
        }
      ],
      "stateMutability": "nonpayable",
      "type": "constructor"
    },
    {
      "anonymous": false,
      "inputs": [
        {
          "indexed": false,
          "internalType": "address",
          "name": "fundAddress",
          "type": "address"
        },
        {
          "indexed": false,
          "internalType": "address",
          "name": "sourceAsset",
          "type": "address"
        },
        {
          "indexed": false,
          "internalType": "uint256",
          "name": "sourceAmount",
          "type": "uint256"
        },
        {
          "indexed": false,
          "internalType": "address",
          "name": "dstAsset",
          "type": "address"
        },
        {
          "indexed": false,
          "internalType": "uint256",
          "name": "time",
          "type": "uint256"
        }
      ],
      "name": "ExchangeFrom",
      "type": "event"
    },
    {
      "anonymous": false,
      "inputs": [
        {
          "indexed": false,
          "internalType": "address",
          "name": "fundAddress",
          "type": "address"
        },
        {
          "indexed": false,
          "internalType": "address",
          "name": "sourceAsset",
          "type": "address"
        },
        {
          "indexed": false,
          "internalType": "address",
          "name": "dstAsset",
          "type": "address"
        },
        {
          "indexed": false,
          "internalType": "uint256",
          "name": "dstAmount",
          "type": "uint256"
        },
        {
          "indexed": false,
          "internalType": "uint256",
          "name": "time",
          "type": "uint256"
        }
      ],
      "name": "ExchangeTo",
      "type": "event"
    },
    {
      "inputs": [],
      "name": "CHECK_GWAV_DURATION",
      "outputs": [
        {
          "internalType": "uint256",
          "name": "",
          "type": "uint256"
        }
      ],
      "stateMutability": "view",
      "type": "function"
    },
    {
      "inputs": [],
      "name": "GWAV_DIVERGENCE_CB_AMOUNT_DENOMINATOR",
      "outputs": [
        {
          "internalType": "uint256",
          "name": "",
          "type": "uint256"
        }
      ],
      "stateMutability": "view",
      "type": "function"
    },
    {
      "inputs": [],
      "name": "GWAV_DIVERGENCE_CB_AMOUNT_NUMERATOR",
      "outputs": [
        {
          "internalType": "uint256",
          "name": "",
          "type": "uint256"
        }
      ],
      "stateMutability": "view",
      "type": "function"
    },
    {
      "inputs": [],
      "name": "PRICE_GWAV_DURATION",
      "outputs": [
        {
          "internalType": "uint256",
          "name": "",
          "type": "uint256"
        }
      ],
      "stateMutability": "view",
      "type": "function"
    },
    {
      "inputs": [
        {
          "internalType": "uint256",
          "name": "price1",
          "type": "uint256"
        },
        {
          "internalType": "uint256",
          "name": "price2",
          "type": "uint256"
        }
      ],
      "name": "assertNoGWAVDivergence",
      "outputs": [],
      "stateMutability": "pure",
      "type": "function"
    },
    {
      "inputs": [
        {
          "internalType": "bytes32",
          "name": "data",
          "type": "bytes32"
        }
      ],
      "name": "convert32toAddress",
      "outputs": [
        {
          "internalType": "address",
          "name": "o",
          "type": "address"
        }
      ],
      "stateMutability": "pure",
      "type": "function"
    },
    {
      "inputs": [],
      "name": "dhedgeLyraWrapper",
      "outputs": [
        {
          "internalType": "contract DhedgeOptionMarketWrapperForLyra",
          "name": "",
          "type": "address"
        }
      ],
      "stateMutability": "view",
      "type": "function"
    },
    {
      "inputs": [
        {
          "internalType": "bytes",
          "name": "data",
          "type": "bytes"
        },
        {
          "internalType": "uint8",
          "name": "inputNum",
          "type": "uint8"
        },
        {
          "internalType": "uint8",
          "name": "arrayIndex",
          "type": "uint8"
        }
      ],
      "name": "getArrayIndex",
      "outputs": [
        {
          "internalType": "bytes32",
          "name": "",
          "type": "bytes32"
        }
      ],
      "stateMutability": "pure",
      "type": "function"
    },
    {
      "inputs": [
        {
          "internalType": "bytes",
          "name": "data",
          "type": "bytes"
        },
        {
          "internalType": "uint8",
          "name": "inputNum",
          "type": "uint8"
        }
      ],
      "name": "getArrayLast",
      "outputs": [
        {
          "internalType": "bytes32",
          "name": "",
          "type": "bytes32"
        }
      ],
      "stateMutability": "pure",
      "type": "function"
    },
    {
      "inputs": [
        {
          "internalType": "bytes",
          "name": "data",
          "type": "bytes"
        },
        {
          "internalType": "uint8",
          "name": "inputNum",
          "type": "uint8"
        }
      ],
      "name": "getArrayLength",
      "outputs": [
        {
          "internalType": "uint256",
          "name": "",
          "type": "uint256"
        }
      ],
      "stateMutability": "pure",
      "type": "function"
    },
    {
      "inputs": [
        {
          "internalType": "address",
          "name": "pool",
          "type": "address"
        },
        {
          "internalType": "address",
          "name": "asset",
          "type": "address"
        }
      ],
      "name": "getBalance",
      "outputs": [
        {
          "internalType": "uint256",
          "name": "balance",
          "type": "uint256"
        }
      ],
      "stateMutability": "view",
      "type": "function"
    },
    {
      "inputs": [
        {
          "internalType": "bytes",
          "name": "data",
          "type": "bytes"
        },
        {
          "internalType": "uint8",
          "name": "inputNum",
          "type": "uint8"
        },
        {
          "internalType": "uint256",
          "name": "offset",
          "type": "uint256"
        }
      ],
      "name": "getBytes",
      "outputs": [
        {
          "internalType": "bytes",
          "name": "",
          "type": "bytes"
        }
      ],
      "stateMutability": "pure",
      "type": "function"
    },
    {
      "inputs": [
        {
          "internalType": "address",
          "name": "",
          "type": "address"
        }
      ],
      "name": "getDecimals",
      "outputs": [
        {
          "internalType": "uint256",
          "name": "decimals",
          "type": "uint256"
        }
      ],
      "stateMutability": "pure",
      "type": "function"
    },
    {
      "inputs": [
        {
          "internalType": "address",
          "name": "optionMarket",
          "type": "address"
        },
        {
          "internalType": "uint256",
          "name": "strikeId",
          "type": "uint256"
        }
      ],
      "name": "getGWAVCallPrice",
      "outputs": [
        {
          "internalType": "uint256",
          "name": "callPrice",
          "type": "uint256"
        }
      ],
      "stateMutability": "view",
      "type": "function"
    },
    {
      "inputs": [
        {
          "internalType": "address",
          "name": "optionMarket",
          "type": "address"
        },
        {
          "internalType": "uint256",
          "name": "strikeId",
          "type": "uint256"
        }
      ],
      "name": "getGWAVPutPrice",
      "outputs": [
        {
          "internalType": "uint256",
          "name": "putPrice",
          "type": "uint256"
        }
      ],
      "stateMutability": "view",
      "type": "function"
    },
    {
      "inputs": [
        {
          "internalType": "bytes",
          "name": "data",
          "type": "bytes"
        },
        {
          "internalType": "uint8",
          "name": "inputNum",
          "type": "uint8"
        }
      ],
      "name": "getInput",
      "outputs": [
        {
          "internalType": "bytes32",
          "name": "",
          "type": "bytes32"
        }
      ],
      "stateMutability": "pure",
      "type": "function"
    },
    {
      "inputs": [
        {
          "internalType": "bytes",
          "name": "data",
          "type": "bytes"
        }
      ],
      "name": "getMethod",
      "outputs": [
        {
          "internalType": "bytes4",
          "name": "",
          "type": "bytes4"
        }
      ],
      "stateMutability": "pure",
      "type": "function"
    },
    {
      "inputs": [
        {
          "internalType": "bytes",
          "name": "data",
          "type": "bytes"
        }
      ],
      "name": "getParams",
      "outputs": [
        {
          "internalType": "bytes",
          "name": "",
          "type": "bytes"
        }
      ],
      "stateMutability": "pure",
      "type": "function"
    },
    {
      "inputs": [],
      "name": "marketViewer",
      "outputs": [
        {
          "internalType": "contract IOptionMarketViewer",
          "name": "",
          "type": "address"
        }
      ],
      "stateMutability": "view",
      "type": "function"
    },
    {
      "inputs": [
        {
          "internalType": "bytes",
          "name": "data",
          "type": "bytes"
        },
        {
          "internalType": "uint256",
          "name": "offset",
          "type": "uint256"
        },
        {
          "internalType": "uint256",
          "name": "length",
          "type": "uint256"
        }
      ],
      "name": "read32",
      "outputs": [
        {
          "internalType": "bytes32",
          "name": "o",
          "type": "bytes32"
        }
      ],
      "stateMutability": "pure",
      "type": "function"
    },
    {
      "inputs": [
        {
          "internalType": "bytes",
          "name": "data",
          "type": "bytes"
        },
        {
          "internalType": "uint256",
          "name": "offset",
          "type": "uint256"
        }
      ],
      "name": "read4left",
      "outputs": [
        {
          "internalType": "bytes4",
          "name": "o",
          "type": "bytes4"
        }
      ],
      "stateMutability": "pure",
      "type": "function"
    },
    {
      "inputs": [
        {
          "internalType": "address",
          "name": "pool",
          "type": "address"
        },
        {
          "internalType": "address",
          "name": "asset",
          "type": "address"
        }
      ],
      "name": "removeAssetCheck",
      "outputs": [],
      "stateMutability": "view",
      "type": "function"
    },
    {
      "inputs": [
        {
          "internalType": "address",
          "name": "",
          "type": "address"
        },
        {
          "internalType": "address",
          "name": "",
          "type": "address"
        },
        {
          "internalType": "bytes",
          "name": "",
          "type": "bytes"
        }
      ],
      "name": "txGuard",
      "outputs": [
        {
          "internalType": "uint16",
          "name": "txType",
          "type": "uint16"
        },
        {
          "internalType": "bool",
          "name": "",
          "type": "bool"
        }
      ],
      "stateMutability": "pure",
      "type": "function"
    },
    {
      "inputs": [
        {
          "internalType": "address",
          "name": "pool",
          "type": "address"
        },
        {
          "internalType": "address",
          "name": "asset",
          "type": "address"
        },
        {
          "internalType": "uint256",
          "name": "portion",
          "type": "uint256"
        },
        {
          "internalType": "address",
          "name": "to",
          "type": "address"
        }
      ],
      "name": "withdrawProcessing",
      "outputs": [
        {
          "internalType": "address",
          "name": "withdrawAsset",
          "type": "address"
        },
        {
          "internalType": "uint256",
          "name": "withdrawBalance",
          "type": "uint256"
        },
        {
          "components": [
            {
              "internalType": "address",
              "name": "to",
              "type": "address"
            },
            {
              "internalType": "bytes",
              "name": "txData",
              "type": "bytes"
            }
          ],
          "internalType": "struct IAssetGuard.MultiTransaction[]",
          "name": "transactions",
          "type": "tuple[]"
        }
      ],
      "stateMutability": "nonpayable",
      "type": "function"
    }
  ],
  "bytecode": "0x60a06040523480156200001157600080fd5b506040516200272c3803806200272c83398101604081905262000034916200004a565b60601b6001600160601b0319166080526200007a565b6000602082840312156200005c578081fd5b81516001600160a01b038116811462000073578182fd5b9392505050565b60805160601c612676620000b66000398061090a52806109ab5280610a8e5280610cc25280610d07528061125c528061189752506126766000f3fe608060405234801561001057600080fd5b50600436106101285760003560e01c806309ff5c7d1461012d5780631053f9521461015657806312408202146101765780631eba30771461017e578063293d80631461019e57806341dc16c3146101be5780636179309d146101d1578063669b3320146101f257806368901513146101fa5780636d5fae541461020d5780636f8ae202146102225780637bbbb29a146102445780637ddce5b51461025757806382f86acc1461025f57806383ac7d6e14610272578063998546e314610285578063a7354cf414610298578063abc183e1146102a0578063c3c6279f146102a8578063cf54aaa0146102bb578063d4fac45d146102ce578063db896b57146102e1578063e4e6ea58146102f4578063f3a95013146102fc575b600080fd5b61014061013b366004612012565b61030f565b60405161014d91906124c7565b60405180910390f35b61016961016436600461205d565b6103a2565b60405161014d91906124e5565b61014061043a565b61019161018c366004611f3b565b610440565b60405161014d9190612401565b6101b16101ac366004611f85565b610447565b60405161014d91906124d0565b6101406101cc3660046120b1565b6104a9565b6101e46101df366004611d57565b610587565b60405161014d9291906125c0565b610140610593565b610169610208366004611f53565b610599565b61022061021b366004611d1f565b6105b4565b005b610235610230366004611de3565b6105ee565b60405161014d93929190612439565b610140610252366004611e35565b610a89565b610191610cc0565b61014061026d366004612012565b610ce4565b610140610280366004611e35565b610d02565b610140610293366004612012565b610f31565b610140610f62565b610140610f68565b6101b16102b6366004611f53565b610f6d565b6101406102c9366004611ce7565b610f7a565b6101406102dc366004611d1f565b610f80565b6101406102ef366004611fc7565b611814565b610191611893565b61022061030a366004612345565b61192b565b600080610327848460200260040160ff166020611814565b9050600061033a85600484016020611814565b905080610383576040805162461bcd60e51b8152602060048201526012602482015271696e707574206973206e6f7420617272617960701b604482015290519081900360640190fd5b610397856020808402850160040190611814565b925050505b92915050565b6060601482106103ea576040805162461bcd60e51b815260206004820152600e60248201526d1a5b9d985b1a59081bd9999cd95d60921b604482015290519081900360640190fd5b816020029150600061040985848660200260040160ff16016020611814565b9050600061041e868584016004016020611814565b9050610430866024848701018361197d565b9695505050505050565b6103e881565b805b919050565b600081600401835110156104a0576040805162461bcd60e51b815260206004820152601b60248201527a52656164696e67206279746573206f7574206f6620626f756e647360281b604482015290519081900360640190fd5b50016020015190565b6000806104c1858560200260040160ff166020611814565b905060006104d486600484016020611814565b90508061051d576040805162461bcd60e51b8152602060048201526012602482015271696e707574206973206e6f7420617272617960701b604482015290519081900360640190fd5b60ff8416811161056d576040805162461bcd60e51b815260206004820152601660248201527534b73b30b634b21030b93930bc903837b9b4ba34b7b760511b604482015290519081900360640190fd5b610430866020600160ff8816018102850160040190611814565b60008094509492505050565b61546081565b606061039c6004808451038461197d9092919063ffffffff16565b60006105c08383610f80565b905080156105e95760405162461bcd60e51b81526004016105e0906124f8565b60405180910390fd5b505050565b60008060606000876001600160a01b031663c45a01556040518163ffffffff1660e01b815260040160206040518083038186803b15801561062e57600080fd5b505afa158015610642573d6000803e3d6000fd5b505050506040513d601f19601f820116820180604052508101906106669190611d03565b6001600160a01b0316634f8419b9886040518263ffffffff1660e01b81526004016106919190612401565b60206040518083038186803b1580156106a957600080fd5b505afa1580156106bd573d6000803e3d6000fd5b505050506040513d601f19601f820116820180604052508101906106e19190611d03565b604051632182a60960e11b81529091506001600160a01b038216906343054c1290610710908b90600401612401565b600060405180830381600087803b15801561072a57600080fd5b505af115801561073e573d6000803e3d6000fd5b50506040516375d1447560e01b8152600092506001600160a01b03841691506375d1447590610771908c90600401612401565b60006040518083038186803b15801561078957600080fd5b505afa15801561079d573d6000803e3d6000fd5b505050506040513d6000823e601f3d908101601f191682016040526107c59190810190611e60565b905080516002026001600160401b03811180156107e157600080fd5b5060405190808252806020026020018201604052801561081b57816020015b610808611c40565b8152602001906001900390816108005790505b5092506000805b8251811015610a7b576000610835611893565b6001600160a01b031663c71b7e5385848151811061084f57fe5b6020026020010151600001516040518263ffffffff1660e01b81526004016108779190612401565b6101406040518083038186803b15801561089057600080fd5b505afa1580156108a4573d6000803e3d6000fd5b505050506040513d601f19601f820116820180604052508101906108c891906121e9565b90508060a001518684815181106108db57fe5b6020026020010151600001906001600160a01b031690816001600160a01b0316815250506323b872dd60e01b8c7f000000000000000000000000000000000000000000000000000000000000000086858151811061093557fe5b60200260200101516020015160405160240161095393929190612415565b604051602081830303815290604052906001600160e01b0319166020820180516001600160e01b03838183161783525050505086848151811061099257fe5b60200260200101516020018190525082806001019350507f00000000000000000000000000000000000000000000000000000000000000008684815181106109d657fe5b60209081029190910101516001600160a01b039091169052835163152b831d60e21b90859084908110610a0557fe5b60200260200101518b8b604051602401610a219392919061258e565b604051602081830303815290604052906001600160e01b0319166020820180516001600160e01b038381831617835250505050868481518110610a6057fe5b60209081029190910181015101525060019182019101610822565b505050509450945094915050565b6000807f00000000000000000000000000000000000000000000000000000000000000006001600160a01b031663ee9e0e6a6040518163ffffffff1660e01b815260040160206040518083038186803b158015610ae557600080fd5b505afa158015610af9573d6000803e3d6000fd5b505050506040513d601f19601f82011682018060405250810190610b1d9190611d03565b6001600160a01b031663c4158a51856040518263ffffffff1660e01b8152600401610b489190612401565b6101606040518083038186803b158015610b6157600080fd5b505afa158015610b75573d6000803e3d6000fd5b505050506040513d601f19601f82011682018060405250810190610b99919061210c565b61010081015160405163ca4ca66760e01b81529192506001600160a01b03169063ca4ca66790610bd1908690610258906004016125d6565b604080518083038186803b158015610be857600080fd5b505afa158015610bfc573d6000803e3d6000fd5b505050506040513d601f19601f82011682018060405250810190610c209190612366565b61010083015160405163ca4ca66760e01b8152919450600092506001600160a01b03169063ca4ca66790610c5c908790615460906004016125d6565b604080518083038186803b158015610c7357600080fd5b505afa158015610c87573d6000803e3d6000fd5b505050506040513d601f19601f82011682018060405250810190610cab9190612366565b915050610cb8838261192b565b505092915050565b7f000000000000000000000000000000000000000000000000000000000000000081565b6000610cfb838360200260040160ff166020611814565b9392505050565b6000807f00000000000000000000000000000000000000000000000000000000000000006001600160a01b031663ee9e0e6a6040518163ffffffff1660e01b815260040160206040518083038186803b158015610d5e57600080fd5b505afa158015610d72573d6000803e3d6000fd5b505050506040513d601f19601f82011682018060405250810190610d969190611d03565b6001600160a01b031663c4158a51856040518263ffffffff1660e01b8152600401610dc19190612401565b6101606040518083038186803b158015610dda57600080fd5b505afa158015610dee573d6000803e3d6000fd5b505050506040513d601f19601f82011682018060405250810190610e12919061210c565b61010081015160405163ca4ca66760e01b81529192506001600160a01b03169063ca4ca66790610e4a908690610258906004016125d6565b604080518083038186803b158015610e6157600080fd5b505afa158015610e75573d6000803e3d6000fd5b505050506040513d601f19601f82011682018060405250810190610e999190612366565b508092505060008161010001516001600160a01b031663ca4ca667856154606040518363ffffffff1660e01b8152600401610ed59291906125d6565b604080518083038186803b158015610eec57600080fd5b505afa158015610f00573d6000803e3d6000fd5b505050506040513d601f19601f82011682018060405250810190610f249190612366565b509050610cb8838261192b565b600080610f49848460200260040160ff166020611814565b9050610f5a84600483016020611814565b949350505050565b61025881565b603281565b600061039c826000610447565b50601290565b600080836001600160a01b031663c45a01556040518163ffffffff1660e01b815260040160206040518083038186803b158015610fbc57600080fd5b505afa158015610fd0573d6000803e3d6000fd5b505050506040513d601f19601f82011682018060405250810190610ff49190611d03565b90506000816001600160a01b0316634f8419b9856040518263ffffffff1660e01b81526004016110249190612401565b60206040518083038186803b15801561103c57600080fd5b505afa158015611050573d6000803e3d6000fd5b505050506040513d601f19601f820116820180604052508101906110749190611d03565b90506000816001600160a01b03166375d14475876040518263ffffffff1660e01b81526004016110a49190612401565b60006040518083038186803b1580156110bc57600080fd5b505afa1580156110d0573d6000803e3d6000fd5b505050506040513d6000823e601f3d908101601f191682016040526110f89190810190611e60565b905060005b815181101561180a576000611110611893565b6001600160a01b031663c71b7e5384848151811061112a57fe5b6020026020010151600001516040518263ffffffff1660e01b81526004016111529190612401565b6101406040518083038186803b15801561116b57600080fd5b505afa15801561117f573d6000803e3d6000fd5b505050506040513d601f19601f820116820180604052508101906111a391906121e9565b905060008160a001516001600160a01b03166399fbab888585815181106111c657fe5b6020026020010151602001516040518263ffffffff1660e01b81526004016111ee91906124c7565b60c06040518083038186803b15801561120657600080fd5b505afa15801561121a573d6000803e3d6000fd5b505050506040513d601f19601f8201168201806040525081019061123e91906122a9565b905060018160a00151600581111561125257fe5b14156118005760007f00000000000000000000000000000000000000000000000000000000000000006001600160a01b031663ab78ac996040518163ffffffff1660e01b815260040160206040518083038186803b1580156112b357600080fd5b505afa1580156112c7573d6000803e3d6000fd5b505050506040513d601f19601f820116820180604052508101906112eb9190611d03565b6001600160a01b0316637dbae64886868151811061130557fe5b6020026020010151600001516040518263ffffffff1660e01b815260040161132d9190612401565b60206040518083038186803b15801561134557600080fd5b505afa158015611359573d6000803e3d6000fd5b505050506040513d601f19601f8201168201806040525081019061137d919061232d565b9050600080600087878151811061139057fe5b6020026020010151600001516001600160a01b0316631fdb6cbd86602001516040518263ffffffff1660e01b81526004016113cb91906124c7565b60606040518083038186803b1580156113e357600080fd5b505afa1580156113f7573d6000803e3d6000fd5b505050506040513d601f19601f8201168201806040525081019061141b9190612389565b9250925092506000826000146116145760008660400151600481111561143d57fe5b14156114825783831161145157600061147b565b61147b670de0b6b3a764000061147561146a8688611ace565b60608a015190611b2b565b90611b84565b905061160f565b60018660400151600481111561149457fe5b14156114c1578284116114a857600061147b565b61147b670de0b6b3a764000061147561146a8787611ace565b6002866040015160048111156114d357fe5b14156115475760006114fe670de0b6b3a7640000611475858a60600151611b2b90919063ffffffff16565b90508087608001511161151257600061153f565b61153f670de0b6b3a764000061147588611539858c60800151611ace90919063ffffffff16565b90611b2b565b91505061160f565b60038660400151600481111561155957fe5b14156115b657600084841161156f576000611593565b611593670de0b6b3a76400006114756115888789611ace565b60608b015190611b2b565b9050808760800151116115a757600061153f565b608087015161153f9082611ace565b6004866040015160048111156115c857fe5b14156115f75760008385116115de576000611593565b611593670de0b6b3a76400006114756115888888611ace565b60405162461bcd60e51b81526004016105e09061252f565b6117ee565b60008660400151600481111561162657fe5b141561166757611660670de0b6b3a764000061147561146a8c8c8151811061164a57fe5b6020026020010151600001518a60200151610d02565b90506117ee565b60018660400151600481111561167957fe5b14156116b357611660670de0b6b3a764000061147561146a8c8c8151811061169d57fe5b6020026020010151600001518a60200151610a89565b6002866040015160048111156116c557fe5b14156117565760006116f0670de0b6b3a7640000611475888a60800151611b2b90919063ffffffff16565b90506000611733670de0b6b3a76400006114756117288e8e8151811061171257fe5b6020026020010151600001518c60200151610d02565b60608c015190611b2b565b905080821161174357600061174d565b61174d8282611ace565b925050506117ee565b60038660400151600481111561176857fe5b1415611797576000866080015190506000611733670de0b6b3a76400006114756117288e8e8151811061171257fe5b6004866040015160048111156117a957fe5b14156115f7576000866080015190506000611733670de0b6b3a76400006114756117288e8e815181106117d857fe5b6020026020010151600001518c60200151610a89565b6117f88c82611be8565b9b5050505050505b50506001016110fd565b5050505092915050565b60008183018451101561186c576040805162461bcd60e51b815260206004820152601b60248201527a52656164696e67206279746573206f7574206f6620626f756e647360281b604482015290519081900360640190fd5b82602001840151905081602003801561188b576008810260020a820491505b509392505050565b60007f00000000000000000000000000000000000000000000000000000000000000006001600160a01b0316634f4630da6040518163ffffffff1660e01b815260040160206040518083038186803b1580156118ee57600080fd5b505afa158015611902573d6000803e3d6000fd5b505050506040513d601f19601f820116820180604052508101906119269190611d03565b905090565b600081831161193c57828203611940565b8183035b905060006119556103e8611475866032611b2b565b9050808211156119775760405162461bcd60e51b81526004016105e09061255c565b50505050565b60608182601f0110156119c8576040805162461bcd60e51b815260206004820152600e60248201526d736c6963655f6f766572666c6f7760901b604482015290519081900360640190fd5b828284011015611a10576040805162461bcd60e51b815260206004820152600e60248201526d736c6963655f6f766572666c6f7760901b604482015290519081900360640190fd5b81830184511015611a5c576040805162461bcd60e51b8152602060048201526011602482015270736c6963655f6f75744f66426f756e647360781b604482015290519081900360640190fd5b606082158015611a7b5760405191506000825260208201604052611ac5565b6040519150601f8416801560200281840101858101878315602002848b0101015b81831015611ab4578051835260209283019201611a9c565b5050858452601f01601f1916604052505b50949350505050565b600082821115611b25576040805162461bcd60e51b815260206004820152601e60248201527f536166654d6174683a207375627472616374696f6e206f766572666c6f770000604482015290519081900360640190fd5b50900390565b600082611b3a5750600061039c565b82820282848281611b4757fe5b0414610cfb5760405162461bcd60e51b81526004018080602001828103825260218152602001806126206021913960400191505060405180910390fd5b6000808211611bd7576040805162461bcd60e51b815260206004820152601a602482015279536166654d6174683a206469766973696f6e206279207a65726f60301b604482015290519081900360640190fd5b818381611be057fe5b049392505050565b600082820183811015610cfb576040805162461bcd60e51b815260206004820152601b60248201527a536166654d6174683a206164646974696f6e206f766572666c6f7760281b604482015290519081900360640190fd5b60408051808201909152600081526060602082015290565b805161044281612607565b600082601f830112611c73578081fd5b81356001600160401b03811115611c8657fe5b611c99601f8201601f19166020016125e4565b818152846020838601011115611cad578283fd5b816020850160208301379081016020019190915292915050565b80516006811061044257600080fd5b803560ff8116811461044257600080fd5b600060208284031215611cf8578081fd5b8135610cfb81612607565b600060208284031215611d14578081fd5b8151610cfb81612607565b60008060408385031215611d31578081fd5b8235611d3c81612607565b91506020830135611d4c81612607565b809150509250929050565b60008060008060608587031215611d6c578182fd5b8435611d7781612607565b93506020850135611d8781612607565b925060408501356001600160401b0380821115611da2578384fd5b818701915087601f830112611db5578384fd5b813581811115611dc3578485fd5b886020828501011115611dd4578485fd5b95989497505060200194505050565b60008060008060808587031215611df8578182fd5b8435611e0381612607565b93506020850135611e1381612607565b9250604085013591506060850135611e2a81612607565b939692955090935050565b60008060408385031215611e47578182fd5b8235611e5281612607565b946020939093013593505050565b60006020808385031215611e72578182fd5b82516001600160401b0380821115611e88578384fd5b818501915085601f830112611e9b578384fd5b815181811115611ea757fe5b611eb484858302016125e4565b818152848101908486016040808502870188018b1015611ed2578889fd5b8896505b84871015611f2c5780828c031215611eec578889fd5b80518181018181108882111715611eff57fe5b82528251611f0c81612607565b815282890151898201528452600196909601959287019290810190611ed6565b50909998505050505050505050565b600060208284031215611f4c578081fd5b5035919050565b600060208284031215611f64578081fd5b81356001600160401b03811115611f79578182fd5b610f5a84828501611c63565b60008060408385031215611f97578182fd5b82356001600160401b03811115611fac578283fd5b611fb885828601611c63565b95602094909401359450505050565b600080600060608486031215611fdb578081fd5b83356001600160401b03811115611ff0578182fd5b611ffc86828701611c63565b9660208601359650604090950135949350505050565b60008060408385031215612024578182fd5b82356001600160401b03811115612039578283fd5b61204585828601611c63565b92505061205460208401611cd6565b90509250929050565b600080600060608486031215612071578081fd5b83356001600160401b03811115612086578182fd5b61209286828701611c63565b9350506120a160208501611cd6565b9150604084013590509250925092565b6000806000606084860312156120c5578081fd5b83356001600160401b038111156120da578182fd5b6120e686828701611c63565b9350506120f560208501611cd6565b915061210360408501611cd6565b90509250925092565b600061016080838503121561211f578182fd5b612128816125e4565b905061213383611c58565b815261214160208401611c58565b602082015261215260408401611c58565b604082015261216360608401611c58565b606082015261217460808401611c58565b608082015261218560a08401611c58565b60a082015261219660c08401611c58565b60c08201526121a760e08401611c58565b60e08201526101006121ba818501611c58565b908201526101206121cc848201611c58565b908201526101406121de848201611c58565b908201529392505050565b60006101408083850312156121fc578182fd5b612205816125e4565b905061221083611c58565b815261221e60208401611c58565b602082015261222f60408401611c58565b604082015261224060608401611c58565b606082015261225160808401611c58565b608082015261226260a08401611c58565b60a082015261227360c08401611c58565b60c082015261228460e08401611c58565b60e0820152610100612297818501611c58565b908201526101206121de848201611c58565b600060c082840312156122ba578081fd5b60405160c081018181106001600160401b03821117156122d657fe5b806040525082518152602083015160208201526040830151600581106122fa578283fd5b80604083015250606083015160608201526080830151608082015261232160a08401611cc7565b60a08201529392505050565b60006020828403121561233e578081fd5b5051919050565b60008060408385031215612357578182fd5b50508035926020909101359150565b60008060408385031215612378578182fd5b505080516020909101519092909150565b60008060006060848603121561239d578081fd5b8351925060208401519150604084015190509250925092565b60008151808452815b818110156123db576020818501810151868301820152016123bf565b818111156123ec5782602083870101525b50601f01601f19169290920160200192915050565b6001600160a01b0391909116815260200190565b6001600160a01b039384168152919092166020820152604081019190915260600190565b60006060820160018060a01b03808716845260208681860152604060608187015283875180865260808801915060808482028901019550838901875b828110156124b657898803607f1901845281518051881689528601518689018690526124a3868a01826123b6565b9850509285019290850190600101612475565b50959b9a5050505050505050505050565b90815260200190565b6001600160e01b031991909116815260200190565b600060208252610cfb60208301846123b6565b6020808252601d908201527f63616e6e6f742072656d6f7665206e6f6e2d656d707479206173736574000000604082015260600190565b602080825260139082015272696e76616c6964206f7074696f6e207479706560681b604082015260600190565b6020808252601890820152770ceeec2ec40c8d2eccae4cecadcc6ca40e8dede40d0d2ced60431b604082015260600190565b83516001600160a01b039081168252602094850151948201949094526040810192909252909116606082015260800190565b61ffff9290921682521515602082015260400190565b918252602082015260400190565b6040518181016001600160401b03811182821017156125ff57fe5b604052919050565b6001600160a01b038116811461261c57600080fd5b5056fe536166654d6174683a206d756c7469706c69636174696f6e206f766572666c6f77a26469706673582212203e6a51d0ed5ad669f15208b84cb476d15f01c75faec5ab99636d3d3bfe7d0b5b64736f6c63430007060033",
  "linkReferences": {},
  "deployedLinkReferences": {}
}