{
  "_format": "hh-sol-artifact-1",
  "contractName": "LyraOptionMarketWrapperContractGuard",
  "sourceName": "contracts/guards/contractGuards/LyraOptionMarketWrapperContractGuard.sol",
  "abi": [
    {
      "inputs": [
        {
          "internalType": "contract ILyraRegistry",
          "name": "_lyraRegistry",
          "type": "address"
        },
        {
          "internalType": "address",
          "name": "_nftTracker",
          "type": "address"
        },
        {
          "internalType": "uint256",
          "name": "_maxPositionCount",
          "type": "uint256"
        }
      ],
      "stateMutability": "nonpayable",
      "type": "constructor"
    },
    {
      "anonymous": false,
      "inputs": [
        {
          "indexed": false,
          "internalType": "address",
          "name": "fundAddress",
          "type": "address"
        },
        {
          "indexed": false,
          "internalType": "address",
          "name": "sourceAsset",
          "type": "address"
        },
        {
          "indexed": false,
          "internalType": "uint256",
          "name": "sourceAmount",
          "type": "uint256"
        },
        {
          "indexed": false,
          "internalType": "address",
          "name": "dstAsset",
          "type": "address"
        },
        {
          "indexed": false,
          "internalType": "uint256",
          "name": "time",
          "type": "uint256"
        }
      ],
      "name": "ExchangeFrom",
      "type": "event"
    },
    {
      "anonymous": false,
      "inputs": [
        {
          "indexed": false,
          "internalType": "address",
          "name": "fundAddress",
          "type": "address"
        },
        {
          "indexed": false,
          "internalType": "address",
          "name": "sourceAsset",
          "type": "address"
        },
        {
          "indexed": false,
          "internalType": "address",
          "name": "dstAsset",
          "type": "address"
        },
        {
          "indexed": false,
          "internalType": "uint256",
          "name": "dstAmount",
          "type": "uint256"
        },
        {
          "indexed": false,
          "internalType": "uint256",
          "name": "time",
          "type": "uint256"
        }
      ],
      "name": "ExchangeTo",
      "type": "event"
    },
    {
      "inputs": [],
      "name": "MARKET_VIEWER",
      "outputs": [
        {
          "internalType": "bytes32",
          "name": "",
          "type": "bytes32"
        }
      ],
      "stateMutability": "view",
      "type": "function"
    },
    {
      "inputs": [],
      "name": "MARKET_WRAPPER",
      "outputs": [
        {
          "internalType": "bytes32",
          "name": "",
          "type": "bytes32"
        }
      ],
      "stateMutability": "view",
      "type": "function"
    },
    {
      "inputs": [],
      "name": "NFT_TYPE",
      "outputs": [
        {
          "internalType": "bytes32",
          "name": "",
          "type": "bytes32"
        }
      ],
      "stateMutability": "view",
      "type": "function"
    },
    {
      "inputs": [],
      "name": "SYNTHETIX_ADAPTER",
      "outputs": [
        {
          "internalType": "bytes32",
          "name": "",
          "type": "bytes32"
        }
      ],
      "stateMutability": "view",
      "type": "function"
    },
    {
      "inputs": [
        {
          "internalType": "address",
          "name": "_poolManagerLogic",
          "type": "address"
        },
        {
          "internalType": "address",
          "name": "to",
          "type": "address"
        },
        {
          "internalType": "bytes",
          "name": "data",
          "type": "bytes"
        }
      ],
      "name": "afterTxGuard",
      "outputs": [],
      "stateMutability": "nonpayable",
      "type": "function"
    },
    {
      "inputs": [
        {
          "internalType": "bytes32",
          "name": "data",
          "type": "bytes32"
        }
      ],
      "name": "convert32toAddress",
      "outputs": [
        {
          "internalType": "address",
          "name": "o",
          "type": "address"
        }
      ],
      "stateMutability": "pure",
      "type": "function"
    },
    {
      "inputs": [
        {
          "internalType": "bytes",
          "name": "data",
          "type": "bytes"
        },
        {
          "internalType": "uint8",
          "name": "inputNum",
          "type": "uint8"
        },
        {
          "internalType": "uint8",
          "name": "arrayIndex",
          "type": "uint8"
        }
      ],
      "name": "getArrayIndex",
      "outputs": [
        {
          "internalType": "bytes32",
          "name": "",
          "type": "bytes32"
        }
      ],
      "stateMutability": "pure",
      "type": "function"
    },
    {
      "inputs": [
        {
          "internalType": "bytes",
          "name": "data",
          "type": "bytes"
        },
        {
          "internalType": "uint8",
          "name": "inputNum",
          "type": "uint8"
        }
      ],
      "name": "getArrayLast",
      "outputs": [
        {
          "internalType": "bytes32",
          "name": "",
          "type": "bytes32"
        }
      ],
      "stateMutability": "pure",
      "type": "function"
    },
    {
      "inputs": [
        {
          "internalType": "bytes",
          "name": "data",
          "type": "bytes"
        },
        {
          "internalType": "uint8",
          "name": "inputNum",
          "type": "uint8"
        }
      ],
      "name": "getArrayLength",
      "outputs": [
        {
          "internalType": "uint256",
          "name": "",
          "type": "uint256"
        }
      ],
      "stateMutability": "pure",
      "type": "function"
    },
    {
      "inputs": [
        {
          "internalType": "bytes",
          "name": "data",
          "type": "bytes"
        },
        {
          "internalType": "uint8",
          "name": "inputNum",
          "type": "uint8"
        },
        {
          "internalType": "uint256",
          "name": "offset",
          "type": "uint256"
        }
      ],
      "name": "getBytes",
      "outputs": [
        {
          "internalType": "bytes",
          "name": "",
          "type": "bytes"
        }
      ],
      "stateMutability": "pure",
      "type": "function"
    },
    {
      "inputs": [
        {
          "internalType": "bytes",
          "name": "data",
          "type": "bytes"
        },
        {
          "internalType": "uint8",
          "name": "inputNum",
          "type": "uint8"
        }
      ],
      "name": "getInput",
      "outputs": [
        {
          "internalType": "bytes32",
          "name": "",
          "type": "bytes32"
        }
      ],
      "stateMutability": "pure",
      "type": "function"
    },
    {
      "inputs": [
        {
          "internalType": "bytes",
          "name": "data",
          "type": "bytes"
        }
      ],
      "name": "getMethod",
      "outputs": [
        {
          "internalType": "bytes4",
          "name": "",
          "type": "bytes4"
        }
      ],
      "stateMutability": "pure",
      "type": "function"
    },
    {
      "inputs": [
        {
          "internalType": "address",
          "name": "poolLogic",
          "type": "address"
        }
      ],
      "name": "getOptionPositions",
      "outputs": [
        {
          "components": [
            {
              "internalType": "address",
              "name": "optionMarket",
              "type": "address"
            },
            {
              "internalType": "uint256",
              "name": "positionId",
              "type": "uint256"
            }
          ],
          "internalType": "struct LyraOptionMarketWrapperContractGuard.OptionPosition[]",
          "name": "optionPositions",
          "type": "tuple[]"
        }
      ],
      "stateMutability": "view",
      "type": "function"
    },
    {
      "inputs": [
        {
          "internalType": "bytes",
          "name": "data",
          "type": "bytes"
        }
      ],
      "name": "getParams",
      "outputs": [
        {
          "internalType": "bytes",
          "name": "",
          "type": "bytes"
        }
      ],
      "stateMutability": "pure",
      "type": "function"
    },
    {
      "inputs": [],
      "name": "isTxTrackingGuard",
      "outputs": [
        {
          "internalType": "bool",
          "name": "",
          "type": "bool"
        }
      ],
      "stateMutability": "view",
      "type": "function"
    },
    {
      "inputs": [],
      "name": "lyraRegistry",
      "outputs": [
        {
          "internalType": "contract ILyraRegistry",
          "name": "",
          "type": "address"
        }
      ],
      "stateMutability": "view",
      "type": "function"
    },
    {
      "inputs": [],
      "name": "marketViewer",
      "outputs": [
        {
          "internalType": "contract IOptionMarketViewer",
          "name": "",
          "type": "address"
        }
      ],
      "stateMutability": "view",
      "type": "function"
    },
    {
      "inputs": [],
      "name": "marketWrapper",
      "outputs": [
        {
          "internalType": "address",
          "name": "",
          "type": "address"
        }
      ],
      "stateMutability": "view",
      "type": "function"
    },
    {
      "inputs": [],
      "name": "maxPositionCount",
      "outputs": [
        {
          "internalType": "uint256",
          "name": "",
          "type": "uint256"
        }
      ],
      "stateMutability": "view",
      "type": "function"
    },
    {
      "inputs": [],
      "name": "nftTracker",
      "outputs": [
        {
          "internalType": "address",
          "name": "",
          "type": "address"
        }
      ],
      "stateMutability": "view",
      "type": "function"
    },
    {
      "inputs": [
        {
          "internalType": "bytes",
          "name": "data",
          "type": "bytes"
        },
        {
          "internalType": "uint256",
          "name": "offset",
          "type": "uint256"
        },
        {
          "internalType": "uint256",
          "name": "length",
          "type": "uint256"
        }
      ],
      "name": "read32",
      "outputs": [
        {
          "internalType": "bytes32",
          "name": "o",
          "type": "bytes32"
        }
      ],
      "stateMutability": "pure",
      "type": "function"
    },
    {
      "inputs": [
        {
          "internalType": "bytes",
          "name": "data",
          "type": "bytes"
        },
        {
          "internalType": "uint256",
          "name": "offset",
          "type": "uint256"
        }
      ],
      "name": "read4left",
      "outputs": [
        {
          "internalType": "bytes4",
          "name": "o",
          "type": "bytes4"
        }
      ],
      "stateMutability": "pure",
      "type": "function"
    },
    {
      "inputs": [
        {
          "internalType": "address",
          "name": "poolLogic",
          "type": "address"
        },
        {
          "internalType": "address",
          "name": "optionMarket",
          "type": "address"
        },
        {
          "internalType": "uint256",
          "name": "positionId",
          "type": "uint256"
        }
      ],
      "name": "removeClosedPosition",
      "outputs": [],
      "stateMutability": "nonpayable",
      "type": "function"
    },
    {
      "inputs": [
        {
          "internalType": "address",
          "name": "poolLogic",
          "type": "address"
        },
        {
          "internalType": "address",
          "name": "guardedContract",
          "type": "address"
        }
      ],
      "name": "settleExpiredAndFilterActivePositions",
      "outputs": [],
      "stateMutability": "nonpayable",
      "type": "function"
    },
    {
      "inputs": [
        {
          "internalType": "address",
          "name": "poolLogic",
          "type": "address"
        }
      ],
      "name": "settleExpiredAndFilterActivePositions",
      "outputs": [],
      "stateMutability": "nonpayable",
      "type": "function"
    },
    {
      "inputs": [
        {
          "internalType": "address",
          "name": "_poolManagerLogic",
          "type": "address"
        },
        {
          "internalType": "address",
          "name": "to",
          "type": "address"
        },
        {
          "internalType": "bytes",
          "name": "data",
          "type": "bytes"
        }
      ],
      "name": "txGuard",
      "outputs": [
        {
          "internalType": "uint16",
          "name": "txType",
          "type": "uint16"
        },
        {
          "internalType": "bool",
          "name": "",
          "type": "bool"
        }
      ],
      "stateMutability": "nonpayable",
      "type": "function"
    }
  ],
  "bytecode": "0x60e06040526000805460ff191660011790553480156200001e57600080fd5b506040516200297e3803806200297e833981016040819052620000419162000065565b6001600160601b0319606093841b811660c0529190921b1660805260a052620000c5565b6000806000606084860312156200007a578283fd5b83516200008781620000ac565b60208501519093506200009a81620000ac565b80925050604084015190509250925092565b6001600160a01b0381168114620000c257600080fd5b50565b60805160601c60a05160c05160601c6128596200012560003980610edd5280610f795280610fb45250806105905280611a2c5250806104d4528061084c5280610c56528061148c52806118d55280611a575280611c5852506128596000f3fe608060405234801561001057600080fd5b506004361061013e5760003560e01c80630561e1a1146101435780630787a80a1461015857806307caac391461016b57806309ff5c7d146101895780631053f9521461019c5780631eba3077146101bc578063293d8063146101dc57806341dc16c3146101fc57806343054c121461020f5780634349be801461022257806352dac6561461022a5780635e3c0dcc146102325780636179309d1461023a578063689015131461025b57806375d144751461026e5780637bf981191461028e57806382f86acc146102a3578063998546e3146102b6578063c3c6279f146102c9578063cd4ac1b7146102dc578063d2450c76146102e4578063db896b57146102ec578063e4e6ea58146102ff578063ee9e0e6a14610307578063ef38bf011461030f578063f66c9dd214610317575b600080fd5b610156610151366004611ed9565b61032a565b005b610156610166366004611e15565b610580565b61017361058e565b60405161018091906125c9565b60405180910390f35b6101736101973660046120e2565b6105b2565b6101af6101aa36600461212d565b610645565b60405161018091906125fe565b6101cf6101ca36600461200b565b6106dd565b60405161018091906124bc565b6101ef6101ea366004612055565b6106e4565b60405161018091906125e9565b61017361020a366004612181565b610746565b61015661021d366004611ddd565b610824565b610173610838565b6101cf61084a565b61017361086e565b61024d610248366004611e4d565b610882565b604051610180929190612768565b6101af610269366004612023565b610c35565b61028161027c366004611ddd565b610c50565b604051610180919061252d565b610296610db3565b60405161018091906125be565b6101736102b13660046120e2565b610dbc565b6101736102c43660046120e2565b610dda565b6101ef6102d7366004612023565b610e0b565b610173610e18565b610173610e30565b6101736102fa366004612097565b610e45565b6101cf610ec4565b6101cf610f77565b6101cf610f9b565b610156610325366004611e4d565b610ffa565b600061033584610c50565b905060005b815181101561057957836001600160a01b031682828151811061035957fe5b6020026020010151600001516001600160a01b031614801561039157508282828151811061038357fe5b602002602001015160200151145b156105715760006103a0610ec4565b6001600160a01b031663c71b7e53866040518263ffffffff1660e01b81526004016103cb91906124bc565b6101406040518083038186803b1580156103e457600080fd5b505afa1580156103f8573d6000803e3d6000fd5b505050506040513d601f19601f8201168201806040525081019061041c91906121f6565b905060018160a001516001600160a01b031663eb29dc5e866040518263ffffffff1660e01b815260040161045091906125c9565b60206040518083038186803b15801561046857600080fd5b505afa15801561047c573d6000803e3d6000fd5b505050506040513d601f19601f820116820180604052508101906104a091906121dc565b60058111156104ab57fe5b14156104d25760405162461bcd60e51b81526004016104c99061269c565b60405180910390fd5b7f00000000000000000000000000000000000000000000000000000000000000006001600160a01b031663cc622e72610509610f9b565b60008051602061280483398151915289866040518563ffffffff1660e01b81526004016105399493929190612503565b600060405180830381600087803b15801561055357600080fd5b505af1158015610567573d6000803e3d6000fd5b5050505050610579565b60010161033a565b5050505050565b61058a8282611109565b5050565b7f000000000000000000000000000000000000000000000000000000000000000081565b6000806105ca848460200260040160ff166020610e45565b905060006105dd85600484016020610e45565b905080610626576040805162461bcd60e51b8152602060048201526012602482015271696e707574206973206e6f7420617272617960701b604482015290519081900360640190fd5b61063a856020808402850160040190610e45565b925050505b92915050565b60606014821061068d576040805162461bcd60e51b815260206004820152600e60248201526d1a5b9d985b1a59081bd9999cd95d60921b604482015290519081900360640190fd5b81602002915060006106ac85848660200260040160ff16016020610e45565b905060006106c1868584016004016020610e45565b90506106d38660248487010183611514565b9695505050505050565b805b919050565b6000816004018351101561073d576040805162461bcd60e51b815260206004820152601b60248201527a52656164696e67206279746573206f7574206f6620626f756e647360281b604482015290519081900360640190fd5b50016020015190565b60008061075e858560200260040160ff166020610e45565b9050600061077186600484016020610e45565b9050806107ba576040805162461bcd60e51b8152602060048201526012602482015271696e707574206973206e6f7420617272617960701b604482015290519081900360640190fd5b60ff8416811161080a576040805162461bcd60e51b815260206004820152601660248201527534b73b30b634b21030b93930bc903837b9b4ba34b7b760511b604482015290519081900360640190fd5b6106d3866020600160ff8816018102850160040190610e45565b61083581610830610f9b565b611109565b50565b60008051602061280483398151915281565b7f000000000000000000000000000000000000000000000000000000000000000081565b6c26a0a925a2aa2fab24a2aba2a960991b81565b604051634df48c7360e11b8152600090819086906001600160a01b03821690639be918e6906108b59089906004016124bc565b60206040518083038186803b1580156108cd57600080fd5b505afa1580156108e1573d6000803e3d6000fd5b505050506040513d601f19601f820116820180604052508101906109059190611feb565b6109215760405162461bcd60e51b81526004016104c990612642565b610995876001600160a01b03166339b81fd96040518163ffffffff1660e01b815260040160206040518083038186803b15801561095d57600080fd5b505afa158015610971573d6000803e3d6000fd5b505050506040513d601f19601f8201168201806040525081019061021d9190611df9565b60006109d686868080601f016020809104026020016040519081016040528093929190818152602001838380828437600092019190915250610e0b92505050565b90506001600160e01b03198116638bc3696960e01b1415610aa0576000610a3287878080601f016020809104026020016040519081016040528093929190818152602001838380828437600092019190915250610c3592505050565b806020019051810190610a4591906122c1565b9050610a5a838260c001518360000151611665565b601a9450610a9a896001600160a01b03166339b81fd96040518163ffffffff1660e01b815260040160206040518083038186803b15801561095d57600080fd5b50610c26565b6001600160e01b0319811663b738a96b60e01b1415610b62576000610afa87878080601f016020809104026020016040519081016040528093929190818152602001838380828437600092019190915250610c3592505050565b806020019051810190610b0d91906122c1565b9050610b22838260c001518360000151611665565b601b9450610a9a896001600160a01b03166339b81fd96040518163ffffffff1660e01b815260040160206040518083038186803b15801561095d57600080fd5b6001600160e01b031981166305766e3d60e11b1415610c26576000610bbc87878080601f016020809104026020016040519081016040528093929190818152602001838380828437600092019190915250610c3592505050565b806020019051810190610bcf91906122c1565b9050610be4838260c001518360000151611665565b601c9450610c24896001600160a01b03166339b81fd96040518163ffffffff1660e01b815260040160206040518083038186803b15801561095d57600080fd5b505b50600091505094509492505050565b606061063f600480845103846115149092919063ffffffff16565b606060007f00000000000000000000000000000000000000000000000000000000000000006001600160a01b031663adee6197600080516020612804833981519152856040518363ffffffff1660e01b8152600401610cb09291906125d2565b60006040518083038186803b158015610cc857600080fd5b505afa158015610cdc573d6000803e3d6000fd5b505050506040513d6000823e601f3d908101601f19168201604052610d049190810190611f19565b905080516001600160401b0381118015610d1d57600080fd5b50604051908082528060200260200182016040528015610d5757816020015b610d44611d3b565b815260200190600190039081610d3c5790505b50915060005b8151811015610dac57818181518110610d7257fe5b6020026020010151806020019051810190610d8d9190612366565b838281518110610d9957fe5b6020908102919091010152600101610d5d565b5050919050565b60005460ff1681565b6000610dd3838360200260040160ff166020610e45565b9392505050565b600080610df2848460200260040160ff166020610e45565b9050610e0384600483016020610e45565b949350505050565b600061063f8260006106e4565b7029aca72a2422aa24ac2fa0a220a82a22a960791b81565b6d26a0a925a2aa2faba920a82822a960911b81565b600081830184511015610e9d576040805162461bcd60e51b815260206004820152601b60248201527a52656164696e67206279746573206f7574206f6620626f756e647360281b604482015290519081900360640190fd5b826020018401519050816020038015610ebc576008810260020a820491505b509392505050565b604051623f970360e91b81526000906001600160a01b037f00000000000000000000000000000000000000000000000000000000000000001690637f2e060090610f22906c26a0a925a2aa2fab24a2aba2a960991b906004016125c9565b60206040518083038186803b158015610f3a57600080fd5b505afa158015610f4e573d6000803e3d6000fd5b505050506040513d601f19601f82011682018060405250810190610f729190611df9565b905090565b7f000000000000000000000000000000000000000000000000000000000000000081565b604051623f970360e91b81526000906001600160a01b037f00000000000000000000000000000000000000000000000000000000000000001690637f2e060090610f22906d26a0a925a2aa2faba920a82822a960911b906004016125c9565b6000846001600160a01b03166339b81fd96040518163ffffffff1660e01b815260040160206040518083038186803b15801561103557600080fd5b505afa158015611049573d6000803e3d6000fd5b505050506040513d601f19601f8201168201806040525081019061106d9190611df9565b9050336001600160a01b038216146110975760405162461bcd60e51b81526004016104c990612732565b60006110d884848080601f016020809104026020016040519081016040528093929190818152602001838380828437600092019190915250610c3592505050565b8060200190518101906110eb91906122c1565b9050611101858383600001518460400151611846565b505050505050565b6000826001600160a01b0316631e50a4a66040518163ffffffff1660e01b815260040160206040518083038186803b15801561114457600080fd5b505afa158015611158573d6000803e3d6000fd5b505050506040513d601f19601f8201168201806040525081019061117c9190611df9565b9050600061118984610c50565b80519091505b801561057957600019810160006111a4610ec4565b6001600160a01b031663c71b7e538584815181106111be57fe5b6020026020010151600001516040518263ffffffff1660e01b81526004016111e691906124bc565b6101406040518083038186803b1580156111ff57600080fd5b505afa158015611213573d6000803e3d6000fd5b505050506040513d601f19601f8201168201806040525081019061123791906121f6565b905060008160a001516001600160a01b03166399fbab8886858151811061125a57fe5b6020026020010151602001516040518263ffffffff1660e01b815260040161128291906125c9565b60c06040518083038186803b15801561129a57600080fd5b505afa1580156112ae573d6000803e3d6000fd5b505050506040513d601f19601f820116820180604052508101906112d291906123b6565b905060018160a0015160058111156112e657fe5b14156114755760008584815181106112fa57fe5b6020026020010151600001516001600160a01b0316631fdb6cbd83602001516040518263ffffffff1660e01b815260040161133591906125c9565b60606040518083038186803b15801561134d57600080fd5b505afa158015611361573d6000803e3d6000fd5b505050506040513d601f19601f82011682018060405250810190611385919061244b565b5091505080611397575050505061150b565b6113bd8783604001518887815181106113ac57fe5b602002602001015160000151611665565b604080516001808252818301909252600091602080830190803683370190505090508685815181106113eb57fe5b6020026020010151602001518160008151811061140457fe5b6020026020010181815250508360c001516001600160a01b031663bc0d6c57826040518263ffffffff1660e01b8152600401611440919061257a565b600060405180830381600087803b15801561145a57600080fd5b505af115801561146e573d6000803e3d6000fd5b5050505050505b604051636631173960e11b81526001600160a01b037f0000000000000000000000000000000000000000000000000000000000000000169063cc622e72906114d5908a90600080516020612804833981519152908d908990600401612503565b600060405180830381600087803b1580156114ef57600080fd5b505af1158015611503573d6000803e3d6000fd5b505050505050505b6000190161118f565b60608182601f01101561155f576040805162461bcd60e51b815260206004820152600e60248201526d736c6963655f6f766572666c6f7760901b604482015290519081900360640190fd5b8282840110156115a7576040805162461bcd60e51b815260206004820152600e60248201526d736c6963655f6f766572666c6f7760901b604482015290519081900360640190fd5b818301845110156115f3576040805162461bcd60e51b8152602060048201526011602482015270736c6963655f6f75744f66426f756e647360781b604482015290519081900360640190fd5b606082158015611612576040519150600082526020820160405261165c565b6040519150601f8416801560200281840101858101878315602002848b0101015b8183101561164b578051835260209283019201611633565b5050858452601f01601f1916604052505b50949350505050565b600061166f610ec4565b6001600160a01b031663c71b7e53836040518263ffffffff1660e01b815260040161169a91906124bc565b6101406040518083038186803b1580156116b357600080fd5b505afa1580156116c7573d6000803e3d6000fd5b505050506040513d601f19601f820116820180604052508101906116eb91906121f6565b905060028360048111156116fb57fe5b14156117a357610120810151604051634df48c7360e11b81526001600160a01b03861691639be918e69161173291906004016124bc565b60206040518083038186803b15801561174a57600080fd5b505afa15801561175e573d6000803e3d6000fd5b505050506040513d601f19601f820116820180604052508101906117829190611feb565b61179e5760405162461bcd60e51b81526004016104c99061266c565b611840565b610100810151604051634df48c7360e11b81526001600160a01b03861691639be918e6916117d491906004016124bc565b60206040518083038186803b1580156117ec57600080fd5b505afa158015611800573d6000803e3d6000fd5b505050506040513d601f19601f820116820180604052508101906118249190611feb565b6118405760405162461bcd60e51b81526004016104c990612611565b50505050565b6000611850610ec4565b6001600160a01b031663c71b7e53846040518263ffffffff1660e01b815260040161187b91906124bc565b6101406040518083038186803b15801561189457600080fd5b505afa1580156118a8573d6000803e3d6000fd5b505050506040513d601f19601f820116820180604052508101906118cc91906121f6565b905081611b10577f00000000000000000000000000000000000000000000000000000000000000006001600160a01b03166354d8c4ba86600080516020612804833981519152876040518060400160405280896001600160a01b031681526020016119ad60018960a001516001600160a01b03166361b8ce8c6040518163ffffffff1660e01b815260040160206040518083038186803b15801561196f57600080fd5b505afa158015611983573d6000803e3d6000fd5b505050506040513d601f19601f820116820180604052508101906119a79190612433565b90611cde565b90526040516119bf919060200161275a565b6040516020818303038152906040526040518563ffffffff1660e01b81526004016119ed94939291906124d0565b600060405180830381600087803b158015611a0757600080fd5b505af1158015611a1b573d6000803e3d6000fd5b5050604051632ac14da160e21b81527f000000000000000000000000000000000000000000000000000000000000000092506001600160a01b037f000000000000000000000000000000000000000000000000000000000000000016915063ab05368490611a9d906000805160206128048339815191529089906004016125d2565b60206040518083038186803b158015611ab557600080fd5b505afa158015611ac9573d6000803e3d6000fd5b505050506040513d601f19601f82011682018060405250810190611aed9190612433565b1115611b0b5760405162461bcd60e51b81526004016104c9906126fb565b610579565b60a0810151604051637594ee2f60e11b81526000916001600160a01b03169063eb29dc5e90611b439086906004016125c9565b60206040518083038186803b158015611b5b57600080fd5b505afa158015611b6f573d6000803e3d6000fd5b505050506040513d601f19601f82011682018060405250810190611b9391906121dc565b90506000611ba086610c50565b905060005b8151811015611c0e57856001600160a01b0316828281518110611bc457fe5b6020026020010151600001516001600160a01b0316148015611bfc575084828281518110611bee57fe5b602002602001015160200151145b15611c0657611c0e565b600101611ba5565b81518110611c2e5760405162461bcd60e51b81526004016104c9906126c9565b6001836005811115611c3c57fe5b14611cd457604051636631173960e11b81526001600160a01b037f0000000000000000000000000000000000000000000000000000000000000000169063cc622e7290611ca1908b90600080516020612804833981519152908c908790600401612503565b600060405180830381600087803b158015611cbb57600080fd5b505af1158015611ccf573d6000803e3d6000fd5b505050505b5050505050505050565b600082821115611d35576040805162461bcd60e51b815260206004820152601e60248201527f536166654d6174683a207375627472616374696f6e206f766572666c6f770000604482015290519081900360640190fd5b50900390565b604080518082019091526000808252602082015290565b80516106df816127ee565b600082601f830112611d6d578081fd5b8135611d80611d7b826127a1565b61277e565b818152846020838601011115611d94578283fd5b816020850160208301379081016020019190915292915050565b8051600581106106df57600080fd5b8051600681106106df57600080fd5b803560ff811681146106df57600080fd5b600060208284031215611dee578081fd5b8135610dd3816127ee565b600060208284031215611e0a578081fd5b8151610dd3816127ee565b60008060408385031215611e27578081fd5b8235611e32816127ee565b91506020830135611e42816127ee565b809150509250929050565b60008060008060608587031215611e62578182fd5b8435611e6d816127ee565b93506020850135611e7d816127ee565b925060408501356001600160401b0380821115611e98578384fd5b818701915087601f830112611eab578384fd5b813581811115611eb9578485fd5b886020828501011115611eca578485fd5b95989497505060200194505050565b600080600060608486031215611eed578081fd5b8335611ef8816127ee565b92506020840135611f08816127ee565b929592945050506040919091013590565b60006020808385031215611f2b578182fd5b82516001600160401b0380821115611f41578384fd5b818501915085601f830112611f54578384fd5b815181811115611f6057fe5b611f6d848583020161277e565b8181528481019250838501865b83811015611fdd57815186018a603f820112611f94578889fd5b878101516040611fa6611d7b836127a1565b8281528d82848601011115611fb9578b8cfd5b611fc8838c83018487016127c2565b88525050509386019390860190600101611f7a565b509098975050505050505050565b600060208284031215611ffc578081fd5b81518015158114610dd3578182fd5b60006020828403121561201c578081fd5b5035919050565b600060208284031215612034578081fd5b81356001600160401b03811115612049578182fd5b610e0384828501611d5d565b60008060408385031215612067578182fd5b82356001600160401b0381111561207c578283fd5b61208885828601611d5d565b95602094909401359450505050565b6000806000606084860312156120ab578081fd5b83356001600160401b038111156120c0578182fd5b6120cc86828701611d5d565b9660208601359650604090950135949350505050565b600080604083850312156120f4578182fd5b82356001600160401b03811115612109578283fd5b61211585828601611d5d565b92505061212460208401611dcc565b90509250929050565b600080600060608486031215612141578081fd5b83356001600160401b03811115612156578182fd5b61216286828701611d5d565b93505061217160208501611dcc565b9150604084013590509250925092565b600080600060608486031215612195578081fd5b83356001600160401b038111156121aa578182fd5b6121b686828701611d5d565b9350506121c560208501611dcc565b91506121d360408501611dcc565b90509250925092565b6000602082840312156121ed578081fd5b610dd382611dbd565b6000610140808385031215612209578182fd5b6122128161277e565b905061221d83611d52565b815261222b60208401611d52565b602082015261223c60408401611d52565b604082015261224d60608401611d52565b606082015261225e60808401611d52565b608082015261226f60a08401611d52565b60a082015261228060c08401611d52565b60c082015261229160e08401611d52565b60e08201526101006122a4818501611d52565b908201526101206122b6848201611d52565b908201529392505050565b60006101808083850312156122d4578182fd5b6122dd8161277e565b90506122e883611d52565b81526020830151602082015260408301516040820152606083015160608201526080830151608082015260a083015160a082015261232860c08401611dae565b60c082015260e083810151908201526101008084015190820152610120808401519082015261014080840151908201526101606122b6818501611d52565b600060408284031215612377578081fd5b604051604081018181106001600160401b038211171561239357fe5b60405282516123a1816127ee565b81526020928301519281019290925250919050565b600060c082840312156123c7578081fd5b60405160c081018181106001600160401b03821117156123e357fe5b8060405250825181526020830151602082015261240260408401611dae565b6040820152606083015160608201526080830151608082015261242760a08401611dbd565b60a08201529392505050565b600060208284031215612444578081fd5b5051919050565b60008060006060848603121561245f578081fd5b8351925060208401519150604084015190509250925092565b600081518084526124908160208601602086016127c2565b601f01601f19169290920160200192915050565b80516001600160a01b03168252602090810151910152565b6001600160a01b0391909116815260200190565b6001600160a01b03858116825260208201859052831660408201526080606082018190526000906106d390830184612478565b6001600160a01b039485168152602081019390935292166040820152606081019190915260800190565b602080825282518282018190526000919060409081850190868401855b8281101561256d5761255d8483516124a4565b928401929085019060010161254a565b5091979650505050505050565b6020808252825182820181905260009190848201906040850190845b818110156125b257835183529284019291840191600101612596565b50909695505050505050565b901515815260200190565b90815260200190565b9182526001600160a01b0316602082015260400190565b6001600160e01b031991909116815260200190565b600060208252610dd36020830184612478565b6020808252601790820152761d5b9cdd5c1c1bdc9d1959081c5d5bdd1948185cdcd95d604a1b604082015260600190565b60208082526010908201526f1b1e5c98481b9bdd08195b98589b195960821b604082015260600190565b6020808252601690820152751d5b9cdd5c1c1bdc9d19590818985cd948185cdcd95d60521b604082015260600190565b6020808252601390820152723737ba1031b637b9b2b2103837b9b4ba34b7b760691b604082015260600190565b602080825260189082015277706f736974696f6e206973206e6f7420696e20747261636b60401b604082015260600190565b6020808252601d908201527f657863656564206d6178696d756d20706f736974696f6e20636f756e74000000604082015260600190565b6020808252600e908201526d6e6f7420706f6f6c206c6f67696360901b604082015260600190565b6040810161063f82846124a4565b61ffff9290921682521515602082015260400190565b6040518181016001600160401b038111828210171561279957fe5b604052919050565b60006001600160401b038211156127b457fe5b50601f01601f191660200190565b60005b838110156127dd5781810151838201526020016127c5565b838111156118405750506000910152565b6001600160a01b038116811461083557600080fdfe9bb8215865837737a430a2ed3e9c04cabdb00a3a0eb47bf3b216ebc38d14a326a26469706673582212208f069dfce6e0f1f5b58f4969ef7e4b201b5ffdd421165f78cca8a0cef5ed6eb764736f6c63430007060033",
  "linkReferences": {},
  "deployedLinkReferences": {}
}