{
  "_format": "hh-sol-artifact-1",
  "contractName": "SushiLPAssetGuard",
  "sourceName": "contracts/guards/assetGuards/SushiLPAssetGuard.sol",
  "abi": [
    {
      "inputs": [
        {
          "internalType": "address",
          "name": "_sushiStaking",
          "type": "address"
        }
      ],
      "stateMutability": "nonpayable",
      "type": "constructor"
    },
    {
      "anonymous": false,
      "inputs": [
        {
          "indexed": false,
          "internalType": "address",
          "name": "fundAddress",
          "type": "address"
        },
        {
          "indexed": false,
          "internalType": "address",
          "name": "manager",
          "type": "address"
        },
        {
          "indexed": false,
          "internalType": "address",
          "name": "spender",
          "type": "address"
        },
        {
          "indexed": false,
          "internalType": "uint256",
          "name": "amount",
          "type": "uint256"
        },
        {
          "indexed": false,
          "internalType": "uint256",
          "name": "time",
          "type": "uint256"
        }
      ],
      "name": "Approve",
      "type": "event"
    },
    {
      "anonymous": false,
      "inputs": [
        {
          "indexed": false,
          "internalType": "address",
          "name": "fundAddress",
          "type": "address"
        },
        {
          "indexed": false,
          "internalType": "address",
          "name": "sourceAsset",
          "type": "address"
        },
        {
          "indexed": false,
          "internalType": "uint256",
          "name": "sourceAmount",
          "type": "uint256"
        },
        {
          "indexed": false,
          "internalType": "address",
          "name": "dstAsset",
          "type": "address"
        },
        {
          "indexed": false,
          "internalType": "uint256",
          "name": "time",
          "type": "uint256"
        }
      ],
      "name": "ExchangeFrom",
      "type": "event"
    },
    {
      "anonymous": false,
      "inputs": [
        {
          "indexed": false,
          "internalType": "address",
          "name": "fundAddress",
          "type": "address"
        },
        {
          "indexed": false,
          "internalType": "address",
          "name": "sourceAsset",
          "type": "address"
        },
        {
          "indexed": false,
          "internalType": "address",
          "name": "dstAsset",
          "type": "address"
        },
        {
          "indexed": false,
          "internalType": "uint256",
          "name": "dstAmount",
          "type": "uint256"
        },
        {
          "indexed": false,
          "internalType": "uint256",
          "name": "time",
          "type": "uint256"
        }
      ],
      "name": "ExchangeTo",
      "type": "event"
    },
    {
      "anonymous": false,
      "inputs": [
        {
          "indexed": true,
          "internalType": "address",
          "name": "previousOwner",
          "type": "address"
        },
        {
          "indexed": true,
          "internalType": "address",
          "name": "newOwner",
          "type": "address"
        }
      ],
      "name": "OwnershipTransferred",
      "type": "event"
    },
    {
      "anonymous": false,
      "inputs": [
        {
          "indexed": true,
          "internalType": "address",
          "name": "lpToken",
          "type": "address"
        },
        {
          "indexed": true,
          "internalType": "uint256",
          "name": "poolId",
          "type": "uint256"
        }
      ],
      "name": "SushiPoolAdded",
      "type": "event"
    },
    {
      "inputs": [
        {
          "internalType": "bytes32",
          "name": "data",
          "type": "bytes32"
        }
      ],
      "name": "convert32toAddress",
      "outputs": [
        {
          "internalType": "address",
          "name": "o",
          "type": "address"
        }
      ],
      "stateMutability": "pure",
      "type": "function"
    },
    {
      "inputs": [
        {
          "internalType": "bytes",
          "name": "data",
          "type": "bytes"
        },
        {
          "internalType": "uint8",
          "name": "inputNum",
          "type": "uint8"
        },
        {
          "internalType": "uint8",
          "name": "arrayIndex",
          "type": "uint8"
        }
      ],
      "name": "getArrayIndex",
      "outputs": [
        {
          "internalType": "bytes32",
          "name": "",
          "type": "bytes32"
        }
      ],
      "stateMutability": "pure",
      "type": "function"
    },
    {
      "inputs": [
        {
          "internalType": "bytes",
          "name": "data",
          "type": "bytes"
        },
        {
          "internalType": "uint8",
          "name": "inputNum",
          "type": "uint8"
        }
      ],
      "name": "getArrayLast",
      "outputs": [
        {
          "internalType": "bytes32",
          "name": "",
          "type": "bytes32"
        }
      ],
      "stateMutability": "pure",
      "type": "function"
    },
    {
      "inputs": [
        {
          "internalType": "bytes",
          "name": "data",
          "type": "bytes"
        },
        {
          "internalType": "uint8",
          "name": "inputNum",
          "type": "uint8"
        }
      ],
      "name": "getArrayLength",
      "outputs": [
        {
          "internalType": "uint256",
          "name": "",
          "type": "uint256"
        }
      ],
      "stateMutability": "pure",
      "type": "function"
    },
    {
      "inputs": [
        {
          "internalType": "address",
          "name": "pool",
          "type": "address"
        },
        {
          "internalType": "address",
          "name": "asset",
          "type": "address"
        }
      ],
      "name": "getBalance",
      "outputs": [
        {
          "internalType": "uint256",
          "name": "balance",
          "type": "uint256"
        }
      ],
      "stateMutability": "view",
      "type": "function"
    },
    {
      "inputs": [
        {
          "internalType": "bytes",
          "name": "data",
          "type": "bytes"
        },
        {
          "internalType": "uint8",
          "name": "inputNum",
          "type": "uint8"
        },
        {
          "internalType": "uint256",
          "name": "offset",
          "type": "uint256"
        }
      ],
      "name": "getBytes",
      "outputs": [
        {
          "internalType": "bytes",
          "name": "",
          "type": "bytes"
        }
      ],
      "stateMutability": "pure",
      "type": "function"
    },
    {
      "inputs": [
        {
          "internalType": "address",
          "name": "asset",
          "type": "address"
        }
      ],
      "name": "getDecimals",
      "outputs": [
        {
          "internalType": "uint256",
          "name": "decimals",
          "type": "uint256"
        }
      ],
      "stateMutability": "view",
      "type": "function"
    },
    {
      "inputs": [
        {
          "internalType": "bytes",
          "name": "data",
          "type": "bytes"
        },
        {
          "internalType": "uint8",
          "name": "inputNum",
          "type": "uint8"
        }
      ],
      "name": "getInput",
      "outputs": [
        {
          "internalType": "bytes32",
          "name": "",
          "type": "bytes32"
        }
      ],
      "stateMutability": "pure",
      "type": "function"
    },
    {
      "inputs": [
        {
          "internalType": "bytes",
          "name": "data",
          "type": "bytes"
        }
      ],
      "name": "getMethod",
      "outputs": [
        {
          "internalType": "bytes4",
          "name": "",
          "type": "bytes4"
        }
      ],
      "stateMutability": "pure",
      "type": "function"
    },
    {
      "inputs": [
        {
          "internalType": "bytes",
          "name": "data",
          "type": "bytes"
        }
      ],
      "name": "getParams",
      "outputs": [
        {
          "internalType": "bytes",
          "name": "",
          "type": "bytes"
        }
      ],
      "stateMutability": "pure",
      "type": "function"
    },
    {
      "inputs": [],
      "name": "owner",
      "outputs": [
        {
          "internalType": "address",
          "name": "",
          "type": "address"
        }
      ],
      "stateMutability": "view",
      "type": "function"
    },
    {
      "inputs": [
        {
          "internalType": "bytes",
          "name": "data",
          "type": "bytes"
        },
        {
          "internalType": "uint256",
          "name": "offset",
          "type": "uint256"
        },
        {
          "internalType": "uint256",
          "name": "length",
          "type": "uint256"
        }
      ],
      "name": "read32",
      "outputs": [
        {
          "internalType": "bytes32",
          "name": "o",
          "type": "bytes32"
        }
      ],
      "stateMutability": "pure",
      "type": "function"
    },
    {
      "inputs": [
        {
          "internalType": "bytes",
          "name": "data",
          "type": "bytes"
        },
        {
          "internalType": "uint256",
          "name": "offset",
          "type": "uint256"
        }
      ],
      "name": "read4left",
      "outputs": [
        {
          "internalType": "bytes4",
          "name": "o",
          "type": "bytes4"
        }
      ],
      "stateMutability": "pure",
      "type": "function"
    },
    {
      "inputs": [
        {
          "internalType": "address",
          "name": "pool",
          "type": "address"
        },
        {
          "internalType": "address",
          "name": "asset",
          "type": "address"
        }
      ],
      "name": "removeAssetCheck",
      "outputs": [],
      "stateMutability": "view",
      "type": "function"
    },
    {
      "inputs": [],
      "name": "renounceOwnership",
      "outputs": [],
      "stateMutability": "nonpayable",
      "type": "function"
    },
    {
      "inputs": [
        {
          "internalType": "address",
          "name": "lpToken",
          "type": "address"
        },
        {
          "internalType": "uint256",
          "name": "poolId",
          "type": "uint256"
        }
      ],
      "name": "setSushiPoolId",
      "outputs": [],
      "stateMutability": "nonpayable",
      "type": "function"
    },
    {
      "inputs": [
        {
          "internalType": "address",
          "name": "",
          "type": "address"
        }
      ],
      "name": "sushiPoolIds",
      "outputs": [
        {
          "internalType": "uint256",
          "name": "",
          "type": "uint256"
        }
      ],
      "stateMutability": "view",
      "type": "function"
    },
    {
      "inputs": [],
      "name": "sushiStaking",
      "outputs": [
        {
          "internalType": "address",
          "name": "",
          "type": "address"
        }
      ],
      "stateMutability": "view",
      "type": "function"
    },
    {
      "inputs": [
        {
          "internalType": "address",
          "name": "newOwner",
          "type": "address"
        }
      ],
      "name": "transferOwnership",
      "outputs": [],
      "stateMutability": "nonpayable",
      "type": "function"
    },
    {
      "inputs": [
        {
          "internalType": "address",
          "name": "_poolManagerLogic",
          "type": "address"
        },
        {
          "internalType": "address",
          "name": "",
          "type": "address"
        },
        {
          "internalType": "bytes",
          "name": "data",
          "type": "bytes"
        }
      ],
      "name": "txGuard",
      "outputs": [
        {
          "internalType": "uint16",
          "name": "txType",
          "type": "uint16"
        },
        {
          "internalType": "bool",
          "name": "",
          "type": "bool"
        }
      ],
      "stateMutability": "nonpayable",
      "type": "function"
    },
    {
      "inputs": [
        {
          "internalType": "address",
          "name": "pool",
          "type": "address"
        },
        {
          "internalType": "address",
          "name": "asset",
          "type": "address"
        },
        {
          "internalType": "uint256",
          "name": "portion",
          "type": "uint256"
        },
        {
          "internalType": "address",
          "name": "to",
          "type": "address"
        }
      ],
      "name": "withdrawProcessing",
      "outputs": [
        {
          "internalType": "address",
          "name": "withdrawAsset",
          "type": "address"
        },
        {
          "internalType": "uint256",
          "name": "withdrawBalance",
          "type": "uint256"
        },
        {
          "components": [
            {
              "internalType": "address",
              "name": "to",
              "type": "address"
            },
            {
              "internalType": "bytes",
              "name": "txData",
              "type": "bytes"
            }
          ],
          "internalType": "struct IAssetGuard.MultiTransaction[]",
          "name": "transactions",
          "type": "tuple[]"
        }
      ],
      "stateMutability": "view",
      "type": "function"
    }
  ],
  "bytecode": "0x60806040523480156200001157600080fd5b5060405162001d8638038062001d86833981016040819052620000349162000215565b60006200004062000211565b600080546001600160a01b0319166001600160a01b0383169081178255604051929350917f8be0079c531659141344cd1fd0a4f28419497f9722a3daafe3b4186f6b6457e0908290a3506001600160a01b038116620000bc5760405162461bcd60e51b8152600401620000b3906200025e565b60405180910390fd5b600180546001600160a01b0319166001600160a01b0383811691909117918290551660005b816001600160a01b031663081e3eda6040518163ffffffff1660e01b815260040160206040518083038186803b1580156200011b57600080fd5b505afa15801562000130573d6000803e3d6000fd5b505050506040513d601f19601f8201168201806040525081019062000156919062000245565b81101562000208578060026000846001600160a01b03166378ed5d1f856040518263ffffffff1660e01b81526004016200019191906200029f565b60206040518083038186803b158015620001aa57600080fd5b505afa158015620001bf573d6000803e3d6000fd5b505050506040513d601f19601f82011682018060405250810190620001e5919062000215565b6001600160a01b03168152602081019190915260400160002055600101620000e1565b505050620002a8565b3390565b60006020828403121562000227578081fd5b81516001600160a01b03811681146200023e578182fd5b9392505050565b60006020828403121562000257578081fd5b5051919050565b60208082526021908201527f5f73757368695374616b696e6720616464726573732063616e6e6f74206265206040820152600360fc1b606082015260800190565b90815260200190565b611ace80620002b86000396000f3fe608060405234801561001057600080fd5b50600436106101075760003560e01c806309ff5c7d1461010c5780631053f952146101355780631eba307714610155578063293d80631461017557806337661b701461019557806341dc16c3146101aa5780636179309d146101bd57806368901513146101de5780636d5fae54146101f15780636f8ae20214610204578063715018a61461022657806382f86acc1461022e5780638da5cb5b1461024157806393d03f7714610249578063971bfd5a14610251578063998546e314610264578063c3c6279f14610277578063cf54aaa01461028a578063d4fac45d1461029d578063db896b57146102b0578063f2fde38b146102c3575b600080fd5b61011f61011a36600461167b565b6102d6565b60405161012c91906118ef565b60405180910390f35b6101486101433660046116bf565b610369565b60405161012c919061190d565b6101686101633660046115a4565b610401565b60405161012c9190611819565b6101886101833660046115ee565b610404565b60405161012c91906118f8565b6101a86101a3366004611579565b610466565b005b61011f6101b8366004611716565b61053e565b6101d06101cb36600461149b565b61061c565b60405161012c9291906119be565b6101486101ec3660046115bc565b610978565b6101a86101ff366004611463565b610993565b610217610212366004611527565b6109c4565b60405161012c93929190611861565b6101a8610cda565b61011f61023c36600461167b565b610d86565b610168610da4565b610168610db3565b61011f61025f36600461142b565b610dc2565b61011f61027236600461167b565b610dd4565b6101886102853660046115bc565b610e05565b61011f61029836600461142b565b610e12565b61011f6102ab366004611463565b610e8e565b61011f6102be366004611630565b610fb4565b6101a86102d136600461142b565b611033565b6000806102ee848460200260040160ff166020610fb4565b9050600061030185600484016020610fb4565b90508061034a576040805162461bcd60e51b8152602060048201526012602482015271696e707574206973206e6f7420617272617960701b604482015290519081900360640190fd5b61035e856020808402850160040190610fb4565b925050505b92915050565b6060601482106103b1576040805162461bcd60e51b815260206004820152600e60248201526d1a5b9d985b1a59081bd9999cd95d60921b604482015290519081900360640190fd5b81602002915060006103d085848660200260040160ff16016020610fb4565b905060006103e5868584016004016020610fb4565b90506103f78660248487010183611135565b9695505050505050565b90565b6000816004018351101561045d576040805162461bcd60e51b815260206004820152601b60248201527a52656164696e67206279746573206f7574206f6620626f756e647360281b604482015290519081900360640190fd5b50016020015190565b61046e611286565b6001600160a01b031661047f610da4565b6001600160a01b0316146104c8576040805162461bcd60e51b81526020600482018190526024820152600080516020611a79833981519152604482015290519081900360640190fd5b6001600160a01b0382166104f75760405162461bcd60e51b81526004016104ee90611957565b60405180910390fd5b6001600160a01b038216600081815260026020526040808220849055518392917f7ed7355a3b90a9314ae26a7f01a8a5bb16a54697a9deccce02112ffb8015a7b291a35050565b600080610556858560200260040160ff166020610fb4565b9050600061056986600484016020610fb4565b9050806105b2576040805162461bcd60e51b8152602060048201526012602482015271696e707574206973206e6f7420617272617960701b604482015290519081900360640190fd5b60ff84168111610602576040805162461bcd60e51b815260206004820152601660248201527534b73b30b634b21030b93930bc903837b9b4ba34b7b760511b604482015290519081900360640190fd5b6103f7866020600160ff8816018102850160040190610fb4565b600080600061066085858080601f016020809104026020016040519081016040528093929190818152602001838380828437600092019190915250610e0592505050565b90506001600160e01b0319811663095ea7b360e01b141561096a5760006106bf61016387878080601f01602080910402602001604051908101604052809392919081815260200183838082843760009201829052509250610d86915050565b9050600061070587878080601f01602080910402602001604051908101604052809392919081815260200183838082843760009201919091525060019250610d86915050565b60001c905060008990506000816001600160a01b031663c45a01556040518163ffffffff1660e01b815260040160206040518083038186803b15801561074a57600080fd5b505afa15801561075e573d6000803e3d6000fd5b505050506040513d601f19601f820116820180604052508101906107829190611447565b90506000816001600160a01b0316634f8419b9866040518263ffffffff1660e01b81526004016107b29190611819565b60206040518083038186803b1580156107ca57600080fd5b505afa1580156107de573d6000803e3d6000fd5b505050506040513d601f19601f820116820180604052508101906108029190611447565b90506001600160a01b0381161580159061082557506001600160a01b0381163014155b6108415760405162461bcd60e51b81526004016104ee90611988565b7f5343b378d69227c1bc2016fd44e8104f0ffa7729f4f4f4110e349a2db0a0d0c8836001600160a01b03166339b81fd96040518163ffffffff1660e01b815260040160206040518083038186803b15801561089b57600080fd5b505afa1580156108af573d6000803e3d6000fd5b505050506040513d601f19601f820116820180604052508101906108d39190611447565b8d6001600160a01b031663481c6a756040518163ffffffff1660e01b815260040160206040518083038186803b15801561090c57600080fd5b505afa158015610920573d6000803e3d6000fd5b505050506040513d601f19601f820116820180604052508101906109449190611447565b87874260405161095895949392919061182d565b60405180910390a16001975050505050505b506000905094509492505050565b6060610363600480845103846111359092919063ffffffff16565b600061099f8383610e8e565b905080156109bf5760405162461bcd60e51b81526004016104ee90611920565b505050565b6040516370a0823160e01b8152839060009060609082906001600160a01b038516906370a08231906109fa908b90600401611819565b60206040518083038186803b158015610a1257600080fd5b505afa158015610a26573d6000803e3d6000fd5b505050506040513d601f19601f82011682018060405250810190610a4a9190611777565b9050610a68670de0b6b3a7640000610a62838961128a565b906112e3565b6001600160a01b038089166000908152600260205260408082205460015491516393f1a40b60e01b815294975093919216906393f1a40b90610ab09085908e906004016119d4565b604080518083038186803b158015610ac757600080fd5b505afa158015610adb573d6000803e3d6000fd5b505050506040513d601f19601f82011682018060405250810190610aff919061178f565b5090508015610ccd576000610b20670de0b6b3a7640000610a62848c61128a565b90508015610ccb576040805160028082526060820190925290816020015b610b4661139f565b815260200190600190039081610b3e57505060015481519196506001600160a01b0316908690600090610b7557fe5b60209081029190910101516001600160a01b0390911690526040517f18fccc766003b47f890d0dc7a3dcc4d1e64bc9460a1c9760937cda8f8d8a511390610bc29085908e906024016119d4565b604051602081830303815290604052906001600160e01b0319166020820180516001600160e01b03838183161783525050505085600081518110610c0257fe5b60209081029190910181015101526001805486516001600160a01b039091169187918110610c2c57fe5b60209081029190910101516001600160a01b0390911690526040517f0ad58d2f7f3cc5c4a3e52e8160051386bcd0b347ffc80e7357bb60189fdfc7a490610c7b90859084908c906024016119eb565b604051602081830303815290604052906001600160e01b0319166020820180516001600160e01b03838183161783525050505085600181518110610cbb57fe5b6020026020010151602001819052505b505b5050509450945094915050565b610ce2611286565b6001600160a01b0316610cf3610da4565b6001600160a01b031614610d3c576040805162461bcd60e51b81526020600482018190526024820152600080516020611a79833981519152604482015290519081900360640190fd5b600080546040516001600160a01b03909116907f8be0079c531659141344cd1fd0a4f28419497f9722a3daafe3b4186f6b6457e0908390a3600080546001600160a01b0319169055565b6000610d9d838360200260040160ff166020610fb4565b9392505050565b6000546001600160a01b031690565b6001546001600160a01b031681565b60026020526000908152604090205481565b600080610dec848460200260040160ff166020610fb4565b9050610dfd84600483016020610fb4565b949350505050565b6000610363826000610404565b6000816001600160a01b031663313ce5676040518163ffffffff1660e01b815260040160206040518083038186803b158015610e4d57600080fd5b505afa158015610e61573d6000803e3d6000fd5b505050506040513d601f19601f82011682018060405250810190610e8591906117b2565b60ff1692915050565b6001600160a01b038082166000908152600260205260408082205460015491516393f1a40b60e01b8152929390928492909116906393f1a40b90610ed890859089906004016119d4565b604080518083038186803b158015610eef57600080fd5b505afa158015610f03573d6000803e3d6000fd5b505050506040513d601f19601f82011682018060405250810190610f27919061178f565b5090506000846001600160a01b03166370a08231876040518263ffffffff1660e01b8152600401610f589190611819565b60206040518083038186803b158015610f7057600080fd5b505afa158015610f84573d6000803e3d6000fd5b505050506040513d601f19601f82011682018060405250810190610fa89190611777565b90506103f78282611347565b60008183018451101561100c576040805162461bcd60e51b815260206004820152601b60248201527a52656164696e67206279746573206f7574206f6620626f756e647360281b604482015290519081900360640190fd5b82602001840151905081602003801561102b576008810260020a820491505b509392505050565b61103b611286565b6001600160a01b031661104c610da4565b6001600160a01b031614611095576040805162461bcd60e51b81526020600482018190526024820152600080516020611a79833981519152604482015290519081900360640190fd5b6001600160a01b0381166110da5760405162461bcd60e51b8152600401808060200182810382526026815260200180611a326026913960400191505060405180910390fd5b600080546040516001600160a01b03808516939216917f8be0079c531659141344cd1fd0a4f28419497f9722a3daafe3b4186f6b6457e091a3600080546001600160a01b0319166001600160a01b0392909216919091179055565b60608182601f011015611180576040805162461bcd60e51b815260206004820152600e60248201526d736c6963655f6f766572666c6f7760901b604482015290519081900360640190fd5b8282840110156111c8576040805162461bcd60e51b815260206004820152600e60248201526d736c6963655f6f766572666c6f7760901b604482015290519081900360640190fd5b81830184511015611214576040805162461bcd60e51b8152602060048201526011602482015270736c6963655f6f75744f66426f756e647360781b604482015290519081900360640190fd5b606082158015611233576040519150600082526020820160405261127d565b6040519150601f8416801560200281840101858101878315602002848b0101015b8183101561126c578051835260209283019201611254565b5050858452601f01601f1916604052505b50949350505050565b3390565b60008261129957506000610363565b828202828482816112a657fe5b0414610d9d5760405162461bcd60e51b8152600401808060200182810382526021815260200180611a586021913960400191505060405180910390fd5b6000808211611336576040805162461bcd60e51b815260206004820152601a602482015279536166654d6174683a206469766973696f6e206279207a65726f60301b604482015290519081900360640190fd5b81838161133f57fe5b049392505050565b600082820183811015610d9d576040805162461bcd60e51b815260206004820152601b60248201527a536166654d6174683a206164646974696f6e206f766572666c6f7760281b604482015290519081900360640190fd5b60408051808201909152600081526060602082015290565b600082601f8301126113c7578081fd5b81356001600160401b03808211156113db57fe5b604051601f8301601f1916810160200182811182821017156113f957fe5b604052828152848301602001861015611410578384fd5b82602086016020830137918201602001929092529392505050565b60006020828403121561143c578081fd5b8135610d9d81611a0a565b600060208284031215611458578081fd5b8151610d9d81611a0a565b60008060408385031215611475578081fd5b823561148081611a0a565b9150602083013561149081611a0a565b809150509250929050565b600080600080606085870312156114b0578182fd5b84356114bb81611a0a565b935060208501356114cb81611a0a565b925060408501356001600160401b03808211156114e6578384fd5b818701915087601f8301126114f9578384fd5b813581811115611507578485fd5b886020828501011115611518578485fd5b95989497505060200194505050565b6000806000806080858703121561153c578384fd5b843561154781611a0a565b9350602085013561155781611a0a565b925060408501359150606085013561156e81611a0a565b939692955090935050565b6000806040838503121561158b578182fd5b823561159681611a0a565b946020939093013593505050565b6000602082840312156115b5578081fd5b5035919050565b6000602082840312156115cd578081fd5b81356001600160401b038111156115e2578182fd5b610dfd848285016113b7565b60008060408385031215611600578182fd5b82356001600160401b03811115611615578283fd5b611621858286016113b7565b95602094909401359450505050565b600080600060608486031215611644578283fd5b83356001600160401b03811115611659578384fd5b611665868287016113b7565b9660208601359650604090950135949350505050565b6000806040838503121561168d578182fd5b82356001600160401b038111156116a2578283fd5b6116ae858286016113b7565b925050602083013561149081611a22565b6000806000606084860312156116d3578283fd5b83356001600160401b038111156116e8578384fd5b6116f4868287016113b7565b935050602084013561170581611a22565b929592945050506040919091013590565b60008060006060848603121561172a578081fd5b83356001600160401b0381111561173f578182fd5b61174b868287016113b7565b935050602084013561175c81611a22565b9150604084013561176c81611a22565b809150509250925092565b600060208284031215611788578081fd5b5051919050565b600080604083850312156117a1578182fd5b505080516020909101519092909150565b6000602082840312156117c3578081fd5b8151610d9d81611a22565b60008151808452815b818110156117f3576020818501810151868301820152016117d7565b818111156118045782602083870101525b50601f01601f19169290920160200192915050565b6001600160a01b0391909116815260200190565b6001600160a01b03958616815293851660208501529190931660408301526060820192909252608081019190915260a00190565b60006060820160018060a01b03808716845260208681860152604060608187015283875180865260808801915060808482028901019550838901875b828110156118de57898803607f1901845281518051881689528601518689018690526118cb868a01826117ce565b985050928501929085019060010161189d565b50959b9a5050505050505050505050565b90815260200190565b6001600160e01b031991909116815260200190565b600060208252610d9d60208301846117ce565b6020808252601d908201527f63616e6e6f742072656d6f7665206e6f6e2d656d707479206173736574000000604082015260600190565b602080825260179082015276496e76616c6964206c70546f6b656e206164647265737360481b604082015260600190565b6020808252601c908201527b1d5b9cdd5c1c1bdc9d1959081cdc195b99195c88185c1c1c9bdd985b60221b604082015260600190565b61ffff9290921682521515602082015260400190565b9182526001600160a01b0316602082015260400190565b92835260208301919091526001600160a01b0316604082015260600190565b6001600160a01b0381168114611a1f57600080fd5b50565b60ff81168114611a1f57600080fdfe4f776e61626c653a206e6577206f776e657220697320746865207a65726f2061646472657373536166654d6174683a206d756c7469706c69636174696f6e206f766572666c6f774f776e61626c653a2063616c6c6572206973206e6f7420746865206f776e6572a26469706673582212208d7d83f8f8826b22bc44d3ecabeff6dbe6b7f51523f093214f5ab4169f40bc2d64736f6c63430007060033",
  "linkReferences": {},
  "deployedLinkReferences": {}
}