{
  "_format": "hh-sol-artifact-1",
  "contractName": "USDPriceAggregator",
  "sourceName": "contracts/priceAggregators/USDPriceAggregator.sol",
  "abi": [
    {
      "inputs": [],
      "name": "decimals",
      "outputs": [
        {
          "internalType": "uint8",
          "name": "",
          "type": "uint8"
        }
      ],
      "stateMutability": "pure",
      "type": "function"
    },
    {
      "inputs": [],
      "name": "latestRoundData",
      "outputs": [
        {
          "internalType": "uint80",
          "name": "roundId",
          "type": "uint80"
        },
        {
          "internalType": "int256",
          "name": "answer",
          "type": "int256"
        },
        {
          "internalType": "uint256",
          "name": "startedAt",
          "type": "uint256"
        },
        {
          "internalType": "uint256",
          "name": "updatedAt",
          "type": "uint256"
        },
        {
          "internalType": "uint80",
          "name": "answeredInRound",
          "type": "uint80"
        }
      ],
      "stateMutability": "view",
      "type": "function"
    }
  ],
  "bytecode": "0x608060405234801561001057600080fd5b5060e98061001f6000396000f3fe6080604052348015600f57600080fd5b506004361060325760003560e01c8063313ce567146037578063feaf968c146053575b600080fd5b603d609d565b6040805160ff9092168252519081900360200190f35b605960a2565b60405180866001600160501b03168152602001858152602001848152602001838152602001826001600160501b031681526020019550505050505060405180910390f35b600890565b60006305f5e100814281909192939456fea26469706673582212205096ef0b3aa0a5387779c889c5c5ec01f3e5ef41948d48f214381f3676ee42a264736f6c63430007060033",
  "linkReferences": {},
  "deployedLinkReferences": {}
}