{
  "_format": "hh-sol-artifact-1",
  "contractName": "FlashSwapperTest",
  "sourceName": "contracts/test/FlashSwapperTest.sol",
  "abi": [
    {
      "inputs": [
        {
          "internalType": "contract DhedgeEasySwapper",
          "name": "swapper",
          "type": "address"
        },
        {
          "internalType": "address",
          "name": "pool",
          "type": "address"
        },
        {
          "internalType": "contract IERC20Extended",
          "name": "depositToken",
          "type": "address"
        },
        {
          "internalType": "uint256",
          "name": "amount",
          "type": "uint256"
        }
      ],
      "name": "flashSwap",
      "outputs": [],
      "stateMutability": "nonpayable",
      "type": "function"
    },
    {
      "inputs": [
        {
          "internalType": "contract DhedgeEasySwapper",
          "name": "swapper",
          "type": "address"
        },
        {
          "internalType": "address",
          "name": "pool",
          "type": "address"
        },
        {
          "internalType": "contract IERC20Extended",
          "name": "depositToken",
          "type": "address"
        },
        {
          "internalType": "uint256",
          "name": "amount",
          "type": "uint256"
        }
      ],
      "name": "flashSwapDirectWithdraw",
      "outputs": [],
      "stateMutability": "nonpayable",
      "type": "function"
    }
  ],
  "bytecode": "0x608060405234801561001057600080fd5b50610563806100206000396000f3fe608060405234801561001057600080fd5b50600436106100365760003560e01c8063d1ba76811461003b578063fb00a14314610079575b600080fd5b6100776004803603608081101561005157600080fd5b506001600160a01b038135811691602081013582169160408201351690606001356100b5565b005b6100776004803603608081101561008f57600080fd5b506001600160a01b038135811691602081013582169160408201351690606001356102b5565b604080516323b872dd60e01b81523360048201523060248201526044810183905290516001600160a01b038416916323b872dd9160648083019260209291908290030181600087803b15801561010a57600080fd5b505af115801561011e573d6000803e3d6000fd5b505050506040513d602081101561013457600080fd5b50506040805163095ea7b360e01b81526001600160a01b0386811660048301526024820184905291519184169163095ea7b3916044808201926020929091908290030181600087803b15801561018957600080fd5b505af115801561019d573d6000803e3d6000fd5b505050506040513d60208110156101b357600080fd5b50506040805163ea3909bb60e01b81526001600160a01b0385811660048301528481166024830181905260448301859052606483015260016084830152915160009287169163ea3909bb9160a480830192602092919082900301818787803b15801561021e57600080fd5b505af1158015610232573d6000803e3d6000fd5b505050506040513d602081101561024857600080fd5b505160408051632e1a7d4d60e01b81526004810183905290519192506001600160a01b03861691632e1a7d4d9160248082019260009290919082900301818387803b15801561029657600080fd5b505af11580156102aa573d6000803e3d6000fd5b505050505050505050565b604080516323b872dd60e01b81523360048201523060248201526044810183905290516001600160a01b038416916323b872dd9160648083019260209291908290030181600087803b15801561030a57600080fd5b505af115801561031e573d6000803e3d6000fd5b505050506040513d602081101561033457600080fd5b50506040805163095ea7b360e01b81526001600160a01b0386811660048301526024820184905291519184169163095ea7b3916044808201926020929091908290030181600087803b15801561038957600080fd5b505af115801561039d573d6000803e3d6000fd5b505050506040513d60208110156103b357600080fd5b50506040805163ea3909bb60e01b81526001600160a01b0385811660048301528481166024830181905260448301859052606483015260016084830152915160009287169163ea3909bb9160a480830192602092919082900301818787803b15801561041e57600080fd5b505af1158015610432573d6000803e3d6000fd5b505050506040513d602081101561044857600080fd5b50516040805163095ea7b360e01b81526001600160a01b0388811660048301526024820184905291519293509086169163095ea7b3916044808201926020929091908290030181600087803b1580156104a057600080fd5b505af11580156104b4573d6000803e3d6000fd5b505050506040513d60208110156104ca57600080fd5b505060408051634b2084e360e01b81526001600160a01b03868116600483015260248201849052858116604483015260016064830152915191871691634b2084e39160848082019260009290919082900301818387803b15801561029657600080fdfea2646970667358221220ad5c13c8cd5332f8e9197acb01af56b7fdea418ca60ae96f7eefbbe31798573b64736f6c63430007060033",
  "linkReferences": {},
  "deployedLinkReferences": {}
}