{
  "_format": "hh-sol-artifact-1",
  "contractName": "PoolFactoryV24",
  "sourceName": "contracts/v2.4.1/PoolFactoryV24.sol",
  "abi": [
    {
      "anonymous": false,
      "inputs": [
        {
          "indexed": false,
          "internalType": "address",
          "name": "daoAddress",
          "type": "address"
        }
      ],
      "name": "DAOAddressSet",
      "type": "event"
    },
    {
      "anonymous": false,
      "inputs": [
        {
          "indexed": false,
          "internalType": "uint256",
          "name": "numerator",
          "type": "uint256"
        },
        {
          "indexed": false,
          "internalType": "uint256",
          "name": "denominator",
          "type": "uint256"
        }
      ],
      "name": "DaoFeeSet",
      "type": "event"
    },
    {
      "anonymous": false,
      "inputs": [
        {
          "indexed": false,
          "internalType": "uint256",
          "name": "cooldown",
          "type": "uint256"
        }
      ],
      "name": "ExitCooldownSet",
      "type": "event"
    },
    {
      "anonymous": false,
      "inputs": [
        {
          "indexed": false,
          "internalType": "uint256",
          "name": "numerator",
          "type": "uint256"
        },
        {
          "indexed": false,
          "internalType": "uint256",
          "name": "denominator",
          "type": "uint256"
        }
      ],
      "name": "ExitFeeSet",
      "type": "event"
    },
    {
      "anonymous": false,
      "inputs": [
        {
          "indexed": false,
          "internalType": "address",
          "name": "fundAddress",
          "type": "address"
        },
        {
          "indexed": false,
          "internalType": "bool",
          "name": "isPoolPrivate",
          "type": "bool"
        },
        {
          "indexed": false,
          "internalType": "string",
          "name": "fundName",
          "type": "string"
        },
        {
          "indexed": false,
          "internalType": "string",
          "name": "managerName",
          "type": "string"
        },
        {
          "indexed": false,
          "internalType": "address",
          "name": "manager",
          "type": "address"
        },
        {
          "indexed": false,
          "internalType": "uint256",
          "name": "time",
          "type": "uint256"
        },
        {
          "indexed": false,
          "internalType": "uint256",
          "name": "performanceFeeNumerator",
          "type": "uint256"
        },
        {
          "indexed": false,
          "internalType": "uint256",
          "name": "managerFeeDenominator",
          "type": "uint256"
        }
      ],
      "name": "FundCreated",
      "type": "event"
    },
    {
      "anonymous": false,
      "inputs": [
        {
          "indexed": false,
          "internalType": "address",
          "name": "governanceAddress",
          "type": "address"
        }
      ],
      "name": "GovernanceAddressSet",
      "type": "event"
    },
    {
      "anonymous": false,
      "inputs": [
        {
          "indexed": true,
          "internalType": "address",
          "name": "manager",
          "type": "address"
        },
        {
          "indexed": true,
          "internalType": "address",
          "name": "pool",
          "type": "address"
        }
      ],
      "name": "LogUpgrade",
      "type": "event"
    },
    {
      "anonymous": false,
      "inputs": [
        {
          "indexed": false,
          "internalType": "uint256",
          "name": "count",
          "type": "uint256"
        }
      ],
      "name": "MaximumSupportedAssetCountSet",
      "type": "event"
    },
    {
      "anonymous": false,
      "inputs": [
        {
          "indexed": true,
          "internalType": "address",
          "name": "previousOwner",
          "type": "address"
        },
        {
          "indexed": true,
          "internalType": "address",
          "name": "newOwner",
          "type": "address"
        }
      ],
      "name": "OwnershipTransferred",
      "type": "event"
    },
    {
      "anonymous": false,
      "inputs": [
        {
          "indexed": false,
          "internalType": "address",
          "name": "account",
          "type": "address"
        }
      ],
      "name": "Paused",
      "type": "event"
    },
    {
      "anonymous": false,
      "inputs": [
        {
          "indexed": false,
          "internalType": "address",
          "name": "proxy",
          "type": "address"
        }
      ],
      "name": "ProxyCreated",
      "type": "event"
    },
    {
      "anonymous": false,
      "inputs": [
        {
          "indexed": false,
          "internalType": "address",
          "name": "assetHandler",
          "type": "address"
        }
      ],
      "name": "SetAssetHandler",
      "type": "event"
    },
    {
      "anonymous": false,
      "inputs": [
        {
          "indexed": false,
          "internalType": "uint256",
          "name": "numerator",
          "type": "uint256"
        },
        {
          "indexed": false,
          "internalType": "uint256",
          "name": "denominator",
          "type": "uint256"
        }
      ],
      "name": "SetMaximumManagerFee",
      "type": "event"
    },
    {
      "anonymous": false,
      "inputs": [
        {
          "indexed": false,
          "internalType": "uint256",
          "name": "amount",
          "type": "uint256"
        }
      ],
      "name": "SetMaximumPerformanceFeeNumeratorChange",
      "type": "event"
    },
    {
      "anonymous": false,
      "inputs": [
        {
          "indexed": false,
          "internalType": "uint256",
          "name": "delay",
          "type": "uint256"
        }
      ],
      "name": "SetPerformanceFeeNumeratorChangeDelay",
      "type": "event"
    },
    {
      "anonymous": false,
      "inputs": [
        {
          "indexed": false,
          "internalType": "uint256",
          "name": "numerator",
          "type": "uint256"
        },
        {
          "indexed": false,
          "internalType": "uint256",
          "name": "denominator",
          "type": "uint256"
        }
      ],
      "name": "SetPoolManagerFee",
      "type": "event"
    },
    {
      "anonymous": false,
      "inputs": [
        {
          "indexed": false,
          "internalType": "uint256",
          "name": "poolStorageVersion",
          "type": "uint256"
        }
      ],
      "name": "SetPoolStorageVersion",
      "type": "event"
    },
    {
      "anonymous": false,
      "inputs": [
        {
          "indexed": false,
          "internalType": "address",
          "name": "account",
          "type": "address"
        }
      ],
      "name": "Unpaused",
      "type": "event"
    },
    {
      "inputs": [
        {
          "internalType": "bool",
          "name": "_privatePool",
          "type": "bool"
        },
        {
          "internalType": "address",
          "name": "_manager",
          "type": "address"
        },
        {
          "internalType": "string",
          "name": "_managerName",
          "type": "string"
        },
        {
          "internalType": "string",
          "name": "_fundName",
          "type": "string"
        },
        {
          "internalType": "string",
          "name": "_fundSymbol",
          "type": "string"
        },
        {
          "internalType": "uint256",
          "name": "_performanceFeeNumerator",
          "type": "uint256"
        },
        {
          "components": [
            {
              "internalType": "address",
              "name": "asset",
              "type": "address"
            },
            {
              "internalType": "bool",
              "name": "isDeposit",
              "type": "bool"
            }
          ],
          "internalType": "struct IHasSupportedAssetV24.Asset[]",
          "name": "_supportedAssets",
          "type": "tuple[]"
        }
      ],
      "name": "createFund",
      "outputs": [
        {
          "internalType": "address",
          "name": "fund",
          "type": "address"
        }
      ],
      "stateMutability": "nonpayable",
      "type": "function"
    },
    {
      "inputs": [],
      "name": "daoAddress",
      "outputs": [
        {
          "internalType": "address",
          "name": "",
          "type": "address"
        }
      ],
      "stateMutability": "view",
      "type": "function"
    },
    {
      "inputs": [
        {
          "internalType": "bytes",
          "name": "_data",
          "type": "bytes"
        },
        {
          "internalType": "uint8",
          "name": "_proxyType",
          "type": "uint8"
        }
      ],
      "name": "deploy",
      "outputs": [
        {
          "internalType": "address",
          "name": "",
          "type": "address"
        }
      ],
      "stateMutability": "nonpayable",
      "type": "function"
    },
    {
      "inputs": [
        {
          "internalType": "uint256",
          "name": "",
          "type": "uint256"
        }
      ],
      "name": "deployedFunds",
      "outputs": [
        {
          "internalType": "address",
          "name": "",
          "type": "address"
        }
      ],
      "stateMutability": "view",
      "type": "function"
    },
    {
      "inputs": [
        {
          "internalType": "bytes32",
          "name": "name",
          "type": "bytes32"
        }
      ],
      "name": "getAddress",
      "outputs": [
        {
          "internalType": "address",
          "name": "destination",
          "type": "address"
        }
      ],
      "stateMutability": "view",
      "type": "function"
    },
    {
      "inputs": [
        {
          "internalType": "address",
          "name": "extAsset",
          "type": "address"
        }
      ],
      "name": "getAssetGuard",
      "outputs": [
        {
          "internalType": "address",
          "name": "guard",
          "type": "address"
        }
      ],
      "stateMutability": "view",
      "type": "function"
    },
    {
      "inputs": [],
      "name": "getAssetHandler",
      "outputs": [
        {
          "internalType": "address",
          "name": "",
          "type": "address"
        }
      ],
      "stateMutability": "view",
      "type": "function"
    },
    {
      "inputs": [
        {
          "internalType": "address",
          "name": "asset",
          "type": "address"
        }
      ],
      "name": "getAssetPrice",
      "outputs": [
        {
          "internalType": "uint256",
          "name": "price",
          "type": "uint256"
        }
      ],
      "stateMutability": "view",
      "type": "function"
    },
    {
      "inputs": [
        {
          "internalType": "address",
          "name": "asset",
          "type": "address"
        }
      ],
      "name": "getAssetType",
      "outputs": [
        {
          "internalType": "uint16",
          "name": "assetType",
          "type": "uint16"
        }
      ],
      "stateMutability": "view",
      "type": "function"
    },
    {
      "inputs": [],
      "name": "getDaoFee",
      "outputs": [
        {
          "internalType": "uint256",
          "name": "",
          "type": "uint256"
        },
        {
          "internalType": "uint256",
          "name": "",
          "type": "uint256"
        }
      ],
      "stateMutability": "view",
      "type": "function"
    },
    {
      "inputs": [],
      "name": "getDeployedFunds",
      "outputs": [
        {
          "internalType": "address[]",
          "name": "",
          "type": "address[]"
        }
      ],
      "stateMutability": "view",
      "type": "function"
    },
    {
      "inputs": [],
      "name": "getExitCooldown",
      "outputs": [
        {
          "internalType": "uint256",
          "name": "",
          "type": "uint256"
        }
      ],
      "stateMutability": "view",
      "type": "function"
    },
    {
      "inputs": [
        {
          "internalType": "address",
          "name": "extContract",
          "type": "address"
        }
      ],
      "name": "getGuard",
      "outputs": [
        {
          "internalType": "address",
          "name": "guard",
          "type": "address"
        }
      ],
      "stateMutability": "view",
      "type": "function"
    },
    {
      "inputs": [
        {
          "internalType": "address",
          "name": "user",
          "type": "address"
        }
      ],
      "name": "getInvestedPools",
      "outputs": [
        {
          "internalType": "address[]",
          "name": "investedPools",
          "type": "address[]"
        }
      ],
      "stateMutability": "view",
      "type": "function"
    },
    {
      "inputs": [
        {
          "internalType": "uint8",
          "name": "_proxyType",
          "type": "uint8"
        }
      ],
      "name": "getLogic",
      "outputs": [
        {
          "internalType": "address",
          "name": "",
          "type": "address"
        }
      ],
      "stateMutability": "view",
      "type": "function"
    },
    {
      "inputs": [
        {
          "internalType": "address",
          "name": "manager",
          "type": "address"
        }
      ],
      "name": "getManagedPools",
      "outputs": [
        {
          "internalType": "address[]",
          "name": "managedPools",
          "type": "address[]"
        }
      ],
      "stateMutability": "view",
      "type": "function"
    },
    {
      "inputs": [],
      "name": "getMaximumManagerFee",
      "outputs": [
        {
          "internalType": "uint256",
          "name": "",
          "type": "uint256"
        },
        {
          "internalType": "uint256",
          "name": "",
          "type": "uint256"
        }
      ],
      "stateMutability": "view",
      "type": "function"
    },
    {
      "inputs": [],
      "name": "getMaximumSupportedAssetCount",
      "outputs": [
        {
          "internalType": "uint256",
          "name": "",
          "type": "uint256"
        }
      ],
      "stateMutability": "view",
      "type": "function"
    },
    {
      "inputs": [],
      "name": "governanceAddress",
      "outputs": [
        {
          "internalType": "address",
          "name": "",
          "type": "address"
        }
      ],
      "stateMutability": "view",
      "type": "function"
    },
    {
      "inputs": [
        {
          "internalType": "address",
          "name": "_poolLogic",
          "type": "address"
        },
        {
          "internalType": "address",
          "name": "_managerLogic",
          "type": "address"
        },
        {
          "internalType": "address",
          "name": "assetHandler",
          "type": "address"
        },
        {
          "internalType": "address",
          "name": "_daoAddress",
          "type": "address"
        },
        {
          "internalType": "address",
          "name": "_governanceAddress",
          "type": "address"
        }
      ],
      "name": "initialize",
      "outputs": [],
      "stateMutability": "nonpayable",
      "type": "function"
    },
    {
      "inputs": [],
      "name": "isPaused",
      "outputs": [
        {
          "internalType": "bool",
          "name": "",
          "type": "bool"
        }
      ],
      "stateMutability": "view",
      "type": "function"
    },
    {
      "inputs": [
        {
          "internalType": "address",
          "name": "",
          "type": "address"
        }
      ],
      "name": "isPool",
      "outputs": [
        {
          "internalType": "bool",
          "name": "",
          "type": "bool"
        }
      ],
      "stateMutability": "view",
      "type": "function"
    },
    {
      "inputs": [
        {
          "internalType": "address",
          "name": "asset",
          "type": "address"
        }
      ],
      "name": "isValidAsset",
      "outputs": [
        {
          "internalType": "bool",
          "name": "",
          "type": "bool"
        }
      ],
      "stateMutability": "view",
      "type": "function"
    },
    {
      "inputs": [],
      "name": "maximumPerformanceFeeNumeratorChange",
      "outputs": [
        {
          "internalType": "uint256",
          "name": "",
          "type": "uint256"
        }
      ],
      "stateMutability": "view",
      "type": "function"
    },
    {
      "inputs": [],
      "name": "owner",
      "outputs": [
        {
          "internalType": "address",
          "name": "",
          "type": "address"
        }
      ],
      "stateMutability": "view",
      "type": "function"
    },
    {
      "inputs": [],
      "name": "pause",
      "outputs": [],
      "stateMutability": "nonpayable",
      "type": "function"
    },
    {
      "inputs": [],
      "name": "paused",
      "outputs": [
        {
          "internalType": "bool",
          "name": "",
          "type": "bool"
        }
      ],
      "stateMutability": "view",
      "type": "function"
    },
    {
      "inputs": [],
      "name": "performanceFeeNumeratorChangeDelay",
      "outputs": [
        {
          "internalType": "uint256",
          "name": "",
          "type": "uint256"
        }
      ],
      "stateMutability": "view",
      "type": "function"
    },
    {
      "inputs": [],
      "name": "poolStorageVersion",
      "outputs": [
        {
          "internalType": "uint256",
          "name": "",
          "type": "uint256"
        }
      ],
      "stateMutability": "view",
      "type": "function"
    },
    {
      "inputs": [
        {
          "internalType": "address",
          "name": "",
          "type": "address"
        }
      ],
      "name": "poolVersion",
      "outputs": [
        {
          "internalType": "uint256",
          "name": "",
          "type": "uint256"
        }
      ],
      "stateMutability": "view",
      "type": "function"
    },
    {
      "inputs": [],
      "name": "renounceOwnership",
      "outputs": [],
      "stateMutability": "nonpayable",
      "type": "function"
    },
    {
      "inputs": [
        {
          "internalType": "address",
          "name": "assetHandler",
          "type": "address"
        }
      ],
      "name": "setAssetHandler",
      "outputs": [],
      "stateMutability": "nonpayable",
      "type": "function"
    },
    {
      "inputs": [
        {
          "internalType": "address",
          "name": "_daoAddress",
          "type": "address"
        }
      ],
      "name": "setDAOAddress",
      "outputs": [],
      "stateMutability": "nonpayable",
      "type": "function"
    },
    {
      "inputs": [
        {
          "internalType": "uint256",
          "name": "numerator",
          "type": "uint256"
        },
        {
          "internalType": "uint256",
          "name": "denominator",
          "type": "uint256"
        }
      ],
      "name": "setDaoFee",
      "outputs": [],
      "stateMutability": "nonpayable",
      "type": "function"
    },
    {
      "inputs": [
        {
          "internalType": "uint256",
          "name": "cooldown",
          "type": "uint256"
        }
      ],
      "name": "setExitCooldown",
      "outputs": [],
      "stateMutability": "nonpayable",
      "type": "function"
    },
    {
      "inputs": [
        {
          "internalType": "address",
          "name": "_governanceAddress",
          "type": "address"
        }
      ],
      "name": "setGovernanceAddress",
      "outputs": [],
      "stateMutability": "nonpayable",
      "type": "function"
    },
    {
      "inputs": [
        {
          "internalType": "address",
          "name": "_poolLogic",
          "type": "address"
        },
        {
          "internalType": "address",
          "name": "_poolManagerLogic",
          "type": "address"
        }
      ],
      "name": "setLogic",
      "outputs": [],
      "stateMutability": "nonpayable",
      "type": "function"
    },
    {
      "inputs": [
        {
          "internalType": "uint256",
          "name": "numerator",
          "type": "uint256"
        }
      ],
      "name": "setMaximumManagerFee",
      "outputs": [],
      "stateMutability": "nonpayable",
      "type": "function"
    },
    {
      "inputs": [
        {
          "internalType": "uint256",
          "name": "amount",
          "type": "uint256"
        }
      ],
      "name": "setMaximumPerformanceFeeNumeratorChange",
      "outputs": [],
      "stateMutability": "nonpayable",
      "type": "function"
    },
    {
      "inputs": [
        {
          "internalType": "uint256",
          "name": "count",
          "type": "uint256"
        }
      ],
      "name": "setMaximumSupportedAssetCount",
      "outputs": [],
      "stateMutability": "nonpayable",
      "type": "function"
    },
    {
      "inputs": [
        {
          "internalType": "uint256",
          "name": "delay",
          "type": "uint256"
        }
      ],
      "name": "setPerformanceFeeNumeratorChangeDelay",
      "outputs": [],
      "stateMutability": "nonpayable",
      "type": "function"
    },
    {
      "inputs": [
        {
          "internalType": "uint256",
          "name": "_poolStorageVersion",
          "type": "uint256"
        }
      ],
      "name": "setPoolStorageVersion",
      "outputs": [],
      "stateMutability": "nonpayable",
      "type": "function"
    },
    {
      "inputs": [
        {
          "internalType": "address",
          "name": "newOwner",
          "type": "address"
        }
      ],
      "name": "transferOwnership",
      "outputs": [],
      "stateMutability": "nonpayable",
      "type": "function"
    },
    {
      "inputs": [],
      "name": "unpause",
      "outputs": [],
      "stateMutability": "nonpayable",
      "type": "function"
    },
    {
      "inputs": [
        {
          "internalType": "uint256",
          "name": "startIndex",
          "type": "uint256"
        },
        {
          "internalType": "uint256",
          "name": "endIndex",
          "type": "uint256"
        },
        {
          "internalType": "uint256",
          "name": "sourceVersion",
          "type": "uint256"
        },
        {
          "internalType": "uint256",
          "name": "targetVersion",
          "type": "uint256"
        },
        {
          "internalType": "bytes",
          "name": "data",
          "type": "bytes"
        }
      ],
      "name": "upgradePoolBatch",
      "outputs": [],
      "stateMutability": "nonpayable",
      "type": "function"
    }
  ],
  "bytecode": "0x608060405234801561001057600080fd5b506132bf806100206000396000f3fe608060405234801561001057600080fd5b506004361061021f5760003560e01c8063808ae5fb1161012c578063808ae5fb146103af5780638456cb59146103c25780638da5cb5b146103ca57806394d0d23b146103d2578063965afa89146103e85780639a068bd6146103fb5780639cada6e41461040e578063aa12ae4d14610416578063aa7d664e1461041e578063b187bd2614610431578063b3596f0714610439578063c4898ef91461044c578063cb6f3bbc1461045f578063cc435bf314610467578063cfc162541461047a578063d77268e61461048d578063e5ac13a914610495578063eb849a04146104a8578063ecef89d5146104bb578063eec16c44146104ce578063eed0ff46146104e1578063f2fde38b146104f4578063fcc08cbc146105075761021f565b8063032c49ed1461022457806309ed48931461024d5780630f6559c4146102625780631459457a146102775780631e666d131461028c5780632131c68c1461029f57806321f8a721146102a75780633f4ba83a146102ba5780634501b088146102c257806345812ca5146102ca5780634da0be1d146102dd57806354d8a5bd146102fd5780635556ee55146103055780635b16ebb7146103185780635c975abb146103385780635fbf37a3146103405780637027ea6c14610353578063715018a614610366578063771d1baf1461036e57806378a86e3a14610381578063795053d3146103945780637b7d612b1461039c575b600080fd5b610237610232366004612691565b61051a565b6040516102449190612df5565b60405180910390f35b6102556105a1565b6040516102449190612a27565b61026a6105b0565b6040516102449190612bd2565b61028a610285366004612701565b6105b6565b005b61028a61029a366004612930565b6106db565b6102556107de565b6102556102b536600461285f565b6107ed565b61028a61089b565b61026a610907565b6102556102d8366004612877565b61090d565b6102f06102eb366004612691565b610920565b6040516102449190612b7a565b6102f0610a8c565b61026a610313366004612691565b610aee565b61032b610326366004612691565b610b00565b6040516102449190612bc7565b61032b610b15565b61028a61034e36600461285f565b610b1e565b610255610361366004612691565b610bc0565b61028a610c5a565b61028a61037c36600461290f565b610cf4565b61025561038f36600461278d565b610d64565b610255611002565b61028a6103aa36600461285f565b611011565b61028a6103bd3660046126c9565b6110a8565b61028a6111dd565b610255611247565b6103da611256565b604051610244929190612e04565b61028a6103f6366004612691565b611260565b61025561040936600461285f565b6112ce565b6103da6112f8565b61026a611302565b61028a61042c36600461285f565b611308565b61032b611373565b61026a610447366004612691565b611382565b61028a61045a36600461285f565b611403565b61026a611471565b61032b610475366004612691565b611477565b61028a610488366004612691565b61150d565b61026a611578565b61028a6104a3366004612691565b61157e565b6102f06104b6366004612691565b6115e9565b6102556104c93660046129c2565b6117b9565b61028a6104dc36600461285f565b6117eb565b61028a6104ef36600461285f565b611856565b61028a610502366004612691565b6118c1565b610255610515366004612691565b6119b2565b60ce5460405163b02e786f60e01b81526000916001600160a01b03169063b02e786f9061054b908590600401612a27565b60206040518083038186803b15801561056357600080fd5b505afa158015610577573d6000803e3d6000fd5b505050506040513d601f19601f8201168201806040525081019061059b91906128d5565b92915050565b60ce546001600160a01b031690565b60d75481565b600054610100900460ff16806105cf57506105cf611ac3565b806105dd575060005460ff16155b6106185760405162461bcd60e51b815260040180806020018281038252602e81526020018061321c602e913960400191505060405180910390fd5b600054610100900460ff16158015610643576000805460ff1961ff0019909116610100171660011790555b61064d8686611ad4565b610655611adc565b61065e84611b8d565b61066783611bfe565b61067082611c6f565b61067e611388612710611ce0565b61068a600a6064611d48565b61069662015180611da4565b6106a26224ea00611011565b6106ad6103e8610b1e565b6106b7600a611dd9565b6106c160e6611e0e565b80156106d3576000805461ff00191690555b505050505050565b6106e3611e64565b6001600160a01b03166106f4611247565b6001600160a01b03161461073d576040805162461bcd60e51b8152602060048201819052602482015260008051602061324a833981519152604482015290519081900360640190fd5b84861115801561074e575060cb5485105b6107735760405162461bcd60e51b815260040161076a90612bdb565b60405180910390fd5b855b8581116107d557600060cb828154811061078b57fe5b60009182526020808320909101546001600160a01b031680835260d690915260409091205490915086146107bf57506107cd565b6107cb81858588611e68565b505b600101610775565b50505050505050565b60cc546001600160a01b031681565b60cd5460405163c2a9ffb160e01b81526000916001600160a01b03169063c2a9ffb19061081e908590600401612bd2565b60206040518083038186803b15801561083657600080fd5b505afa15801561084a573d6000803e3d6000fd5b505050506040513d601f19601f8201168201806040525081019061086e91906126ad565b90506001600160a01b0381166108965760405162461bcd60e51b815260040161076a90612d97565b919050565b6108a3611e64565b6001600160a01b03166108b4611247565b6001600160a01b0316146108fd576040805162461bcd60e51b8152602060048201819052602482015260008051602061324a833981519152604482015290519081900360640190fd5b610905611f66565b565b60d45490565b60006109198383612006565b9392505050565b60cb54606090806001600160401b038111801561093c57600080fd5b50604051908082528060200260200182016040528015610966578160200160208202803683370190505b5091506000805b82811015610a7157600060cb828154811061098457fe5b6000918252602090912001546040516370a0823160e01b81526001600160a01b03909116906370a08231906109bd908990600401612a27565b60206040518083038186803b1580156109d557600080fd5b505afa1580156109e9573d6000803e3d6000fd5b505050506040513d601f19601f82011682018060405250810190610a0d91906128f7565b1115610a695760cb8181548110610a2057fe5b9060005260206000200160009054906101000a90046001600160a01b0316848381518110610a4a57fe5b6001600160a01b03909216602092830291909101909101526001909101905b60010161096d565b506000610a7e8383612134565b845103845250919392505050565b606060cb805480602002602001604051908101604052809291908181526020018280548015610ae457602002820191906000526020600020905b81546001600160a01b03168152600190910190602001808311610ac6575b5050505050905090565b60d66020526000908152604090205481565b60d16020526000908152604090205460ff1681565b60335460ff1690565b610b26611e64565b6001600160a01b0316610b37611247565b6001600160a01b031614610b80576040805162461bcd60e51b8152602060048201819052602482015260008051602061324a833981519152604482015290519081900360640190fd5b60d88190556040517fbe762d516a09c899b785daf0c0f9bea93fd44a062d9ecc24c2ddba4c6f8b47ed90610bb5908390612bd2565b60405180910390a150565b60cd5460405163174dbff160e21b81526000916001600160a01b031690635d36ffc490610bf1908590600401612a27565b60206040518083038186803b158015610c0957600080fd5b505afa158015610c1d573d6000803e3d6000fd5b505050506040513d601f19601f82011682018060405250810190610c4191906126ad565b90506001600160a01b0381166108965761059b826119b2565b610c62611e64565b6001600160a01b0316610c73611247565b6001600160a01b031614610cbc576040805162461bcd60e51b8152602060048201819052602482015260008051602061324a833981519152604482015290519081900360640190fd5b6065546040516000916001600160a01b03169060008051602061326a833981519152908390a3606580546001600160a01b0319169055565b610cfc611e64565b6001600160a01b0316610d0d611247565b6001600160a01b031614610d56576040805162461bcd60e51b8152602060048201819052602482015260008051602061324a833981519152604482015290519081900360640190fd5b610d608282611d48565b5050565b6000610d6e610b15565b15610d8b5760405162461bcd60e51b815260040161076a90612d0a565b60d55482511115610dae5760405162461bcd60e51b815260040161076a90612d34565b60d254831115610dd05760405162461bcd60e51b815260040161076a90612caf565b600030898787604051602401610de99493929190612ac8565b60408051601f198184030181529190526020810180516001600160e01b0316635426f81d60e01b1790529050610e2081600261090d565b91506000308989858888604051602401610e3f96959493929190612a3b565b60408051601f198184030181529190526020810180516001600160e01b0316638fd04b6760e01b17905290506000610e7882600161090d565b604051633a81136f60e11b81529091506001600160a01b0385169063750226de90610ea7908490600401612a27565b602060405180830381600087803b158015610ec157600080fd5b505af1158015610ed5573d6000803e3d6000fd5b505050506040513d601f19601f82011682018060405250810190610ef99190612771565b5060cb849080600181540180825580915050600190039060005260206000200160009091909190916101000a8154816001600160a01b0302191690836001600160a01b03160217905550600160d16000866001600160a01b03166001600160a01b0316815260200190815260200160002060006101000a81548160ff02191690831515021790555060d75460d66000866001600160a01b03166001600160a01b03168152602001908152602001600020819055507f73a0638fe578fc759744633aa170a433061ca2cc1bb855d116c506e04a29901f848c8a8c8e428c60d354604051610fec989796959493929190612b11565b60405180910390a1505050979650505050505050565b60cd546001600160a01b031681565b611019611e64565b6001600160a01b031661102a611247565b6001600160a01b031614611073576040805162461bcd60e51b8152602060048201819052602482015260008051602061324a833981519152604482015290519081900360640190fd5b60d98190556040517f5c7a1f308b9ecdacddd5f035f458158e6a2581b1921b2ca7de3732bd1dd6e59090610bb5908390612bd2565b6110b0611e64565b6001600160a01b03166110c1611247565b6001600160a01b03161461110a576040805162461bcd60e51b8152602060048201819052602482015260008051602061324a833981519152604482015290519081900360640190fd5b6001600160a01b038216611159576040805162461bcd60e51b8152602060048201526011602482015270496e76616c696420706f6f6c4c6f67696360781b604482015290519081900360640190fd5b6001600160a01b0381166111af576040805162461bcd60e51b8152602060048201526018602482015277496e76616c696420706f6f6c4d616e616765724c6f67696360401b604482015290519081900360640190fd5b609780546001600160a01b039384166001600160a01b03199182161790915560988054929093169116179055565b6111e5611e64565b6001600160a01b03166111f6611247565b6001600160a01b03161461123f576040805162461bcd60e51b8152602060048201819052602482015260008051602061324a833981519152604482015290519081900360640190fd5b610905612191565b6065546001600160a01b031690565b60d25460d3549091565b611268611e64565b6001600160a01b0316611279611247565b6001600160a01b0316146112c2576040805162461bcd60e51b8152602060048201819052602482015260008051602061324a833981519152604482015290519081900360640190fd5b6112cb81611bfe565b50565b60cb81815481106112de57600080fd5b6000918252602090912001546001600160a01b0316905081565b60cf5460d0549091565b60d55490565b611310611e64565b6001600160a01b0316611321611247565b6001600160a01b03161461136a576040805162461bcd60e51b8152602060048201819052602482015260008051602061324a833981519152604482015290519081900360640190fd5b6112cb81611da4565b600061137d610b15565b905090565b60ce54604051638b2f0f4f60e01b81526000916001600160a01b031690638b2f0f4f906113b3908590600401612a27565b60206040518083038186803b1580156113cb57600080fd5b505afa1580156113df573d6000803e3d6000fd5b505050506040513d601f19601f8201168201806040525081019061059b91906128f7565b61140b611e64565b6001600160a01b031661141c611247565b6001600160a01b031614611465576040805162461bcd60e51b8152602060048201819052602482015260008051602061324a833981519152604482015290519081900360640190fd5b6112cb8160d354611ce0565b60d95481565b60ce5460405163b4fb127960e01b815260009182916001600160a01b039091169063b4fb1279906114ac908690600401612a27565b60206040518083038186803b1580156114c457600080fd5b505afa1580156114d8573d6000803e3d6000fd5b505050506040513d601f19601f820116820180604052508101906114fc91906126ad565b6001600160a01b0316141592915050565b611515611e64565b6001600160a01b0316611526611247565b6001600160a01b03161461156f576040805162461bcd60e51b8152602060048201819052602482015260008051602061324a833981519152604482015290519081900360640190fd5b6112cb81611c6f565b60d85481565b611586611e64565b6001600160a01b0316611597611247565b6001600160a01b0316146115e0576040805162461bcd60e51b8152602060048201819052602482015260008051602061324a833981519152604482015290519081900360640190fd5b6112cb81611b8d565b60cb54606090806001600160401b038111801561160557600080fd5b5060405190808252806020026020018201604052801561162f578160200160208202803683370190505b5091506000805b82811015610a7157600060cb828154811061164d57fe5b6000918252602091829020015460408051630f28525360e11b815290516001600160a01b0390921692631e50a4a692600480840193829003018186803b15801561169657600080fd5b505afa1580156116aa573d6000803e3d6000fd5b505050506040513d601f19601f820116820180604052508101906116ce91906126ad565b9050856001600160a01b0316816001600160a01b031663481c6a756040518163ffffffff1660e01b815260040160206040518083038186803b15801561171357600080fd5b505afa158015611727573d6000803e3d6000fd5b505050506040513d601f19601f8201168201806040525081019061174b91906126ad565b6001600160a01b031614156117b05760cb828154811061176757fe5b9060005260206000200160009054906101000a90046001600160a01b031685848151811061179157fe5b6001600160a01b03909216602092830291909101909101526001909201915b50600101611636565b60008160ff16600114156117d957506098546001600160a01b0316610896565b506097546001600160a01b0316610896565b6117f3611e64565b6001600160a01b0316611804611247565b6001600160a01b03161461184d576040805162461bcd60e51b8152602060048201819052602482015260008051602061324a833981519152604482015290519081900360640190fd5b6112cb81611dd9565b61185e611e64565b6001600160a01b031661186f611247565b6001600160a01b0316146118b8576040805162461bcd60e51b8152602060048201819052602482015260008051602061324a833981519152604482015290519081900360640190fd5b6112cb81611e0e565b6118c9611e64565b6001600160a01b03166118da611247565b6001600160a01b031614611923576040805162461bcd60e51b8152602060048201819052602482015260008051602061324a833981519152604482015290519081900360640190fd5b6001600160a01b0381166119685760405162461bcd60e51b81526004018080602001828103825260268152602001806131f66026913960400191505060405180910390fd5b6065546040516001600160a01b0380841692169060008051602061326a83398151915290600090a3606580546001600160a01b0319166001600160a01b0392909216919091179055565b60006119bd82611477565b156108965760ce5460405163b02e786f60e01b81526000916001600160a01b03169063b02e786f906119f3908690600401612a27565b60206040518083038186803b158015611a0b57600080fd5b505afa158015611a1f573d6000803e3d6000fd5b505050506040513d601f19601f82011682018060405250810190611a4391906128d5565b60cd5460405162a950c360e81b81529192506001600160a01b03169063a950c30090611a73908490600401612df5565b60206040518083038186803b158015611a8b57600080fd5b505afa158015611a9f573d6000803e3d6000fd5b505050506040513d601f19601f8201168201806040525081019061091991906126ad565b6000611ace30612214565b15905090565b61110a61221a565b600054610100900460ff1680611af55750611af5611ac3565b80611b03575060005460ff16155b611b3e5760405162461bcd60e51b815260040180806020018281038252602e81526020018061321c602e913960400191505060405180910390fd5b600054610100900460ff16158015611b69576000805460ff1961ff0019909116610100171660011790555b611b716122b7565b611b79612357565b80156112cb576000805461ff001916905550565b6001600160a01b038116611bb35760405162461bcd60e51b815260040161076a90612cdc565b60ce80546001600160a01b0319166001600160a01b0383161790556040517faca6dca39d79ebceec9b32e3a681f32c1368a5b373cc24d96a02a896a1457ed890610bb5908390612a27565b6001600160a01b038116611c245760405162461bcd60e51b815260040161076a90612dc9565b60cc80546001600160a01b0319166001600160a01b0383161790556040517f7138c17e9cd38b1f65ba47723efdaec045a981aa53992018fd215e5c09a22fc490610bb5908390612a27565b6001600160a01b038116611c955760405162461bcd60e51b815260040161076a90612d64565b60cd80546001600160a01b0319166001600160a01b0383161790556040517fbdb80a7ad60bd8133ed6b01049f9065c4cad1fa0a8e074da74b480f2aa83c93690610bb5908390612a27565b80821115611d005760405162461bcd60e51b815260040161076a90612c51565b60d282905560d38190556040517fc8d1cf61c8c354c0571162dca7d1c72d42fb769026aa2d156a8bc0290d5d00fa90611d3c9084908490612e04565b60405180910390a15050565b80821115611d685760405162461bcd60e51b815260040161076a90612c51565b60cf82905560d08190556040517fb10da2958bf5ec1bff3164ff753a09e0460ed44d3abf73e79b817b500ed0f2f190611d3c9084908490612e04565b60d48190556040517f20d916c976f3971e8200089411b0b712ef4612d98380b8ad2e3d8a8a376d85c790610bb5908390612bd2565b60d58190556040517f0cd8fcb5e08d7632af461f0ad793e5c63dc0d7595c301f5880650175e37a874890610bb5908390612bd2565b60d7548111611e2f5760405162461bcd60e51b815260040161076a90612c7b565b60d78190556040517f2983f04849f6bc055a842a8036b38adc41a780193744d7320475e29f0c78391f90610bb5908390612bd2565b3390565b6001600160a01b038416611e8e5760405162461bcd60e51b815260040161076a90612c29565b81611eab5760405162461bcd60e51b815260040161076a90612c03565b600083838080601f016020809104026020016040519081016040528093929190818152602001838380828437600092018290525084519495509384935091505060208401885af4801560018114611f0157611f0c565b3d806000803e806000fd5b50506040516001600160a01b0386169033907f78a9b536049c39a00adaf57016b1376c99dd48a0faf2cef23690232f21ce42cc90600090a3506001600160a01b03909316600090815260d660205260409020929092555050565b611f6e610b15565b611fb6576040805162461bcd60e51b815260206004820152601460248201527314185d5cd8589b194e881b9bdd081c185d5cd95960621b604482015290519081900360640190fd5b6033805460ff191690557f5db9ee0a495bf2e6ff9c91a7834c1ba4fdd244a5e8aa4e537bd38aeae4b073aa611fe9611e64565b604080516001600160a01b039092168252519081900360200190a1565b600080612011612402565b604080516001600160a01b038316815290519192507efffc2da0b561cae30d9826d37709e9421c4725faebc226cbbb7ef5fc5e7349919081900360200190a1806001600160a01b031663e74a474a3086866040518463ffffffff1660e01b815260040180846001600160a01b03168152602001806020018360ff168152602001828103825284818151815260200191508051906020019080838360005b838110156120c65781810151838201526020016120ae565b50505050905090810190601f1680156120f35780820380516001836020036101000a031916815260200191505b50945050505050600060405180830381600087803b15801561211457600080fd5b505af1158015612128573d6000803e3d6000fd5b50929695505050505050565b60008282111561218b576040805162461bcd60e51b815260206004820152601e60248201527f536166654d6174683a207375627472616374696f6e206f766572666c6f770000604482015290519081900360640190fd5b50900390565b612199610b15565b156121de576040805162461bcd60e51b815260206004820152601060248201526f14185d5cd8589b194e881c185d5cd95960821b604482015290519081900360640190fd5b6033805460ff191660011790557f62e78cea01bee320cd4e420270b5ea74000d11b0c9f74754ebdbfc544b05a258611fe9611e64565b3b151590565b600054610100900460ff16806122335750612233611ac3565b80612241575060005460ff16155b61227c5760405162461bcd60e51b815260040180806020018281038252602e81526020018061321c602e913960400191505060405180910390fd5b600054610100900460ff161580156122a7576000805460ff1961ff0019909116610100171660011790555b6122af6122b7565b611b79612449565b600054610100900460ff16806122d057506122d0611ac3565b806122de575060005460ff16155b6123195760405162461bcd60e51b815260040180806020018281038252602e81526020018061321c602e913960400191505060405180910390fd5b600054610100900460ff16158015611b79576000805460ff1961ff00199091166101001716600117905580156112cb576000805461ff001916905550565b600054610100900460ff16806123705750612370611ac3565b8061237e575060005460ff16155b6123b95760405162461bcd60e51b815260040180806020018281038252602e81526020018061321c602e913960400191505060405180910390fd5b600054610100900460ff161580156123e4576000805460ff1961ff0019909116610100171660011790555b6033805460ff1916905580156112cb576000805461ff001916905550565b60008060006040518060200161241790612530565b6020820181038252601f19601f8201166040525090508051602082016000f09150813b61244357600080fd5b50905090565b600054610100900460ff16806124625750612462611ac3565b80612470575060005460ff16155b6124ab5760405162461bcd60e51b815260040180806020018281038252602e81526020018061321c602e913960400191505060405180910390fd5b600054610100900460ff161580156124d6576000805460ff1961ff0019909116610100171660011790555b60006124e0611e64565b606580546001600160a01b0319166001600160a01b0383169081179091556040519192509060009060008051602061326a833981519152908290a35080156112cb576000805461ff001916905550565b61039d80612e5983390190565b60006001600160401b0383111561255057fe5b612563601f8401601f1916602001612e12565b905082815283838301111561257757600080fd5b828260208301376000602084830101529392505050565b803561089681612e35565b600082601f8301126125a9578081fd5b813560206001600160401b03808311156125bf57fe5b6125cc8283850201612e12565b838152828101908684016040808702890186018a10156125ea578788fd5b875b878110156126475781838c031215612602578889fd5b8151828101818110888211171561261557fe5b8352833561262281612e35565b81528388013561263181612e4a565b81890152855293860193918101916001016125ec565b50919998505050505050505050565b803561089681612e4a565b600082601f830112612671578081fd5b6109198383356020850161253d565b803560ff8116811461089657600080fd5b6000602082840312156126a2578081fd5b813561091981612e35565b6000602082840312156126be578081fd5b815161091981612e35565b600080604083850312156126db578081fd5b82356126e681612e35565b915060208301356126f681612e35565b809150509250929050565b600080600080600060a08688031215612718578081fd5b853561272381612e35565b9450602086013561273381612e35565b9350604086013561274381612e35565b9250606086013561275381612e35565b9150608086013561276381612e35565b809150509295509295909350565b600060208284031215612782578081fd5b815161091981612e4a565b600080600080600080600060e0888a0312156127a7578182fd5b6127b088612656565b96506127be6020890161258e565b955060408801356001600160401b03808211156127d9578384fd5b6127e58b838c01612661565b965060608a01359150808211156127fa578384fd5b6128068b838c01612661565b955060808a013591508082111561281b578384fd5b6128278b838c01612661565b945060a08a0135935060c08a0135915080821115612843578283fd5b506128508a828b01612599565b91505092959891949750929550565b600060208284031215612870578081fd5b5035919050565b60008060408385031215612889578182fd5b82356001600160401b0381111561289e578283fd5b8301601f810185136128ae578283fd5b6128bd8582356020840161253d565b9250506128cc60208401612680565b90509250929050565b6000602082840312156128e6578081fd5b815161ffff81168114610919578182fd5b600060208284031215612908578081fd5b5051919050565b60008060408385031215612921578182fd5b50508035926020909101359150565b60008060008060008060a08789031215612948578384fd5b8635955060208701359450604087013593506060870135925060808701356001600160401b038082111561297a578384fd5b818901915089601f83011261298d578384fd5b81358181111561299b578485fd5b8a60208285010111156129ac578485fd5b6020830194508093505050509295509295509295565b6000602082840312156129d3578081fd5b61091982612680565b60008151808452815b81811015612a01576020818501810151868301820152016129e5565b81811115612a125782602083870101525b50601f01601f19169290920160200192915050565b6001600160a01b0391909116815260200190565b600060018060a01b038089168352602081891681850152604060c081860152612a6760c086018a6129dc565b88841660608701526080860188905285810360a0870152865180825283880191840190865b81811015612ab55783518051881684528601511515868401529285019291840191600101612a8c565b50909d9c50505050505050505050505050565b6001600160a01b03851681528315156020820152608060408201819052600090612af4908301856129dc565b8281036060840152612b0681856129dc565b979650505050505050565b6001600160a01b038981168252881515602083015261010060408301819052600091612b3f8483018b6129dc565b91508382036060850152612b53828a6129dc565b97166080840152505060a081019390935260c083019190915260e090910152949350505050565b6020808252825182820181905260009190848201906040850190845b81811015612bbb5783516001600160a01b031683529284019291840191600101612b96565b50909695505050505050565b901515815260200190565b90815260200190565b6020808252600e908201526d696e76616c696420626f756e647360901b604082015260600190565b6020808252600c908201526b19185d184b5a5b9d985b1a5960a21b604082015260600190565b6020808252600e908201526d1d185c99d95d0b5a5b9d985b1a5960921b604082015260600190565b60208082526010908201526f34b73b30b634b210333930b1ba34b7b760811b604082015260600190565b6020808252601a90820152793b32b939b4b7b7103732b2b239903a37903132903434b3b432b960311b604082015260600190565b602080825260139082015272696e76616c6964206d616e616765722066656560681b604082015260600190565b60208082526014908201527324b73b30b634b21030b9b9b2ba2430b7323632b960611b604082015260600190565b60208082526010908201526f18dbdb9d1c9858dd1cc81c185d5cd95960821b604082015260600190565b6020808252601690820152751b585e1a5b5d5b48185cdcd95d1cc81c995858da195960521b604082015260600190565b602080825260199082015278496e76616c696420676f7665726e616e63654164647265737360381b604082015260600190565b602080825260189082015277676f7665726e616e63653a20696e76616c6964206e616d6560401b604082015260600190565b602080825260129082015271496e76616c69642064616f4164647265737360701b604082015260600190565b61ffff91909116815260200190565b918252602082015260400190565b6040518181016001600160401b0381118282101715612e2d57fe5b604052919050565b6001600160a01b03811681146112cb57600080fd5b80151581146112cb57600080fdfe608060405234801561001057600080fd5b5061037d806100206000396000f3fe6080604052600436106100225760003560e01c8063e74a474a1461003957610031565b366100315761002f6100f2565b005b61002f6100f2565b61002f6004803603606081101561004f57600080fd5b6001600160a01b038235169190810190604081016020820135600160201b81111561007957600080fd5b82018360208201111561008b57600080fd5b803590602001918460018302840111600160201b831117156100ac57600080fd5b91908080601f0160208091040260200160405190810160405280939291908181526020018383808284376000920191909152509295505050903560ff16915061010c9050565b6100fa61010a565b61010a61010561019c565b61025d565b565b600061011661019c565b6001600160a01b031614610161576040805162461bcd60e51b815260206004820152600d60248201526c496d706c206e6f74207a65726f60981b604482015290519081900360640190fd5b61016a83610281565b610173816102ff565b815115610197576101958261018661019c565b6001600160a01b031690610307565b505b505050565b7f360894a13ba1a3210667c828492db98dca3e2076cc3735a920a3ca505d382bbc80546000916001600160a01b0382166101db5760009250505061025a565b816001600160a01b031663ecef89d56101f2610338565b6040518263ffffffff1660e01b8152600401808260ff16815260200191505060206040518083038186803b15801561022957600080fd5b505afa15801561023d573d6000803e3d6000fd5b505050506040513d602081101561025357600080fd5b5051925050505b90565b3660008037600080366000845af43d6000803e80801561027c573d6000f35b3d6000fd5b61028a81610341565b6102db576040805162461bcd60e51b815260206004820181905260248201527f43616e6e6f742073657420696d706c656d656e746174696f6e20746f20454f41604482015290519081900360640190fd5b7f360894a13ba1a3210667c828492db98dca3e2076cc3735a920a3ca505d382bbc55565b600160fc1b55565b6000806000835160208501865af4905080156001811461032657610331565b3d806000803e806000fd5b5092915050565b600160fc1b5490565b3b15159056fea2646970667358221220db02276f833114d2779575b953214dd6737c50216e65d5ea2dd9bcb65fb5559464736f6c634300070600334f776e61626c653a206e6577206f776e657220697320746865207a65726f2061646472657373496e697469616c697a61626c653a20636f6e747261637420697320616c726561647920696e697469616c697a65644f776e61626c653a2063616c6c6572206973206e6f7420746865206f776e65728be0079c531659141344cd1fd0a4f28419497f9722a3daafe3b4186f6b6457e0a26469706673582212207735999d746e6720c1c54b014682575deb9970a627900941a738bf9838e3dc5564736f6c63430007060033",
  "linkReferences": {},
  "deployedLinkReferences": {}
}