{
  "_format": "hh-sol-artifact-1",
  "contractName": "DhedgeStakingV2RewardsCalculator",
  "sourceName": "contracts/stakingv2/DhedgeStakingV2RewardsCalculator.sol",
  "abi": [
    {
      "inputs": [],
      "name": "POOL_TOKEN_UNIT",
      "outputs": [
        {
          "internalType": "uint256",
          "name": "",
          "type": "uint256"
        }
      ],
      "stateMutability": "view",
      "type": "function"
    },
    {
      "inputs": [],
      "name": "UNIT",
      "outputs": [
        {
          "internalType": "uint256",
          "name": "",
          "type": "uint256"
        }
      ],
      "stateMutability": "view",
      "type": "function"
    },
    {
      "inputs": [
        {
          "internalType": "uint256",
          "name": "vDHTAmount",
          "type": "uint256"
        },
        {
          "internalType": "uint256",
          "name": "poolTokensStaked",
          "type": "uint256"
        },
        {
          "internalType": "uint256",
          "name": "tokenPriceStart",
          "type": "uint256"
        },
        {
          "internalType": "uint256",
          "name": "tokenPriceFinish",
          "type": "uint256"
        },
        {
          "internalType": "uint256",
          "name": "stakeStartTime",
          "type": "uint256"
        },
        {
          "internalType": "uint256",
          "name": "stakeFinishTime",
          "type": "uint256"
        },
        {
          "internalType": "uint256",
          "name": "stakeEmissionsRate",
          "type": "uint256"
        },
        {
          "components": [
            {
              "internalType": "uint256",
              "name": "stakeDurationDelaySeconds",
              "type": "uint256"
            },
            {
              "internalType": "uint256",
              "name": "maxDurationBoostSeconds",
              "type": "uint256"
            },
            {
              "internalType": "uint256",
              "name": "maxPerformanceBoostNumerator",
              "type": "uint256"
            },
            {
              "internalType": "uint256",
              "name": "maxPerformanceBoostDenominator",
              "type": "uint256"
            },
            {
              "internalType": "uint256",
              "name": "stakingRatio",
              "type": "uint256"
            },
            {
              "internalType": "uint256",
              "name": "emissionsRate",
              "type": "uint256"
            },
            {
              "internalType": "uint256",
              "name": "emissionsRateDenominator",
              "type": "uint256"
            }
          ],
          "internalType": "struct IDhedgeStakingV2Storage.RewardParams",
          "name": "rewardParams",
          "type": "tuple"
        }
      ],
      "name": "calculateDhtRewardAmount",
      "outputs": [
        {
          "internalType": "uint256",
          "name": "",
          "type": "uint256"
        }
      ],
      "stateMutability": "pure",
      "type": "function"
    },
    {
      "inputs": [
        {
          "internalType": "uint256",
          "name": "vDHTAmount",
          "type": "uint256"
        },
        {
          "internalType": "uint256",
          "name": "totalValue",
          "type": "uint256"
        },
        {
          "internalType": "uint256",
          "name": "stakingRatio",
          "type": "uint256"
        }
      ],
      "name": "calculateMaxVDHTAllowed",
      "outputs": [
        {
          "internalType": "uint256",
          "name": "",
          "type": "uint256"
        }
      ],
      "stateMutability": "pure",
      "type": "function"
    },
    {
      "inputs": [
        {
          "internalType": "uint256",
          "name": "tokenPriceStart",
          "type": "uint256"
        },
        {
          "internalType": "uint256",
          "name": "tokenPriceFinish",
          "type": "uint256"
        },
        {
          "internalType": "uint256",
          "name": "maxPerformanceBoostNumerator",
          "type": "uint256"
        },
        {
          "internalType": "uint256",
          "name": "maxPerformanceBoostDenominator",
          "type": "uint256"
        }
      ],
      "name": "calculatePerformanceFactor",
      "outputs": [
        {
          "internalType": "uint256",
          "name": "",
          "type": "uint256"
        }
      ],
      "stateMutability": "pure",
      "type": "function"
    },
    {
      "inputs": [
        {
          "internalType": "uint256",
          "name": "stakeStartTime",
          "type": "uint256"
        },
        {
          "internalType": "uint256",
          "name": "stakeFinishTime",
          "type": "uint256"
        },
        {
          "internalType": "uint256",
          "name": "maxDurationBoostSeconds",
          "type": "uint256"
        }
      ],
      "name": "calculateStakeDurationFactor",
      "outputs": [
        {
          "internalType": "uint256",
          "name": "",
          "type": "uint256"
        }
      ],
      "stateMutability": "pure",
      "type": "function"
    }
  ],
  "bytecode": "0x608060405234801561001057600080fd5b5061053d806100206000396000f3fe608060405234801561001057600080fd5b50600436106100625760003560e01c806307e0b7731461006757806307ed5e25146100905780639d8e217714610090578063b3e459ad14610098578063e7c201d9146100ab578063fab42c90146100be575b600080fd5b61007a610075366004610404565b6100d1565b60405161008791906104dd565b60405180910390f35b61007a610182565b61007a6100a63660046103a8565b61018e565b61007a6100b93660046103a8565b6101b7565b61007a6100cc3660046103d3565b61020c565b6000806100e888888560400151866060015161020c565b905060006100fb878786602001516101b7565b9050600061011b670de0b6b3a76400006101158c8e610285565b906102e7565b9050600061012e8d83886080015161018e565b9050610171670de0b6b3a7640000610115670de0b6b3a76400006101158a60c001516101158d61016b8b61016b8e8c61028590919063ffffffff16565b90610285565b9d9c50505050505050505050505050565b670de0b6b3a764000081565b60008061019b8484610285565b90508085116101aa57846101ac565b805b9150505b9392505050565b60008383116101c8575060006101b0565b60006101d4848661034b565b90508281106101ee57670de0b6b3a76400009150506101b0565b6102048361011583670de0b6b3a7640000610285565b9150506101b0565b600084841161021d5750600061027d565b6000610229858761034b565b9050600061025061023a8689610285565b6101158461016b88670de0b6b3a7640000610285565b9050670de0b6b3a764000081111561027457670de0b6b3a76400009250505061027d565b915061027d9050565b949350505050565b600082610294575060006102e1565b828202828482816102a157fe5b04146102de5760405162461bcd60e51b81526004018080602001828103825260218152602001806104e76021913960400191505060405180910390fd5b90505b92915050565b600080821161033a576040805162461bcd60e51b815260206004820152601a602482015279536166654d6174683a206469766973696f6e206279207a65726f60301b604482015290519081900360640190fd5b81838161034357fe5b049392505050565b6000828211156103a2576040805162461bcd60e51b815260206004820152601e60248201527f536166654d6174683a207375627472616374696f6e206f766572666c6f770000604482015290519081900360640190fd5b50900390565b6000806000606084860312156103bc578283fd5b505081359360208301359350604090920135919050565b600080600080608085870312156103e8578081fd5b5050823594602084013594506040840135936060013592509050565b600080600080600080600080888a036101c0811215610421578485fd5b8935985060208a0135975060408a0135965060608a0135955060808a0135945060a08a0135935060c08a0135925060e060df1982011215610460578182fd5b5060405160e0810181811067ffffffffffffffff8211171561047e57fe5b806040525060e08a013581526101008a013560208201526101208a013560408201526101408a013560608201526101608a013560808201526101808a013560a08201526101a08a013560c0820152809150509295985092959890939650565b9081526020019056fe536166654d6174683a206d756c7469706c69636174696f6e206f766572666c6f77a26469706673582212209f57e8d1adbe45cb322bbdde1a4c1728c2a8de445a467428d21e84dd5e91dec464736f6c63430007060033",
  "linkReferences": {},
  "deployedLinkReferences": {}
}