{
  "_format": "hh-sol-artifact-1",
  "contractName": "ManagedV24",
  "sourceName": "contracts/v2.4.1/ManagedV24.sol",
  "abi": [
    {
      "anonymous": false,
      "inputs": [
        {
          "indexed": false,
          "internalType": "address",
          "name": "newManager",
          "type": "address"
        },
        {
          "indexed": false,
          "internalType": "string",
          "name": "newManagerName",
          "type": "string"
        }
      ],
      "name": "ManagerUpdated",
      "type": "event"
    },
    {
      "inputs": [
        {
          "internalType": "address",
          "name": "member",
          "type": "address"
        }
      ],
      "name": "addMember",
      "outputs": [],
      "stateMutability": "nonpayable",
      "type": "function"
    },
    {
      "inputs": [
        {
          "internalType": "address[]",
          "name": "members",
          "type": "address[]"
        }
      ],
      "name": "addMembers",
      "outputs": [],
      "stateMutability": "nonpayable",
      "type": "function"
    },
    {
      "inputs": [
        {
          "internalType": "address",
          "name": "newManager",
          "type": "address"
        },
        {
          "internalType": "string",
          "name": "newManagerName",
          "type": "string"
        }
      ],
      "name": "changeManager",
      "outputs": [],
      "stateMutability": "nonpayable",
      "type": "function"
    },
    {
      "inputs": [],
      "name": "getMembers",
      "outputs": [
        {
          "internalType": "address[]",
          "name": "",
          "type": "address[]"
        }
      ],
      "stateMutability": "view",
      "type": "function"
    },
    {
      "inputs": [
        {
          "internalType": "address",
          "name": "member",
          "type": "address"
        }
      ],
      "name": "isMemberAllowed",
      "outputs": [
        {
          "internalType": "bool",
          "name": "",
          "type": "bool"
        }
      ],
      "stateMutability": "view",
      "type": "function"
    },
    {
      "inputs": [],
      "name": "manager",
      "outputs": [
        {
          "internalType": "address",
          "name": "",
          "type": "address"
        }
      ],
      "stateMutability": "view",
      "type": "function"
    },
    {
      "inputs": [],
      "name": "managerName",
      "outputs": [
        {
          "internalType": "string",
          "name": "",
          "type": "string"
        }
      ],
      "stateMutability": "view",
      "type": "function"
    },
    {
      "inputs": [],
      "name": "numberOfMembers",
      "outputs": [
        {
          "internalType": "uint256",
          "name": "",
          "type": "uint256"
        }
      ],
      "stateMutability": "view",
      "type": "function"
    },
    {
      "inputs": [
        {
          "internalType": "address",
          "name": "member",
          "type": "address"
        }
      ],
      "name": "removeMember",
      "outputs": [],
      "stateMutability": "nonpayable",
      "type": "function"
    },
    {
      "inputs": [
        {
          "internalType": "address[]",
          "name": "members",
          "type": "address[]"
        }
      ],
      "name": "removeMembers",
      "outputs": [],
      "stateMutability": "nonpayable",
      "type": "function"
    },
    {
      "inputs": [],
      "name": "removeTrader",
      "outputs": [],
      "stateMutability": "nonpayable",
      "type": "function"
    },
    {
      "inputs": [
        {
          "internalType": "address",
          "name": "newTrader",
          "type": "address"
        }
      ],
      "name": "setTrader",
      "outputs": [],
      "stateMutability": "nonpayable",
      "type": "function"
    },
    {
      "inputs": [],
      "name": "trader",
      "outputs": [
        {
          "internalType": "address",
          "name": "",
          "type": "address"
        }
      ],
      "stateMutability": "view",
      "type": "function"
    }
  ],
  "bytecode": "0x608060405234801561001057600080fd5b50610d3b806100206000396000f3fe608060405234801561001057600080fd5b50600436106100af5760003560e01c80630b1ca49a146100b45780631758078b146100dc57806346ee84b014610100578063481c6a75146101a157806352213663146101a95780636f4d469b1461025d5780637c8afd51146102fe5780639eab525314610306578063a30e3fa91461035e578063a6bc18f914610378578063bbbf725b1461039e578063ca6d56dc146103d8578063fed4416a146103fe575b600080fd5b6100da600480360360208110156100ca57600080fd5b50356001600160a01b031661047b565b005b6100e46104e7565b604080516001600160a01b039092168252519081900360200190f35b6100da6004803603602081101561011657600080fd5b810190602081018135600160201b81111561013057600080fd5b82018360208201111561014257600080fd5b803590602001918460208302840111600160201b8311171561016357600080fd5b9190808060200260200160405190810160405280939291908181526020018383602002808284376000920191909152509295506104f6945050505050565b6100e461059d565b6100da600480360360408110156101bf57600080fd5b6001600160a01b038235169190810190604081016020820135600160201b8111156101e957600080fd5b8201836020820111156101fb57600080fd5b803590602001918460018302840111600160201b8311171561021c57600080fd5b91908080601f0160208091040260200160405190810160405280939291908181526020018383808284376000920191909152509295506105ac945050505050565b6100da6004803603602081101561027357600080fd5b810190602081018135600160201b81111561028d57600080fd5b82018360208201111561029f57600080fd5b803590602001918460208302840111600160201b831117156102c057600080fd5b919080806020026020016040519081016040528093929190818152602001838360200280828437600092019190915250929550610724945050505050565b6100da6107bb565b61030e61081b565b60408051602080825283518183015283519192839290830191858101910280838360005b8381101561034a578181015183820152602001610332565b505050509050019250505060405180910390f35b61036661087d565b60408051918252519081900360200190f35b6100da6004803603602081101561038e57600080fd5b50356001600160a01b0316610883565b6103c4600480360360208110156103b457600080fd5b50356001600160a01b031661093f565b604080519115158252519081900360200190f35b6100da600480360360208110156103ee57600080fd5b50356001600160a01b031661095c565b6104066109c6565b6040805160208082528351818301528351919283929083019185019080838360005b83811015610440578181015183820152602001610428565b50505050905090810190601f16801561046d5780820380516001836020036101000a031916815260200191505b509250505060405180910390f35b6000546001600160a01b031633146104c9576040805162461bcd60e51b815260206004820152600c60248201526b37b7363c9036b0b730b3b2b960a11b604482015290519081900360640190fd5b6104d28161093f565b6104db576104e4565b6104e481610a53565b50565b6004546001600160a01b031690565b6000546001600160a01b03163314610544576040805162461bcd60e51b815260206004820152600c60248201526b37b7363c9036b0b730b3b2b960a11b604482015290519081900360640190fd5b60005b81518110156105995761056c82828151811061055f57fe5b602002602001015161093f565b61057557610591565b61059182828151811061058457fe5b6020026020010151610a53565b600101610547565b5050565b6000546001600160a01b031681565b6000546001600160a01b031633146105fa576040805162461bcd60e51b815260206004820152600c60248201526b37b7363c9036b0b730b3b2b960a11b604482015290519081900360640190fd5b6001600160a01b038216610647576040805162461bcd60e51b815260206004820152600f60248201526e24b73b30b634b21036b0b730b3b2b960891b604482015290519081900360640190fd5b600080546001600160a01b0319166001600160a01b0384161790558051610675906001906020840190610c64565b507f6ed15082ad038474841528b5badca105106d4463e44b5d434130dfb299aa3669828260405180836001600160a01b0316815260200180602001828103825283818151815260200191508051906020019080838360005b838110156106e55781810151838201526020016106cd565b50505050905090810190601f1680156107125780820380516001836020036101000a031916815260200191505b50935050505060405180910390a15050565b6000546001600160a01b03163314610772576040805162461bcd60e51b815260206004820152600c60248201526b37b7363c9036b0b730b3b2b960a11b604482015290519081900360640190fd5b60005b81518110156105995761078d82828151811061055f57fe5b15610797576107b3565b6107b38282815181106107a657fe5b6020026020010151610b4c565b600101610775565b6000546001600160a01b03163314610809576040805162461bcd60e51b815260206004820152600c60248201526b37b7363c9036b0b730b3b2b960a11b604482015290519081900360640190fd5b600480546001600160a01b0319169055565b6060600280548060200260200160405190810160405280929190818152602001828054801561087357602002820191906000526020600020905b81546001600160a01b03168152600190910190602001808311610855575b5050505050905090565b60025490565b6000546001600160a01b031633146108d1576040805162461bcd60e51b815260206004820152600c60248201526b37b7363c9036b0b730b3b2b960a11b604482015290519081900360640190fd5b6001600160a01b03811661091d576040805162461bcd60e51b815260206004820152600e60248201526d24b73b30b634b2103a3930b232b960911b604482015290519081900360640190fd5b600480546001600160a01b0319166001600160a01b0392909216919091179055565b6001600160a01b0316600090815260036020526040902054151590565b6000546001600160a01b031633146109aa576040805162461bcd60e51b815260206004820152600c60248201526b37b7363c9036b0b730b3b2b960a11b604482015290519081900360640190fd5b6109b38161093f565b156109bd576104e4565b6104e481610b4c565b60018054604080516020600284861615610100026000190190941693909304601f81018490048402820184019092528181529291830182828015610a4b5780601f10610a2057610100808354040283529160200191610a4b565b820191906000526020600020905b815481529060010190602001808311610a2e57829003601f168201915b505050505081565b6002546001600160a01b038216600090815260036020526040812054610a7a906001610ba8565b905060006002610a8b846001610ba8565b81548110610a9557fe5b600091825260209091200154600280546001600160a01b039092169250829184908110610abe57fe5b600091825260209091200180546001600160a01b0319166001600160a01b0392909216919091179055610af2826001610c05565b6001600160a01b03808316600090815260036020526040808220939093559086168152908120556002805480610b2457fe5b600082815260209020810160001990810180546001600160a01b031916905501905550505050565b600280546001810182557f405787fa12a823e0f2b7631cc41b3ba8828b3321ca811111fa75cd3aa3bb5ace0180546001600160a01b039093166001600160a01b0319909316831790555460009182526003602052604090912055565b600082821115610bff576040805162461bcd60e51b815260206004820152601e60248201527f536166654d6174683a207375627472616374696f6e206f766572666c6f770000604482015290519081900360640190fd5b50900390565b600082820183811015610c5d576040805162461bcd60e51b815260206004820152601b60248201527a536166654d6174683a206164646974696f6e206f766572666c6f7760281b604482015290519081900360640190fd5b9392505050565b828054600181600116156101000203166002900490600052602060002090601f016020900481019282610c9a5760008555610ce0565b82601f10610cb357805160ff1916838001178555610ce0565b82800160010185558215610ce0579182015b82811115610ce0578251825591602001919060010190610cc5565b50610cec929150610cf0565b5090565b5b80821115610cec5760008155600101610cf156fea2646970667358221220d9d84fca38005e5360e4b03ec60a1ae440716acbc6fc757636794ee6f8ea5e3064736f6c63430007060033",
  "linkReferences": {},
  "deployedLinkReferences": {}
}