{
  "_format": "hh-sol-artifact-1",
  "contractName": "AaveLendingPoolAssetGuard",
  "sourceName": "contracts/guards/assetGuards/AaveLendingPoolAssetGuard.sol",
  "abi": [
    {
      "inputs": [
        {
          "internalType": "address",
          "name": "_aaveProtocolDataProvider",
          "type": "address"
        },
        {
          "internalType": "address",
          "name": "_aaveLendingPool",
          "type": "address"
        }
      ],
      "stateMutability": "nonpayable",
      "type": "constructor"
    },
    {
      "anonymous": false,
      "inputs": [
        {
          "indexed": false,
          "internalType": "address",
          "name": "fundAddress",
          "type": "address"
        },
        {
          "indexed": false,
          "internalType": "address",
          "name": "manager",
          "type": "address"
        },
        {
          "indexed": false,
          "internalType": "address",
          "name": "spender",
          "type": "address"
        },
        {
          "indexed": false,
          "internalType": "uint256",
          "name": "amount",
          "type": "uint256"
        },
        {
          "indexed": false,
          "internalType": "uint256",
          "name": "time",
          "type": "uint256"
        }
      ],
      "name": "Approve",
      "type": "event"
    },
    {
      "anonymous": false,
      "inputs": [
        {
          "indexed": false,
          "internalType": "address",
          "name": "fundAddress",
          "type": "address"
        },
        {
          "indexed": false,
          "internalType": "address",
          "name": "sourceAsset",
          "type": "address"
        },
        {
          "indexed": false,
          "internalType": "uint256",
          "name": "sourceAmount",
          "type": "uint256"
        },
        {
          "indexed": false,
          "internalType": "address",
          "name": "dstAsset",
          "type": "address"
        },
        {
          "indexed": false,
          "internalType": "uint256",
          "name": "time",
          "type": "uint256"
        }
      ],
      "name": "ExchangeFrom",
      "type": "event"
    },
    {
      "anonymous": false,
      "inputs": [
        {
          "indexed": false,
          "internalType": "address",
          "name": "fundAddress",
          "type": "address"
        },
        {
          "indexed": false,
          "internalType": "address",
          "name": "sourceAsset",
          "type": "address"
        },
        {
          "indexed": false,
          "internalType": "address",
          "name": "dstAsset",
          "type": "address"
        },
        {
          "indexed": false,
          "internalType": "uint256",
          "name": "dstAmount",
          "type": "uint256"
        },
        {
          "indexed": false,
          "internalType": "uint256",
          "name": "time",
          "type": "uint256"
        }
      ],
      "name": "ExchangeTo",
      "type": "event"
    },
    {
      "inputs": [],
      "name": "aaveLendingPool",
      "outputs": [
        {
          "internalType": "address",
          "name": "",
          "type": "address"
        }
      ],
      "stateMutability": "view",
      "type": "function"
    },
    {
      "inputs": [],
      "name": "aaveProtocolDataProvider",
      "outputs": [
        {
          "internalType": "contract IAaveProtocolDataProvider",
          "name": "",
          "type": "address"
        }
      ],
      "stateMutability": "view",
      "type": "function"
    },
    {
      "inputs": [
        {
          "internalType": "bytes32",
          "name": "data",
          "type": "bytes32"
        }
      ],
      "name": "convert32toAddress",
      "outputs": [
        {
          "internalType": "address",
          "name": "o",
          "type": "address"
        }
      ],
      "stateMutability": "pure",
      "type": "function"
    },
    {
      "inputs": [
        {
          "internalType": "address",
          "name": "pool",
          "type": "address"
        },
        {
          "internalType": "uint256",
          "name": "portion",
          "type": "uint256"
        },
        {
          "internalType": "address[]",
          "name": "repayAssets",
          "type": "address[]"
        },
        {
          "internalType": "uint256[]",
          "name": "repayAmounts",
          "type": "uint256[]"
        },
        {
          "internalType": "uint256[]",
          "name": "premiums",
          "type": "uint256[]"
        },
        {
          "internalType": "uint256[]",
          "name": "interestRateModes",
          "type": "uint256[]"
        }
      ],
      "name": "flashloanProcessing",
      "outputs": [
        {
          "components": [
            {
              "internalType": "address",
              "name": "to",
              "type": "address"
            },
            {
              "internalType": "bytes",
              "name": "txData",
              "type": "bytes"
            }
          ],
          "internalType": "struct IAssetGuard.MultiTransaction[]",
          "name": "transactions",
          "type": "tuple[]"
        }
      ],
      "stateMutability": "view",
      "type": "function"
    },
    {
      "inputs": [
        {
          "internalType": "bytes",
          "name": "data",
          "type": "bytes"
        },
        {
          "internalType": "uint8",
          "name": "inputNum",
          "type": "uint8"
        },
        {
          "internalType": "uint8",
          "name": "arrayIndex",
          "type": "uint8"
        }
      ],
      "name": "getArrayIndex",
      "outputs": [
        {
          "internalType": "bytes32",
          "name": "",
          "type": "bytes32"
        }
      ],
      "stateMutability": "pure",
      "type": "function"
    },
    {
      "inputs": [
        {
          "internalType": "bytes",
          "name": "data",
          "type": "bytes"
        },
        {
          "internalType": "uint8",
          "name": "inputNum",
          "type": "uint8"
        }
      ],
      "name": "getArrayLast",
      "outputs": [
        {
          "internalType": "bytes32",
          "name": "",
          "type": "bytes32"
        }
      ],
      "stateMutability": "pure",
      "type": "function"
    },
    {
      "inputs": [
        {
          "internalType": "bytes",
          "name": "data",
          "type": "bytes"
        },
        {
          "internalType": "uint8",
          "name": "inputNum",
          "type": "uint8"
        }
      ],
      "name": "getArrayLength",
      "outputs": [
        {
          "internalType": "uint256",
          "name": "",
          "type": "uint256"
        }
      ],
      "stateMutability": "pure",
      "type": "function"
    },
    {
      "inputs": [
        {
          "internalType": "address",
          "name": "pool",
          "type": "address"
        },
        {
          "internalType": "address",
          "name": "",
          "type": "address"
        }
      ],
      "name": "getBalance",
      "outputs": [
        {
          "internalType": "uint256",
          "name": "balance",
          "type": "uint256"
        }
      ],
      "stateMutability": "view",
      "type": "function"
    },
    {
      "inputs": [
        {
          "internalType": "bytes",
          "name": "data",
          "type": "bytes"
        },
        {
          "internalType": "uint8",
          "name": "inputNum",
          "type": "uint8"
        },
        {
          "internalType": "uint256",
          "name": "offset",
          "type": "uint256"
        }
      ],
      "name": "getBytes",
      "outputs": [
        {
          "internalType": "bytes",
          "name": "",
          "type": "bytes"
        }
      ],
      "stateMutability": "pure",
      "type": "function"
    },
    {
      "inputs": [
        {
          "internalType": "address",
          "name": "",
          "type": "address"
        }
      ],
      "name": "getDecimals",
      "outputs": [
        {
          "internalType": "uint256",
          "name": "decimals",
          "type": "uint256"
        }
      ],
      "stateMutability": "pure",
      "type": "function"
    },
    {
      "inputs": [
        {
          "internalType": "bytes",
          "name": "data",
          "type": "bytes"
        },
        {
          "internalType": "uint8",
          "name": "inputNum",
          "type": "uint8"
        }
      ],
      "name": "getInput",
      "outputs": [
        {
          "internalType": "bytes32",
          "name": "",
          "type": "bytes32"
        }
      ],
      "stateMutability": "pure",
      "type": "function"
    },
    {
      "inputs": [
        {
          "internalType": "bytes",
          "name": "data",
          "type": "bytes"
        }
      ],
      "name": "getMethod",
      "outputs": [
        {
          "internalType": "bytes4",
          "name": "",
          "type": "bytes4"
        }
      ],
      "stateMutability": "pure",
      "type": "function"
    },
    {
      "inputs": [
        {
          "internalType": "bytes",
          "name": "data",
          "type": "bytes"
        }
      ],
      "name": "getParams",
      "outputs": [
        {
          "internalType": "bytes",
          "name": "",
          "type": "bytes"
        }
      ],
      "stateMutability": "pure",
      "type": "function"
    },
    {
      "inputs": [
        {
          "internalType": "bytes",
          "name": "data",
          "type": "bytes"
        },
        {
          "internalType": "uint256",
          "name": "offset",
          "type": "uint256"
        },
        {
          "internalType": "uint256",
          "name": "length",
          "type": "uint256"
        }
      ],
      "name": "read32",
      "outputs": [
        {
          "internalType": "bytes32",
          "name": "o",
          "type": "bytes32"
        }
      ],
      "stateMutability": "pure",
      "type": "function"
    },
    {
      "inputs": [
        {
          "internalType": "bytes",
          "name": "data",
          "type": "bytes"
        },
        {
          "internalType": "uint256",
          "name": "offset",
          "type": "uint256"
        }
      ],
      "name": "read4left",
      "outputs": [
        {
          "internalType": "bytes4",
          "name": "o",
          "type": "bytes4"
        }
      ],
      "stateMutability": "pure",
      "type": "function"
    },
    {
      "inputs": [
        {
          "internalType": "address",
          "name": "pool",
          "type": "address"
        },
        {
          "internalType": "address",
          "name": "asset",
          "type": "address"
        }
      ],
      "name": "removeAssetCheck",
      "outputs": [],
      "stateMutability": "view",
      "type": "function"
    },
    {
      "inputs": [
        {
          "internalType": "address",
          "name": "_poolManagerLogic",
          "type": "address"
        },
        {
          "internalType": "address",
          "name": "",
          "type": "address"
        },
        {
          "internalType": "bytes",
          "name": "data",
          "type": "bytes"
        }
      ],
      "name": "txGuard",
      "outputs": [
        {
          "internalType": "uint16",
          "name": "txType",
          "type": "uint16"
        },
        {
          "internalType": "bool",
          "name": "",
          "type": "bool"
        }
      ],
      "stateMutability": "nonpayable",
      "type": "function"
    },
    {
      "inputs": [
        {
          "internalType": "address",
          "name": "pool",
          "type": "address"
        },
        {
          "internalType": "address",
          "name": "",
          "type": "address"
        },
        {
          "internalType": "uint256",
          "name": "portion",
          "type": "uint256"
        },
        {
          "internalType": "address",
          "name": "to",
          "type": "address"
        }
      ],
      "name": "withdrawProcessing",
      "outputs": [
        {
          "internalType": "address",
          "name": "withdrawAsset",
          "type": "address"
        },
        {
          "internalType": "uint256",
          "name": "withdrawBalance",
          "type": "uint256"
        },
        {
          "components": [
            {
              "internalType": "address",
              "name": "to",
              "type": "address"
            },
            {
              "internalType": "bytes",
              "name": "txData",
              "type": "bytes"
            }
          ],
          "internalType": "struct IAssetGuard.MultiTransaction[]",
          "name": "transactions",
          "type": "tuple[]"
        }
      ],
      "stateMutability": "view",
      "type": "function"
    }
  ],
  "bytecode": "0x60806040523480156200001157600080fd5b5060405162003d1538038062003d158339810160408190526200003491620000de565b6001600160a01b038216620000665760405162461bcd60e51b81526004016200005d9062000159565b60405180910390fd5b6001600160a01b0381166200008f5760405162461bcd60e51b81526004016200005d9062000115565b600080546001600160a01b039384166001600160a01b03199182161790915560018054929093169116179055620001a6565b80516001600160a01b0381168114620000d957600080fd5b919050565b60008060408385031215620000f1578182fd5b620000fc83620000c1565b91506200010c60208401620000c1565b90509250929050565b60208082526024908201527f5f616176654c656e64696e67506f6f6c20616464726573732063616e6e6f74206040820152630626520360e41b606082015260800190565b6020808252602d908201527f5f6161766550726f746f636f6c4461746150726f76696465722061646472657360408201526c0732063616e6e6f74206265203609c1b606082015260800190565b613b5f80620001b66000396000f3fe608060405234801561001057600080fd5b50600436106100e65760003560e01c806309ff5c7d146100eb5780631053f952146101145780631eba307714610134578063293d80631461015457806341dc16c3146101745780635f9d4d2e146101875780636179309d1461018f57806368901513146101b05780636d5fae54146101c35780636f8ae202146101d857806382f86acc146101fa578063952bfb161461020d578063998546e31461022d578063c3c6279f14610240578063cf54aaa014610253578063d4fac45d14610266578063db896b5714610279578063e9d337b81461028c575b600080fd5b6100fe6100f9366004613528565b610294565b60405161010b9190613949565b60405180910390f35b61012761012236600461356c565b610327565b60405161010b9190613967565b610147610142366004613451565b6103bf565b60405161010b919061379c565b61016761016236600461349b565b6103c6565b60405161010b9190613952565b6100fe6101823660046135c3565b610428565b610147610506565b6101a261019d3660046131d6565b610515565b60405161010b929190613a0d565b6101276101be366004613469565b61087a565b6101d66101d1366004613152565b610895565b005b6101eb6101e6366004613262565b6108c6565b60405161010b939291906138b9565b6100fe610208366004613528565b610a1b565b61022061021b3660046132b4565b610a39565b60405161010b9190613914565b6100fe61023b366004613528565b610de7565b61016761024e366004613469565b610e18565b6100fe61026136600461311a565b610e25565b6100fe610274366004613152565b610e2b565b6100fe6102873660046134dd565b6111dc565b61014761125b565b6000806102ac848460200260040160ff1660206111dc565b905060006102bf856004840160206111dc565b905080610308576040805162461bcd60e51b8152602060048201526012602482015271696e707574206973206e6f7420617272617960701b604482015290519081900360640190fd5b61031c8560208084028501600401906111dc565b925050505b92915050565b60606014821061036f576040805162461bcd60e51b815260206004820152600e60248201526d1a5b9d985b1a59081bd9999cd95d60921b604482015290519081900360640190fd5b816020029150600061038e85848660200260040160ff160160206111dc565b905060006103a38685840160040160206111dc565b90506103b5866024848701018361126a565b9695505050505050565b805b919050565b6000816004018351101561041f576040805162461bcd60e51b815260206004820152601b60248201527a52656164696e67206279746573206f7574206f6620626f756e647360281b604482015290519081900360640190fd5b50016020015190565b600080610440858560200260040160ff1660206111dc565b90506000610453866004840160206111dc565b90508061049c576040805162461bcd60e51b8152602060048201526012602482015271696e707574206973206e6f7420617272617960701b604482015290519081900360640190fd5b60ff841681116104ec576040805162461bcd60e51b815260206004820152601660248201527534b73b30b634b21030b93930bc903837b9b4ba34b7b760511b604482015290519081900360640190fd5b6103b5866020600160ff88160181028501600401906111dc565b6000546001600160a01b031681565b600080600061055985858080601f016020809104026020016040519081016040528093929190818152602001838380828437600092019190915250610e1892505050565b90506001600160e01b0319811663095ea7b360e01b141561086c5760006105b861014287878080601f01602080910402602001604051908101604052809392919081815260200183838082843760009201829052509250610a1b915050565b905060006105fe87878080601f01602080910402602001604051908101604052809392919081815260200183838082843760009201919091525060019250610a1b915050565b60001c905060008990506000816001600160a01b031663c45a01556040518163ffffffff1660e01b815260040160206040518083038186803b15801561064357600080fd5b505afa158015610657573d6000803e3d6000fd5b505050506040513d601f19601f8201168201806040525081019061067b9190613136565b90506000816001600160a01b0316634f8419b9866040518263ffffffff1660e01b81526004016106ab919061379c565b60206040518083038186803b1580156106c357600080fd5b505afa1580156106d7573d6000803e3d6000fd5b505050506040513d601f19601f820116820180604052508101906106fb9190613136565b90506001600160a01b0381161580159061071e57506001600160a01b0381163014155b6107435760405162461bcd60e51b815260040161073a906139d7565b60405180910390fd5b7f5343b378d69227c1bc2016fd44e8104f0ffa7729f4f4f4110e349a2db0a0d0c8836001600160a01b03166339b81fd96040518163ffffffff1660e01b815260040160206040518083038186803b15801561079d57600080fd5b505afa1580156107b1573d6000803e3d6000fd5b505050506040513d601f19601f820116820180604052508101906107d59190613136565b8d6001600160a01b031663481c6a756040518163ffffffff1660e01b815260040160206040518083038186803b15801561080e57600080fd5b505afa158015610822573d6000803e3d6000fd5b505050506040513d601f19601f820116820180604052508101906108469190613136565b87874260405161085a9594939291906137b0565b60405180910390a16001975050505050505b506000905094509492505050565b60606103216004808451038461126a9092919063ffffffff16565b60006108a18383610e2b565b905080156108c15760405162461bcd60e51b815260040161073a9061397a565b505050565b600080606060008060006108da8a896113bb565b9250925092506000835111156109f95760008a6001600160a01b031663c45a01556040518163ffffffff1660e01b815260040160206040518083038186803b15801561092557600080fd5b505afa158015610939573d6000803e3d6000fd5b505050506040513d601f19601f8201168201806040525081019061095d9190613136565b6040516321f8a72160e01b81529091506001600160a01b038216906321f8a7219061098a906004016139c7565b60206040518083038186803b1580156109a257600080fd5b505afa1580156109b6573d6000803e3d6000fd5b505050506040513d601f19601f820116820180604052508101906109da9190613136565b96506109e98b8a868686611914565b600096509450610a119350505050565b610a048a888a611a80565b9350600080955095505050505b9450945094915050565b6000610a32838360200260040160ff1660206111dc565b9392505050565b60606000876001600160a01b031663c45a01556040518163ffffffff1660e01b815260040160206040518083038186803b158015610a7657600080fd5b505afa158015610a8a573d6000803e3d6000fd5b505050506040513d601f19601f82011682018060405250810190610aae9190613136565b90506000816001600160a01b03166321f8a7216040518163ffffffff1660e01b8152600401610adc906139b1565b60206040518083038186803b158015610af457600080fd5b505afa158015610b08573d6000803e3d6000fd5b505050506040513d601f19601f82011682018060405250810190610b2c9190613136565b90506000826001600160a01b03166321f8a7216040518163ffffffff1660e01b8152600401610b5a906139c7565b60206040518083038186803b158015610b7257600080fd5b505afa158015610b86573d6000803e3d6000fd5b505050506040513d601f19601f82011682018060405250810190610baa9190613136565b90506000610bba8b8a8a89611cd9565b90506000610bca8c8c8686611f1c565b90506000610bdc8d86868e8e8e6123d1565b905080518251845101016001600160401b0381118015610bfb57600080fd5b50604051908082528060200260200182016040528015610c3557816020015b610c22612fc4565b815260200190600190039081610c1a5790505b5096506000805b8451821015610cc157848281518110610c5157fe5b602002602001015160000151898281518110610c6957fe5b60209081029190910101516001600160a01b0390911690528451859083908110610c8f57fe5b602002602001015160200151898281518110610ca757fe5b602090810291909101810151015260019182019101610c3c565b600091505b8351821015610d4b57838281518110610cdb57fe5b602002602001015160000151898281518110610cf357fe5b60209081029190910101516001600160a01b0390911690528351849083908110610d1957fe5b602002602001015160200151898281518110610d3157fe5b602090810291909101810151015260019182019101610cc6565b600091505b8251821015610dd557828281518110610d6557fe5b602002602001015160000151898281518110610d7d57fe5b60209081029190910101516001600160a01b0390911690528251839083908110610da357fe5b602002602001015160200151898281518110610dbb57fe5b602090810291909101810151015260019182019101610d50565b50505050505050509695505050505050565b600080610dff848460200260040160ff1660206111dc565b9050610e10846004830160206111dc565b949350505050565b60006103218260006103c6565b50601290565b600080836001600160a01b0316631e50a4a66040518163ffffffff1660e01b815260040160206040518083038186803b158015610e6757600080fd5b505afa158015610e7b573d6000803e3d6000fd5b505050506040513d601f19601f82011682018060405250810190610e9f9190613136565b90506000816001600160a01b031663e5406dbf6040518163ffffffff1660e01b815260040160006040518083038186803b158015610edc57600080fd5b505afa158015610ef0573d6000803e3d6000fd5b505050506040513d6000823e601f3d908101601f19168201604052610f189190810190613374565b90506000806000806000806000808c6001600160a01b031663c45a01556040518163ffffffff1660e01b815260040160206040518083038186803b158015610f5f57600080fd5b505afa158015610f73573d6000803e3d6000fd5b505050506040513d601f19601f82011682018060405250810190610f979190613136565b895190915060005b818110156111bf578a8181518110610fb357fe5b6020026020010151600001519950826001600160a01b031663032c49ed8b6040518263ffffffff1660e01b8152600401610fed919061379c565b60206040518083038186803b15801561100557600080fd5b505afa158015611019573d6000803e3d6000fd5b505050506040513d601f19601f8201168201806040525081019061103d9190613619565b61ffff16600414806110ce575060405163032c49ed60e01b81526001600160a01b0384169063032c49ed90611076908d9060040161379c565b60206040518083038186803b15801561108e57600080fd5b505afa1580156110a2573d6000803e3d6000fd5b505050506040513d601f19601f820116820180604052508101906110c69190613619565b61ffff16600e145b156111b7576110dd8f8b612823565b9a509097509550861515806110f157508515155b156111b75760405163b3596f0760e01b81526001600160a01b0384169063b3596f0790611122908d9060040161379c565b60206040518083038186803b15801561113a57600080fd5b505afa15801561114e573d6000803e3d6000fd5b505050506040513d601f19601f82011682018060405250810190611172919061363b565b975061119661118f600a8b900a6111898b8b612abe565b90612b17565b8690612b7b565b94506111b46111ad600a8b900a6111898b8a612abe565b8590612b7b565b93505b600101610f9f565b506111ca8484612bd3565b9e9d5050505050505050505050505050565b600081830184511015611234576040805162461bcd60e51b815260206004820152601b60248201527a52656164696e67206279746573206f7574206f6620626f756e647360281b604482015290519081900360640190fd5b826020018401519050816020038015611253576008810260020a820491505b509392505050565b6001546001600160a01b031681565b60608182601f0110156112b5576040805162461bcd60e51b815260206004820152600e60248201526d736c6963655f6f766572666c6f7760901b604482015290519081900360640190fd5b8282840110156112fd576040805162461bcd60e51b815260206004820152600e60248201526d736c6963655f6f766572666c6f7760901b604482015290519081900360640190fd5b81830184511015611349576040805162461bcd60e51b8152602060048201526011602482015270736c6963655f6f75744f66426f756e647360781b604482015290519081900360640190fd5b60608215801561136857604051915060008252602082016040526113b2565b6040519150601f8416801560200281840101858101878315602002848b0101015b818310156113a1578051835260209283019201611389565b5050858452601f01601f1916604052505b50949350505050565b60608060606000856001600160a01b0316631e50a4a66040518163ffffffff1660e01b815260040160206040518083038186803b1580156113fb57600080fd5b505afa15801561140f573d6000803e3d6000fd5b505050506040513d601f19601f820116820180604052508101906114339190613136565b90506000816001600160a01b031663e5406dbf6040518163ffffffff1660e01b815260040160006040518083038186803b15801561147057600080fd5b505afa158015611484573d6000803e3d6000fd5b505050506040513d6000823e601f3d908101601f191682016040526114ac9190810190613374565b8051909150806001600160401b03811180156114c757600080fd5b506040519080825280602002602001820160405280156114f1578160200160208202803683370190505b509550806001600160401b038111801561150a57600080fd5b50604051908082528060200260200182016040528015611534578160200160208202803683370190505b509450806001600160401b038111801561154d57600080fd5b50604051908082528060200260200182016040528015611577578160200160208202803683370190505b50935060008080805b848110156118e55760005486516001600160a01b039091169063d2493b6c908890849081106115ab57fe5b6020026020010151600001516040518263ffffffff1660e01b81526004016115d3919061379c565b60606040518083038186803b1580156115eb57600080fd5b505afa1580156115ff573d6000803e3d6000fd5b505050506040513d601f19601f82011682018060405250810190611623919061318a565b9095509350506001600160a01b03841615611799576040516370a0823160e01b81526001600160a01b038516906370a0823190611664908f9060040161379c565b60206040518083038186803b15801561167c57600080fd5b505afa158015611690573d6000803e3d6000fd5b505050506040513d601f19601f820116820180604052508101906116b4919061363b565b8983815181106116c057fe5b6020026020010181815250508882815181106116d857fe5b6020026020010151600014611799578581815181106116f357fe5b6020026020010151600001518a838151811061170b57fe5b60200260200101906001600160a01b031690816001600160a01b03168152505061175d670de0b6b3a76400006111898d8c868151811061174757fe5b6020026020010151612abe90919063ffffffff16565b89838151811061176957fe5b602002602001018181525050600188838151811061178357fe5b60209081029190910101526001909101906118dd565b6001600160a01b038316156118dd576040516370a0823160e01b81526001600160a01b038416906370a08231906117d4908f9060040161379c565b60206040518083038186803b1580156117ec57600080fd5b505afa158015611800573d6000803e3d6000fd5b505050506040513d601f19601f82011682018060405250810190611824919061363b565b89838151811061183057fe5b60200260200101818152505088828151811061184857fe5b60200260200101516000146118dd5785818151811061186357fe5b6020026020010151600001518a838151811061187b57fe5b60200260200101906001600160a01b031690816001600160a01b0316815250506118b7670de0b6b3a76400006111898d8c868151811061174757fe5b8983815181106118c357fe5b602002602001018181525050600288838151811061178357fe5b600101611580565b5060006118f28583612bd3565b9050808a51038a52808951038952808851038852505050505050509250925092565b604080516001808252818301909252606091816020015b611933612fc4565b81526020019060019003908161192b57505060015481519192506001600160a01b031690829060009061196257fe5b6020908102919091018101516001600160a01b03909216909152604051600091611990918591899101613927565b6040516020818303038152906040529050600085516001600160401b03811180156119ba57600080fd5b506040519080825280602002602001820160405280156119e4578160200160208202803683370190505b5090507fab9c4b5ddd7431ce4a1757257f6705ebcd264d177caf1ba9789e00504a5e74ef888787848c8760c4604051602401611a2697969594939291906137e4565b604051602081830303815290604052906001600160e01b0319166020820180516001600160e01b03838183161783525050505083600081518110611a6657fe5b602002602001015160200181905250505095945050505050565b6060600080611a8f8685612c30565b9150915081516002026001600160401b0381118015611aad57600080fd5b50604051908082528060200260200182016040528015611ae757816020015b611ad4612fc4565b815260200190600190039081611acc5790505b5092506000805b8351811015611cce5760015485516001600160a01b0390911690869084908110611b1457fe5b6020026020010151600001906001600160a01b031690816001600160a01b0316815250507f69328decb93fdb59917f0c50856674b0c726498e4b54e9d908efd10636a216d7848281518110611b6557fe5b6020026020010151848381518110611b7957fe5b60200260200101518a604051602401611b9493929190613896565b604051602081830303815290604052906001600160e01b0319166020820180516001600160e01b038381831617835250505050858381518110611bd357fe5b6020026020010151602001819052508180600101925050838181518110611bf657fe5b6020026020010151858381518110611c0a57fe5b6020026020010151600001906001600160a01b031690816001600160a01b0316815250507fa9059cbb2ab09eb219583f4a59a5d0623ade346d962bcd4e46b11da047c9049b87848381518110611c5c57fe5b6020026020010151604051602401611c7592919061387d565b604051602081830303815290604052906001600160e01b0319166020820180516001600160e01b038381831617835250505050858381518110611cb457fe5b602090810291909101810151015260019182019101611aee565b505050509392505050565b606083516002026001600160401b0381118015611cf557600080fd5b50604051908082528060200260200182016040528015611d2f57816020015b611d1c612fc4565b815260200190600190039081611d145790505b5090506000805b8551811015611f1257858181518110611d4b57fe5b6020026020010151838381518110611d5f57fe5b60209081029190910101516001600160a01b0391821690526001548651600080516020613b0a833981519152929190911690879084908110611d9d57fe5b6020026020010151604051602401611db692919061387d565b604051602081830303815290604052906001600160e01b0319166020820180516001600160e01b038381831617835250505050838381518110611df557fe5b602090810291909101810151015260018054845191909301926001600160a01b031690849084908110611e2457fe5b6020026020010151600001906001600160a01b031690816001600160a01b0316815250507f573ade81da917875600753138ed8197ed3f106cda3a0b9d55b18d160638e02a9868281518110611e7557fe5b6020026020010151868381518110611e8957fe5b6020026020010151868481518110611e9d57fe5b60200260200101518a604051602401611eb994939291906138e9565b604051602081830303815290604052906001600160e01b0319166020820180516001600160e01b038381831617835250505050838381518110611ef857fe5b602090810291909101810151015260019182019101611d36565b5050949350505050565b6060600080611f2b8787612c30565b915091506000611f4660048451612abe90919063ffffffff16565b9050806001600160401b0381118015611f5e57600080fd5b50604051908082528060200260200182016040528015611f9857816020015b611f85612fc4565b815260200190600190039081611f7d5790505b5060408051600280825260608201835292965060009290916020830190803683370190505090508581600181518110611fcd57fe5b6001600160a01b03909216602092830291909101909101526000805b85518110156123b05760015487516001600160a01b039091169088908490811061200f57fe5b6020026020010151600001906001600160a01b031690816001600160a01b0316815250507f69328decb93fdb59917f0c50856674b0c726498e4b54e9d908efd10636a216d786828151811061206057fe5b602002602001015186838151811061207457fe5b60200260200101518d60405160240161208f93929190613896565b604051602081830303815290604052906001600160e01b0319166020820180516001600160e01b0383818316178352505050508783815181106120ce57fe5b6020026020010151602001819052508180600101925050876001600160a01b03168682815181106120fb57fe5b60200260200101516001600160a01b0316146123a85785818151811061211d57fe5b602002602001015187838151811061213157fe5b6020026020010151600001906001600160a01b031690816001600160a01b031681525050600080516020613b0a8339815191528986838151811061217157fe5b602002602001015160405160240161218a92919061387d565b604051602081830303815290604052906001600160e01b0319166020820180516001600160e01b0383818316178352505050508783815181106121c957fe5b60200260200101516020018190525081806001019250508581815181106121ec57fe5b60200260200101518360008151811061220157fe5b60200260200101906001600160a01b031690816001600160a01b0316815250508887838151811061222e57fe5b6020026020010151600001906001600160a01b031690816001600160a01b0316815250507f38ed1739ee07daf49933f1800d1a9bc8d39a6876ea11e643f9c4c39c66df0ee885828151811061227f57fe5b60200260200101516000858e6000196040516024016122a2959493929190613a23565b604051602081830303815290604052906001600160e01b0319166020820180516001600160e01b0383818316178352505050508783815181106122e157fe5b602002602001015160200181905250818060010192505085818151811061230457fe5b602002602001015187838151811061231857fe5b60209081029190910101516001600160a01b039091169052604051600080516020613b0a83398151915290612354908b90600090602401613861565b604051602081830303815290604052906001600160e01b0319166020820180516001600160e01b03838183161783525050505087838151811061239357fe5b60209081029190910181015101526001909101905b600101611fe9565b5060006123bd8483612bd3565b875103875250949998505050505050505050565b606060006123f560026123ef60028851612abe90919063ffffffff16565b90612b7b565b9050806001600160401b038111801561240d57600080fd5b5060405190808252806020026020018201604052801561244757816020015b612434612fc4565b81526020019060019003908161242c5790505b506040805160028082526060820183529294506000929091602083019080368337019050509050868160008151811061247c57fe5b60200260200101906001600160a01b031690816001600160a01b0316815250506000878482815181106124ab57fe5b60209081029190910101516001600160a01b039091169052604051600080516020613b0a833981519152906124e8908b906000199060240161387d565b604051602081830303815290604052906001600160e01b0319166020820180516001600160e01b03838183161783525050505084828151811061252757fe5b602090810291909101810151015260010160005b875181101561276957600061257f87838151811061255557fe5b602002602001015189848151811061256957fe5b6020026020010151612b7b90919063ffffffff16565b9050896001600160a01b031689838151811061259757fe5b60200260200101516001600160a01b0316146126b1578882815181106125b957fe5b6020026020010151846001815181106125ce57fe5b60200260200101906001600160a01b031690816001600160a01b0316815250508a8684815181106125fb57fe5b6020026020010151600001906001600160a01b031690816001600160a01b0316815250507f8803dbeef1adfe1a9306daa835152093f0a5085700e080f4de0d56162dfadb0981600019868f60001960405160240161265d959493929190613a62565b604051602081830303815290604052906001600160e01b0319166020820180516001600160e01b03838183161783525050505086848151811061269c57fe5b60209081029190910181015101526001909201915b8882815181106126bd57fe5b60200260200101518684815181106126d157fe5b60209081029190910101516001600160a01b039182169052600154604051600080516020613b0a8339815191529261270f921690849060240161387d565b604051602081830303815290604052906001600160e01b0319166020820180516001600160e01b03838183161783525050505086848151811061274e57fe5b6020908102919091018101510152506001918201910161253b565b508784828151811061277757fe5b60209081029190910101516001600160a01b039091169052604051600080516020613b0a833981519152906127b3908b90600090602401613861565b604051602081830303815290604052906001600160e01b0319166020820180516001600160e01b0383818316178352505050508482815181106127f257fe5b6020908102919091018101510152600101600061280f8483612bd3565b855103855250929998505050505050505050565b600080546040516334924edb60e21b8152829182918291829182916001600160a01b03169063d2493b6c9061285c908a9060040161379c565b60606040518083038186803b15801561287457600080fd5b505afa158015612888573d6000803e3d6000fd5b505050506040513d601f19601f820116820180604052508101906128ac919061318a565b919450925090506001600160a01b03831615612a3e576040516370a0823160e01b81526001600160a01b038416906370a08231906128ee908b9060040161379c565b60206040518083038186803b15801561290657600080fd5b505afa15801561291a573d6000803e3d6000fd5b505050506040513d601f19601f8201168201806040525081019061293e919061363b565b9550612a3b816001600160a01b03166370a082318a6040518263ffffffff1660e01b815260040161296f919061379c565b60206040518083038186803b15801561298757600080fd5b505afa15801561299b573d6000803e3d6000fd5b505050506040513d601f19601f820116820180604052508101906129bf919061363b565b6040516370a0823160e01b81526001600160a01b038516906370a08231906129eb908d9060040161379c565b60206040518083038186803b158015612a0357600080fd5b505afa158015612a17573d6000803e3d6000fd5b505050506040513d601f19601f820116820180604052508101906123ef919061363b565b94505b866001600160a01b031663313ce5676040518163ffffffff1660e01b815260040160206040518083038186803b158015612a7757600080fd5b505afa158015612a8b573d6000803e3d6000fd5b505050506040513d601f19601f82011682018060405250810190612aaf9190613653565b60ff1693505050509250925092565b600082612acd57506000610321565b82820282848281612ada57fe5b0414610a325760405162461bcd60e51b8152600401808060200182810382526021815260200180613ae96021913960400191505060405180910390fd5b6000808211612b6a576040805162461bcd60e51b815260206004820152601a602482015279536166654d6174683a206469766973696f6e206279207a65726f60301b604482015290519081900360640190fd5b818381612b7357fe5b049392505050565b600082820183811015610a32576040805162461bcd60e51b815260206004820152601b60248201527a536166654d6174683a206164646974696f6e206f766572666c6f7760281b604482015290519081900360640190fd5b600082821115612c2a576040805162461bcd60e51b815260206004820152601e60248201527f536166654d6174683a207375627472616374696f6e206f766572666c6f770000604482015290519081900360640190fd5b50900390565b6060806000846001600160a01b0316631e50a4a66040518163ffffffff1660e01b815260040160206040518083038186803b158015612c6e57600080fd5b505afa158015612c82573d6000803e3d6000fd5b505050506040513d601f19601f82011682018060405250810190612ca69190613136565b90506000816001600160a01b031663e5406dbf6040518163ffffffff1660e01b815260040160006040518083038186803b158015612ce357600080fd5b505afa158015612cf7573d6000803e3d6000fd5b505050506040513d6000823e601f3d908101601f19168201604052612d1f9190810190613374565b8051909150806001600160401b0381118015612d3a57600080fd5b50604051908082528060200260200182016040528015612d64578160200160208202803683370190505b509450806001600160401b0381118015612d7d57600080fd5b50604051908082528060200260200182016040528015612da7578160200160208202803683370190505b50935060008060005b83811015612f9c5760005485516001600160a01b039091169063d2493b6c90879084908110612ddb57fe5b6020026020010151600001516040518263ffffffff1660e01b8152600401612e03919061379c565b60606040518083038186803b158015612e1b57600080fd5b505afa158015612e2f573d6000803e3d6000fd5b505050506040513d601f19601f82011682018060405250810190612e53919061318a565b50909350506001600160a01b03831615612f94576040516370a0823160e01b81526001600160a01b038416906370a0823190612e93908d9060040161379c565b60206040518083038186803b158015612eab57600080fd5b505afa158015612ebf573d6000803e3d6000fd5b505050506040513d601f19601f82011682018060405250810190612ee3919061363b565b878381518110612eef57fe5b602002602001018181525050868281518110612f0757fe5b6020026020010151600014612f9457848181518110612f2257fe5b602002602001015160000151888381518110612f3a57fe5b60200260200101906001600160a01b031690816001600160a01b031681525050612f76670de0b6b3a76400006111898b8a868151811061174757fe5b878381518110612f8257fe5b60209081029190910101526001909101905b600101612db0565b506000612fa98483612bd3565b90508088510388528087510387525050505050509250929050565b60408051808201909152600081526060602082015290565b80356103c181613ac1565b600082601f830112612ff7578081fd5b8135602061300c61300783613aa4565b613a81565b8281528181019085830183850287018401881015613028578586fd5b855b8581101561304f57813561303d81613ac1565b8452928401929084019060010161302a565b5090979650505050505050565b600082601f83011261306c578081fd5b8135602061307c61300783613aa4565b8281528181019085830183850287018401881015613098578586fd5b855b8581101561304f5781358452928401929084019060010161309a565b600082601f8301126130c6578081fd5b81356001600160401b038111156130d957fe5b6130ec601f8201601f1916602001613a81565b818152846020838601011115613100578283fd5b816020850160208301379081016020019190915292915050565b60006020828403121561312b578081fd5b8135610a3281613ac1565b600060208284031215613147578081fd5b8151610a3281613ac1565b60008060408385031215613164578081fd5b823561316f81613ac1565b9150602083013561317f81613ac1565b809150509250929050565b60008060006060848603121561319e578081fd5b83516131a981613ac1565b60208501519093506131ba81613ac1565b60408501519092506131cb81613ac1565b809150509250925092565b600080600080606085870312156131eb578081fd5b84356131f681613ac1565b9350602085013561320681613ac1565b925060408501356001600160401b0380821115613221578283fd5b818701915087601f830112613234578283fd5b813581811115613242578384fd5b886020828501011115613253578384fd5b95989497505060200194505050565b60008060008060808587031215613277578182fd5b843561328281613ac1565b9350602085013561329281613ac1565b92506040850135915060608501356132a981613ac1565b939692955090935050565b60008060008060008060c087890312156132cc578384fd5b6132d587612fdc565b95506020870135945060408701356001600160401b03808211156132f7578586fd5b6133038a838b01612fe7565b95506060890135915080821115613318578384fd5b6133248a838b0161305c565b94506080890135915080821115613339578384fd5b6133458a838b0161305c565b935060a089013591508082111561335a578283fd5b5061336789828a0161305c565b9150509295509295509295565b60006020808385031215613386578182fd5b82516001600160401b038082111561339c578384fd5b818501915085601f8301126133af578384fd5b81516133bd61300782613aa4565b818152848101908486016040808502870188018b10156133db578889fd5b8896505b848710156134425780828c0312156133f5578889fd5b8051818101818110888211171561340857fe5b8252825161341581613ac1565b8152828901518015158114613428578a8bfd5b818a015284526001969096019592870192908101906133df565b50909998505050505050505050565b600060208284031215613462578081fd5b5035919050565b60006020828403121561347a578081fd5b81356001600160401b0381111561348f578182fd5b610e10848285016130b6565b600080604083850312156134ad578182fd5b82356001600160401b038111156134c2578283fd5b6134ce858286016130b6565b95602094909401359450505050565b6000806000606084860312156134f1578081fd5b83356001600160401b03811115613506578182fd5b613512868287016130b6565b9660208601359650604090950135949350505050565b6000806040838503121561353a578182fd5b82356001600160401b0381111561354f578283fd5b61355b858286016130b6565b925050602083013561317f81613ad9565b600080600060608486031215613580578081fd5b83356001600160401b03811115613595578182fd5b6135a1868287016130b6565b93505060208401356135b281613ad9565b929592945050506040919091013590565b6000806000606084860312156135d7578081fd5b83356001600160401b038111156135ec578182fd5b6135f8868287016130b6565b935050602084013561360981613ad9565b915060408401356131cb81613ad9565b60006020828403121561362a578081fd5b815161ffff81168114610a32578182fd5b60006020828403121561364c578081fd5b5051919050565b600060208284031215613664578081fd5b8151610a3281613ad9565b6000815180845260208085019450808401835b838110156136a75781516001600160a01b031687529582019590820190600101613682565b509495945050505050565b6000815180845260208085018081965082840281019150828601855b85811015613715578284038952815180516001600160a01b03168552850151604086860181905261370181870183613751565b9a87019a95505050908401906001016136ce565b5091979650505050505050565b6000815180845260208085019450808401835b838110156136a757815187529582019590820190600101613735565b60008151808452815b818110156137765760208185018101518683018201520161375a565b818111156137875782602083870101525b50601f01601f19169290920160200192915050565b6001600160a01b0391909116815260200190565b6001600160a01b03958616815293851660208501529190931660408301526060820192909252608081019190915260a00190565b600060018060a01b03808a16835260e0602084015261380660e084018a61366f565b8381036040850152613818818a613722565b9050838103606085015261382c8189613722565b9050818716608085015283810360a08501526138488187613751565b9250505060ff831660c083015298975050505050505050565b6001600160a01b0392909216825260ff16602082015260400190565b6001600160a01b03929092168252602082015260400190565b6001600160a01b0393841681526020810192909252909116604082015260600190565b600060018060a01b0385168252836020830152606060408301526138e060608301846136b2565b95945050505050565b6001600160a01b03948516815260208101939093526040830191909152909116606082015260800190565b600060208252610a3260208301846136b2565b60006040825261393a6040830185613722565b90508260208301529392505050565b90815260200190565b6001600160e01b031991909116815260200190565b600060208252610a326020830184613751565b6020808252601d908201527f63616e6e6f742072656d6f7665206e6f6e2d656d707479206173736574000000604082015260600190565b6939bbb0b82937baba32b960b11b815260200190565b630eecae8d60e31b815260200190565b6020808252601c908201527b1d5b9cdd5c1c1bdc9d1959081cdc195b99195c88185c1c1c9bdd985b60221b604082015260600190565b61ffff9290921682521515602082015260400190565b600086825260ff8616602083015260a06040830152613a4560a083018661366f565b6001600160a01b0394909416606083015250608001529392505050565b600086825285602083015260a06040830152613a4560a083018661366f565b6040518181016001600160401b0381118282101715613a9c57fe5b604052919050565b60006001600160401b03821115613ab757fe5b5060209081020190565b6001600160a01b0381168114613ad657600080fd5b50565b60ff81168114613ad657600080fdfe536166654d6174683a206d756c7469706c69636174696f6e206f766572666c6f77095ea7b334ae44009aa867bfb386f5c3b4b443ac6f0ee573fa91c4608fbadfbaa264697066735822122049e303bf85d4ee810294ee01821af3eb3e35d7ada33430a4ac46bca80115770c64736f6c63430007060033",
  "linkReferences": {},
  "deployedLinkReferences": {}
}