{
  "_format": "hh-sol-artifact-1",
  "contractName": "PoolManagerLogicV24",
  "sourceName": "contracts/v2.4.1/PoolManagerLogicV24.sol",
  "abi": [
    {
      "anonymous": false,
      "inputs": [
        {
          "indexed": true,
          "internalType": "address",
          "name": "fundAddress",
          "type": "address"
        },
        {
          "indexed": false,
          "internalType": "address",
          "name": "manager",
          "type": "address"
        },
        {
          "indexed": false,
          "internalType": "address",
          "name": "asset",
          "type": "address"
        },
        {
          "indexed": false,
          "internalType": "bool",
          "name": "isDeposit",
          "type": "bool"
        }
      ],
      "name": "AssetAdded",
      "type": "event"
    },
    {
      "anonymous": false,
      "inputs": [
        {
          "indexed": false,
          "internalType": "address",
          "name": "fundAddress",
          "type": "address"
        },
        {
          "indexed": false,
          "internalType": "address",
          "name": "manager",
          "type": "address"
        },
        {
          "indexed": false,
          "internalType": "address",
          "name": "asset",
          "type": "address"
        }
      ],
      "name": "AssetRemoved",
      "type": "event"
    },
    {
      "anonymous": false,
      "inputs": [
        {
          "indexed": false,
          "internalType": "uint256",
          "name": "newNumerator",
          "type": "uint256"
        },
        {
          "indexed": false,
          "internalType": "uint256",
          "name": "announcedFeeActivationTime",
          "type": "uint256"
        }
      ],
      "name": "ManagerFeeIncreaseAnnounced",
      "type": "event"
    },
    {
      "anonymous": false,
      "inputs": [],
      "name": "ManagerFeeIncreaseRenounced",
      "type": "event"
    },
    {
      "anonymous": false,
      "inputs": [
        {
          "indexed": false,
          "internalType": "address",
          "name": "fundAddress",
          "type": "address"
        },
        {
          "indexed": false,
          "internalType": "address",
          "name": "manager",
          "type": "address"
        },
        {
          "indexed": false,
          "internalType": "uint256",
          "name": "numerator",
          "type": "uint256"
        },
        {
          "indexed": false,
          "internalType": "uint256",
          "name": "denominator",
          "type": "uint256"
        }
      ],
      "name": "ManagerFeeSet",
      "type": "event"
    },
    {
      "anonymous": false,
      "inputs": [
        {
          "indexed": false,
          "internalType": "address",
          "name": "newManager",
          "type": "address"
        },
        {
          "indexed": false,
          "internalType": "string",
          "name": "newManagerName",
          "type": "string"
        }
      ],
      "name": "ManagerUpdated",
      "type": "event"
    },
    {
      "anonymous": false,
      "inputs": [
        {
          "indexed": false,
          "internalType": "address",
          "name": "poolLogic",
          "type": "address"
        },
        {
          "indexed": false,
          "internalType": "address",
          "name": "from",
          "type": "address"
        }
      ],
      "name": "PoolLogicSet",
      "type": "event"
    },
    {
      "inputs": [
        {
          "internalType": "address",
          "name": "member",
          "type": "address"
        }
      ],
      "name": "addMember",
      "outputs": [],
      "stateMutability": "nonpayable",
      "type": "function"
    },
    {
      "inputs": [
        {
          "internalType": "address[]",
          "name": "members",
          "type": "address[]"
        }
      ],
      "name": "addMembers",
      "outputs": [],
      "stateMutability": "nonpayable",
      "type": "function"
    },
    {
      "inputs": [
        {
          "internalType": "uint256",
          "name": "numerator",
          "type": "uint256"
        }
      ],
      "name": "announceManagerFeeIncrease",
      "outputs": [],
      "stateMutability": "nonpayable",
      "type": "function"
    },
    {
      "inputs": [],
      "name": "announcedFeeIncreaseNumerator",
      "outputs": [
        {
          "internalType": "uint256",
          "name": "",
          "type": "uint256"
        }
      ],
      "stateMutability": "view",
      "type": "function"
    },
    {
      "inputs": [],
      "name": "announcedFeeIncreaseTimestamp",
      "outputs": [
        {
          "internalType": "uint256",
          "name": "",
          "type": "uint256"
        }
      ],
      "stateMutability": "view",
      "type": "function"
    },
    {
      "inputs": [
        {
          "internalType": "address",
          "name": "asset",
          "type": "address"
        }
      ],
      "name": "assetBalance",
      "outputs": [
        {
          "internalType": "uint256",
          "name": "",
          "type": "uint256"
        }
      ],
      "stateMutability": "view",
      "type": "function"
    },
    {
      "inputs": [
        {
          "internalType": "address",
          "name": "asset",
          "type": "address"
        }
      ],
      "name": "assetDecimal",
      "outputs": [
        {
          "internalType": "uint256",
          "name": "",
          "type": "uint256"
        }
      ],
      "stateMutability": "view",
      "type": "function"
    },
    {
      "inputs": [
        {
          "internalType": "address",
          "name": "",
          "type": "address"
        }
      ],
      "name": "assetPosition",
      "outputs": [
        {
          "internalType": "uint256",
          "name": "",
          "type": "uint256"
        }
      ],
      "stateMutability": "view",
      "type": "function"
    },
    {
      "inputs": [
        {
          "internalType": "address",
          "name": "asset",
          "type": "address"
        },
        {
          "internalType": "uint256",
          "name": "amount",
          "type": "uint256"
        }
      ],
      "name": "assetValue",
      "outputs": [
        {
          "internalType": "uint256",
          "name": "",
          "type": "uint256"
        }
      ],
      "stateMutability": "view",
      "type": "function"
    },
    {
      "inputs": [
        {
          "internalType": "address",
          "name": "asset",
          "type": "address"
        }
      ],
      "name": "assetValue",
      "outputs": [
        {
          "internalType": "uint256",
          "name": "",
          "type": "uint256"
        }
      ],
      "stateMutability": "view",
      "type": "function"
    },
    {
      "inputs": [
        {
          "components": [
            {
              "internalType": "address",
              "name": "asset",
              "type": "address"
            },
            {
              "internalType": "bool",
              "name": "isDeposit",
              "type": "bool"
            }
          ],
          "internalType": "struct IHasSupportedAssetV24.Asset[]",
          "name": "_addAssets",
          "type": "tuple[]"
        },
        {
          "internalType": "address[]",
          "name": "_removeAssets",
          "type": "address[]"
        }
      ],
      "name": "changeAssets",
      "outputs": [],
      "stateMutability": "nonpayable",
      "type": "function"
    },
    {
      "inputs": [
        {
          "internalType": "address",
          "name": "newManager",
          "type": "address"
        },
        {
          "internalType": "string",
          "name": "newManagerName",
          "type": "string"
        }
      ],
      "name": "changeManager",
      "outputs": [],
      "stateMutability": "nonpayable",
      "type": "function"
    },
    {
      "inputs": [],
      "name": "commitManagerFeeIncrease",
      "outputs": [],
      "stateMutability": "nonpayable",
      "type": "function"
    },
    {
      "inputs": [],
      "name": "factory",
      "outputs": [
        {
          "internalType": "address",
          "name": "",
          "type": "address"
        }
      ],
      "stateMutability": "view",
      "type": "function"
    },
    {
      "inputs": [],
      "name": "getDepositAssets",
      "outputs": [
        {
          "internalType": "address[]",
          "name": "",
          "type": "address[]"
        }
      ],
      "stateMutability": "view",
      "type": "function"
    },
    {
      "inputs": [],
      "name": "getFundComposition",
      "outputs": [
        {
          "components": [
            {
              "internalType": "address",
              "name": "asset",
              "type": "address"
            },
            {
              "internalType": "bool",
              "name": "isDeposit",
              "type": "bool"
            }
          ],
          "internalType": "struct IHasSupportedAssetV24.Asset[]",
          "name": "assets",
          "type": "tuple[]"
        },
        {
          "internalType": "uint256[]",
          "name": "balances",
          "type": "uint256[]"
        },
        {
          "internalType": "uint256[]",
          "name": "rates",
          "type": "uint256[]"
        }
      ],
      "stateMutability": "view",
      "type": "function"
    },
    {
      "inputs": [],
      "name": "getManagerFee",
      "outputs": [
        {
          "internalType": "uint256",
          "name": "",
          "type": "uint256"
        },
        {
          "internalType": "uint256",
          "name": "",
          "type": "uint256"
        }
      ],
      "stateMutability": "view",
      "type": "function"
    },
    {
      "inputs": [],
      "name": "getManagerFeeIncreaseInfo",
      "outputs": [
        {
          "internalType": "uint256",
          "name": "",
          "type": "uint256"
        },
        {
          "internalType": "uint256",
          "name": "",
          "type": "uint256"
        }
      ],
      "stateMutability": "view",
      "type": "function"
    },
    {
      "inputs": [],
      "name": "getMaximumManagerFee",
      "outputs": [
        {
          "internalType": "uint256",
          "name": "",
          "type": "uint256"
        },
        {
          "internalType": "uint256",
          "name": "",
          "type": "uint256"
        }
      ],
      "stateMutability": "view",
      "type": "function"
    },
    {
      "inputs": [],
      "name": "getMaximumManagerFeeChange",
      "outputs": [
        {
          "internalType": "uint256",
          "name": "",
          "type": "uint256"
        }
      ],
      "stateMutability": "view",
      "type": "function"
    },
    {
      "inputs": [],
      "name": "getMembers",
      "outputs": [
        {
          "internalType": "address[]",
          "name": "",
          "type": "address[]"
        }
      ],
      "stateMutability": "view",
      "type": "function"
    },
    {
      "inputs": [],
      "name": "getSupportedAssets",
      "outputs": [
        {
          "components": [
            {
              "internalType": "address",
              "name": "asset",
              "type": "address"
            },
            {
              "internalType": "bool",
              "name": "isDeposit",
              "type": "bool"
            }
          ],
          "internalType": "struct IHasSupportedAssetV24.Asset[]",
          "name": "",
          "type": "tuple[]"
        }
      ],
      "stateMutability": "view",
      "type": "function"
    },
    {
      "inputs": [
        {
          "internalType": "address",
          "name": "_factory",
          "type": "address"
        },
        {
          "internalType": "address",
          "name": "_manager",
          "type": "address"
        },
        {
          "internalType": "string",
          "name": "_managerName",
          "type": "string"
        },
        {
          "internalType": "address",
          "name": "_poolLogic",
          "type": "address"
        },
        {
          "internalType": "uint256",
          "name": "_performanceFeeNumerator",
          "type": "uint256"
        },
        {
          "components": [
            {
              "internalType": "address",
              "name": "asset",
              "type": "address"
            },
            {
              "internalType": "bool",
              "name": "isDeposit",
              "type": "bool"
            }
          ],
          "internalType": "struct IHasSupportedAssetV24.Asset[]",
          "name": "_supportedAssets",
          "type": "tuple[]"
        }
      ],
      "name": "initialize",
      "outputs": [],
      "stateMutability": "nonpayable",
      "type": "function"
    },
    {
      "inputs": [
        {
          "internalType": "address",
          "name": "asset",
          "type": "address"
        }
      ],
      "name": "isDepositAsset",
      "outputs": [
        {
          "internalType": "bool",
          "name": "",
          "type": "bool"
        }
      ],
      "stateMutability": "view",
      "type": "function"
    },
    {
      "inputs": [
        {
          "internalType": "address",
          "name": "member",
          "type": "address"
        }
      ],
      "name": "isMemberAllowed",
      "outputs": [
        {
          "internalType": "bool",
          "name": "",
          "type": "bool"
        }
      ],
      "stateMutability": "view",
      "type": "function"
    },
    {
      "inputs": [
        {
          "internalType": "address",
          "name": "asset",
          "type": "address"
        }
      ],
      "name": "isSupportedAsset",
      "outputs": [
        {
          "internalType": "bool",
          "name": "",
          "type": "bool"
        }
      ],
      "stateMutability": "view",
      "type": "function"
    },
    {
      "inputs": [],
      "name": "manager",
      "outputs": [
        {
          "internalType": "address",
          "name": "",
          "type": "address"
        }
      ],
      "stateMutability": "view",
      "type": "function"
    },
    {
      "inputs": [],
      "name": "managerName",
      "outputs": [
        {
          "internalType": "string",
          "name": "",
          "type": "string"
        }
      ],
      "stateMutability": "view",
      "type": "function"
    },
    {
      "inputs": [],
      "name": "numberOfMembers",
      "outputs": [
        {
          "internalType": "uint256",
          "name": "",
          "type": "uint256"
        }
      ],
      "stateMutability": "view",
      "type": "function"
    },
    {
      "inputs": [],
      "name": "performanceFeeNumerator",
      "outputs": [
        {
          "internalType": "uint256",
          "name": "",
          "type": "uint256"
        }
      ],
      "stateMutability": "view",
      "type": "function"
    },
    {
      "inputs": [],
      "name": "poolLogic",
      "outputs": [
        {
          "internalType": "address",
          "name": "",
          "type": "address"
        }
      ],
      "stateMutability": "view",
      "type": "function"
    },
    {
      "inputs": [
        {
          "internalType": "address",
          "name": "member",
          "type": "address"
        }
      ],
      "name": "removeMember",
      "outputs": [],
      "stateMutability": "nonpayable",
      "type": "function"
    },
    {
      "inputs": [
        {
          "internalType": "address[]",
          "name": "members",
          "type": "address[]"
        }
      ],
      "name": "removeMembers",
      "outputs": [],
      "stateMutability": "nonpayable",
      "type": "function"
    },
    {
      "inputs": [],
      "name": "removeTrader",
      "outputs": [],
      "stateMutability": "nonpayable",
      "type": "function"
    },
    {
      "inputs": [],
      "name": "renounceManagerFeeIncrease",
      "outputs": [],
      "stateMutability": "nonpayable",
      "type": "function"
    },
    {
      "inputs": [
        {
          "internalType": "uint256",
          "name": "numerator",
          "type": "uint256"
        }
      ],
      "name": "setPerformanceFeeNumerator",
      "outputs": [],
      "stateMutability": "nonpayable",
      "type": "function"
    },
    {
      "inputs": [
        {
          "internalType": "address",
          "name": "_poolLogic",
          "type": "address"
        }
      ],
      "name": "setPoolLogic",
      "outputs": [
        {
          "internalType": "bool",
          "name": "",
          "type": "bool"
        }
      ],
      "stateMutability": "nonpayable",
      "type": "function"
    },
    {
      "inputs": [
        {
          "internalType": "address",
          "name": "newTrader",
          "type": "address"
        }
      ],
      "name": "setTrader",
      "outputs": [],
      "stateMutability": "nonpayable",
      "type": "function"
    },
    {
      "inputs": [
        {
          "internalType": "uint256",
          "name": "",
          "type": "uint256"
        }
      ],
      "name": "supportedAssets",
      "outputs": [
        {
          "internalType": "address",
          "name": "asset",
          "type": "address"
        },
        {
          "internalType": "bool",
          "name": "isDeposit",
          "type": "bool"
        }
      ],
      "stateMutability": "view",
      "type": "function"
    },
    {
      "inputs": [],
      "name": "totalFundValue",
      "outputs": [
        {
          "internalType": "uint256",
          "name": "",
          "type": "uint256"
        }
      ],
      "stateMutability": "view",
      "type": "function"
    },
    {
      "inputs": [],
      "name": "trader",
      "outputs": [
        {
          "internalType": "address",
          "name": "",
          "type": "address"
        }
      ],
      "stateMutability": "view",
      "type": "function"
    },
    {
      "inputs": [
        {
          "internalType": "address",
          "name": "asset",
          "type": "address"
        }
      ],
      "name": "validateAsset",
      "outputs": [
        {
          "internalType": "bool",
          "name": "",
          "type": "bool"
        }
      ],
      "stateMutability": "view",
      "type": "function"
    }
  ],
  "bytecode": "0x608060405234801561001057600080fd5b50612f1c806100206000396000f3fe608060405234801561001057600080fd5b50600436106101fe5760003560e01c80639240d299116101165780639240d2991461036f57806394d0d23b146103825780639be918e61461038a5780639eab52531461039d578063a30e3fa9146103b2578063a6bc18f9146103ba578063ad60ffcc146103cd578063b74a68d7146103d5578063b8bd81e6146103dd578063bbbf725b146103e5578063bdbef07d146103f8578063c45a01551461040b578063c68dbb3714610413578063ca6d56dc14610434578063cd88e55814610447578063d8af8ed41461045a578063e5406dbf1461046d578063ed5b165d14610482578063f09d14d71461048a578063fc43863f146104a1578063fed4416a146104a9576101fe565b80630b1ca49a146102035780631758078b1461021857806319150ed114610236578063198055381461024b57806329c07fba1461026157806339b81fd9146102745780633c570d7d1461027c5780633e9150381461028f57806346ee84b0146102a2578063481c6a75146102b557806352213663146102bd57806353f064c9146102d0578063560a4a3d146102e35780636e890f3c146102f65780636f4d469b146102fe57806370999382146103115780637b4d0c63146103245780637c8afd511461032c5780638e10153d146103345780638f323439146103545780638fd04b671461035c575b600080fd5b6102166102113660046125b1565b6104be565b005b610220610530565b60405161022d91906129cb565b60405180910390f35b61023e61053f565b60405161022d9190612e3a565b6102536105c1565b60405161022d929190612e43565b61023e61026f366004612758565b610658565b61022061070f565b61023e61028a3660046125b1565b61071e565b61021661029d3660046128f9565b610730565b6102166102b0366004612783565b6107b8565b610220610865565b6102166102cb3660046126bd565b61087a565b6102166102de3660046128f9565b6109ff565b6102166102f136600461282f565b610b92565b610216610c49565b61021661030c366004612783565b610cd6565b61023e61031f3660046125b1565b610d73565b61023e610e80565b610216610e86565b6103476103423660046125b1565b610eec565b60405161022d9190612b27565b61023e61109e565b61021661036a3660046125e9565b6110a4565b61034761037d3660046125b1565b61126b565b6102536112ec565b6103476103983660046125b1565b611371565b6103a561138e565b60405161022d9190612a84565b61023e6113f0565b6102166103c83660046125b1565b6113f6565b61023e6114b8565b61023e611510565b610216611516565b6103476103f33660046125b1565b61159f565b6103476104063660046125b1565b6115bc565b610220611613565b6104266104213660046128f9565b611622565b60405161022d929190612a69565b6102166104423660046125b1565b611657565b61023e6104553660046125b1565b6116c7565b61023e6104683660046125b1565b611781565b610475611790565b60405161022d9190612ad1565b610253611808565b610492611812565b60405161022d93929190612ae4565b6103a5611a60565b6104b1611b63565b60405161022d9190612b32565b6000546201000090046001600160a01b03163314610512576040805162461bcd60e51b815260206004820152600c60248201526b37b7363c9036b0b730b3b2b960a11b604482015290519081900360640190fd5b61051b8161159f565b6105245761052d565b61052d81611bf0565b50565b6004546001600160a01b031690565b60055460408051636bb9347360e11b815290516000926001600160a01b03169163d77268e6916004808301926020929190829003018186803b15801561058457600080fd5b505afa158015610598573d6000803e3d6000fd5b505050506040513d601f19601f820116820180604052508101906105bc9190612911565b905090565b6000806000600560009054906101000a90046001600160a01b03166001600160a01b03166394d0d23b6040518163ffffffff1660e01b8152600401604080518083038186803b15801561061357600080fd5b505afa158015610627573d6000803e3d6000fd5b505050506040513d601f19601f8201168201806040525081019061064b9190612929565b600b549450925050509091565b60055460405163b3596f0760e01b815260009182916001600160a01b039091169063b3596f079061068d9087906004016129cb565b60206040518083038186803b1580156106a557600080fd5b505afa1580156106b9573d6000803e3d6000fd5b505050506040513d601f19601f820116820180604052508101906106dd9190612911565b905060006106ea85610d73565b9050610704600a82900a6106fe8487611ce9565b90611d49565b925050505b92915050565b6006546001600160a01b031681565b60086020526000908152604090205481565b6000546201000090046001600160a01b03163314610784576040805162461bcd60e51b815260206004820152600c60248201526b37b7363c9036b0b730b3b2b960a11b604482015290519081900360640190fd5b600b548111156107af5760405162461bcd60e51b81526004016107a690612c6c565b60405180910390fd5b61052d81611dad565b6000546201000090046001600160a01b0316331461080c576040805162461bcd60e51b815260206004820152600c60248201526b37b7363c9036b0b730b3b2b960a11b604482015290519081900360640190fd5b60005b81518110156108615761083482828151811061082757fe5b602002602001015161159f565b61083d57610859565b61085982828151811061084c57fe5b6020026020010151611bf0565b60010161080f565b5050565b6000546201000090046001600160a01b031681565b6000546201000090046001600160a01b031633146108ce576040805162461bcd60e51b815260206004820152600c60248201526b37b7363c9036b0b730b3b2b960a11b604482015290519081900360640190fd5b6001600160a01b03821661091b576040805162461bcd60e51b815260206004820152600f60248201526e24b73b30b634b21036b0b730b3b2b960891b604482015290519081900360640190fd5b6000805462010000600160b01b031916620100006001600160a01b0385160217905580516109509060019060208401906124a5565b507f6ed15082ad038474841528b5badca105106d4463e44b5d434130dfb299aa3669828260405180836001600160a01b0316815260200180602001828103825283818151815260200191508051906020019080838360005b838110156109c05781810151838201526020016109a8565b50505050905090810190601f1680156109ed5780820380516001836020036101000a031916815260200191505b50935050505060405180910390a15050565b6000546201000090046001600160a01b03163314610a53576040805162461bcd60e51b815260206004820152600c60248201526b37b7363c9036b0b730b3b2b960a11b604482015290519081900360640190fd5b600080610a5e6112ec565b915091506000610a6c61053f565b905081841115610a8e5760405162461bcd60e51b81526004016107a690612c9a565b828411158015610aaa5750600b54610aa69082611e49565b8411155b610ac65760405162461bcd60e51b81526004016107a690612daa565b600554604080516332dbceef60e21b815290516000926001600160a01b03169163cb6f3bbc916004808301926020929190829003018186803b158015610b0b57600080fd5b505afa158015610b1f573d6000803e3d6000fd5b505050506040513d601f19601f82011682018060405250810190610b439190612911565b6009869055428101600a8190556040519192507f4db9119741646c419f1ceccdf112b5b9a9b4516355e742e1fa9c479f4dec98da91610b83918891612e43565b60405180910390a15050505050565b6000546201000090046001600160a01b0316331480610bbb57506004546001600160a01b031633145b610c05576040805162461bcd60e51b815260206004820152601660248201527537b7363c9036b0b730b3b2b91037b9103a3930b232b960511b604482015290519081900360640190fd5b610c438484848480806020026020016040519081016040528093929190818152602001838360200280828437600092019190915250611ea192505050565b50505050565b6000546201000090046001600160a01b03163314610c9d576040805162461bcd60e51b815260206004820152600c60248201526b37b7363c9036b0b730b3b2b960a11b604482015290519081900360640190fd5b600a54421015610cbf5760405162461bcd60e51b81526004016107a690612cc4565b610cca600954611dad565b60006009819055600a55565b6000546201000090046001600160a01b03163314610d2a576040805162461bcd60e51b815260206004820152600c60248201526b37b7363c9036b0b730b3b2b960a11b604482015290519081900360640190fd5b60005b815181101561086157610d4582828151811061082757fe5b15610d4f57610d6b565b610d6b828281518110610d5e57fe5b6020026020010151611fe0565b600101610d2d565b600554604051633f30232f60e21b815260009182916001600160a01b039091169063fcc08cbc90610da89086906004016129cb565b60206040518083038186803b158015610dc057600080fd5b505afa158015610dd4573d6000803e3d6000fd5b505050506040513d601f19601f82011682018060405250810190610df891906125cd565b60405163067aa55560e51b81529091506001600160a01b0382169063cf54aaa090610e279086906004016129cb565b60206040518083038186803b158015610e3f57600080fd5b505afa158015610e53573d6000803e3d6000fd5b505050506040513d601f19601f82011682018060405250810190610e779190612911565b9150505b919050565b600a5481565b6000546201000090046001600160a01b03163314610eda576040805162461bcd60e51b815260206004820152600c60248201526b37b7363c9036b0b730b3b2b960a11b604482015290519081900360640190fd5b600480546001600160a01b0319169055565b600080600560009054906101000a90046001600160a01b03166001600160a01b0316638da5cb5b6040518163ffffffff1660e01b815260040160206040518083038186803b158015610f3d57600080fd5b505afa158015610f51573d6000803e3d6000fd5b505050506040513d601f19601f82011682018060405250810190610f7591906125cd565b9050336001600160a01b03821614610f9f5760405162461bcd60e51b81526004016107a690612bac565b306001600160a01b0316836001600160a01b0316631e50a4a66040518163ffffffff1660e01b815260040160206040518083038186803b158015610fe257600080fd5b505afa158015610ff6573d6000803e3d6000fd5b505050506040513d601f19601f8201168201806040525081019061101a91906125cd565b6001600160a01b0316146110405760405162461bcd60e51b81526004016107a690612c15565b600680546001600160a01b0319166001600160a01b0385161790556040517f8c1446ebd2ac8c922b8c9716dfbdfcfef02c9fc167140d7cfd019565b423b2499061108d90859033906129df565b60405180910390a150600192915050565b60095481565b600054610100900460ff16806110bd57506110bd61203c565b806110cb575060005460ff16155b6111065760405162461bcd60e51b815260040180806020018281038252602e815260200180612e98602e913960400191505060405180910390fd5b600054610100900460ff16158015611131576000805460ff1961ff0019909116610100171660011790555b6001600160a01b0389166111575760405162461bcd60e51b81526004016107a690612d81565b6001600160a01b03881661117d5760405162461bcd60e51b81526004016107a690612d58565b6001600160a01b0385166111a35760405162461bcd60e51b81526004016107a690612c41565b6111e38888888080601f01602080910402602001604051908101604052809392919081815260200183838082843760009201919091525061204d92505050565b600580546001600160a01b03808c166001600160a01b0319928316179092556006805492881692909116919091179055600b84905561124e83836000604051908082528060200260200182016040528015611248578160200160208202803683370190505b50611ea1565b8015611260576000805461ff00191690555b505050505050505050565b60055460405163cc435bf360e01b81526000916001600160a01b03169063cc435bf39061129c9085906004016129cb565b60206040518083038186803b1580156112b457600080fd5b505afa1580156112c8573d6000803e3d6000fd5b505050506040513d601f19601f8201168201806040525081019061070991906128dd565b600554604080516394d0d23b60e01b8152815160009384936001600160a01b03909116926394d0d23b9260048083019392829003018186803b15801561133157600080fd5b505afa158015611345573d6000803e3d6000fd5b505050506040513d601f19601f820116820180604052508101906113699190612929565b915091509091565b6001600160a01b0316600090815260086020526040902054151590565b606060028054806020026020016040519081016040528092919081815260200182805480156113e657602002820191906000526020600020905b81546001600160a01b031681526001909101906020018083116113c8575b5050505050905090565b60025490565b6000546201000090046001600160a01b0316331461144a576040805162461bcd60e51b815260206004820152600c60248201526b37b7363c9036b0b730b3b2b960a11b604482015290519081900360640190fd5b6001600160a01b038116611496576040805162461bcd60e51b815260206004820152600e60248201526d24b73b30b634b2103a3930b232b960911b604482015290519081900360640190fd5b600480546001600160a01b0319166001600160a01b0392909216919091179055565b6007546000908190815b81811015611508576114fe6114f7600783815481106114dd57fe5b6000918252602090912001546001600160a01b0316611781565b8490611e49565b92506001016114c2565b509091505090565b600b5481565b6000546201000090046001600160a01b0316331461156a576040805162461bcd60e51b815260206004820152600c60248201526b37b7363c9036b0b730b3b2b960a11b604482015290519081900360640190fd5b60006009819055600a8190556040517fc6f04bf43cbdf1ba5d51b4afa160bb3c7e13858b1409aa32868b239bb2f8d8499190a1565b6001600160a01b0316600090815260036020526040902054151590565b6001600160a01b0381166000908152600860205260408120548015801590610e77575060076115ec8260016120cf565b815481106115f657fe5b600091825260209091200154600160a01b900460ff169392505050565b6005546001600160a01b031681565b6007818154811061163257600080fd5b6000918252602090912001546001600160a01b0381169150600160a01b900460ff1682565b6000546201000090046001600160a01b031633146116ab576040805162461bcd60e51b815260206004820152600c60248201526b37b7363c9036b0b730b3b2b960a11b604482015290519081900360640190fd5b6116b48161159f565b156116be5761052d565b61052d81611fe0565b600554604051633f30232f60e21b815260009182916001600160a01b039091169063fcc08cbc906116fc9086906004016129cb565b60206040518083038186803b15801561171457600080fd5b505afa158015611728573d6000803e3d6000fd5b505050506040513d601f19601f8201168201806040525081019061174c91906125cd565b60065460405163d4fac45d60e01b81529192506001600160a01b038084169263d4fac45d92610e2792169087906004016129df565b60006107098261026f846116c7565b60606007805480602002602001604051908101604052809291908181526020016000905b828210156117ff57600084815260209081902060408051808201909152908401546001600160a01b0381168252600160a01b900460ff161515818301528252600190920191016117b4565b50505050905090565b600954600a549091565b60075460609081908190806001600160401b038111801561183257600080fd5b5060405190808252806020026020018201604052801561186c57816020015b611859612531565b8152602001906001900390816118515790505b509350806001600160401b038111801561188557600080fd5b506040519080825280602002602001820160405280156118af578160200160208202803683370190505b509250806001600160401b03811180156118c857600080fd5b506040519080825280602002602001820160405280156118f2578160200160208202803683370190505b50915060005b818160ff161015611a5957600060078260ff168154811061191557fe5b6000918252602090912001546001600160a01b03169050611935816116c7565b858360ff168151811061194457fe5b60200260200101818152505060078260ff168154811061196057fe5b6000918252602091829020604080518082019091529101546001600160a01b038116825260ff600160a01b90910481161515928201929092528751909188919085169081106119ab57fe5b602090810291909101015260055460405163b3596f0760e01b81526001600160a01b039091169063b3596f07906119e69084906004016129cb565b60206040518083038186803b1580156119fe57600080fd5b505afa158015611a12573d6000803e3d6000fd5b505050506040513d601f19601f82011682018060405250810190611a369190612911565b848360ff1681518110611a4557fe5b6020908102919091010152506001016118f8565b5050909192565b6007546060906000816001600160401b0381118015611a7e57600080fd5b50604051908082528060200260200182016040528015611aa8578160200160208202803683370190505b5090506000805b838160ff161015611b455760078160ff1681548110611aca57fe5b600091825260209091200154600160a01b900460ff1615611b3d5760078160ff1681548110611af557fe5b60009182526020909120015483516001600160a01b0390911690849060ff8516908110611b1e57fe5b6001600160a01b03909216602092830291909101909101526001909101905b600101611aaf565b506000611b558460ff84166120cf565b835103835250909250505090565b60018054604080516020600284861615610100026000190190941693909304601f81018490048402820184019092528181529291830182828015611be85780601f10611bbd57610100808354040283529160200191611be8565b820191906000526020600020905b815481529060010190602001808311611bcb57829003601f168201915b505050505081565b6002546001600160a01b038216600090815260036020526040812054611c179060016120cf565b905060006002611c288460016120cf565b81548110611c3257fe5b600091825260209091200154600280546001600160a01b039092169250829184908110611c5b57fe5b600091825260209091200180546001600160a01b0319166001600160a01b0392909216919091179055611c8f826001611e49565b6001600160a01b03808316600090815260036020526040808220939093559086168152908120556002805480611cc157fe5b600082815260209020810160001990810180546001600160a01b031916905501905550505050565b600082611cf857506000610709565b82820282848281611d0557fe5b0414611d425760405162461bcd60e51b8152600401808060200182810382526021815260200180612ec66021913960400191505060405180910390fd5b9392505050565b6000808211611d9c576040805162461bcd60e51b815260206004820152601a602482015279536166654d6174683a206469766973696f6e206279207a65726f60301b604482015290519081900360640190fd5b818381611da557fe5b049392505050565b600080611db86112ec565b91509150808311158015611dcc5750818311155b611de85760405162461bcd60e51b81526004016107a690612ddd565b600b8390556006546000546040517f1780c04ddc6f0b32d866c7a3d7583f53515ef49ed2126af868f804f49160126692611e3c926001600160a01b0391821692620100009091049091169087908690612a40565b60405180910390a1505050565b600082820183811015611d42576040805162461bcd60e51b815260206004820152601b60248201527a536166654d6174683a206164646974696f6e206f766572666c6f7760281b604482015290519081900360640190fd5b60005b81518160ff161015611ed757611ecf828260ff1681518110611ec257fe5b602002602001015161212c565b600101611ea4565b5060005b60ff8116831115611f0b57611f0384848360ff16818110611ef857fe5b9050604002016122f8565b600101611edb565b50600560009054906101000a90046001600160a01b03166001600160a01b031663aa12ae4d6040518163ffffffff1660e01b815260040160206040518083038186803b158015611f5a57600080fd5b505afa158015611f6e573d6000803e3d6000fd5b505050506040513d601f19601f82011682018060405250810190611f929190612911565b60075410611fb25760405162461bcd60e51b81526004016107a690612e0a565b6001611fbc611a60565b511015611fdb5760405162461bcd60e51b81526004016107a690612d24565b505050565b600280546001810182557f405787fa12a823e0f2b7631cc41b3ba8828b3321ca811111fa75cd3aa3bb5ace0180546001600160a01b039093166001600160a01b0319909316831790555460009182526003602052604090912055565b60006120473061249f565b15905090565b6001600160a01b03821661209a576040805162461bcd60e51b815260206004820152600f60248201526e24b73b30b634b21036b0b730b3b2b960891b604482015290519081900360640190fd5b6000805462010000600160b01b031916620100006001600160a01b038516021790558051611fdb9060019060208401906124a5565b600082821115612126576040805162461bcd60e51b815260206004820152601e60248201527f536166654d6174683a207375627472616374696f6e206f766572666c6f770000604482015290519081900360640190fd5b50900390565b61213581611371565b6121515760405162461bcd60e51b81526004016107a690612cf7565b61215a816116c7565b156121775760405162461bcd60e51b81526004016107a690612bde565b600780549060009061218a8360016120cf565b8154811061219457fe5b6000918252602080832060408051808201825293909101546001600160a01b038082168552600160a01b90910460ff161515848401528716845260089091528220549092506121e49060016120cf565b905081600782815481106121f457fe5b600091825260209182902083519101805493909201511515600160a01b0260ff60a01b196001600160a01b039092166001600160a01b03199094169390931716919091179055612245816001611e49565b82516001600160a01b0390811660009081526008602052604080822093909355908616815290812055600780548061227957fe5b600082815260208120820160001990810180546001600160a81b031916905590910190915560065490546040517f9b4f55639e5e283319baee5bc4e69a5625a8e3a1cc004af968f4fee725022027926122ea926001600160a01b0391821692620100009091049091169088906129f9565b60405180910390a150505050565b600061230760208301836125b1565b9050600061231b60408401602085016128c1565b90506123268261126b565b6123425760405162461bcd60e51b81526004016107a690612b85565b61234b82611371565b156123af576001600160a01b0382166000908152600860205260408120546123749060016120cf565b9050816007828154811061238457fe5b60009182526020909120018054911515600160a01b0260ff60a01b1990921691909117905550612443565b6040805180820182526001600160a01b03808516808352841515602080850191825260078054600181018255600082815296517fa66cc928b5edb82af9bd49922954155ab7b0942694bea4ce44661d9a8736c688909101805494511515600160a01b0260ff60a01b19929097166001600160a01b031990951694909417169490941790915591549083526008909152919020555b6006546000546040516001600160a01b03928316927fdb9319bd5f91884f639cec9a5e01b183bedb3e6a3ab459b6e72c0b1264e7742b9261249292620100009091049091169086908690612a1c565b60405180910390a2505050565b3b151590565b828054600181600116156101000203166002900490600052602060002090601f0160209004810192826124db5760008555612521565b82601f106124f457805160ff1916838001178555612521565b82800160010185558215612521579182015b82811115612521578251825591602001919060010190612506565b5061252d929150612548565b5090565b604080518082019091526000808252602082015290565b5b8082111561252d5760008155600101612549565b8035610e7b81612e74565b60008083601f840112612579578182fd5b5081356001600160401b0381111561258f578182fd5b6020830191508360206040830285010111156125aa57600080fd5b9250929050565b6000602082840312156125c2578081fd5b8135611d4281612e74565b6000602082840312156125de578081fd5b8151611d4281612e74565b60008060008060008060008060c0898b031215612604578384fd5b883561260f81612e74565b9750602089013561261f81612e74565b965060408901356001600160401b038082111561263a578586fd5b818b0191508b601f83011261264d578586fd5b81358181111561265b578687fd5b8c602082850101111561266c578687fd5b602083019850965061268060608c0161255d565b955060808b0135945060a08b013591508082111561269c578384fd5b506126a98b828c01612568565b999c989b5096995094979396929594505050565b600080604083850312156126cf578182fd5b82356126da81612e74565b91506020838101356001600160401b03808211156126f6578384fd5b818601915086601f830112612709578384fd5b81358181111561271557fe5b612727601f8201601f19168501612e51565b9150808252878482850101111561273c578485fd5b8084840185840137810190920192909252919491935090915050565b6000806040838503121561276a578182fd5b823561277581612e74565b946020939093013593505050565b60006020808385031215612795578182fd5b82356001600160401b03808211156127ab578384fd5b818501915085601f8301126127be578384fd5b8135818111156127ca57fe5b83810291506127da848301612e51565b8181528481019084860184860187018a10156127f4578788fd5b8795505b83861015612822578035945061280d85612e74565b848352600195909501949186019186016127f8565b5098975050505050505050565b60008060008060408587031215612844578384fd5b84356001600160401b038082111561285a578586fd5b61286688838901612568565b9096509450602087013591508082111561287e578384fd5b818701915087601f830112612891578384fd5b81358181111561289f578485fd5b88602080830285010111156128b2578485fd5b95989497505060200194505050565b6000602082840312156128d2578081fd5b8135611d4281612e89565b6000602082840312156128ee578081fd5b8151611d4281612e89565b60006020828403121561290a578081fd5b5035919050565b600060208284031215612922578081fd5b5051919050565b6000806040838503121561293b578182fd5b505080516020909101519092909150565b6000815180845260208085019450808401835b8381101561299157815180516001600160a01b031688528301511515838801526040909601959082019060010161295f565b509495945050505050565b6000815180845260208085019450808401835b83811015612991578151875295820195908201906001016129af565b6001600160a01b0391909116815260200190565b6001600160a01b0392831681529116602082015260400190565b6001600160a01b0393841681529183166020830152909116604082015260600190565b6001600160a01b039384168152919092166020820152901515604082015260600190565b6001600160a01b0394851681529290931660208301526040820152606081019190915260800190565b6001600160a01b039290921682521515602082015260400190565b6020808252825182820181905260009190848201906040850190845b81811015612ac55783516001600160a01b031683529284019291840191600101612aa0565b50909695505050505050565b600060208252611d42602083018461294c565b600060608252612af7606083018661294c565b8281036020840152612b09818661299c565b90508281036040840152612b1d818561299c565b9695505050505050565b901515815260200190565b6000602080835283518082850152825b81811015612b5e57858101830151858201604001528201612b42565b81811115612b6f5783604083870101525b50601f01601f1916929092016040019392505050565b6020808252600d908201526c1a5b9d985b1a5908185cdcd95d609a1b604082015260600190565b6020808252601890820152771bdb9b1e48111053c81859191c995cdcc8185b1b1bddd95960421b604082015260600190565b6020808252601d908201527f63616e6e6f742072656d6f7665206e6f6e2d656d707479206173736574000000604082015260600190565b602080825260129082015271696e76616c696420706f6f6c206c6f67696360701b604082015260600190565b602080825260119082015270496e76616c696420706f6f6c4c6f67696360781b604082015260600190565b6020808252601490820152730dac2dcc2cecae440cccaca40e8dede40d0d2ced60631b604082015260600190565b60208082526010908201526f34b73b30b634b210333930b1ba34b7b760811b604082015260600190565b60208082526019908201527866656520696e6372656173652064656c61792061637469766560381b604082015260600190565b602080825260139082015272185cdcd95d081b9bdd081cdd5c1c1bdc9d1959606a1b604082015260600190565b6020808252601a9082015279185d081b19585cdd081bdb994819195c1bdcda5d08185cdcd95d60321b604082015260600190565b6020808252600f908201526e24b73b30b634b21036b0b730b3b2b960891b604082015260600190565b6020808252600f908201526e496e76616c696420666163746f727960881b604082015260600190565b602080825260199082015278657863656564656420616c6c6f77656420696e63726561736560381b604082015260600190565b602080825260139082015272696e76616c6964206d616e616765722066656560681b604082015260600190565b6020808252601690820152751b585e1a5b5d5b48185cdcd95d1cc81c995858da195960521b604082015260600190565b90815260200190565b918252602082015260400190565b6040518181016001600160401b0381118282101715612e6c57fe5b604052919050565b6001600160a01b038116811461052d57600080fd5b801515811461052d57600080fdfe496e697469616c697a61626c653a20636f6e747261637420697320616c726561647920696e697469616c697a6564536166654d6174683a206d756c7469706c69636174696f6e206f766572666c6f77a26469706673582212201038f02bf323acc762983f81a37539b3f6f9c0be3d0d95f29b4dc6042f6a090d64736f6c63430007060033",
  "linkReferences": {},
  "deployedLinkReferences": {}
}