{
  "_format": "hh-sol-artifact-1",
  "contractName": "DhedgeVeloV2UniV2Router",
  "sourceName": "contracts/routers/DhedgeVeloV2UniV2Router.sol",
  "abi": [
    {
      "inputs": [
        {
          "internalType": "contract IVelodromeV2Router",
          "name": "_velodromeV2Router",
          "type": "address"
        },
        {
          "internalType": "contract IVelodromeV2Factory",
          "name": "_velodromeV2Factory",
          "type": "address"
        }
      ],
      "stateMutability": "nonpayable",
      "type": "constructor"
    },
    {
      "inputs": [
        {
          "internalType": "uint256",
          "name": "",
          "type": "uint256"
        },
        {
          "internalType": "address[]",
          "name": "path",
          "type": "address[]"
        }
      ],
      "name": "getAmountsIn",
      "outputs": [
        {
          "internalType": "uint256[]",
          "name": "amountsIn",
          "type": "uint256[]"
        }
      ],
      "stateMutability": "pure",
      "type": "function"
    },
    {
      "inputs": [
        {
          "internalType": "uint256",
          "name": "amountIn",
          "type": "uint256"
        },
        {
          "internalType": "address[]",
          "name": "path",
          "type": "address[]"
        }
      ],
      "name": "getAmountsOut",
      "outputs": [
        {
          "internalType": "uint256[]",
          "name": "amountsOut",
          "type": "uint256[]"
        }
      ],
      "stateMutability": "view",
      "type": "function"
    },
    {
      "inputs": [
        {
          "internalType": "uint256",
          "name": "amountIn",
          "type": "uint256"
        },
        {
          "internalType": "uint256",
          "name": "amountOutMin",
          "type": "uint256"
        },
        {
          "internalType": "address[]",
          "name": "path",
          "type": "address[]"
        },
        {
          "internalType": "address",
          "name": "to",
          "type": "address"
        },
        {
          "internalType": "uint256",
          "name": "deadline",
          "type": "uint256"
        }
      ],
      "name": "swapExactTokensForTokens",
      "outputs": [
        {
          "internalType": "uint256[]",
          "name": "amountsOut",
          "type": "uint256[]"
        }
      ],
      "stateMutability": "nonpayable",
      "type": "function"
    },
    {
      "inputs": [
        {
          "internalType": "uint256",
          "name": "",
          "type": "uint256"
        },
        {
          "internalType": "uint256",
          "name": "",
          "type": "uint256"
        },
        {
          "internalType": "address[]",
          "name": "",
          "type": "address[]"
        },
        {
          "internalType": "address",
          "name": "",
          "type": "address"
        },
        {
          "internalType": "uint256",
          "name": "",
          "type": "uint256"
        }
      ],
      "name": "swapTokensForExactTokens",
      "outputs": [
        {
          "internalType": "uint256[]",
          "name": "",
          "type": "uint256[]"
        }
      ],
      "stateMutability": "pure",
      "type": "function"
    },
    {
      "inputs": [],
      "name": "velodromeV2Factory",
      "outputs": [
        {
          "internalType": "contract IVelodromeV2Factory",
          "name": "",
          "type": "address"
        }
      ],
      "stateMutability": "view",
      "type": "function"
    },
    {
      "inputs": [],
      "name": "velodromeV2Router",
      "outputs": [
        {
          "internalType": "contract IVelodromeV2Router",
          "name": "",
          "type": "address"
        }
      ],
      "stateMutability": "view",
      "type": "function"
    }
  ],
  "bytecode": "0x608060405234801561001057600080fd5b5060405161139f38038061139f83398101604081905261002f91610060565b600080546001600160a01b039384166001600160a01b031991821617909155600180549290931691161790556100b1565b60008060408385031215610072578182fd5b825161007d81610099565b602084015190925061008e81610099565b809150509250929050565b6001600160a01b03811681146100ae57600080fd5b50565b6112df806100c06000396000f3fe608060405234801561001057600080fd5b50600436106100625760003560e01c80631f00ca741461006757806338ed1739146100905780638803dbee146100a3578063c0d044b6146100b6578063d06ca61f146100cb578063dbc5cbc6146100de575b600080fd5b61007a610075366004610fc7565b6100e6565b60405161008791906110cc565b60405180910390f35b61007a61009e366004611010565b610131565b61007a6100b1366004611010565b6104ff565b6100be610519565b604051610087919061108d565b61007a6100d9366004610fc7565b610528565b6100be610661565b6060816001600160401b03811180156100fe57600080fd5b50604051908082528060200260200182016040528015610128578160200160208202803683370190505b50949350505050565b6060600384111561015d5760405162461bcd60e51b815260040161015490611110565b60405180910390fd5b6000806101ad8787600081811061017057fe5b90506020020160208101906101859190610eaa565b8888600181811061019257fe5b90506020020160208101906101a79190610eaa565b8b610670565b90925090506000600387146101c35760016101c6565b60025b60ff166001600160401b03811180156101de57600080fd5b5060405190808252806020026020018201604052801561021857816020015b610205610e3b565b8152602001906001900390816101fd5790505b50905060405180608001604052808989600081811061023357fe5b90506020020160208101906102489190610eaa565b6001600160a01b031681526020018989600181811061026357fe5b90506020020160208101906102789190610eaa565b6001600160a01b039081168252841515602083015260015416604090910152815182906000906102a457fe5b602090810291909101015260038714156103a657610305888860018181106102c857fe5b90506020020160208101906102dd9190610eaa565b898960028181106102ea57fe5b90506020020160208101906102ff9190610eaa565b85610670565b90508092505060405180608001604052808989600181811061032357fe5b90506020020160208101906103389190610eaa565b6001600160a01b031681526020018989600281811061035357fe5b90506020020160208101906103689190610eaa565b6001600160a01b0390811682528415156020830152600180549091166040909201919091528251839190811061039a57fe5b60200260200101819052505b6103df33308c8b8b60008181106103b957fe5b90506020020160208101906103ce9190610eaa565b6001600160a01b03169291906109c3565b61042960008054906101000a90046001600160a01b03168b8a8a600081811061040457fe5b90506020020160208101906104199190610eaa565b6001600160a01b03169190610a23565b60005460405163cac88ea960e01b81526001600160a01b039091169063cac88ea990610461908d908d9086908c908c906004016111a6565b600060405180830381600087803b15801561047b57600080fd5b505af115801561048f573d6000803e3d6000fd5b505050506040513d6000823e601f3d908101601f191682016040526104b79190810190610ee2565b9350888460018a8a905003815181106104cc57fe5b602002602001015110156104f25760405162461bcd60e51b815260040161015490611164565b5050509695505050505050565b606060405162461bcd60e51b815260040161015490611137565b6000546001600160a01b031681565b6060600382111561054b5760405162461bcd60e51b815260040161015490611110565b600061059a8484600081811061055d57fe5b90506020020160208101906105729190610eaa565b8585600181811061057f57fe5b90506020020160208101906105949190610eaa565b87610670565b50905060038314156105f7576105f3848460018181106105b657fe5b90506020020160208101906105cb9190610eaa565b858560028181106105d857fe5b90506020020160208101906105ed9190610eaa565b83610670565b5090505b826001600160401b038111801561060d57600080fd5b50604051908082528060200260200182016040528015610637578160200160208202803683370190505b5091508082600186869050038151811061064d57fe5b602002602001018181525050509392505050565b6001546001600160a01b031681565b600080546001805460405163874029d960e01b8152849384936001600160a01b039182169363874029d9936106b0938c938c9390929116906004016110a1565b60206040518083038186803b1580156106c857600080fd5b505afa1580156106dc573d6000803e3d6000fd5b505050506040513d601f19601f820116820180604052508101906107009190610ec6565b6000805460015460405163874029d960e01b815293945091926001600160a01b039182169263874029d992610740928c928c9288929116906004016110a1565b60206040518083038186803b15801561075857600080fd5b505afa15801561076c573d6000803e3d6000fd5b505050506040513d601f19601f820116820180604052508101906107909190610ec6565b600154604051635b16ebb760e01b81529192506001600160a01b031690635b16ebb7906107c190859060040161108d565b60206040518083038186803b1580156107d957600080fd5b505afa1580156107ed573d6000803e3d6000fd5b505050506040513d601f19601f820116820180604052508101906108119190610f8f565b1561089f576040516378a051ad60e11b81526001600160a01b0383169063f140a35a906108449088908b9060040161118f565b60206040518083038186803b15801561085c57600080fd5b505afa158015610870573d6000803e3d6000fd5b505050506040513d601f19601f820116820180604052508101906108949190610faf565b9350600192506109b9565b600154604051635b16ebb760e01b81526001600160a01b0390911690635b16ebb7906108cf90849060040161108d565b60206040518083038186803b1580156108e757600080fd5b505afa1580156108fb573d6000803e3d6000fd5b505050506040513d601f19601f8201168201806040525081019061091f9190610f8f565b156109b9576040516378a051ad60e11b81526000906001600160a01b0383169063f140a35a906109559089908c9060040161118f565b60206040518083038186803b15801561096d57600080fd5b505afa158015610981573d6000803e3d6000fd5b505050506040513d601f19601f820116820180604052508101906109a59190610faf565b9050848111156109b757809450600093505b505b5050935093915050565b604080516001600160a01b0380861660248301528416604482015260648082018490528251808303909101815260849091019091526020810180516001600160e01b03166323b872dd60e01b179052610a1d908590610b0a565b50505050565b6000610ab982856001600160a01b031663dd62ed3e30876040518363ffffffff1660e01b815260040180836001600160a01b03168152602001826001600160a01b031681526020019250505060206040518083038186803b158015610a8757600080fd5b505afa158015610a9b573d6000803e3d6000fd5b505050506040513d6020811015610ab157600080fd5b505190610bc0565b604080516001600160a01b038616602482015260448082018490528251808303909101815260649091019091526020810180516001600160e01b031663095ea7b360e01b179052909150610a1d9085905b6000610b5f826040518060400160405280602081526020017f5361666545524332303a206c6f772d6c6576656c2063616c6c206661696c6564815250856001600160a01b0316610c1f9092919063ffffffff16565b805190915015610bbb57808060200190516020811015610b7e57600080fd5b5051610bbb5760405162461bcd60e51b815260040180806020018281038252602a815260200180611280602a913960400191505060405180910390fd5b505050565b600082820183811015610c18576040805162461bcd60e51b815260206004820152601b60248201527a536166654d6174683a206164646974696f6e206f766572666c6f7760281b604482015290519081900360640190fd5b9392505050565b6060610c2e8484600085610c36565b949350505050565b606082471015610c775760405162461bcd60e51b815260040180806020018281038252602681526020018061125a6026913960400191505060405180910390fd5b610c8085610d91565b610cd1576040805162461bcd60e51b815260206004820152601d60248201527f416464726573733a2063616c6c20746f206e6f6e2d636f6e7472616374000000604482015290519081900360640190fd5b600080866001600160a01b031685876040518082805190602001908083835b60208310610d0f5780518252601f199092019160209182019101610cf0565b6001836020036101000a03801982511681845116808217855250505050505090500191505060006040518083038185875af1925050503d8060008114610d71576040519150601f19603f3d011682016040523d82523d6000602084013e610d76565b606091505b5091509150610d86828286610d97565b979650505050505050565b3b151590565b60608315610da6575081610c18565b825115610db65782518084602001fd5b8160405162461bcd60e51b81526004018080602001828103825283818151815260200191508051906020019080838360005b83811015610e00578181015183820152602001610de8565b50505050905090810190601f168015610e2d5780820380516001836020036101000a031916815260200191505b509250505060405180910390fd5b60408051608081018252600080825260208201819052918101829052606081019190915290565b60008083601f840112610e73578081fd5b5081356001600160401b03811115610e89578182fd5b6020830191508360208083028501011115610ea357600080fd5b9250929050565b600060208284031215610ebb578081fd5b8135610c1881611241565b600060208284031215610ed7578081fd5b8151610c1881611241565b60006020808385031215610ef4578182fd5b82516001600160401b0380821115610f0a578384fd5b818501915085601f830112610f1d578384fd5b815181811115610f2957fe5b83810260405185828201018181108582111715610f4257fe5b604052828152858101935084860182860187018a1015610f60578788fd5b8795505b83861015610f82578051855260019590950194938601938601610f64565b5098975050505050505050565b600060208284031215610fa0578081fd5b81518015158114610c18578182fd5b600060208284031215610fc0578081fd5b5051919050565b600080600060408486031215610fdb578182fd5b8335925060208401356001600160401b03811115610ff7578283fd5b61100386828701610e62565b9497909650939450505050565b60008060008060008060a08789031215611028578182fd5b863595506020870135945060408701356001600160401b0381111561104b578283fd5b61105789828a01610e62565b909550935050606087013561106b81611241565b80925050608087013590509295509295509295565b6001600160a01b03169052565b6001600160a01b0391909116815260200190565b6001600160a01b03948516815292841660208401529015156040830152909116606082015260800190565b6020808252825182820181905260009190848201906040850190845b81811015611104578351835292840192918401916001016110e8565b50909695505050505050565b6020808252600d908201526c746f6f206d616e7920686f707360981b604082015260600190565b60208082526013908201527214d5119155081b9bdd081cdd5c1c1bdc9d1959606a1b604082015260600190565b602080825260119082015270746f6f206d75636820736c69707061676560781b604082015260600190565b9182526001600160a01b0316602082015260400190565b600060a0820187835260208781850152604060a08186015282885180855260c087019150838a019450855b8181101561121b57855180516001600160a01b03908116855286820151811687860152858201511515868601526060918201511690840152948401946080909201916001016111d1565b5050809450505050506112316060830185611080565b8260808301529695505050505050565b6001600160a01b038116811461125657600080fd5b5056fe416464726573733a20696e73756666696369656e742062616c616e636520666f722063616c6c5361666545524332303a204552433230206f7065726174696f6e20646964206e6f742073756363656564a26469706673582212200e11b9442c244937a606e8e31d3fd70ee9756618cc0c788d3a58abc7fbb72fea64736f6c63430007060033",
  "linkReferences": {},
  "deployedLinkReferences": {}
}