{
  "_format": "hh-sol-artifact-1",
  "contractName": "SlippageAccumulator",
  "sourceName": "contracts/utils/SlippageAccumulator.sol",
  "abi": [
    {
      "inputs": [
        {
          "internalType": "address",
          "name": "_poolFactory",
          "type": "address"
        },
        {
          "internalType": "uint64",
          "name": "_decayTime",
          "type": "uint64"
        },
        {
          "internalType": "uint128",
          "name": "_maxCumulativeSlippage",
          "type": "uint128"
        }
      ],
      "stateMutability": "nonpayable",
      "type": "constructor"
    },
    {
      "anonymous": false,
      "inputs": [
        {
          "indexed": false,
          "internalType": "uint64",
          "name": "oldDecayTime",
          "type": "uint64"
        },
        {
          "indexed": false,
          "internalType": "uint64",
          "name": "newDecayTime",
          "type": "uint64"
        }
      ],
      "name": "DecayTimeChanged",
      "type": "event"
    },
    {
      "anonymous": false,
      "inputs": [
        {
          "indexed": false,
          "internalType": "uint128",
          "name": "oldMaxCumulativeSlippage",
          "type": "uint128"
        },
        {
          "indexed": false,
          "internalType": "uint128",
          "name": "newMaxCumulativeSlippage",
          "type": "uint128"
        }
      ],
      "name": "MaxCumulativeSlippageChanged",
      "type": "event"
    },
    {
      "anonymous": false,
      "inputs": [
        {
          "indexed": true,
          "internalType": "address",
          "name": "previousOwner",
          "type": "address"
        },
        {
          "indexed": true,
          "internalType": "address",
          "name": "newOwner",
          "type": "address"
        }
      ],
      "name": "OwnershipTransferred",
      "type": "event"
    },
    {
      "inputs": [],
      "name": "decayTime",
      "outputs": [
        {
          "internalType": "uint64",
          "name": "",
          "type": "uint64"
        }
      ],
      "stateMutability": "view",
      "type": "function"
    },
    {
      "inputs": [
        {
          "internalType": "address",
          "name": "poolManagerLogic",
          "type": "address"
        }
      ],
      "name": "getCumulativeSlippageImpact",
      "outputs": [
        {
          "internalType": "uint128",
          "name": "cumulativeSlippage",
          "type": "uint128"
        }
      ],
      "stateMutability": "view",
      "type": "function"
    },
    {
      "inputs": [
        {
          "internalType": "address",
          "name": "",
          "type": "address"
        }
      ],
      "name": "managerData",
      "outputs": [
        {
          "internalType": "uint64",
          "name": "lastTradeTimestamp",
          "type": "uint64"
        },
        {
          "internalType": "uint128",
          "name": "accumulatedSlippage",
          "type": "uint128"
        }
      ],
      "stateMutability": "view",
      "type": "function"
    },
    {
      "inputs": [],
      "name": "maxCumulativeSlippage",
      "outputs": [
        {
          "internalType": "uint128",
          "name": "",
          "type": "uint128"
        }
      ],
      "stateMutability": "view",
      "type": "function"
    },
    {
      "inputs": [],
      "name": "owner",
      "outputs": [
        {
          "internalType": "address",
          "name": "",
          "type": "address"
        }
      ],
      "stateMutability": "view",
      "type": "function"
    },
    {
      "inputs": [],
      "name": "renounceOwnership",
      "outputs": [],
      "stateMutability": "nonpayable",
      "type": "function"
    },
    {
      "inputs": [
        {
          "internalType": "uint64",
          "name": "newDecayTime",
          "type": "uint64"
        }
      ],
      "name": "setDecayTime",
      "outputs": [],
      "stateMutability": "nonpayable",
      "type": "function"
    },
    {
      "inputs": [
        {
          "internalType": "uint128",
          "name": "newMaxCumulativeSlippage",
          "type": "uint128"
        }
      ],
      "name": "setMaxCumulativeSlippage",
      "outputs": [],
      "stateMutability": "nonpayable",
      "type": "function"
    },
    {
      "inputs": [
        {
          "internalType": "address",
          "name": "newOwner",
          "type": "address"
        }
      ],
      "name": "transferOwnership",
      "outputs": [],
      "stateMutability": "nonpayable",
      "type": "function"
    },
    {
      "inputs": [
        {
          "components": [
            {
              "internalType": "address",
              "name": "srcAsset",
              "type": "address"
            },
            {
              "internalType": "address",
              "name": "dstAsset",
              "type": "address"
            },
            {
              "internalType": "uint256",
              "name": "srcAmount",
              "type": "uint256"
            },
            {
              "internalType": "uint256",
              "name": "dstAmount",
              "type": "uint256"
            },
            {
              "internalType": "address",
              "name": "to",
              "type": "address"
            },
            {
              "internalType": "address",
              "name": "poolManagerLogic",
              "type": "address"
            }
          ],
          "internalType": "struct SlippageAccumulator.SwapData",
          "name": "swapData",
          "type": "tuple"
        }
      ],
      "name": "updateSlippageImpact",
      "outputs": [],
      "stateMutability": "nonpayable",
      "type": "function"
    }
  ],
  "bytecode": "0x60a060405234801561001057600080fd5b506040516110bb3803806110bb83398101604081905261002f91610113565b600061003961010f565b600080546001600160a01b0319166001600160a01b0383169081178255604051929350917f8be0079c531659141344cd1fd0a4f28419497f9722a3daafe3b4186f6b6457e0908290a3506001600160a01b0383166100b25760405162461bcd60e51b81526004016100a990610180565b60405180910390fd5b60609290921b6001600160601b03191660805260018054600160801b600160c01b031916600160801b6001600160401b039390931692909202919091176001600160801b0319166001600160801b039092169190911790556101a6565b3390565b600080600060608486031215610127578283fd5b83516001600160a01b038116811461013d578384fd5b60208501519093506001600160401b0381168114610159578283fd5b60408501519092506001600160801b0381168114610175578182fd5b809150509250925092565b6020808252600c908201526b4e756c6c206164647265737360a01b604082015260600190565b60805160601c610ef36101c8600039806104285280610acc5250610ef36000f3fe608060405234801561001057600080fd5b506004361061008e5760003560e01c80630a7654f41461009357806349a91411146100b15780634a7c34cc146100d2578063715018a6146100e557806373bf96e7146100ef5780638da5cb5b14610102578063982e2f2214610117578063c429bb601461012a578063d33fa1fe1461013d578063f2fde38b14610152575b600080fd5b61009b610165565b6040516100a89190610d73565b60405180910390f35b6100c46100bf366004610c09565b610174565b6040516100a8929190610db5565b61009b6100e0366004610c09565b6101a1565b6100ed610273565b005b6100ed6100fd366004610cb7565b61031f565b61010a6103ef565b6040516100a89190610cff565b6100ed610125366004610c61565b6103fe565b6100ed610138366004610c78565b6106fd565b6101456107b2565b6040516100a89190610da1565b6100ed610160366004610c09565b6107c8565b6001546001600160801b031681565b6002602052600090815260409020546001600160401b03811690600160401b90046001600160801b031682565b6001600160a01b03811660009081526002602090815260408083208151808301909252546001600160401b03808216808452600160401b9092046001600160801b031693830193909352600154919261026c9261026792600160801b909104909116906102619061024d906102349061021b9042906108ca565b600154600160801b90046001600160401b03169061092c565b600154600160801b90046001600160401b0316906108ca565b60208601516001600160801b031690610942565b9061099b565b6109ff565b9392505050565b61027b610a47565b6001600160a01b031661028c6103ef565b6001600160a01b0316146102d5576040805162461bcd60e51b81526020600482018190526024820152600080516020610e9e833981519152604482015290519081900360640190fd5b600080546040516001600160a01b03909116907f8be0079c531659141344cd1fd0a4f28419497f9722a3daafe3b4186f6b6457e0908390a3600080546001600160a01b0319169055565b610327610a47565b6001600160a01b03166103386103ef565b6001600160a01b031614610381576040805162461bcd60e51b81526020600482018190526024820152600080516020610e9e833981519152604482015290519081900360640190fd5b600180546001600160401b03838116600160801b90810267ffffffffffffffff60801b198416179093556040519290910416907fa132fc4455c726bfc933c7fa18768445a96ffa98f5c6a6538aa90414957db67e906103e39083908590610dd7565b60405180910390a15050565b6000546001600160a01b031690565b61040e60a0820160808301610c09565b604051634f8419b960e01b81526000906001600160a01b037f00000000000000000000000000000000000000000000000000000000000000001690634f8419b99061045d908590600401610cff565b60206040518083038186803b15801561047557600080fd5b505afa158015610489573d6000803e3d6000fd5b505050506040513d601f19601f820116820180604052508101906104ad9190610c25565b90506001600160a01b03811633146104e05760405162461bcd60e51b81526004016104d790610d13565b60405180910390fd5b6104f060c0840160a08501610c09565b6001600160a01b0316639be918e661050b6020860186610c09565b6040518263ffffffff1660e01b81526004016105279190610cff565b60206040518083038186803b15801561053f57600080fd5b505afa158015610553573d6000803e3d6000fd5b505050506040513d601f19601f820116820180604052508101906105779190610c41565b156106f857600061059861058e6020860186610c09565b8560400135610a4b565b905060006105b96105af6040870160208801610c09565b8660600135610a4b565b9050818110156106f55760006105e361026784610261620f42406105dd83886108ca565b90610942565b905060006106126102676106006100e060c08b0160a08c01610c09565b6001600160801b038581169116610b6d565b6001549091506001600160801b03908116908216106106435760405162461bcd60e51b81526004016104d790610d41565b61064c42610bc5565b6002600061066060c08b0160a08c01610c09565b6001600160a01b0316815260208101919091526040016000908120805467ffffffffffffffff19166001600160401b03939093169290921790915581906002906106b060c08b0160a08c01610c09565b6001600160a01b03168152602081019190915260400160002080546001600160801b0392909216600160401b02600160401b600160c01b031990921691909117905550505b50505b505050565b610705610a47565b6001600160a01b03166107166103ef565b6001600160a01b03161461075f576040805162461bcd60e51b81526020600482018190526024820152600080516020610e9e833981519152604482015290519081900360640190fd5b600180546001600160801b038381166001600160801b03198316179092556040519116907f24e33b482725c891e7ead90642a041e8936e23b25f9fa62fe370b1d8f3fe1d3d906103e39083908590610d87565b600154600160801b90046001600160401b031681565b6107d0610a47565b6001600160a01b03166107e16103ef565b6001600160a01b03161461082a576040805162461bcd60e51b81526020600482018190526024820152600080516020610e9e833981519152604482015290519081900360640190fd5b6001600160a01b03811661086f5760405162461bcd60e51b8152600401808060200182810382526026815260200180610e0a6026913960400191505060405180910390fd5b600080546040516001600160a01b03808516939216917f8be0079c531659141344cd1fd0a4f28419497f9722a3daafe3b4186f6b6457e091a3600080546001600160a01b0319166001600160a01b0392909216919091179055565b600082821115610921576040805162461bcd60e51b815260206004820152601e60248201527f536166654d6174683a207375627472616374696f6e206f766572666c6f770000604482015290519081900360640190fd5b508082035b92915050565b600081831061093b578161026c565b5090919050565b60008261095157506000610926565b8282028284828161095e57fe5b041461026c5760405162461bcd60e51b8152600401808060200182810382526021815260200180610e576021913960400191505060405180910390fd5b60008082116109ee576040805162461bcd60e51b815260206004820152601a602482015279536166654d6174683a206469766973696f6e206279207a65726f60301b604482015290519081900360640190fd5b8183816109f757fe5b049392505050565b6000600160801b8210610a435760405162461bcd60e51b8152600401808060200182810382526027815260200180610e306027913960400191505060405180910390fd5b5090565b3390565b600061026c836001600160a01b031663313ce5676040518163ffffffff1660e01b815260040160206040518083038186803b158015610a8957600080fd5b505afa158015610a9d573d6000803e3d6000fd5b505050506040513d601f19601f82011682018060405250810190610ac19190610cde565b60ff16600a0a6102617f00000000000000000000000000000000000000000000000000000000000000006001600160a01b031663b3596f07876040518263ffffffff1660e01b8152600401610b169190610cff565b60206040518083038186803b158015610b2e57600080fd5b505afa158015610b42573d6000803e3d6000fd5b505050506040513d601f19601f82011682018060405250810190610b669190610c9f565b8590610942565b60008282018381101561026c576040805162461bcd60e51b815260206004820152601b60248201527a536166654d6174683a206164646974696f6e206f766572666c6f7760281b604482015290519081900360640190fd5b6000600160401b8210610a435760405162461bcd60e51b8152600401808060200182810382526026815260200180610e786026913960400191505060405180910390fd5b600060208284031215610c1a578081fd5b813561026c81610df1565b600060208284031215610c36578081fd5b815161026c81610df1565b600060208284031215610c52578081fd5b8151801515811461026c578182fd5b600060c08284031215610c72578081fd5b50919050565b600060208284031215610c89578081fd5b81356001600160801b038116811461026c578182fd5b600060208284031215610cb0578081fd5b5051919050565b600060208284031215610cc8578081fd5b81356001600160401b038116811461026c578182fd5b600060208284031215610cef578081fd5b815160ff8116811461026c578182fd5b6001600160a01b0391909116815260200190565b602080825260149082015273139bdd08185d5d1a1bdc9a5cd9590819dd585c9960621b604082015260600190565b6020808252601890820152771cdb1a5c1c1859d9481a5b5c1858dd08195e18d95959195960421b604082015260600190565b6001600160801b0391909116815260200190565b6001600160801b0392831681529116602082015260400190565b6001600160401b0391909116815260200190565b6001600160401b039290921682526001600160801b0316602082015260400190565b6001600160401b0392831681529116602082015260400190565b6001600160a01b0381168114610e0657600080fd5b5056fe4f776e61626c653a206e6577206f776e657220697320746865207a65726f206164647265737353616665436173743a2076616c756520646f65736e27742066697420696e203132382062697473536166654d6174683a206d756c7469706c69636174696f6e206f766572666c6f7753616665436173743a2076616c756520646f65736e27742066697420696e20363420626974734f776e61626c653a2063616c6c6572206973206e6f7420746865206f776e6572a264697066735822122071b01bcf60dc702c07a96a8ec27b1a6a0e3dccdcace5c1196ecaca70fe3bb5f864736f6c63430007060033",
  "linkReferences": {},
  "deployedLinkReferences": {}
}