{
  "_format": "hh-sol-artifact-1",
  "contractName": "PoolFactory",
  "sourceName": "contracts/PoolFactory.sol",
  "abi": [
    {
      "anonymous": false,
      "inputs": [
        {
          "indexed": false,
          "internalType": "address",
          "name": "daoAddress",
          "type": "address"
        }
      ],
      "name": "DAOAddressSet",
      "type": "event"
    },
    {
      "anonymous": false,
      "inputs": [
        {
          "indexed": false,
          "internalType": "uint256",
          "name": "numerator",
          "type": "uint256"
        },
        {
          "indexed": false,
          "internalType": "uint256",
          "name": "denominator",
          "type": "uint256"
        }
      ],
      "name": "DaoFeeSet",
      "type": "event"
    },
    {
      "anonymous": false,
      "inputs": [
        {
          "indexed": false,
          "internalType": "uint256",
          "name": "cooldown",
          "type": "uint256"
        }
      ],
      "name": "ExitCooldownSet",
      "type": "event"
    },
    {
      "anonymous": false,
      "inputs": [
        {
          "indexed": false,
          "internalType": "uint256",
          "name": "numerator",
          "type": "uint256"
        },
        {
          "indexed": false,
          "internalType": "uint256",
          "name": "denominator",
          "type": "uint256"
        }
      ],
      "name": "ExitFeeSet",
      "type": "event"
    },
    {
      "anonymous": false,
      "inputs": [
        {
          "indexed": false,
          "internalType": "address",
          "name": "fundAddress",
          "type": "address"
        },
        {
          "indexed": false,
          "internalType": "bool",
          "name": "isPoolPrivate",
          "type": "bool"
        },
        {
          "indexed": false,
          "internalType": "string",
          "name": "fundName",
          "type": "string"
        },
        {
          "indexed": false,
          "internalType": "string",
          "name": "managerName",
          "type": "string"
        },
        {
          "indexed": false,
          "internalType": "address",
          "name": "manager",
          "type": "address"
        },
        {
          "indexed": false,
          "internalType": "uint256",
          "name": "time",
          "type": "uint256"
        },
        {
          "indexed": false,
          "internalType": "uint256",
          "name": "performanceFeeNumerator",
          "type": "uint256"
        },
        {
          "indexed": false,
          "internalType": "uint256",
          "name": "managerFeeNumerator",
          "type": "uint256"
        },
        {
          "indexed": false,
          "internalType": "uint256",
          "name": "managerFeeDenominator",
          "type": "uint256"
        }
      ],
      "name": "FundCreated",
      "type": "event"
    },
    {
      "anonymous": false,
      "inputs": [
        {
          "indexed": false,
          "internalType": "address",
          "name": "governanceAddress",
          "type": "address"
        }
      ],
      "name": "GovernanceAddressSet",
      "type": "event"
    },
    {
      "anonymous": false,
      "inputs": [
        {
          "indexed": true,
          "internalType": "address",
          "name": "manager",
          "type": "address"
        },
        {
          "indexed": true,
          "internalType": "address",
          "name": "pool",
          "type": "address"
        }
      ],
      "name": "LogUpgrade",
      "type": "event"
    },
    {
      "anonymous": false,
      "inputs": [
        {
          "indexed": false,
          "internalType": "uint256",
          "name": "count",
          "type": "uint256"
        }
      ],
      "name": "MaximumSupportedAssetCountSet",
      "type": "event"
    },
    {
      "anonymous": false,
      "inputs": [
        {
          "indexed": true,
          "internalType": "address",
          "name": "previousOwner",
          "type": "address"
        },
        {
          "indexed": true,
          "internalType": "address",
          "name": "newOwner",
          "type": "address"
        }
      ],
      "name": "OwnershipTransferred",
      "type": "event"
    },
    {
      "anonymous": false,
      "inputs": [
        {
          "indexed": false,
          "internalType": "address",
          "name": "account",
          "type": "address"
        }
      ],
      "name": "Paused",
      "type": "event"
    },
    {
      "anonymous": false,
      "inputs": [
        {
          "indexed": false,
          "internalType": "address",
          "name": "poolAddress",
          "type": "address"
        }
      ],
      "name": "PoolEvent",
      "type": "event"
    },
    {
      "anonymous": false,
      "inputs": [
        {
          "indexed": false,
          "internalType": "address",
          "name": "poolManagerAddress",
          "type": "address"
        }
      ],
      "name": "PoolManagerEvent",
      "type": "event"
    },
    {
      "anonymous": false,
      "inputs": [
        {
          "indexed": false,
          "internalType": "address",
          "name": "proxy",
          "type": "address"
        }
      ],
      "name": "ProxyCreated",
      "type": "event"
    },
    {
      "anonymous": false,
      "inputs": [
        {
          "indexed": false,
          "internalType": "address",
          "name": "assetHandler",
          "type": "address"
        }
      ],
      "name": "SetAssetHandler",
      "type": "event"
    },
    {
      "anonymous": false,
      "inputs": [
        {
          "indexed": false,
          "internalType": "uint256",
          "name": "performanceFeeNumerator",
          "type": "uint256"
        },
        {
          "indexed": false,
          "internalType": "uint256",
          "name": "managerFeeNumerator",
          "type": "uint256"
        },
        {
          "indexed": false,
          "internalType": "uint256",
          "name": "entryFeeNumerator",
          "type": "uint256"
        },
        {
          "indexed": false,
          "internalType": "uint256",
          "name": "denominator",
          "type": "uint256"
        }
      ],
      "name": "SetMaximumFee",
      "type": "event"
    },
    {
      "anonymous": false,
      "inputs": [
        {
          "indexed": false,
          "internalType": "uint256",
          "name": "amount",
          "type": "uint256"
        }
      ],
      "name": "SetMaximumPerformanceFeeNumeratorChange",
      "type": "event"
    },
    {
      "anonymous": false,
      "inputs": [
        {
          "indexed": false,
          "internalType": "uint256",
          "name": "delay",
          "type": "uint256"
        }
      ],
      "name": "SetPerformanceFeeNumeratorChangeDelay",
      "type": "event"
    },
    {
      "anonymous": false,
      "inputs": [
        {
          "indexed": false,
          "internalType": "uint256",
          "name": "numerator",
          "type": "uint256"
        },
        {
          "indexed": false,
          "internalType": "uint256",
          "name": "denominator",
          "type": "uint256"
        }
      ],
      "name": "SetPoolManagerFee",
      "type": "event"
    },
    {
      "anonymous": false,
      "inputs": [
        {
          "indexed": false,
          "internalType": "uint256",
          "name": "poolStorageVersion",
          "type": "uint256"
        }
      ],
      "name": "SetPoolStorageVersion",
      "type": "event"
    },
    {
      "anonymous": false,
      "inputs": [
        {
          "indexed": false,
          "internalType": "address",
          "name": "account",
          "type": "address"
        }
      ],
      "name": "Unpaused",
      "type": "event"
    },
    {
      "inputs": [
        {
          "internalType": "address",
          "name": "_extAddress",
          "type": "address"
        }
      ],
      "name": "addCustomCooldownWhitelist",
      "outputs": [],
      "stateMutability": "nonpayable",
      "type": "function"
    },
    {
      "inputs": [
        {
          "internalType": "address",
          "name": "_extAddress",
          "type": "address"
        }
      ],
      "name": "addReceiverWhitelist",
      "outputs": [],
      "stateMutability": "nonpayable",
      "type": "function"
    },
    {
      "inputs": [
        {
          "internalType": "bool",
          "name": "_privatePool",
          "type": "bool"
        },
        {
          "internalType": "address",
          "name": "_manager",
          "type": "address"
        },
        {
          "internalType": "string",
          "name": "_managerName",
          "type": "string"
        },
        {
          "internalType": "string",
          "name": "_fundName",
          "type": "string"
        },
        {
          "internalType": "string",
          "name": "_fundSymbol",
          "type": "string"
        },
        {
          "internalType": "uint256",
          "name": "_performanceFeeNumerator",
          "type": "uint256"
        },
        {
          "internalType": "uint256",
          "name": "_managerFeeNumerator",
          "type": "uint256"
        },
        {
          "components": [
            {
              "internalType": "address",
              "name": "asset",
              "type": "address"
            },
            {
              "internalType": "bool",
              "name": "isDeposit",
              "type": "bool"
            }
          ],
          "internalType": "struct IHasSupportedAsset.Asset[]",
          "name": "_supportedAssets",
          "type": "tuple[]"
        }
      ],
      "name": "createFund",
      "outputs": [
        {
          "internalType": "address",
          "name": "fund",
          "type": "address"
        }
      ],
      "stateMutability": "nonpayable",
      "type": "function"
    },
    {
      "inputs": [
        {
          "internalType": "address",
          "name": "",
          "type": "address"
        }
      ],
      "name": "customCooldownWhitelist",
      "outputs": [
        {
          "internalType": "bool",
          "name": "",
          "type": "bool"
        }
      ],
      "stateMutability": "view",
      "type": "function"
    },
    {
      "inputs": [],
      "name": "daoAddress",
      "outputs": [
        {
          "internalType": "address",
          "name": "",
          "type": "address"
        }
      ],
      "stateMutability": "view",
      "type": "function"
    },
    {
      "inputs": [
        {
          "internalType": "bytes",
          "name": "_data",
          "type": "bytes"
        },
        {
          "internalType": "uint8",
          "name": "_proxyType",
          "type": "uint8"
        }
      ],
      "name": "deploy",
      "outputs": [
        {
          "internalType": "address",
          "name": "",
          "type": "address"
        }
      ],
      "stateMutability": "nonpayable",
      "type": "function"
    },
    {
      "inputs": [
        {
          "internalType": "uint256",
          "name": "",
          "type": "uint256"
        }
      ],
      "name": "deployedFunds",
      "outputs": [
        {
          "internalType": "address",
          "name": "",
          "type": "address"
        }
      ],
      "stateMutability": "view",
      "type": "function"
    },
    {
      "inputs": [],
      "name": "emitPoolEvent",
      "outputs": [],
      "stateMutability": "nonpayable",
      "type": "function"
    },
    {
      "inputs": [],
      "name": "emitPoolManagerEvent",
      "outputs": [],
      "stateMutability": "nonpayable",
      "type": "function"
    },
    {
      "inputs": [
        {
          "internalType": "bytes32",
          "name": "name",
          "type": "bytes32"
        }
      ],
      "name": "getAddress",
      "outputs": [
        {
          "internalType": "address",
          "name": "destination",
          "type": "address"
        }
      ],
      "stateMutability": "view",
      "type": "function"
    },
    {
      "inputs": [
        {
          "internalType": "address",
          "name": "extAsset",
          "type": "address"
        }
      ],
      "name": "getAssetGuard",
      "outputs": [
        {
          "internalType": "address",
          "name": "guard",
          "type": "address"
        }
      ],
      "stateMutability": "view",
      "type": "function"
    },
    {
      "inputs": [],
      "name": "getAssetHandler",
      "outputs": [
        {
          "internalType": "address",
          "name": "",
          "type": "address"
        }
      ],
      "stateMutability": "view",
      "type": "function"
    },
    {
      "inputs": [
        {
          "internalType": "address",
          "name": "asset",
          "type": "address"
        }
      ],
      "name": "getAssetPrice",
      "outputs": [
        {
          "internalType": "uint256",
          "name": "price",
          "type": "uint256"
        }
      ],
      "stateMutability": "view",
      "type": "function"
    },
    {
      "inputs": [
        {
          "internalType": "address",
          "name": "asset",
          "type": "address"
        }
      ],
      "name": "getAssetType",
      "outputs": [
        {
          "internalType": "uint16",
          "name": "assetType",
          "type": "uint16"
        }
      ],
      "stateMutability": "view",
      "type": "function"
    },
    {
      "inputs": [
        {
          "internalType": "address",
          "name": "extContract",
          "type": "address"
        }
      ],
      "name": "getContractGuard",
      "outputs": [
        {
          "internalType": "address",
          "name": "guard",
          "type": "address"
        }
      ],
      "stateMutability": "view",
      "type": "function"
    },
    {
      "inputs": [],
      "name": "getDaoFee",
      "outputs": [
        {
          "internalType": "uint256",
          "name": "",
          "type": "uint256"
        },
        {
          "internalType": "uint256",
          "name": "",
          "type": "uint256"
        }
      ],
      "stateMutability": "view",
      "type": "function"
    },
    {
      "inputs": [],
      "name": "getDeployedFunds",
      "outputs": [
        {
          "internalType": "address[]",
          "name": "",
          "type": "address[]"
        }
      ],
      "stateMutability": "view",
      "type": "function"
    },
    {
      "inputs": [],
      "name": "getExitCooldown",
      "outputs": [
        {
          "internalType": "uint256",
          "name": "",
          "type": "uint256"
        }
      ],
      "stateMutability": "view",
      "type": "function"
    },
    {
      "inputs": [],
      "name": "getExitFee",
      "outputs": [
        {
          "internalType": "uint256",
          "name": "",
          "type": "uint256"
        },
        {
          "internalType": "uint256",
          "name": "",
          "type": "uint256"
        }
      ],
      "stateMutability": "view",
      "type": "function"
    },
    {
      "inputs": [
        {
          "internalType": "address",
          "name": "user",
          "type": "address"
        }
      ],
      "name": "getInvestedPools",
      "outputs": [
        {
          "internalType": "address[]",
          "name": "investedPools",
          "type": "address[]"
        }
      ],
      "stateMutability": "view",
      "type": "function"
    },
    {
      "inputs": [
        {
          "internalType": "uint8",
          "name": "_proxyType",
          "type": "uint8"
        }
      ],
      "name": "getLogic",
      "outputs": [
        {
          "internalType": "address",
          "name": "",
          "type": "address"
        }
      ],
      "stateMutability": "view",
      "type": "function"
    },
    {
      "inputs": [
        {
          "internalType": "address",
          "name": "manager",
          "type": "address"
        }
      ],
      "name": "getManagedPools",
      "outputs": [
        {
          "internalType": "address[]",
          "name": "managedPools",
          "type": "address[]"
        }
      ],
      "stateMutability": "view",
      "type": "function"
    },
    {
      "inputs": [],
      "name": "getMaximumFee",
      "outputs": [
        {
          "internalType": "uint256",
          "name": "",
          "type": "uint256"
        },
        {
          "internalType": "uint256",
          "name": "",
          "type": "uint256"
        },
        {
          "internalType": "uint256",
          "name": "",
          "type": "uint256"
        },
        {
          "internalType": "uint256",
          "name": "",
          "type": "uint256"
        }
      ],
      "stateMutability": "view",
      "type": "function"
    },
    {
      "inputs": [],
      "name": "getMaximumSupportedAssetCount",
      "outputs": [
        {
          "internalType": "uint256",
          "name": "",
          "type": "uint256"
        }
      ],
      "stateMutability": "view",
      "type": "function"
    },
    {
      "inputs": [],
      "name": "governanceAddress",
      "outputs": [
        {
          "internalType": "address",
          "name": "",
          "type": "address"
        }
      ],
      "stateMutability": "view",
      "type": "function"
    },
    {
      "inputs": [],
      "name": "implInitializer",
      "outputs": [],
      "stateMutability": "nonpayable",
      "type": "function"
    },
    {
      "inputs": [
        {
          "internalType": "address",
          "name": "_poolLogic",
          "type": "address"
        },
        {
          "internalType": "address",
          "name": "_managerLogic",
          "type": "address"
        },
        {
          "internalType": "address",
          "name": "assetHandler",
          "type": "address"
        },
        {
          "internalType": "address",
          "name": "_daoAddress",
          "type": "address"
        },
        {
          "internalType": "address",
          "name": "_governanceAddress",
          "type": "address"
        }
      ],
      "name": "initialize",
      "outputs": [],
      "stateMutability": "nonpayable",
      "type": "function"
    },
    {
      "inputs": [],
      "name": "isPaused",
      "outputs": [
        {
          "internalType": "bool",
          "name": "",
          "type": "bool"
        }
      ],
      "stateMutability": "view",
      "type": "function"
    },
    {
      "inputs": [
        {
          "internalType": "address",
          "name": "",
          "type": "address"
        }
      ],
      "name": "isPool",
      "outputs": [
        {
          "internalType": "bool",
          "name": "",
          "type": "bool"
        }
      ],
      "stateMutability": "view",
      "type": "function"
    },
    {
      "inputs": [
        {
          "internalType": "address",
          "name": "asset",
          "type": "address"
        }
      ],
      "name": "isValidAsset",
      "outputs": [
        {
          "internalType": "bool",
          "name": "",
          "type": "bool"
        }
      ],
      "stateMutability": "view",
      "type": "function"
    },
    {
      "inputs": [],
      "name": "maximumPerformanceFeeNumeratorChange",
      "outputs": [
        {
          "internalType": "uint256",
          "name": "",
          "type": "uint256"
        }
      ],
      "stateMutability": "view",
      "type": "function"
    },
    {
      "inputs": [],
      "name": "owner",
      "outputs": [
        {
          "internalType": "address",
          "name": "",
          "type": "address"
        }
      ],
      "stateMutability": "view",
      "type": "function"
    },
    {
      "inputs": [],
      "name": "pause",
      "outputs": [],
      "stateMutability": "nonpayable",
      "type": "function"
    },
    {
      "inputs": [],
      "name": "paused",
      "outputs": [
        {
          "internalType": "bool",
          "name": "",
          "type": "bool"
        }
      ],
      "stateMutability": "view",
      "type": "function"
    },
    {
      "inputs": [
        {
          "internalType": "address",
          "name": "",
          "type": "address"
        }
      ],
      "name": "pausedPools",
      "outputs": [
        {
          "internalType": "bool",
          "name": "",
          "type": "bool"
        }
      ],
      "stateMutability": "view",
      "type": "function"
    },
    {
      "inputs": [],
      "name": "performanceFeeNumeratorChangeDelay",
      "outputs": [
        {
          "internalType": "uint256",
          "name": "",
          "type": "uint256"
        }
      ],
      "stateMutability": "view",
      "type": "function"
    },
    {
      "inputs": [],
      "name": "poolPerformanceAddress",
      "outputs": [
        {
          "internalType": "address",
          "name": "",
          "type": "address"
        }
      ],
      "stateMutability": "view",
      "type": "function"
    },
    {
      "inputs": [],
      "name": "poolStorageVersion",
      "outputs": [
        {
          "internalType": "uint256",
          "name": "",
          "type": "uint256"
        }
      ],
      "stateMutability": "view",
      "type": "function"
    },
    {
      "inputs": [
        {
          "internalType": "address",
          "name": "",
          "type": "address"
        }
      ],
      "name": "poolVersion",
      "outputs": [
        {
          "internalType": "uint256",
          "name": "",
          "type": "uint256"
        }
      ],
      "stateMutability": "view",
      "type": "function"
    },
    {
      "inputs": [
        {
          "internalType": "address",
          "name": "",
          "type": "address"
        }
      ],
      "name": "receiverWhitelist",
      "outputs": [
        {
          "internalType": "bool",
          "name": "",
          "type": "bool"
        }
      ],
      "stateMutability": "view",
      "type": "function"
    },
    {
      "inputs": [
        {
          "internalType": "address",
          "name": "_extAddress",
          "type": "address"
        }
      ],
      "name": "removeCustomCooldownWhitelist",
      "outputs": [],
      "stateMutability": "nonpayable",
      "type": "function"
    },
    {
      "inputs": [
        {
          "internalType": "address",
          "name": "_extAddress",
          "type": "address"
        }
      ],
      "name": "removeReceiverWhitelist",
      "outputs": [],
      "stateMutability": "nonpayable",
      "type": "function"
    },
    {
      "inputs": [],
      "name": "renounceOwnership",
      "outputs": [],
      "stateMutability": "nonpayable",
      "type": "function"
    },
    {
      "inputs": [
        {
          "internalType": "address",
          "name": "assetHandler",
          "type": "address"
        }
      ],
      "name": "setAssetHandler",
      "outputs": [],
      "stateMutability": "nonpayable",
      "type": "function"
    },
    {
      "inputs": [
        {
          "internalType": "address",
          "name": "_daoAddress",
          "type": "address"
        }
      ],
      "name": "setDAOAddress",
      "outputs": [],
      "stateMutability": "nonpayable",
      "type": "function"
    },
    {
      "inputs": [
        {
          "internalType": "uint256",
          "name": "numerator",
          "type": "uint256"
        },
        {
          "internalType": "uint256",
          "name": "denominator",
          "type": "uint256"
        }
      ],
      "name": "setDaoFee",
      "outputs": [],
      "stateMutability": "nonpayable",
      "type": "function"
    },
    {
      "inputs": [
        {
          "internalType": "uint256",
          "name": "cooldown",
          "type": "uint256"
        }
      ],
      "name": "setExitCooldown",
      "outputs": [],
      "stateMutability": "nonpayable",
      "type": "function"
    },
    {
      "inputs": [
        {
          "internalType": "uint256",
          "name": "numerator",
          "type": "uint256"
        },
        {
          "internalType": "uint256",
          "name": "denominator",
          "type": "uint256"
        }
      ],
      "name": "setExitFee",
      "outputs": [],
      "stateMutability": "nonpayable",
      "type": "function"
    },
    {
      "inputs": [
        {
          "internalType": "address",
          "name": "_governanceAddress",
          "type": "address"
        }
      ],
      "name": "setGovernanceAddress",
      "outputs": [],
      "stateMutability": "nonpayable",
      "type": "function"
    },
    {
      "inputs": [
        {
          "internalType": "address",
          "name": "_poolLogic",
          "type": "address"
        },
        {
          "internalType": "address",
          "name": "_poolManagerLogic",
          "type": "address"
        }
      ],
      "name": "setLogic",
      "outputs": [],
      "stateMutability": "nonpayable",
      "type": "function"
    },
    {
      "inputs": [
        {
          "internalType": "uint256",
          "name": "performanceFeeNumerator",
          "type": "uint256"
        },
        {
          "internalType": "uint256",
          "name": "managerFeeNumerator",
          "type": "uint256"
        },
        {
          "internalType": "uint256",
          "name": "entryFeeNumerator",
          "type": "uint256"
        }
      ],
      "name": "setMaximumFee",
      "outputs": [],
      "stateMutability": "nonpayable",
      "type": "function"
    },
    {
      "inputs": [
        {
          "internalType": "uint256",
          "name": "amount",
          "type": "uint256"
        }
      ],
      "name": "setMaximumPerformanceFeeNumeratorChange",
      "outputs": [],
      "stateMutability": "nonpayable",
      "type": "function"
    },
    {
      "inputs": [
        {
          "internalType": "uint256",
          "name": "count",
          "type": "uint256"
        }
      ],
      "name": "setMaximumSupportedAssetCount",
      "outputs": [],
      "stateMutability": "nonpayable",
      "type": "function"
    },
    {
      "inputs": [
        {
          "internalType": "uint256",
          "name": "delay",
          "type": "uint256"
        }
      ],
      "name": "setPerformanceFeeNumeratorChangeDelay",
      "outputs": [],
      "stateMutability": "nonpayable",
      "type": "function"
    },
    {
      "inputs": [
        {
          "internalType": "uint256",
          "name": "_poolStorageVersion",
          "type": "uint256"
        }
      ],
      "name": "setPoolStorageVersion",
      "outputs": [],
      "stateMutability": "nonpayable",
      "type": "function"
    },
    {
      "inputs": [
        {
          "components": [
            {
              "internalType": "address",
              "name": "pool",
              "type": "address"
            },
            {
              "internalType": "bool",
              "name": "paused",
              "type": "bool"
            }
          ],
          "internalType": "struct PoolFactory.PoolPausedInfo[]",
          "name": "pools",
          "type": "tuple[]"
        }
      ],
      "name": "setPoolsPaused",
      "outputs": [],
      "stateMutability": "nonpayable",
      "type": "function"
    },
    {
      "inputs": [
        {
          "internalType": "address",
          "name": "newOwner",
          "type": "address"
        }
      ],
      "name": "transferOwnership",
      "outputs": [],
      "stateMutability": "nonpayable",
      "type": "function"
    },
    {
      "inputs": [],
      "name": "unpause",
      "outputs": [],
      "stateMutability": "nonpayable",
      "type": "function"
    },
    {
      "inputs": [
        {
          "internalType": "uint256",
          "name": "startIndex",
          "type": "uint256"
        },
        {
          "internalType": "uint256",
          "name": "endIndex",
          "type": "uint256"
        },
        {
          "internalType": "uint256",
          "name": "targetVersion",
          "type": "uint256"
        },
        {
          "internalType": "bytes[]",
          "name": "data",
          "type": "bytes[]"
        }
      ],
      "name": "upgradePoolBatch",
      "outputs": [],
      "stateMutability": "nonpayable",
      "type": "function"
    },
    {
      "inputs": [
        {
          "internalType": "uint256",
          "name": "startIndex",
          "type": "uint256"
        },
        {
          "internalType": "uint256",
          "name": "endIndex",
          "type": "uint256"
        },
        {
          "internalType": "uint256",
          "name": "targetVersion",
          "type": "uint256"
        },
        {
          "internalType": "bytes",
          "name": "data",
          "type": "bytes"
        }
      ],
      "name": "upgradePoolBatch",
      "outputs": [],
      "stateMutability": "nonpayable",
      "type": "function"
    }
  ],
  "bytecode": "0x608060405234801561001057600080fd5b50613e05806100206000396000f3fe608060405234801561001057600080fd5b50600436106102c45760003560e01c806389da8ad71161017957806389da8ad7146104c55780638da5cb5b146104d8578063965afa89146104e05780639a068bd6146104f35780639b313686146105065780639cada6e4146105195780639f49b60e1461052f578063aa12ae4d14610542578063aa7d664e1461054a578063af8902151461055d578063b187bd2614610565578063b3596f071461056d578063b8ff28ac14610580578063bdcede0c14610593578063c8f88a80146105a6578063cb6f3bbc146105b9578063cc435bf3146105c1578063cdf04c07146105d4578063cfc16254146105e7578063d77268e6146105fa578063dbf5974d14610602578063e0cb599614610615578063e5ac13a914610628578063eb849a041461063b578063ecb0116a1461064e578063ecef89d514610656578063eec16c4414610669578063eed0ff461461067c578063f2fde38b1461068f578063fcc08cbc146106a2576102c4565b8063032c49ed146102c957806307120115146102f257806308d7ce02146102fc57806309ed4893146103145780630ddefe14146103295780630f6559c41461033c5780631459457a146103515780632131c68c1461036457806321f8a7211461036c57806325c4121b1461037f5780632927233b146103875780633f4ba83a146103a75780633f7f5c72146103af5780634501b088146103b757806345812ca5146103bf5780634da0be1d146103d25780634f8419b9146103f257806354d8a5bd146104055780635556ee551461040d5780635a97284b146104205780635b16ebb7146104335780635c975abb146104465780635fbf37a31461044e578063715018a614610461578063771d1baf14610469578063795053d31461047c5780637b7d612b14610484578063808ae5fb146104975780638456cb59146104aa578063878f4778146104b2575b600080fd5b6102dc6102d7366004612fcd565b6106b5565b6040516102e991906138d5565b60405180910390f35b6102fa61073c565b005b6103046107de565b6040516102e994939291906138f2565b61031c6107f0565b6040516102e9919061348d565b6102fa610337366004612fcd565b6107ff565b610344610885565b6040516102e99190613646565b6102fa61035f36600461303d565b61088b565b61031c6109c2565b61031c61037a366004613214565b6109d1565b6102fa610a88565b61039a610395366004612fcd565b610af5565b6040516102e9919061363b565b6102fa610b0a565b6102fa610b76565b610344610c58565b61031c6103cd36600461322c565b610c5e565b6103e56103e0366004612fcd565b610c71565b6040516102e991906135ee565b61031c610400366004612fcd565b610ddd565b6103e5610e5e565b61034461041b366004612fcd565b610ec0565b6102fa61042e366004612fcd565b610ed2565b61039a610441366004612fcd565b610f55565b61039a610f6a565b6102fa61045c366004613214565b610f73565b6102fa611015565b6102fa6104773660046132df565b6110af565b61031c61111f565b6102fa610492366004613214565b61112e565b6102fa6104a5366004613005565b6111c5565b6102fa6112fa565b6102fa6104c036600461332b565b611364565b6102fa6104d3366004612fcd565b6114c0565b61031c611543565b6102fa6104ee366004612fcd565b611552565b61031c610501366004613214565b6115bd565b6102fa6105143660046130ad565b6115e7565b6105216116f1565b6040516102e99291906138e4565b6102fa61053d3660046132df565b6116fb565b610344611767565b6102fa610558366004613214565b61176d565b61031c6117d8565b61039a6117e7565b61034461057b366004612fcd565b6117f6565b61031c61058e366004613138565b611877565b6102fa6105a1366004612fcd565b611ad5565b6102fa6105b4366004613300565b611b5b565b610344611bd0565b61039a6105cf366004612fcd565b611bd6565b61039a6105e2366004612fcd565b611c6c565b6102fa6105f5366004612fcd565b611c81565b610344611cec565b6102fa6106103660046133b4565b611cf2565b61039a610623366004612fcd565b611df6565b6102fa610636366004612fcd565b611e0b565b6103e5610649366004612fcd565b611e76565b610521612046565b61031c610664366004613428565b612050565b6102fa610677366004613214565b612082565b6102fa61068a366004613214565b6120ed565b6102fa61069d366004612fcd565b612158565b61031c6106b0366004612fcd565b612249565b60ce5460405163b02e786f60e01b81526000916001600160a01b03169063b02e786f906106e690859060040161348d565b60206040518083038186803b1580156106fe57600080fd5b505afa158015610712573d6000803e3d6000fd5b505050506040513d601f19601f8201168201806040525081019061073691906132a5565b92915050565b600054610100900460ff1680610755575061075561235a565b80610763575060005460ff16155b61079e5760405162461bcd60e51b815260040180806020018281038252602e815260200180613d62602e913960400191505060405180910390fd5b600054610100900460ff161580156107c9576000805460ff1961ff0019909116610100171660011790555b80156107db576000805461ff00191690555b50565b60d25460de5460e05460d35490919293565b60ce546001600160a01b031690565b61080761236b565b6001600160a01b0316610818611543565b6001600160a01b031614610861576040805162461bcd60e51b81526020600482018190526024820152600080516020613d90833981519152604482015290519081900360640190fd5b6001600160a01b0316600090815260df60205260409020805460ff19166001179055565b60d75481565b600054610100900460ff16806108a457506108a461235a565b806108b2575060005460ff16155b6108ed5760405162461bcd60e51b815260040180806020018281038252602e815260200180613d62602e913960400191505060405180910390fd5b600054610100900460ff16158015610918576000805460ff1961ff0019909116610100171660011790555b610922868661236f565b61092a612377565b61093384612414565b61093c83612485565b610945826124f6565b61095861138861012c6064612710612567565b610964600a60646125f7565b61097160056103e861265f565b61097d620151806126bb565b6109896224ea0061112e565b6109946103e8610f73565b61099e600a6126f0565b6109a860e6612725565b80156109ba576000805461ff00191690555b505050505050565b60cc546001600160a01b031681565b60cd5460405163c2a9ffb160e01b81526000916001600160a01b03169063c2a9ffb190610a02908590600401613646565b60206040518083038186803b158015610a1a57600080fd5b505afa158015610a2e573d6000803e3d6000fd5b505050506040513d601f19601f82011682018060405250810190610a529190612fe9565b90506001600160a01b038116610a835760405162461bcd60e51b8152600401610a7a90613851565b60405180910390fd5b919050565b33600090815260d1602052604090205460ff161515600114610abc5760405162461bcd60e51b8152600401610a7a906137a2565b7fdbd4d7b818d776167ae42054b0831aa269b1eb3ea73bd2e7ef6091f2879b183733604051610aeb919061348d565b60405180910390a1565b60dd6020526000908152604090205460ff1681565b610b1261236b565b6001600160a01b0316610b23611543565b6001600160a01b031614610b6c576040805162461bcd60e51b81526020600482018190526024820152600080516020613d90833981519152604482015290519081900360640190fd5b610b7461277b565b565b60d16000336001600160a01b03166339b81fd96040518163ffffffff1660e01b815260040160206040518083038186803b158015610bb357600080fd5b505afa158015610bc7573d6000803e3d6000fd5b505050506040513d601f19601f82011682018060405250810190610beb9190612fe9565b6001600160a01b0316815260208101919091526040016000205460ff161515600114610c295760405162461bcd60e51b8152600401610a7a906136a1565b7f686c28f13f997a49532b3373c8e5b4a6e22e6b06b66d06487a8241a599717f4933604051610aeb919061348d565b60d45490565b6000610c6a838361281b565b9392505050565b60cb54606090806001600160401b0381118015610c8d57600080fd5b50604051908082528060200260200182016040528015610cb7578160200160208202803683370190505b5091506000805b82811015610dc257600060cb8281548110610cd557fe5b6000918252602090912001546040516370a0823160e01b81526001600160a01b03909116906370a0823190610d0e90899060040161348d565b60206040518083038186803b158015610d2657600080fd5b505afa158015610d3a573d6000803e3d6000fd5b505050506040513d601f19601f82011682018060405250810190610d5e91906132c7565b1115610dba5760cb8181548110610d7157fe5b9060005260206000200160009054906101000a90046001600160a01b0316848381518110610d9b57fe5b6001600160a01b03909216602092830291909101909101526001909101905b600101610cbe565b506000610dcf8383612949565b845103845250919392505050565b60cd5460405163174dbff160e21b81526000916001600160a01b031690635d36ffc490610e0e90859060040161348d565b60206040518083038186803b158015610e2657600080fd5b505afa158015610e3a573d6000803e3d6000fd5b505050506040513d601f19601f820116820180604052508101906107369190612fe9565b606060cb805480602002602001604051908101604052809291908181526020018280548015610eb657602002820191906000526020600020905b81546001600160a01b03168152600190910190602001808311610e98575b5050505050905090565b60d66020526000908152604090205481565b610eda61236b565b6001600160a01b0316610eeb611543565b6001600160a01b031614610f34576040805162461bcd60e51b81526020600482018190526024820152600080516020613d90833981519152604482015290519081900360640190fd5b6001600160a01b0316600090815260dd60205260409020805460ff19169055565b60d16020526000908152604090205460ff1681565b60335460ff1690565b610f7b61236b565b6001600160a01b0316610f8c611543565b6001600160a01b031614610fd5576040805162461bcd60e51b81526020600482018190526024820152600080516020613d90833981519152604482015290519081900360640190fd5b60d88190556040517fbe762d516a09c899b785daf0c0f9bea93fd44a062d9ecc24c2ddba4c6f8b47ed9061100a908390613646565b60405180910390a150565b61101d61236b565b6001600160a01b031661102e611543565b6001600160a01b031614611077576040805162461bcd60e51b81526020600482018190526024820152600080516020613d90833981519152604482015290519081900360640190fd5b6065546040516000916001600160a01b031690600080516020613db0833981519152908390a3606580546001600160a01b0319169055565b6110b761236b565b6001600160a01b03166110c8611543565b6001600160a01b031614611111576040805162461bcd60e51b81526020600482018190526024820152600080516020613d90833981519152604482015290519081900360640190fd5b61111b82826125f7565b5050565b60cd546001600160a01b031681565b61113661236b565b6001600160a01b0316611147611543565b6001600160a01b031614611190576040805162461bcd60e51b81526020600482018190526024820152600080516020613d90833981519152604482015290519081900360640190fd5b60d98190556040517f5c7a1f308b9ecdacddd5f035f458158e6a2581b1921b2ca7de3732bd1dd6e5909061100a908390613646565b6111cd61236b565b6001600160a01b03166111de611543565b6001600160a01b031614611227576040805162461bcd60e51b81526020600482018190526024820152600080516020613d90833981519152604482015290519081900360640190fd5b6001600160a01b038216611276576040805162461bcd60e51b8152602060048201526011602482015270496e76616c696420706f6f6c4c6f67696360781b604482015290519081900360640190fd5b6001600160a01b0381166112cc576040805162461bcd60e51b8152602060048201526018602482015277496e76616c696420706f6f6c4d616e616765724c6f67696360401b604482015290519081900360640190fd5b609780546001600160a01b039384166001600160a01b03199182161790915560988054929093169116179055565b61130261236b565b6001600160a01b0316611313611543565b6001600160a01b03161461135c576040805162461bcd60e51b81526020600482018190526024820152600080516020613d90833981519152604482015290519081900360640190fd5b610b746129a6565b61136c61236b565b6001600160a01b031661137d611543565b6001600160a01b0316146113c6576040805162461bcd60e51b81526020600482018190526024820152600080516020613d90833981519152604482015290519081900360640190fd5b8385111580156113d7575060cb5484105b6113f35760405162461bcd60e51b8152600401610a7a90613679565b61140860016114028688612949565b90612a29565b81146114265760405162461bcd60e51b8152600401610a7a90613774565b845b8481116109ba57600060cb828154811061143e57fe5b6000918252602090912001546001600160a01b031690508061146057506114b8565b6001600160a01b038116600090815260d66020526040902054851161148557506114b8565b6114b6818585611495868c612949565b81811061149e57fe5b90506020028101906114b0919061390d565b88612a81565b505b600101611428565b6114c861236b565b6001600160a01b03166114d9611543565b6001600160a01b031614611522576040805162461bcd60e51b81526020600482018190526024820152600080516020613d90833981519152604482015290519081900360640190fd5b6001600160a01b0316600090815260df60205260409020805460ff19169055565b6065546001600160a01b031690565b61155a61236b565b6001600160a01b031661156b611543565b6001600160a01b0316146115b4576040805162461bcd60e51b81526020600482018190526024820152600080516020613d90833981519152604482015290519081900360640190fd5b6107db81612485565b60cb81815481106115cd57600080fd5b6000918252602090912001546001600160a01b0316905081565b6115ef61236b565b6001600160a01b0316611600611543565b6001600160a01b031614611649576040805162461bcd60e51b81526020600482018190526024820152600080516020613d90833981519152604482015290519081900360640190fd5b8060005b818110156116eb57600084848381811061166357fe5b905060400201803603810190611679919061328a565b80516001600160a01b0316600090815260d1602052604090205490915060ff166116b55760405162461bcd60e51b8152600401610a7a906138af565b60208181015191516001600160a01b0316600090815260e190915260409020805460ff191691151591909117905560010161164d565b50505050565b60cf5460d0549091565b61170361236b565b6001600160a01b0316611714611543565b6001600160a01b03161461175d576040805162461bcd60e51b81526020600482018190526024820152600080516020613d90833981519152604482015290519081900360640190fd5b61111b828261265f565b60d55490565b61177561236b565b6001600160a01b0316611786611543565b6001600160a01b0316146117cf576040805162461bcd60e51b81526020600482018190526024820152600080516020613d90833981519152604482015290519081900360640190fd5b6107db816126bb565b60da546001600160a01b031681565b60006117f1610f6a565b905090565b60ce54604051638b2f0f4f60e01b81526000916001600160a01b031690638b2f0f4f9061182790859060040161348d565b60206040518083038186803b15801561183f57600080fd5b505afa158015611853573d6000803e3d6000fd5b505050506040513d601f19601f8201168201806040525081019061073691906132c7565b6000611881610f6a565b1561189e5760405162461bcd60e51b8152600401610a7a906137f4565b6000308a88886040516024016118b79493929190613536565b60408051601f198184030181529190526020810180516001600160e01b0316635426f81d60e01b17905290506118ee816002610c5e565b91506000308a8a8589898960405160240161190f97969594939291906134a1565b60408051601f198184030181529190526020810180516001600160e01b031663361315ff60e11b17905290506000611948826001610c5e565b604051633a81136f60e11b81529091506001600160a01b0385169063750226de9061197790849060040161348d565b602060405180830381600087803b15801561199157600080fd5b505af11580156119a5573d6000803e3d6000fd5b505050506040513d601f19601f820116820180604052508101906119c9919061311c565b5060cb849080600181540180825580915050600190039060005260206000200160009091909190916101000a8154816001600160a01b0302191690836001600160a01b03160217905550600160d16000866001600160a01b03166001600160a01b0316815260200190815260200160002060006101000a81548160ff02191690831515021790555060d75460d66000866001600160a01b03166001600160a01b03168152602001908152602001600020819055507f7568e63260f13515e4b3208667c411fbf4c7dce047496ca5f9a56f1c92440d93848d8b8d8f428d8d60d354604051611abe9998979695949392919061357f565b60405180910390a150505098975050505050505050565b611add61236b565b6001600160a01b0316611aee611543565b6001600160a01b031614611b37576040805162461bcd60e51b81526020600482018190526024820152600080516020613d90833981519152604482015290519081900360640190fd5b6001600160a01b0316600090815260dd60205260409020805460ff19166001179055565b611b6361236b565b6001600160a01b0316611b74611543565b6001600160a01b031614611bbd576040805162461bcd60e51b81526020600482018190526024820152600080516020613d90833981519152604482015290519081900360640190fd5b611bcb83838360d354612567565b505050565b60d95481565b60ce5460405163b4fb127960e01b815260009182916001600160a01b039091169063b4fb127990611c0b90869060040161348d565b60206040518083038186803b158015611c2357600080fd5b505afa158015611c37573d6000803e3d6000fd5b505050506040513d601f19601f82011682018060405250810190611c5b9190612fe9565b6001600160a01b0316141592915050565b60e16020526000908152604090205460ff1681565b611c8961236b565b6001600160a01b0316611c9a611543565b6001600160a01b031614611ce3576040805162461bcd60e51b81526020600482018190526024820152600080516020613d90833981519152604482015290519081900360640190fd5b6107db816124f6565b60d85481565b611cfa61236b565b6001600160a01b0316611d0b611543565b6001600160a01b031614611d54576040805162461bcd60e51b81526020600482018190526024820152600080516020613d90833981519152604482015290519081900360640190fd5b838511158015611d65575060cb5484105b611d815760405162461bcd60e51b8152600401610a7a90613679565b845b8481116109ba57600060cb8281548110611d9957fe5b6000918252602090912001546001600160a01b0316905080611dbb5750611dee565b6001600160a01b038116600090815260d660205260409020548511611de05750611dee565b611dec81858588612a81565b505b600101611d83565b60df6020526000908152604090205460ff1681565b611e1361236b565b6001600160a01b0316611e24611543565b6001600160a01b031614611e6d576040805162461bcd60e51b81526020600482018190526024820152600080516020613d90833981519152604482015290519081900360640190fd5b6107db81612414565b60cb54606090806001600160401b0381118015611e9257600080fd5b50604051908082528060200260200182016040528015611ebc578160200160208202803683370190505b5091506000805b82811015610dc257600060cb8281548110611eda57fe5b6000918252602091829020015460408051630f28525360e11b815290516001600160a01b0390921692631e50a4a692600480840193829003018186803b158015611f2357600080fd5b505afa158015611f37573d6000803e3d6000fd5b505050506040513d601f19601f82011682018060405250810190611f5b9190612fe9565b9050856001600160a01b0316816001600160a01b031663481c6a756040518163ffffffff1660e01b815260040160206040518083038186803b158015611fa057600080fd5b505afa158015611fb4573d6000803e3d6000fd5b505050506040513d601f19601f82011682018060405250810190611fd89190612fe9565b6001600160a01b0316141561203d5760cb8281548110611ff457fe5b9060005260206000200160009054906101000a90046001600160a01b031685848151811061201e57fe5b6001600160a01b03909216602092830291909101909101526001909201915b50600101611ec3565b60db5460dc549091565b60008160ff166001141561207057506098546001600160a01b0316610a83565b506097546001600160a01b0316610a83565b61208a61236b565b6001600160a01b031661209b611543565b6001600160a01b0316146120e4576040805162461bcd60e51b81526020600482018190526024820152600080516020613d90833981519152604482015290519081900360640190fd5b6107db816126f0565b6120f561236b565b6001600160a01b0316612106611543565b6001600160a01b03161461214f576040805162461bcd60e51b81526020600482018190526024820152600080516020613d90833981519152604482015290519081900360640190fd5b6107db81612725565b61216061236b565b6001600160a01b0316612171611543565b6001600160a01b0316146121ba576040805162461bcd60e51b81526020600482018190526024820152600080516020613d90833981519152604482015290519081900360640190fd5b6001600160a01b0381166121ff5760405162461bcd60e51b8152600401808060200182810382526026815260200180613d3c6026913960400191505060405180910390fd5b6065546040516001600160a01b03808416921690600080516020613db083398151915290600090a3606580546001600160a01b0319166001600160a01b0392909216919091179055565b600061225482611bd6565b15610a835760ce5460405163b02e786f60e01b81526000916001600160a01b03169063b02e786f9061228a90869060040161348d565b60206040518083038186803b1580156122a257600080fd5b505afa1580156122b6573d6000803e3d6000fd5b505050506040513d601f19601f820116820180604052508101906122da91906132a5565b60cd5460405162a950c360e81b81529192506001600160a01b03169063a950c3009061230a9084906004016138d5565b60206040518083038186803b15801561232257600080fd5b505afa158015612336573d6000803e3d6000fd5b505050506040513d601f19601f82011682018060405250810190610c6a9190612fe9565b600061236530612b9d565b15905090565b3390565b611227612ba3565b600054610100900460ff1680612390575061239061235a565b8061239e575060005460ff16155b6123d95760405162461bcd60e51b815260040180806020018281038252602e815260200180613d62602e913960400191505060405180910390fd5b600054610100900460ff16158015612404576000805460ff1961ff0019909116610100171660011790555b61240c61073c565b6107c9612c40565b6001600160a01b03811661243a5760405162461bcd60e51b8152600401610a7a906137c6565b60ce80546001600160a01b0319166001600160a01b0383161790556040517faca6dca39d79ebceec9b32e3a681f32c1368a5b373cc24d96a02a896a1457ed89061100a90839061348d565b6001600160a01b0381166124ab5760405162461bcd60e51b8152600401610a7a90613883565b60cc80546001600160a01b0319166001600160a01b0383161790556040517f7138c17e9cd38b1f65ba47723efdaec045a981aa53992018fd215e5c09a22fc49061100a90839061348d565b6001600160a01b03811661251c5760405162461bcd60e51b8152600401610a7a9061381e565b60cd80546001600160a01b0319166001600160a01b0383161790556040517fbdb80a7ad60bd8133ed6b01049f9065c4cad1fa0a8e074da74b480f2aa83c9369061100a90839061348d565b8084111580156125775750808311155b80156125835750808211155b61259f5760405162461bcd60e51b8152600401610a7a90613716565b60d284905560de83905560d381905560e08290556040517f720fe36421ecec4b8b4b3282b5714c1fde000f75dcc989cd486474901819d852906125e99086908690869086906138f2565b60405180910390a150505050565b808211156126175760405162461bcd60e51b8152600401610a7a90613716565b60cf82905560d08190556040517fb10da2958bf5ec1bff3164ff753a09e0460ed44d3abf73e79b817b500ed0f2f19061265390849084906138e4565b60405180910390a15050565b8082111561267f5760405162461bcd60e51b8152600401610a7a90613716565b60db82905560dc8190556040517fc84081a9c94a2300cdec20e3d60952b84e96e11edf24cb65ba26b7f8455f29db9061265390849084906138e4565b60d48190556040517f20d916c976f3971e8200089411b0b712ef4612d98380b8ad2e3d8a8a376d85c79061100a908390613646565b60d58190556040517f0cd8fcb5e08d7632af461f0ad793e5c63dc0d7595c301f5880650175e37a87489061100a908390613646565b60d75481116127465760405162461bcd60e51b8152600401610a7a90613740565b60d78190556040517f2983f04849f6bc055a842a8036b38adc41a780193744d7320475e29f0c78391f9061100a908390613646565b612783610f6a565b6127cb576040805162461bcd60e51b815260206004820152601460248201527314185d5cd8589b194e881b9bdd081c185d5cd95960621b604482015290519081900360640190fd5b6033805460ff191690557f5db9ee0a495bf2e6ff9c91a7834c1ba4fdd244a5e8aa4e537bd38aeae4b073aa6127fe61236b565b604080516001600160a01b039092168252519081900360200190a1565b600080612826612ceb565b604080516001600160a01b038316815290519192507efffc2da0b561cae30d9826d37709e9421c4725faebc226cbbb7ef5fc5e7349919081900360200190a1806001600160a01b031663e74a474a3086866040518463ffffffff1660e01b815260040180846001600160a01b03168152602001806020018360ff168152602001828103825284818151815260200191508051906020019080838360005b838110156128db5781810151838201526020016128c3565b50505050905090810190601f1680156129085780820380516001836020036101000a031916815260200191505b50945050505050600060405180830381600087803b15801561292957600080fd5b505af115801561293d573d6000803e3d6000fd5b50929695505050505050565b6000828211156129a0576040805162461bcd60e51b815260206004820152601e60248201527f536166654d6174683a207375627472616374696f6e206f766572666c6f770000604482015290519081900360640190fd5b50900390565b6129ae610f6a565b156129f3576040805162461bcd60e51b815260206004820152601060248201526f14185d5cd8589b194e881c185d5cd95960821b604482015290519081900360640190fd5b6033805460ff191660011790557f62e78cea01bee320cd4e420270b5ea74000d11b0c9f74754ebdbfc544b05a2586127fe61236b565b600082820183811015610c6a576040805162461bcd60e51b815260206004820152601b60248201527a536166654d6174683a206164646974696f6e206f766572666c6f7760281b604482015290519081900360640190fd5b6001600160a01b038416612aa75760405162461bcd60e51b8152600401610a7a906136ee565b81612ac45760405162461bcd60e51b8152600401610a7a906136c8565b6001600160a01b038416600090815260d660205260409020548111612afb5760405162461bcd60e51b8152600401610a7a9061364f565b612b4583838080601f016020809104026020016040519081016040528093929190818152602001838380828437600092019190915250506001600160a01b03881692915050612d32565b506040516001600160a01b0385169033907f78a9b536049c39a00adaf57016b1376c99dd48a0faf2cef23690232f21ce42cc90600090a36001600160a01b03909316600090815260d660205260409020929092555050565b3b151590565b600054610100900460ff1680612bbc5750612bbc61235a565b80612bca575060005460ff16155b612c055760405162461bcd60e51b815260040180806020018281038252602e815260200180613d62602e913960400191505060405180910390fd5b600054610100900460ff16158015612c30576000805460ff1961ff0019909116610100171660011790555b612c3861073c565b6107c9612d63565b600054610100900460ff1680612c595750612c5961235a565b80612c67575060005460ff16155b612ca25760405162461bcd60e51b815260040180806020018281038252602e815260200180613d62602e913960400191505060405180910390fd5b600054610100900460ff16158015612ccd576000805460ff1961ff0019909116610100171660011790555b6033805460ff1916905580156107db576000805461ff001916905550565b600080600060405180602001612d0090612e4a565b6020820181038252601f19601f8201166040525090508051602082016000f09150813b612d2c57600080fd5b50905090565b6000806000835160208501865af49050801560018114612d5157612d5c565b3d806000803e806000fd5b5092915050565b600054610100900460ff1680612d7c5750612d7c61235a565b80612d8a575060005460ff16155b612dc55760405162461bcd60e51b815260040180806020018281038252602e815260200180613d62602e913960400191505060405180910390fd5b600054610100900460ff16158015612df0576000805460ff1961ff0019909116610100171660011790555b6000612dfa61236b565b606580546001600160a01b0319166001600160a01b03831690811790915560405191925090600090600080516020613db0833981519152908290a35080156107db576000805461ff001916905550565b61039d8061399f83390190565b60006001600160401b03831115612e6a57fe5b612e7d601f8401601f1916602001613958565b9050828152838383011115612e9157600080fd5b828260208301376000602084830101529392505050565b8035610a838161397b565b600082601f830112612ec3578081fd5b813560206001600160401b03821115612ed857fe5b612ee58182840201613958565b82815281810190858301604080860288018501891015612f03578687fd5b865b86811015612f2957612f178a84612f61565b85529385019391810191600101612f05565b509198975050505050505050565b8035610a8381613990565b600082601f830112612f52578081fd5b610c6a83833560208501612e57565b600060408284031215612f72578081fd5b604051604081018181106001600160401b0382111715612f8e57fe5b6040529050808235612f9f8161397b565b81526020830135612faf81613990565b6020919091015292915050565b803560ff81168114610a8357600080fd5b600060208284031215612fde578081fd5b8135610c6a8161397b565b600060208284031215612ffa578081fd5b8151610c6a8161397b565b60008060408385031215613017578081fd5b82356130228161397b565b915060208301356130328161397b565b809150509250929050565b600080600080600060a08688031215613054578081fd5b853561305f8161397b565b9450602086013561306f8161397b565b9350604086013561307f8161397b565b9250606086013561308f8161397b565b9150608086013561309f8161397b565b809150509295509295909350565b600080602083850312156130bf578182fd5b82356001600160401b03808211156130d5578384fd5b818501915085601f8301126130e8578384fd5b8135818111156130f6578485fd5b86602060408302850101111561310a578485fd5b60209290920196919550909350505050565b60006020828403121561312d578081fd5b8151610c6a81613990565b600080600080600080600080610100898b031215613154578586fd5b61315d89612f37565b975061316b60208a01612ea8565b965060408901356001600160401b0380821115613186578788fd5b6131928c838d01612f42565b975060608b01359150808211156131a7578485fd5b6131b38c838d01612f42565b965060808b01359150808211156131c8578485fd5b6131d48c838d01612f42565b955060a08b0135945060c08b0135935060e08b01359150808211156131f7578283fd5b506132048b828c01612eb3565b9150509295985092959890939650565b600060208284031215613225578081fd5b5035919050565b6000806040838503121561323e578182fd5b82356001600160401b03811115613253578283fd5b8301601f81018513613263578283fd5b61327285823560208401612e57565b92505061328160208401612fbc565b90509250929050565b60006040828403121561329b578081fd5b610c6a8383612f61565b6000602082840312156132b6578081fd5b815161ffff81168114610c6a578182fd5b6000602082840312156132d8578081fd5b5051919050565b600080604083850312156132f1578182fd5b50508035926020909101359150565b600080600060608486031215613314578081fd5b505081359360208301359350604090920135919050565b600080600080600060808688031215613342578283fd5b85359450602086013593506040860135925060608601356001600160401b038082111561336d578283fd5b818801915088601f830112613380578283fd5b81358181111561338e578384fd5b89602080830285010111156133a1578384fd5b9699959850939650602001949392505050565b6000806000806000608086880312156133cb578283fd5b85359450602086013593506040860135925060608601356001600160401b03808211156133f6578283fd5b818801915088601f830112613409578283fd5b813581811115613417578384fd5b8960208285010111156133a1578384fd5b600060208284031215613439578081fd5b610c6a82612fbc565b60008151808452815b818110156134675760208185018101518683018201520161344b565b818111156134785782602083870101525b50601f01601f19169290920160200192915050565b6001600160a01b0391909116815260200190565b600060018060a01b03808a1683526020818a1681850152604060e0818601526134cd60e086018b613442565b89841660608701526080860189905260a0860188905285810360c0870152865180825283880191840190865b8181101561352257835180518816845286015115158684015292850192918401916001016134f9565b50909e9d5050505050505050505050505050565b6001600160a01b0385168152831515602082015260806040820181905260009061356290830185613442565b82810360608401526135748185613442565b979650505050505050565b6001600160a01b038a811682528915156020830152610120604083018190526000916135ad8483018c613442565b915083820360608501526135c1828b613442565b98166080840152505060a081019490945260c084019290925260e083015261010090910152949350505050565b6020808252825182820181905260009190848201906040850190845b8181101561362f5783516001600160a01b03168352928401929184019160010161360a565b50909695505050505050565b901515815260200190565b90815260200190565b60208082526010908201526f185b1c9958591e481d5c19dc9859195960821b604082015260600190565b6020808252600e908201526d696e76616c696420626f756e647360901b604082015260600190565b6020808252600d908201526c6f6e6c79206d616e616765727360981b604082015260600190565b6020808252600c908201526b19185d184b5a5b9d985b1a5960a21b604082015260600190565b6020808252600e908201526d1d185c99d95d0b5a5b9d985b1a5960921b604082015260600190565b60208082526010908201526f34b73b30b634b210333930b1ba34b7b760811b604082015260600190565b6020808252601a90820152793b32b939b4b7b7103732b2b239903a37903132903434b3b432b960311b604082015260600190565b6020808252601490820152730c8c2e8c240dcdee840dacae8c6d040d2dcc8caf60631b604082015260600190565b6020808252600a90820152696f6e6c7920706f6f6c7360b01b604082015260600190565b60208082526014908201527324b73b30b634b21030b9b9b2ba2430b7323632b960611b604082015260600190565b60208082526010908201526f18dbdb9d1c9858dd1cc81c185d5cd95960821b604082015260600190565b602080825260199082015278496e76616c696420676f7665726e616e63654164647265737360381b604082015260600190565b602080825260189082015277676f7665726e616e63653a20696e76616c6964206e616d6560401b604082015260600190565b602080825260129082015271496e76616c69642064616f4164647265737360701b604082015260600190565b6020808252600c908201526b1a5b9d985b1a59081c1bdbdb60a21b604082015260600190565b61ffff91909116815260200190565b918252602082015260400190565b93845260208401929092526040830152606082015260800190565b6000808335601e19843603018112613923578283fd5b8301803591506001600160401b0382111561393c578283fd5b60200191503681900382131561395157600080fd5b9250929050565b6040518181016001600160401b038111828210171561397357fe5b604052919050565b6001600160a01b03811681146107db57600080fd5b80151581146107db57600080fdfe608060405234801561001057600080fd5b5061037d806100206000396000f3fe6080604052600436106100225760003560e01c8063e74a474a1461003957610031565b366100315761002f6100f2565b005b61002f6100f2565b61002f6004803603606081101561004f57600080fd5b6001600160a01b038235169190810190604081016020820135600160201b81111561007957600080fd5b82018360208201111561008b57600080fd5b803590602001918460018302840111600160201b831117156100ac57600080fd5b91908080601f0160208091040260200160405190810160405280939291908181526020018383808284376000920191909152509295505050903560ff16915061010c9050565b6100fa61010a565b61010a61010561019c565b61025d565b565b600061011661019c565b6001600160a01b031614610161576040805162461bcd60e51b815260206004820152600d60248201526c496d706c206e6f74207a65726f60981b604482015290519081900360640190fd5b61016a83610281565b610173816102ff565b815115610197576101958261018661019c565b6001600160a01b031690610307565b505b505050565b7f360894a13ba1a3210667c828492db98dca3e2076cc3735a920a3ca505d382bbc80546000916001600160a01b0382166101db5760009250505061025a565b816001600160a01b031663ecef89d56101f2610338565b6040518263ffffffff1660e01b8152600401808260ff16815260200191505060206040518083038186803b15801561022957600080fd5b505afa15801561023d573d6000803e3d6000fd5b505050506040513d602081101561025357600080fd5b5051925050505b90565b3660008037600080366000845af43d6000803e80801561027c573d6000f35b3d6000fd5b61028a81610341565b6102db576040805162461bcd60e51b815260206004820181905260248201527f43616e6e6f742073657420696d706c656d656e746174696f6e20746f20454f41604482015290519081900360640190fd5b7f360894a13ba1a3210667c828492db98dca3e2076cc3735a920a3ca505d382bbc55565b600160fc1b55565b6000806000835160208501865af4905080156001811461032657610331565b3d806000803e806000fd5b5092915050565b600160fc1b5490565b3b15159056fea2646970667358221220db02276f833114d2779575b953214dd6737c50216e65d5ea2dd9bcb65fb5559464736f6c634300070600334f776e61626c653a206e6577206f776e657220697320746865207a65726f2061646472657373496e697469616c697a61626c653a20636f6e747261637420697320616c726561647920696e697469616c697a65644f776e61626c653a2063616c6c6572206973206e6f7420746865206f776e65728be0079c531659141344cd1fd0a4f28419497f9722a3daafe3b4186f6b6457e0a2646970667358221220abbfd8c608156b82d09cc6222ddd7d7a4056ace91fa149711f26219cf139ee3f64736f6c63430007060033",
  "linkReferences": {},
  "deployedLinkReferences": {}
}