{
  "_format": "hh-sol-artifact-1",
  "contractName": "SonneFinanceCTokenGuard",
  "sourceName": "contracts/guards/contractGuards/sonne/SonneFinanceCTokenGuard.sol",
  "abi": [
    {
      "inputs": [
        {
          "internalType": "address[]",
          "name": "_whitelistedVaults",
          "type": "address[]"
        }
      ],
      "stateMutability": "nonpayable",
      "type": "constructor"
    },
    {
      "anonymous": false,
      "inputs": [
        {
          "indexed": false,
          "internalType": "address",
          "name": "poolLogic",
          "type": "address"
        },
        {
          "indexed": false,
          "internalType": "address",
          "name": "pair",
          "type": "address"
        },
        {
          "indexed": false,
          "internalType": "bytes",
          "name": "params",
          "type": "bytes"
        },
        {
          "indexed": false,
          "internalType": "uint256",
          "name": "time",
          "type": "uint256"
        }
      ],
      "name": "AddLiquidity",
      "type": "event"
    },
    {
      "anonymous": false,
      "inputs": [
        {
          "indexed": false,
          "internalType": "address",
          "name": "fundAddress",
          "type": "address"
        },
        {
          "indexed": false,
          "internalType": "address",
          "name": "asset",
          "type": "address"
        },
        {
          "indexed": false,
          "internalType": "address",
          "name": "liquidityPool",
          "type": "address"
        },
        {
          "indexed": false,
          "internalType": "uint256",
          "name": "amount",
          "type": "uint256"
        },
        {
          "indexed": false,
          "internalType": "uint256",
          "name": "time",
          "type": "uint256"
        }
      ],
      "name": "AddLiquiditySingle",
      "type": "event"
    },
    {
      "anonymous": false,
      "inputs": [
        {
          "indexed": false,
          "internalType": "address",
          "name": "poolLogic",
          "type": "address"
        },
        {
          "indexed": false,
          "internalType": "address",
          "name": "stakingContract",
          "type": "address"
        },
        {
          "indexed": false,
          "internalType": "uint256",
          "name": "time",
          "type": "uint256"
        }
      ],
      "name": "Claim",
      "type": "event"
    },
    {
      "anonymous": false,
      "inputs": [
        {
          "indexed": false,
          "internalType": "address",
          "name": "fundAddress",
          "type": "address"
        },
        {
          "indexed": false,
          "internalType": "address",
          "name": "sourceAsset",
          "type": "address"
        },
        {
          "indexed": false,
          "internalType": "uint256",
          "name": "sourceAmount",
          "type": "uint256"
        },
        {
          "indexed": false,
          "internalType": "address",
          "name": "dstAsset",
          "type": "address"
        },
        {
          "indexed": false,
          "internalType": "uint256",
          "name": "time",
          "type": "uint256"
        }
      ],
      "name": "ExchangeFrom",
      "type": "event"
    },
    {
      "anonymous": false,
      "inputs": [
        {
          "indexed": false,
          "internalType": "address",
          "name": "fundAddress",
          "type": "address"
        },
        {
          "indexed": false,
          "internalType": "address",
          "name": "sourceAsset",
          "type": "address"
        },
        {
          "indexed": false,
          "internalType": "address",
          "name": "dstAsset",
          "type": "address"
        },
        {
          "indexed": false,
          "internalType": "uint256",
          "name": "dstAmount",
          "type": "uint256"
        },
        {
          "indexed": false,
          "internalType": "uint256",
          "name": "time",
          "type": "uint256"
        }
      ],
      "name": "ExchangeTo",
      "type": "event"
    },
    {
      "anonymous": false,
      "inputs": [
        {
          "indexed": false,
          "internalType": "address",
          "name": "poolLogic",
          "type": "address"
        },
        {
          "indexed": false,
          "internalType": "address",
          "name": "pair",
          "type": "address"
        },
        {
          "indexed": false,
          "internalType": "bytes",
          "name": "params",
          "type": "bytes"
        },
        {
          "indexed": false,
          "internalType": "uint256",
          "name": "time",
          "type": "uint256"
        }
      ],
      "name": "RemoveLiquidity",
      "type": "event"
    },
    {
      "anonymous": false,
      "inputs": [
        {
          "indexed": false,
          "internalType": "address",
          "name": "fundAddress",
          "type": "address"
        },
        {
          "indexed": false,
          "internalType": "address",
          "name": "asset",
          "type": "address"
        },
        {
          "indexed": false,
          "internalType": "address",
          "name": "liquidityPool",
          "type": "address"
        },
        {
          "indexed": false,
          "internalType": "uint256",
          "name": "amount",
          "type": "uint256"
        },
        {
          "indexed": false,
          "internalType": "uint256",
          "name": "time",
          "type": "uint256"
        }
      ],
      "name": "RemoveLiquiditySingle",
      "type": "event"
    },
    {
      "anonymous": false,
      "inputs": [
        {
          "indexed": true,
          "internalType": "address",
          "name": "fundAddress",
          "type": "address"
        },
        {
          "indexed": false,
          "internalType": "address",
          "name": "asset",
          "type": "address"
        },
        {
          "indexed": false,
          "internalType": "address",
          "name": "cToken",
          "type": "address"
        },
        {
          "indexed": false,
          "internalType": "uint256",
          "name": "amount",
          "type": "uint256"
        },
        {
          "indexed": false,
          "internalType": "uint256",
          "name": "time",
          "type": "uint256"
        }
      ],
      "name": "SonneBorrowEvent",
      "type": "event"
    },
    {
      "anonymous": false,
      "inputs": [
        {
          "indexed": true,
          "internalType": "address",
          "name": "poolLogic",
          "type": "address"
        },
        {
          "indexed": false,
          "internalType": "address[]",
          "name": "cTokens",
          "type": "address[]"
        },
        {
          "indexed": false,
          "internalType": "uint256",
          "name": "time",
          "type": "uint256"
        }
      ],
      "name": "SonneEnterMarkets",
      "type": "event"
    },
    {
      "anonymous": false,
      "inputs": [
        {
          "indexed": true,
          "internalType": "address",
          "name": "poolLogic",
          "type": "address"
        },
        {
          "indexed": false,
          "internalType": "address",
          "name": "cToken",
          "type": "address"
        },
        {
          "indexed": false,
          "internalType": "uint256",
          "name": "time",
          "type": "uint256"
        }
      ],
      "name": "SonneExitMarket",
      "type": "event"
    },
    {
      "anonymous": false,
      "inputs": [
        {
          "indexed": true,
          "internalType": "address",
          "name": "fundAddress",
          "type": "address"
        },
        {
          "indexed": false,
          "internalType": "address",
          "name": "asset",
          "type": "address"
        },
        {
          "indexed": false,
          "internalType": "address",
          "name": "cToken",
          "type": "address"
        },
        {
          "indexed": false,
          "internalType": "uint256",
          "name": "amount",
          "type": "uint256"
        },
        {
          "indexed": false,
          "internalType": "uint256",
          "name": "time",
          "type": "uint256"
        }
      ],
      "name": "SonneMintEvent",
      "type": "event"
    },
    {
      "anonymous": false,
      "inputs": [
        {
          "indexed": true,
          "internalType": "address",
          "name": "fundAddress",
          "type": "address"
        },
        {
          "indexed": false,
          "internalType": "address",
          "name": "asset",
          "type": "address"
        },
        {
          "indexed": false,
          "internalType": "address",
          "name": "cToken",
          "type": "address"
        },
        {
          "indexed": false,
          "internalType": "uint256",
          "name": "amount",
          "type": "uint256"
        },
        {
          "indexed": false,
          "internalType": "uint256",
          "name": "time",
          "type": "uint256"
        }
      ],
      "name": "SonneRedeemEvent",
      "type": "event"
    },
    {
      "anonymous": false,
      "inputs": [
        {
          "indexed": true,
          "internalType": "address",
          "name": "fundAddress",
          "type": "address"
        },
        {
          "indexed": false,
          "internalType": "address",
          "name": "asset",
          "type": "address"
        },
        {
          "indexed": false,
          "internalType": "address",
          "name": "cToken",
          "type": "address"
        },
        {
          "indexed": false,
          "internalType": "uint256",
          "name": "amount",
          "type": "uint256"
        },
        {
          "indexed": false,
          "internalType": "uint256",
          "name": "time",
          "type": "uint256"
        }
      ],
      "name": "SonneRedeemUnderlyingEvent",
      "type": "event"
    },
    {
      "anonymous": false,
      "inputs": [
        {
          "indexed": true,
          "internalType": "address",
          "name": "fundAddress",
          "type": "address"
        },
        {
          "indexed": false,
          "internalType": "address",
          "name": "asset",
          "type": "address"
        },
        {
          "indexed": false,
          "internalType": "address",
          "name": "cToken",
          "type": "address"
        },
        {
          "indexed": false,
          "internalType": "uint256",
          "name": "amount",
          "type": "uint256"
        },
        {
          "indexed": false,
          "internalType": "uint256",
          "name": "time",
          "type": "uint256"
        }
      ],
      "name": "SonneRepayEvent",
      "type": "event"
    },
    {
      "anonymous": false,
      "inputs": [
        {
          "indexed": false,
          "internalType": "address",
          "name": "poolLogic",
          "type": "address"
        },
        {
          "indexed": false,
          "internalType": "address",
          "name": "stakingToken",
          "type": "address"
        },
        {
          "indexed": false,
          "internalType": "address",
          "name": "to",
          "type": "address"
        },
        {
          "indexed": false,
          "internalType": "uint256",
          "name": "amount",
          "type": "uint256"
        },
        {
          "indexed": false,
          "internalType": "uint256",
          "name": "time",
          "type": "uint256"
        }
      ],
      "name": "Stake",
      "type": "event"
    },
    {
      "anonymous": false,
      "inputs": [
        {
          "indexed": false,
          "internalType": "address",
          "name": "poolAddress",
          "type": "address"
        },
        {
          "indexed": false,
          "internalType": "contract IERC20[]",
          "name": "synthProxies",
          "type": "address[]"
        }
      ],
      "name": "SynthRedeem",
      "type": "event"
    },
    {
      "anonymous": false,
      "inputs": [
        {
          "indexed": false,
          "internalType": "address",
          "name": "poolLogic",
          "type": "address"
        },
        {
          "indexed": false,
          "internalType": "uint256",
          "name": "txType",
          "type": "uint256"
        }
      ],
      "name": "SynthetixV3Event",
      "type": "event"
    },
    {
      "anonymous": false,
      "inputs": [
        {
          "indexed": false,
          "internalType": "address",
          "name": "poolLogic",
          "type": "address"
        },
        {
          "indexed": false,
          "internalType": "address",
          "name": "stakingToken",
          "type": "address"
        },
        {
          "indexed": false,
          "internalType": "address",
          "name": "to",
          "type": "address"
        },
        {
          "indexed": false,
          "internalType": "uint256",
          "name": "amount",
          "type": "uint256"
        },
        {
          "indexed": false,
          "internalType": "uint256",
          "name": "time",
          "type": "uint256"
        }
      ],
      "name": "Unstake",
      "type": "event"
    },
    {
      "inputs": [
        {
          "internalType": "bytes32",
          "name": "data",
          "type": "bytes32"
        }
      ],
      "name": "convert32toAddress",
      "outputs": [
        {
          "internalType": "address",
          "name": "o",
          "type": "address"
        }
      ],
      "stateMutability": "pure",
      "type": "function"
    },
    {
      "inputs": [
        {
          "internalType": "address",
          "name": "",
          "type": "address"
        }
      ],
      "name": "dHedgeVaultsWhitelist",
      "outputs": [
        {
          "internalType": "bool",
          "name": "",
          "type": "bool"
        }
      ],
      "stateMutability": "view",
      "type": "function"
    },
    {
      "inputs": [
        {
          "internalType": "bytes",
          "name": "data",
          "type": "bytes"
        },
        {
          "internalType": "uint8",
          "name": "inputNum",
          "type": "uint8"
        },
        {
          "internalType": "uint8",
          "name": "arrayIndex",
          "type": "uint8"
        }
      ],
      "name": "getArrayIndex",
      "outputs": [
        {
          "internalType": "bytes32",
          "name": "",
          "type": "bytes32"
        }
      ],
      "stateMutability": "pure",
      "type": "function"
    },
    {
      "inputs": [
        {
          "internalType": "bytes",
          "name": "data",
          "type": "bytes"
        },
        {
          "internalType": "uint8",
          "name": "inputNum",
          "type": "uint8"
        }
      ],
      "name": "getArrayLast",
      "outputs": [
        {
          "internalType": "bytes32",
          "name": "",
          "type": "bytes32"
        }
      ],
      "stateMutability": "pure",
      "type": "function"
    },
    {
      "inputs": [
        {
          "internalType": "bytes",
          "name": "data",
          "type": "bytes"
        },
        {
          "internalType": "uint8",
          "name": "inputNum",
          "type": "uint8"
        }
      ],
      "name": "getArrayLength",
      "outputs": [
        {
          "internalType": "uint256",
          "name": "",
          "type": "uint256"
        }
      ],
      "stateMutability": "pure",
      "type": "function"
    },
    {
      "inputs": [
        {
          "internalType": "bytes",
          "name": "data",
          "type": "bytes"
        },
        {
          "internalType": "uint8",
          "name": "inputNum",
          "type": "uint8"
        },
        {
          "internalType": "uint256",
          "name": "offset",
          "type": "uint256"
        }
      ],
      "name": "getBytes",
      "outputs": [
        {
          "internalType": "bytes",
          "name": "",
          "type": "bytes"
        }
      ],
      "stateMutability": "pure",
      "type": "function"
    },
    {
      "inputs": [
        {
          "internalType": "bytes",
          "name": "data",
          "type": "bytes"
        },
        {
          "internalType": "uint8",
          "name": "inputNum",
          "type": "uint8"
        }
      ],
      "name": "getInput",
      "outputs": [
        {
          "internalType": "bytes32",
          "name": "",
          "type": "bytes32"
        }
      ],
      "stateMutability": "pure",
      "type": "function"
    },
    {
      "inputs": [
        {
          "internalType": "bytes",
          "name": "data",
          "type": "bytes"
        }
      ],
      "name": "getMethod",
      "outputs": [
        {
          "internalType": "bytes4",
          "name": "",
          "type": "bytes4"
        }
      ],
      "stateMutability": "pure",
      "type": "function"
    },
    {
      "inputs": [
        {
          "internalType": "bytes",
          "name": "data",
          "type": "bytes"
        }
      ],
      "name": "getParams",
      "outputs": [
        {
          "internalType": "bytes",
          "name": "",
          "type": "bytes"
        }
      ],
      "stateMutability": "pure",
      "type": "function"
    },
    {
      "inputs": [
        {
          "internalType": "bytes",
          "name": "data",
          "type": "bytes"
        },
        {
          "internalType": "uint256",
          "name": "offset",
          "type": "uint256"
        },
        {
          "internalType": "uint256",
          "name": "length",
          "type": "uint256"
        }
      ],
      "name": "read32",
      "outputs": [
        {
          "internalType": "bytes32",
          "name": "o",
          "type": "bytes32"
        }
      ],
      "stateMutability": "pure",
      "type": "function"
    },
    {
      "inputs": [
        {
          "internalType": "bytes",
          "name": "data",
          "type": "bytes"
        },
        {
          "internalType": "uint256",
          "name": "offset",
          "type": "uint256"
        }
      ],
      "name": "read4left",
      "outputs": [
        {
          "internalType": "bytes4",
          "name": "o",
          "type": "bytes4"
        }
      ],
      "stateMutability": "pure",
      "type": "function"
    },
    {
      "inputs": [
        {
          "internalType": "address",
          "name": "_poolManagerLogic",
          "type": "address"
        },
        {
          "internalType": "address",
          "name": "_to",
          "type": "address"
        },
        {
          "internalType": "bytes",
          "name": "_data",
          "type": "bytes"
        }
      ],
      "name": "txGuard",
      "outputs": [
        {
          "internalType": "uint16",
          "name": "_txType",
          "type": "uint16"
        },
        {
          "internalType": "bool",
          "name": "_isPublic",
          "type": "bool"
        }
      ],
      "stateMutability": "nonpayable",
      "type": "function"
    }
  ],
  "bytecode": "0x60806040523480156200001157600080fd5b506040516200154c3803806200154c8339810160408190526200003491620000b3565b60005b81518110156200008e5760016000808484815181106200005357fe5b6020908102919091018101516001600160a01b03168252810191909152604001600020805460ff191691151591909117905560010162000037565b505062000171565b80516001600160a01b0381168114620000ae57600080fd5b919050565b60006020808385031215620000c6578182fd5b82516001600160401b0380821115620000dd578384fd5b818501915085601f830112620000f1578384fd5b815181811115620000fe57fe5b838102604051858282010181811085821117156200011857fe5b604052828152858101935084860182860187018a101562000137578788fd5b8795505b8386101562000164576200014f8162000096565b8552600195909501949386019386016200013b565b5098975050505050505050565b6113cb80620001816000396000f3fe608060405234801561001057600080fd5b50600436106100a45760003560e01c806309ff5c7d146100a95780631053f952146100d25780631eba3077146100f2578063293d80631461011257806341dc16c3146101325780636179309d14610145578063689015131461016657806382f86acc14610179578063998546e31461018c578063c3c6279f1461019f578063db896b57146101b2578063f761dea0146101c5575b600080fd5b6100bc6100b7366004611101565b6101e5565b6040516100c9919061125b565b60405180910390f35b6100e56100e036600461114c565b610276565b6040516100c99190611279565b61010561010036600461102a565b61030e565b6040516100c99190611213565b610125610120366004611074565b610315565b6040516100c99190611264565b6100bc6101403660046111a0565b610377565b610158610153366004610f7e565b610455565b6040516100c9929190611367565b6100e5610174366004611042565b610775565b6100bc610187366004611101565b610796565b6100bc61019a366004611101565b6107b4565b6101256101ad366004611042565b6107e5565b6100bc6101c03660046110b6565b6107f2565b6101d86101d3366004610f46565b610871565b6040516100c99190611250565b6000806101fd848460200260040160ff1660206107f2565b90506000610210856004840160206107f2565b905080610259576040805162461bcd60e51b8152602060048201526012602482015271696e707574206973206e6f7420617272617960701b604482015290519081900360640190fd5b61026d8560208084028501600401906107f2565b95945050505050565b6060601482106102be576040805162461bcd60e51b815260206004820152600e60248201526d1a5b9d985b1a59081bd9999cd95d60921b604482015290519081900360640190fd5b81602002915060006102dd85848660200260040160ff160160206107f2565b905060006102f28685840160040160206107f2565b90506103048660248487010183610886565b9695505050505050565b805b919050565b6000816004018351101561036e576040805162461bcd60e51b815260206004820152601b60248201527a52656164696e67206279746573206f7574206f6620626f756e647360281b604482015290519081900360640190fd5b50016020015190565b60008061038f858560200260040160ff1660206107f2565b905060006103a2866004840160206107f2565b9050806103eb576040805162461bcd60e51b8152602060048201526012602482015271696e707574206973206e6f7420617272617960701b604482015290519081900360640190fd5b60ff8416811161043b576040805162461bcd60e51b815260206004820152601660248201527534b73b30b634b21030b93930bc903837b9b4ba34b7b760511b604482015290519081900360640190fd5b610304866020600160ff88160181028501600401906107f2565b600080600061049985858080601f0160208091040260200160405190810160405280939291908181526020018383808284376000920191909152506107e592505050565b90506000876001600160a01b03166339b81fd96040518163ffffffff1660e01b815260040160206040518083038186803b1580156104d657600080fd5b505afa1580156104ea573d6000803e3d6000fd5b505050506040513d601f19601f8201168201806040525081019061050e9190610f62565b6001600160a01b03811660009081526020819052604090205490915060ff166105525760405162461bcd60e51b8152600401610549906112cc565b60405180910390fd5b6001600160e01b0319821663140e25ad60e31b14156105d55760006105ac87878080601f01602080910402602001604051908101604052809392919081815260200183838082843760009201919091525061077592505050565b8060200190518101906105bf91906111fb565b90506105cd828a8a846109d7565b945050610766565b6001600160e01b0319821663db006a7560e01b148061060457506001600160e01b0319821663852a12e360e01b145b1561066c57600061064a87878080601f01602080910402602001604051908101604052809392919081815260200183838082843760009201919091525061077592505050565b80602001905181019061065d91906111fb565b90506105cd83838b8b85610aab565b6001600160e01b0319821663317afabb60e21b14156106e75760006106c687878080601f01602080910402602001604051908101604052809392919081815260200183838082843760009201919091525061077592505050565b8060200190518101906106d991906111fb565b90506105cd828a8a84610beb565b6001600160e01b0319821663073a938160e11b141561076657600061074187878080601f01602080910402602001604051908101604052809392919081815260200183838082843760009201919091525061077592505050565b80602001905181019061075491906111fb565b9050610762828a8a84610cba565b9450505b50600091505094509492505050565b6060610790600480845103846108869092919063ffffffff16565b92915050565b60006107ad838360200260040160ff1660206107f2565b9392505050565b6000806107cc848460200260040160ff1660206107f2565b90506107dd846004830160206107f2565b949350505050565b6000610790826000610315565b60008183018451101561084a576040805162461bcd60e51b815260206004820152601b60248201527a52656164696e67206279746573206f7574206f6620626f756e647360281b604482015290519081900360640190fd5b826020018401519050816020038015610869576008810260020a820491505b509392505050565b60006020819052908152604090205460ff1681565b60608182601f0110156108d1576040805162461bcd60e51b815260206004820152600e60248201526d736c6963655f6f766572666c6f7760901b604482015290519081900360640190fd5b828284011015610919576040805162461bcd60e51b815260206004820152600e60248201526d736c6963655f6f766572666c6f7760901b604482015290519081900360640190fd5b81830184511015610965576040805162461bcd60e51b8152602060048201526011602482015270736c6963655f6f75744f66426f756e647360781b604482015290519081900360640190fd5b60608215801561098457604051915060008252602082016040526109ce565b6040519150601f8416801560200281840101858101878315602002848b0101015b818310156109bd5780518352602092830192016109a5565b5050858452601f01601f1916604052505b50949350505050565b600080836001600160a01b0316636f307dc36040518163ffffffff1660e01b815260040160206040518083038186803b158015610a1357600080fd5b505afa158015610a27573d6000803e3d6000fd5b505050506040513d601f19601f82011682018060405250810190610a4b9190610f62565b9050610a58858583610d89565b856001600160a01b03167fa5d77e8ca359ec96ba937f987c9a3a3653e8277e4e51f97707839c158631195882868642604051610a979493929190611227565b60405180910390a260329695505050505050565b600080836001600160a01b0316636f307dc36040518163ffffffff1660e01b815260040160206040518083038186803b158015610ae757600080fd5b505afa158015610afb573d6000803e3d6000fd5b505050506040513d601f19601f82011682018060405250810190610b1f9190610f62565b9050610b2c858583610d89565b6001600160e01b0319871663db006a7560e01b1415610b955760339150856001600160a01b03167fe2146f814fbe75268b267f69f85a40d124c0147016ef37803d02d66bd84350da82868642604051610b889493929190611227565b60405180910390a2610be1565b60349150856001600160a01b03167f7be86cb0c5db3cf61f0574b9a16a7ad28f2da62cba1fc28944b8649a66106beb82868642604051610bd89493929190611227565b60405180910390a25b5095945050505050565b600080836001600160a01b0316636f307dc36040518163ffffffff1660e01b815260040160206040518083038186803b158015610c2757600080fd5b505afa158015610c3b573d6000803e3d6000fd5b505050506040513d601f19601f82011682018060405250810190610c5f9190610f62565b9050610c6c858583610d89565b856001600160a01b03167fbfdc431f2e06789d868feec057e5991339ad3689724f4bdc025fafec5a927bf882868642604051610cab9493929190611227565b60405180910390a26035610304565b600080836001600160a01b0316636f307dc36040518163ffffffff1660e01b815260040160206040518083038186803b158015610cf657600080fd5b505afa158015610d0a573d6000803e3d6000fd5b505050506040513d601f19601f82011682018060405250810190610d2e9190610f62565b9050610d3b858583610d89565b856001600160a01b03167f4b4df72e460743f79bd7bc40142fe95c2a15c9a3871d9b17ace7edb7be2ca44982868642604051610d7a9493929190611227565b60405180910390a26036610304565b604051634df48c7360e11b815283906001600160a01b03821690639be918e690610db7908690600401611213565b60206040518083038186803b158015610dcf57600080fd5b505afa158015610de3573d6000803e3d6000fd5b505050506040513d601f19601f82011682018060405250810190610e07919061100a565b610e235760405162461bcd60e51b8152600401610549906112fd565b604051634df48c7360e11b81526001600160a01b03821690639be918e690610e4f908590600401611213565b60206040518083038186803b158015610e6757600080fd5b505afa158015610e7b573d6000803e3d6000fd5b505050506040513d601f19601f82011682018060405250810190610e9f919061100a565b610ebb5760405162461bcd60e51b815260040161054990611331565b50505050565b600082601f830112610ed1578081fd5b81356001600160401b0380821115610ee557fe5b604051601f8301601f191681016020018281118282101715610f0357fe5b604052828152848301602001861015610f1a578384fd5b82602086016020830137918201602001929092529392505050565b803560ff8116811461031057600080fd5b600060208284031215610f57578081fd5b81356107ad8161137d565b600060208284031215610f73578081fd5b81516107ad8161137d565b60008060008060608587031215610f93578283fd5b8435610f9e8161137d565b93506020850135610fae8161137d565b925060408501356001600160401b0380821115610fc9578384fd5b818701915087601f830112610fdc578384fd5b813581811115610fea578485fd5b886020828501011115610ffb578485fd5b95989497505060200194505050565b60006020828403121561101b578081fd5b815180151581146107ad578182fd5b60006020828403121561103b578081fd5b5035919050565b600060208284031215611053578081fd5b81356001600160401b03811115611068578182fd5b6107dd84828501610ec1565b60008060408385031215611086578182fd5b82356001600160401b0381111561109b578283fd5b6110a785828601610ec1565b95602094909401359450505050565b6000806000606084860312156110ca578283fd5b83356001600160401b038111156110df578384fd5b6110eb86828701610ec1565b9660208601359650604090950135949350505050565b60008060408385031215611113578182fd5b82356001600160401b03811115611128578283fd5b61113485828601610ec1565b92505061114360208401610f35565b90509250929050565b600080600060608486031215611160578283fd5b83356001600160401b03811115611175578384fd5b61118186828701610ec1565b93505061119060208501610f35565b9150604084013590509250925092565b6000806000606084860312156111b4578283fd5b83356001600160401b038111156111c9578384fd5b6111d586828701610ec1565b9350506111e460208501610f35565b91506111f260408501610f35565b90509250925092565b60006020828403121561120c578081fd5b5051919050565b6001600160a01b0391909116815260200190565b6001600160a01b0394851681529290931660208301526040820152606081019190915260800190565b901515815260200190565b90815260200190565b6001600160e01b031991909116815260200190565b6000602080835283518082850152825b818110156112a557858101830151858201604001528201611289565b818111156112b65783604083870101525b50601f01601f1916929092016040019392505050565b6020808252601790820152766f6e6c792077686974656c6973746564207661756c747360481b604082015260600190565b6020808252601a908201527911da5d995b8818d51bdad95b881b9bdd081cdd5c1c1bdc9d195960321b604082015260600190565b6020808252601c908201527b1d5b9cdd5c1c1bdc9d1959081d5b99195c9b1e5a5b99c8185cdcd95d60221b604082015260600190565b61ffff9290921682521515602082015260400190565b6001600160a01b038116811461139257600080fd5b5056fea26469706673582212209a3ed7d6a5bc6e1cfa91b8fb511bd53ffe9523f5bfeb27260f850972bfefda2b64736f6c63430007060033",
  "linkReferences": {},
  "deployedLinkReferences": {}
}