{
  "_format": "hh-sol-artifact-1",
  "contractName": "PoolManagerLogic",
  "sourceName": "contracts/PoolManagerLogic.sol",
  "abi": [
    {
      "anonymous": false,
      "inputs": [
        {
          "indexed": true,
          "internalType": "address",
          "name": "fundAddress",
          "type": "address"
        },
        {
          "indexed": false,
          "internalType": "address",
          "name": "manager",
          "type": "address"
        },
        {
          "indexed": false,
          "internalType": "address",
          "name": "asset",
          "type": "address"
        },
        {
          "indexed": false,
          "internalType": "bool",
          "name": "isDeposit",
          "type": "bool"
        }
      ],
      "name": "AssetAdded",
      "type": "event"
    },
    {
      "anonymous": false,
      "inputs": [
        {
          "indexed": false,
          "internalType": "address",
          "name": "fundAddress",
          "type": "address"
        },
        {
          "indexed": false,
          "internalType": "address",
          "name": "manager",
          "type": "address"
        },
        {
          "indexed": false,
          "internalType": "address",
          "name": "asset",
          "type": "address"
        }
      ],
      "name": "AssetRemoved",
      "type": "event"
    },
    {
      "anonymous": false,
      "inputs": [
        {
          "indexed": false,
          "internalType": "uint256",
          "name": "performanceFeeNumerator",
          "type": "uint256"
        },
        {
          "indexed": false,
          "internalType": "uint256",
          "name": "managerFeeNumerator",
          "type": "uint256"
        },
        {
          "indexed": false,
          "internalType": "uint256",
          "name": "announcedFeeActivationTime",
          "type": "uint256"
        }
      ],
      "name": "ManagerFeeIncreaseAnnounced",
      "type": "event"
    },
    {
      "anonymous": false,
      "inputs": [],
      "name": "ManagerFeeIncreaseRenounced",
      "type": "event"
    },
    {
      "anonymous": false,
      "inputs": [
        {
          "indexed": false,
          "internalType": "address",
          "name": "fundAddress",
          "type": "address"
        },
        {
          "indexed": false,
          "internalType": "address",
          "name": "manager",
          "type": "address"
        },
        {
          "indexed": false,
          "internalType": "uint256",
          "name": "performanceFeeNumerator",
          "type": "uint256"
        },
        {
          "indexed": false,
          "internalType": "uint256",
          "name": "managerFeeNumerator",
          "type": "uint256"
        },
        {
          "indexed": false,
          "internalType": "uint256",
          "name": "entryFeeNumerator",
          "type": "uint256"
        },
        {
          "indexed": false,
          "internalType": "uint256",
          "name": "denominator",
          "type": "uint256"
        }
      ],
      "name": "ManagerFeeSet",
      "type": "event"
    },
    {
      "anonymous": false,
      "inputs": [
        {
          "indexed": false,
          "internalType": "address",
          "name": "newManager",
          "type": "address"
        },
        {
          "indexed": false,
          "internalType": "string",
          "name": "newManagerName",
          "type": "string"
        }
      ],
      "name": "ManagerUpdated",
      "type": "event"
    },
    {
      "anonymous": false,
      "inputs": [
        {
          "indexed": false,
          "internalType": "uint256",
          "name": "minDepositUSD",
          "type": "uint256"
        }
      ],
      "name": "MinDepositUpdated",
      "type": "event"
    },
    {
      "anonymous": false,
      "inputs": [
        {
          "indexed": false,
          "internalType": "address",
          "name": "poolLogic",
          "type": "address"
        },
        {
          "indexed": false,
          "internalType": "address",
          "name": "from",
          "type": "address"
        }
      ],
      "name": "PoolLogicSet",
      "type": "event"
    },
    {
      "inputs": [
        {
          "internalType": "address",
          "name": "member",
          "type": "address"
        }
      ],
      "name": "addMember",
      "outputs": [],
      "stateMutability": "nonpayable",
      "type": "function"
    },
    {
      "inputs": [
        {
          "internalType": "address[]",
          "name": "members",
          "type": "address[]"
        }
      ],
      "name": "addMembers",
      "outputs": [],
      "stateMutability": "nonpayable",
      "type": "function"
    },
    {
      "inputs": [
        {
          "internalType": "uint256",
          "name": "_performanceFeeNumerator",
          "type": "uint256"
        },
        {
          "internalType": "uint256",
          "name": "_managerFeeNumerator",
          "type": "uint256"
        },
        {
          "internalType": "uint256",
          "name": "_entryFeeNumerator",
          "type": "uint256"
        }
      ],
      "name": "announceFeeIncrease",
      "outputs": [],
      "stateMutability": "nonpayable",
      "type": "function"
    },
    {
      "inputs": [],
      "name": "announcedEntryFeeNumerator",
      "outputs": [
        {
          "internalType": "uint256",
          "name": "",
          "type": "uint256"
        }
      ],
      "stateMutability": "view",
      "type": "function"
    },
    {
      "inputs": [],
      "name": "announcedFeeIncreaseTimestamp",
      "outputs": [
        {
          "internalType": "uint256",
          "name": "",
          "type": "uint256"
        }
      ],
      "stateMutability": "view",
      "type": "function"
    },
    {
      "inputs": [],
      "name": "announcedManagerFeeNumerator",
      "outputs": [
        {
          "internalType": "uint256",
          "name": "",
          "type": "uint256"
        }
      ],
      "stateMutability": "view",
      "type": "function"
    },
    {
      "inputs": [],
      "name": "announcedPerformanceFeeNumerator",
      "outputs": [
        {
          "internalType": "uint256",
          "name": "",
          "type": "uint256"
        }
      ],
      "stateMutability": "view",
      "type": "function"
    },
    {
      "inputs": [
        {
          "internalType": "address",
          "name": "asset",
          "type": "address"
        }
      ],
      "name": "assetBalance",
      "outputs": [
        {
          "internalType": "uint256",
          "name": "balance",
          "type": "uint256"
        }
      ],
      "stateMutability": "view",
      "type": "function"
    },
    {
      "inputs": [
        {
          "internalType": "address",
          "name": "asset",
          "type": "address"
        }
      ],
      "name": "assetDecimal",
      "outputs": [
        {
          "internalType": "uint256",
          "name": "decimal",
          "type": "uint256"
        }
      ],
      "stateMutability": "view",
      "type": "function"
    },
    {
      "inputs": [
        {
          "internalType": "address",
          "name": "",
          "type": "address"
        }
      ],
      "name": "assetPosition",
      "outputs": [
        {
          "internalType": "uint256",
          "name": "",
          "type": "uint256"
        }
      ],
      "stateMutability": "view",
      "type": "function"
    },
    {
      "inputs": [
        {
          "internalType": "address",
          "name": "asset",
          "type": "address"
        },
        {
          "internalType": "uint256",
          "name": "amount",
          "type": "uint256"
        }
      ],
      "name": "assetValue",
      "outputs": [
        {
          "internalType": "uint256",
          "name": "value",
          "type": "uint256"
        }
      ],
      "stateMutability": "view",
      "type": "function"
    },
    {
      "inputs": [
        {
          "internalType": "address",
          "name": "asset",
          "type": "address"
        }
      ],
      "name": "assetValue",
      "outputs": [
        {
          "internalType": "uint256",
          "name": "value",
          "type": "uint256"
        }
      ],
      "stateMutability": "view",
      "type": "function"
    },
    {
      "inputs": [
        {
          "components": [
            {
              "internalType": "address",
              "name": "asset",
              "type": "address"
            },
            {
              "internalType": "bool",
              "name": "isDeposit",
              "type": "bool"
            }
          ],
          "internalType": "struct IHasSupportedAsset.Asset[]",
          "name": "_addAssets",
          "type": "tuple[]"
        },
        {
          "internalType": "address[]",
          "name": "_removeAssets",
          "type": "address[]"
        }
      ],
      "name": "changeAssets",
      "outputs": [],
      "stateMutability": "nonpayable",
      "type": "function"
    },
    {
      "inputs": [
        {
          "internalType": "address",
          "name": "newManager",
          "type": "address"
        },
        {
          "internalType": "string",
          "name": "newManagerName",
          "type": "string"
        }
      ],
      "name": "changeManager",
      "outputs": [],
      "stateMutability": "nonpayable",
      "type": "function"
    },
    {
      "inputs": [],
      "name": "commitFeeIncrease",
      "outputs": [],
      "stateMutability": "nonpayable",
      "type": "function"
    },
    {
      "inputs": [],
      "name": "entryFeeNumerator",
      "outputs": [
        {
          "internalType": "uint256",
          "name": "",
          "type": "uint256"
        }
      ],
      "stateMutability": "view",
      "type": "function"
    },
    {
      "inputs": [],
      "name": "factory",
      "outputs": [
        {
          "internalType": "address",
          "name": "",
          "type": "address"
        }
      ],
      "stateMutability": "view",
      "type": "function"
    },
    {
      "inputs": [],
      "name": "getDepositAssets",
      "outputs": [
        {
          "internalType": "address[]",
          "name": "",
          "type": "address[]"
        }
      ],
      "stateMutability": "view",
      "type": "function"
    },
    {
      "inputs": [],
      "name": "getFee",
      "outputs": [
        {
          "internalType": "uint256",
          "name": "",
          "type": "uint256"
        },
        {
          "internalType": "uint256",
          "name": "",
          "type": "uint256"
        },
        {
          "internalType": "uint256",
          "name": "",
          "type": "uint256"
        },
        {
          "internalType": "uint256",
          "name": "",
          "type": "uint256"
        }
      ],
      "stateMutability": "view",
      "type": "function"
    },
    {
      "inputs": [],
      "name": "getFeeIncreaseInfo",
      "outputs": [
        {
          "internalType": "uint256",
          "name": "",
          "type": "uint256"
        },
        {
          "internalType": "uint256",
          "name": "",
          "type": "uint256"
        },
        {
          "internalType": "uint256",
          "name": "",
          "type": "uint256"
        },
        {
          "internalType": "uint256",
          "name": "",
          "type": "uint256"
        }
      ],
      "stateMutability": "view",
      "type": "function"
    },
    {
      "inputs": [],
      "name": "getFundComposition",
      "outputs": [
        {
          "components": [
            {
              "internalType": "address",
              "name": "asset",
              "type": "address"
            },
            {
              "internalType": "bool",
              "name": "isDeposit",
              "type": "bool"
            }
          ],
          "internalType": "struct IHasSupportedAsset.Asset[]",
          "name": "assets",
          "type": "tuple[]"
        },
        {
          "internalType": "uint256[]",
          "name": "balances",
          "type": "uint256[]"
        },
        {
          "internalType": "uint256[]",
          "name": "rates",
          "type": "uint256[]"
        }
      ],
      "stateMutability": "view",
      "type": "function"
    },
    {
      "inputs": [],
      "name": "getMaximumFee",
      "outputs": [
        {
          "internalType": "uint256",
          "name": "",
          "type": "uint256"
        },
        {
          "internalType": "uint256",
          "name": "",
          "type": "uint256"
        },
        {
          "internalType": "uint256",
          "name": "",
          "type": "uint256"
        },
        {
          "internalType": "uint256",
          "name": "",
          "type": "uint256"
        }
      ],
      "stateMutability": "view",
      "type": "function"
    },
    {
      "inputs": [],
      "name": "getMaximumPerformanceFeeChange",
      "outputs": [
        {
          "internalType": "uint256",
          "name": "change",
          "type": "uint256"
        }
      ],
      "stateMutability": "view",
      "type": "function"
    },
    {
      "inputs": [],
      "name": "getMembers",
      "outputs": [
        {
          "internalType": "address[]",
          "name": "members",
          "type": "address[]"
        }
      ],
      "stateMutability": "view",
      "type": "function"
    },
    {
      "inputs": [],
      "name": "getSupportedAssets",
      "outputs": [
        {
          "components": [
            {
              "internalType": "address",
              "name": "asset",
              "type": "address"
            },
            {
              "internalType": "bool",
              "name": "isDeposit",
              "type": "bool"
            }
          ],
          "internalType": "struct IHasSupportedAsset.Asset[]",
          "name": "",
          "type": "tuple[]"
        }
      ],
      "stateMutability": "view",
      "type": "function"
    },
    {
      "inputs": [
        {
          "internalType": "address",
          "name": "_factory",
          "type": "address"
        },
        {
          "internalType": "address",
          "name": "_manager",
          "type": "address"
        },
        {
          "internalType": "string",
          "name": "_managerName",
          "type": "string"
        },
        {
          "internalType": "address",
          "name": "_poolLogic",
          "type": "address"
        },
        {
          "internalType": "uint256",
          "name": "_performanceFeeNumerator",
          "type": "uint256"
        },
        {
          "internalType": "uint256",
          "name": "_managerFeeNumerator",
          "type": "uint256"
        },
        {
          "components": [
            {
              "internalType": "address",
              "name": "asset",
              "type": "address"
            },
            {
              "internalType": "bool",
              "name": "isDeposit",
              "type": "bool"
            }
          ],
          "internalType": "struct IHasSupportedAsset.Asset[]",
          "name": "_supportedAssets",
          "type": "tuple[]"
        }
      ],
      "name": "initialize",
      "outputs": [],
      "stateMutability": "nonpayable",
      "type": "function"
    },
    {
      "inputs": [
        {
          "internalType": "address",
          "name": "asset",
          "type": "address"
        }
      ],
      "name": "isDepositAsset",
      "outputs": [
        {
          "internalType": "bool",
          "name": "",
          "type": "bool"
        }
      ],
      "stateMutability": "view",
      "type": "function"
    },
    {
      "inputs": [
        {
          "internalType": "address",
          "name": "member",
          "type": "address"
        }
      ],
      "name": "isMemberAllowed",
      "outputs": [
        {
          "internalType": "bool",
          "name": "",
          "type": "bool"
        }
      ],
      "stateMutability": "view",
      "type": "function"
    },
    {
      "inputs": [
        {
          "internalType": "address",
          "name": "member",
          "type": "address"
        }
      ],
      "name": "isNftMemberAllowed",
      "outputs": [
        {
          "internalType": "bool",
          "name": "",
          "type": "bool"
        }
      ],
      "stateMutability": "view",
      "type": "function"
    },
    {
      "inputs": [
        {
          "internalType": "address",
          "name": "asset",
          "type": "address"
        }
      ],
      "name": "isSupportedAsset",
      "outputs": [
        {
          "internalType": "bool",
          "name": "",
          "type": "bool"
        }
      ],
      "stateMutability": "view",
      "type": "function"
    },
    {
      "inputs": [],
      "name": "manager",
      "outputs": [
        {
          "internalType": "address",
          "name": "",
          "type": "address"
        }
      ],
      "stateMutability": "view",
      "type": "function"
    },
    {
      "inputs": [],
      "name": "managerFeeNumerator",
      "outputs": [
        {
          "internalType": "uint256",
          "name": "",
          "type": "uint256"
        }
      ],
      "stateMutability": "view",
      "type": "function"
    },
    {
      "inputs": [],
      "name": "managerName",
      "outputs": [
        {
          "internalType": "string",
          "name": "",
          "type": "string"
        }
      ],
      "stateMutability": "view",
      "type": "function"
    },
    {
      "inputs": [],
      "name": "minDepositUSD",
      "outputs": [
        {
          "internalType": "uint256",
          "name": "",
          "type": "uint256"
        }
      ],
      "stateMutability": "view",
      "type": "function"
    },
    {
      "inputs": [],
      "name": "nftMembershipCollectionAddress",
      "outputs": [
        {
          "internalType": "address",
          "name": "",
          "type": "address"
        }
      ],
      "stateMutability": "view",
      "type": "function"
    },
    {
      "inputs": [],
      "name": "numberOfMembers",
      "outputs": [
        {
          "internalType": "uint256",
          "name": "_numberOfMembers",
          "type": "uint256"
        }
      ],
      "stateMutability": "view",
      "type": "function"
    },
    {
      "inputs": [],
      "name": "performanceFeeNumerator",
      "outputs": [
        {
          "internalType": "uint256",
          "name": "",
          "type": "uint256"
        }
      ],
      "stateMutability": "view",
      "type": "function"
    },
    {
      "inputs": [],
      "name": "poolLogic",
      "outputs": [
        {
          "internalType": "address",
          "name": "",
          "type": "address"
        }
      ],
      "stateMutability": "view",
      "type": "function"
    },
    {
      "inputs": [
        {
          "internalType": "address",
          "name": "member",
          "type": "address"
        }
      ],
      "name": "removeMember",
      "outputs": [],
      "stateMutability": "nonpayable",
      "type": "function"
    },
    {
      "inputs": [
        {
          "internalType": "address[]",
          "name": "members",
          "type": "address[]"
        }
      ],
      "name": "removeMembers",
      "outputs": [],
      "stateMutability": "nonpayable",
      "type": "function"
    },
    {
      "inputs": [],
      "name": "removeTrader",
      "outputs": [],
      "stateMutability": "nonpayable",
      "type": "function"
    },
    {
      "inputs": [],
      "name": "renounceFeeIncrease",
      "outputs": [],
      "stateMutability": "nonpayable",
      "type": "function"
    },
    {
      "inputs": [
        {
          "internalType": "uint256",
          "name": "_performanceFeeNumerator",
          "type": "uint256"
        },
        {
          "internalType": "uint256",
          "name": "_managerFeeNumerator",
          "type": "uint256"
        },
        {
          "internalType": "uint256",
          "name": "_entryFeeNumerator",
          "type": "uint256"
        }
      ],
      "name": "setFeeNumerator",
      "outputs": [],
      "stateMutability": "nonpayable",
      "type": "function"
    },
    {
      "inputs": [
        {
          "internalType": "uint256",
          "name": "_minDepositUSD",
          "type": "uint256"
        }
      ],
      "name": "setMinDepositUSD",
      "outputs": [],
      "stateMutability": "nonpayable",
      "type": "function"
    },
    {
      "inputs": [
        {
          "internalType": "address",
          "name": "newNftMembershipCollectionAddress",
          "type": "address"
        }
      ],
      "name": "setNftMembershipCollectionAddress",
      "outputs": [],
      "stateMutability": "nonpayable",
      "type": "function"
    },
    {
      "inputs": [
        {
          "internalType": "address",
          "name": "_poolLogic",
          "type": "address"
        }
      ],
      "name": "setPoolLogic",
      "outputs": [
        {
          "internalType": "bool",
          "name": "",
          "type": "bool"
        }
      ],
      "stateMutability": "nonpayable",
      "type": "function"
    },
    {
      "inputs": [
        {
          "internalType": "address",
          "name": "newTrader",
          "type": "address"
        }
      ],
      "name": "setTrader",
      "outputs": [],
      "stateMutability": "nonpayable",
      "type": "function"
    },
    {
      "inputs": [
        {
          "internalType": "uint256",
          "name": "",
          "type": "uint256"
        }
      ],
      "name": "supportedAssets",
      "outputs": [
        {
          "internalType": "address",
          "name": "asset",
          "type": "address"
        },
        {
          "internalType": "bool",
          "name": "isDeposit",
          "type": "bool"
        }
      ],
      "stateMutability": "view",
      "type": "function"
    },
    {
      "inputs": [],
      "name": "totalFundValue",
      "outputs": [
        {
          "internalType": "uint256",
          "name": "",
          "type": "uint256"
        }
      ],
      "stateMutability": "view",
      "type": "function"
    },
    {
      "inputs": [],
      "name": "totalFundValueMutable",
      "outputs": [
        {
          "internalType": "uint256",
          "name": "total",
          "type": "uint256"
        }
      ],
      "stateMutability": "nonpayable",
      "type": "function"
    },
    {
      "inputs": [],
      "name": "trader",
      "outputs": [
        {
          "internalType": "address",
          "name": "",
          "type": "address"
        }
      ],
      "stateMutability": "view",
      "type": "function"
    },
    {
      "inputs": [
        {
          "internalType": "address",
          "name": "asset",
          "type": "address"
        }
      ],
      "name": "validateAsset",
      "outputs": [
        {
          "internalType": "bool",
          "name": "",
          "type": "bool"
        }
      ],
      "stateMutability": "view",
      "type": "function"
    }
  ],
  "bytecode": "0x608060405234801561001057600080fd5b50613dfc806100206000396000f3fe608060405234801561001057600080fd5b506004361061026c5760003560e01c80639240d2991161014d5780639240d2991461041257806397957825146104255780639be918e61461042d5780639eab525314610440578063a30e3fa914610455578063a6bc18f91461045d578063ad60ffcc14610470578063b34fa37c14610478578063b74a68d71461048b578063bbbf725b14610493578063bdbef07d146104a6578063bf0a9738146104b9578063bfd67ccb146104c1578063c45a0155146104c9578063c68dbb37146104d1578063ca6d56dc146104f2578063cd88e55814610505578063ced72f8714610518578063d5110cfd14610520578063d8af8ed414610528578063e5406dbf1461053b578063eb7218fa14610550578063ee5fd82514610563578063f09d14d71461056b578063fc43863f14610582578063fed4416a1461058a5761026c565b806308d7ce02146102715780630b1ca49a146102925780630b422ae3146102a75780630e6f9f79146102af5780631758078b146102c45780631aca138b146102d957806329c07fba146102ec57806339b81fd9146102ff5780633c570d7d1461030757806346ee84b01461031a578063481c6a751461032d57806350b721a714610335578063522136631461033d578063560a4a3d1461035057806360c44031146103635780636bfa94c6146103835780636c262bfe1461038b5780636f452c931461039e5780636f4d469b146103a657806370999382146103b95780637b4d0c63146103cc5780637c8afd51146103d457806389e0a081146103dc5780638aafd945146103e45780638e10153d146103f75780639143b9161461040a575b600080fd5b61027961059f565b6040516102899493929190613c99565b60405180910390f35b6102a56102a0366004613313565b610639565b005b6102a56106ab565b6102b76107b9565b6040516102899190613c7a565b6102cc6107bf565b60405161028991906137b4565b6102a56102e7366004613313565b6107ce565b6102b76102fa3660046134c6565b610901565b6102cc6109b6565b6102b7610315366004613313565b6109c5565b6102a56103283660046134f1565b6109d7565b6102cc610a84565b6102b7610a99565b6102a561034b36600461342b565b610a9f565b6102a561035e36600461359d565b610c24565b610376610371366004613313565b610cca565b604051610289919061391d565b6102b7610d6d565b6102a561039936600461334b565b61100a565b6102b76111bf565b6102a56103b43660046134f1565b611241565b6102b76103c7366004613313565b6112de565b6102b76113e9565b6102a56113ef565b610279611455565b6102a56103f23660046136b9565b611467565b610376610405366004613313565b611511565b6102b76116cb565b610376610420366004613313565b6116d1565b6102b7611752565b61037661043b366004613313565b611758565b610448611775565b604051610289919061387a565b6102b76117d7565b6102a561046b366004613313565b6117dd565b6102b761189f565b6102a56104863660046136b9565b6118f7565b6102b7611a9f565b6103766104a1366004613313565b611aa5565b6103766104b4366004613313565b611abf565b6102b7611b16565b6102cc611b1c565b6102cc611b2b565b6104e46104df366004613689565b611b3a565b60405161028992919061385f565b6102a5610500366004613313565b611b6f565b6102b7610513366004613313565b611bdf565b610279611c99565b6102a5611d43565b6102b7610536366004613313565b611dde565b610543611ded565b60405161028991906138c7565b6102a561055e366004613689565b611e65565b6102b7611eca565b610573611ed0565b604051610289939291906138da565b61044861211e565b610592612221565b6040516102899190613928565b600080600080600560009054906101000a90046001600160a01b03166001600160a01b03166308d7ce026040518163ffffffff1660e01b815260040160806040518083038186803b1580156105f357600080fd5b505afa158015610607573d6000803e3d6000fd5b505050506040513d601f19601f8201168201806040525081019061062b91906136e4565b935093509350935090919293565b6000546201000090046001600160a01b0316331461068d576040805162461bcd60e51b815260206004820152600c60248201526b37b7363c9036b0b730b3b2b960a11b604482015290519081900360640190fd5b610696816122ae565b61069f576106a8565b6106a8816122cb565b50565b6000546201000090046001600160a01b031633146106ff576040805162461bcd60e51b815260206004820152600c60248201526b37b7363c9036b0b730b3b2b960a11b604482015290519081900360640190fd5b600a5442101561072a5760405162461bcd60e51b815260040161072190613acd565b60405180910390fd5b600660009054906101000a90046001600160a01b03166001600160a01b031663cc3c6df66040518163ffffffff1660e01b8152600401600060405180830381600087803b15801561077a57600080fd5b505af115801561078e573d6000803e3d6000fd5b505050506107a3600954600c546010546123c4565b60006009819055600c8190556010819055600a55565b600d5481565b6004546001600160a01b031681565b6000546201000090046001600160a01b03163314610822576040805162461bcd60e51b815260206004820152600c60248201526b37b7363c9036b0b730b3b2b960a11b604482015290519081900360640190fd5b6001600160a01b03811661085057600e80546001600160a01b0319166001600160a01b0383161790556106a8565b6040516370a0823160e01b81526001600160a01b038216906370a082319061087c9030906004016137b4565b60206040518083038186803b15801561089457600080fd5b505afa9250505080156108c4575060408051601f3d908101601f191682019092526108c1918101906136a1565b60015b6108e05760405162461bcd60e51b815260040161072190613aa1565b50600e80546001600160a01b0383166001600160a01b031990911617905550565b60055460405163b3596f0760e01b815260009182916001600160a01b039091169063b3596f07906109369087906004016137b4565b60206040518083038186803b15801561094e57600080fd5b505afa158015610962573d6000803e3d6000fd5b505050506040513d601f19601f8201168201806040525081019061098691906136a1565b90506000610993856112de565b90506109ad600a82900a6109a78487612485565b906124e7565b95945050505050565b6006546001600160a01b031681565b60086020526000908152604090205481565b6000546201000090046001600160a01b03163314610a2b576040805162461bcd60e51b815260206004820152600c60248201526b37b7363c9036b0b730b3b2b960a11b604482015290519081900360640190fd5b60005b8151811015610a8057610a53828281518110610a4657fe5b60200260200101516122ae565b610a5c57610a78565b610a78828281518110610a6b57fe5b60200260200101516122cb565b600101610a2e565b5050565b6000546201000090046001600160a01b031681565b600f5481565b6000546201000090046001600160a01b03163314610af3576040805162461bcd60e51b815260206004820152600c60248201526b37b7363c9036b0b730b3b2b960a11b604482015290519081900360640190fd5b6001600160a01b038216610b40576040805162461bcd60e51b815260206004820152600f60248201526e24b73b30b634b21036b0b730b3b2b960891b604482015290519081900360640190fd5b6000805462010000600160b01b031916620100006001600160a01b038516021790558051610b75906001906020840190613207565b507f6ed15082ad038474841528b5badca105106d4463e44b5d434130dfb299aa3669828260405180836001600160a01b0316815260200180602001828103825283818151815260200191508051906020019080838360005b83811015610be5578181015183820152602001610bcd565b50505050905090810190601f168015610c125780820380516001836020036101000a031916815260200191505b50935050505060405180910390a15050565b6000546201000090046001600160a01b0316331480610c4d57506004546001600160a01b031633145b80610c6257506005546001600160a01b031633145b610c7e5760405162461bcd60e51b815260040161072190613b00565b610cbc848484848080602002602001604051908101604052809392919081815260200183836020028082843760009201919091525061254b92505050565b610cc4612686565b50505050565b600e546000906001600160a01b031615801590610d655750600e546040516370a0823160e01b81526000916001600160a01b0316906370a0823190610d139086906004016137b4565b60206040518083038186803b158015610d2b57600080fd5b505afa158015610d3f573d6000803e3d6000fd5b505050506040513d601f19601f82011682018060405250810190610d6391906136a1565b115b90505b919050565b600754600090815b8181101561100557600060078281548110610d8c57fe5b6000918252602082200154600554604051633f30232f60e21b81526001600160a01b03928316945091169063fcc08cbc90610dcb9085906004016137b4565b60206040518083038186803b158015610de357600080fd5b505afa158015610df7573d6000803e3d6000fd5b505050506040513d601f19601f82011682018060405250810190610e1b919061332f565b60408051600481526024810182526020810180516001600160e01b0316633356da7160e11b1790529051919250600091829182916001600160a01b03861691610e6391613798565b6000604051808303816000865af19150503d8060008114610ea0576040519150601f19603f3d011682016040523d82523d6000602084013e610ea5565b606091505b5091509150818015610ec6575080806020019051810190610ec6919061364b565b15610f5857600654604051633f3fcd5b60e21b81526001600160a01b038681169263fcff356c92610eff929091169089906004016137c8565b602060405180830381600087803b158015610f1957600080fd5b505af1158015610f2d573d6000803e3d6000fd5b505050506040513d601f19601f82011682018060405250810190610f5191906136a1565b9250610fdf565b60065460405163d4fac45d60e01b81526001600160a01b038681169263d4fac45d92610f8c929091169089906004016137c8565b60206040518083038186803b158015610fa457600080fd5b505afa158015610fb8573d6000803e3d6000fd5b505050506040513d601f19601f82011682018060405250810190610fdc91906136a1565b92505b610ff3610fec8685610901565b89906126ea565b97505050505050806001019050610d75565b505090565b600054610100900460ff16806110235750611023612742565b80611031575060005460ff16155b61106c5760405162461bcd60e51b815260040180806020018281038252602e815260200180613d78602e913960400191505060405180910390fd5b600054610100900460ff16158015611097576000805460ff1961ff0019909116610100171660011790555b6001600160a01b038a166110bd5760405162461bcd60e51b815260040161072190613bc1565b6001600160a01b0389166110e35760405162461bcd60e51b815260040161072190613b98565b6001600160a01b0386166111095760405162461bcd60e51b815260040161072190613a48565b6111498989898080601f01602080910402602001604051908101604052809392919081815260200183838082843760009201919091525061275392505050565b600580546001600160a01b03808d166001600160a01b0319928316179092556006805492891692909116919091179055611185858560006123c4565b6040805160008152602081019091526111a1908490849061254b565b80156111b3576000805461ff00191690555b50505050505050505050565b60055460408051636bb9347360e11b815290516000926001600160a01b03169163d77268e6916004808301926020929190829003018186803b15801561120457600080fd5b505afa158015611218573d6000803e3d6000fd5b505050506040513d601f19601f8201168201806040525081019061123c91906136a1565b905090565b6000546201000090046001600160a01b03163314611295576040805162461bcd60e51b815260206004820152600c60248201526b37b7363c9036b0b730b3b2b960a11b604482015290519081900360640190fd5b60005b8151811015610a80576112b0828281518110610a4657fe5b156112ba576112d6565b6112d68282815181106112c957fe5b60200260200101516127d5565b600101611298565b600554604051633f30232f60e21b815260009182916001600160a01b039091169063fcc08cbc906113139086906004016137b4565b60206040518083038186803b15801561132b57600080fd5b505afa15801561133f573d6000803e3d6000fd5b505050506040513d601f19601f82011682018060405250810190611363919061332f565b60405163067aa55560e51b81529091506001600160a01b0382169063cf54aaa0906113929086906004016137b4565b60206040518083038186803b1580156113aa57600080fd5b505afa1580156113be573d6000803e3d6000fd5b505050506040513d601f19601f820116820180604052508101906113e291906136a1565b9392505050565b600a5481565b6000546201000090046001600160a01b03163314611443576040805162461bcd60e51b815260206004820152600c60248201526b37b7363c9036b0b730b3b2b960a11b604482015290519081900360640190fd5b600480546001600160a01b0319169055565b600954600c54601054600a5490919293565b6000546201000090046001600160a01b031633146114bb576040805162461bcd60e51b815260206004820152600c60248201526b37b7363c9036b0b730b3b2b960a11b604482015290519081900360640190fd5b600b5483111580156114cf5750600d548211155b80156114dd57506011548111155b6114f95760405162461bcd60e51b815260040161072190613a73565b6115048383836123c4565b61150c612686565b505050565b600080600560009054906101000a90046001600160a01b03166001600160a01b0316638da5cb5b6040518163ffffffff1660e01b815260040160206040518083038186803b15801561156257600080fd5b505afa158015611576573d6000803e3d6000fd5b505050506040513d601f19601f8201168201806040525081019061159a919061332f565b9050336001600160a01b038216146115c45760405162461bcd60e51b8152600401610721906139b1565b306001600160a01b0316836001600160a01b0316631e50a4a66040518163ffffffff1660e01b815260040160206040518083038186803b15801561160757600080fd5b505afa15801561161b573d6000803e3d6000fd5b505050506040513d601f19601f8201168201806040525081019061163f919061332f565b6001600160a01b0316146116655760405162461bcd60e51b815260040161072190613a1c565b600680546001600160a01b0319166001600160a01b0385161790556040517f8c1446ebd2ac8c922b8c9716dfbdfcfef02c9fc167140d7cfd019565b423b249906116b290859033906137c8565b60405180910390a16116c2612686565b50600192915050565b60095481565b60055460405163cc435bf360e01b81526000916001600160a01b03169063cc435bf3906117029085906004016137b4565b60206040518083038186803b15801561171a57600080fd5b505afa15801561172e573d6000803e3d6000fd5b505050506040513d601f19601f82011682018060405250810190610d65919061364b565b60115481565b6001600160a01b0316600090815260086020526040902054151590565b606060028054806020026020016040519081016040528092919081815260200182805480156117cd57602002820191906000526020600020905b81546001600160a01b031681526001909101906020018083116117af575b5050505050905090565b60025490565b6000546201000090046001600160a01b03163314611831576040805162461bcd60e51b815260206004820152600c60248201526b37b7363c9036b0b730b3b2b960a11b604482015290519081900360640190fd5b6001600160a01b03811661187d576040805162461bcd60e51b815260206004820152600e60248201526d24b73b30b634b2103a3930b232b960911b604482015290519081900360640190fd5b600480546001600160a01b0319166001600160a01b0392909216919091179055565b6007546000908190815b818110156118ef576118e56118de600783815481106118c457fe5b6000918252602090912001546001600160a01b0316611dde565b84906126ea565b92506001016118a9565b509091505090565b6000546201000090046001600160a01b0316331461194b576040805162461bcd60e51b815260206004820152600c60248201526b37b7363c9036b0b730b3b2b960a11b604482015290519081900360640190fd5b600080600061195861059f565b5092509250925060006119696111bf565b905083871115801561197b5750828611155b80156119875750818511155b801561199f5750600b5461199b90826126ea565b8711155b6119bb5760405162461bcd60e51b815260040161072190613bea565b600554604080516332dbceef60e21b815290516000926001600160a01b03169163cb6f3bbc916004808301926020929190829003018186803b158015611a0057600080fd5b505afa158015611a14573d6000803e3d6000fd5b505050506040513d601f19601f82011682018060405250810190611a3891906136a1565b6009899055600c8890556010879055428101600a8190556040519192507f85ebab1aaaca4ce6e4c14468cff4654ea8d9ec85d5f4a5a68f2ec2e49380c97d91611a85918b918b9190613c83565b60405180910390a1611a95612686565b5050505050505050565b600b5481565b6000611ab0826122ae565b80610d655750610d6582610cca565b6001600160a01b03811660009081526008602052604081205480158015906113e257506007611aef826001612831565b81548110611af957fe5b600091825260209091200154600160a01b900460ff169392505050565b60105481565b600e546001600160a01b031681565b6005546001600160a01b031681565b60078181548110611b4a57600080fd5b6000918252602090912001546001600160a01b0381169150600160a01b900460ff1682565b6000546201000090046001600160a01b03163314611bc3576040805162461bcd60e51b815260206004820152600c60248201526b37b7363c9036b0b730b3b2b960a11b604482015290519081900360640190fd5b611bcc816122ae565b15611bd6576106a8565b6106a8816127d5565b600554604051633f30232f60e21b815260009182916001600160a01b039091169063fcc08cbc90611c149086906004016137b4565b60206040518083038186803b158015611c2c57600080fd5b505afa158015611c40573d6000803e3d6000fd5b505050506040513d601f19601f82011682018060405250810190611c64919061332f565b60065460405163d4fac45d60e01b81529192506001600160a01b038084169263d4fac45d9261139292169087906004016137c8565b6000806000806000600560009054906101000a90046001600160a01b03166001600160a01b03166308d7ce026040518163ffffffff1660e01b815260040160806040518083038186803b158015611cef57600080fd5b505afa158015611d03573d6000803e3d6000fd5b505050506040513d601f19601f82011682018060405250810190611d2791906136e4565b600b54600d54601154919a509850965094505050505090919293565b6000546201000090046001600160a01b03163314611d97576040805162461bcd60e51b815260206004820152600c60248201526b37b7363c9036b0b730b3b2b960a11b604482015290519081900360640190fd5b60006009819055600c8190556010819055600a8190556040517fc6f04bf43cbdf1ba5d51b4afa160bb3c7e13858b1409aa32868b239bb2f8d8499190a1611ddc612686565b565b6000610d65826102fa84611bdf565b60606007805480602002602001604051908101604052809291908181526020016000905b82821015611e5c57600084815260209081902060408051808201909152908401546001600160a01b0381168252600160a01b900460ff16151581830152825260019092019101611e11565b50505050905090565b6000546201000090046001600160a01b03163314611eb9576040805162461bcd60e51b815260206004820152600c60248201526b37b7363c9036b0b730b3b2b960a11b604482015290519081900360640190fd5b611ec28161288e565b6106a8612686565b600c5481565b60075460609081908190806001600160401b0381118015611ef057600080fd5b50604051908082528060200260200182016040528015611f2a57816020015b611f17613293565b815260200190600190039081611f0f5790505b509350806001600160401b0381118015611f4357600080fd5b50604051908082528060200260200182016040528015611f6d578160200160208202803683370190505b509250806001600160401b0381118015611f8657600080fd5b50604051908082528060200260200182016040528015611fb0578160200160208202803683370190505b50915060005b818160ff16101561211757600060078260ff1681548110611fd357fe5b6000918252602090912001546001600160a01b03169050611ff381611bdf565b858360ff168151811061200257fe5b60200260200101818152505060078260ff168154811061201e57fe5b6000918252602091829020604080518082019091529101546001600160a01b038116825260ff600160a01b909104811615159282019290925287519091889190851690811061206957fe5b602090810291909101015260055460405163b3596f0760e01b81526001600160a01b039091169063b3596f07906120a49084906004016137b4565b60206040518083038186803b1580156120bc57600080fd5b505afa1580156120d0573d6000803e3d6000fd5b505050506040513d601f19601f820116820180604052508101906120f491906136a1565b848360ff168151811061210357fe5b602090810291909101015250600101611fb6565b5050909192565b6007546060906000816001600160401b038111801561213c57600080fd5b50604051908082528060200260200182016040528015612166578160200160208202803683370190505b5090506000805b838160ff1610156122035760078160ff168154811061218857fe5b600091825260209091200154600160a01b900460ff16156121fb5760078160ff16815481106121b357fe5b60009182526020909120015483516001600160a01b0390911690849060ff85169081106121dc57fe5b6001600160a01b03909216602092830291909101909101526001909101905b60010161216d565b5060006122138460ff8416612831565b835103835250909250505090565b60018054604080516020600284861615610100026000190190941693909304601f810184900484028201840190925281815292918301828280156122a65780601f1061227b576101008083540402835291602001916122a6565b820191906000526020600020905b81548152906001019060200180831161228957829003601f168201915b505050505081565b6001600160a01b0316600090815260036020526040902054151590565b6002546001600160a01b0382166000908152600360205260408120546122f2906001612831565b905060006002612303846001612831565b8154811061230d57fe5b600091825260209091200154600280546001600160a01b03909216925082918490811061233657fe5b600091825260209091200180546001600160a01b0319166001600160a01b039290921691909117905561236a8260016126ea565b6001600160a01b0380831660009081526003602052604080822093909355908616815290812055600280548061239c57fe5b600082815260209020810160001990810180546001600160a01b031916905501905550505050565b6000806000806123d261059f565b93509350935093508387111580156123ea5750828611155b80156123f65750818511155b6124125760405162461bcd60e51b815260040161072190613c1d565b600b879055600d86905560118590556006546000546040517f4ee6e02dcf04678ab842300dd9ea86277d98bd793cee41cecde1e1666ad9475592612474926001600160a01b039182169262010000909104909116908b908b908b908890613829565b60405180910390a150505050505050565b600082612494575060006124e1565b828202828482816124a157fe5b04146124de5760405162461bcd60e51b8152600401808060200182810382526021815260200180613da66021913960400191505060405180910390fd5b90505b92915050565b600080821161253a576040805162461bcd60e51b815260206004820152601a602482015279536166654d6174683a206469766973696f6e206279207a65726f60301b604482015290519081900360640190fd5b81838161254357fe5b049392505050565b60005b81518160ff16101561258157612579828260ff168151811061256c57fe5b60200260200101516128ce565b60010161254e565b5060005b60ff81168311156125b5576125ad84848360ff168181106125a257fe5b905060400201612ccf565b600101612585565b50600560009054906101000a90046001600160a01b03166001600160a01b031663aa12ae4d6040518163ffffffff1660e01b815260040160206040518083038186803b15801561260457600080fd5b505afa158015612618573d6000803e3d6000fd5b505050506040513d601f19601f8201168201806040525081019061263c91906136a1565b600754111561265d5760405162461bcd60e51b815260040161072190613c4a565b600161266761211e565b51101561150c5760405162461bcd60e51b815260040161072190613b64565b600560009054906101000a90046001600160a01b03166001600160a01b0316633f7f5c726040518163ffffffff1660e01b8152600401600060405180830381600087803b1580156126d657600080fd5b505af1158015610cc4573d6000803e3d6000fd5b6000828201838110156124de576040805162461bcd60e51b815260206004820152601b60248201527a536166654d6174683a206164646974696f6e206f766572666c6f7760281b604482015290519081900360640190fd5b600061274d30613201565b15905090565b6001600160a01b0382166127a0576040805162461bcd60e51b815260206004820152600f60248201526e24b73b30b634b21036b0b730b3b2b960891b604482015290519081900360640190fd5b6000805462010000600160b01b031916620100006001600160a01b03851602179055805161150c906001906020840190613207565b600280546001810182557f405787fa12a823e0f2b7631cc41b3ba8828b3321ca811111fa75cd3aa3bb5ace0180546001600160a01b039093166001600160a01b0319909316831790555460009182526003602052604090912055565b600082821115612888576040805162461bcd60e51b815260206004820152601e60248201527f536166654d6174683a207375627472616374696f6e206f766572666c6f770000604482015290519081900360640190fd5b50900390565b600f8190556040517f96a008f96f1c0ab9fa3d9ddd43cdfc614848c4d054d51f43662ed900e9d094c8906128c3908390613c7a565b60405180910390a150565b6128d781611758565b6128f35760405162461bcd60e51b815260040161072190613b37565b600554604051633f30232f60e21b81526000916001600160a01b03169063fcc08cbc906129249085906004016137b4565b60206040518083038186803b15801561293c57600080fd5b505afa158015612950573d6000803e3d6000fd5b505050506040513d601f19601f82011682018060405250810190612974919061332f565b90506001600160a01b03811615612a105761298e82611bdf565b156129ab5760405162461bcd60e51b8152600401610721906139e5565b600654604051631b57eb9560e21b81526001600160a01b0383811692636d5fae54926129df929091169086906004016137c8565b60006040518083038186803b1580156129f757600080fd5b505afa158015612a0b573d6000803e3d6000fd5b505050505b6001600160a01b038216600090815260086020526040812054612a34906001612831565b600754909150815b81612a488260016126ea565b1015612c0357600060078281548110612a5d57fe5b6000918252602091829020604080518082019091529101546001600160a01b0381168252600160a01b900460ff1615159181019190915290506007612aa38360016126ea565b81548110612aad57fe5b9060005260206000200160078381548110612ac457fe5b600091825260209091208254910180546001600160a01b0319166001600160a01b0390921691909117808255915460ff600160a01b918290041615150260ff60a01b19909216919091179055612b1b8260016126ea565b6008600060078581548110612b2c57fe5b60009182526020808320909101546001600160a01b03168352820192909252604001902055806007612b5f8460016126ea565b81548110612b6957fe5b600091825260209182902083519101805493909201511515600160a01b0260ff60a01b196001600160a01b039092166001600160a01b03199094169390931716919091179055612bba8260026126ea565b600860006007612bcb8660016126ea565b81548110612bd557fe5b60009182526020808320909101546001600160a01b0316835282019290925260400190205550600101612a3c565b5060006008816007612c16856001612831565b81548110612c2057fe5b60009182526020808320909101546001600160a01b031683528201929092526040019020556007805480612c5057fe5b600082815260208120820160001990810180546001600160a81b031916905590910190915560065490546040517f9b4f55639e5e283319baee5bc4e69a5625a8e3a1cc004af968f4fee72502202792612cc1926001600160a01b0391821692620100009091049091169088906137e2565b60405180910390a150505050565b6000612cde6020830183613313565b90506000612cf2604084016020850161362f565b9050612cfd826116d1565b612d195760405162461bcd60e51b81526004016107219061398a565b600654612d2e906001600160a01b03166116d1565b1580612db75750600554604051635b16ebb760e01b81526001600160a01b0390911690635b16ebb790612d659085906004016137b4565b60206040518083038186803b158015612d7d57600080fd5b505afa158015612d91573d6000803e3d6000fd5b505050506040513d601f19601f82011682018060405250810190612db5919061364b565b155b612dd35760405162461bcd60e51b81526004016107219061395b565b612ddc82611758565b15612e40576001600160a01b038216600090815260086020526040812054612e05906001612831565b90508160078281548110612e1557fe5b60009182526020909120018054911515600160a01b0260ff60a01b19909216919091179055506131a5565b60078054600181018255600091909152837fa66cc928b5edb82af9bd49922954155ab7b0942694bea4ce44661d9a8736c6888201612e7e8282613d03565b50612e8c90508160016126ea565b6001600160a01b0380851660009081526008602052604080822093909355600554925163032c49ed60e01b815290929091169063032c49ed90612ed39087906004016137b4565b60206040518083038186803b158015612eeb57600080fd5b505afa158015612eff573d6000803e3d6000fd5b505050506040513d601f19601f82011682018060405250810190612f239190613667565b90505b600082118015612feb575060055461ffff8216906001600160a01b031663032c49ed6007612f55866001612831565b81548110612f5f57fe5b6000918252602090912001546040516001600160e01b031960e084901b168152612f95916001600160a01b0316906004016137b4565b60206040518083038186803b158015612fad57600080fd5b505afa158015612fc1573d6000803e3d6000fd5b505050506040513d601f19601f82011682018060405250810190612fe59190613667565b61ffff16105b156131a257600060078381548110612fff57fe5b6000918252602091829020604080518082019091529101546001600160a01b0381168252600160a01b900460ff1615159181019190915290506007613045846001612831565b8154811061304f57fe5b906000526020600020016007848154811061306657fe5b600091825260209091208254910180546001600160a01b0319166001600160a01b0390921691909117808255915460ff600160a01b918290041615150260ff60a01b199092169190911790556130bd8360016126ea565b60086000600786815481106130ce57fe5b60009182526020808320909101546001600160a01b03168352820192909252604001902055806007613101856001612831565b8154811061310b57fe5b6000918252602080832084519201805494909101511515600160a01b0260ff60a01b196001600160a01b039093166001600160a01b031990951694909417919091169290921790915583906008906007613166846001612831565b8154811061317057fe5b60009182526020808320909101546001600160a01b031683528201929092526040019020555060001990910190612f26565b50505b6006546000546040516001600160a01b03928316927fdb9319bd5f91884f639cec9a5e01b183bedb3e6a3ab459b6e72c0b1264e7742b926131f492620100009091049091169086908690613805565b60405180910390a2505050565b3b151590565b828054600181600116156101000203166002900490600052602060002090601f01602090048101928261323d5760008555613283565b82601f1061325657805160ff1916838001178555613283565b82800160010185558215613283579182015b82811115613283578251825591602001919060010190613268565b5061328f9291506132aa565b5090565b604080518082019091526000808252602082015290565b5b8082111561328f57600081556001016132ab565b8035610d6881613d54565b60008083601f8401126132db578182fd5b5081356001600160401b038111156132f1578182fd5b60208301915083602060408302850101111561330c57600080fd5b9250929050565b600060208284031215613324578081fd5b81356124de81613d54565b600060208284031215613340578081fd5b81516124de81613d54565b600080600080600080600080600060e08a8c031215613368578485fd5b893561337381613d54565b985060208a013561338381613d54565b975060408a01356001600160401b038082111561339e578687fd5b818c0191508c601f8301126133b1578687fd5b8135818111156133bf578788fd5b8d60208285010111156133d0578788fd5b60208301995097506133e460608d016132bf565b965060808c0135955060a08c0135945060c08c0135915080821115613407578384fd5b506134148c828d016132ca565b915080935050809150509295985092959850929598565b6000806040838503121561343d578182fd5b823561344881613d54565b91506020838101356001600160401b0380821115613464578384fd5b818601915086601f830112613477578384fd5b81358181111561348357fe5b613495601f8201601f19168501613cb4565b915080825287848285010111156134aa578485fd5b8084840185840137810190920192909252919491935090915050565b600080604083850312156134d8578182fd5b82356134e381613d54565b946020939093013593505050565b60006020808385031215613503578182fd5b82356001600160401b0380821115613519578384fd5b818501915085601f83011261352c578384fd5b81358181111561353857fe5b8381029150613548848301613cb4565b8181528481019084860184860187018a1015613562578788fd5b8795505b83861015613590578035945061357b85613d54565b84835260019590950194918601918601613566565b5098975050505050505050565b600080600080604085870312156135b2578384fd5b84356001600160401b03808211156135c8578586fd5b6135d4888389016132ca565b909650945060208701359150808211156135ec578384fd5b818701915087601f8301126135ff578384fd5b81358181111561360d578485fd5b8860208083028501011115613620578485fd5b95989497505060200194505050565b600060208284031215613640578081fd5b81356124de81613d69565b60006020828403121561365c578081fd5b81516124de81613d69565b600060208284031215613678578081fd5b815161ffff811681146124de578182fd5b60006020828403121561369a578081fd5b5035919050565b6000602082840312156136b2578081fd5b5051919050565b6000806000606084860312156136cd578081fd5b505081359360208301359350604090920135919050565b600080600080608085870312156136f9578182fd5b505082516020840151604085015160609095015191969095509092509050565b6000815180845260208085019450808401835b8381101561375e57815180516001600160a01b031688528301511515838801526040909601959082019060010161372c565b509495945050505050565b6000815180845260208085019450808401835b8381101561375e5781518752958201959082019060010161377c565b600082516137aa818460208701613cd7565b9190910192915050565b6001600160a01b0391909116815260200190565b6001600160a01b0392831681529116602082015260400190565b6001600160a01b0393841681529183166020830152909116604082015260600190565b6001600160a01b039384168152919092166020820152901515604082015260600190565b6001600160a01b03968716815294909516602085015260408401929092526060830152608082015260a081019190915260c00190565b6001600160a01b039290921682521515602082015260400190565b6020808252825182820181905260009190848201906040850190845b818110156138bb5783516001600160a01b031683529284019291840191600101613896565b50909695505050505050565b6000602082526113e26020830184613719565b6000606082526138ed6060830186613719565b82810360208401526138ff8186613769565b905082810360408401526139138185613769565b9695505050505050565b901515815260200190565b6000602082528251806020840152613947816040850160208701613cd7565b601f01601f19169190910160400192915050565b60208082526015908201527418d85b9b9bdd08185919081c1bdbdb08185cdcd95d605a1b604082015260600190565b6020808252600d908201526c1a5b9d985b1a5908185cdcd95d609a1b604082015260600190565b6020808252601a90820152791bdb9b1e481bdddb995c881859191c995cdcc8185b1b1bddd95960321b604082015260600190565b6020808252601d908201527f63616e6e6f742072656d6f7665206e6f6e2d656d707479206173736574000000604082015260600190565b602080825260129082015271696e76616c696420706f6f6c206c6f67696360701b604082015260600190565b602080825260119082015270496e76616c696420706f6f6c4c6f67696360781b604082015260600190565b6020808252601490820152730dac2dcc2cecae440cccaca40e8dede40d0d2ced60631b604082015260600190565b60208082526012908201527124b73b30b634b21031b7b63632b1ba34b7b760711b604082015260600190565b60208082526019908201527866656520696e6372656173652064656c61792061637469766560381b604082015260600190565b6020808252601f908201527f6f6e6c79206d616e616765722c20747261646572206f7220666163746f727900604082015260600190565b602080825260139082015272185cdcd95d081b9bdd081cdd5c1c1bdc9d1959606a1b604082015260600190565b6020808252601a9082015279185d081b19585cdd081bdb994819195c1bdcda5d08185cdcd95d60321b604082015260600190565b6020808252600f908201526e24b73b30b634b21036b0b730b3b2b960891b604082015260600190565b6020808252600f908201526e496e76616c696420666163746f727960881b604082015260600190565b602080825260199082015278657863656564656420616c6c6f77656420696e63726561736560381b604082015260600190565b602080825260139082015272696e76616c6964206d616e616765722066656560681b604082015260600190565b6020808252601690820152751b585e1a5b5d5b48185cdcd95d1cc81c995858da195960521b604082015260600190565b90815260200190565b9283526020830191909152604082015260600190565b93845260208401929092526040830152606082015260800190565b6040518181016001600160401b0381118282101715613ccf57fe5b604052919050565b60005b83811015613cf2578181015183820152602001613cda565b83811115610cc45750506000910152565b8135613d0e81613d54565b81546001600160a01b0319166001600160a01b0391909116178082556020830135613d3881613d69565b60ff60a01b199190911690151560a01b60ff60a01b1617905550565b6001600160a01b03811681146106a857600080fd5b80151581146106a857600080fdfe496e697469616c697a61626c653a20636f6e747261637420697320616c726561647920696e697469616c697a6564536166654d6174683a206d756c7469706c69636174696f6e206f766572666c6f77a2646970667358221220a3799219d205bf9eaa7088c497b7259eea3bad9035a88ae85a91d1d94aa8f30464736f6c63430007060033",
  "linkReferences": {},
  "deployedLinkReferences": {}
}