{
  "_format": "hh-sol-artifact-1",
  "contractName": "ArrakisLiquidityGaugeV4AssetGuard",
  "sourceName": "contracts/guards/assetGuards/ArrakisLiquidityGaugeV4AssetGuard.sol",
  "abi": [
    {
      "inputs": [
        {
          "internalType": "address",
          "name": "_arrakisV1RouterStaking",
          "type": "address"
        }
      ],
      "stateMutability": "nonpayable",
      "type": "constructor"
    },
    {
      "anonymous": false,
      "inputs": [
        {
          "indexed": false,
          "internalType": "address",
          "name": "fundAddress",
          "type": "address"
        },
        {
          "indexed": false,
          "internalType": "address",
          "name": "manager",
          "type": "address"
        },
        {
          "indexed": false,
          "internalType": "address",
          "name": "spender",
          "type": "address"
        },
        {
          "indexed": false,
          "internalType": "uint256",
          "name": "amount",
          "type": "uint256"
        },
        {
          "indexed": false,
          "internalType": "uint256",
          "name": "time",
          "type": "uint256"
        }
      ],
      "name": "Approve",
      "type": "event"
    },
    {
      "anonymous": false,
      "inputs": [
        {
          "indexed": false,
          "internalType": "address",
          "name": "fundAddress",
          "type": "address"
        },
        {
          "indexed": false,
          "internalType": "address",
          "name": "sourceAsset",
          "type": "address"
        },
        {
          "indexed": false,
          "internalType": "uint256",
          "name": "sourceAmount",
          "type": "uint256"
        },
        {
          "indexed": false,
          "internalType": "address",
          "name": "dstAsset",
          "type": "address"
        },
        {
          "indexed": false,
          "internalType": "uint256",
          "name": "time",
          "type": "uint256"
        }
      ],
      "name": "ExchangeFrom",
      "type": "event"
    },
    {
      "anonymous": false,
      "inputs": [
        {
          "indexed": false,
          "internalType": "address",
          "name": "fundAddress",
          "type": "address"
        },
        {
          "indexed": false,
          "internalType": "address",
          "name": "sourceAsset",
          "type": "address"
        },
        {
          "indexed": false,
          "internalType": "address",
          "name": "dstAsset",
          "type": "address"
        },
        {
          "indexed": false,
          "internalType": "uint256",
          "name": "dstAmount",
          "type": "uint256"
        },
        {
          "indexed": false,
          "internalType": "uint256",
          "name": "time",
          "type": "uint256"
        }
      ],
      "name": "ExchangeTo",
      "type": "event"
    },
    {
      "inputs": [],
      "name": "arrakisV1RouterStaking",
      "outputs": [
        {
          "internalType": "address",
          "name": "",
          "type": "address"
        }
      ],
      "stateMutability": "view",
      "type": "function"
    },
    {
      "inputs": [
        {
          "internalType": "bytes32",
          "name": "data",
          "type": "bytes32"
        }
      ],
      "name": "convert32toAddress",
      "outputs": [
        {
          "internalType": "address",
          "name": "o",
          "type": "address"
        }
      ],
      "stateMutability": "pure",
      "type": "function"
    },
    {
      "inputs": [
        {
          "internalType": "bytes",
          "name": "data",
          "type": "bytes"
        },
        {
          "internalType": "uint8",
          "name": "inputNum",
          "type": "uint8"
        },
        {
          "internalType": "uint8",
          "name": "arrayIndex",
          "type": "uint8"
        }
      ],
      "name": "getArrayIndex",
      "outputs": [
        {
          "internalType": "bytes32",
          "name": "",
          "type": "bytes32"
        }
      ],
      "stateMutability": "pure",
      "type": "function"
    },
    {
      "inputs": [
        {
          "internalType": "bytes",
          "name": "data",
          "type": "bytes"
        },
        {
          "internalType": "uint8",
          "name": "inputNum",
          "type": "uint8"
        }
      ],
      "name": "getArrayLast",
      "outputs": [
        {
          "internalType": "bytes32",
          "name": "",
          "type": "bytes32"
        }
      ],
      "stateMutability": "pure",
      "type": "function"
    },
    {
      "inputs": [
        {
          "internalType": "bytes",
          "name": "data",
          "type": "bytes"
        },
        {
          "internalType": "uint8",
          "name": "inputNum",
          "type": "uint8"
        }
      ],
      "name": "getArrayLength",
      "outputs": [
        {
          "internalType": "uint256",
          "name": "",
          "type": "uint256"
        }
      ],
      "stateMutability": "pure",
      "type": "function"
    },
    {
      "inputs": [
        {
          "internalType": "address",
          "name": "pool",
          "type": "address"
        },
        {
          "internalType": "address",
          "name": "asset",
          "type": "address"
        }
      ],
      "name": "getBalance",
      "outputs": [
        {
          "internalType": "uint256",
          "name": "balance",
          "type": "uint256"
        }
      ],
      "stateMutability": "view",
      "type": "function"
    },
    {
      "inputs": [
        {
          "internalType": "bytes",
          "name": "data",
          "type": "bytes"
        },
        {
          "internalType": "uint8",
          "name": "inputNum",
          "type": "uint8"
        },
        {
          "internalType": "uint256",
          "name": "offset",
          "type": "uint256"
        }
      ],
      "name": "getBytes",
      "outputs": [
        {
          "internalType": "bytes",
          "name": "",
          "type": "bytes"
        }
      ],
      "stateMutability": "pure",
      "type": "function"
    },
    {
      "inputs": [
        {
          "internalType": "address",
          "name": "asset",
          "type": "address"
        }
      ],
      "name": "getDecimals",
      "outputs": [
        {
          "internalType": "uint256",
          "name": "decimals",
          "type": "uint256"
        }
      ],
      "stateMutability": "view",
      "type": "function"
    },
    {
      "inputs": [
        {
          "internalType": "bytes",
          "name": "data",
          "type": "bytes"
        },
        {
          "internalType": "uint8",
          "name": "inputNum",
          "type": "uint8"
        }
      ],
      "name": "getInput",
      "outputs": [
        {
          "internalType": "bytes32",
          "name": "",
          "type": "bytes32"
        }
      ],
      "stateMutability": "pure",
      "type": "function"
    },
    {
      "inputs": [
        {
          "internalType": "bytes",
          "name": "data",
          "type": "bytes"
        }
      ],
      "name": "getMethod",
      "outputs": [
        {
          "internalType": "bytes4",
          "name": "",
          "type": "bytes4"
        }
      ],
      "stateMutability": "pure",
      "type": "function"
    },
    {
      "inputs": [
        {
          "internalType": "bytes",
          "name": "data",
          "type": "bytes"
        }
      ],
      "name": "getParams",
      "outputs": [
        {
          "internalType": "bytes",
          "name": "",
          "type": "bytes"
        }
      ],
      "stateMutability": "pure",
      "type": "function"
    },
    {
      "inputs": [
        {
          "internalType": "bytes",
          "name": "data",
          "type": "bytes"
        },
        {
          "internalType": "uint256",
          "name": "offset",
          "type": "uint256"
        },
        {
          "internalType": "uint256",
          "name": "length",
          "type": "uint256"
        }
      ],
      "name": "read32",
      "outputs": [
        {
          "internalType": "bytes32",
          "name": "o",
          "type": "bytes32"
        }
      ],
      "stateMutability": "pure",
      "type": "function"
    },
    {
      "inputs": [
        {
          "internalType": "bytes",
          "name": "data",
          "type": "bytes"
        },
        {
          "internalType": "uint256",
          "name": "offset",
          "type": "uint256"
        }
      ],
      "name": "read4left",
      "outputs": [
        {
          "internalType": "bytes4",
          "name": "o",
          "type": "bytes4"
        }
      ],
      "stateMutability": "pure",
      "type": "function"
    },
    {
      "inputs": [
        {
          "internalType": "address",
          "name": "pool",
          "type": "address"
        },
        {
          "internalType": "address",
          "name": "asset",
          "type": "address"
        }
      ],
      "name": "removeAssetCheck",
      "outputs": [],
      "stateMutability": "view",
      "type": "function"
    },
    {
      "inputs": [
        {
          "internalType": "address",
          "name": "_poolManagerLogic",
          "type": "address"
        },
        {
          "internalType": "address",
          "name": "",
          "type": "address"
        },
        {
          "internalType": "bytes",
          "name": "data",
          "type": "bytes"
        }
      ],
      "name": "txGuard",
      "outputs": [
        {
          "internalType": "uint16",
          "name": "txType",
          "type": "uint16"
        },
        {
          "internalType": "bool",
          "name": "",
          "type": "bool"
        }
      ],
      "stateMutability": "nonpayable",
      "type": "function"
    },
    {
      "inputs": [
        {
          "internalType": "address",
          "name": "pool",
          "type": "address"
        },
        {
          "internalType": "address",
          "name": "asset",
          "type": "address"
        },
        {
          "internalType": "uint256",
          "name": "portion",
          "type": "uint256"
        },
        {
          "internalType": "address",
          "name": "to",
          "type": "address"
        }
      ],
      "name": "withdrawProcessing",
      "outputs": [
        {
          "internalType": "address",
          "name": "withdrawAsset",
          "type": "address"
        },
        {
          "internalType": "uint256",
          "name": "withdrawBalance",
          "type": "uint256"
        },
        {
          "components": [
            {
              "internalType": "address",
              "name": "to",
              "type": "address"
            },
            {
              "internalType": "bytes",
              "name": "txData",
              "type": "bytes"
            }
          ],
          "internalType": "struct IAssetGuard.MultiTransaction[]",
          "name": "transactions",
          "type": "tuple[]"
        }
      ],
      "stateMutability": "view",
      "type": "function"
    }
  ],
  "bytecode": "0x608060405234801561001057600080fd5b50604051611c81380380611c8183398101604081905261002f91610054565b600080546001600160a01b0319166001600160a01b0392909216919091179055610082565b600060208284031215610065578081fd5b81516001600160a01b038116811461007b578182fd5b9392505050565b611bf0806100916000396000f3fe608060405234801561001057600080fd5b50600436106100d05760003560e01c806309ff5c7d146100d55780631053f952146100fe5780631eba30771461011e578063293d80631461013e57806341dc16c31461015e5780636179309d1461017157806368901513146101925780636d5fae54146101a55780636f8ae202146101ba57806382f86acc146101dc578063998546e3146101ef578063c3c6279f14610202578063cf54aaa014610215578063d4fac45d14610228578063db896b571461023b578063f1a904281461024e575b600080fd5b6100e86100e33660046117e3565b610256565b6040516100f59190611abe565b60405180910390f35b61011161010c366004611827565b6102e9565b6040516100f59190611adc565b61013161012c36600461170c565b610383565b6040516100f59190611981565b61015161014c366004611756565b610386565b6040516100f59190611ac7565b6100e861016c36600461187e565b6103e8565b61018461017f36600461160e565b6104c6565b6040516100f5929190611b5c565b6101116101a0366004611724565b61082b565b6101b86101b33660046115d6565b610846565b005b6101cd6101c836600461169a565b610877565b6040516100f5939291906119fc565b6100e86101ea3660046117e3565b610aa1565b6100e86101fd3660046117e3565b610ab8565b610151610210366004611724565b610ae9565b6100e861022336600461159e565b610af6565b6100e86102363660046115d6565b610b72565b6100e8610249366004611798565b611085565b610131611104565b60008061026e848460200260040160ff166020611085565b9050600061028185600484016020611085565b9050806102ca576040805162461bcd60e51b8152602060048201526012602482015271696e707574206973206e6f7420617272617960701b604482015290519081900360640190fd5b6102de856020808402850160040190611085565b925050505b92915050565b606060148210610331576040805162461bcd60e51b815260206004820152600e60248201526d1a5b9d985b1a59081bd9999cd95d60921b604482015290519081900360640190fd5b816020029150600061035085848660200260040160ff16016020611085565b90506000610365868584016004016020611085565b90506103778660248487010183611113565b925050505b9392505050565b90565b600081600401835110156103df576040805162461bcd60e51b815260206004820152601b60248201527a52656164696e67206279746573206f7574206f6620626f756e647360281b604482015290519081900360640190fd5b50016020015190565b600080610400858560200260040160ff166020611085565b9050600061041386600484016020611085565b90508061045c576040805162461bcd60e51b8152602060048201526012602482015271696e707574206973206e6f7420617272617960701b604482015290519081900360640190fd5b60ff841681116104ac576040805162461bcd60e51b815260206004820152601660248201527534b73b30b634b21030b93930bc903837b9b4ba34b7b760511b604482015290519081900360640190fd5b610377866020600160ff8816018102850160040190611085565b600080600061050a85858080601f016020809104026020016040519081016040528093929190818152602001838380828437600092019190915250610ae992505050565b90506001600160e01b0319811663095ea7b360e01b141561081d57600061056961012c87878080601f01602080910402602001604051908101604052809392919081815260200183838082843760009201829052509250610aa1915050565b905060006105af87878080601f01602080910402602001604051908101604052809392919081815260200183838082843760009201919091525060019250610aa1915050565b60001c905060008990506000816001600160a01b031663c45a01556040518163ffffffff1660e01b815260040160206040518083038186803b1580156105f457600080fd5b505afa158015610608573d6000803e3d6000fd5b505050506040513d601f19601f8201168201806040525081019061062c91906115ba565b90506000816001600160a01b0316634f8419b9866040518263ffffffff1660e01b815260040161065c9190611981565b60206040518083038186803b15801561067457600080fd5b505afa158015610688573d6000803e3d6000fd5b505050506040513d601f19601f820116820180604052508101906106ac91906115ba565b90506001600160a01b038116158015906106cf57506001600160a01b0381163014155b6106f45760405162461bcd60e51b81526004016106eb90611b26565b60405180910390fd5b7f5343b378d69227c1bc2016fd44e8104f0ffa7729f4f4f4110e349a2db0a0d0c8836001600160a01b03166339b81fd96040518163ffffffff1660e01b815260040160206040518083038186803b15801561074e57600080fd5b505afa158015610762573d6000803e3d6000fd5b505050506040513d601f19601f8201168201806040525081019061078691906115ba565b8d6001600160a01b031663481c6a756040518163ffffffff1660e01b815260040160206040518083038186803b1580156107bf57600080fd5b505afa1580156107d3573d6000803e3d6000fd5b505050506040513d601f19601f820116820180604052508101906107f791906115ba565b87874260405161080b9594939291906119af565b60405180910390a16001975050505050505b506000905094509492505050565b60606102e3600480845103846111139092919063ffffffff16565b60006108528383610b72565b905080156108725760405162461bcd60e51b81526004016106eb90611aef565b505050565b60008060606000866001600160a01b03166370a08231896040518263ffffffff1660e01b81526004016108aa9190611981565b60206040518083038186803b1580156108c257600080fd5b505afa1580156108d6573d6000803e3d6000fd5b505050506040513d601f19601f820116820180604052508101906108fa91906118df565b9050600061091a670de0b6b3a7640000610914848a611264565b906112bd565b90508015610a95576040805160028082526060820190925290816020015b610940611512565b815260200190600190039081610938579050509250878360008151811061096357fe5b60209081029190910101516001600160a01b03918216905260005460405163095ea7b360e01b9261099a92169084906024016119e3565b604051602081830303815290604052906001600160e01b0319166020820180516001600160e01b038381831617835250505050836000815181106109da57fe5b60200260200101516020018190525060008054906101000a90046001600160a01b031683600181518110610a0a57fe5b60209081029190910101516001600160a01b03909116905260405163b83a75b360e01b90610a45908a90849060009081908c90602401611a8a565b604051602081830303815290604052906001600160e01b0319166020820180516001600160e01b03838183161783525050505083600181518110610a8557fe5b6020026020010151602001819052505b50509450945094915050565b600061037c838360200260040160ff166020611085565b600080610ad0848460200260040160ff166020611085565b9050610ae184600483016020611085565b949350505050565b60006102e3826000610386565b6000816001600160a01b031663313ce5676040518163ffffffff1660e01b815260040160206040518083038186803b158015610b3157600080fd5b505afa158015610b45573d6000803e3d6000fd5b505050506040513d601f19601f82011682018060405250810190610b69919061191a565b60ff1692915050565b600080836001600160a01b031663c45a01556040518163ffffffff1660e01b815260040160206040518083038186803b158015610bae57600080fd5b505afa158015610bc2573d6000803e3d6000fd5b505050506040513d601f19601f82011682018060405250810190610be691906115ba565b905060008390506000816001600160a01b0316632dc7d74c6040518163ffffffff1660e01b815260040160206040518083038186803b158015610c2857600080fd5b505afa158015610c3c573d6000803e3d6000fd5b505050506040513d601f19601f82011682018060405250810190610c6091906115ba565b9050600080826001600160a01b0316631322d9546040518163ffffffff1660e01b8152600401604080518083038186803b158015610c9d57600080fd5b505afa158015610cb1573d6000803e3d6000fd5b505050506040513d601f19601f82011682018060405250810190610cd591906118f7565b91509150610ed2836001600160a01b03166318160ddd6040518163ffffffff1660e01b815260040160206040518083038186803b158015610d1557600080fd5b505afa158015610d29573d6000803e3d6000fd5b505050506040513d601f19601f82011682018060405250810190610d4d91906118df565b6040516370a0823160e01b8152610914906001600160a01b038b16906370a0823190610d7d908e90600401611981565b60206040518083038186803b158015610d9557600080fd5b505afa158015610da9573d6000803e3d6000fd5b505050506040513d601f19601f82011682018060405250810190610dcd91906118df565b610ecc610e4b8a896001600160a01b031663d21220a76040518163ffffffff1660e01b815260040160206040518083038186803b158015610e0d57600080fd5b505afa158015610e21573d6000803e3d6000fd5b505050506040513d601f19601f82011682018060405250810190610e4591906115ba565b88611321565b610ec68b8a6001600160a01b0316630dfe16816040518163ffffffff1660e01b815260040160206040518083038186803b158015610e8857600080fd5b505afa158015610e9c573d6000803e3d6000fd5b505050506040513d601f19601f82011682018060405250810190610ec091906115ba565b8a611321565b906114ba565b90611264565b95506000846001600160a01b031663963c94b96040518163ffffffff1660e01b815260040160206040518083038186803b158015610f0f57600080fd5b505afa158015610f23573d6000803e3d6000fd5b505050506040513d601f19601f82011682018060405250810190610f4791906118df565b905060005b81811015611078576040516354c49fe960e01b81526000906001600160a01b038816906354c49fe990610f83908590600401611abe565b60206040518083038186803b158015610f9b57600080fd5b505afa158015610faf573d6000803e3d6000fd5b505050506040513d601f19601f82011682018060405250810190610fd391906115ba565b90506000876001600160a01b03166333fd6f748d846040518363ffffffff1660e01b8152600401611005929190611995565b60206040518083038186803b15801561101d57600080fd5b505afa158015611031573d6000803e3d6000fd5b505050506040513d601f19601f8201168201806040525081019061105591906118df565b905061106c6110658a8484611321565b8b906114ba565b99505050600101610f4c565b5050505050505092915050565b6000818301845110156110dd576040805162461bcd60e51b815260206004820152601b60248201527a52656164696e67206279746573206f7574206f6620626f756e647360281b604482015290519081900360640190fd5b8260200184015190508160200380156110fc576008810260020a820491505b509392505050565b6000546001600160a01b031681565b60608182601f01101561115e576040805162461bcd60e51b815260206004820152600e60248201526d736c6963655f6f766572666c6f7760901b604482015290519081900360640190fd5b8282840110156111a6576040805162461bcd60e51b815260206004820152600e60248201526d736c6963655f6f766572666c6f7760901b604482015290519081900360640190fd5b818301845110156111f2576040805162461bcd60e51b8152602060048201526011602482015270736c6963655f6f75744f66426f756e647360781b604482015290519081900360640190fd5b606082158015611211576040519150600082526020820160405261125b565b6040519150601f8416801560200281840101858101878315602002848b0101015b8183101561124a578051835260209283019201611232565b5050858452601f01601f1916604052505b50949350505050565b600082611273575060006102e3565b8282028284828161128057fe5b041461037c5760405162461bcd60e51b8152600401808060200182810382526021815260200180611b9a6021913960400191505060405180910390fd5b6000808211611310576040805162461bcd60e51b815260206004820152601a602482015279536166654d6174683a206469766973696f6e206279207a65726f60301b604482015290519081900360640190fd5b81838161131957fe5b049392505050565b60405163cc435bf360e01b81526000906001600160a01b0385169063cc435bf390611350908690600401611981565b60206040518083038186803b15801561136857600080fd5b505afa15801561137c573d6000803e3d6000fd5b505050506040513d601f19601f820116820180604052508101906113a091906116ec565b156114b25760405163b3596f0760e01b81526000906001600160a01b0386169063b3596f07906113d4908790600401611981565b60206040518083038186803b1580156113ec57600080fd5b505afa158015611400573d6000803e3d6000fd5b505050506040513d601f19601f8201168201806040525081019061142491906118df565b90506114aa846001600160a01b031663313ce5676040518163ffffffff1660e01b815260040160206040518083038186803b15801561146257600080fd5b505afa158015611476573d6000803e3d6000fd5b505050506040513d601f19601f8201168201806040525081019061149a919061191a565b60ff16600a0a6109148386611264565b91505061037c565b50600061037c565b60008282018381101561037c576040805162461bcd60e51b815260206004820152601b60248201527a536166654d6174683a206164646974696f6e206f766572666c6f7760281b604482015290519081900360640190fd5b60408051808201909152600081526060602082015290565b600082601f83011261153a578081fd5b81356001600160401b038082111561154e57fe5b604051601f8301601f19168101602001828111828210171561156c57fe5b604052828152848301602001861015611583578384fd5b82602086016020830137918201602001929092529392505050565b6000602082840312156115af578081fd5b813561037c81611b72565b6000602082840312156115cb578081fd5b815161037c81611b72565b600080604083850312156115e8578081fd5b82356115f381611b72565b9150602083013561160381611b72565b809150509250929050565b60008060008060608587031215611623578182fd5b843561162e81611b72565b9350602085013561163e81611b72565b925060408501356001600160401b0380821115611659578384fd5b818701915087601f83011261166c578384fd5b81358181111561167a578485fd5b88602082850101111561168b578485fd5b95989497505060200194505050565b600080600080608085870312156116af578384fd5b84356116ba81611b72565b935060208501356116ca81611b72565b92506040850135915060608501356116e181611b72565b939692955090935050565b6000602082840312156116fd578081fd5b8151801515811461037c578182fd5b60006020828403121561171d578081fd5b5035919050565b600060208284031215611735578081fd5b81356001600160401b0381111561174a578182fd5b610ae18482850161152a565b60008060408385031215611768578182fd5b82356001600160401b0381111561177d578283fd5b6117898582860161152a565b95602094909401359450505050565b6000806000606084860312156117ac578283fd5b83356001600160401b038111156117c1578384fd5b6117cd8682870161152a565b9660208601359650604090950135949350505050565b600080604083850312156117f5578182fd5b82356001600160401b0381111561180a578283fd5b6118168582860161152a565b925050602083013561160381611b8a565b60008060006060848603121561183b578283fd5b83356001600160401b03811115611850578384fd5b61185c8682870161152a565b935050602084013561186d81611b8a565b929592945050506040919091013590565b600080600060608486031215611892578081fd5b83356001600160401b038111156118a7578182fd5b6118b38682870161152a565b93505060208401356118c481611b8a565b915060408401356118d481611b8a565b809150509250925092565b6000602082840312156118f0578081fd5b5051919050565b60008060408385031215611909578182fd5b505080516020909101519092909150565b60006020828403121561192b578081fd5b815161037c81611b8a565b60008151808452815b8181101561195b5760208185018101518683018201520161193f565b8181111561196c5782602083870101525b50601f01601f19169290920160200192915050565b6001600160a01b0391909116815260200190565b6001600160a01b0392831681529116602082015260400190565b6001600160a01b03958616815293851660208501529190931660408301526060820192909252608081019190915260a00190565b6001600160a01b03929092168252602082015260400190565b60006060820160018060a01b03808716845260208681860152604060608187015283875180865260808801915060808482028901019550838901875b82811015611a7957898803607f190184528151805188168952860151868901869052611a66868a0182611936565b9850509285019290850190600101611a38565b50959b9a5050505050505050505050565b6001600160a01b039586168152602081019490945260ff928316604085015291166060830152909116608082015260a00190565b90815260200190565b6001600160e01b031991909116815260200190565b60006020825261037c6020830184611936565b6020808252601d908201527f63616e6e6f742072656d6f7665206e6f6e2d656d707479206173736574000000604082015260600190565b6020808252601c908201527b1d5b9cdd5c1c1bdc9d1959081cdc195b99195c88185c1c1c9bdd985b60221b604082015260600190565b61ffff9290921682521515602082015260400190565b6001600160a01b0381168114611b8757600080fd5b50565b60ff81168114611b8757600080fdfe536166654d6174683a206d756c7469706c69636174696f6e206f766572666c6f77a2646970667358221220420bf0260aa86cd8f3d419c7c64d695e3341fa449ee980ab5c798ce90a81df7264736f6c63430007060033",
  "linkReferences": {},
  "deployedLinkReferences": {}
}