{
  "_format": "hh-sol-artifact-1",
  "contractName": "DhedgeEasySwapper",
  "sourceName": "contracts/swappers/easySwapper/DhedgeEasySwapper.sol",
  "abi": [
    {
      "anonymous": false,
      "inputs": [
        {
          "indexed": false,
          "internalType": "address",
          "name": "pool",
          "type": "address"
        },
        {
          "indexed": false,
          "internalType": "address",
          "name": "depositor",
          "type": "address"
        },
        {
          "indexed": false,
          "internalType": "address",
          "name": "depositAsset",
          "type": "address"
        },
        {
          "indexed": false,
          "internalType": "uint256",
          "name": "amount",
          "type": "uint256"
        },
        {
          "indexed": false,
          "internalType": "address",
          "name": "poolDepositAsset",
          "type": "address"
        },
        {
          "indexed": false,
          "internalType": "uint256",
          "name": "liquidityMinted",
          "type": "uint256"
        }
      ],
      "name": "Deposit",
      "type": "event"
    },
    {
      "anonymous": false,
      "inputs": [
        {
          "indexed": true,
          "internalType": "address",
          "name": "previousOwner",
          "type": "address"
        },
        {
          "indexed": true,
          "internalType": "address",
          "name": "newOwner",
          "type": "address"
        }
      ],
      "name": "OwnershipTransferred",
      "type": "event"
    },
    {
      "stateMutability": "payable",
      "type": "fallback"
    },
    {
      "inputs": [
        {
          "internalType": "address",
          "name": "",
          "type": "address"
        }
      ],
      "name": "allowedPools",
      "outputs": [
        {
          "internalType": "bool",
          "name": "",
          "type": "bool"
        }
      ],
      "stateMutability": "view",
      "type": "function"
    },
    {
      "inputs": [
        {
          "internalType": "address",
          "name": "pool",
          "type": "address"
        },
        {
          "internalType": "contract IERC20Extended",
          "name": "depositAsset",
          "type": "address"
        },
        {
          "internalType": "uint256",
          "name": "amount",
          "type": "uint256"
        },
        {
          "internalType": "contract IERC20Extended",
          "name": "poolDepositAsset",
          "type": "address"
        },
        {
          "internalType": "uint256",
          "name": "expectedLiquidityMinted",
          "type": "uint256"
        }
      ],
      "name": "deposit",
      "outputs": [
        {
          "internalType": "uint256",
          "name": "liquidityMinted",
          "type": "uint256"
        }
      ],
      "stateMutability": "nonpayable",
      "type": "function"
    },
    {
      "inputs": [
        {
          "internalType": "address",
          "name": "pool",
          "type": "address"
        },
        {
          "internalType": "contract IERC20Extended",
          "name": "poolDepositAsset",
          "type": "address"
        },
        {
          "internalType": "uint256",
          "name": "expectedLiquidityMinted",
          "type": "uint256"
        }
      ],
      "name": "depositNative",
      "outputs": [
        {
          "internalType": "uint256",
          "name": "liquidityMinted",
          "type": "uint256"
        }
      ],
      "stateMutability": "payable",
      "type": "function"
    },
    {
      "inputs": [
        {
          "internalType": "address",
          "name": "pool",
          "type": "address"
        },
        {
          "internalType": "contract IERC20Extended",
          "name": "poolDepositAsset",
          "type": "address"
        },
        {
          "internalType": "uint256",
          "name": "expectedLiquidityMinted",
          "type": "uint256"
        }
      ],
      "name": "depositNativeWithCustomCooldown",
      "outputs": [
        {
          "internalType": "uint256",
          "name": "liquidityMinted",
          "type": "uint256"
        }
      ],
      "stateMutability": "payable",
      "type": "function"
    },
    {
      "inputs": [
        {
          "internalType": "address",
          "name": "pool",
          "type": "address"
        },
        {
          "internalType": "contract IERC20Extended",
          "name": "depositAsset",
          "type": "address"
        },
        {
          "internalType": "uint256",
          "name": "amount",
          "type": "uint256"
        },
        {
          "internalType": "contract IERC20Extended",
          "name": "poolDepositAsset",
          "type": "address"
        },
        {
          "internalType": "bool",
          "name": "customCooldown",
          "type": "bool"
        }
      ],
      "name": "depositQuote",
      "outputs": [
        {
          "internalType": "uint256",
          "name": "expectedLiquidityMinted",
          "type": "uint256"
        }
      ],
      "stateMutability": "view",
      "type": "function"
    },
    {
      "inputs": [
        {
          "internalType": "address",
          "name": "pool",
          "type": "address"
        },
        {
          "internalType": "contract IERC20Extended",
          "name": "depositAsset",
          "type": "address"
        },
        {
          "internalType": "uint256",
          "name": "amount",
          "type": "uint256"
        },
        {
          "internalType": "contract IERC20Extended",
          "name": "poolDepositAsset",
          "type": "address"
        },
        {
          "internalType": "uint256",
          "name": "expectedLiquidityMinted",
          "type": "uint256"
        }
      ],
      "name": "depositWithCustomCooldown",
      "outputs": [
        {
          "internalType": "uint256",
          "name": "liquidityMinted",
          "type": "uint256"
        }
      ],
      "stateMutability": "nonpayable",
      "type": "function"
    },
    {
      "inputs": [],
      "name": "feeDenominator",
      "outputs": [
        {
          "internalType": "uint256",
          "name": "",
          "type": "uint256"
        }
      ],
      "stateMutability": "view",
      "type": "function"
    },
    {
      "inputs": [],
      "name": "feeNumerator",
      "outputs": [
        {
          "internalType": "uint256",
          "name": "",
          "type": "uint256"
        }
      ],
      "stateMutability": "view",
      "type": "function"
    },
    {
      "inputs": [],
      "name": "feeSink",
      "outputs": [
        {
          "internalType": "address payable",
          "name": "",
          "type": "address"
        }
      ],
      "stateMutability": "view",
      "type": "function"
    },
    {
      "inputs": [
        {
          "internalType": "address payable",
          "name": "_feeSink",
          "type": "address"
        },
        {
          "internalType": "uint256",
          "name": "_feeNumerator",
          "type": "uint256"
        },
        {
          "internalType": "uint256",
          "name": "_feeDenominator",
          "type": "uint256"
        }
      ],
      "name": "initialize",
      "outputs": [],
      "stateMutability": "nonpayable",
      "type": "function"
    },
    {
      "inputs": [
        {
          "internalType": "address",
          "name": "",
          "type": "address"
        }
      ],
      "name": "managerFeeBypass",
      "outputs": [
        {
          "internalType": "bool",
          "name": "",
          "type": "bool"
        }
      ],
      "stateMutability": "view",
      "type": "function"
    },
    {
      "inputs": [],
      "name": "owner",
      "outputs": [
        {
          "internalType": "address",
          "name": "",
          "type": "address"
        }
      ],
      "stateMutability": "view",
      "type": "function"
    },
    {
      "inputs": [],
      "name": "renounceOwnership",
      "outputs": [],
      "stateMutability": "nonpayable",
      "type": "function"
    },
    {
      "inputs": [
        {
          "internalType": "uint256",
          "name": "numerator",
          "type": "uint256"
        },
        {
          "internalType": "uint256",
          "name": "denominator",
          "type": "uint256"
        }
      ],
      "name": "setFee",
      "outputs": [],
      "stateMutability": "nonpayable",
      "type": "function"
    },
    {
      "inputs": [
        {
          "internalType": "address payable",
          "name": "sink",
          "type": "address"
        }
      ],
      "name": "setFeeSink",
      "outputs": [],
      "stateMutability": "nonpayable",
      "type": "function"
    },
    {
      "inputs": [
        {
          "internalType": "address",
          "name": "manager",
          "type": "address"
        },
        {
          "internalType": "bool",
          "name": "bypass",
          "type": "bool"
        }
      ],
      "name": "setManagerFeeBypass",
      "outputs": [],
      "stateMutability": "nonpayable",
      "type": "function"
    },
    {
      "inputs": [
        {
          "internalType": "address",
          "name": "pool",
          "type": "address"
        },
        {
          "internalType": "bool",
          "name": "allowed",
          "type": "bool"
        }
      ],
      "name": "setPoolAllowed",
      "outputs": [],
      "stateMutability": "nonpayable",
      "type": "function"
    },
    {
      "inputs": [
        {
          "internalType": "contract IUniswapV2RouterSwapOnly",
          "name": "_swapRouter",
          "type": "address"
        }
      ],
      "name": "setSwapRouter",
      "outputs": [],
      "stateMutability": "nonpayable",
      "type": "function"
    },
    {
      "inputs": [
        {
          "components": [
            {
              "internalType": "contract IUniswapV2RouterSwapOnly",
              "name": "swapRouter",
              "type": "address"
            },
            {
              "components": [
                {
                  "internalType": "contract ISynthetix",
                  "name": "snxProxy",
                  "type": "address"
                },
                {
                  "internalType": "contract IERC20Extended",
                  "name": "swapSUSDToAsset",
                  "type": "address"
                },
                {
                  "internalType": "contract ISynthAddressProxy",
                  "name": "sUSDProxy",
                  "type": "address"
                }
              ],
              "internalType": "struct EasySwapperStructs.SynthetixProps",
              "name": "synthetixProps",
              "type": "tuple"
            },
            {
              "internalType": "contract IERC20Extended",
              "name": "weth",
              "type": "address"
            },
            {
              "internalType": "contract IERC20Extended",
              "name": "nativeAssetWrapper",
              "type": "address"
            }
          ],
          "internalType": "struct EasySwapperStructs.WithdrawProps",
          "name": "_withdrawProps",
          "type": "tuple"
        }
      ],
      "name": "setWithdrawProps",
      "outputs": [],
      "stateMutability": "nonpayable",
      "type": "function"
    },
    {
      "inputs": [
        {
          "internalType": "address",
          "name": "newOwner",
          "type": "address"
        }
      ],
      "name": "transferOwnership",
      "outputs": [],
      "stateMutability": "nonpayable",
      "type": "function"
    },
    {
      "inputs": [
        {
          "internalType": "address",
          "name": "pool",
          "type": "address"
        },
        {
          "internalType": "uint256",
          "name": "fundTokenAmount",
          "type": "uint256"
        },
        {
          "internalType": "contract IERC20Extended",
          "name": "withdrawalAsset",
          "type": "address"
        },
        {
          "internalType": "uint256",
          "name": "expectedAmountOut",
          "type": "uint256"
        }
      ],
      "name": "withdraw",
      "outputs": [],
      "stateMutability": "nonpayable",
      "type": "function"
    },
    {
      "inputs": [
        {
          "internalType": "address",
          "name": "pool",
          "type": "address"
        },
        {
          "internalType": "uint256",
          "name": "fundTokenAmount",
          "type": "uint256"
        },
        {
          "internalType": "contract IERC20Extended",
          "name": "intermediateAsset",
          "type": "address"
        },
        {
          "internalType": "contract IERC20Extended",
          "name": "finalAsset",
          "type": "address"
        },
        {
          "internalType": "uint256",
          "name": "expectedAmountFinalAsset",
          "type": "uint256"
        }
      ],
      "name": "withdrawIntermediate",
      "outputs": [],
      "stateMutability": "nonpayable",
      "type": "function"
    },
    {
      "inputs": [],
      "name": "withdrawProps",
      "outputs": [
        {
          "internalType": "contract IUniswapV2RouterSwapOnly",
          "name": "swapRouter",
          "type": "address"
        },
        {
          "components": [
            {
              "internalType": "contract ISynthetix",
              "name": "snxProxy",
              "type": "address"
            },
            {
              "internalType": "contract IERC20Extended",
              "name": "swapSUSDToAsset",
              "type": "address"
            },
            {
              "internalType": "contract ISynthAddressProxy",
              "name": "sUSDProxy",
              "type": "address"
            }
          ],
          "internalType": "struct EasySwapperStructs.SynthetixProps",
          "name": "synthetixProps",
          "type": "tuple"
        },
        {
          "internalType": "contract IERC20Extended",
          "name": "weth",
          "type": "address"
        },
        {
          "internalType": "contract IERC20Extended",
          "name": "nativeAssetWrapper",
          "type": "address"
        }
      ],
      "stateMutability": "view",
      "type": "function"
    },
    {
      "inputs": [
        {
          "internalType": "address",
          "name": "pool",
          "type": "address"
        },
        {
          "internalType": "uint256",
          "name": "fundTokenAmount",
          "type": "uint256"
        },
        {
          "internalType": "contract IERC20Extended",
          "name": "intermediateAsset",
          "type": "address"
        },
        {
          "internalType": "uint256",
          "name": "expectedAmountSUSD",
          "type": "uint256"
        }
      ],
      "name": "withdrawSUSD",
      "outputs": [],
      "stateMutability": "nonpayable",
      "type": "function"
    },
    {
      "stateMutability": "payable",
      "type": "receive"
    }
  ],
  "bytecode": "0x608060405234801561001057600080fd5b5061571e80620000216000396000f3fe60806040526004361061011f5760003560e01c80631047f61614610128578063180b0d7e146101485780631bfa59c31461017357806325bb0b6b146101935780633a305436146101c057806341273657146101e057806346a1b95e1461020057806348f858fe146102205780634b2084e3146102405780634b38474d14610260578063511383401461028257806352f7c988146102955780635f2fede7146102b5578063715018a6146102d55780637a1ac61e146102ea57806380e4cb2b1461030a5780638da5cb5b1461031d5780639169d82a14610332578063da62e06414610352578063dcb633b314610372578063e86dea4a14610392578063ea3909bb146103a7578063f2fde38b146103c7578063f48c5821146103e757610126565b3661012657005b005b34801561013457600080fd5b50610126610143366004614e1f565b61040c565b34801561015457600080fd5b5061015d61042e565b60405161016a919061528d565b60405180910390f35b34801561017f57600080fd5b5061012661018e366004614c9d565b610434565b34801561019f57600080fd5b506101b36101ae366004614c31565b6104c1565b60405161016a9190615282565b3480156101cc57600080fd5b506101266101db366004614c9d565b6104d6565b3480156101ec57600080fd5b506101266101fb366004614c31565b610563565b34801561020c57600080fd5b5061015d61021b366004614d15565b6105e7565b34801561022c57600080fd5b506101b361023b366004614c31565b61096e565b34801561024c57600080fd5b5061012661025b366004614e1f565b610983565b34801561026c57600080fd5b50610275610a77565b60405161016a91906151a3565b61015d610290366004614cd5565b610a86565b3480156102a157600080fd5b506101266102b03660046150ab565b610b06565b3480156102c157600080fd5b5061015d6102d0366004614d7c565b610ba0565b3480156102e157600080fd5b50610126610c35565b3480156102f657600080fd5b50610126610305366004614c69565b610ccf565b61015d610318366004614cd5565b610da0565b34801561032957600080fd5b50610275610e58565b34801561033e57600080fd5b5061012661034d366004614dd6565b610e67565b34801561035e57600080fd5b5061012661036d366004614c31565b610f64565b34801561037e57600080fd5b5061012661038d366004615078565b610fe8565b34801561039e57600080fd5b5061015d61105c565b3480156103b357600080fd5b5061015d6103c2366004614d7c565b611062565b3480156103d357600080fd5b506101266103e2366004614c31565b611139565b3480156103f357600080fd5b506103fc61122a565b60405161016a949392919061536a565b606d54610428908590859085906001600160a01b031685610e67565b50505050565b60675481565b61043c611271565b6001600160a01b031661044d610e58565b6001600160a01b031614610496576040805162461bcd60e51b815260206004820181905260248201526000805160206156a9833981519152604482015290519081900360640190fd5b6001600160a01b03919091166000908152606860205260409020805460ff1916911515919091179055565b60686020526000908152604090205460ff1681565b6104de611271565b6001600160a01b03166104ef610e58565b6001600160a01b031614610538576040805162461bcd60e51b815260206004820181905260248201526000805160206156a9833981519152604482015290519081900360640190fd5b6001600160a01b03919091166000908152606960205260409020805460ff1916911515919091179055565b61056b611271565b6001600160a01b031661057c610e58565b6001600160a01b0316146105c5576040805162461bcd60e51b815260206004820181905260248201526000805160206156a9833981519152604482015290519081900360640190fd5b606a80546001600160a01b0319166001600160a01b0392909216919091179055565b600080866001600160a01b0316637ff9b5966040518163ffffffff1660e01b815260040160206040518083038186803b15801561062357600080fd5b505afa158015610637573d6000803e3d6000fd5b505050506040513d601f19601f8201168201806040525081019061065b9190615060565b90508483156106715761066e8887611275565b90035b846001600160a01b0316876001600160a01b03161461079e5760408051600280825260608201835260009260208301908036833701905050905087816000815181106106b957fe5b60200260200101906001600160a01b031690816001600160a01b03168152505085816001815181106106e757fe5b6001600160a01b039283166020918202929092010152606a5460405163d06ca61f60e01b8152600092919091169063d06ca61f9061072b90869086906004016154ba565b60006040518083038186803b15801561074357600080fd5b505afa158015610757573d6000803e3d6000fd5b505050506040513d6000823e601f3d908101601f1916820160405261077f919081019061500a565b90508060018251038151811061079157fe5b6020026020010151925050505b6000886001600160a01b0316631e50a4a66040518163ffffffff1660e01b815260040160206040518083038186803b1580156107d957600080fd5b505afa1580156107ed573d6000803e3d6000fd5b505050506040513d601f19601f820116820180604052508101906108119190614c4d565b90506000816001600160a01b03166329c07fba88856040518363ffffffff1660e01b8152600401610843929190615204565b60206040518083038186803b15801561085b57600080fd5b505afa15801561086f573d6000803e3d6000fd5b505050506040513d601f19601f820116820180604052508101906108939190615060565b9050836108a2578094506108c1565b6108be846108b883670de0b6b3a76400006115c9565b9061162b565b94505b600080836001600160a01b031663ced72f876040518163ffffffff1660e01b815260040160806040518083038186803b1580156108fd57600080fd5b505afa158015610911573d6000803e3d6000fd5b505050506040513d601f19601f8201168201806040525081019061093591906150cc565b935093505050600082111561095f5761095c816108b8610955828661168f565b8a906115c9565b96505b50505050505095945050505050565b60696020526000908152604090205460ff1681565b6040516323b872dd60e01b81526001600160a01b038516906323b872dd906109b3903390309088906004016151b7565b602060405180830381600087803b1580156109cd57600080fd5b505af11580156109e1573d6000803e3d6000fd5b505050506040513d601f19601f82011682018060405250810190610a059190615044565b5060408051608081018252606a546001600160a01b039081168252825160608082018552606b5483168252606c548316602083810191909152606d54841683870152840191909152606e54821693830193909352606f54169181019190915261042890339086908690869086906116ec565b6065546001600160a01b031681565b606f5460408051630d0e30db60e41b8152905160009234926001600160a01b0390911691829163d0e30db0918591600480820192899290919082900301818588803b158015610ad457600080fd5b505af1158015610ae8573d6000803e3d6000fd5b5050505050610afc868284888860006120ad565b9695505050505050565b610b0e611271565b6001600160a01b0316610b1f610e58565b6001600160a01b031614610b68576040805162461bcd60e51b815260206004820181905260248201526000805160206156a9833981519152604482015290519081900360640190fd5b6066546067541015610b955760405162461bcd60e51b8152600401610b8c906153f3565b60405180910390fd5b606691909155606755565b6040516323b872dd60e01b81526000906001600160a01b038616906323b872dd90610bd3903390309089906004016151b7565b602060405180830381600087803b158015610bed57600080fd5b505af1158015610c01573d6000803e3d6000fd5b505050506040513d601f19601f82011682018060405250810190610c259190615044565b50610afc868686868660006120ad565b610c3d611271565b6001600160a01b0316610c4e610e58565b6001600160a01b031614610c97576040805162461bcd60e51b815260206004820181905260248201526000805160206156a9833981519152604482015290519081900360640190fd5b6033546040516000916001600160a01b0316906000805160206156c9833981519152908390a3603380546001600160a01b0319169055565b600054610100900460ff1680610ce85750610ce86124f6565b80610cf6575060005460ff16155b610d315760405162461bcd60e51b815260040180806020018281038252602e81526020018061565a602e913960400191505060405180910390fd5b600054610100900460ff16158015610d5c576000805460ff1961ff0019909116610100171660011790555b610d64612507565b606580546001600160a01b0319166001600160a01b038616179055606683905560678290558015610428576000805461ff001916905550505050565b6001600160a01b038316600090815260686020526040812054849060ff16610dda5760405162461bcd60e51b8152600401610b8c9061546c565b606f5460408051630d0e30db60e41b8152905134926001600160a01b031691829163d0e30db0918591600480830192600092919082900301818588803b158015610e2357600080fd5b505af1158015610e37573d6000803e3d6000fd5b5050505050610e4b878284898960016120ad565b935050505b509392505050565b6033546001600160a01b031690565b6040516323b872dd60e01b81526001600160a01b038616906323b872dd90610e97903390309089906004016151b7565b602060405180830381600087803b158015610eb157600080fd5b505af1158015610ec5573d6000803e3d6000fd5b505050506040513d601f19601f82011682018060405250810190610ee99190615044565b5060408051608081018252606a546001600160a01b039081168252825160608082018552606b5483168252606c548316602083810191909152606d54841683870152840191909152606e54821693830193909352606f541691810191909152610f5d903390879087908790879087906125b9565b5050505050565b610f6c611271565b6001600160a01b0316610f7d610e58565b6001600160a01b031614610fc6576040805162461bcd60e51b815260206004820181905260248201526000805160206156a9833981519152604482015290519081900360640190fd5b606580546001600160a01b0319166001600160a01b0392909216919091179055565b610ff0611271565b6001600160a01b0316611001610e58565b6001600160a01b03161461104a576040805162461bcd60e51b815260206004820181905260248201526000805160206156a9833981519152604482015290519081900360640190fd5b80606a611057828261556f565b505050565b60665481565b6001600160a01b038516600090815260686020526040812054869060ff1661109c5760405162461bcd60e51b8152600401610b8c9061546c565b6040516323b872dd60e01b81526001600160a01b038716906323b872dd906110cc90339030908a906004016151b7565b602060405180830381600087803b1580156110e657600080fd5b505af11580156110fa573d6000803e3d6000fd5b505050506040513d601f19601f8201168201806040525081019061111e9190615044565b5061112e878787878760016120ad565b979650505050505050565b611141611271565b6001600160a01b0316611152610e58565b6001600160a01b03161461119b576040805162461bcd60e51b815260206004820181905260248201526000805160206156a9833981519152604482015290519081900360640190fd5b6001600160a01b0381166111e05760405162461bcd60e51b81526004018080602001828103825260268152602001806156346026913960400191505060405180910390fd5b6033546040516001600160a01b038084169216906000805160206156c983398151915290600090a3603380546001600160a01b0319166001600160a01b0392909216919091179055565b606a5460408051606081018252606b546001600160a01b039081168252606c5481166020830152606d54811692820192909252606e54606f54938316939192908116911684565b3390565b60008060665411801561128a57506000606754115b80156112a057506065546001600160a01b031615155b156112c3576112c06067546108b8606654856115c990919063ffffffff16565b90505b60008390506000816001600160a01b0316631e50a4a66040518163ffffffff1660e01b815260040160206040518083038186803b15801561130357600080fd5b505afa158015611317573d6000803e3d6000fd5b505050506040513d601f19601f8201168201806040525081019061133b9190614c4d565b6001600160a01b031663ced72f876040518163ffffffff1660e01b815260040160806040518083038186803b15801561137357600080fd5b505afa158015611387573d6000803e3d6000fd5b505050506040513d601f19601f820116820180604052508101906113ab91906150cc565b50925050811590506113bc57600092505b816001600160a01b031663c45a01556040518163ffffffff1660e01b815260040160206040518083038186803b1580156113f557600080fd5b505afa158015611409573d6000803e3d6000fd5b505050506040513d601f19601f8201168201806040525081019061142d9190614c4d565b6001600160a01b0316635b16ebb7336040518263ffffffff1660e01b815260040161145891906151a3565b60206040518083038186803b15801561147057600080fd5b505afa158015611484573d6000803e3d6000fd5b505050506040513d601f19601f820116820180604052508101906114a89190615044565b156115c1576000336001600160a01b0316631e50a4a66040518163ffffffff1660e01b815260040160206040518083038186803b1580156114e857600080fd5b505afa1580156114fc573d6000803e3d6000fd5b505050506040513d601f19601f820116820180604052508101906115209190614c4d565b90506000816001600160a01b031663481c6a756040518163ffffffff1660e01b815260040160206040518083038186803b15801561155d57600080fd5b505afa158015611571573d6000803e3d6000fd5b505050506040513d601f19601f820116820180604052508101906115959190614c4d565b6001600160a01b03811660009081526069602052604090205490915060ff16156115be57600094505b50505b505092915050565b6000826115d857506000611625565b828202828482816115e557fe5b04146116225760405162461bcd60e51b81526004018080602001828103825260218152602001806156886021913960400191505060405180910390fd5b90505b92915050565b600080821161167e576040805162461bcd60e51b815260206004820152601a602482015279536166654d6174683a206469766973696f6e206279207a65726f60301b604482015290519081900360640190fd5b81838161168757fe5b049392505050565b6000828211156116e6576040805162461bcd60e51b815260206004820152601e60248201527f536166654d6174683a207375627472616374696f6e206f766572666c6f770000604482015290519081900360640190fd5b50900390565b604051632e1a7d4d60e01b81526001600160a01b03861690632e1a7d4d9061171890879060040161528d565b600060405180830381600087803b15801561173257600080fd5b505af1158015611746573d6000803e3d6000fd5b505050506000856001600160a01b0316631e50a4a66040518163ffffffff1660e01b815260040160206040518083038186803b15801561178557600080fd5b505afa158015611799573d6000803e3d6000fd5b505050506040513d601f19601f820116820180604052508101906117bd9190614c4d565b6001600160a01b031663e5406dbf6040518163ffffffff1660e01b815260040160006040518083038186803b1580156117f557600080fd5b505afa158015611809573d6000803e3d6000fd5b505050506040513d6000823e601f3d908101601f191682016040526118319190810190614f31565b9050600081516005026001600160401b038111801561184f57600080fd5b50604051908082528060200260200182016040528015611879578160200160208202803683370190505b5090506000876001600160a01b0316631e50a4a66040518163ffffffff1660e01b815260040160206040518083038186803b1580156118b757600080fd5b505afa1580156118cb573d6000803e3d6000fd5b505050506040513d601f19601f820116820180604052508101906118ef9190614c4d565b6001600160a01b0316639be918e685604001516040518263ffffffff1660e01b815260040161191e91906151a3565b60206040518083038186803b15801561193657600080fd5b505afa15801561194a573d6000803e3d6000fd5b505050506040513d601f19601f8201168201806040525081019061196e9190615044565b6119a2578360400151828260ff168151811061198657fe5b6001600160a01b03909216602092830291909101909101526001015b60005b8351811015611ed75760008482815181106119bc57fe5b602002602001015160000151905060008a6001600160a01b031663c45a01556040518163ffffffff1660e01b815260040160206040518083038186803b158015611a0557600080fd5b505afa158015611a19573d6000803e3d6000fd5b505050506040513d601f19601f82011682018060405250810190611a3d9190614c4d565b6001600160a01b031663032c49ed836040518263ffffffff1660e01b8152600401611a6891906151a3565b60206040518083038186803b158015611a8057600080fd5b505afa158015611a94573d6000803e3d6000fd5b505050506040513d601f19601f82011682018060405250810190611ab89190615089565b9050606061ffff82161580611ad157508161ffff166004145b15611ae957611ae2838d8c8b61273e565b9050611e74565b8161ffff1660011480611b0057508161ffff16600e145b15611b8157611ae2838b8e6001600160a01b031663c45a01556040518163ffffffff1660e01b815260040160206040518083038186803b158015611b4357600080fd5b505afa158015611b57573d6000803e3d6000fd5b505050506040513d601f19601f82011682018060405250810190611b7b9190614c4d565b8b6128e5565b8161ffff1660021480611b9857508161ffff166005145b15611ba657611ae283612f61565b8161ffff1660031480611bbd57508161ffff166008145b15611bc757611e74565b8161ffff1660061415611c5457611ae28c6001600160a01b0316631e50a4a66040518163ffffffff1660e01b815260040160206040518083038186803b158015611c1057600080fd5b505afa158015611c24573d6000803e3d6000fd5b505050506040513d601f19601f82011682018060405250810190611c489190614c4d565b848c8b60400151613235565b8161ffff1660071415611c6b57611ae28c846136f6565b8161ffff1660091415611c8157611ae28361394a565b8161ffff16600a1415611d0e57611ae28c6001600160a01b0316631e50a4a66040518163ffffffff1660e01b815260040160206040518083038186803b158015611cca57600080fd5b505afa158015611cde573d6000803e3d6000fd5b505050506040513d601f19601f82011682018060405250810190611d029190614c4d565b848c8b60400151613c4d565b8161ffff16600f1480611d2557508161ffff166014145b15611da657611ae28c6001600160a01b031663c45a01556040518163ffffffff1660e01b815260040160206040518083038186803b158015611d6657600080fd5b505afa158015611d7a573d6000803e3d6000fd5b505050506040513d601f19601f82011682018060405250810190611d9e9190614c4d565b846000613f8e565b8161ffff1660191415611e2f57611ae28c6001600160a01b031663c45a01556040518163ffffffff1660e01b815260040160206040518083038186803b158015611def57600080fd5b505afa158015611e03573d6000803e3d6000fd5b505050506040513d601f19601f82011682018060405250810190611e279190614c4d565b846001613f8e565b8161ffff1660651480611e4657508161ffff166066145b15611e5c57611ae28860200151604001516146e5565b60405162461bcd60e51b8152600401610b8c9061548b565b60005b8151811015611ec757818181518110611e8c57fe5b6020026020010151878760ff1681518110611ea357fe5b6001600160a01b039092166020928302919091019091015260019586019501611e77565b5050600190920191506119a59050565b508151600090611eea9060ff841661168f565b905080835103835260005b8351811015611f2857611f208660000151858381518110611f1257fe5b60200260200101518a61473a565b600101611ef5565b506040516370a0823160e01b81526000906001600160a01b038916906370a0823190611f589030906004016151a3565b60206040518083038186803b158015611f7057600080fd5b505afa158015611f84573d6000803e3d6000fd5b505050506040513d601f19601f82011682018060405250810190611fa89190615060565b905086811015611fca5760405162461bcd60e51b8152600401610b8c90615438565b6001600160a01b038b1630146120a05780156120625760405163a9059cbb60e01b81526001600160a01b0389169063a9059cbb9061200e908e908590600401615204565b602060405180830381600087803b15801561202857600080fd5b505af115801561203c573d6000803e3d6000fd5b505050506040513d601f19601f820116820180604052508101906120609190615044565b505b7f457f950b75085c30ff780acd57bde642ff1316cc4aad9f286af2c1ffc4163a788a8a8a846040516120979493929190615258565b60405180910390a15b5050505050505050505050565b6000806120ba8887611275565b90506000811180156120c95750825b156121565760655460405163a9059cbb60e01b81526001600160a01b038981169263a9059cbb9261210292909116908590600401615204565b602060405180830381600087803b15801561211c57600080fd5b505af1158015612130573d6000803e3d6000fd5b505050506040513d601f19601f820116820180604052508101906121549190615044565b505b846001600160a01b0316876001600160a01b03161461218657606a54612186906001600160a01b0316888761473a565b6040516370a0823160e01b81526001600160a01b0386169063095ea7b3908a9083906370a08231906121bc9030906004016151a3565b60206040518083038186803b1580156121d457600080fd5b505afa1580156121e8573d6000803e3d6000fd5b505050506040513d601f19601f8201168201806040525081019061220c9190615060565b6040518363ffffffff1660e01b8152600401612229929190615204565b602060405180830381600087803b15801561224357600080fd5b505af1158015612257573d6000803e3d6000fd5b505050506040513d601f19601f8201168201806040525081019061227b9190615044565b50821561238a57876001600160a01b031663de6eb1333387886001600160a01b03166370a08231306040518263ffffffff1660e01b81526004016122bf91906151a3565b60206040518083038186803b1580156122d757600080fd5b505afa1580156122eb573d6000803e3d6000fd5b505050506040513d601f19601f8201168201806040525081019061230f9190615060565b6103846040518563ffffffff1660e01b815260040161233194939291906151db565b602060405180830381600087803b15801561234b57600080fd5b505af115801561235f573d6000803e3d6000fd5b505050506040513d601f19601f820116820180604052508101906123839190615060565b915061248a565b876001600160a01b031663b3db428b3387886001600160a01b03166370a08231306040518263ffffffff1660e01b81526004016123c791906151a3565b60206040518083038186803b1580156123df57600080fd5b505afa1580156123f3573d6000803e3d6000fd5b505050506040513d601f19601f820116820180604052508101906124179190615060565b6040518463ffffffff1660e01b8152600401612435939291906151b7565b602060405180830381600087803b15801561244f57600080fd5b505af1158015612463573d6000803e3d6000fd5b505050506040513d601f19601f820116820180604052508101906124879190615060565b91505b838210156124aa5760405162461bcd60e51b8152600401610b8c90615416565b7f0f00328f1debfef06084747c5e5d692e0ef06a0ff8211cced82e15195191053f8833898989876040516124e39695949392919061521d565b60405180910390a1509695505050505050565b600061250130614962565b15905090565b600054610100900460ff168061252057506125206124f6565b8061252e575060005460ff16155b6125695760405162461bcd60e51b815260040180806020018281038252602e81526020018061565a602e913960400191505060405180910390fd5b600054610100900460ff16158015612594576000805460ff1961ff0019909116610100171660011790555b61259c614968565b6125a4614a08565b80156125b6576000805461ff00191690555b50565b6125c8308787876000866116ec565b80516125d590858561473a565b6040516370a0823160e01b81526000906001600160a01b038516906370a08231906126049030906004016151a3565b60206040518083038186803b15801561261c57600080fd5b505afa158015612630573d6000803e3d6000fd5b505050506040513d601f19601f820116820180604052508101906126549190615060565b9050828110156126765760405162461bcd60e51b8152600401610b8c90615438565b60405163a9059cbb60e01b81526001600160a01b0385169063a9059cbb906126a4908b908590600401615204565b602060405180830381600087803b1580156126be57600080fd5b505af11580156126d2573d6000803e3d6000fd5b505050506040513d601f19601f820116820180604052508101906126f69190615044565b507f457f950b75085c30ff780acd57bde642ff1316cc4aad9f286af2c1ffc4163a788787868460405161272c9493929190615258565b60405180910390a15050505050505050565b60606000856001600160a01b03166370a08231306040518263ffffffff1660e01b815260040161276e91906151a3565b60206040518083038186803b15801561278657600080fd5b505afa15801561279a573d6000803e3d6000fd5b505050506040513d601f19601f820116820180604052508101906127be9190615060565b905080156128dc57846001600160a01b031663c45a01556040518163ffffffff1660e01b815260040160206040518083038186803b1580156127ff57600080fd5b505afa158015612813573d6000803e3d6000fd5b505050506040513d601f19601f820116820180604052508101906128379190614c4d565b6001600160a01b0316635b16ebb7876040518263ffffffff1660e01b815260040161286291906151a3565b60206040518083038186803b15801561287a57600080fd5b505afa15801561288e573d6000803e3d6000fd5b505050506040513d601f19601f820116820180604052508101906128b29190615044565b1515600114156128d0576128cb308783876000886116ec565b6128dc565b6128d9866146e5565b91505b50949350505050565b60606000856001600160a01b03166370a08231306040518263ffffffff1660e01b815260040161291591906151a3565b60206040518083038186803b15801561292d57600080fd5b505afa158015612941573d6000803e3d6000fd5b505050506040513d601f19601f820116820180604052508101906129659190615060565b905080156128dc5760405163032c49ed60e01b81526000906001600160a01b0386169063032c49ed9061299c9089906004016151a3565b60206040518083038186803b1580156129b457600080fd5b505afa1580156129c8573d6000803e3d6000fd5b505050506040513d601f19601f820116820180604052508101906129ec9190615089565b61ffff1690508060011480612a01575080600e145b15612c7057856001600160a01b0316876001600160a01b031614612c6b578360200151600001516001600160a01b031663ee52a2f3886001600160a01b031663d4b839926040518163ffffffff1660e01b815260040160206040518083038186803b158015612a6f57600080fd5b505afa158015612a83573d6000803e3d6000fd5b505050506040513d601f19601f82011682018060405250810190612aa79190614c4d565b6001600160a01b031663dbd06c856040518163ffffffff1660e01b815260040160206040518083038186803b158015612adf57600080fd5b505afa158015612af3573d6000803e3d6000fd5b505050506040513d601f19601f82011682018060405250810190612b179190615060565b84896001600160a01b031663d4b839926040518163ffffffff1660e01b815260040160206040518083038186803b158015612b5157600080fd5b505afa158015612b65573d6000803e3d6000fd5b505050506040513d601f19601f82011682018060405250810190612b899190614c4d565b6001600160a01b031663dbd06c856040518163ffffffff1660e01b815260040160206040518083038186803b158015612bc157600080fd5b505afa158015612bd5573d6000803e3d6000fd5b505050506040513d601f19601f82011682018060405250810190612bf99190615060565b6040518463ffffffff1660e01b8152600401612c1793929190615354565b602060405180830381600087803b158015612c3157600080fd5b505af1158015612c45573d6000803e3d6000fd5b505050506040513d601f19601f82011682018060405250810190612c699190615060565b505b612f57565b866001600160a01b03168460200151604001516001600160a01b031614612ee5578360200151600001516001600160a01b031663ee52a2f3886001600160a01b031663d4b839926040518163ffffffff1660e01b815260040160206040518083038186803b158015612ce157600080fd5b505afa158015612cf5573d6000803e3d6000fd5b505050506040513d601f19601f82011682018060405250810190612d199190614c4d565b6001600160a01b031663dbd06c856040518163ffffffff1660e01b815260040160206040518083038186803b158015612d5157600080fd5b505afa158015612d65573d6000803e3d6000fd5b505050506040513d601f19601f82011682018060405250810190612d899190615060565b848760200151604001516001600160a01b031663d4b839926040518163ffffffff1660e01b815260040160206040518083038186803b158015612dcb57600080fd5b505afa158015612ddf573d6000803e3d6000fd5b505050506040513d601f19601f82011682018060405250810190612e039190614c4d565b6001600160a01b031663dbd06c856040518163ffffffff1660e01b815260040160206040518083038186803b158015612e3b57600080fd5b505afa158015612e4f573d6000803e3d6000fd5b505050506040513d601f19601f82011682018060405250810190612e739190615060565b6040518463ffffffff1660e01b8152600401612e9193929190615354565b602060405180830381600087803b158015612eab57600080fd5b505af1158015612ebf573d6000803e3d6000fd5b505050506040513d601f19601f82011682018060405250810190612ee39190615060565b505b83516020808601516040810151910151612f0092919061473a565b604080516001808252818301909252906020808301908036833701905050925083602001516020015183600081518110612f3657fe5b60200260200101906001600160a01b031690816001600160a01b0316815250505b5050949350505050565b60606000826001600160a01b03166370a08231306040518263ffffffff1660e01b815260040180826001600160a01b0316815260200191505060206040518083038186803b158015612fb257600080fd5b505afa158015612fc6573d6000803e3d6000fd5b505050506040513d6020811015612fdc57600080fd5b50519050801561322f576000836001600160a01b0316630dfe16816040518163ffffffff1660e01b815260040160206040518083038186803b15801561302157600080fd5b505afa158015613035573d6000803e3d6000fd5b505050506040513d602081101561304b57600080fd5b50516040805163d21220a760e01b815290519192506000916001600160a01b0387169163d21220a7916004808301926020929190829003018186803b15801561309357600080fd5b505afa1580156130a7573d6000803e3d6000fd5b505050506040513d60208110156130bd57600080fd5b50516040805163a9059cbb60e01b81526001600160a01b03881660048201819052602482018790529151929350909163a9059cbb916044808201926020929091908290030181600087803b15801561311457600080fd5b505af1158015613128573d6000803e3d6000fd5b505050506040513d602081101561313e57600080fd5b50506040805163226bf2d160e21b815230600482015281516001600160a01b038816926389afcb4492602480820193918290030181600087803b15801561318457600080fd5b505af1158015613198573d6000803e3d6000fd5b505050506040513d60408110156131ae57600080fd5b5050604080516002808252606082018352909160208301908036833701905050935081846000815181106131de57fe5b60200260200101906001600160a01b031690816001600160a01b031681525050808460018151811061320c57fe5b60200260200101906001600160a01b031690816001600160a01b03168152505050505b50919050565b60606000846001600160a01b03166370a08231306040518263ffffffff1660e01b815260040161326591906151a3565b60206040518083038186803b15801561327d57600080fd5b505afa158015613291573d6000803e3d6000fd5b505050506040513d601f19601f820116820180604052508101906132b59190615060565b905080156128dc576000856001600160a01b0316638d928af86040518163ffffffff1660e01b815260040160206040518083038186803b1580156132f857600080fd5b505afa15801561330c573d6000803e3d6000fd5b505050506040513d601f19601f820116820180604052508101906133309190614c4d565b90506000866001600160a01b03166338fff2d06040518163ffffffff1660e01b815260040160206040518083038186803b15801561336d57600080fd5b505afa158015613381573d6000803e3d6000fd5b505050506040513d601f19601f820116820180604052508101906133a59190615060565b90506000826001600160a01b031663f94d4668836040518263ffffffff1660e01b81526004016133d5919061528d565b60006040518083038186803b1580156133ed57600080fd5b505afa158015613401573d6000803e3d6000fd5b505050506040513d6000823e601f3d908101601f191682016040526134299190810190614e66565b505090506000613439828a614aef565b905060008080805b84518160ff16101561356957848160ff168151811061345c57fe5b60200260200101516001600160a01b03168c6001600160a01b0316141561348857806001019350613569565b848160ff168151811061349757fe5b60200260200101516001600160a01b03168b6001600160a01b031614156134c357806001019250613561565b8d6001600160a01b0316639be918e6868360ff16815181106134e157fe5b60200260200101516040518263ffffffff1660e01b815260040161350591906151a3565b60206040518083038186803b15801561351d57600080fd5b505afa158015613531573d6000803e3d6000fd5b505050506040513d601f19601f820116820180604052508101906135559190615044565b15613561578060010191505b600101613441565b50606060ff8416156135b0576000896001860360405160200161358e939291906153ce565b60408051601f198184030181526000835260208301909152909a50905061361b565b60ff8316156135d2576000896001850360405160200161358e939291906153ce565b60ff8216156135f257600089600060405160200161358e939291906153ce565b6001896040516020016136069291906153b3565b60405160208183030381529060405290508499505b876001600160a01b0316638bdb391388303060405180608001604052808c81526020018c516001600160401b038111801561365557600080fd5b5060405190808252806020026020018201604052801561367f578160200160208202803683370190505b508152602081018890526000604091820152516001600160e01b031960e087901b1681526136b39493929190600401615296565b600060405180830381600087803b1580156136cd57600080fd5b505af11580156136e1573d6000803e3d6000fd5b50505050505050505050505050949350505050565b60606000826001600160a01b03166370a08231856040518263ffffffff1660e01b815260040180826001600160a01b0316815260200191505060206040518083038186803b15801561374757600080fd5b505afa15801561375b573d6000803e3d6000fd5b505050506040513d602081101561377157600080fd5b50519050600281026001600160401b038111801561378e57600080fd5b506040519080825280602002602001820160405280156137b8578160200160208202803683370190505b50915060005b818110156115c1576000846001600160a01b0316632f745c5987846040518363ffffffff1660e01b815260040180836001600160a01b031681526020018281526020019250505060206040518083038186803b15801561381d57600080fd5b505afa158015613831573d6000803e3d6000fd5b505050506040513d602081101561384757600080fd5b50516040805163133f757160e31b815260048101839052905191925060009182916001600160a01b038916916399fbab889160248082019261018092909190829003018186803b15801561389a57600080fd5b505afa1580156138ae573d6000803e3d6000fd5b505050506040513d6101808110156138c557600080fd5b5060408101516060909101518751919350915082908790600287029081106138e957fe5b60200260200101906001600160a01b031690816001600160a01b0316815250508086856002026001018151811061391c57fe5b60200260200101906001600160a01b031690816001600160a01b0316815250505050508060010190506137be565b606060008290506000816001600160a01b0316632dc7d74c6040518163ffffffff1660e01b815260040160206040518083038186803b15801561398c57600080fd5b505afa1580156139a0573d6000803e3d6000fd5b505050506040513d60208110156139b657600080fd5b50516040805163963c94b960e01b815290519192506000916001600160a01b0385169163963c94b9916004808301926020929190829003018186803b1580156139fe57600080fd5b505afa158015613a12573d6000803e3d6000fd5b505050506040513d6020811015613a2857600080fd5b50519050600281016001600160401b0381118015613a4557600080fd5b50604051908082528060200260200182016040528015613a6f578160200160208202803683370190505b509350816001600160a01b0316630dfe16816040518163ffffffff1660e01b815260040160206040518083038186803b158015613aab57600080fd5b505afa158015613abf573d6000803e3d6000fd5b505050506040513d6020811015613ad557600080fd5b505184518590600090613ae457fe5b60200260200101906001600160a01b031690816001600160a01b031681525050816001600160a01b031663d21220a76040518163ffffffff1660e01b815260040160206040518083038186803b158015613b3d57600080fd5b505afa158015613b51573d6000803e3d6000fd5b505050506040513d6020811015613b6757600080fd5b5051845185906001908110613b7857fe5b60200260200101906001600160a01b031690816001600160a01b03168152505060005b81811015613c4457836001600160a01b03166354c49fe9826040518263ffffffff1660e01b81526004018082815260200191505060206040518083038186803b158015613be757600080fd5b505afa158015613bfb573d6000803e3d6000fd5b505050506040513d6020811015613c1157600080fd5b50518551869060028401908110613c2457fe5b6001600160a01b0390921660209283029190910190910152600101613b9b565b50505050919050565b60606000846001600160a01b03166382c630666040518163ffffffff1660e01b815260040160206040518083038186803b158015613c8a57600080fd5b505afa158015613c9e573d6000803e3d6000fd5b505050506040513d601f19601f82011682018060405250810190613cc29190614c4d565b90506060866001600160a01b0316639be918e6836040518263ffffffff1660e01b8152600401613cf291906151a3565b60206040518083038186803b158015613d0a57600080fd5b505afa158015613d1e573d6000803e3d6000fd5b505050506040513d601f19601f82011682018060405250810190613d429190615044565b613d5557613d5287838787613235565b90505b6000866001600160a01b031663bf88a6ff6040518163ffffffff1660e01b815260040160206040518083038186803b158015613d9057600080fd5b505afa158015613da4573d6000803e3d6000fd5b505050506040513d601f19601f82011682018060405250810190613dc89190614c4d565b6001600160a01b031663963c94b96040518163ffffffff1660e01b815260040160206040518083038186803b158015613e0057600080fd5b505afa158015613e14573d6000803e3d6000fd5b505050506040513d601f19601f82011682018060405250810190613e389190615060565b9050808251016001600160401b0381118015613e5357600080fd5b50604051908082528060200260200182016040528015613e7d578160200160208202803683370190505b50935060005b81811015613f33576040516354c49fe960e01b81526001600160a01b038916906354c49fe990613eb790849060040161528d565b60206040518083038186803b158015613ecf57600080fd5b505afa158015613ee3573d6000803e3d6000fd5b505050506040513d601f19601f82011682018060405250810190613f079190614c4d565b858281518110613f1357fe5b6001600160a01b0390921660209283029190910190910152600101613e83565b5060005b8251811015613f8257828181518110613f4c57fe5b60200260200101518582840181518110613f6257fe5b6001600160a01b0390921660209283029190910190910152600101613f37565b50505050949350505050565b60606000836001600160a01b03166370a08231306040518263ffffffff1660e01b815260040180826001600160a01b0316815260200191505060206040518083038186803b158015613fdf57600080fd5b505afa158015613ff3573d6000803e3d6000fd5b505050506040513d602081101561400957600080fd5b505190508015610e50576000846001600160a01b0316630dfe16816040518163ffffffff1660e01b815260040160206040518083038186803b15801561404e57600080fd5b505afa158015614062573d6000803e3d6000fd5b505050506040513d602081101561407857600080fd5b50516040805163d21220a760e01b815290519192506000916001600160a01b0388169163d21220a7916004808301926020929190829003018186803b1580156140c057600080fd5b505afa1580156140d4573d6000803e3d6000fd5b505050506040513d60208110156140ea57600080fd5b50516040805163a9059cbb60e01b81526001600160a01b03891660048201819052602482018790529151929350909163a9059cbb916044808201926020929091908290030181600087803b15801561414157600080fd5b505af1158015614155573d6000803e3d6000fd5b505050506040513d602081101561416b57600080fd5b50506040805163226bf2d160e21b815230600482015281516001600160a01b038916926389afcb4492602480820193918290030181600087803b1580156141b157600080fd5b505af11580156141c5573d6000803e3d6000fd5b505050506040513d60408110156141db57600080fd5b505060408051633f30232f60e21b81526001600160a01b03888116600483015291516000928a169163fcc08cbc916024808301926020929190829003018186803b15801561422857600080fd5b505afa15801561423c573d6000803e3d6000fd5b505050506040513d602081101561425257600080fd5b5051604080516311b25aab60e21b815290516001600160a01b03909216916346c96aac91600480820192602092909190829003018186803b15801561429657600080fd5b505afa1580156142aa573d6000803e3d6000fd5b505050506040513d60208110156142c057600080fd5b50516040805163b9a09fd560e01b81526001600160a01b038a811660048301529151919092169163b9a09fd5916024808301926020929190829003018186803b15801561430c57600080fd5b505afa158015614320573d6000803e3d6000fd5b505050506040513d602081101561433657600080fd5b5051905060006001600160a01b038216156143c057866143ba57816001600160a01b031663e68863966040518163ffffffff1660e01b815260040160206040518083038186803b15801561438957600080fd5b505afa15801561439d573d6000803e3d6000fd5b505050506040513d60208110156143b357600080fd5b50516143bd565b60015b90505b806002016001600160401b03811180156143d957600080fd5b50604051908082528060200260200182016040528015614403578160200160208202803683370190505b50955060008487828151811061441557fe5b60200260200101906001600160a01b031690816001600160a01b03168152505080806001019150508387828151811061444a57fe5b6001600160a01b0392831660209182029290920101526001909101908316156146d857871561458d576000836001600160a01b031663f7c618c16040518163ffffffff1660e01b815260040160206040518083038186803b1580156144ae57600080fd5b505afa1580156144c2573d6000803e3d6000fd5b505050506040513d60208110156144d857600080fd5b5051604080516370a0823160e01b815230600482015290519192506000916001600160a01b038416916370a08231916024808301926020929190829003018186803b15801561452657600080fd5b505afa15801561453a573d6000803e3d6000fd5b505050506040513d602081101561455057600080fd5b505190508015614586578189848151811061456757fe5b6001600160a01b03909216602092830291909101909101526001909201915b50506146c2565b60005b828110156146c0576000846001600160a01b031663f301af42836040518263ffffffff1660e01b81526004018082815260200191505060206040518083038186803b1580156145de57600080fd5b505afa1580156145f2573d6000803e3d6000fd5b505050506040513d602081101561460857600080fd5b5051604080516370a0823160e01b815230600482015290519192506000916001600160a01b038416916370a08231916024808301926020929190829003018186803b15801561465657600080fd5b505afa15801561466a573d6000803e3d6000fd5b505050506040513d602081101561468057600080fd5b5051905080156146b657818a858151811061469757fe5b6001600160a01b03909216602092830291909101909101526001909301925b5050600101614590565b505b86516000906146d1908361168f565b8851038852505b5050505050509392505050565b60408051600180825281830190925260609160208083019080368337019050509050818160008151811061471557fe5b60200260200101906001600160a01b031690816001600160a01b031681525050919050565b806001600160a01b0316826001600160a01b0316141561475957611057565b6040516370a0823160e01b81526000906001600160a01b038416906370a08231906147889030906004016151a3565b60206040518083038186803b1580156147a057600080fd5b505afa1580156147b4573d6000803e3d6000fd5b505050506040513d601f19601f820116820180604052508101906147d89190615060565b905080156104285760405163095ea7b360e01b81526001600160a01b0384169063095ea7b39061480e9087908590600401615204565b602060405180830381600087803b15801561482857600080fd5b505af115801561483c573d6000803e3d6000fd5b505050506040513d601f19601f820116820180604052508101906148609190615044565b50604080516002808252606082018352600092602083019080368337019050509050838160008151811061489057fe5b60200260200101906001600160a01b031690816001600160a01b03168152505082816001815181106148be57fe5b6001600160a01b0392831660209182029290920101526040516338ed173960e01b8152908616906338ed17399061490490859060009086903090600019906004016154d3565b600060405180830381600087803b15801561491e57600080fd5b505af1158015614932573d6000803e3d6000fd5b505050506040513d6000823e601f3d908101601f1916820160405261495a919081019061500a565b505050505050565b3b151590565b600054610100900460ff168061498157506149816124f6565b8061498f575060005460ff16155b6149ca5760405162461bcd60e51b815260040180806020018281038252602e81526020018061565a602e913960400191505060405180910390fd5b600054610100900460ff161580156125a4576000805460ff1961ff00199091166101001716600117905580156125b6576000805461ff001916905550565b600054610100900460ff1680614a215750614a216124f6565b80614a2f575060005460ff16155b614a6a5760405162461bcd60e51b815260040180806020018281038252602e81526020018061565a602e913960400191505060405180910390fd5b600054610100900460ff16158015614a95576000805460ff1961ff0019909116610100171660011790555b6000614a9f611271565b603380546001600160a01b0319166001600160a01b038316908117909155604051919250906000906000805160206156c9833981519152908290a35080156125b6576000805461ff001916905550565b606082516001600160401b0381118015614b0857600080fd5b50604051908082528060200260200182016040528015614b32578160200160208202803683370190505b5090506000805b8451811015614bb557836001600160a01b0316858281518110614b5857fe5b60200260200101516001600160a01b031614614bad57848181518110614b7a57fe5b6020026020010151838381518110614b8e57fe5b6001600160a01b03909216602092830291909101909101526001909101905b600101614b39565b5081519081039003815292915050565b600082601f830112614bd5578081fd5b81516020614bea614be583615532565b61550f565b8281528181019085830183850287018401881015614c06578586fd5b855b85811015614c2457815184529284019290840190600101614c08565b5090979650505050505050565b600060208284031215614c42578081fd5b813561162281615610565b600060208284031215614c5e578081fd5b815161162281615610565b600080600060608486031215614c7d578182fd5b8335614c8881615610565b95602085013595506040909401359392505050565b60008060408385031215614caf578182fd5b8235614cba81615610565b91506020830135614cca81615625565b809150509250929050565b600080600060608486031215614ce9578283fd5b8335614cf481615610565b92506020840135614d0481615610565b929592945050506040919091013590565b600080600080600060a08688031215614d2c578283fd5b8535614d3781615610565b94506020860135614d4781615610565b9350604086013592506060860135614d5e81615610565b91506080860135614d6e81615625565b809150509295509295909350565b600080600080600060a08688031215614d93578283fd5b8535614d9e81615610565b94506020860135614dae81615610565b9350604086013592506060860135614dc581615610565b949793965091946080013592915050565b600080600080600060a08688031215614ded578283fd5b8535614df881615610565b9450602086013593506040860135614e0f81615610565b92506060860135614dc581615610565b60008060008060808587031215614e34578182fd5b8435614e3f81615610565b9350602085013592506040850135614e5681615610565b9396929550929360600135925050565b600080600060608486031215614e7a578081fd5b83516001600160401b0380821115614e90578283fd5b818601915086601f830112614ea3578283fd5b81516020614eb3614be583615532565b82815281810190858301838502870184018c1015614ecf578788fd5b8796505b84871015614efa578051614ee681615610565b835260019690960195918301918301614ed3565b5091890151919750909350505080821115614f13578283fd5b50614f2086828701614bc5565b925050604084015190509250925092565b60006020808385031215614f43578182fd5b82516001600160401b0380821115614f59578384fd5b818501915085601f830112614f6c578384fd5b8151614f7a614be582615532565b818152848101908486016040808502870188018b1015614f98578889fd5b8896505b84871015614ffb5780828c031215614fb2578889fd5b80518181018181108882111715614fc557fe5b82528251614fd281615610565b815282890151614fe181615625565b818a01528452600196909601959287019290810190614f9c565b50909998505050505050505050565b60006020828403121561501b578081fd5b81516001600160401b03811115615030578182fd5b61503c84828501614bc5565b949350505050565b600060208284031215615055578081fd5b815161162281615625565b600060208284031215615071578081fd5b5051919050565b600060c0828403121561322f578081fd5b60006020828403121561509a578081fd5b815161ffff81168114611622578182fd5b600080604083850312156150bd578182fd5b50508035926020909101359150565b600080600080608085870312156150e1578182fd5b505082516020840151604085015160609095015191969095509092509050565b6000815180845260208085019450808401835b838110156151395781516001600160a01b031687529582019590820190600101615114565b509495945050505050565b15159052565b60008151808452815b8181101561516f57602081850181015186830182015201615153565b818111156151805782602083870101525b50601f01601f19169290920160200192915050565b6003811061519f57fe5b9052565b6001600160a01b0391909116815260200190565b6001600160a01b039384168152919092166020820152604081019190915260600190565b6001600160a01b0394851681529290931660208301526040820152606081019190915260800190565b6001600160a01b03929092168252602082015260400190565b6001600160a01b039687168152948616602086015292851660408501526060840191909152909216608082015260a081019190915260c00190565b6001600160a01b039485168152602081019390935292166040820152606081019190915260800190565b901515815260200190565b90815260200190565b6000858252602060018060a01b03808716828501528086166040850152506080606084015283516080808501526152d1610100850182615101565b82860151607f19868303810160a08801528151808452918501935085929091908501905b8084101561531557845182529385019360019390930192908501906152f5565b5060408801519450818782030160c0880152615331818661514a565b945050505050606084015161534960e0850182615144565b509695505050505050565b9283526020830191909152604082015260600190565b6001600160a01b0394851681528351851660208083019190915284015185166040808301919091529093015184166060840152908316608083015290911660a082015260c00190565b604081016153c18285615195565b8260208301529392505050565b606081016153dc8286615195565b83602083015260ff83166040830152949350505050565b6020808252600990820152683736b91e1eb23736b960b91b604082015260600190565b602080825260089082015267736c69707061676560c01b604082015260600190565b6020808252601a908201527915da5d1a191c985dc814db1a5c1c1859d94819195d1958dd195960321b604082015260600190565b6020808252600590820152646e6f2d676f60d81b604082015260600190565b602080825260159082015274185cdcd95d151e5c19481b9bdd081a185b991b1959605a1b604082015260600190565b60008382526040602083015261503c6040830184615101565b600086825285602083015260a060408301526154f260a0830186615101565b6001600160a01b0394909416606083015250608001529392505050565b6040518181016001600160401b038111828210171561552a57fe5b604052919050565b60006001600160401b0382111561554557fe5b5060209081020190565b80546001600160a01b0319166001600160a01b0392909216919091179055565b813561557a81615610565b615584818361554f565b50602082013561559381615610565b6155a0816001840161554f565b5060408201356155af81615610565b6155bc816002840161554f565b5060608201356155cb81615610565b6155d8816003840161554f565b5060808201356155e781615610565b6155f4816004840161554f565b5060a082013561560381615610565b611057816005840161554f565b6001600160a01b03811681146125b657600080fd5b80151581146125b657600080fdfe4f776e61626c653a206e6577206f776e657220697320746865207a65726f2061646472657373496e697469616c697a61626c653a20636f6e747261637420697320616c726561647920696e697469616c697a6564536166654d6174683a206d756c7469706c69636174696f6e206f766572666c6f774f776e61626c653a2063616c6c6572206973206e6f7420746865206f776e65728be0079c531659141344cd1fd0a4f28419497f9722a3daafe3b4186f6b6457e0a2646970667358221220d1c414d334cd2b44afa25eb4515effb3a4a87a5bfb0ba7fbd4e59973183b625164736f6c63430007060033",
  "linkReferences": {},
  "deployedLinkReferences": {}
}