{
  "_format": "hh-sol-artifact-1",
  "contractName": "VelodromeV2TWAPAggregator",
  "sourceName": "contracts/priceAggregators/VelodromeV2TWAPAggregator.sol",
  "abi": [
    {
      "inputs": [
        {
          "internalType": "address",
          "name": "_pair",
          "type": "address"
        },
        {
          "internalType": "address",
          "name": "_mainToken",
          "type": "address"
        },
        {
          "internalType": "address",
          "name": "_pairToken",
          "type": "address"
        },
        {
          "internalType": "contract IAggregatorV3Interface",
          "name": "_pairTokenUsdAggregator",
          "type": "address"
        }
      ],
      "stateMutability": "nonpayable",
      "type": "constructor"
    },
    {
      "inputs": [],
      "name": "decimals",
      "outputs": [
        {
          "internalType": "uint8",
          "name": "",
          "type": "uint8"
        }
      ],
      "stateMutability": "pure",
      "type": "function"
    },
    {
      "inputs": [],
      "name": "latestRoundData",
      "outputs": [
        {
          "internalType": "uint80",
          "name": "",
          "type": "uint80"
        },
        {
          "internalType": "int256",
          "name": "",
          "type": "int256"
        },
        {
          "internalType": "uint256",
          "name": "",
          "type": "uint256"
        },
        {
          "internalType": "uint256",
          "name": "",
          "type": "uint256"
        },
        {
          "internalType": "uint80",
          "name": "",
          "type": "uint80"
        }
      ],
      "stateMutability": "view",
      "type": "function"
    },
    {
      "inputs": [],
      "name": "mainToken",
      "outputs": [
        {
          "internalType": "address",
          "name": "",
          "type": "address"
        }
      ],
      "stateMutability": "view",
      "type": "function"
    },
    {
      "inputs": [],
      "name": "mainTokenUnit",
      "outputs": [
        {
          "internalType": "uint256",
          "name": "",
          "type": "uint256"
        }
      ],
      "stateMutability": "view",
      "type": "function"
    },
    {
      "inputs": [],
      "name": "pair",
      "outputs": [
        {
          "internalType": "address",
          "name": "",
          "type": "address"
        }
      ],
      "stateMutability": "view",
      "type": "function"
    },
    {
      "inputs": [],
      "name": "pairToken",
      "outputs": [
        {
          "internalType": "address",
          "name": "",
          "type": "address"
        }
      ],
      "stateMutability": "view",
      "type": "function"
    },
    {
      "inputs": [],
      "name": "pairTokenUnit",
      "outputs": [
        {
          "internalType": "uint256",
          "name": "",
          "type": "uint256"
        }
      ],
      "stateMutability": "view",
      "type": "function"
    },
    {
      "inputs": [],
      "name": "pairTokenUsdAggregator",
      "outputs": [
        {
          "internalType": "contract IAggregatorV3Interface",
          "name": "",
          "type": "address"
        }
      ],
      "stateMutability": "view",
      "type": "function"
    }
  ],
  "bytecode": "0x61012060405234801561001157600080fd5b5060405161088e38038061088e8339818101604052608081101561003457600080fd5b50805160208201516040830151606090930151919290916001600160a01b0384166100a6576040805162461bcd60e51b815260206004820152601960248201527f5f7061697220616464726573732063616e6e6f74206265203000000000000000604482015290519081900360640190fd5b6000846001600160a01b0316630dfe16816040518163ffffffff1660e01b815260040160206040518083038186803b1580156100e157600080fd5b505afa1580156100f5573d6000803e3d6000fd5b505050506040513d602081101561010b57600080fd5b50516040805163d21220a760e01b815290519192506000916001600160a01b0388169163d21220a7916004808301926020929190829003018186803b15801561015357600080fd5b505afa158015610167573d6000803e3d6000fd5b505050506040513d602081101561017d57600080fd5b505190506001600160a01b038581169083161480156101ad5750806001600160a01b0316846001600160a01b0316145b806101e55750806001600160a01b0316856001600160a01b03161480156101e55750816001600160a01b0316846001600160a01b0316145b610227576040805162461bcd60e51b815260206004820152600e60248201526d696e76616c696420746f6b656e7360901b604482015290519081900360640190fd5b600080546001600160a01b038089166001600160a01b0319909216919091179091556001600160601b0319606087811b821660805286901b1660a0526040805163313ce56760e01b815290519187169163313ce56791600480820192602092909190829003018186803b15801561029d57600080fd5b505afa1580156102b1573d6000803e3d6000fd5b505050506040513d60208110156102c757600080fd5b505160ff16600a0a60c0526040805163313ce56760e01b815290516001600160a01b0386169163313ce567916004808301926020929190829003018186803b15801561031257600080fd5b505afa158015610326573d6000803e3d6000fd5b505050506040513d602081101561033c57600080fd5b505160ff16600a0a60e05250506001600160601b031960609190911b166101005250505060805160601c60a05160601c60c05160e0516101005160601c6104d26103bc6000398061019452806102185250806101c752806103705250806101eb52806102e452508061014c52508061017052806102bc52506104d26000f3fe608060405234801561001057600080fd5b50600436106100785760003560e01c8063313ce5671461007d5780633de35b791461009b5780633fc15f15146100bf5780637e539a41146100c7578063a8aa1b31146100cf578063b6dc36c7146100d7578063c58647c3146100f1578063feaf968c146100f9575b600080fd5b610085610145565b6040805160ff9092168252519081900360200190f35b6100a361014a565b604080516001600160a01b039092168252519081900360200190f35b6100a361016e565b6100a3610192565b6100a36101b6565b6100df6101c5565b60408051918252519081900360200190f35b6100df6101e9565b61010161020d565b60405180866001600160501b03168152602001858152602001848152602001838152602001826001600160501b031681526020019550505050505060405180910390f35b600890565b7f000000000000000000000000000000000000000000000000000000000000000081565b7f000000000000000000000000000000000000000000000000000000000000000081565b7f000000000000000000000000000000000000000000000000000000000000000081565b6000546001600160a01b031681565b7f000000000000000000000000000000000000000000000000000000000000000081565b7f000000000000000000000000000000000000000000000000000000000000000081565b6000806000806000807f00000000000000000000000000000000000000000000000000000000000000006001600160a01b031663feaf968c6040518163ffffffff1660e01b815260040160a06040518083038186803b15801561026f57600080fd5b505afa158015610283573d6000803e3d6000fd5b505050506040513d60a081101561029957600080fd5b506020908101516000805460408051639e8cc04b60e01b81526001600160a01b037f0000000000000000000000000000000000000000000000000000000000000000811660048301527f000000000000000000000000000000000000000000000000000000000000000060248301526001604483015291519496509294911692639e8cc04b926064808201939291829003018186803b15801561033b57600080fd5b505afa15801561034f573d6000803e3d6000fd5b505050506040513d602081101561036557600080fd5b50519050600061039f7f000000000000000000000000000000000000000000000000000000000000000061039985856103b5565b90610417565b6000999098508997504296508795509350505050565b6000826103c457506000610411565b828202828482816103d157fe5b041461040e5760405162461bcd60e51b815260040180806020018281038252602181526020018061047c6021913960400191505060405180910390fd5b90505b92915050565b600080821161046a576040805162461bcd60e51b815260206004820152601a602482015279536166654d6174683a206469766973696f6e206279207a65726f60301b604482015290519081900360640190fd5b81838161047357fe5b04939250505056fe536166654d6174683a206d756c7469706c69636174696f6e206f766572666c6f77a26469706673582212202fe16a53cfa241ff4643e740a98b3fdf9e0a89767b333e8d65f28d6bbb812d4364736f6c63430007060033",
  "linkReferences": {},
  "deployedLinkReferences": {}
}