{
  "_format": "hh-sol-artifact-1",
  "contractName": "Managed",
  "sourceName": "contracts/Managed.sol",
  "abi": [
    {
      "anonymous": false,
      "inputs": [
        {
          "indexed": false,
          "internalType": "address",
          "name": "newManager",
          "type": "address"
        },
        {
          "indexed": false,
          "internalType": "string",
          "name": "newManagerName",
          "type": "string"
        }
      ],
      "name": "ManagerUpdated",
      "type": "event"
    },
    {
      "inputs": [
        {
          "internalType": "address",
          "name": "member",
          "type": "address"
        }
      ],
      "name": "addMember",
      "outputs": [],
      "stateMutability": "nonpayable",
      "type": "function"
    },
    {
      "inputs": [
        {
          "internalType": "address[]",
          "name": "members",
          "type": "address[]"
        }
      ],
      "name": "addMembers",
      "outputs": [],
      "stateMutability": "nonpayable",
      "type": "function"
    },
    {
      "inputs": [
        {
          "internalType": "address",
          "name": "newManager",
          "type": "address"
        },
        {
          "internalType": "string",
          "name": "newManagerName",
          "type": "string"
        }
      ],
      "name": "changeManager",
      "outputs": [],
      "stateMutability": "nonpayable",
      "type": "function"
    },
    {
      "inputs": [],
      "name": "getMembers",
      "outputs": [
        {
          "internalType": "address[]",
          "name": "members",
          "type": "address[]"
        }
      ],
      "stateMutability": "view",
      "type": "function"
    },
    {
      "inputs": [],
      "name": "manager",
      "outputs": [
        {
          "internalType": "address",
          "name": "",
          "type": "address"
        }
      ],
      "stateMutability": "view",
      "type": "function"
    },
    {
      "inputs": [],
      "name": "managerName",
      "outputs": [
        {
          "internalType": "string",
          "name": "",
          "type": "string"
        }
      ],
      "stateMutability": "view",
      "type": "function"
    },
    {
      "inputs": [],
      "name": "numberOfMembers",
      "outputs": [
        {
          "internalType": "uint256",
          "name": "_numberOfMembers",
          "type": "uint256"
        }
      ],
      "stateMutability": "view",
      "type": "function"
    },
    {
      "inputs": [
        {
          "internalType": "address",
          "name": "member",
          "type": "address"
        }
      ],
      "name": "removeMember",
      "outputs": [],
      "stateMutability": "nonpayable",
      "type": "function"
    },
    {
      "inputs": [
        {
          "internalType": "address[]",
          "name": "members",
          "type": "address[]"
        }
      ],
      "name": "removeMembers",
      "outputs": [],
      "stateMutability": "nonpayable",
      "type": "function"
    },
    {
      "inputs": [],
      "name": "removeTrader",
      "outputs": [],
      "stateMutability": "nonpayable",
      "type": "function"
    },
    {
      "inputs": [
        {
          "internalType": "address",
          "name": "newTrader",
          "type": "address"
        }
      ],
      "name": "setTrader",
      "outputs": [],
      "stateMutability": "nonpayable",
      "type": "function"
    },
    {
      "inputs": [],
      "name": "trader",
      "outputs": [
        {
          "internalType": "address",
          "name": "",
          "type": "address"
        }
      ],
      "stateMutability": "view",
      "type": "function"
    }
  ],
  "bytecode": "0x608060405234801561001057600080fd5b50610cf6806100206000396000f3fe608060405234801561001057600080fd5b50600436106100a45760003560e01c80630b1ca49a146100a95780631758078b146100d157806346ee84b0146100f5578063481c6a7514610196578063522136631461019e5780636f4d469b146102525780637c8afd51146102f35780639eab5253146102fb578063a30e3fa914610353578063a6bc18f91461036d578063ca6d56dc14610393578063fed4416a146103b9575b600080fd5b6100cf600480360360208110156100bf57600080fd5b50356001600160a01b0316610436565b005b6100d96104a2565b604080516001600160a01b039092168252519081900360200190f35b6100cf6004803603602081101561010b57600080fd5b810190602081018135600160201b81111561012557600080fd5b82018360208201111561013757600080fd5b803590602001918460208302840111600160201b8311171561015857600080fd5b9190808060200260200160405190810160405280939291908181526020018383602002808284376000920191909152509295506104b1945050505050565b6100d9610558565b6100cf600480360360408110156101b457600080fd5b6001600160a01b038235169190810190604081016020820135600160201b8111156101de57600080fd5b8201836020820111156101f057600080fd5b803590602001918460018302840111600160201b8311171561021157600080fd5b91908080601f016020809104026020016040519081016040528093929190818152602001838380828437600092019190915250929550610567945050505050565b6100cf6004803603602081101561026857600080fd5b810190602081018135600160201b81111561028257600080fd5b82018360208201111561029457600080fd5b803590602001918460208302840111600160201b831117156102b557600080fd5b9190808060200260200160405190810160405280939291908181526020018383602002808284376000920191909152509295506106df945050505050565b6100cf610776565b6103036107d6565b60408051602080825283518183015283519192839290830191858101910280838360005b8381101561033f578181015183820152602001610327565b505050509050019250505060405180910390f35b61035b610838565b60408051918252519081900360200190f35b6100cf6004803603602081101561038357600080fd5b50356001600160a01b031661083e565b6100cf600480360360208110156103a957600080fd5b50356001600160a01b03166108fa565b6103c1610964565b6040805160208082528351818301528351919283929083019185019080838360005b838110156103fb5781810151838201526020016103e3565b50505050905090810190601f1680156104285780820380516001836020036101000a031916815260200191505b509250505060405180910390f35b6000546001600160a01b03163314610484576040805162461bcd60e51b815260206004820152600c60248201526b37b7363c9036b0b730b3b2b960a11b604482015290519081900360640190fd5b61048d816109f1565b6104965761049f565b61049f81610a0e565b50565b6004546001600160a01b031681565b6000546001600160a01b031633146104ff576040805162461bcd60e51b815260206004820152600c60248201526b37b7363c9036b0b730b3b2b960a11b604482015290519081900360640190fd5b60005b81518110156105545761052782828151811061051a57fe5b60200260200101516109f1565b6105305761054c565b61054c82828151811061053f57fe5b6020026020010151610a0e565b600101610502565b5050565b6000546001600160a01b031681565b6000546001600160a01b031633146105b5576040805162461bcd60e51b815260206004820152600c60248201526b37b7363c9036b0b730b3b2b960a11b604482015290519081900360640190fd5b6001600160a01b038216610602576040805162461bcd60e51b815260206004820152600f60248201526e24b73b30b634b21036b0b730b3b2b960891b604482015290519081900360640190fd5b600080546001600160a01b0319166001600160a01b0384161790558051610630906001906020840190610c1f565b507f6ed15082ad038474841528b5badca105106d4463e44b5d434130dfb299aa3669828260405180836001600160a01b0316815260200180602001828103825283818151815260200191508051906020019080838360005b838110156106a0578181015183820152602001610688565b50505050905090810190601f1680156106cd5780820380516001836020036101000a031916815260200191505b50935050505060405180910390a15050565b6000546001600160a01b0316331461072d576040805162461bcd60e51b815260206004820152600c60248201526b37b7363c9036b0b730b3b2b960a11b604482015290519081900360640190fd5b60005b81518110156105545761074882828151811061051a57fe5b156107525761076e565b61076e82828151811061076157fe5b6020026020010151610b07565b600101610730565b6000546001600160a01b031633146107c4576040805162461bcd60e51b815260206004820152600c60248201526b37b7363c9036b0b730b3b2b960a11b604482015290519081900360640190fd5b600480546001600160a01b0319169055565b6060600280548060200260200160405190810160405280929190818152602001828054801561082e57602002820191906000526020600020905b81546001600160a01b03168152600190910190602001808311610810575b5050505050905090565b60025490565b6000546001600160a01b0316331461088c576040805162461bcd60e51b815260206004820152600c60248201526b37b7363c9036b0b730b3b2b960a11b604482015290519081900360640190fd5b6001600160a01b0381166108d8576040805162461bcd60e51b815260206004820152600e60248201526d24b73b30b634b2103a3930b232b960911b604482015290519081900360640190fd5b600480546001600160a01b0319166001600160a01b0392909216919091179055565b6000546001600160a01b03163314610948576040805162461bcd60e51b815260206004820152600c60248201526b37b7363c9036b0b730b3b2b960a11b604482015290519081900360640190fd5b610951816109f1565b1561095b5761049f565b61049f81610b07565b60018054604080516020600284861615610100026000190190941693909304601f810184900484028201840190925281815292918301828280156109e95780601f106109be576101008083540402835291602001916109e9565b820191906000526020600020905b8154815290600101906020018083116109cc57829003601f168201915b505050505081565b6001600160a01b0316600090815260036020526040902054151590565b6002546001600160a01b038216600090815260036020526040812054610a35906001610b63565b905060006002610a46846001610b63565b81548110610a5057fe5b600091825260209091200154600280546001600160a01b039092169250829184908110610a7957fe5b600091825260209091200180546001600160a01b0319166001600160a01b0392909216919091179055610aad826001610bc0565b6001600160a01b03808316600090815260036020526040808220939093559086168152908120556002805480610adf57fe5b600082815260209020810160001990810180546001600160a01b031916905501905550505050565b600280546001810182557f405787fa12a823e0f2b7631cc41b3ba8828b3321ca811111fa75cd3aa3bb5ace0180546001600160a01b039093166001600160a01b0319909316831790555460009182526003602052604090912055565b600082821115610bba576040805162461bcd60e51b815260206004820152601e60248201527f536166654d6174683a207375627472616374696f6e206f766572666c6f770000604482015290519081900360640190fd5b50900390565b600082820183811015610c18576040805162461bcd60e51b815260206004820152601b60248201527a536166654d6174683a206164646974696f6e206f766572666c6f7760281b604482015290519081900360640190fd5b9392505050565b828054600181600116156101000203166002900490600052602060002090601f016020900481019282610c555760008555610c9b565b82601f10610c6e57805160ff1916838001178555610c9b565b82800160010185558215610c9b579182015b82811115610c9b578251825591602001919060010190610c80565b50610ca7929150610cab565b5090565b5b80821115610ca75760008155600101610cac56fea26469706673582212208db3005d3a8e5830357762e080bb19245c76950e6a6f230cda918ddd749ef16964736f6c63430007060033",
  "linkReferences": {},
  "deployedLinkReferences": {}
}