{
  "_format": "hh-sol-artifact-1",
  "contractName": "LyraOptionMarketContractGuard",
  "sourceName": "contracts/guards/contractGuards/LyraOptionMarketContractGuard.sol",
  "abi": [
    {
      "inputs": [
        {
          "internalType": "contract ILyraRegistry",
          "name": "_lyraRegistry",
          "type": "address"
        },
        {
          "internalType": "address",
          "name": "_nftTracker",
          "type": "address"
        },
        {
          "internalType": "uint256",
          "name": "_maxPositionCount",
          "type": "uint256"
        }
      ],
      "stateMutability": "nonpayable",
      "type": "constructor"
    },
    {
      "anonymous": false,
      "inputs": [
        {
          "indexed": false,
          "internalType": "address",
          "name": "fundAddress",
          "type": "address"
        },
        {
          "indexed": false,
          "internalType": "address",
          "name": "sourceAsset",
          "type": "address"
        },
        {
          "indexed": false,
          "internalType": "uint256",
          "name": "sourceAmount",
          "type": "uint256"
        },
        {
          "indexed": false,
          "internalType": "address",
          "name": "dstAsset",
          "type": "address"
        },
        {
          "indexed": false,
          "internalType": "uint256",
          "name": "time",
          "type": "uint256"
        }
      ],
      "name": "ExchangeFrom",
      "type": "event"
    },
    {
      "anonymous": false,
      "inputs": [
        {
          "indexed": false,
          "internalType": "address",
          "name": "fundAddress",
          "type": "address"
        },
        {
          "indexed": false,
          "internalType": "address",
          "name": "sourceAsset",
          "type": "address"
        },
        {
          "indexed": false,
          "internalType": "address",
          "name": "dstAsset",
          "type": "address"
        },
        {
          "indexed": false,
          "internalType": "uint256",
          "name": "dstAmount",
          "type": "uint256"
        },
        {
          "indexed": false,
          "internalType": "uint256",
          "name": "time",
          "type": "uint256"
        }
      ],
      "name": "ExchangeTo",
      "type": "event"
    },
    {
      "anonymous": false,
      "inputs": [
        {
          "indexed": false,
          "internalType": "address",
          "name": "fundAddress",
          "type": "address"
        },
        {
          "indexed": false,
          "internalType": "address",
          "name": "optionsMarket",
          "type": "address"
        }
      ],
      "name": "LyraOptionsMarketEvent",
      "type": "event"
    },
    {
      "inputs": [],
      "name": "MARKET_VIEWER",
      "outputs": [
        {
          "internalType": "bytes32",
          "name": "",
          "type": "bytes32"
        }
      ],
      "stateMutability": "view",
      "type": "function"
    },
    {
      "inputs": [],
      "name": "MARKET_WRAPPER",
      "outputs": [
        {
          "internalType": "bytes32",
          "name": "",
          "type": "bytes32"
        }
      ],
      "stateMutability": "view",
      "type": "function"
    },
    {
      "inputs": [],
      "name": "NFT_TYPE",
      "outputs": [
        {
          "internalType": "bytes32",
          "name": "",
          "type": "bytes32"
        }
      ],
      "stateMutability": "view",
      "type": "function"
    },
    {
      "inputs": [],
      "name": "SYNTHETIX_ADAPTER",
      "outputs": [
        {
          "internalType": "bytes32",
          "name": "",
          "type": "bytes32"
        }
      ],
      "stateMutability": "view",
      "type": "function"
    },
    {
      "inputs": [
        {
          "internalType": "address",
          "name": "_poolManagerLogic",
          "type": "address"
        },
        {
          "internalType": "address",
          "name": "to",
          "type": "address"
        },
        {
          "internalType": "bytes",
          "name": "data",
          "type": "bytes"
        }
      ],
      "name": "afterTxGuard",
      "outputs": [],
      "stateMutability": "nonpayable",
      "type": "function"
    },
    {
      "inputs": [
        {
          "internalType": "bytes32",
          "name": "data",
          "type": "bytes32"
        }
      ],
      "name": "convert32toAddress",
      "outputs": [
        {
          "internalType": "address",
          "name": "o",
          "type": "address"
        }
      ],
      "stateMutability": "pure",
      "type": "function"
    },
    {
      "inputs": [
        {
          "internalType": "bytes",
          "name": "data",
          "type": "bytes"
        },
        {
          "internalType": "uint8",
          "name": "inputNum",
          "type": "uint8"
        },
        {
          "internalType": "uint8",
          "name": "arrayIndex",
          "type": "uint8"
        }
      ],
      "name": "getArrayIndex",
      "outputs": [
        {
          "internalType": "bytes32",
          "name": "",
          "type": "bytes32"
        }
      ],
      "stateMutability": "pure",
      "type": "function"
    },
    {
      "inputs": [
        {
          "internalType": "bytes",
          "name": "data",
          "type": "bytes"
        },
        {
          "internalType": "uint8",
          "name": "inputNum",
          "type": "uint8"
        }
      ],
      "name": "getArrayLast",
      "outputs": [
        {
          "internalType": "bytes32",
          "name": "",
          "type": "bytes32"
        }
      ],
      "stateMutability": "pure",
      "type": "function"
    },
    {
      "inputs": [
        {
          "internalType": "bytes",
          "name": "data",
          "type": "bytes"
        },
        {
          "internalType": "uint8",
          "name": "inputNum",
          "type": "uint8"
        }
      ],
      "name": "getArrayLength",
      "outputs": [
        {
          "internalType": "uint256",
          "name": "",
          "type": "uint256"
        }
      ],
      "stateMutability": "pure",
      "type": "function"
    },
    {
      "inputs": [
        {
          "internalType": "bytes",
          "name": "data",
          "type": "bytes"
        },
        {
          "internalType": "uint8",
          "name": "inputNum",
          "type": "uint8"
        },
        {
          "internalType": "uint256",
          "name": "offset",
          "type": "uint256"
        }
      ],
      "name": "getBytes",
      "outputs": [
        {
          "internalType": "bytes",
          "name": "",
          "type": "bytes"
        }
      ],
      "stateMutability": "pure",
      "type": "function"
    },
    {
      "inputs": [
        {
          "internalType": "bytes",
          "name": "data",
          "type": "bytes"
        },
        {
          "internalType": "uint8",
          "name": "inputNum",
          "type": "uint8"
        }
      ],
      "name": "getInput",
      "outputs": [
        {
          "internalType": "bytes32",
          "name": "",
          "type": "bytes32"
        }
      ],
      "stateMutability": "pure",
      "type": "function"
    },
    {
      "inputs": [
        {
          "internalType": "bytes",
          "name": "data",
          "type": "bytes"
        }
      ],
      "name": "getMethod",
      "outputs": [
        {
          "internalType": "bytes4",
          "name": "",
          "type": "bytes4"
        }
      ],
      "stateMutability": "pure",
      "type": "function"
    },
    {
      "inputs": [
        {
          "internalType": "address",
          "name": "poolLogic",
          "type": "address"
        }
      ],
      "name": "getOptionPositions",
      "outputs": [
        {
          "components": [
            {
              "internalType": "address",
              "name": "optionMarket",
              "type": "address"
            },
            {
              "internalType": "uint256",
              "name": "positionId",
              "type": "uint256"
            }
          ],
          "internalType": "struct LyraOptionMarketWrapperContractGuard.OptionPosition[]",
          "name": "optionPositions",
          "type": "tuple[]"
        }
      ],
      "stateMutability": "view",
      "type": "function"
    },
    {
      "inputs": [
        {
          "internalType": "bytes",
          "name": "data",
          "type": "bytes"
        }
      ],
      "name": "getParams",
      "outputs": [
        {
          "internalType": "bytes",
          "name": "",
          "type": "bytes"
        }
      ],
      "stateMutability": "pure",
      "type": "function"
    },
    {
      "inputs": [],
      "name": "isTxTrackingGuard",
      "outputs": [
        {
          "internalType": "bool",
          "name": "",
          "type": "bool"
        }
      ],
      "stateMutability": "view",
      "type": "function"
    },
    {
      "inputs": [],
      "name": "lyraRegistry",
      "outputs": [
        {
          "internalType": "contract ILyraRegistry",
          "name": "",
          "type": "address"
        }
      ],
      "stateMutability": "view",
      "type": "function"
    },
    {
      "inputs": [],
      "name": "marketViewer",
      "outputs": [
        {
          "internalType": "contract IOptionMarketViewer",
          "name": "",
          "type": "address"
        }
      ],
      "stateMutability": "view",
      "type": "function"
    },
    {
      "inputs": [],
      "name": "marketWrapper",
      "outputs": [
        {
          "internalType": "address",
          "name": "",
          "type": "address"
        }
      ],
      "stateMutability": "view",
      "type": "function"
    },
    {
      "inputs": [],
      "name": "maxPositionCount",
      "outputs": [
        {
          "internalType": "uint256",
          "name": "",
          "type": "uint256"
        }
      ],
      "stateMutability": "view",
      "type": "function"
    },
    {
      "inputs": [],
      "name": "nftTracker",
      "outputs": [
        {
          "internalType": "address",
          "name": "",
          "type": "address"
        }
      ],
      "stateMutability": "view",
      "type": "function"
    },
    {
      "inputs": [
        {
          "internalType": "bytes",
          "name": "data",
          "type": "bytes"
        },
        {
          "internalType": "uint256",
          "name": "offset",
          "type": "uint256"
        },
        {
          "internalType": "uint256",
          "name": "length",
          "type": "uint256"
        }
      ],
      "name": "read32",
      "outputs": [
        {
          "internalType": "bytes32",
          "name": "o",
          "type": "bytes32"
        }
      ],
      "stateMutability": "pure",
      "type": "function"
    },
    {
      "inputs": [
        {
          "internalType": "bytes",
          "name": "data",
          "type": "bytes"
        },
        {
          "internalType": "uint256",
          "name": "offset",
          "type": "uint256"
        }
      ],
      "name": "read4left",
      "outputs": [
        {
          "internalType": "bytes4",
          "name": "o",
          "type": "bytes4"
        }
      ],
      "stateMutability": "pure",
      "type": "function"
    },
    {
      "inputs": [
        {
          "internalType": "address",
          "name": "poolLogic",
          "type": "address"
        },
        {
          "internalType": "address",
          "name": "optionMarket",
          "type": "address"
        },
        {
          "internalType": "uint256",
          "name": "positionId",
          "type": "uint256"
        }
      ],
      "name": "removeClosedPosition",
      "outputs": [],
      "stateMutability": "nonpayable",
      "type": "function"
    },
    {
      "inputs": [
        {
          "internalType": "address",
          "name": "poolLogic",
          "type": "address"
        },
        {
          "internalType": "address",
          "name": "guardedContract",
          "type": "address"
        }
      ],
      "name": "settleExpiredAndFilterActivePositions",
      "outputs": [],
      "stateMutability": "nonpayable",
      "type": "function"
    },
    {
      "inputs": [
        {
          "internalType": "address",
          "name": "poolLogic",
          "type": "address"
        }
      ],
      "name": "settleExpiredAndFilterActivePositions",
      "outputs": [],
      "stateMutability": "nonpayable",
      "type": "function"
    },
    {
      "inputs": [
        {
          "internalType": "address",
          "name": "_poolManagerLogic",
          "type": "address"
        },
        {
          "internalType": "address",
          "name": "to",
          "type": "address"
        },
        {
          "internalType": "bytes",
          "name": "data",
          "type": "bytes"
        }
      ],
      "name": "txGuard",
      "outputs": [
        {
          "internalType": "uint16",
          "name": "txType",
          "type": "uint16"
        },
        {
          "internalType": "bool",
          "name": "",
          "type": "bool"
        }
      ],
      "stateMutability": "nonpayable",
      "type": "function"
    }
  ],
  "bytecode": "0x60e06040526000805460ff191660011790553480156200001e57600080fd5b5060405162002e6a38038062002e6a833981016040819052620000419162000065565b6001600160601b0319606093841b811660c0529190921b1660805260a052620000c5565b6000806000606084860312156200007a578283fd5b83516200008781620000ac565b60208501519093506200009a81620000ac565b80925050604084015190509250925092565b6001600160a01b0381168114620000c257600080fd5b50565b60805160601c60a05160c05160601c612d456200012560003980611170528061120c52806112475250806105905280611e4c5250806104d4528061084c5280610ee952806118ac5280611cf55280611e7752806120785250612d456000f3fe608060405234801561001057600080fd5b506004361061013e5760003560e01c80630561e1a1146101435780630787a80a1461015857806307caac391461016b57806309ff5c7d146101895780631053f9521461019c5780631eba3077146101bc578063293d8063146101dc57806341dc16c3146101fc57806343054c121461020f5780634349be801461022257806352dac6561461022a5780635e3c0dcc146102325780636179309d1461023a578063689015131461025b57806375d144751461026e5780637bf981191461028e57806382f86acc146102a3578063998546e3146102b6578063c3c6279f146102c9578063cd4ac1b7146102dc578063d2450c76146102e4578063db896b57146102ec578063e4e6ea58146102ff578063ee9e0e6a14610307578063ef38bf011461030f578063f66c9dd214610317575b600080fd5b6101566101513660046122f9565b61032a565b005b610156610166366004612235565b610580565b61017361058e565b6040516101809190612a34565b60405180910390f35b610173610197366004612502565b6105b2565b6101af6101aa36600461254d565b610645565b6040516101809190612a69565b6101cf6101ca36600461242b565b6106dd565b604051610180919061290d565b6101ef6101ea366004612475565b6106e4565b6040516101809190612a54565b61017361020a3660046125a1565b610746565b61015661021d3660046121fd565b610824565b610173610838565b6101cf61084a565b61017361086e565b61024d61024836600461226d565b610882565b604051610180929190612c34565b6101af610269366004612443565b610ec8565b61028161027c3660046121fd565b610ee3565b6040516101809190612998565b610296611046565b6040516101809190612a29565b6101736102b1366004612502565b61104f565b6101736102c4366004612502565b61106d565b6101ef6102d7366004612443565b61109e565b6101736110ab565b6101736110c3565b6101736102fa3660046124b7565b6110d8565b6101cf611157565b6101cf61120a565b6101cf61122e565b61015661032536600461226d565b61128d565b600061033584610ee3565b905060005b815181101561057957836001600160a01b031682828151811061035957fe5b6020026020010151600001516001600160a01b031614801561039157508282828151811061038357fe5b602002602001015160200151145b156105715760006103a0611157565b6001600160a01b031663c71b7e53866040518263ffffffff1660e01b81526004016103cb919061290d565b6101406040518083038186803b1580156103e457600080fd5b505afa1580156103f8573d6000803e3d6000fd5b505050506040513d601f19601f8201168201806040525081019061041c9190612616565b905060018160a001516001600160a01b031663eb29dc5e866040518263ffffffff1660e01b81526004016104509190612a34565b60206040518083038186803b15801561046857600080fd5b505afa15801561047c573d6000803e3d6000fd5b505050506040513d601f19601f820116820180604052508101906104a091906125fc565b60058111156104ab57fe5b14156104d25760405162461bcd60e51b81526004016104c990612b3c565b60405180910390fd5b7f00000000000000000000000000000000000000000000000000000000000000006001600160a01b031663cc622e7261050961122e565b600080516020612cf083398151915289866040518563ffffffff1660e01b8152600401610539949392919061296e565b600060405180830381600087803b15801561055357600080fd5b505af1158015610567573d6000803e3d6000fd5b5050505050610579565b60010161033a565b5050505050565b61058a8282611529565b5050565b7f000000000000000000000000000000000000000000000000000000000000000081565b6000806105ca848460200260040160ff1660206110d8565b905060006105dd856004840160206110d8565b905080610626576040805162461bcd60e51b8152602060048201526012602482015271696e707574206973206e6f7420617272617960701b604482015290519081900360640190fd5b61063a8560208084028501600401906110d8565b925050505b92915050565b60606014821061068d576040805162461bcd60e51b815260206004820152600e60248201526d1a5b9d985b1a59081bd9999cd95d60921b604482015290519081900360640190fd5b81602002915060006106ac85848660200260040160ff160160206110d8565b905060006106c18685840160040160206110d8565b90506106d38660248487010183611934565b9695505050505050565b805b919050565b6000816004018351101561073d576040805162461bcd60e51b815260206004820152601b60248201527a52656164696e67206279746573206f7574206f6620626f756e647360281b604482015290519081900360640190fd5b50016020015190565b60008061075e858560200260040160ff1660206110d8565b90506000610771866004840160206110d8565b9050806107ba576040805162461bcd60e51b8152602060048201526012602482015271696e707574206973206e6f7420617272617960701b604482015290519081900360640190fd5b60ff8416811161080a576040805162461bcd60e51b815260206004820152601660248201527534b73b30b634b21030b93930bc903837b9b4ba34b7b760511b604482015290519081900360640190fd5b6106d3866020600160ff88160181028501600401906110d8565b6108358161083061122e565b611529565b50565b600080516020612cf083398151915281565b7f000000000000000000000000000000000000000000000000000000000000000081565b6c26a0a925a2aa2fab24a2aba2a960991b81565b60008060006108c685858080601f01602080910402602001604051908101604052809392919081815260200183838082843760009201919091525061109e92505050565b90506000876001600160a01b03166339b81fd96040518163ffffffff1660e01b815260040160206040518083038186803b15801561090357600080fd5b505afa158015610917573d6000803e3d6000fd5b505050506040513d601f19601f8201168201806040525081019061093b9190612219565b9050876001600160a01b038116639be918e661095561122e565b6040518263ffffffff1660e01b8152600401610971919061290d565b60206040518083038186803b15801561098957600080fd5b505afa15801561099d573d6000803e3d6000fd5b505050506040513d601f19601f820116820180604052508101906109c1919061240b565b6109dd5760405162461bcd60e51b81526004016104c990612ae2565b610a57896001600160a01b03166339b81fd96040518163ffffffff1660e01b815260040160206040518083038186803b158015610a1957600080fd5b505afa158015610a2d573d6000803e3d6000fd5b505050506040513d601f19601f82011682018060405250810190610a519190612219565b89610580565b6001600160e01b031983166324ad18cb60e21b1415610b07576000610ab188888080601f016020809104026020016040519081016040528093929190818152602001838380828437600092019190915250610ec892505050565b806020019051810190610ac491906127ae565b9050610ad58282606001518b611a85565b601b5b9550600080516020612cd0833981519152838a604051610af9929190612921565b60405180910390a150610eb8565b6001600160e01b0319831663e4e83e3d60e01b1415610b8c576000610b6188888080601f016020809104026020016040519081016040528093929190818152602001838380828437600092019190915250610ec892505050565b806020019051810190610b7491906127ae565b9050610b858282606001518b611a85565b601c610ad8565b6001600160e01b03198316620dfcaf60e21b1415610c10576000610be588888080601f016020809104026020016040519081016040528093929190818152602001838380828437600092019190915250610ec892505050565b806020019051810190610bf891906127ae565b9050610c098282606001518b611a85565b601a610ad8565b6001600160e01b0319831663a8f35adf60e01b1415610dea576000610c6a88888080601f016020809104026020016040519081016040528093929190818152602001838380828437600092019190915250610ec892505050565b806020019051810190610c7d9190612879565b5090506000610c8a611157565b6001600160a01b031663c71b7e538b6040518263ffffffff1660e01b8152600401610cb5919061290d565b6101406040518083038186803b158015610cce57600080fd5b505afa158015610ce2573d6000803e3d6000fd5b505050506040513d601f19601f82011682018060405250810190610d069190612616565b9050836001600160a01b03168160a001516001600160a01b0316636352211e846040518263ffffffff1660e01b8152600401610d429190612a34565b60206040518083038186803b158015610d5a57600080fd5b505afa158015610d6e573d6000803e3d6000fd5b505050506040513d601f19601f82011682018060405250810190610d929190612219565b6001600160a01b031614610db85760405162461bcd60e51b81526004016104c990612bd2565b60219650600080516020612cd0833981519152848b604051610ddb929190612921565b60405180910390a15050610eb8565b6001600160e01b03198316635f036de160e01b1415610eb857600080516020612cd08339815191528289604051610e22929190612921565b60405180910390a16000610e6b88888080601f016020809104026020016040519081016040528093929190818152602001838380828437600092019190915250610ec892505050565b806020019051810190610e7e9190612855565b915050826001600160a01b0316816001600160a01b031614610eb25760405162461bcd60e51b81526004016104c990612a7c565b60229550505b5060009250505094509492505050565b606061063f600480845103846119349092919063ffffffff16565b606060007f00000000000000000000000000000000000000000000000000000000000000006001600160a01b031663adee6197600080516020612cf0833981519152856040518363ffffffff1660e01b8152600401610f43929190612a3d565b60006040518083038186803b158015610f5b57600080fd5b505afa158015610f6f573d6000803e3d6000fd5b505050506040513d6000823e601f3d908101601f19168201604052610f979190810190612339565b905080516001600160401b0381118015610fb057600080fd5b50604051908082528060200260200182016040528015610fea57816020015b610fd761215b565b815260200190600190039081610fcf5790505b50915060005b815181101561103f5781818151811061100557fe5b602002602001015180602001905181019061102091906126e1565b83828151811061102c57fe5b6020908102919091010152600101610ff0565b5050919050565b60005460ff1681565b6000611066838360200260040160ff1660206110d8565b9392505050565b600080611085848460200260040160ff1660206110d8565b9050611096846004830160206110d8565b949350505050565b600061063f8260006106e4565b7029aca72a2422aa24ac2fa0a220a82a22a960791b81565b6d26a0a925a2aa2faba920a82822a960911b81565b600081830184511015611130576040805162461bcd60e51b815260206004820152601b60248201527a52656164696e67206279746573206f7574206f6620626f756e647360281b604482015290519081900360640190fd5b82602001840151905081602003801561114f576008810260020a820491505b509392505050565b604051623f970360e91b81526000906001600160a01b037f00000000000000000000000000000000000000000000000000000000000000001690637f2e0600906111b5906c26a0a925a2aa2fab24a2aba2a960991b90600401612a34565b60206040518083038186803b1580156111cd57600080fd5b505afa1580156111e1573d6000803e3d6000fd5b505050506040513d601f19601f820116820180604052508101906112059190612219565b905090565b7f000000000000000000000000000000000000000000000000000000000000000081565b604051623f970360e91b81526000906001600160a01b037f00000000000000000000000000000000000000000000000000000000000000001690637f2e0600906111b5906d26a0a925a2aa2faba920a82822a960911b90600401612a34565b6000846001600160a01b03166339b81fd96040518163ffffffff1660e01b815260040160206040518083038186803b1580156112c857600080fd5b505afa1580156112dc573d6000803e3d6000fd5b505050506040513d601f19601f820116820180604052508101906113009190612219565b9050336001600160a01b0382161461132a5760405162461bcd60e51b81526004016104c990612bfe565b600061136b84848080601f01602080910402602001604051908101604052809392919081815260200183838082843760009201919091525061109e92505050565b90506001600160e01b031981166324ad18cb60e21b148061139c57506001600160e01b0319811663e4e83e3d60e01b145b806113b657506001600160e01b03198116620dfcaf60e21b145b156114275760006113fc85858080601f016020809104026020016040519081016040528093929190818152602001838380828437600092019190915250610ec892505050565b80602001905181019061140f91906127ae565b90506114218684888460200151611c66565b50611521565b6001600160e01b0319811663a8f35adf60e01b14156114a357600061148185858080601f016020809104026020016040519081016040528093929190818152602001838380828437600092019190915250610ec892505050565b8060200190518101906114949190612879565b50905061142186848884611c66565b6001600160e01b03198116635f036de160e01b14156115215760006114fd85858080601f016020809104026020016040519081016040528093929190818152602001838380828437600092019190915250610ec892505050565b8060200190518101906115109190612855565b50905061151f86848884611c66565b505b505050505050565b6000826001600160a01b0316631e50a4a66040518163ffffffff1660e01b815260040160206040518083038186803b15801561156457600080fd5b505afa158015611578573d6000803e3d6000fd5b505050506040513d601f19601f8201168201806040525081019061159c9190612219565b905060006115a984610ee3565b80519091505b801561057957600019810160006115c4611157565b6001600160a01b031663c71b7e538584815181106115de57fe5b6020026020010151600001516040518263ffffffff1660e01b8152600401611606919061290d565b6101406040518083038186803b15801561161f57600080fd5b505afa158015611633573d6000803e3d6000fd5b505050506040513d601f19601f820116820180604052508101906116579190612616565b905060008160a001516001600160a01b03166399fbab8886858151811061167a57fe5b6020026020010151602001516040518263ffffffff1660e01b81526004016116a29190612a34565b60c06040518083038186803b1580156116ba57600080fd5b505afa1580156116ce573d6000803e3d6000fd5b505050506040513d601f19601f820116820180604052508101906116f29190612731565b905060018160a00151600581111561170657fe5b141561189557600085848151811061171a57fe5b6020026020010151600001516001600160a01b0316631fdb6cbd83602001516040518263ffffffff1660e01b81526004016117559190612a34565b60606040518083038186803b15801561176d57600080fd5b505afa158015611781573d6000803e3d6000fd5b505050506040513d601f19601f820116820180604052508101906117a5919061289c565b50915050806117b7575050505061192b565b6117dd8783604001518887815181106117cc57fe5b602002602001015160000151611a85565b6040805160018082528183019092526000916020808301908036833701905050905086858151811061180b57fe5b6020026020010151602001518160008151811061182457fe5b6020026020010181815250508360c001516001600160a01b031663bc0d6c57826040518263ffffffff1660e01b815260040161186091906129e5565b600060405180830381600087803b15801561187a57600080fd5b505af115801561188e573d6000803e3d6000fd5b5050505050505b604051636631173960e11b81526001600160a01b037f0000000000000000000000000000000000000000000000000000000000000000169063cc622e72906118f5908a90600080516020612cf0833981519152908d90899060040161296e565b600060405180830381600087803b15801561190f57600080fd5b505af1158015611923573d6000803e3d6000fd5b505050505050505b600019016115af565b60608182601f01101561197f576040805162461bcd60e51b815260206004820152600e60248201526d736c6963655f6f766572666c6f7760901b604482015290519081900360640190fd5b8282840110156119c7576040805162461bcd60e51b815260206004820152600e60248201526d736c6963655f6f766572666c6f7760901b604482015290519081900360640190fd5b81830184511015611a13576040805162461bcd60e51b8152602060048201526011602482015270736c6963655f6f75744f66426f756e647360781b604482015290519081900360640190fd5b606082158015611a325760405191506000825260208201604052611a7c565b6040519150601f8416801560200281840101858101878315602002848b0101015b81831015611a6b578051835260209283019201611a53565b5050858452601f01601f1916604052505b50949350505050565b6000611a8f611157565b6001600160a01b031663c71b7e53836040518263ffffffff1660e01b8152600401611aba919061290d565b6101406040518083038186803b158015611ad357600080fd5b505afa158015611ae7573d6000803e3d6000fd5b505050506040513d601f19601f82011682018060405250810190611b0b9190612616565b90506002836004811115611b1b57fe5b1415611bc357610120810151604051634df48c7360e11b81526001600160a01b03861691639be918e691611b52919060040161290d565b60206040518083038186803b158015611b6a57600080fd5b505afa158015611b7e573d6000803e3d6000fd5b505050506040513d601f19601f82011682018060405250810190611ba2919061240b565b611bbe5760405162461bcd60e51b81526004016104c990612b0c565b611c60565b610100810151604051634df48c7360e11b81526001600160a01b03861691639be918e691611bf4919060040161290d565b60206040518083038186803b158015611c0c57600080fd5b505afa158015611c20573d6000803e3d6000fd5b505050506040513d601f19601f82011682018060405250810190611c44919061240b565b611c605760405162461bcd60e51b81526004016104c990612ab1565b50505050565b6000611c70611157565b6001600160a01b031663c71b7e53846040518263ffffffff1660e01b8152600401611c9b919061290d565b6101406040518083038186803b158015611cb457600080fd5b505afa158015611cc8573d6000803e3d6000fd5b505050506040513d601f19601f82011682018060405250810190611cec9190612616565b905081611f30577f00000000000000000000000000000000000000000000000000000000000000006001600160a01b03166354d8c4ba86600080516020612cf0833981519152876040518060400160405280896001600160a01b03168152602001611dcd60018960a001516001600160a01b03166361b8ce8c6040518163ffffffff1660e01b815260040160206040518083038186803b158015611d8f57600080fd5b505afa158015611da3573d6000803e3d6000fd5b505050506040513d601f19601f82011682018060405250810190611dc7919061283d565b906120fe565b9052604051611ddf9190602001612c26565b6040516020818303038152906040526040518563ffffffff1660e01b8152600401611e0d949392919061293b565b600060405180830381600087803b158015611e2757600080fd5b505af1158015611e3b573d6000803e3d6000fd5b5050604051632ac14da160e21b81527f000000000000000000000000000000000000000000000000000000000000000092506001600160a01b037f000000000000000000000000000000000000000000000000000000000000000016915063ab05368490611ebd90600080516020612cf0833981519152908990600401612a3d565b60206040518083038186803b158015611ed557600080fd5b505afa158015611ee9573d6000803e3d6000fd5b505050506040513d601f19601f82011682018060405250810190611f0d919061283d565b1115611f2b5760405162461bcd60e51b81526004016104c990612b9b565b610579565b60a0810151604051637594ee2f60e11b81526000916001600160a01b03169063eb29dc5e90611f63908690600401612a34565b60206040518083038186803b158015611f7b57600080fd5b505afa158015611f8f573d6000803e3d6000fd5b505050506040513d601f19601f82011682018060405250810190611fb391906125fc565b90506000611fc086610ee3565b905060005b815181101561202e57856001600160a01b0316828281518110611fe457fe5b6020026020010151600001516001600160a01b031614801561201c57508482828151811061200e57fe5b602002602001015160200151145b156120265761202e565b600101611fc5565b8151811061204e5760405162461bcd60e51b81526004016104c990612b69565b600183600581111561205c57fe5b146120f457604051636631173960e11b81526001600160a01b037f0000000000000000000000000000000000000000000000000000000000000000169063cc622e72906120c1908b90600080516020612cf0833981519152908c90879060040161296e565b600060405180830381600087803b1580156120db57600080fd5b505af11580156120ef573d6000803e3d6000fd5b505050505b5050505050505050565b600082821115612155576040805162461bcd60e51b815260206004820152601e60248201527f536166654d6174683a207375627472616374696f6e206f766572666c6f770000604482015290519081900360640190fd5b50900390565b604080518082019091526000808252602082015290565b80516106df81612cba565b600082601f83011261218d578081fd5b81356121a061219b82612c6d565b612c4a565b8181528460208386010111156121b4578283fd5b816020850160208301379081016020019190915292915050565b8051600581106106df57600080fd5b8051600681106106df57600080fd5b803560ff811681146106df57600080fd5b60006020828403121561220e578081fd5b813561106681612cba565b60006020828403121561222a578081fd5b815161106681612cba565b60008060408385031215612247578081fd5b823561225281612cba565b9150602083013561226281612cba565b809150509250929050565b60008060008060608587031215612282578182fd5b843561228d81612cba565b9350602085013561229d81612cba565b925060408501356001600160401b03808211156122b8578384fd5b818701915087601f8301126122cb578384fd5b8135818111156122d9578485fd5b8860208285010111156122ea578485fd5b95989497505060200194505050565b60008060006060848603121561230d578081fd5b833561231881612cba565b9250602084013561232881612cba565b929592945050506040919091013590565b6000602080838503121561234b578182fd5b82516001600160401b0380821115612361578384fd5b818501915085601f830112612374578384fd5b81518181111561238057fe5b61238d8485830201612c4a565b8181528481019250838501865b838110156123fd57815186018a603f8201126123b4578889fd5b8781015160406123c661219b83612c6d565b8281528d828486010111156123d9578b8cfd5b6123e8838c8301848701612c8e565b8852505050938601939086019060010161239a565b509098975050505050505050565b60006020828403121561241c578081fd5b81518015158114611066578182fd5b60006020828403121561243c578081fd5b5035919050565b600060208284031215612454578081fd5b81356001600160401b03811115612469578182fd5b6110968482850161217d565b60008060408385031215612487578182fd5b82356001600160401b0381111561249c578283fd5b6124a88582860161217d565b95602094909401359450505050565b6000806000606084860312156124cb578081fd5b83356001600160401b038111156124e0578182fd5b6124ec8682870161217d565b9660208601359650604090950135949350505050565b60008060408385031215612514578182fd5b82356001600160401b03811115612529578283fd5b6125358582860161217d565b925050612544602084016121ec565b90509250929050565b600080600060608486031215612561578081fd5b83356001600160401b03811115612576578182fd5b6125828682870161217d565b935050612591602085016121ec565b9150604084013590509250925092565b6000806000606084860312156125b5578081fd5b83356001600160401b038111156125ca578182fd5b6125d68682870161217d565b9350506125e5602085016121ec565b91506125f3604085016121ec565b90509250925092565b60006020828403121561260d578081fd5b611066826121dd565b6000610140808385031215612629578182fd5b61263281612c4a565b905061263d83612172565b815261264b60208401612172565b602082015261265c60408401612172565b604082015261266d60608401612172565b606082015261267e60808401612172565b608082015261268f60a08401612172565b60a08201526126a060c08401612172565b60c08201526126b160e08401612172565b60e08201526101006126c4818501612172565b908201526101206126d6848201612172565b908201529392505050565b6000604082840312156126f2578081fd5b604051604081018181106001600160401b038211171561270e57fe5b604052825161271c81612cba565b81526020928301519281019290925250919050565b600060c08284031215612742578081fd5b60405160c081018181106001600160401b038211171561275e57fe5b8060405250825181526020830151602082015261277d604084016121ce565b604082015260608301516060820152608083015160808201526127a260a084016121dd565b60a08201529392505050565b60006101008083850312156127c1578182fd5b604051908101906001600160401b03821181831017156127dd57fe5b81604052835181526020840151602082015260408401516040820152612805606085016121ce565b60608201526080840151608082015260a084015160a082015260c084015160c082015260e084015160e0820152809250505092915050565b60006020828403121561284e578081fd5b5051919050565b60008060408385031215612867578182fd5b82519150602083015161226281612cba565b6000806040838503121561288b578182fd5b505080516020909101519092909150565b6000806000606084860312156128b0578081fd5b8351925060208401519150604084015190509250925092565b600081518084526128e1816020860160208601612c8e565b601f01601f19169290920160200192915050565b80516001600160a01b03168252602090810151910152565b6001600160a01b0391909116815260200190565b6001600160a01b0392831681529116602082015260400190565b6001600160a01b03858116825260208201859052831660408201526080606082018190526000906106d3908301846128c9565b6001600160a01b039485168152602081019390935292166040820152606081019190915260800190565b602080825282518282018190526000919060409081850190868401855b828110156129d8576129c88483516128f5565b92840192908501906001016129b5565b5091979650505050505050565b6020808252825182820181905260009190848201906040850190845b81811015612a1d57835183529284019291840191600101612a01565b50909695505050505050565b901515815260200190565b90815260200190565b9182526001600160a01b0316602082015260400190565b6001600160e01b031991909116815260200190565b60006020825261106660208301846128c9565b6020808252601b908201527a1c995dd85c990818995b99599a58da585c9e481b9bdd081c1bdbdb602a1b604082015260600190565b6020808252601790820152761d5b9cdd5c1c1bdc9d1959081c5d5bdd1948185cdcd95d604a1b604082015260600190565b60208082526010908201526f1b1e5c98481b9bdd08195b98589b195960821b604082015260600190565b6020808252601690820152751d5b9cdd5c1c1bdc9d19590818985cd948185cdcd95d60521b604082015260600190565b6020808252601390820152723737ba1031b637b9b2b2103837b9b4ba34b7b760691b604082015260600190565b602080825260189082015277706f736974696f6e206973206e6f7420696e20747261636b60401b604082015260600190565b6020808252601d908201527f657863656564206d6178696d756d20706f736974696f6e20636f756e74000000604082015260600190565b6020808252601290820152713737ba103837b9b4ba34b7b71037bbb732b960711b604082015260600190565b6020808252600e908201526d6e6f7420706f6f6c206c6f67696360901b604082015260600190565b6040810161063f82846128f5565b61ffff9290921682521515602082015260400190565b6040518181016001600160401b0381118282101715612c6557fe5b604052919050565b60006001600160401b03821115612c8057fe5b50601f01601f191660200190565b60005b83811015612ca9578181015183820152602001612c91565b83811115611c605750506000910152565b6001600160a01b038116811461083557600080fdfec6e42542f39e94b01d1be4e2e3b23c4fb6ebdda12a5c21abf45f8ae3edff11279bb8215865837737a430a2ed3e9c04cabdb00a3a0eb47bf3b216ebc38d14a326a264697066735822122070aaf5b7a26969daae8ea5cada1d40ba14100118bfa3dc8e092f7a6a7e22658e64736f6c63430007060033",
  "linkReferences": {},
  "deployedLinkReferences": {}
}