{
  "_format": "hh-sol-artifact-1",
  "contractName": "SynthRedeemerContractGuard",
  "sourceName": "contracts/guards/contractGuards/SynthRedeemerContractGuard.sol",
  "abi": [
    {
      "inputs": [
        {
          "internalType": "address",
          "name": "_susdProxy",
          "type": "address"
        }
      ],
      "stateMutability": "nonpayable",
      "type": "constructor"
    },
    {
      "anonymous": false,
      "inputs": [
        {
          "indexed": false,
          "internalType": "address",
          "name": "poolLogic",
          "type": "address"
        },
        {
          "indexed": false,
          "internalType": "address",
          "name": "pair",
          "type": "address"
        },
        {
          "indexed": false,
          "internalType": "bytes",
          "name": "params",
          "type": "bytes"
        },
        {
          "indexed": false,
          "internalType": "uint256",
          "name": "time",
          "type": "uint256"
        }
      ],
      "name": "AddLiquidity",
      "type": "event"
    },
    {
      "anonymous": false,
      "inputs": [
        {
          "indexed": false,
          "internalType": "address",
          "name": "fundAddress",
          "type": "address"
        },
        {
          "indexed": false,
          "internalType": "address",
          "name": "asset",
          "type": "address"
        },
        {
          "indexed": false,
          "internalType": "address",
          "name": "liquidityPool",
          "type": "address"
        },
        {
          "indexed": false,
          "internalType": "uint256",
          "name": "amount",
          "type": "uint256"
        },
        {
          "indexed": false,
          "internalType": "uint256",
          "name": "time",
          "type": "uint256"
        }
      ],
      "name": "AddLiquiditySingle",
      "type": "event"
    },
    {
      "anonymous": false,
      "inputs": [
        {
          "indexed": false,
          "internalType": "address",
          "name": "poolLogic",
          "type": "address"
        },
        {
          "indexed": false,
          "internalType": "address",
          "name": "stakingContract",
          "type": "address"
        },
        {
          "indexed": false,
          "internalType": "uint256",
          "name": "time",
          "type": "uint256"
        }
      ],
      "name": "Claim",
      "type": "event"
    },
    {
      "anonymous": false,
      "inputs": [
        {
          "indexed": false,
          "internalType": "address",
          "name": "fundAddress",
          "type": "address"
        },
        {
          "indexed": false,
          "internalType": "address",
          "name": "sourceAsset",
          "type": "address"
        },
        {
          "indexed": false,
          "internalType": "uint256",
          "name": "sourceAmount",
          "type": "uint256"
        },
        {
          "indexed": false,
          "internalType": "address",
          "name": "dstAsset",
          "type": "address"
        },
        {
          "indexed": false,
          "internalType": "uint256",
          "name": "time",
          "type": "uint256"
        }
      ],
      "name": "ExchangeFrom",
      "type": "event"
    },
    {
      "anonymous": false,
      "inputs": [
        {
          "indexed": false,
          "internalType": "address",
          "name": "fundAddress",
          "type": "address"
        },
        {
          "indexed": false,
          "internalType": "address",
          "name": "sourceAsset",
          "type": "address"
        },
        {
          "indexed": false,
          "internalType": "address",
          "name": "dstAsset",
          "type": "address"
        },
        {
          "indexed": false,
          "internalType": "uint256",
          "name": "dstAmount",
          "type": "uint256"
        },
        {
          "indexed": false,
          "internalType": "uint256",
          "name": "time",
          "type": "uint256"
        }
      ],
      "name": "ExchangeTo",
      "type": "event"
    },
    {
      "anonymous": false,
      "inputs": [
        {
          "indexed": false,
          "internalType": "address",
          "name": "poolLogic",
          "type": "address"
        },
        {
          "indexed": false,
          "internalType": "address",
          "name": "pair",
          "type": "address"
        },
        {
          "indexed": false,
          "internalType": "bytes",
          "name": "params",
          "type": "bytes"
        },
        {
          "indexed": false,
          "internalType": "uint256",
          "name": "time",
          "type": "uint256"
        }
      ],
      "name": "RemoveLiquidity",
      "type": "event"
    },
    {
      "anonymous": false,
      "inputs": [
        {
          "indexed": false,
          "internalType": "address",
          "name": "fundAddress",
          "type": "address"
        },
        {
          "indexed": false,
          "internalType": "address",
          "name": "asset",
          "type": "address"
        },
        {
          "indexed": false,
          "internalType": "address",
          "name": "liquidityPool",
          "type": "address"
        },
        {
          "indexed": false,
          "internalType": "uint256",
          "name": "amount",
          "type": "uint256"
        },
        {
          "indexed": false,
          "internalType": "uint256",
          "name": "time",
          "type": "uint256"
        }
      ],
      "name": "RemoveLiquiditySingle",
      "type": "event"
    },
    {
      "anonymous": false,
      "inputs": [
        {
          "indexed": true,
          "internalType": "address",
          "name": "fundAddress",
          "type": "address"
        },
        {
          "indexed": false,
          "internalType": "address",
          "name": "asset",
          "type": "address"
        },
        {
          "indexed": false,
          "internalType": "address",
          "name": "cToken",
          "type": "address"
        },
        {
          "indexed": false,
          "internalType": "uint256",
          "name": "amount",
          "type": "uint256"
        },
        {
          "indexed": false,
          "internalType": "uint256",
          "name": "time",
          "type": "uint256"
        }
      ],
      "name": "SonneBorrowEvent",
      "type": "event"
    },
    {
      "anonymous": false,
      "inputs": [
        {
          "indexed": true,
          "internalType": "address",
          "name": "poolLogic",
          "type": "address"
        },
        {
          "indexed": false,
          "internalType": "address[]",
          "name": "cTokens",
          "type": "address[]"
        },
        {
          "indexed": false,
          "internalType": "uint256",
          "name": "time",
          "type": "uint256"
        }
      ],
      "name": "SonneEnterMarkets",
      "type": "event"
    },
    {
      "anonymous": false,
      "inputs": [
        {
          "indexed": true,
          "internalType": "address",
          "name": "poolLogic",
          "type": "address"
        },
        {
          "indexed": false,
          "internalType": "address",
          "name": "cToken",
          "type": "address"
        },
        {
          "indexed": false,
          "internalType": "uint256",
          "name": "time",
          "type": "uint256"
        }
      ],
      "name": "SonneExitMarket",
      "type": "event"
    },
    {
      "anonymous": false,
      "inputs": [
        {
          "indexed": true,
          "internalType": "address",
          "name": "fundAddress",
          "type": "address"
        },
        {
          "indexed": false,
          "internalType": "address",
          "name": "asset",
          "type": "address"
        },
        {
          "indexed": false,
          "internalType": "address",
          "name": "cToken",
          "type": "address"
        },
        {
          "indexed": false,
          "internalType": "uint256",
          "name": "amount",
          "type": "uint256"
        },
        {
          "indexed": false,
          "internalType": "uint256",
          "name": "time",
          "type": "uint256"
        }
      ],
      "name": "SonneMintEvent",
      "type": "event"
    },
    {
      "anonymous": false,
      "inputs": [
        {
          "indexed": true,
          "internalType": "address",
          "name": "fundAddress",
          "type": "address"
        },
        {
          "indexed": false,
          "internalType": "address",
          "name": "asset",
          "type": "address"
        },
        {
          "indexed": false,
          "internalType": "address",
          "name": "cToken",
          "type": "address"
        },
        {
          "indexed": false,
          "internalType": "uint256",
          "name": "amount",
          "type": "uint256"
        },
        {
          "indexed": false,
          "internalType": "uint256",
          "name": "time",
          "type": "uint256"
        }
      ],
      "name": "SonneRedeemEvent",
      "type": "event"
    },
    {
      "anonymous": false,
      "inputs": [
        {
          "indexed": true,
          "internalType": "address",
          "name": "fundAddress",
          "type": "address"
        },
        {
          "indexed": false,
          "internalType": "address",
          "name": "asset",
          "type": "address"
        },
        {
          "indexed": false,
          "internalType": "address",
          "name": "cToken",
          "type": "address"
        },
        {
          "indexed": false,
          "internalType": "uint256",
          "name": "amount",
          "type": "uint256"
        },
        {
          "indexed": false,
          "internalType": "uint256",
          "name": "time",
          "type": "uint256"
        }
      ],
      "name": "SonneRedeemUnderlyingEvent",
      "type": "event"
    },
    {
      "anonymous": false,
      "inputs": [
        {
          "indexed": true,
          "internalType": "address",
          "name": "fundAddress",
          "type": "address"
        },
        {
          "indexed": false,
          "internalType": "address",
          "name": "asset",
          "type": "address"
        },
        {
          "indexed": false,
          "internalType": "address",
          "name": "cToken",
          "type": "address"
        },
        {
          "indexed": false,
          "internalType": "uint256",
          "name": "amount",
          "type": "uint256"
        },
        {
          "indexed": false,
          "internalType": "uint256",
          "name": "time",
          "type": "uint256"
        }
      ],
      "name": "SonneRepayEvent",
      "type": "event"
    },
    {
      "anonymous": false,
      "inputs": [
        {
          "indexed": false,
          "internalType": "address",
          "name": "poolLogic",
          "type": "address"
        },
        {
          "indexed": false,
          "internalType": "address",
          "name": "stakingToken",
          "type": "address"
        },
        {
          "indexed": false,
          "internalType": "address",
          "name": "to",
          "type": "address"
        },
        {
          "indexed": false,
          "internalType": "uint256",
          "name": "amount",
          "type": "uint256"
        },
        {
          "indexed": false,
          "internalType": "uint256",
          "name": "time",
          "type": "uint256"
        }
      ],
      "name": "Stake",
      "type": "event"
    },
    {
      "anonymous": false,
      "inputs": [
        {
          "indexed": false,
          "internalType": "address",
          "name": "poolAddress",
          "type": "address"
        },
        {
          "indexed": false,
          "internalType": "contract IERC20[]",
          "name": "synthProxies",
          "type": "address[]"
        }
      ],
      "name": "SynthRedeem",
      "type": "event"
    },
    {
      "anonymous": false,
      "inputs": [
        {
          "indexed": false,
          "internalType": "address",
          "name": "poolLogic",
          "type": "address"
        },
        {
          "indexed": false,
          "internalType": "uint256",
          "name": "txType",
          "type": "uint256"
        }
      ],
      "name": "SynthetixV3Event",
      "type": "event"
    },
    {
      "anonymous": false,
      "inputs": [
        {
          "indexed": false,
          "internalType": "address",
          "name": "poolLogic",
          "type": "address"
        },
        {
          "indexed": false,
          "internalType": "address",
          "name": "stakingToken",
          "type": "address"
        },
        {
          "indexed": false,
          "internalType": "address",
          "name": "to",
          "type": "address"
        },
        {
          "indexed": false,
          "internalType": "uint256",
          "name": "amount",
          "type": "uint256"
        },
        {
          "indexed": false,
          "internalType": "uint256",
          "name": "time",
          "type": "uint256"
        }
      ],
      "name": "Unstake",
      "type": "event"
    },
    {
      "inputs": [
        {
          "internalType": "bytes32",
          "name": "data",
          "type": "bytes32"
        }
      ],
      "name": "convert32toAddress",
      "outputs": [
        {
          "internalType": "address",
          "name": "o",
          "type": "address"
        }
      ],
      "stateMutability": "pure",
      "type": "function"
    },
    {
      "inputs": [
        {
          "internalType": "bytes",
          "name": "data",
          "type": "bytes"
        },
        {
          "internalType": "uint8",
          "name": "inputNum",
          "type": "uint8"
        },
        {
          "internalType": "uint8",
          "name": "arrayIndex",
          "type": "uint8"
        }
      ],
      "name": "getArrayIndex",
      "outputs": [
        {
          "internalType": "bytes32",
          "name": "",
          "type": "bytes32"
        }
      ],
      "stateMutability": "pure",
      "type": "function"
    },
    {
      "inputs": [
        {
          "internalType": "bytes",
          "name": "data",
          "type": "bytes"
        },
        {
          "internalType": "uint8",
          "name": "inputNum",
          "type": "uint8"
        }
      ],
      "name": "getArrayLast",
      "outputs": [
        {
          "internalType": "bytes32",
          "name": "",
          "type": "bytes32"
        }
      ],
      "stateMutability": "pure",
      "type": "function"
    },
    {
      "inputs": [
        {
          "internalType": "bytes",
          "name": "data",
          "type": "bytes"
        },
        {
          "internalType": "uint8",
          "name": "inputNum",
          "type": "uint8"
        }
      ],
      "name": "getArrayLength",
      "outputs": [
        {
          "internalType": "uint256",
          "name": "",
          "type": "uint256"
        }
      ],
      "stateMutability": "pure",
      "type": "function"
    },
    {
      "inputs": [
        {
          "internalType": "bytes",
          "name": "data",
          "type": "bytes"
        },
        {
          "internalType": "uint8",
          "name": "inputNum",
          "type": "uint8"
        },
        {
          "internalType": "uint256",
          "name": "offset",
          "type": "uint256"
        }
      ],
      "name": "getBytes",
      "outputs": [
        {
          "internalType": "bytes",
          "name": "",
          "type": "bytes"
        }
      ],
      "stateMutability": "pure",
      "type": "function"
    },
    {
      "inputs": [
        {
          "internalType": "bytes",
          "name": "data",
          "type": "bytes"
        },
        {
          "internalType": "uint8",
          "name": "inputNum",
          "type": "uint8"
        }
      ],
      "name": "getInput",
      "outputs": [
        {
          "internalType": "bytes32",
          "name": "",
          "type": "bytes32"
        }
      ],
      "stateMutability": "pure",
      "type": "function"
    },
    {
      "inputs": [
        {
          "internalType": "bytes",
          "name": "data",
          "type": "bytes"
        }
      ],
      "name": "getMethod",
      "outputs": [
        {
          "internalType": "bytes4",
          "name": "",
          "type": "bytes4"
        }
      ],
      "stateMutability": "pure",
      "type": "function"
    },
    {
      "inputs": [
        {
          "internalType": "bytes",
          "name": "data",
          "type": "bytes"
        }
      ],
      "name": "getParams",
      "outputs": [
        {
          "internalType": "bytes",
          "name": "",
          "type": "bytes"
        }
      ],
      "stateMutability": "pure",
      "type": "function"
    },
    {
      "inputs": [
        {
          "internalType": "bytes",
          "name": "data",
          "type": "bytes"
        },
        {
          "internalType": "uint256",
          "name": "offset",
          "type": "uint256"
        },
        {
          "internalType": "uint256",
          "name": "length",
          "type": "uint256"
        }
      ],
      "name": "read32",
      "outputs": [
        {
          "internalType": "bytes32",
          "name": "o",
          "type": "bytes32"
        }
      ],
      "stateMutability": "pure",
      "type": "function"
    },
    {
      "inputs": [
        {
          "internalType": "bytes",
          "name": "data",
          "type": "bytes"
        },
        {
          "internalType": "uint256",
          "name": "offset",
          "type": "uint256"
        }
      ],
      "name": "read4left",
      "outputs": [
        {
          "internalType": "bytes4",
          "name": "o",
          "type": "bytes4"
        }
      ],
      "stateMutability": "pure",
      "type": "function"
    },
    {
      "inputs": [],
      "name": "susdProxy",
      "outputs": [
        {
          "internalType": "address",
          "name": "",
          "type": "address"
        }
      ],
      "stateMutability": "view",
      "type": "function"
    },
    {
      "inputs": [
        {
          "internalType": "address",
          "name": "_poolManagerLogic",
          "type": "address"
        },
        {
          "internalType": "address",
          "name": "",
          "type": "address"
        },
        {
          "internalType": "bytes",
          "name": "_data",
          "type": "bytes"
        }
      ],
      "name": "txGuard",
      "outputs": [
        {
          "internalType": "uint16",
          "name": "txType",
          "type": "uint16"
        },
        {
          "internalType": "bool",
          "name": "isPublic",
          "type": "bool"
        }
      ],
      "stateMutability": "nonpayable",
      "type": "function"
    }
  ],
  "bytecode": "0x60a060405234801561001057600080fd5b50604051610ecf380380610ecf83398101604081905261002f91610044565b60601b6001600160601b031916608052610072565b600060208284031215610055578081fd5b81516001600160a01b038116811461006b578182fd5b9392505050565b60805160601c610e3b610094600039806104c552806106975250610e3b6000f3fe608060405234801561001057600080fd5b50600436106100a45760003560e01c806309ff5c7d146100a95780631053f952146100d25780631eba3077146100f2578063293d80631461011257806341dc16c3146101325780636179309d14610145578063689015131461016657806369d8ff101461017957806382f86acc14610181578063998546e314610194578063c3c6279f146101a7578063db896b57146101ba575b600080fd5b6100bc6100b7366004610ba5565b6101cd565b6040516100c99190610d0f565b60405180910390f35b6100e56100e0366004610bf0565b61025e565b6040516100c99190610d2d565b610105610100366004610ace565b6102f6565b6040516100c99190610c9f565b610125610120366004610b18565b6102fd565b6040516100c99190610d18565b6100bc610140366004610c44565b61035f565b610158610153366004610976565b61043d565b6040516100c9929190610db4565b6100e5610174366004610ae6565b610674565b610105610695565b6100bc61018f366004610ba5565b6106b9565b6100bc6101a2366004610ba5565b6106d7565b6101256101b5366004610ae6565b610708565b6100bc6101c8366004610b5a565b610715565b6000806101e5848460200260040160ff166020610715565b905060006101f885600484016020610715565b905080610241576040805162461bcd60e51b8152602060048201526012602482015271696e707574206973206e6f7420617272617960701b604482015290519081900360640190fd5b610255856020808402850160040190610715565b95945050505050565b6060601482106102a6576040805162461bcd60e51b815260206004820152600e60248201526d1a5b9d985b1a59081bd9999cd95d60921b604482015290519081900360640190fd5b81602002915060006102c585848660200260040160ff16016020610715565b905060006102da868584016004016020610715565b90506102ec8660248487010183610794565b9695505050505050565b805b919050565b60008160040183511015610356576040805162461bcd60e51b815260206004820152601b60248201527a52656164696e67206279746573206f7574206f6620626f756e647360281b604482015290519081900360640190fd5b50016020015190565b600080610377858560200260040160ff166020610715565b9050600061038a86600484016020610715565b9050806103d3576040805162461bcd60e51b8152602060048201526012602482015271696e707574206973206e6f7420617272617960701b604482015290519081900360640190fd5b60ff84168111610423576040805162461bcd60e51b815260206004820152601660248201527534b73b30b634b21030b93930bc903837b9b4ba34b7b760511b604482015290519081900360640190fd5b6102ec866020600160ff8816018102850160040190610715565b60008063d6232e8960e01b6001600160e01b03191661049185858080601f01602080910402602001604051908101604052809392919081815260200183838082843760009201919091525061070892505050565b6001600160e01b031916141561066b57604051634df48c7360e11b81526001600160a01b03871690639be918e6906104ed907f000000000000000000000000000000000000000000000000000000000000000090600401610c9f565b60206040518083038186803b15801561050557600080fd5b505afa158015610519573d6000803e3d6000fd5b505050506040513d601f19601f8201168201806040525081019061053d9190610aae565b6105625760405162461bcd60e51b815260040161055990610d80565b60405180910390fd5b60006105a385858080601f01602080910402602001604051908101604052809392919081815260200183838082843760009201919091525061067492505050565b8060200190518101906105b69190610a02565b90507fb0c8579a790504db867753c082de55e0b5084e2c1094c859dd81ab2ce613d209876001600160a01b03166339b81fd96040518163ffffffff1660e01b815260040160206040518083038186803b15801561061257600080fd5b505afa158015610626573d6000803e3d6000fd5b505050506040513d601f19601f8201168201806040525081019061064a919061095a565b82604051610659929190610cb3565b60405180910390a16024925060019150505b94509492505050565b606061068f600480845103846107949092919063ffffffff16565b92915050565b7f000000000000000000000000000000000000000000000000000000000000000081565b60006106d0838360200260040160ff166020610715565b9392505050565b6000806106ef848460200260040160ff166020610715565b905061070084600483016020610715565b949350505050565b600061068f8260006102fd565b60008183018451101561076d576040805162461bcd60e51b815260206004820152601b60248201527a52656164696e67206279746573206f7574206f6620626f756e647360281b604482015290519081900360640190fd5b82602001840151905081602003801561078c576008810260020a820491505b509392505050565b60608182601f0110156107df576040805162461bcd60e51b815260206004820152600e60248201526d736c6963655f6f766572666c6f7760901b604482015290519081900360640190fd5b828284011015610827576040805162461bcd60e51b815260206004820152600e60248201526d736c6963655f6f766572666c6f7760901b604482015290519081900360640190fd5b81830184511015610873576040805162461bcd60e51b8152602060048201526011602482015270736c6963655f6f75744f66426f756e647360781b604482015290519081900360640190fd5b60608215801561089257604051915060008252602082016040526108dc565b6040519150601f8416801560200281840101858101878315602002848b0101015b818310156108cb5780518352602092830192016108b3565b5050858452601f01601f1916604052505b50949350505050565b600082601f8301126108f5578081fd5b81356001600160401b0381111561090857fe5b61091b601f8201601f1916602001610dca565b81815284602083860101111561092f578283fd5b816020850160208301379081016020019190915292915050565b803560ff811681146102f857600080fd5b60006020828403121561096b578081fd5b81516106d081610ded565b6000806000806060858703121561098b578283fd5b843561099681610ded565b935060208501356109a681610ded565b925060408501356001600160401b03808211156109c1578384fd5b818701915087601f8301126109d4578384fd5b8135818111156109e2578485fd5b8860208285010111156109f3578485fd5b95989497505060200194505050565b60006020808385031215610a14578182fd5b82516001600160401b0380821115610a2a578384fd5b818501915085601f830112610a3d578384fd5b815181811115610a4957fe5b8381029150610a59848301610dca565b8181528481019084860184860187018a1015610a73578788fd5b8795505b83861015610aa15780519450610a8c85610ded565b84835260019590950194918601918601610a77565b5098975050505050505050565b600060208284031215610abf578081fd5b815180151581146106d0578182fd5b600060208284031215610adf578081fd5b5035919050565b600060208284031215610af7578081fd5b81356001600160401b03811115610b0c578182fd5b610700848285016108e5565b60008060408385031215610b2a578182fd5b82356001600160401b03811115610b3f578283fd5b610b4b858286016108e5565b95602094909401359450505050565b600080600060608486031215610b6e578283fd5b83356001600160401b03811115610b83578384fd5b610b8f868287016108e5565b9660208601359650604090950135949350505050565b60008060408385031215610bb7578182fd5b82356001600160401b03811115610bcc578283fd5b610bd8858286016108e5565b925050610be760208401610949565b90509250929050565b600080600060608486031215610c04578283fd5b83356001600160401b03811115610c19578384fd5b610c25868287016108e5565b935050610c3460208501610949565b9150604084013590509250925092565b600080600060608486031215610c58578283fd5b83356001600160401b03811115610c6d578384fd5b610c79868287016108e5565b935050610c8860208501610949565b9150610c9660408501610949565b90509250925092565b6001600160a01b0391909116815260200190565b6001600160a01b038381168252604060208084018290528451918401829052600092858201929091906060860190855b81811015610d01578551851683529483019491830191600101610ce3565b509098975050505050505050565b90815260200190565b6001600160e01b031991909116815260200190565b6000602080835283518082850152825b81811015610d5957858101830151858201604001528201610d3d565b81811115610d6a5783604083870101525b50601f01601f1916929092016040019392505050565b6020808252601a90820152791cdd5cd9081b5d5cdd08189948195b98589b195908185cdcd95d60321b604082015260600190565b61ffff9290921682521515602082015260400190565b6040518181016001600160401b0381118282101715610de557fe5b604052919050565b6001600160a01b0381168114610e0257600080fd5b5056fea26469706673582212202bc1abb36a45d5816492b9e48e40272b2f68dc4199b8e01e8feef32f50f8b41c64736f6c63430007060033",
  "linkReferences": {},
  "deployedLinkReferences": {}
}