{
  "_format": "hh-sol-artifact-1",
  "contractName": "DhedgeVeloUniV2Router",
  "sourceName": "contracts/routers/DhedgeVeloUniV2Router.sol",
  "abi": [
    {
      "inputs": [
        {
          "internalType": "contract IVelodromeRouter",
          "name": "_velo",
          "type": "address"
        }
      ],
      "stateMutability": "nonpayable",
      "type": "constructor"
    },
    {
      "inputs": [
        {
          "internalType": "uint256",
          "name": "",
          "type": "uint256"
        },
        {
          "internalType": "address[]",
          "name": "path",
          "type": "address[]"
        }
      ],
      "name": "getAmountsIn",
      "outputs": [
        {
          "internalType": "uint256[]",
          "name": "amountsIn",
          "type": "uint256[]"
        }
      ],
      "stateMutability": "pure",
      "type": "function"
    },
    {
      "inputs": [
        {
          "internalType": "uint256",
          "name": "amountIn",
          "type": "uint256"
        },
        {
          "internalType": "address[]",
          "name": "path",
          "type": "address[]"
        }
      ],
      "name": "getAmountsOut",
      "outputs": [
        {
          "internalType": "uint256[]",
          "name": "amountsOut",
          "type": "uint256[]"
        }
      ],
      "stateMutability": "view",
      "type": "function"
    },
    {
      "inputs": [
        {
          "internalType": "uint256",
          "name": "amountIn",
          "type": "uint256"
        },
        {
          "internalType": "uint256",
          "name": "amountOutMin",
          "type": "uint256"
        },
        {
          "internalType": "address[]",
          "name": "path",
          "type": "address[]"
        },
        {
          "internalType": "address",
          "name": "to",
          "type": "address"
        },
        {
          "internalType": "uint256",
          "name": "deadline",
          "type": "uint256"
        }
      ],
      "name": "swapExactTokensForTokens",
      "outputs": [
        {
          "internalType": "uint256[]",
          "name": "amountsOut",
          "type": "uint256[]"
        }
      ],
      "stateMutability": "nonpayable",
      "type": "function"
    },
    {
      "inputs": [
        {
          "internalType": "uint256",
          "name": "",
          "type": "uint256"
        },
        {
          "internalType": "uint256",
          "name": "",
          "type": "uint256"
        },
        {
          "internalType": "address[]",
          "name": "",
          "type": "address[]"
        },
        {
          "internalType": "address",
          "name": "",
          "type": "address"
        },
        {
          "internalType": "uint256",
          "name": "",
          "type": "uint256"
        }
      ],
      "name": "swapTokensForExactTokens",
      "outputs": [
        {
          "internalType": "uint256[]",
          "name": "",
          "type": "uint256[]"
        }
      ],
      "stateMutability": "pure",
      "type": "function"
    },
    {
      "inputs": [],
      "name": "velo",
      "outputs": [
        {
          "internalType": "contract IVelodromeRouter",
          "name": "",
          "type": "address"
        }
      ],
      "stateMutability": "view",
      "type": "function"
    }
  ],
  "bytecode": "0x608060405234801561001057600080fd5b50604051610dbf380380610dbf83398101604081905261002f91610054565b600080546001600160a01b0319166001600160a01b0392909216919091179055610082565b600060208284031215610065578081fd5b81516001600160a01b038116811461007b578182fd5b9392505050565b610d2e806100916000396000f3fe608060405234801561001057600080fd5b50600436106100575760003560e01c80631f00ca741461005c57806338ed1739146100855780638803dbee146100985780638c7c53ce146100ab578063d06ca61f146100c0575b600080fd5b61006f61006a366004610a48565b6100d3565b60405161007c9190610b73565b60405180910390f35b61006f610093366004610abc565b61011e565b61006f6100a6366004610abc565b610682565b6100b361069c565b60405161007c9190610bb7565b61006f6100ce366004610a48565b6106ab565b6060816001600160401b03811180156100eb57600080fd5b50604051908082528060200260200182016040528015610115578160200160208202803683370190505b50949350505050565b6060600384111561014a5760405162461bcd60e51b815260040161014190610bcb565b60405180910390fd5b6000805481906001600160a01b0316635e1e63258a8989858161016957fe5b905060200201602081019061017e9190610960565b8a8a600181811061018b57fe5b90506020020160208101906101a09190610960565b6040518463ffffffff1660e01b81526004016101be93929190610c4b565b604080518083038186803b1580156101d557600080fd5b505afa1580156101e9573d6000803e3d6000fd5b505050506040513d601f19601f8201168201806040525081019061020d9190610a91565b9092509050600060038714610223576001610226565b60025b60ff166001600160401b038111801561023e57600080fd5b5060405190808252806020026020018201604052801561027857816020015b6102656108cc565b81526020019060019003908161025d5790505b50905060405180606001604052808989600081811061029357fe5b90506020020160208101906102a89190610960565b6001600160a01b03168152602001898960018181106102c357fe5b90506020020160208101906102d89190610960565b6001600160a01b03168152602001831515815250816000815181106102f957fe5b60209081029190910101526003871415610460576000546001600160a01b0316635e1e6325848a8a600181811061032c57fe5b90506020020160208101906103419190610960565b8b8b600281811061034e57fe5b90506020020160208101906103639190610960565b6040518463ffffffff1660e01b815260040161038193929190610c4b565b604080518083038186803b15801561039857600080fd5b505afa1580156103ac573d6000803e3d6000fd5b505050506040513d601f19601f820116820180604052508101906103d09190610a91565b9050809250506040518060600160405280898960018181106103ee57fe5b90506020020160208101906104039190610960565b6001600160a01b031681526020018989600281811061041e57fe5b90506020020160208101906104339190610960565b6001600160a01b031681526020018315158152508160018151811061045457fe5b60200260200101819052505b8787600081811061046d57fe5b90506020020160208101906104829190610960565b6001600160a01b03166323b872dd33308d6040518463ffffffff1660e01b81526004016104b193929190610b36565b602060405180830381600087803b1580156104cb57600080fd5b505af11580156104df573d6000803e3d6000fd5b505050506040513d601f19601f820116820180604052508101906105039190610a2e565b508787600081811061051157fe5b90506020020160208101906105269190610960565b60005460405163095ea7b360e01b81526001600160a01b039283169263095ea7b392610559929116908e90600401610b5a565b602060405180830381600087803b15801561057357600080fd5b505af1158015610587573d6000803e3d6000fd5b505050506040513d601f19601f820116820180604052508101906105ab9190610a2e565b50600054604051631e82ecdb60e31b81526001600160a01b039091169063f41766d8906105e4908d908d9086908c908c90600401610c6a565b600060405180830381600087803b1580156105fe57600080fd5b505af1158015610612573d6000803e3d6000fd5b505050506040513d6000823e601f3d908101601f1916820160405261063a9190810190610981565b9350888460018a8a9050038151811061064f57fe5b602002602001015110156106755760405162461bcd60e51b815260040161014190610bf2565b5050509695505050505050565b606060405162461bcd60e51b815260040161014190610c1d565b6000546001600160a01b031681565b606060038211156106ce5760405162461bcd60e51b815260040161014190610bcb565b600080546001600160a01b0316635e1e632586868685816106eb57fe5b90506020020160208101906107009190610960565b8787600181811061070d57fe5b90506020020160208101906107229190610960565b6040518463ffffffff1660e01b815260040161074093929190610c4b565b604080518083038186803b15801561075757600080fd5b505afa15801561076b573d6000803e3d6000fd5b505050506040513d601f19601f8201168201806040525081019061078f9190610a91565b5090506003831415610862576000546001600160a01b0316635e1e632582868660018181106107ba57fe5b90506020020160208101906107cf9190610960565b878760028181106107dc57fe5b90506020020160208101906107f19190610960565b6040518463ffffffff1660e01b815260040161080f93929190610c4b565b604080518083038186803b15801561082657600080fd5b505afa15801561083a573d6000803e3d6000fd5b505050506040513d601f19601f8201168201806040525081019061085e9190610a91565b5090505b826001600160401b038111801561087857600080fd5b506040519080825280602002602001820160405280156108a2578160200160208202803683370190505b509150808260018686905003815181106108b857fe5b602002602001018181525050509392505050565b604080516060810182526000808252602082018190529181019190915290565b80356001600160a01b038116811461090357600080fd5b919050565b60008083601f840112610919578081fd5b5081356001600160401b0381111561092f578182fd5b602083019150836020808302850101111561094957600080fd5b9250929050565b8051801515811461090357600080fd5b600060208284031215610971578081fd5b61097a826108ec565b9392505050565b60006020808385031215610993578182fd5b82516001600160401b03808211156109a9578384fd5b818501915085601f8301126109bc578384fd5b8151818111156109c857fe5b838102604051858282010181811085821117156109e157fe5b604052828152858101935084860182860187018a10156109ff578788fd5b8795505b83861015610a21578051855260019590950194938601938601610a03565b5098975050505050505050565b600060208284031215610a3f578081fd5b61097a82610950565b600080600060408486031215610a5c578182fd5b8335925060208401356001600160401b03811115610a78578283fd5b610a8486828701610908565b9497909650939450505050565b60008060408385031215610aa3578182fd5b82519150610ab360208401610950565b90509250929050565b60008060008060008060a08789031215610ad4578182fd5b863595506020870135945060408701356001600160401b03811115610af7578283fd5b610b0389828a01610908565b9095509350610b169050606088016108ec565b9150608087013590509295509295509295565b6001600160a01b03169052565b6001600160a01b039384168152919092166020820152604081019190915260600190565b6001600160a01b03929092168252602082015260400190565b6020808252825182820181905260009190848201906040850190845b81811015610bab57835183529284019291840191600101610b8f565b50909695505050505050565b6001600160a01b0391909116815260200190565b6020808252600d908201526c746f6f206d616e7920686f707360981b604082015260600190565b602080825260119082015270746f6f206d75636820736c69707061676560781b604082015260600190565b60208082526014908201527329aa2322aa103737ba1039bab83837b93a32b21760611b604082015260600190565b9283526001600160a01b03918216602084015216604082015260600190565b600060a0820187835260208781850152604060a08186015282885180855260c087019150838a019450855b81811015610cd257855180516001600160a01b03908116855286820151168685015284015115158484015294840194606090920191600101610c95565b505080945050505050610ce86060830185610b29565b826080830152969550505050505056fea2646970667358221220c1897ce607b39e4ce69ced0e4bdcc9bd7d61bd654bec9f7739792b1a14f93ef664736f6c63430007060033",
  "linkReferences": {},
  "deployedLinkReferences": {}
}