{
  "_format": "hh-sol-artifact-1",
  "contractName": "AaveFlashloanMock",
  "sourceName": "contracts/test/AaveFlashloanMock.sol",
  "abi": [
    {
      "inputs": [
        {
          "internalType": "address",
          "name": "receiverAddress",
          "type": "address"
        },
        {
          "internalType": "address[]",
          "name": "assets",
          "type": "address[]"
        },
        {
          "internalType": "uint256[]",
          "name": "amounts",
          "type": "uint256[]"
        },
        {
          "internalType": "uint256[]",
          "name": "",
          "type": "uint256[]"
        },
        {
          "internalType": "address",
          "name": "",
          "type": "address"
        },
        {
          "internalType": "bytes",
          "name": "params",
          "type": "bytes"
        },
        {
          "internalType": "uint16",
          "name": "",
          "type": "uint16"
        }
      ],
      "name": "flashLoan",
      "outputs": [],
      "stateMutability": "nonpayable",
      "type": "function"
    }
  ],
  "bytecode": "0x608060405234801561001057600080fd5b50610ad4806100206000396000f3fe608060405234801561001057600080fd5b506004361061002b5760003560e01c8063ab9c4b5d14610030575b600080fd5b610281600480360360e081101561004657600080fd5b6001600160a01b038235169190810190604081016020820135600160201b81111561007057600080fd5b82018360208201111561008257600080fd5b803590602001918460208302840111600160201b831117156100a357600080fd5b9190808060200260200160405190810160405280939291908181526020018383602002808284376000920191909152509295949360208101935035915050600160201b8111156100f257600080fd5b82018360208201111561010457600080fd5b803590602001918460208302840111600160201b8311171561012557600080fd5b9190808060200260200160405190810160405280939291908181526020018383602002808284376000920191909152509295949360208101935035915050600160201b81111561017457600080fd5b82018360208201111561018657600080fd5b803590602001918460208302840111600160201b831117156101a757600080fd5b91908080602002602001604051908101604052809392919081815260200183836020028082843760009201919091525092956001600160a01b03853516959094909350604081019250602001359050600160201b81111561020757600080fd5b82018360208201111561021957600080fd5b803590602001918460018302840111600160201b8311171561023a57600080fd5b91908080601f0160208091040260200160405190810160405280939291908181526020018383808284376000920191909152509295505050903561ffff1691506102839050565b005b60005b86518110156102db576102d38887838151811061029f57fe5b60200260200101518984815181106102b357fe5b60200260200101516001600160a01b03166106079092919063ffffffff16565b600101610286565b506000865167ffffffffffffffff811180156102f657600080fd5b50604051908082528060200260200182016040528015610320578160200160208202803683370190505b50905060005b8751811015610376576103576103e888838151811061034157fe5b602002602001015161065e90919063ffffffff16565b82828151811061036357fe5b6020908102919091010152600101610326565b50876001600160a01b031663920f5c8488888433886040518663ffffffff1660e01b815260040180806020018060200180602001866001600160a01b031681526020018060200185810385528a818151815260200191508051906020019060200280838360005b838110156103f55781810151838201526020016103dd565b50505050905001858103845289818151815260200191508051906020019060200280838360005b8381101561043457818101518382015260200161041c565b50505050905001858103835288818151815260200191508051906020019060200280838360005b8381101561047357818101518382015260200161045b565b50505050905001858103825286818151815260200191508051906020019080838360005b838110156104af578181015183820152602001610497565b50505050905090810190601f1680156104dc5780820380516001836020036101000a031916815260200191505b509950505050505050505050602060405180830381600087803b15801561050257600080fd5b505af1158015610516573d6000803e3d6000fd5b505050506040513d602081101561052c57600080fd5b505161057d576040805162461bcd60e51b815260206004820152601b60248201527a3330b4b632b2103a379032bc32b1baba329037b832b930ba34b7b760291b604482015290519081900360640190fd5b60005b87518110156105fc576105f489306105c785858151811061059d57fe5b60200260200101518b86815181106105b157fe5b60200260200101516106c290919063ffffffff16565b8b85815181106105d357fe5b60200260200101516001600160a01b0316610721909392919063ffffffff16565b600101610580565b505050505050505050565b604080516001600160a01b038416602482015260448082018490528251808303909101815260649091019091526020810180516001600160e01b031663a9059cbb60e01b179052610659908490610781565b505050565b60008082116106b1576040805162461bcd60e51b815260206004820152601a602482015279536166654d6174683a206469766973696f6e206279207a65726f60301b604482015290519081900360640190fd5b8183816106ba57fe5b049392505050565b60008282018381101561071a576040805162461bcd60e51b815260206004820152601b60248201527a536166654d6174683a206164646974696f6e206f766572666c6f7760281b604482015290519081900360640190fd5b9392505050565b604080516001600160a01b0380861660248301528416604482015260648082018490528251808303909101815260849091019091526020810180516001600160e01b03166323b872dd60e01b17905261077b908590610781565b50505050565b60006107d6826040518060400160405280602081526020017f5361666545524332303a206c6f772d6c6576656c2063616c6c206661696c6564815250856001600160a01b03166108329092919063ffffffff16565b805190915015610659578080602001905160208110156107f557600080fd5b50516106595760405162461bcd60e51b815260040180806020018281038252602a815260200180610a75602a913960400191505060405180910390fd5b60606108418484600085610849565b949350505050565b60608247101561088a5760405162461bcd60e51b8152600401808060200182810382526026815260200180610a4f6026913960400191505060405180910390fd5b610893856109a4565b6108e4576040805162461bcd60e51b815260206004820152601d60248201527f416464726573733a2063616c6c20746f206e6f6e2d636f6e7472616374000000604482015290519081900360640190fd5b600080866001600160a01b031685876040518082805190602001908083835b602083106109225780518252601f199092019160209182019101610903565b6001836020036101000a03801982511681845116808217855250505050505090500191505060006040518083038185875af1925050503d8060008114610984576040519150601f19603f3d011682016040523d82523d6000602084013e610989565b606091505b50915091506109998282866109aa565b979650505050505050565b3b151590565b606083156109b957508161071a565b8251156109c95782518084602001fd5b8160405162461bcd60e51b81526004018080602001828103825283818151815260200191508051906020019080838360005b83811015610a135781810151838201526020016109fb565b50505050905090810190601f168015610a405780820380516001836020036101000a031916815260200191505b509250505060405180910390fdfe416464726573733a20696e73756666696369656e742062616c616e636520666f722063616c6c5361666545524332303a204552433230206f7065726174696f6e20646964206e6f742073756363656564a2646970667358221220de8c0694b857a64388ddb961b2510d884d854d3b00b94b8e780787d6a5bb8b3064736f6c63430007060033",
  "linkReferences": {},
  "deployedLinkReferences": {}
}