{
  "_format": "hh-sol-artifact-1",
  "contractName": "MedianTWAPAggregator",
  "sourceName": "contracts/priceAggregators/MedianTWAPAggregator.sol",
  "abi": [
    {
      "inputs": [
        {
          "internalType": "contract IUniswapV2Pair",
          "name": "_pair",
          "type": "address"
        },
        {
          "internalType": "address",
          "name": "_mainToken",
          "type": "address"
        },
        {
          "internalType": "contract IAggregatorV3Interface",
          "name": "_pairTokenUsdAggregator",
          "type": "address"
        },
        {
          "internalType": "uint256",
          "name": "_updateInterval",
          "type": "uint256"
        },
        {
          "internalType": "uint32",
          "name": "_volatilityTripLimit",
          "type": "uint32"
        }
      ],
      "stateMutability": "nonpayable",
      "type": "constructor"
    },
    {
      "anonymous": false,
      "inputs": [
        {
          "indexed": true,
          "internalType": "address",
          "name": "previousOwner",
          "type": "address"
        },
        {
          "indexed": true,
          "internalType": "address",
          "name": "newOwner",
          "type": "address"
        }
      ],
      "name": "OwnershipTransferred",
      "type": "event"
    },
    {
      "anonymous": false,
      "inputs": [
        {
          "indexed": false,
          "internalType": "address",
          "name": "account",
          "type": "address"
        }
      ],
      "name": "Paused",
      "type": "event"
    },
    {
      "anonymous": false,
      "inputs": [
        {
          "indexed": false,
          "internalType": "address",
          "name": "account",
          "type": "address"
        }
      ],
      "name": "Unpaused",
      "type": "event"
    },
    {
      "anonymous": false,
      "inputs": [
        {
          "indexed": false,
          "internalType": "uint256",
          "name": "updateInterval",
          "type": "uint256"
        }
      ],
      "name": "UpdateIntervalSet",
      "type": "event"
    },
    {
      "anonymous": false,
      "inputs": [
        {
          "indexed": false,
          "internalType": "address",
          "name": "caller",
          "type": "address"
        }
      ],
      "name": "Updated",
      "type": "event"
    },
    {
      "anonymous": false,
      "inputs": [
        {
          "indexed": false,
          "internalType": "address",
          "name": "caller",
          "type": "address"
        },
        {
          "indexed": false,
          "internalType": "uint256",
          "name": "amount",
          "type": "uint256"
        }
      ],
      "name": "UpdatedWithIncentive",
      "type": "event"
    },
    {
      "anonymous": false,
      "inputs": [
        {
          "indexed": false,
          "internalType": "uint32",
          "name": "volatilityTripLimit",
          "type": "uint32"
        }
      ],
      "name": "VolatilityTripLimitSet",
      "type": "event"
    },
    {
      "anonymous": false,
      "inputs": [
        {
          "indexed": false,
          "internalType": "uint256",
          "name": "withdrawAmount",
          "type": "uint256"
        }
      ],
      "name": "Withdraw",
      "type": "event"
    },
    {
      "stateMutability": "payable",
      "type": "fallback"
    },
    {
      "inputs": [],
      "name": "blockTimestampLast",
      "outputs": [
        {
          "internalType": "uint32",
          "name": "",
          "type": "uint32"
        }
      ],
      "stateMutability": "view",
      "type": "function"
    },
    {
      "inputs": [],
      "name": "consult",
      "outputs": [
        {
          "internalType": "int256",
          "name": "price",
          "type": "int256"
        }
      ],
      "stateMutability": "view",
      "type": "function"
    },
    {
      "inputs": [],
      "name": "decimals",
      "outputs": [
        {
          "internalType": "uint8",
          "name": "",
          "type": "uint8"
        }
      ],
      "stateMutability": "pure",
      "type": "function"
    },
    {
      "inputs": [
        {
          "internalType": "int256",
          "name": "twapA",
          "type": "int256"
        },
        {
          "internalType": "int256",
          "name": "twapB",
          "type": "int256"
        }
      ],
      "name": "highVolatility",
      "outputs": [
        {
          "internalType": "bool",
          "name": "volatilityHigh",
          "type": "bool"
        }
      ],
      "stateMutability": "view",
      "type": "function"
    },
    {
      "inputs": [],
      "name": "latestRoundData",
      "outputs": [
        {
          "internalType": "uint80",
          "name": "roundId",
          "type": "uint80"
        },
        {
          "internalType": "int256",
          "name": "answer",
          "type": "int256"
        },
        {
          "internalType": "uint256",
          "name": "startedAt",
          "type": "uint256"
        },
        {
          "internalType": "uint256",
          "name": "updatedAt",
          "type": "uint256"
        },
        {
          "internalType": "uint80",
          "name": "answeredInRound",
          "type": "uint80"
        }
      ],
      "stateMutability": "view",
      "type": "function"
    },
    {
      "inputs": [],
      "name": "mainToken",
      "outputs": [
        {
          "internalType": "address",
          "name": "",
          "type": "address"
        }
      ],
      "stateMutability": "view",
      "type": "function"
    },
    {
      "inputs": [],
      "name": "mainTokenDecimals",
      "outputs": [
        {
          "internalType": "uint256",
          "name": "",
          "type": "uint256"
        }
      ],
      "stateMutability": "view",
      "type": "function"
    },
    {
      "inputs": [],
      "name": "maxGasPrice",
      "outputs": [
        {
          "internalType": "uint256",
          "name": "",
          "type": "uint256"
        }
      ],
      "stateMutability": "view",
      "type": "function"
    },
    {
      "inputs": [],
      "name": "maxGasUsed",
      "outputs": [
        {
          "internalType": "uint256",
          "name": "",
          "type": "uint256"
        }
      ],
      "stateMutability": "view",
      "type": "function"
    },
    {
      "inputs": [],
      "name": "owner",
      "outputs": [
        {
          "internalType": "address",
          "name": "",
          "type": "address"
        }
      ],
      "stateMutability": "view",
      "type": "function"
    },
    {
      "inputs": [],
      "name": "pair",
      "outputs": [
        {
          "internalType": "contract IUniswapV2Pair",
          "name": "",
          "type": "address"
        }
      ],
      "stateMutability": "view",
      "type": "function"
    },
    {
      "inputs": [],
      "name": "pairTokenDecimals",
      "outputs": [
        {
          "internalType": "uint256",
          "name": "",
          "type": "uint256"
        }
      ],
      "stateMutability": "view",
      "type": "function"
    },
    {
      "inputs": [],
      "name": "pairTokenUsdAggregator",
      "outputs": [
        {
          "internalType": "contract IAggregatorV3Interface",
          "name": "",
          "type": "address"
        }
      ],
      "stateMutability": "view",
      "type": "function"
    },
    {
      "inputs": [],
      "name": "pause",
      "outputs": [],
      "stateMutability": "nonpayable",
      "type": "function"
    },
    {
      "inputs": [],
      "name": "paused",
      "outputs": [
        {
          "internalType": "bool",
          "name": "",
          "type": "bool"
        }
      ],
      "stateMutability": "view",
      "type": "function"
    },
    {
      "inputs": [],
      "name": "priceCumulativeLast",
      "outputs": [
        {
          "internalType": "uint256",
          "name": "",
          "type": "uint256"
        }
      ],
      "stateMutability": "view",
      "type": "function"
    },
    {
      "inputs": [],
      "name": "renounceOwnership",
      "outputs": [],
      "stateMutability": "nonpayable",
      "type": "function"
    },
    {
      "inputs": [
        {
          "internalType": "uint256",
          "name": "_updateInterval",
          "type": "uint256"
        }
      ],
      "name": "setUpdateInterval",
      "outputs": [],
      "stateMutability": "nonpayable",
      "type": "function"
    },
    {
      "inputs": [
        {
          "internalType": "uint32",
          "name": "_volatilityTripLimit",
          "type": "uint32"
        }
      ],
      "name": "setVolatilityTripLimit",
      "outputs": [],
      "stateMutability": "nonpayable",
      "type": "function"
    },
    {
      "inputs": [
        {
          "internalType": "address",
          "name": "newOwner",
          "type": "address"
        }
      ],
      "name": "transferOwnership",
      "outputs": [],
      "stateMutability": "nonpayable",
      "type": "function"
    },
    {
      "inputs": [],
      "name": "twapLastIndex",
      "outputs": [
        {
          "internalType": "uint256",
          "name": "",
          "type": "uint256"
        }
      ],
      "stateMutability": "view",
      "type": "function"
    },
    {
      "inputs": [
        {
          "internalType": "uint256",
          "name": "",
          "type": "uint256"
        }
      ],
      "name": "twaps",
      "outputs": [
        {
          "internalType": "int256",
          "name": "",
          "type": "int256"
        }
      ],
      "stateMutability": "view",
      "type": "function"
    },
    {
      "inputs": [],
      "name": "unpause",
      "outputs": [],
      "stateMutability": "nonpayable",
      "type": "function"
    },
    {
      "inputs": [],
      "name": "update",
      "outputs": [],
      "stateMutability": "nonpayable",
      "type": "function"
    },
    {
      "inputs": [],
      "name": "updateInterval",
      "outputs": [
        {
          "internalType": "uint256",
          "name": "",
          "type": "uint256"
        }
      ],
      "stateMutability": "view",
      "type": "function"
    },
    {
      "inputs": [],
      "name": "updateWithIncentive",
      "outputs": [],
      "stateMutability": "nonpayable",
      "type": "function"
    },
    {
      "inputs": [],
      "name": "volatilityTripLimit",
      "outputs": [
        {
          "internalType": "uint32",
          "name": "",
          "type": "uint32"
        }
      ],
      "stateMutability": "view",
      "type": "function"
    },
    {
      "inputs": [
        {
          "internalType": "uint256",
          "name": "amount",
          "type": "uint256"
        }
      ],
      "name": "withdraw",
      "outputs": [],
      "stateMutability": "nonpayable",
      "type": "function"
    },
    {
      "stateMutability": "payable",
      "type": "receive"
    }
  ],
  "bytecode": "0x60e0604052642e90edd0006008556201fbd06009553480156200002157600080fd5b506040516200259c3803806200259c833981810160405260a08110156200004757600080fd5b50805160208201516040830151606084015160809094015192939192909190600062000072620004bb565b600080546001600160a01b0319166001600160a01b0383169081178255604051929350917f8be0079c531659141344cd1fd0a4f28419497f9722a3daafe3b4186f6b6457e0908290a3506000805460ff60a01b191690556001600160601b0319606086811b821660805285811b821660a05284901b1660c05260078290556004805463ffffffff83166401000000000263ffffffff60201b199091161781556040805163313ce56760e01b815290516001600160a01b0387169263313ce56792808201926020929091829003018186803b1580156200015057600080fd5b505afa15801562000165573d6000803e3d6000fd5b505050506040513d60208110156200017c57600080fd5b505160ff1660015560408051630dfe168160e01b815290516001600160a01b03871691630dfe1681916004808301926020929190829003018186803b158015620001c557600080fd5b505afa158015620001da573d6000803e3d6000fd5b505050506040513d6020811015620001f157600080fd5b50516001600160a01b03858116911614156200035e57846001600160a01b0316635909c0d56040518163ffffffff1660e01b815260040160206040518083038186803b1580156200024157600080fd5b505afa15801562000256573d6000803e3d6000fd5b505050506040513d60208110156200026d57600080fd5b50516003556040805163d21220a760e01b815290516001600160a01b0387169163d21220a7916004808301926020929190829003018186803b158015620002b357600080fd5b505afa158015620002c8573d6000803e3d6000fd5b505050506040513d6020811015620002df57600080fd5b50516040805163313ce56760e01b815290516001600160a01b039092169163313ce56791600480820192602092909190829003018186803b1580156200032457600080fd5b505afa15801562000339573d6000803e3d6000fd5b505050506040513d60208110156200035057600080fd5b505160ff16600255620004b0565b846001600160a01b0316635a3d54936040518163ffffffff1660e01b815260040160206040518083038186803b1580156200039857600080fd5b505afa158015620003ad573d6000803e3d6000fd5b505050506040513d6020811015620003c457600080fd5b505160035560408051630dfe168160e01b815290516001600160a01b03871691630dfe1681916004808301926020929190829003018186803b1580156200040a57600080fd5b505afa1580156200041f573d6000803e3d6000fd5b505050506040513d60208110156200043657600080fd5b50516040805163313ce56760e01b815290516001600160a01b039092169163313ce56791600480820192602092909190829003018186803b1580156200047b57600080fd5b505afa15801562000490573d6000803e3d6000fd5b505050506040513d6020811015620004a757600080fd5b505160ff166002555b5050505050620004bf565b3390565b60805160601c60a05160601c60c05160601c6120896200051360003980610a3f5280611077528061112a52806111e95250806107b85280611411525080610e4b52806112fe528061138c52506120896000f3fe60806040526004361061014b5760003560e01c806313b17e25146101545780632e1a7d4d146101695780632f43c1bc14610193578063313ce567146101ba5780633aa0596b146101e55780633de39c11146101fa5780633f4ba83a1461020f5780633fc15f151461022457806341562cbb146102555780634afadc271461026a5780635c975abb146102ae578063685cb8a1146102c35780637124c683146102f3578063715018a61461031d5780637e539a41146103325780637eeda703146103475780638456cb591461035c5780638d288aec146103715780638da5cb5b14610386578063a2e620451461039b578063a8aa1b31146103b0578063b11ddc73146103c5578063b393211e146103f3578063c5700a021461041d578063ee29e03314610432578063f2fde38b14610447578063fd2c80ae1461047a578063feaf968c1461048f57610152565b3661015257005b005b34801561016057600080fd5b506101526104e8565b34801561017557600080fd5b506101526004803603602081101561018c57600080fd5b5035610622565b34801561019f57600080fd5b506101a8610732565b60408051918252519081900360200190f35b3480156101c657600080fd5b506101cf610738565b6040805160ff9092168252519081900360200190f35b3480156101f157600080fd5b506101a861073e565b34801561020657600080fd5b506101a8610744565b34801561021b57600080fd5b5061015261074a565b34801561023057600080fd5b506102396107b6565b604080516001600160a01b039092168252519081900360200190f35b34801561026157600080fd5b506101a86107da565b34801561027657600080fd5b5061029a6004803603604081101561028d57600080fd5b50803590602001356107e0565b604080519115158252519081900360200190f35b3480156102ba57600080fd5b5061029a610828565b3480156102cf57600080fd5b50610152600480360360208110156102e657600080fd5b503563ffffffff16610838565b3480156102ff57600080fd5b506101526004803603602081101561031657600080fd5b50356108f4565b34801561032957600080fd5b50610152610991565b34801561033e57600080fd5b50610239610a3d565b34801561035357600080fd5b506101a8610a61565b34801561036857600080fd5b50610152610d8d565b34801561037d57600080fd5b506101a8610df7565b34801561039257600080fd5b50610239610dfd565b3480156103a757600080fd5b50610152610e0c565b3480156103bc57600080fd5b50610239610e49565b3480156103d157600080fd5b506103da610e6d565b6040805163ffffffff9092168252519081900360200190f35b3480156103ff57600080fd5b506101a86004803603602081101561041657600080fd5b5035610e80565b34801561042957600080fd5b506103da610e92565b34801561043e57600080fd5b506101a8610e9e565b34801561045357600080fd5b506101526004803603602081101561046a57600080fd5b50356001600160a01b0316610ea4565b34801561048657600080fd5b506101a8610fa6565b34801561049b57600080fd5b506104a4610fac565b60405180866001600160501b03168152602001858152602001848152602001838152602001826001600160501b031681526020019550505050505060405180910390f35b6104f06112a7565b60003a90506000610516826008541161050b5760085461050d565b825b600954906114e0565b90506000610537600a61052884611542565b6001600160801b031690611684565b9050600061054583836116e8565b604051909150600090339083908381818185875af1925050503d806000811461058a576040519150601f19603f3d011682016040523d82523d6000602084013e61058f565b606091505b50509050806105e0576040805162461bcd60e51b81526020600482015260186024820152776661696c656420746f2073656e6420696e63656e7469766560401b604482015290519081900360640190fd5b604080513381526020810184905281517f3b3616e706ba9bff5f1dc5cefe682ee27fe4eed0a1339c3ac4dee183a013ea8b929181900390910190a15050505050565b61062a611740565b6001600160a01b031661063b610dfd565b6001600160a01b031614610684576040805162461bcd60e51b81526020600482018190526024820152600080516020611fed833981519152604482015290519081900360640190fd5b478111156106ce576040805162461bcd60e51b815260206004820152601260248201527162616c616e636520697320746f6f206c6f7760701b604482015290519081900360640190fd5b604051339082156108fc029083906000818181858888f193505050501580156106fb573d6000803e3d6000fd5b506040805182815290517f5b6b431d4476a211bb7d41c20d1aab9ae2321deee0d20be3d9fc9b1093fa6e3d9181900360200190a150565b60035481565b60085b90565b60095481565b60085481565b610752611740565b6001600160a01b0316610763610dfd565b6001600160a01b0316146107ac576040805162461bcd60e51b81526020600482018190526024820152600080516020611fed833981519152604482015290519081900360640190fd5b6107b4611744565b565b7f000000000000000000000000000000000000000000000000000000000000000081565b60015481565b600080610803846107fd60646107f78789036117e7565b906114e0565b90611684565b600454909150600160201b900463ffffffff16811061082157600191505b5092915050565b600054600160a01b900460ff1690565b610840611740565b6001600160a01b0316610851610dfd565b6001600160a01b03161461089a576040805162461bcd60e51b81526020600482018190526024820152600080516020611fed833981519152604482015290519081900360640190fd5b6004805463ffffffff8316600160201b810263ffffffff60201b199092169190911790915560408051918252517f78d641b3a626801dec2f36297c8d58fd5cbb4af2a038f23db961d4db37874db39181900360200190a150565b6108fc611740565b6001600160a01b031661090d610dfd565b6001600160a01b031614610956576040805162461bcd60e51b81526020600482018190526024820152600080516020611fed833981519152604482015290519081900360640190fd5b60078190556040805182815290517f06a60a6a9bd26df0b38af118b3bfbf636cfe2705ef44a124c5baa2502c68c6669181900360200190a150565b610999611740565b6001600160a01b03166109aa610dfd565b6001600160a01b0316146109f3576040805162461bcd60e51b81526020600482018190526024820152600080516020611fed833981519152604482015290519081900360640190fd5b600080546040516001600160a01b03909116907f8be0079c531659141344cd1fd0a4f28419497f9722a3daafe3b4186f6b6457e0908390a3600080546001600160a01b0319169055565b7f000000000000000000000000000000000000000000000000000000000000000081565b6000610a6b610828565b15610ab0576040805162461bcd60e51b815260206004820152601060248201526f14185d5cd8589b194e881c185d5cd95960821b604482015290519081900360640190fd5b600360065411610afa576040805162461bcd60e51b815260206004820152601060248201526f6e6f7420656e6f75676820747761707360801b604482015290519081900360640190fd5b600654600019810160009081526005602052604080822054600119909301825290205413610cf55760065460008181526005602052604080822054600019909301825290205413610bc957600654600119810160009081526005602052604080822054928252902054610b6d91906107e0565b15610bad576040805162461bcd60e51b81526020600482015260196024820152600080516020612034833981519152604482015290519081900360640190fd5b506006546000190160009081526005602052604090205461073b565b60065460011981016000908152600560205260408082205492825290205413610c7057600654600081815260056020526040808220546000199093018252902054610c1491906107e0565b15610c54576040805162461bcd60e51b81526020600482015260196024820152600080516020612034833981519152604482015290519081900360640190fd5b506006546001190160009081526005602052604090205461073b565b6006546000198101600090815260056020526040808220546001199093018252902054610c9d91906107e0565b15610cdd576040805162461bcd60e51b81526020600482015260196024820152600080516020612034833981519152604482015290519081900360640190fd5b5060065460009081526005602052604090205461073b565b6006546000818152600560205260408082205460001990930182529020541315610d4157600654600081815260056020526040808220546001199093018252902054610b6d91906107e0565b6006546001198101600090815260056020526040808220549282529020541315610c7057600654600081815260056020526040808220546000199093018252902054610c1491906107e0565b610d95611740565b6001600160a01b0316610da6610dfd565b6001600160a01b031614610def576040805162461bcd60e51b81526020600482018190526024820152600080516020611fed833981519152604482015290519081900360640190fd5b6107b46117fe565b60025481565b6000546001600160a01b031690565b610e146112a7565b6040805133815290517fe00da2178806f37f69815e9ed5ed3072ec1d55206d60916d99b469c7daa421e49181900360200190a1565b7f000000000000000000000000000000000000000000000000000000000000000081565b600454600160201b900463ffffffff1681565b60056020526000908152604090205481565b60045463ffffffff1681565b60065481565b610eac611740565b6001600160a01b0316610ebd610dfd565b6001600160a01b031614610f06576040805162461bcd60e51b81526020600482018190526024820152600080516020611fed833981519152604482015290519081900360640190fd5b6001600160a01b038116610f4b5760405162461bcd60e51b8152600401808060200182810382526026815260200180611f5f6026913960400191505060405180910390fd5b600080546040516001600160a01b03808516939216917f8be0079c531659141344cd1fd0a4f28419497f9722a3daafe3b4186f6b6457e091a3600080546001600160a01b0319166001600160a01b0392909216919091179055565b60075481565b6000806000806000610fbc610828565b15611001576040805162461bcd60e51b815260206004820152601060248201526f14185d5cd8589b194e881c185d5cd95960821b604482015290519081900360640190fd5b60045460075463ffffffff91821691429161102b916110249190600c906114e016565b83906116e8565b11611072576040805162461bcd60e51b81526020600482015260126024820152711515d054081c1c9a58d948195e1c1a5c995960721b604482015290519081900360640190fd5b6000807f00000000000000000000000000000000000000000000000000000000000000006001600160a01b031663feaf968c6040518163ffffffff1660e01b815260040160a06040518083038186803b1580156110ce57600080fd5b505afa1580156110e2573d6000803e3d6000fd5b505050506040513d60a08110156110f857600080fd5b50602081015160609091015190925090508083116111165782611118565b805b9450600860025410156111e4576111dd7f00000000000000000000000000000000000000000000000000000000000000006001600160a01b031663313ce5676040518163ffffffff1660e01b815260040160206040518083038186803b15801561118157600080fd5b505afa158015611195573d6000803e3d6000fd5b505050506040513d60208110156111ab57600080fd5b505160025460ff909116600a90810a916111d791600891909103900a6111d18681610a61565b90611887565b90611930565b9650611293565b6112907f00000000000000000000000000000000000000000000000000000000000000006001600160a01b031663313ce5676040518163ffffffff1660e01b815260040160206040518083038186803b15801561124057600080fd5b505afa158015611254573d6000803e3d6000fd5b505050506040513d602081101561126a57600080fd5b505160025460ff909116600a90810a916111d791600719909101900a81866111d1610a61565b96505b506000965086945084925050509091929394565b6112af610828565b156112f4576040805162461bcd60e51b815260206004820152601060248201526f14185d5cd8589b194e881c185d5cd95960821b604482015290519081900360640190fd5b60008060006113227f00000000000000000000000000000000000000000000000000000000000000006119e8565b600454600754939650919450925063ffffffff9081168303919082161015611388576040805162461bcd60e51b81526020600482015260146024820152731c195c9a5bd9081a5cc81b9bdd081c185cdcd95960621b604482015290519081900360640190fd5b60007f00000000000000000000000000000000000000000000000000000000000000006001600160a01b0316630dfe16816040518163ffffffff1660e01b815260040160206040518083038186803b1580156113e357600080fd5b505afa1580156113f7573d6000803e3d6000fd5b505050506040513d602081101561140d57600080fd5b50517f00000000000000000000000000000000000000000000000000000000000000006001600160a01b03908116911614611448578361144a565b845b905060066000815480929190600101919050555061149f61149a600154600a0a60405180602001604052808663ffffffff1660035487038161148857fe5b046001600160e01b0316905290611bd7565b611c67565b60065460009081526005602052604090206001600160901b03919091169055600355506004805463ffffffff191663ffffffff929092169190911790555050565b6000826114ef5750600061153c565b828202828482816114fc57fe5b04146115395760405162461bcd60e51b8152600401808060200182810382526021815260200180611fcc6021913960400191505060405180910390fd5b90505b92915050565b6000816115515750600061167f565b816001600160801b821061156a5760809190911c9060401b5b600160401b82106115805760409190911c9060201b5b600160201b82106115965760209190911c9060101b5b6201000082106115ab5760109190911c9060081b5b61010082106115bf5760089190911c9060041b5b601082106115d25760049190911c9060021b5b600882106115de5760011b5b60018185816115e957fe5b048201901c905060018185816115fb57fe5b048201901c9050600181858161160d57fe5b048201901c9050600181858161161f57fe5b048201901c9050600181858161163157fe5b048201901c9050600181858161164357fe5b048201901c9050600181858161165557fe5b048201901c9050600081858161166757fe5b0490508082106116775780611679565b815b93505050505b919050565b60008082116116d7576040805162461bcd60e51b815260206004820152601a602482015279536166654d6174683a206469766973696f6e206279207a65726f60301b604482015290519081900360640190fd5b8183816116e057fe5b049392505050565b600082820183811015611539576040805162461bcd60e51b815260206004820152601b60248201527a536166654d6174683a206164646974696f6e206f766572666c6f7760281b604482015290519081900360640190fd5b3390565b61174c610828565b611794576040805162461bcd60e51b815260206004820152601460248201527314185d5cd8589b194e881b9bdd081c185d5cd95960621b604482015290519081900360640190fd5b6000805460ff60a01b191690557f5db9ee0a495bf2e6ff9c91a7834c1ba4fdd244a5e8aa4e537bd38aeae4b073aa6117ca611740565b604080516001600160a01b039092168252519081900360200190a1565b6000808212156117fa578160000361153c565b5090565b611806610828565b1561184b576040805162461bcd60e51b815260206004820152601060248201526f14185d5cd8589b194e881c185d5cd95960821b604482015290519081900360640190fd5b6000805460ff60a01b1916600160a01b1790557f62e78cea01bee320cd4e420270b5ea74000d11b0c9f74754ebdbfc544b05a2586117ca611740565b6000826118965750600061153c565b826000191480156118aa5750600160ff1b82145b156118e65760405162461bcd60e51b815260040180806020018281038252602781526020018061200d6027913960400191505060405180910390fd5b828202828482816118f357fe5b05146115395760405162461bcd60e51b815260040180806020018281038252602781526020018061200d6027913960400191505060405180910390fd5b600081611984576040805162461bcd60e51b815260206004820181905260248201527f5369676e6564536166654d6174683a206469766973696f6e206279207a65726f604482015290519081900360640190fd5b816000191480156119985750600160ff1b83145b156119d45760405162461bcd60e51b8152600401808060200182810382526021815260200180611fab6021913960400191505060405180910390fd5b60008284816119df57fe5b05949350505050565b60008060006119f5611c6e565b9050836001600160a01b0316635909c0d56040518163ffffffff1660e01b815260040160206040518083038186803b158015611a3057600080fd5b505afa158015611a44573d6000803e3d6000fd5b505050506040513d6020811015611a5a57600080fd5b505160408051635a3d549360e01b815290519194506001600160a01b03861691635a3d549391600480820192602092909190829003018186803b158015611aa057600080fd5b505afa158015611ab4573d6000803e3d6000fd5b505050506040513d6020811015611aca57600080fd5b505160408051630240bc6b60e21b81529051919350600091829182916001600160a01b03891691630902f1ac916004808301926060929190829003018186803b158015611b1657600080fd5b505afa158015611b2a573d6000803e3d6000fd5b505050506040513d6060811015611b4057600080fd5b5080516020820151604090920151909450909250905063ffffffff80821690851614611bcd5780840363ffffffff8116611b866001600160701b03808616908716611c78565b600001516001600160e01b031602870196508063ffffffff16611bbb856001600160701b0316856001600160701b0316611c78565b516001600160e01b0316029590950194505b5050509193909250565b611bdf611f39565b6000821580611c0557505082516001600160e01b031682810290838281611c0257fe5b04145b611c52576040805162461bcd60e51b81526020600482015260196024820152784669786564506f696e743a3a6d756c3a206f766572666c6f7760381b604482015290519081900360640190fd5b60408051602081019091529081529392505050565b5160701c90565b63ffffffff421690565b611c80611f4c565b60008211611cbf5760405162461bcd60e51b8152600401808060200182810382526026815260200180611f856026913960400191505060405180910390fd5b82611cd9575060408051602081019091526000815261153c565b6001600160901b038311611d7557600082607085901b81611cf657fe5b0490506001600160e01b03811115611d55576040805162461bcd60e51b815260206004820152601e60248201527f4669786564506f696e743a3a6672616374696f6e3a206f766572666c6f770000604482015290519081900360640190fd5b6040518060200160405280826001600160e01b031681525091505061153c565b6000611d8684600160701b85611de4565b90506001600160e01b03811115611d55576040805162461bcd60e51b815260206004820152601e60248201527f4669786564506f696e743a3a6672616374696f6e3a206f766572666c6f770000604482015290519081900360640190fd5b6000806000611df38686611e9c565b9150915060008480611e0157fe5b868809905082811115611e15576001820391505b918290039181611e3357848381611e2857fe5b049350505050611e95565b848210611e84576040805162461bcd60e51b815260206004820152601a60248201527946756c6c4d6174683a2046554c4c4449565f4f564552464c4f5760301b604482015290519081900360640190fd5b611e8f838387611ec9565b93505050505b9392505050565b6000808060001984860990508385029250828103915082811015611ec1576001820391505b509250929050565b60008181038216808381611ed957fe5b049250808581611ee557fe5b049450808160000381611ef457fe5b60028581038087028203028087028203028087028203028087028203028087028203028087028203029586029003909402930460010193909302939093010292915050565b6040518060200160405280600081525090565b6040805160208101909152600081529056fe4f776e61626c653a206e6577206f776e657220697320746865207a65726f20616464726573734669786564506f696e743a3a6672616374696f6e3a206469766973696f6e206279207a65726f5369676e6564536166654d6174683a206469766973696f6e206f766572666c6f77536166654d6174683a206d756c7469706c69636174696f6e206f766572666c6f774f776e61626c653a2063616c6c6572206973206e6f7420746865206f776e65725369676e6564536166654d6174683a206d756c7469706c69636174696f6e206f766572666c6f77707269636520766f6c6174696c69747920746f6f206869676800000000000000a2646970667358221220a06581ce797788a5d6049cea79816a3bb18697a57f695961b7a9aff5c933a13164736f6c63430007060033",
  "linkReferences": {},
  "deployedLinkReferences": {}
}