{
  "_format": "hh-sol-artifact-1",
  "contractName": "SonneFinancePriceAggregatorMock",
  "sourceName": "contracts/test/SonneFinancePriceAggregatorMock.sol",
  "abi": [
    {
      "inputs": [
        {
          "internalType": "address",
          "name": "cToken_",
          "type": "address"
        },
        {
          "internalType": "uint256",
          "name": "initialExchangeRateMantissa_",
          "type": "uint256"
        }
      ],
      "stateMutability": "nonpayable",
      "type": "constructor"
    },
    {
      "inputs": [
        {
          "internalType": "address",
          "name": "cToken_",
          "type": "address"
        },
        {
          "internalType": "uint256",
          "name": "intitialExchangeRateMantissa_",
          "type": "uint256"
        }
      ],
      "name": "exchangeRate",
      "outputs": [
        {
          "internalType": "uint256",
          "name": "exchangeRate_",
          "type": "uint256"
        }
      ],
      "stateMutability": "view",
      "type": "function"
    }
  ],
  "bytecode": "0x60806040523480156200001157600080fd5b5060405162000bd938038062000bd983398181016040528101906200003791906200080b565b600081905060006200005084836200008260201b60201c565b905060008160405160200162000067919062000863565b60405160208183030381529060405290506020810180590381f35b60008083905060008173ffffffffffffffffffffffffffffffffffffffff166318160ddd6040518163ffffffff1660e01b8152600401602060405180830381865afa158015620000d6573d6000803e3d6000fd5b505050506040513d601f19601f82011682018060405250810190620000fc919062000880565b90506000811415620001135783925050506200017a565b600080600062000129886200018060201b60201c565b9250925092506000818385620001409190620008e1565b6200014c91906200093e565b905084670de0b6b3a76400008262000165919062000979565b62000171919062000a09565b96505050505050505b92915050565b600080600080849050600042905060008273ffffffffffffffffffffffffffffffffffffffff16636c540baf6040518163ffffffff1660e01b8152600401602060405180830381865afa158015620001dc573d6000803e3d6000fd5b505050506040513d601f19601f8201168201806040525081019062000202919062000880565b905060008773ffffffffffffffffffffffffffffffffffffffff16636f307dc36040518163ffffffff1660e01b8152600401602060405180830381865afa15801562000252573d6000803e3d6000fd5b505050506040513d601f19601f8201168201806040525081019062000278919062000a41565b73ffffffffffffffffffffffffffffffffffffffff166370a08231896040518263ffffffff1660e01b8152600401620002b2919062000a84565b602060405180830381865afa158015620002d0573d6000803e3d6000fd5b505050506040513d601f19601f82011682018060405250810190620002f6919062000880565b905060008473ffffffffffffffffffffffffffffffffffffffff166347bd37186040518163ffffffff1660e01b8152600401602060405180830381865afa15801562000346573d6000803e3d6000fd5b505050506040513d601f19601f820116820180604052508101906200036c919062000880565b905060008573ffffffffffffffffffffffffffffffffffffffff16638f840ddd6040518163ffffffff1660e01b8152600401602060405180830381865afa158015620003bc573d6000803e3d6000fd5b505050506040513d601f19601f82011682018060405250810190620003e2919062000880565b90508484141562000402578282829850985098505050505050506200064f565b60008673ffffffffffffffffffffffffffffffffffffffff1663f3fdb15a6040518163ffffffff1660e01b8152600401602060405180830381865afa15801562000450573d6000803e3d6000fd5b505050506040513d601f19601f8201168201806040525081019062000476919062000ae6565b73ffffffffffffffffffffffffffffffffffffffff166315f240538585856040518463ffffffff1660e01b8152600401620004b49392919062000b18565b602060405180830381865afa158015620004d2573d6000803e3d6000fd5b505050506040513d601f19601f82011682018060405250810190620004f8919062000880565b9050645d21dba00081111562000545576040517f08c379a00000000000000000000000000000000000000000000000000000000081526004016200053c9062000bb6565b60405180910390fd5b600085876200055591906200093e565b9050600062000579604051806020016040528085815250836200065660201b60201c565b905060006200058f82876200068c60201b60201c565b905060008682620005a19190620008e1565b905060006200063760405180602001604052808e73ffffffffffffffffffffffffffffffffffffffff1663173b99046040518163ffffffff1660e01b8152600401602060405180830381865afa15801562000600573d6000803e3d6000fd5b505050506040513d601f19601f8201168201806040525081019062000626919062000880565b8152508489620006bd60201b60201c565b90508882829e509e509e505050505050505050505050505b9193909250565b6200066062000753565b6040518060200160405280620006818560000151856200070060201b60201c565b815250905092915050565b600080620006a184846200065660201b60201c565b9050620006b4816200071860201b60201c565b91505092915050565b600080620006d285856200065660201b60201c565b9050620006f6620006e9826200071860201b60201c565b846200073b60201b60201c565b9150509392505050565b6000818362000710919062000979565b905092915050565b6000670de0b6b3a7640000826000015162000734919062000a09565b9050919050565b600081836200074b9190620008e1565b905092915050565b6040518060200160405280600081525090565b600080fd5b600073ffffffffffffffffffffffffffffffffffffffff82169050919050565b600062000798826200076b565b9050919050565b620007aa816200078b565b8114620007b657600080fd5b50565b600081519050620007ca816200079f565b92915050565b6000819050919050565b620007e581620007d0565b8114620007f157600080fd5b50565b6000815190506200080581620007da565b92915050565b6000806040838503121562000825576200082462000766565b5b60006200083585828601620007b9565b92505060206200084885828601620007f4565b9150509250929050565b6200085d81620007d0565b82525050565b60006020820190506200087a600083018462000852565b92915050565b60006020828403121562000899576200089862000766565b5b6000620008a984828501620007f4565b91505092915050565b7f4e487b7100000000000000000000000000000000000000000000000000000000600052601160045260246000fd5b6000620008ee82620007d0565b9150620008fb83620007d0565b9250827fffffffffffffffffffffffffffffffffffffffffffffffffffffffffffffffff03821115620009335762000932620008b2565b5b828201905092915050565b60006200094b82620007d0565b91506200095883620007d0565b9250828210156200096e576200096d620008b2565b5b828203905092915050565b60006200098682620007d0565b91506200099383620007d0565b9250817fffffffffffffffffffffffffffffffffffffffffffffffffffffffffffffffff0483118215151615620009cf57620009ce620008b2565b5b828202905092915050565b7f4e487b7100000000000000000000000000000000000000000000000000000000600052601260045260246000fd5b600062000a1682620007d0565b915062000a2383620007d0565b92508262000a365762000a35620009da565b5b828204905092915050565b60006020828403121562000a5a5762000a5962000766565b5b600062000a6a84828501620007b9565b91505092915050565b62000a7e816200078b565b82525050565b600060208201905062000a9b600083018462000a73565b92915050565b600062000aae826200078b565b9050919050565b62000ac08162000aa1565b811462000acc57600080fd5b50565b60008151905062000ae08162000ab5565b92915050565b60006020828403121562000aff5762000afe62000766565b5b600062000b0f8482850162000acf565b91505092915050565b600060608201905062000b2f600083018662000852565b62000b3e602083018562000852565b62000b4d604083018462000852565b949350505050565b600082825260208201905092915050565b7f626f72726f772072617465206973206162737572646c79206869676800000000600082015250565b600062000b9e601c8362000b55565b915062000bab8262000b66565b602082019050919050565b6000602082019050818103600083015262000bd18162000b8f565b905091905056fe",
  "deployedBytecode": "0x608060405234801561001057600080fd5b506004361061002b5760003560e01c80637f1fa60914610030575b600080fd5b61004a60048036038101906100459190610753565b610060565b60405161005791906107a2565b60405180910390f35b60008083905060008173ffffffffffffffffffffffffffffffffffffffff166318160ddd6040518163ffffffff1660e01b8152600401602060405180830381865afa1580156100b3573d6000803e3d6000fd5b505050506040513d601f19601f820116820180604052508101906100d791906107d2565b905060008114156100ec578392505050610143565b60008060006100fa88610149565b925092509250600081838561010f919061082e565b6101199190610884565b905084670de0b6b3a76400008261013091906108b8565b61013a9190610941565b96505050505050505b92915050565b600080600080849050600042905060008273ffffffffffffffffffffffffffffffffffffffff16636c540baf6040518163ffffffff1660e01b8152600401602060405180830381865afa1580156101a4573d6000803e3d6000fd5b505050506040513d601f19601f820116820180604052508101906101c891906107d2565b905060008773ffffffffffffffffffffffffffffffffffffffff16636f307dc36040518163ffffffff1660e01b8152600401602060405180830381865afa158015610217573d6000803e3d6000fd5b505050506040513d601f19601f8201168201806040525081019061023b9190610987565b73ffffffffffffffffffffffffffffffffffffffff166370a08231896040518263ffffffff1660e01b815260040161027391906109c3565b602060405180830381865afa158015610290573d6000803e3d6000fd5b505050506040513d601f19601f820116820180604052508101906102b491906107d2565b905060008473ffffffffffffffffffffffffffffffffffffffff166347bd37186040518163ffffffff1660e01b8152600401602060405180830381865afa158015610303573d6000803e3d6000fd5b505050506040513d601f19601f8201168201806040525081019061032791906107d2565b905060008573ffffffffffffffffffffffffffffffffffffffff16638f840ddd6040518163ffffffff1660e01b8152600401602060405180830381865afa158015610376573d6000803e3d6000fd5b505050506040513d601f19601f8201168201806040525081019061039a91906107d2565b9050848414156103b8578282829850985098505050505050506105db565b60008673ffffffffffffffffffffffffffffffffffffffff1663f3fdb15a6040518163ffffffff1660e01b8152600401602060405180830381865afa158015610405573d6000803e3d6000fd5b505050506040513d601f19601f820116820180604052508101906104299190610a1c565b73ffffffffffffffffffffffffffffffffffffffff166315f240538585856040518463ffffffff1660e01b815260040161046593929190610a49565b602060405180830381865afa158015610482573d6000803e3d6000fd5b505050506040513d601f19601f820116820180604052508101906104a691906107d2565b9050645d21dba0008111156104f0576040517f08c379a00000000000000000000000000000000000000000000000000000000081526004016104e790610add565b60405180910390fd5b600085876104fe9190610884565b9050600061051a604051806020016040528085815250836105e2565b90506000610528828761060e565b905060008682610538919061082e565b905060006105c360405180602001604052808e73ffffffffffffffffffffffffffffffffffffffff1663173b99046040518163ffffffff1660e01b8152600401602060405180830381865afa158015610595573d6000803e3d6000fd5b505050506040513d601f19601f820116820180604052508101906105b991906107d2565b815250848961062f565b90508882829e509e509e505050505050505050505050505b9193909250565b6105ea6106a7565b604051806020016040528061060385600001518561065a565b815250905092915050565b60008061061b84846105e2565b905061062681610670565b91505092915050565b60008061063c85856105e2565b905061065061064a82610670565b84610691565b9150509392505050565b6000818361066891906108b8565b905092915050565b6000670de0b6b3a7640000826000015161068a9190610941565b9050919050565b6000818361069f919061082e565b905092915050565b6040518060200160405280600081525090565b600080fd5b600073ffffffffffffffffffffffffffffffffffffffff82169050919050565b60006106ea826106bf565b9050919050565b6106fa816106df565b811461070557600080fd5b50565b600081359050610717816106f1565b92915050565b6000819050919050565b6107308161071d565b811461073b57600080fd5b50565b60008135905061074d81610727565b92915050565b6000806040838503121561076a576107696106ba565b5b600061077885828601610708565b92505060206107898582860161073e565b9150509250929050565b61079c8161071d565b82525050565b60006020820190506107b76000830184610793565b92915050565b6000815190506107cc81610727565b92915050565b6000602082840312156107e8576107e76106ba565b5b60006107f6848285016107bd565b91505092915050565b7f4e487b7100000000000000000000000000000000000000000000000000000000600052601160045260246000fd5b60006108398261071d565b91506108448361071d565b9250827fffffffffffffffffffffffffffffffffffffffffffffffffffffffffffffffff03821115610879576108786107ff565b5b828201905092915050565b600061088f8261071d565b915061089a8361071d565b9250828210156108ad576108ac6107ff565b5b828203905092915050565b60006108c38261071d565b91506108ce8361071d565b9250817fffffffffffffffffffffffffffffffffffffffffffffffffffffffffffffffff0483118215151615610907576109066107ff565b5b828202905092915050565b7f4e487b7100000000000000000000000000000000000000000000000000000000600052601260045260246000fd5b600061094c8261071d565b91506109578361071d565b92508261096757610966610912565b5b828204905092915050565b600081519050610981816106f1565b92915050565b60006020828403121561099d5761099c6106ba565b5b60006109ab84828501610972565b91505092915050565b6109bd816106df565b82525050565b60006020820190506109d860008301846109b4565b92915050565b60006109e9826106df565b9050919050565b6109f9816109de565b8114610a0457600080fd5b50565b600081519050610a16816109f0565b92915050565b600060208284031215610a3257610a316106ba565b5b6000610a4084828501610a07565b91505092915050565b6000606082019050610a5e6000830186610793565b610a6b6020830185610793565b610a786040830184610793565b949350505050565b600082825260208201905092915050565b7f626f72726f772072617465206973206162737572646c79206869676800000000600082015250565b6000610ac7601c83610a80565b9150610ad282610a91565b602082019050919050565b60006020820190508181036000830152610af681610aba565b905091905056fea264697066735822122058777d56016eb555ea0eff11505c29ca8df5a5cf6639b7ffe300c92c34064f8564736f6c634300080a0033",
  "linkReferences": {},
  "deployedLinkReferences": {}
}