{
  "_format": "hh-sol-artifact-1",
  "contractName": "TxDataUtils",
  "sourceName": "contracts/utils/TxDataUtils.sol",
  "abi": [
    {
      "inputs": [
        {
          "internalType": "bytes32",
          "name": "data",
          "type": "bytes32"
        }
      ],
      "name": "convert32toAddress",
      "outputs": [
        {
          "internalType": "address",
          "name": "o",
          "type": "address"
        }
      ],
      "stateMutability": "pure",
      "type": "function"
    },
    {
      "inputs": [
        {
          "internalType": "bytes",
          "name": "data",
          "type": "bytes"
        },
        {
          "internalType": "uint8",
          "name": "inputNum",
          "type": "uint8"
        },
        {
          "internalType": "uint8",
          "name": "arrayIndex",
          "type": "uint8"
        }
      ],
      "name": "getArrayIndex",
      "outputs": [
        {
          "internalType": "bytes32",
          "name": "",
          "type": "bytes32"
        }
      ],
      "stateMutability": "pure",
      "type": "function"
    },
    {
      "inputs": [
        {
          "internalType": "bytes",
          "name": "data",
          "type": "bytes"
        },
        {
          "internalType": "uint8",
          "name": "inputNum",
          "type": "uint8"
        }
      ],
      "name": "getArrayLast",
      "outputs": [
        {
          "internalType": "bytes32",
          "name": "",
          "type": "bytes32"
        }
      ],
      "stateMutability": "pure",
      "type": "function"
    },
    {
      "inputs": [
        {
          "internalType": "bytes",
          "name": "data",
          "type": "bytes"
        },
        {
          "internalType": "uint8",
          "name": "inputNum",
          "type": "uint8"
        }
      ],
      "name": "getArrayLength",
      "outputs": [
        {
          "internalType": "uint256",
          "name": "",
          "type": "uint256"
        }
      ],
      "stateMutability": "pure",
      "type": "function"
    },
    {
      "inputs": [
        {
          "internalType": "bytes",
          "name": "data",
          "type": "bytes"
        },
        {
          "internalType": "uint8",
          "name": "inputNum",
          "type": "uint8"
        },
        {
          "internalType": "uint256",
          "name": "offset",
          "type": "uint256"
        }
      ],
      "name": "getBytes",
      "outputs": [
        {
          "internalType": "bytes",
          "name": "",
          "type": "bytes"
        }
      ],
      "stateMutability": "pure",
      "type": "function"
    },
    {
      "inputs": [
        {
          "internalType": "bytes",
          "name": "data",
          "type": "bytes"
        },
        {
          "internalType": "uint8",
          "name": "inputNum",
          "type": "uint8"
        }
      ],
      "name": "getInput",
      "outputs": [
        {
          "internalType": "bytes32",
          "name": "",
          "type": "bytes32"
        }
      ],
      "stateMutability": "pure",
      "type": "function"
    },
    {
      "inputs": [
        {
          "internalType": "bytes",
          "name": "data",
          "type": "bytes"
        }
      ],
      "name": "getMethod",
      "outputs": [
        {
          "internalType": "bytes4",
          "name": "",
          "type": "bytes4"
        }
      ],
      "stateMutability": "pure",
      "type": "function"
    },
    {
      "inputs": [
        {
          "internalType": "bytes",
          "name": "data",
          "type": "bytes"
        }
      ],
      "name": "getParams",
      "outputs": [
        {
          "internalType": "bytes",
          "name": "",
          "type": "bytes"
        }
      ],
      "stateMutability": "pure",
      "type": "function"
    },
    {
      "inputs": [
        {
          "internalType": "bytes",
          "name": "data",
          "type": "bytes"
        },
        {
          "internalType": "uint256",
          "name": "offset",
          "type": "uint256"
        },
        {
          "internalType": "uint256",
          "name": "length",
          "type": "uint256"
        }
      ],
      "name": "read32",
      "outputs": [
        {
          "internalType": "bytes32",
          "name": "o",
          "type": "bytes32"
        }
      ],
      "stateMutability": "pure",
      "type": "function"
    },
    {
      "inputs": [
        {
          "internalType": "bytes",
          "name": "data",
          "type": "bytes"
        },
        {
          "internalType": "uint256",
          "name": "offset",
          "type": "uint256"
        }
      ],
      "name": "read4left",
      "outputs": [
        {
          "internalType": "bytes4",
          "name": "o",
          "type": "bytes4"
        }
      ],
      "stateMutability": "pure",
      "type": "function"
    }
  ],
  "bytecode": "0x608060405234801561001057600080fd5b50610c51806100206000396000f3fe608060405234801561001057600080fd5b506004361061008e5760003560e01c806309ff5c7d146100935780631053f9521461014e5780631eba30771461026f578063293d8063146102a857806341dc16c31461036b578063689015131461041f57806382f86acc146104c3578063998546e31461056c578063c3c6279f14610615578063db896b57146106b9575b600080fd5b61013c600480360360408110156100a957600080fd5b810190602081018135600160201b8111156100c357600080fd5b8201836020820111156100d557600080fd5b803590602001918460018302840111600160201b831117156100f657600080fd5b91908080601f0160208091040260200160405190810160405280939291908181526020018383808284376000920191909152509295505050903560ff1691506107629050565b60408051918252519081900360200190f35b6101fa6004803603606081101561016457600080fd5b810190602081018135600160201b81111561017e57600080fd5b82018360208201111561019057600080fd5b803590602001918460018302840111600160201b831117156101b157600080fd5b91908080601f0160208091040260200160405190810160405280939291908181526020018383808284376000920191909152509295505060ff83351693505050602001356107f3565b6040805160208082528351818301528351919283929083019185019080838360005b8381101561023457818101518382015260200161021c565b50505050905090810190601f1680156102615780820380516001836020036101000a031916815260200191505b509250505060405180910390f35b61028c6004803603602081101561028557600080fd5b503561088b565b604080516001600160a01b039092168252519081900360200190f35b61034e600480360360408110156102be57600080fd5b810190602081018135600160201b8111156102d857600080fd5b8201836020820111156102ea57600080fd5b803590602001918460018302840111600160201b8311171561030b57600080fd5b91908080601f016020809104026020016040519081016040528093929190818152602001838380828437600092019190915250929550509135925061088e915050565b604080516001600160e01b03199092168252519081900360200190f35b61013c6004803603606081101561038157600080fd5b810190602081018135600160201b81111561039b57600080fd5b8201836020820111156103ad57600080fd5b803590602001918460018302840111600160201b831117156103ce57600080fd5b91908080601f0160208091040260200160405190810160405280939291908181526020018383808284376000920191909152509295505060ff83358116945060209093013590921691506108f09050565b6101fa6004803603602081101561043557600080fd5b810190602081018135600160201b81111561044f57600080fd5b82018360208201111561046157600080fd5b803590602001918460018302840111600160201b8311171561048257600080fd5b91908080601f0160208091040260200160405190810160405280939291908181526020018383808284376000920191909152509295506109ce945050505050565b61013c600480360360408110156104d957600080fd5b810190602081018135600160201b8111156104f357600080fd5b82018360208201111561050557600080fd5b803590602001918460018302840111600160201b8311171561052657600080fd5b91908080601f0160208091040260200160405190810160405280939291908181526020018383808284376000920191909152509295505050903560ff1691506109ef9050565b61013c6004803603604081101561058257600080fd5b810190602081018135600160201b81111561059c57600080fd5b8201836020820111156105ae57600080fd5b803590602001918460018302840111600160201b831117156105cf57600080fd5b91908080601f0160208091040260200160405190810160405280939291908181526020018383808284376000920191909152509295505050903560ff169150610a0d9050565b61034e6004803603602081101561062b57600080fd5b810190602081018135600160201b81111561064557600080fd5b82018360208201111561065757600080fd5b803590602001918460018302840111600160201b8311171561067857600080fd5b91908080601f016020809104026020016040519081016040528093929190818152602001838380828437600092019190915250929550610a3e945050505050565b61013c600480360360608110156106cf57600080fd5b810190602081018135600160201b8111156106e957600080fd5b8201836020820111156106fb57600080fd5b803590602001918460018302840111600160201b8311171561071c57600080fd5b91908080601f0160208091040260200160405190810160405280939291908181526020018383808284376000920191909152509295505082359350505060200135610a4b565b60008061077a848460200260040160ff166020610a4b565b9050600061078d85600484016020610a4b565b9050806107d6576040805162461bcd60e51b8152602060048201526012602482015271696e707574206973206e6f7420617272617960701b604482015290519081900360640190fd5b6107ea856020808402850160040190610a4b565b95945050505050565b60606014821061083b576040805162461bcd60e51b815260206004820152600e60248201526d1a5b9d985b1a59081bd9999cd95d60921b604482015290519081900360640190fd5b816020029150600061085a85848660200260040160ff16016020610a4b565b9050600061086f868584016004016020610a4b565b90506108818660248487010183610aca565b9695505050505050565b90565b600081600401835110156108e7576040805162461bcd60e51b815260206004820152601b60248201527a52656164696e67206279746573206f7574206f6620626f756e647360281b604482015290519081900360640190fd5b50016020015190565b600080610908858560200260040160ff166020610a4b565b9050600061091b86600484016020610a4b565b905080610964576040805162461bcd60e51b8152602060048201526012602482015271696e707574206973206e6f7420617272617960701b604482015290519081900360640190fd5b60ff841681116109b4576040805162461bcd60e51b815260206004820152601660248201527534b73b30b634b21030b93930bc903837b9b4ba34b7b760511b604482015290519081900360640190fd5b610881866020600160ff8816018102850160040190610a4b565b60606109e960048084510384610aca9092919063ffffffff16565b92915050565b6000610a06838360200260040160ff166020610a4b565b9392505050565b600080610a25848460200260040160ff166020610a4b565b9050610a3684600483016020610a4b565b949350505050565b60006109e982600061088e565b600081830184511015610aa3576040805162461bcd60e51b815260206004820152601b60248201527a52656164696e67206279746573206f7574206f6620626f756e647360281b604482015290519081900360640190fd5b826020018401519050816020038015610ac2576008810260020a820491505b509392505050565b60608182601f011015610b15576040805162461bcd60e51b815260206004820152600e60248201526d736c6963655f6f766572666c6f7760901b604482015290519081900360640190fd5b828284011015610b5d576040805162461bcd60e51b815260206004820152600e60248201526d736c6963655f6f766572666c6f7760901b604482015290519081900360640190fd5b81830184511015610ba9576040805162461bcd60e51b8152602060048201526011602482015270736c6963655f6f75744f66426f756e647360781b604482015290519081900360640190fd5b606082158015610bc85760405191506000825260208201604052610c12565b6040519150601f8416801560200281840101858101878315602002848b0101015b81831015610c01578051835260209283019201610be9565b5050858452601f01601f1916604052505b5094935050505056fea2646970667358221220f38b0549736d184f8aa4767d6a18862ddc2afb9517e00e2b5708744ea98ee3e564736f6c63430007060033",
  "linkReferences": {},
  "deployedLinkReferences": {}
}