{
  "_format": "hh-sol-artifact-1",
  "contractName": "PrivateTokenSwap",
  "sourceName": "contracts/swappers/PrivateTokenSwap.sol",
  "abi": [
    {
      "inputs": [
        {
          "internalType": "contract IERC20",
          "name": "_originalToken",
          "type": "address"
        },
        {
          "internalType": "contract IERC20",
          "name": "_exchangeToken",
          "type": "address"
        },
        {
          "internalType": "uint256",
          "name": "_exchangeRate",
          "type": "uint256"
        },
        {
          "internalType": "address",
          "name": "_user",
          "type": "address"
        }
      ],
      "stateMutability": "nonpayable",
      "type": "constructor"
    },
    {
      "anonymous": false,
      "inputs": [
        {
          "indexed": true,
          "internalType": "address",
          "name": "previousOwner",
          "type": "address"
        },
        {
          "indexed": true,
          "internalType": "address",
          "name": "newOwner",
          "type": "address"
        }
      ],
      "name": "OwnershipTransferred",
      "type": "event"
    },
    {
      "inputs": [],
      "name": "EXCHANGE_RATE_DECIMALS",
      "outputs": [
        {
          "internalType": "uint256",
          "name": "",
          "type": "uint256"
        }
      ],
      "stateMutability": "view",
      "type": "function"
    },
    {
      "inputs": [],
      "name": "exchangeRate",
      "outputs": [
        {
          "internalType": "uint256",
          "name": "",
          "type": "uint256"
        }
      ],
      "stateMutability": "view",
      "type": "function"
    },
    {
      "inputs": [],
      "name": "exchangeToken",
      "outputs": [
        {
          "internalType": "contract IERC20",
          "name": "",
          "type": "address"
        }
      ],
      "stateMutability": "view",
      "type": "function"
    },
    {
      "inputs": [],
      "name": "getExchangeRateAdjusted",
      "outputs": [
        {
          "internalType": "uint256",
          "name": "exchangeRateAdjusted",
          "type": "uint256"
        }
      ],
      "stateMutability": "view",
      "type": "function"
    },
    {
      "inputs": [],
      "name": "originalToken",
      "outputs": [
        {
          "internalType": "contract IERC20",
          "name": "",
          "type": "address"
        }
      ],
      "stateMutability": "view",
      "type": "function"
    },
    {
      "inputs": [],
      "name": "owner",
      "outputs": [
        {
          "internalType": "address",
          "name": "",
          "type": "address"
        }
      ],
      "stateMutability": "view",
      "type": "function"
    },
    {
      "inputs": [],
      "name": "renounceOwnership",
      "outputs": [],
      "stateMutability": "nonpayable",
      "type": "function"
    },
    {
      "inputs": [
        {
          "internalType": "uint256",
          "name": "_exchangeRate",
          "type": "uint256"
        }
      ],
      "name": "setExchangeRate",
      "outputs": [],
      "stateMutability": "nonpayable",
      "type": "function"
    },
    {
      "inputs": [],
      "name": "swapAll",
      "outputs": [],
      "stateMutability": "nonpayable",
      "type": "function"
    },
    {
      "inputs": [
        {
          "internalType": "address",
          "name": "newOwner",
          "type": "address"
        }
      ],
      "name": "transferOwnership",
      "outputs": [],
      "stateMutability": "nonpayable",
      "type": "function"
    },
    {
      "inputs": [],
      "name": "user",
      "outputs": [
        {
          "internalType": "address",
          "name": "",
          "type": "address"
        }
      ],
      "stateMutability": "view",
      "type": "function"
    },
    {
      "inputs": [],
      "name": "withdraw",
      "outputs": [],
      "stateMutability": "nonpayable",
      "type": "function"
    },
    {
      "inputs": [
        {
          "internalType": "contract IERC20",
          "name": "_token",
          "type": "address"
        },
        {
          "internalType": "uint256",
          "name": "_amount",
          "type": "uint256"
        }
      ],
      "name": "withdrawAdmin",
      "outputs": [],
      "stateMutability": "nonpayable",
      "type": "function"
    }
  ],
  "bytecode": "0x608060405234801561001057600080fd5b506040516110733803806110738339818101604052608081101561003357600080fd5b508051602082015160408301516060909301519192909160006100546100e6565b600080546001600160a01b0319166001600160a01b0383169081178255604051929350917f8be0079c531659141344cd1fd0a4f28419497f9722a3daafe3b4186f6b6457e0908290a350600180546001600160a01b039586166001600160a01b0319918216179091556002805494861694821694909417909355600391909155600480549190931691161790556100ea565b3390565b610f7a806100f96000396000f3fe608060405234801561001057600080fd5b50600436106100af5760003560e01c80630e7c1cb5146100b45780633ba0b9a9146100d85780633ccfd60b146100f25780633e9ffbea146100fc5780634f8632ba146101045780636747fc131461010c578063715018a61461013857806371506977146101405780638da5cb5b146101485780639756cb9314610150578063a25eb5d914610158578063db068e0e14610160578063f2fde38b1461017d575b600080fd5b6100bc6101a3565b604080516001600160a01b039092168252519081900360200190f35b6100e06101b2565b60408051918252519081900360200190f35b6100fa6101b8565b005b6100fa6103b0565b6100bc6105b1565b6100fa6004803603604081101561012257600080fd5b506001600160a01b0381351690602001356105c0565b6100fa61063a565b6100e06106e6565b6100bc6106eb565b6100e06106fa565b6100bc610866565b6100fa6004803603602081101561017657600080fd5b5035610875565b6100fa6004803603602081101561019357600080fd5b50356001600160a01b031661092b565b6001546001600160a01b031681565b60035481565b6004546001600160a01b03163314610210576040805162461bcd60e51b815260206004820152601660248201527513db9b1e481d5cd95c8818d85b881a5b9d195c9858dd60521b604482015290519081900360640190fd5b600254604080516370a0823160e01b815230600482015290516000926001600160a01b0316916370a08231916024808301926020929190829003018186803b15801561025b57600080fd5b505afa15801561026f573d6000803e3d6000fd5b505050506040513d602081101561028557600080fd5b50519050806102d7576040805162461bcd60e51b81526020600482015260196024820152784e6f2065786368616e676520746f6b656e2062616c616e636560381b604482015290519081900360640190fd5b600154604080516370a0823160e01b815230600482015290516000926001600160a01b0316916370a08231916024808301926020929190829003018186803b15801561032257600080fd5b505afa158015610336573d6000803e3d6000fd5b505050506040513d602081101561034c57600080fd5b50519050600061035a6106fa565b9050600061037a8261037486670de0b6b3a7640000610a2d565b90610a8f565b6004549091506103aa906001600160a01b03166103978386610af3565b6001546001600160a01b03169190610b09565b50505050565b6004546001600160a01b03163314610408576040805162461bcd60e51b815260206004820152601660248201527513db9b1e481d5cd95c8818d85b881a5b9d195c9858dd60521b604482015290519081900360640190fd5b600154604080516370a0823160e01b815233600482015290516000926001600160a01b0316916370a08231916024808301926020929190829003018186803b15801561045357600080fd5b505afa158015610467573d6000803e3d6000fd5b505050506040513d602081101561047d57600080fd5b5051600254604080516370a0823160e01b815230600482015290519293506000926001600160a01b03909216916370a0823191602480820192602092909190829003018186803b1580156104d057600080fd5b505afa1580156104e4573d6000803e3d6000fd5b505050506040513d60208110156104fa57600080fd5b5051905060006105086106fa565b90506000610522670de0b6b3a76400006103748685610a2d565b905080831061056b57600454600154610549916001600160a01b0391821691163087610b60565b600454600254610566916001600160a01b03918216911683610b09565b6103aa565b61059a33306105868561037488670de0b6b3a7640000610a2d565b6001546001600160a01b0316929190610b60565b6002546103aa906001600160a01b03163385610b09565b6004546001600160a01b031681565b6105c8610bba565b6001600160a01b03166105d96106eb565b6001600160a01b031614610622576040805162461bcd60e51b81526020600482018190526024820152600080516020610efb833981519152604482015290519081900360640190fd5b6106366001600160a01b0383163383610b09565b5050565b610642610bba565b6001600160a01b03166106536106eb565b6001600160a01b03161461069c576040805162461bcd60e51b81526020600482018190526024820152600080516020610efb833981519152604482015290519081900360640190fd5b600080546040516001600160a01b03909116907f8be0079c531659141344cd1fd0a4f28419497f9722a3daafe3b4186f6b6457e0908390a3600080546001600160a01b0319169055565b601281565b6000546001600160a01b031690565b600080600160009054906101000a90046001600160a01b03166001600160a01b031663313ce5676040518163ffffffff1660e01b815260040160206040518083038186803b15801561074b57600080fd5b505afa15801561075f573d6000803e3d6000fd5b505050506040513d602081101561077557600080fd5b50516002546040805163313ce56760e01b8152905160ff909316600a0a93506000926001600160a01b039092169163313ce56791600480820192602092909190829003018186803b1580156107c957600080fd5b505afa1580156107dd573d6000803e3d6000fd5b505050506040513d60208110156107f357600080fd5b505160035460ff909116600a0a91506108129083906103749084610a2d565b925060008311610861576040805162461bcd60e51b8152602060048201526015602482015274496e76616c69642065786368616e6765207261746560581b604482015290519081900360640190fd5b505090565b6002546001600160a01b031681565b61087d610bba565b6001600160a01b031661088e6106eb565b6001600160a01b0316146108d7576040805162461bcd60e51b81526020600482018190526024820152600080516020610efb833981519152604482015290519081900360640190fd5b600060035411610926576040805162461bcd60e51b8152602060048201526015602482015274496e76616c69642065786368616e6765207261746560581b604482015290519081900360640190fd5b600355565b610933610bba565b6001600160a01b03166109446106eb565b6001600160a01b03161461098d576040805162461bcd60e51b81526020600482018190526024820152600080516020610efb833981519152604482015290519081900360640190fd5b6001600160a01b0381166109d25760405162461bcd60e51b8152600401808060200182810382526026815260200180610e8e6026913960400191505060405180910390fd5b600080546040516001600160a01b03808516939216917f8be0079c531659141344cd1fd0a4f28419497f9722a3daafe3b4186f6b6457e091a3600080546001600160a01b0319166001600160a01b0392909216919091179055565b600082610a3c57506000610a89565b82820282848281610a4957fe5b0414610a865760405162461bcd60e51b8152600401808060200182810382526021815260200180610eda6021913960400191505060405180910390fd5b90505b92915050565b6000808211610ae2576040805162461bcd60e51b815260206004820152601a602482015279536166654d6174683a206469766973696f6e206279207a65726f60301b604482015290519081900360640190fd5b818381610aeb57fe5b049392505050565b6000818310610b025781610a86565b5090919050565b604080516001600160a01b038416602482015260448082018490528251808303909101815260649091019091526020810180516001600160e01b031663a9059cbb60e01b179052610b5b908490610bbe565b505050565b604080516001600160a01b0380861660248301528416604482015260648082018490528251808303909101815260849091019091526020810180516001600160e01b03166323b872dd60e01b1790526103aa908590610bbe565b3390565b6000610c13826040518060400160405280602081526020017f5361666545524332303a206c6f772d6c6576656c2063616c6c206661696c6564815250856001600160a01b0316610c6f9092919063ffffffff16565b805190915015610b5b57808060200190516020811015610c3257600080fd5b5051610b5b5760405162461bcd60e51b815260040180806020018281038252602a815260200180610f1b602a913960400191505060405180910390fd5b6060610c7e8484600085610c88565b90505b9392505050565b606082471015610cc95760405162461bcd60e51b8152600401808060200182810382526026815260200180610eb46026913960400191505060405180910390fd5b610cd285610de3565b610d23576040805162461bcd60e51b815260206004820152601d60248201527f416464726573733a2063616c6c20746f206e6f6e2d636f6e7472616374000000604482015290519081900360640190fd5b600080866001600160a01b031685876040518082805190602001908083835b60208310610d615780518252601f199092019160209182019101610d42565b6001836020036101000a03801982511681845116808217855250505050505090500191505060006040518083038185875af1925050503d8060008114610dc3576040519150601f19603f3d011682016040523d82523d6000602084013e610dc8565b606091505b5091509150610dd8828286610de9565b979650505050505050565b3b151590565b60608315610df8575081610c81565b825115610e085782518084602001fd5b8160405162461bcd60e51b81526004018080602001828103825283818151815260200191508051906020019080838360005b83811015610e52578181015183820152602001610e3a565b50505050905090810190601f168015610e7f5780820380516001836020036101000a031916815260200191505b509250505060405180910390fdfe4f776e61626c653a206e6577206f776e657220697320746865207a65726f2061646472657373416464726573733a20696e73756666696369656e742062616c616e636520666f722063616c6c536166654d6174683a206d756c7469706c69636174696f6e206f766572666c6f774f776e61626c653a2063616c6c6572206973206e6f7420746865206f776e65725361666545524332303a204552433230206f7065726174696f6e20646964206e6f742073756363656564a2646970667358221220cf469026f0fa50ea17bdf8db699e0832224649ccabad2b3a813adc0416a35bdb64736f6c63430007060033",
  "linkReferences": {},
  "deployedLinkReferences": {}
}