{
  "_format": "hh-sol-artifact-1",
  "contractName": "QuickLPAssetGuard",
  "sourceName": "contracts/guards/assetGuards/QuickLPAssetGuard.sol",
  "abi": [
    {
      "inputs": [
        {
          "internalType": "address",
          "name": "_stakingRewardsFactory",
          "type": "address"
        }
      ],
      "stateMutability": "nonpayable",
      "type": "constructor"
    },
    {
      "anonymous": false,
      "inputs": [
        {
          "indexed": false,
          "internalType": "address",
          "name": "fundAddress",
          "type": "address"
        },
        {
          "indexed": false,
          "internalType": "address",
          "name": "manager",
          "type": "address"
        },
        {
          "indexed": false,
          "internalType": "address",
          "name": "spender",
          "type": "address"
        },
        {
          "indexed": false,
          "internalType": "uint256",
          "name": "amount",
          "type": "uint256"
        },
        {
          "indexed": false,
          "internalType": "uint256",
          "name": "time",
          "type": "uint256"
        }
      ],
      "name": "Approve",
      "type": "event"
    },
    {
      "anonymous": false,
      "inputs": [
        {
          "indexed": false,
          "internalType": "address",
          "name": "fundAddress",
          "type": "address"
        },
        {
          "indexed": false,
          "internalType": "address",
          "name": "sourceAsset",
          "type": "address"
        },
        {
          "indexed": false,
          "internalType": "uint256",
          "name": "sourceAmount",
          "type": "uint256"
        },
        {
          "indexed": false,
          "internalType": "address",
          "name": "dstAsset",
          "type": "address"
        },
        {
          "indexed": false,
          "internalType": "uint256",
          "name": "time",
          "type": "uint256"
        }
      ],
      "name": "ExchangeFrom",
      "type": "event"
    },
    {
      "anonymous": false,
      "inputs": [
        {
          "indexed": false,
          "internalType": "address",
          "name": "fundAddress",
          "type": "address"
        },
        {
          "indexed": false,
          "internalType": "address",
          "name": "sourceAsset",
          "type": "address"
        },
        {
          "indexed": false,
          "internalType": "address",
          "name": "dstAsset",
          "type": "address"
        },
        {
          "indexed": false,
          "internalType": "uint256",
          "name": "dstAmount",
          "type": "uint256"
        },
        {
          "indexed": false,
          "internalType": "uint256",
          "name": "time",
          "type": "uint256"
        }
      ],
      "name": "ExchangeTo",
      "type": "event"
    },
    {
      "anonymous": false,
      "inputs": [
        {
          "indexed": true,
          "internalType": "address",
          "name": "previousOwner",
          "type": "address"
        },
        {
          "indexed": true,
          "internalType": "address",
          "name": "newOwner",
          "type": "address"
        }
      ],
      "name": "OwnershipTransferred",
      "type": "event"
    },
    {
      "inputs": [
        {
          "internalType": "bytes32",
          "name": "data",
          "type": "bytes32"
        }
      ],
      "name": "convert32toAddress",
      "outputs": [
        {
          "internalType": "address",
          "name": "o",
          "type": "address"
        }
      ],
      "stateMutability": "pure",
      "type": "function"
    },
    {
      "inputs": [
        {
          "internalType": "bytes",
          "name": "data",
          "type": "bytes"
        },
        {
          "internalType": "uint8",
          "name": "inputNum",
          "type": "uint8"
        },
        {
          "internalType": "uint8",
          "name": "arrayIndex",
          "type": "uint8"
        }
      ],
      "name": "getArrayIndex",
      "outputs": [
        {
          "internalType": "bytes32",
          "name": "",
          "type": "bytes32"
        }
      ],
      "stateMutability": "pure",
      "type": "function"
    },
    {
      "inputs": [
        {
          "internalType": "bytes",
          "name": "data",
          "type": "bytes"
        },
        {
          "internalType": "uint8",
          "name": "inputNum",
          "type": "uint8"
        }
      ],
      "name": "getArrayLast",
      "outputs": [
        {
          "internalType": "bytes32",
          "name": "",
          "type": "bytes32"
        }
      ],
      "stateMutability": "pure",
      "type": "function"
    },
    {
      "inputs": [
        {
          "internalType": "bytes",
          "name": "data",
          "type": "bytes"
        },
        {
          "internalType": "uint8",
          "name": "inputNum",
          "type": "uint8"
        }
      ],
      "name": "getArrayLength",
      "outputs": [
        {
          "internalType": "uint256",
          "name": "",
          "type": "uint256"
        }
      ],
      "stateMutability": "pure",
      "type": "function"
    },
    {
      "inputs": [
        {
          "internalType": "address",
          "name": "pool",
          "type": "address"
        },
        {
          "internalType": "address",
          "name": "asset",
          "type": "address"
        }
      ],
      "name": "getBalance",
      "outputs": [
        {
          "internalType": "uint256",
          "name": "balance",
          "type": "uint256"
        }
      ],
      "stateMutability": "view",
      "type": "function"
    },
    {
      "inputs": [
        {
          "internalType": "bytes",
          "name": "data",
          "type": "bytes"
        },
        {
          "internalType": "uint8",
          "name": "inputNum",
          "type": "uint8"
        },
        {
          "internalType": "uint256",
          "name": "offset",
          "type": "uint256"
        }
      ],
      "name": "getBytes",
      "outputs": [
        {
          "internalType": "bytes",
          "name": "",
          "type": "bytes"
        }
      ],
      "stateMutability": "pure",
      "type": "function"
    },
    {
      "inputs": [
        {
          "internalType": "address",
          "name": "asset",
          "type": "address"
        }
      ],
      "name": "getDecimals",
      "outputs": [
        {
          "internalType": "uint256",
          "name": "decimals",
          "type": "uint256"
        }
      ],
      "stateMutability": "view",
      "type": "function"
    },
    {
      "inputs": [
        {
          "internalType": "bytes",
          "name": "data",
          "type": "bytes"
        },
        {
          "internalType": "uint8",
          "name": "inputNum",
          "type": "uint8"
        }
      ],
      "name": "getInput",
      "outputs": [
        {
          "internalType": "bytes32",
          "name": "",
          "type": "bytes32"
        }
      ],
      "stateMutability": "pure",
      "type": "function"
    },
    {
      "inputs": [
        {
          "internalType": "bytes",
          "name": "data",
          "type": "bytes"
        }
      ],
      "name": "getMethod",
      "outputs": [
        {
          "internalType": "bytes4",
          "name": "",
          "type": "bytes4"
        }
      ],
      "stateMutability": "pure",
      "type": "function"
    },
    {
      "inputs": [
        {
          "internalType": "bytes",
          "name": "data",
          "type": "bytes"
        }
      ],
      "name": "getParams",
      "outputs": [
        {
          "internalType": "bytes",
          "name": "",
          "type": "bytes"
        }
      ],
      "stateMutability": "pure",
      "type": "function"
    },
    {
      "inputs": [],
      "name": "owner",
      "outputs": [
        {
          "internalType": "address",
          "name": "",
          "type": "address"
        }
      ],
      "stateMutability": "view",
      "type": "function"
    },
    {
      "inputs": [
        {
          "internalType": "bytes",
          "name": "data",
          "type": "bytes"
        },
        {
          "internalType": "uint256",
          "name": "offset",
          "type": "uint256"
        },
        {
          "internalType": "uint256",
          "name": "length",
          "type": "uint256"
        }
      ],
      "name": "read32",
      "outputs": [
        {
          "internalType": "bytes32",
          "name": "o",
          "type": "bytes32"
        }
      ],
      "stateMutability": "pure",
      "type": "function"
    },
    {
      "inputs": [
        {
          "internalType": "bytes",
          "name": "data",
          "type": "bytes"
        },
        {
          "internalType": "uint256",
          "name": "offset",
          "type": "uint256"
        }
      ],
      "name": "read4left",
      "outputs": [
        {
          "internalType": "bytes4",
          "name": "o",
          "type": "bytes4"
        }
      ],
      "stateMutability": "pure",
      "type": "function"
    },
    {
      "inputs": [
        {
          "internalType": "address",
          "name": "pool",
          "type": "address"
        },
        {
          "internalType": "address",
          "name": "asset",
          "type": "address"
        }
      ],
      "name": "removeAssetCheck",
      "outputs": [],
      "stateMutability": "view",
      "type": "function"
    },
    {
      "inputs": [],
      "name": "renounceOwnership",
      "outputs": [],
      "stateMutability": "nonpayable",
      "type": "function"
    },
    {
      "inputs": [],
      "name": "stakingRewardsFactory",
      "outputs": [
        {
          "internalType": "contract IStakingRewardsFactory",
          "name": "",
          "type": "address"
        }
      ],
      "stateMutability": "view",
      "type": "function"
    },
    {
      "inputs": [
        {
          "internalType": "address",
          "name": "newOwner",
          "type": "address"
        }
      ],
      "name": "transferOwnership",
      "outputs": [],
      "stateMutability": "nonpayable",
      "type": "function"
    },
    {
      "inputs": [
        {
          "internalType": "address",
          "name": "_poolManagerLogic",
          "type": "address"
        },
        {
          "internalType": "address",
          "name": "",
          "type": "address"
        },
        {
          "internalType": "bytes",
          "name": "data",
          "type": "bytes"
        }
      ],
      "name": "txGuard",
      "outputs": [
        {
          "internalType": "uint16",
          "name": "txType",
          "type": "uint16"
        },
        {
          "internalType": "bool",
          "name": "",
          "type": "bool"
        }
      ],
      "stateMutability": "nonpayable",
      "type": "function"
    },
    {
      "inputs": [
        {
          "internalType": "address",
          "name": "pool",
          "type": "address"
        },
        {
          "internalType": "address",
          "name": "asset",
          "type": "address"
        },
        {
          "internalType": "uint256",
          "name": "portion",
          "type": "uint256"
        },
        {
          "internalType": "address",
          "name": "",
          "type": "address"
        }
      ],
      "name": "withdrawProcessing",
      "outputs": [
        {
          "internalType": "address",
          "name": "withdrawAsset",
          "type": "address"
        },
        {
          "internalType": "uint256",
          "name": "withdrawBalance",
          "type": "uint256"
        },
        {
          "components": [
            {
              "internalType": "address",
              "name": "to",
              "type": "address"
            },
            {
              "internalType": "bytes",
              "name": "txData",
              "type": "bytes"
            }
          ],
          "internalType": "struct IAssetGuard.MultiTransaction[]",
          "name": "transactions",
          "type": "tuple[]"
        }
      ],
      "stateMutability": "view",
      "type": "function"
    }
  ],
  "bytecode": "0x60806040523480156200001157600080fd5b5060405162001ac638038062001ac68339810160408190526200003491620000e6565b600062000040620000e2565b600080546001600160a01b0319166001600160a01b0383169081178255604051929350917f8be0079c531659141344cd1fd0a4f28419497f9722a3daafe3b4186f6b6457e0908290a3506001600160a01b038116620000bc5760405162461bcd60e51b8152600401620000b39062000116565b60405180910390fd5b600180546001600160a01b0319166001600160a01b039290921691909117905562000160565b3390565b600060208284031215620000f8578081fd5b81516001600160a01b03811681146200010f578182fd5b9392505050565b6020808252602a908201527f5f7374616b696e6752657761726473466163746f7279206164647265737320636040820152690616e6e6f7420626520360b41b606082015260800190565b61195680620001706000396000f3fe608060405234801561001057600080fd5b50600436106100f15760003560e01c806309ff5c7d146100f65780631053f9521461011f5780631eba30771461013f578063293d80631461015f57806341dc16c31461017f57806355b396d2146101925780636179309d1461019a57806368901513146101bb5780636d5fae54146101ce5780636f8ae202146101e3578063715018a61461020557806382f86acc1461020d5780638da5cb5b14610220578063998546e314610228578063c3c6279f1461023b578063cf54aaa01461024e578063d4fac45d14610261578063db896b5714610274578063f2fde38b14610287575b600080fd5b6101096101043660046115ad565b61029a565b60405161011691906117fe565b60405180910390f35b61013261012d3660046115f1565b61032d565b604051610116919061181c565b61015261014d3660046114d6565b6103c5565b6040516101169190611728565b61017261016d366004611520565b6103c8565b6040516101169190611807565b61010961018d366004611648565b61042a565b610152610508565b6101ad6101a83660046113c2565b610517565b60405161011692919061189c565b6101326101c93660046114ee565b61087c565b6101e16101dc36600461138a565b610897565b005b6101f66101f136600461144e565b6108c8565b60405161011693929190611770565b6101e1610b91565b61010961021b3660046115ad565b610c4f565b610152610c6d565b6101096102363660046115ad565b610c7c565b6101726102493660046114ee565b610cad565b61010961025c366004611352565b610cba565b61010961026f36600461138a565b610d36565b610109610282366004611562565b610ec9565b6101e1610295366004611352565b610f48565b6000806102b2848460200260040160ff166020610ec9565b905060006102c585600484016020610ec9565b90508061030e576040805162461bcd60e51b8152602060048201526012602482015271696e707574206973206e6f7420617272617960701b604482015290519081900360640190fd5b610322856020808402850160040190610ec9565b925050505b92915050565b606060148210610375576040805162461bcd60e51b815260206004820152600e60248201526d1a5b9d985b1a59081bd9999cd95d60921b604482015290519081900360640190fd5b816020029150600061039485848660200260040160ff16016020610ec9565b905060006103a9868584016004016020610ec9565b90506103bb866024848701018361105c565b9695505050505050565b90565b60008160040183511015610421576040805162461bcd60e51b815260206004820152601b60248201527a52656164696e67206279746573206f7574206f6620626f756e647360281b604482015290519081900360640190fd5b50016020015190565b600080610442858560200260040160ff166020610ec9565b9050600061045586600484016020610ec9565b90508061049e576040805162461bcd60e51b8152602060048201526012602482015271696e707574206973206e6f7420617272617960701b604482015290519081900360640190fd5b60ff841681116104ee576040805162461bcd60e51b815260206004820152601660248201527534b73b30b634b21030b93930bc903837b9b4ba34b7b760511b604482015290519081900360640190fd5b6103bb866020600160ff8816018102850160040190610ec9565b6001546001600160a01b031681565b600080600061055b85858080601f016020809104026020016040519081016040528093929190818152602001838380828437600092019190915250610cad92505050565b90506001600160e01b0319811663095ea7b360e01b141561086e5760006105ba61014d87878080601f01602080910402602001604051908101604052809392919081815260200183838082843760009201829052509250610c4f915050565b9050600061060087878080601f01602080910402602001604051908101604052809392919081815260200183838082843760009201919091525060019250610c4f915050565b60001c905060008990506000816001600160a01b031663c45a01556040518163ffffffff1660e01b815260040160206040518083038186803b15801561064557600080fd5b505afa158015610659573d6000803e3d6000fd5b505050506040513d601f19601f8201168201806040525081019061067d919061136e565b90506000816001600160a01b0316634f8419b9866040518263ffffffff1660e01b81526004016106ad9190611728565b60206040518083038186803b1580156106c557600080fd5b505afa1580156106d9573d6000803e3d6000fd5b505050506040513d601f19601f820116820180604052508101906106fd919061136e565b90506001600160a01b0381161580159061072057506001600160a01b0381163014155b6107455760405162461bcd60e51b815260040161073c90611866565b60405180910390fd5b7f5343b378d69227c1bc2016fd44e8104f0ffa7729f4f4f4110e349a2db0a0d0c8836001600160a01b03166339b81fd96040518163ffffffff1660e01b815260040160206040518083038186803b15801561079f57600080fd5b505afa1580156107b3573d6000803e3d6000fd5b505050506040513d601f19601f820116820180604052508101906107d7919061136e565b8d6001600160a01b031663481c6a756040518163ffffffff1660e01b815260040160206040518083038186803b15801561081057600080fd5b505afa158015610824573d6000803e3d6000fd5b505050506040513d601f19601f82011682018060405250810190610848919061136e565b87874260405161085c95949392919061173c565b60405180910390a16001975050505050505b506000905094509492505050565b60606103276004808451038461105c9092919063ffffffff16565b60006108a38383610d36565b905080156108c35760405162461bcd60e51b815260040161073c9061182f565b505050565b6040516370a0823160e01b8152839060009060609082906001600160a01b038516906370a08231906108fe908b90600401611728565b60206040518083038186803b15801561091657600080fd5b505afa15801561092a573d6000803e3d6000fd5b505050506040513d601f19601f8201168201806040525081019061094e91906116a9565b905061096c670de0b6b3a764000061096683896111ad565b90611206565b600154604051630d9f195f60e31b81529194506000916001600160a01b0390911690636cf8caf8906109a2908b90600401611728565b60606040518083038186803b1580156109ba57600080fd5b505afa1580156109ce573d6000803e3d6000fd5b505050506040513d601f19601f820116820180604052508101906109f291906114a0565b505090506000816001600160a01b03166370a082318b6040518263ffffffff1660e01b8152600401610a249190611728565b60206040518083038186803b158015610a3c57600080fd5b505afa158015610a50573d6000803e3d6000fd5b505050506040513d601f19601f82011682018060405250810190610a7491906116a9565b90508015610b84576000610a94670de0b6b3a7640000610966848c6111ad565b90508015610b825760408051600180825281830190925290816020015b610ab96112c6565b815260200190600190039081610ab15790505094508285600081518110610adc57fe5b60209081029190910101516001600160a01b0390911690526040517f2e1a7d4d13322e7b96f9a57413e1525c250fb7a9021cf91d1540d5b69f16a49f90610b279083906024016117fe565b604051602081830303815290604052906001600160e01b0319166020820180516001600160e01b03838183161783525050505085600081518110610b6757fe5b6020908102919091018101510152610b7f868261126a565b95505b505b5050509450945094915050565b610b996112c2565b6001600160a01b0316610baa610c6d565b6001600160a01b031614610c05576040805162461bcd60e51b815260206004820181905260248201527f4f776e61626c653a2063616c6c6572206973206e6f7420746865206f776e6572604482015290519081900360640190fd5b600080546040516001600160a01b03909116907f8be0079c531659141344cd1fd0a4f28419497f9722a3daafe3b4186f6b6457e0908390a3600080546001600160a01b0319169055565b6000610c66838360200260040160ff166020610ec9565b9392505050565b6000546001600160a01b031690565b600080610c94848460200260040160ff166020610ec9565b9050610ca584600483016020610ec9565b949350505050565b60006103278260006103c8565b6000816001600160a01b031663313ce5676040518163ffffffff1660e01b815260040160206040518083038186803b158015610cf557600080fd5b505afa158015610d09573d6000803e3d6000fd5b505050506040513d601f19601f82011682018060405250810190610d2d91906116c1565b60ff1692915050565b600154604051630d9f195f60e31b815260009182916001600160a01b0390911690636cf8caf890610d6b908690600401611728565b60606040518083038186803b158015610d8357600080fd5b505afa158015610d97573d6000803e3d6000fd5b505050506040513d601f19601f82011682018060405250810190610dbb91906114a0565b505090506000816001600160a01b03166370a08231866040518263ffffffff1660e01b8152600401610ded9190611728565b60206040518083038186803b158015610e0557600080fd5b505afa158015610e19573d6000803e3d6000fd5b505050506040513d601f19601f82011682018060405250810190610e3d91906116a9565b90506000846001600160a01b03166370a08231876040518263ffffffff1660e01b8152600401610e6d9190611728565b60206040518083038186803b158015610e8557600080fd5b505afa158015610e99573d6000803e3d6000fd5b505050506040513d601f19601f82011682018060405250810190610ebd91906116a9565b90506103bb828261126a565b600081830184511015610f21576040805162461bcd60e51b815260206004820152601b60248201527a52656164696e67206279746573206f7574206f6620626f756e647360281b604482015290519081900360640190fd5b826020018401519050816020038015610f40576008810260020a820491505b509392505050565b610f506112c2565b6001600160a01b0316610f61610c6d565b6001600160a01b031614610fbc576040805162461bcd60e51b815260206004820181905260248201527f4f776e61626c653a2063616c6c6572206973206e6f7420746865206f776e6572604482015290519081900360640190fd5b6001600160a01b0381166110015760405162461bcd60e51b81526004018080602001828103825260268152602001806118da6026913960400191505060405180910390fd5b600080546040516001600160a01b03808516939216917f8be0079c531659141344cd1fd0a4f28419497f9722a3daafe3b4186f6b6457e091a3600080546001600160a01b0319166001600160a01b0392909216919091179055565b60608182601f0110156110a7576040805162461bcd60e51b815260206004820152600e60248201526d736c6963655f6f766572666c6f7760901b604482015290519081900360640190fd5b8282840110156110ef576040805162461bcd60e51b815260206004820152600e60248201526d736c6963655f6f766572666c6f7760901b604482015290519081900360640190fd5b8183018451101561113b576040805162461bcd60e51b8152602060048201526011602482015270736c6963655f6f75744f66426f756e647360781b604482015290519081900360640190fd5b60608215801561115a57604051915060008252602082016040526111a4565b6040519150601f8416801560200281840101858101878315602002848b0101015b8183101561119357805183526020928301920161117b565b5050858452601f01601f1916604052505b50949350505050565b6000826111bc57506000610327565b828202828482816111c957fe5b0414610c665760405162461bcd60e51b81526004018080602001828103825260218152602001806119006021913960400191505060405180910390fd5b6000808211611259576040805162461bcd60e51b815260206004820152601a602482015279536166654d6174683a206469766973696f6e206279207a65726f60301b604482015290519081900360640190fd5b81838161126257fe5b049392505050565b600082820183811015610c66576040805162461bcd60e51b815260206004820152601b60248201527a536166654d6174683a206164646974696f6e206f766572666c6f7760281b604482015290519081900360640190fd5b3390565b60408051808201909152600081526060602082015290565b600082601f8301126112ee578081fd5b81356001600160401b038082111561130257fe5b604051601f8301601f19168101602001828111828210171561132057fe5b604052828152848301602001861015611337578384fd5b82602086016020830137918201602001929092529392505050565b600060208284031215611363578081fd5b8135610c66816118b2565b60006020828403121561137f578081fd5b8151610c66816118b2565b6000806040838503121561139c578081fd5b82356113a7816118b2565b915060208301356113b7816118b2565b809150509250929050565b600080600080606085870312156113d7578182fd5b84356113e2816118b2565b935060208501356113f2816118b2565b925060408501356001600160401b038082111561140d578384fd5b818701915087601f830112611420578384fd5b81358181111561142e578485fd5b88602082850101111561143f578485fd5b95989497505060200194505050565b60008060008060808587031215611463578384fd5b843561146e816118b2565b9350602085013561147e816118b2565b9250604085013591506060850135611495816118b2565b939692955090935050565b6000806000606084860312156114b4578283fd5b83516114bf816118b2565b602085015160409095015190969495509392505050565b6000602082840312156114e7578081fd5b5035919050565b6000602082840312156114ff578081fd5b81356001600160401b03811115611514578182fd5b610ca5848285016112de565b60008060408385031215611532578182fd5b82356001600160401b03811115611547578283fd5b611553858286016112de565b95602094909401359450505050565b600080600060608486031215611576578283fd5b83356001600160401b0381111561158b578384fd5b611597868287016112de565b9660208601359650604090950135949350505050565b600080604083850312156115bf578182fd5b82356001600160401b038111156115d4578283fd5b6115e0858286016112de565b92505060208301356113b7816118ca565b600080600060608486031215611605578283fd5b83356001600160401b0381111561161a578384fd5b611626868287016112de565b9350506020840135611637816118ca565b929592945050506040919091013590565b60008060006060848603121561165c578081fd5b83356001600160401b03811115611671578182fd5b61167d868287016112de565b935050602084013561168e816118ca565b9150604084013561169e816118ca565b809150509250925092565b6000602082840312156116ba578081fd5b5051919050565b6000602082840312156116d2578081fd5b8151610c66816118ca565b60008151808452815b81811015611702576020818501810151868301820152016116e6565b818111156117135782602083870101525b50601f01601f19169290920160200192915050565b6001600160a01b0391909116815260200190565b6001600160a01b03958616815293851660208501529190931660408301526060820192909252608081019190915260a00190565b60006060820160018060a01b03808716845260208681860152604060608187015283875180865260808801915060808482028901019550838901875b828110156117ed57898803607f1901845281518051881689528601518689018690526117da868a01826116dd565b98505092850192908501906001016117ac565b50959b9a5050505050505050505050565b90815260200190565b6001600160e01b031991909116815260200190565b600060208252610c6660208301846116dd565b6020808252601d908201527f63616e6e6f742072656d6f7665206e6f6e2d656d707479206173736574000000604082015260600190565b6020808252601c908201527b1d5b9cdd5c1c1bdc9d1959081cdc195b99195c88185c1c1c9bdd985b60221b604082015260600190565b61ffff9290921682521515602082015260400190565b6001600160a01b03811681146118c757600080fd5b50565b60ff811681146118c757600080fdfe4f776e61626c653a206e6577206f776e657220697320746865207a65726f2061646472657373536166654d6174683a206d756c7469706c69636174696f6e206f766572666c6f77a264697066735822122006cdbdcfdf74b10e3ca688764d8fcaf924b9609782f9c4fb02c805cc6e31523b64736f6c63430007060033",
  "linkReferences": {},
  "deployedLinkReferences": {}
}