{
  "_format": "hh-sol-artifact-1",
  "contractName": "BalancerLib",
  "sourceName": "contracts/utils/BalancerLib.sol",
  "abi": [
    {
      "inputs": [],
      "name": "BONE",
      "outputs": [
        {
          "internalType": "uint256",
          "name": "",
          "type": "uint256"
        }
      ],
      "stateMutability": "view",
      "type": "function"
    },
    {
      "inputs": [],
      "name": "BPOW_PRECISION",
      "outputs": [
        {
          "internalType": "uint256",
          "name": "",
          "type": "uint256"
        }
      ],
      "stateMutability": "view",
      "type": "function"
    },
    {
      "inputs": [],
      "name": "MAX_BPOW_BASE",
      "outputs": [
        {
          "internalType": "uint256",
          "name": "",
          "type": "uint256"
        }
      ],
      "stateMutability": "view",
      "type": "function"
    },
    {
      "inputs": [],
      "name": "MIN_BPOW_BASE",
      "outputs": [
        {
          "internalType": "uint256",
          "name": "",
          "type": "uint256"
        }
      ],
      "stateMutability": "view",
      "type": "function"
    }
  ],
  "bytecode": "0x60db610025600b82828239805160001a60731461001857fe5b30600052607381538281f3fe730000000000000000000000000000000000000000301460806040526004361060515760003560e01c8063189d00ca146056578063ba019dab14606e578063bc694ea2146074578063c36596a614607a575b600080fd5b605c6080565b60408051918252519081900360200190f35b605c6088565b605c608d565b605c6099565b6305f5e10081565b600181565b671bc16d674ec7ffff81565b670de0b6b3a76400008156fea2646970667358221220c6466b84908e9234168befe8ee99f6e6596802d396415a711b6e62d822b25aa064736f6c63430007060033",
  "linkReferences": {},
  "deployedLinkReferences": {}
}