{
  "_format": "hh-sol-artifact-1",
  "contractName": "RewardsAPYCalculatorTest",
  "sourceName": "contracts/test/RewardsAPYCalculatorTest.sol",
  "abi": [
    {
      "inputs": [
        {
          "internalType": "uint256",
          "name": "_totalValue",
          "type": "uint256"
        },
        {
          "internalType": "uint256",
          "name": "_rewardAmountPerSecond",
          "type": "uint256"
        },
        {
          "internalType": "uint256",
          "name": "_rewardTokenPrice",
          "type": "uint256"
        }
      ],
      "name": "calculateAPY",
      "outputs": [
        {
          "internalType": "uint256",
          "name": "apy",
          "type": "uint256"
        }
      ],
      "stateMutability": "pure",
      "type": "function"
    }
  ],
  "bytecode": "0x608060405234801561001057600080fd5b506101d5806100206000396000f3fe608060405234801561001057600080fd5b506004361061002b5760003560e01c8063e4c0c71814610030575b600080fd5b6100596004803603606081101561004657600080fd5b508035906020810135906040013561006b565b60408051918252519081900360200190f35b6000610078848484610080565b949350505050565b60008361008f575060006100b1565b610078846100ab846100a5876301e133806100b8565b906100b8565b9061011a565b9392505050565b6000826100c757506000610114565b828202828482816100d457fe5b04146101115760405162461bcd60e51b815260040180806020018281038252602181526020018061017f6021913960400191505060405180910390fd5b90505b92915050565b600080821161016d576040805162461bcd60e51b815260206004820152601a602482015279536166654d6174683a206469766973696f6e206279207a65726f60301b604482015290519081900360640190fd5b81838161017657fe5b04939250505056fe536166654d6174683a206d756c7469706c69636174696f6e206f766572666c6f77a2646970667358221220718c6cf193d304fddf394a9cf8aaba1fa562bbdc0fd8a17526828e29a17c2a1264736f6c63430007060033",
  "linkReferences": {},
  "deployedLinkReferences": {}
}