{
  "_format": "hh-sol-artifact-1",
  "contractName": "DhedgeSuperSwapper",
  "sourceName": "contracts/routers/DhedgeSuperSwapper.sol",
  "abi": [
    {
      "inputs": [
        {
          "internalType": "contract IUniswapV2Router[]",
          "name": "_uniV2Routers",
          "type": "address[]"
        },
        {
          "components": [
            {
              "internalType": "address",
              "name": "asset",
              "type": "address"
            },
            {
              "internalType": "address",
              "name": "intermediary",
              "type": "address"
            }
          ],
          "internalType": "struct DhedgeSuperSwapper.RouteHint[]",
          "name": "hints",
          "type": "tuple[]"
        }
      ],
      "stateMutability": "nonpayable",
      "type": "constructor"
    },
    {
      "anonymous": false,
      "inputs": [
        {
          "indexed": false,
          "internalType": "address",
          "name": "token",
          "type": "address"
        }
      ],
      "name": "Interpolate",
      "type": "event"
    },
    {
      "anonymous": false,
      "inputs": [
        {
          "indexed": true,
          "internalType": "address",
          "name": "swapRouter",
          "type": "address"
        }
      ],
      "name": "Swap",
      "type": "event"
    },
    {
      "inputs": [
        {
          "internalType": "address",
          "name": "_addr",
          "type": "address"
        }
      ],
      "name": "addressToString",
      "outputs": [
        {
          "internalType": "string",
          "name": "",
          "type": "string"
        }
      ],
      "stateMutability": "pure",
      "type": "function"
    },
    {
      "inputs": [
        {
          "internalType": "contract IUniswapV2Router",
          "name": "uniV2Router",
          "type": "address"
        },
        {
          "internalType": "uint256",
          "name": "amountOut",
          "type": "uint256"
        },
        {
          "internalType": "address[]",
          "name": "path",
          "type": "address[]"
        }
      ],
      "name": "getAmountInUniV2",
      "outputs": [
        {
          "internalType": "uint256",
          "name": "amount",
          "type": "uint256"
        }
      ],
      "stateMutability": "view",
      "type": "function"
    },
    {
      "inputs": [
        {
          "internalType": "contract IUniswapV2Router",
          "name": "uniV2Router",
          "type": "address"
        },
        {
          "internalType": "uint256",
          "name": "amountIn",
          "type": "uint256"
        },
        {
          "internalType": "address[]",
          "name": "path",
          "type": "address[]"
        }
      ],
      "name": "getAmountOutUniV2",
      "outputs": [
        {
          "internalType": "uint256",
          "name": "amount",
          "type": "uint256"
        }
      ],
      "stateMutability": "view",
      "type": "function"
    },
    {
      "inputs": [
        {
          "internalType": "uint256",
          "name": "amountIn",
          "type": "uint256"
        },
        {
          "internalType": "address[]",
          "name": "path",
          "type": "address[]"
        }
      ],
      "name": "getAmountsOut",
      "outputs": [
        {
          "internalType": "uint256[]",
          "name": "amounts",
          "type": "uint256[]"
        }
      ],
      "stateMutability": "view",
      "type": "function"
    },
    {
      "inputs": [
        {
          "internalType": "uint256",
          "name": "amountOut",
          "type": "uint256"
        },
        {
          "internalType": "address[]",
          "name": "path",
          "type": "address[]"
        }
      ],
      "name": "getBestAmountInUniV2Router",
      "outputs": [
        {
          "internalType": "contract IUniswapV2Router",
          "name": "router",
          "type": "address"
        },
        {
          "internalType": "uint256",
          "name": "bestAmountIn",
          "type": "uint256"
        }
      ],
      "stateMutability": "view",
      "type": "function"
    },
    {
      "inputs": [
        {
          "internalType": "uint256",
          "name": "amountIn",
          "type": "uint256"
        },
        {
          "internalType": "address[]",
          "name": "path",
          "type": "address[]"
        }
      ],
      "name": "getBestAmountOutUniV2Router",
      "outputs": [
        {
          "internalType": "contract IUniswapV2Router",
          "name": "router",
          "type": "address"
        },
        {
          "internalType": "uint256",
          "name": "bestAmountOut",
          "type": "uint256"
        }
      ],
      "stateMutability": "view",
      "type": "function"
    },
    {
      "inputs": [
        {
          "internalType": "address",
          "name": "",
          "type": "address"
        }
      ],
      "name": "routeHints",
      "outputs": [
        {
          "internalType": "address",
          "name": "",
          "type": "address"
        }
      ],
      "stateMutability": "view",
      "type": "function"
    },
    {
      "inputs": [
        {
          "internalType": "uint256",
          "name": "amountIn",
          "type": "uint256"
        },
        {
          "internalType": "uint256",
          "name": "amountOutMin",
          "type": "uint256"
        },
        {
          "internalType": "address[]",
          "name": "path",
          "type": "address[]"
        },
        {
          "internalType": "address",
          "name": "to",
          "type": "address"
        },
        {
          "internalType": "uint256",
          "name": "deadline",
          "type": "uint256"
        }
      ],
      "name": "swapExactTokensForTokens",
      "outputs": [
        {
          "internalType": "uint256[]",
          "name": "amounts",
          "type": "uint256[]"
        }
      ],
      "stateMutability": "nonpayable",
      "type": "function"
    },
    {
      "inputs": [
        {
          "internalType": "uint256",
          "name": "expectedAmountOut",
          "type": "uint256"
        },
        {
          "internalType": "uint256",
          "name": "amountInMax",
          "type": "uint256"
        },
        {
          "internalType": "address[]",
          "name": "path",
          "type": "address[]"
        },
        {
          "internalType": "address",
          "name": "to",
          "type": "address"
        },
        {
          "internalType": "uint256",
          "name": "deadline",
          "type": "uint256"
        }
      ],
      "name": "swapTokensForExactTokens",
      "outputs": [
        {
          "internalType": "uint256[]",
          "name": "amounts",
          "type": "uint256[]"
        }
      ],
      "stateMutability": "nonpayable",
      "type": "function"
    },
    {
      "inputs": [
        {
          "internalType": "uint256",
          "name": "",
          "type": "uint256"
        }
      ],
      "name": "uniV2Routers",
      "outputs": [
        {
          "internalType": "contract IUniswapV2Router",
          "name": "",
          "type": "address"
        }
      ],
      "stateMutability": "view",
      "type": "function"
    }
  ],
  "bytecode": "0x60806040523480156200001157600080fd5b50604051620016f5380380620016f5833981016040819052620000349162000214565b815162000049906000906020850190620000d0565b5060005b8151811015620000c7578181815181106200006457fe5b602002602001015160200151600160008484815181106200008157fe5b602090810291909101810151516001600160a01b0390811683529082019290925260400160002080546001600160a01b031916929091169190911790556001016200004d565b5050506200033f565b82805482825590600052602060002090810192821562000128579160200282015b828111156200012857825182546001600160a01b0319166001600160a01b03909116178255602090920191600190910190620000f1565b50620001369291506200013a565b5090565b5b808211156200013657600081556001016200013b565b600082601f83011262000162578081fd5b815160206200017b620001758362000308565b620002e4565b828152818101908583016040808602880185018910156200019a578687fd5b865b86811015620002065781838b031215620001b4578788fd5b81518083016001600160401b0381118282101715620001cf57fe5b83528351620001de8162000326565b815283870151620001ef8162000326565b81880152855293850193918101916001016200019c565b509198975050505050505050565b6000806040838503121562000227578182fd5b82516001600160401b03808211156200023e578384fd5b818501915085601f83011262000252578384fd5b8151602062000265620001758362000308565b82815281810190858301838502870184018b101562000282578889fd5b8896505b84871015620002b15780516200029c8162000326565b83526001969096019591830191830162000286565b5091880151919650909350505080821115620002cb578283fd5b50620002da8582860162000151565b9150509250929050565b6040518181016001600160401b03811182821017156200030057fe5b604052919050565b60006001600160401b038211156200031c57fe5b5060209081020190565b6001600160a01b03811681146200033c57600080fd5b50565b6113a6806200034f6000396000f3fe608060405234801561001057600080fd5b506004361061008e5760003560e01c80630a32b40b146100935780631889c7b1146100bd57806338ed1739146100dd5780635e57966d146100fd5780638803dbee1461011d5780639451f14714610130578063a2450f4d14610143578063aa9bd80e14610163578063d06ca61f14610176578063e7d4e6bd14610189575b600080fd5b6100a66100a1366004611043565b61019c565b6040516100b49291906111c5565b60405180910390f35b6100d06100cb366004610f0a565b61021d565b6040516100b4919061118d565b6100f06100eb366004611087565b610238565b6040516100b491906111de565b61011061010b366004610f0a565b6105d7565b6040516100b49190611222565b6100f061012b366004611087565b6105f3565b6100a661013e366004611043565b6108d2565b610156610151366004610fd5565b610958565b6040516100b4919061128a565b6100d061017136600461102b565b610a05565b6100f0610184366004611043565b610a2f565b610156610197366004610fd5565b610ab7565b60008060005b6000548110156102155760006101da600083815481106101be57fe5b6000918252602090912001546001600160a01b03168787610958565b90508281111561020c57809250600082815481106101f457fe5b6000918252602090912001546001600160a01b031693505b506001016101a2565b509250929050565b6001602052600090815260409020546001600160a01b031681565b606060008061024686610b4f565b90925090506001600160a01b03821615610292577f3de4e693cec3fd740e59c4cbd5bb84f834e2f0ba0a40d3cbf379364b7904acf182604051610289919061118d565b60405180910390a15b60008061029f8a8461019c565b91509150825160031415610352576000811180156102bd5750888110155b6103256040518060400160405280601f81526020017f53776170526f757465723a20696e76616c696420726f7574696e6720303131008152508560008151811061030357fe5b60200260200101518660028151811061031857fe5b6020026020010151610d25565b9061034c5760405162461bcd60e51b81526004016103439190611222565b60405180910390fd5b506103dd565b6000811180156103625750888110155b6103bd6040518060400160405280601f81526020017f53776170526f757465723a20696e76616c696420726f7574696e672030313200815250856000815181106103a857fe5b60200260200101518660018151811061031857fe5b906103db5760405162461bcd60e51b81526004016103439190611222565b505b826000815181106103ea57fe5b60200260200101516001600160a01b03166323b872dd33308d6040518463ffffffff1660e01b8152600401610421939291906111a1565b602060405180830381600087803b15801561043b57600080fd5b505af115801561044f573d6000803e3d6000fd5b505050506040513d601f19601f820116820180604052508101906104739190610fb5565b508260008151811061048157fe5b60200260200101516001600160a01b031663095ea7b3838c6040518363ffffffff1660e01b81526004016104b69291906111c5565b602060405180830381600087803b1580156104d057600080fd5b505af11580156104e4573d6000803e3d6000fd5b505050506040513d601f19601f820116820180604052508101906105089190610fb5565b506040516338ed173960e01b81526001600160a01b038316906338ed17399061053d908d908d9088908d908d906004016112ac565b600060405180830381600087803b15801561055757600080fd5b505af115801561056b573d6000803e3d6000fd5b505050506040513d6000823e601f3d908101601f191682016040526105939190810190610f26565b6040519095506001600160a01b038316907f39fded47e0083893073674c7057018a2eeea09c81036ddad3666cdf954351f4390600090a25050505095945050505050565b60606105ed826001600160a01b03166014610d64565b92915050565b606060008061060186610b4f565b90925090506001600160a01b0382161561064d577f3de4e693cec3fd740e59c4cbd5bb84f834e2f0ba0a40d3cbf379364b7904acf182604051610644919061118d565b60405180910390a15b60008061065a8a846108d2565b915091508251600314156106ef57600081118015610679575060001981105b80156106855750888111155b6106cb6040518060400160405280601f81526020017f53776170526f757465723a20696e76616c696420726f7574696e6720303231008152508560008151811061030357fe5b906106e95760405162461bcd60e51b81526004016103439190611222565b50610772565b600081118015610700575060001981105b801561070c5750888111155b6107526040518060400160405280601f81526020017f53776170526f757465723a20696e76616c696420726f7574696e672030323200815250856000815181106103a857fe5b906107705760405162461bcd60e51b81526004016103439190611222565b505b8260008151811061077f57fe5b60200260200101516001600160a01b03166323b872dd3330846040518463ffffffff1660e01b81526004016107b6939291906111a1565b602060405180830381600087803b1580156107d057600080fd5b505af11580156107e4573d6000803e3d6000fd5b505050506040513d601f19601f820116820180604052508101906108089190610fb5565b508260008151811061081657fe5b60200260200101516001600160a01b031663095ea7b383836040518363ffffffff1660e01b815260040161084b9291906111c5565b602060405180830381600087803b15801561086557600080fd5b505af1158015610879573d6000803e3d6000fd5b505050506040513d601f19601f8201168201806040525081019061089d9190610fb5565b50604051634401edf760e11b81526001600160a01b03831690638803dbee9061053d908d908d9088908d908d906004016112ac565b6000600019815b600054811015610215576000610911600083815481106108f557fe5b6000918252602090912001546001600160a01b03168787610ab7565b905082811080156109225750600081115b1561094f578092506000828154811061093757fe5b6000918252602090912001546001600160a01b031693505b506001016108d9565b60405163d06ca61f60e01b81526000906001600160a01b0385169063d06ca61f906109899086908690600401611293565b60006040518083038186803b1580156109a157600080fd5b505afa9250505080156109d657506040513d6000823e601f3d908101601f191682016040526109d39190810190610f26565b60015b6109e2575060006109fe565b806001825103815181106109f257fe5b60200260200101519150505b9392505050565b60008181548110610a1557600080fd5b6000918252602090912001546001600160a01b0316905081565b60606000610a3c83610b4f565b9150506000610a4b858361019c565b91505083516001600160401b0381118015610a6557600080fd5b50604051908082528060200260200182016040528015610a8f578160200160208202803683370190505b5092508083600186510381518110610aa357fe5b602002602001018181525050505092915050565b6040516307c0329d60e21b81526000906001600160a01b03851690631f00ca7490610ae89086908690600401611293565b60006040518083038186803b158015610b0057600080fd5b505afa925050508015610b3557506040513d6000823e601f3d908101601f19168201604052610b329190810190610f26565b60015b610b4257506000196109fe565b806000815181106109f257fe5b8051600090829060021415610d20576001600084600081518110610b6f57fe5b6020908102919091018101516001600160a01b039081168352908201929092526040016000205416915081610bda576001600084600181518110610baf57fe5b6020908102919091018101516001600160a01b03908116835290820192909252604001600020541691505b816001600160a01b031683600081518110610bf157fe5b60200260200101516001600160a01b03161480610c335750816001600160a01b031683600181518110610c2057fe5b60200260200101516001600160a01b0316145b15610c3d57600091505b6001600160a01b03821615610d205760408051600380825260808201909252906020820160608036833701905050905082600081518110610c7a57fe5b602002602001015181600081518110610c8f57fe5b60200260200101906001600160a01b031690816001600160a01b0316815250508181600181518110610cbd57fe5b60200260200101906001600160a01b031690816001600160a01b03168152505082600181518110610cea57fe5b602002602001015181600281518110610cff57fe5b60200260200101906001600160a01b031690816001600160a01b0316815250505b915091565b606083610d31846105d7565b610d3a846105d7565b604051602001610d4c93929190611132565b60405160208183030381529060405290509392505050565b60606f181899199a1a9b1b9c1cb0b131b232b360811b60006002808502016001600160401b0381118015610d9757600080fd5b506040519080825280601f01601f191660200182016040528015610dc2576020820181803683370190505b509050600360fc1b81600081518110610dd757fe5b60200101906001600160f81b031916908160001a905350600f60fb1b81600181518110610e0057fe5b60200101906001600160f81b031916908160001a905350600160028502015b6001811115610e6e578286600f1660108110610e3757fe5b1a60f81b828281518110610e4757fe5b60200101906001600160f81b031916908160001a90535060049590951c9460001901610e1f565b508415610e8d5760405162461bcd60e51b815260040161034390611255565b949350505050565b600082601f830112610ea5578081fd5b81356020610eba610eb58361130b565b6112e8565b8281528181019085830183850287018401881015610ed6578586fd5b855b85811015610efd578135610eeb81611358565b84529284019290840190600101610ed8565b5090979650505050505050565b600060208284031215610f1b578081fd5b81356109fe81611358565b60006020808385031215610f38578182fd5b82516001600160401b03811115610f4d578283fd5b8301601f81018513610f5d578283fd5b8051610f6b610eb58261130b565b8181528381019083850185840285018601891015610f87578687fd5b8694505b83851015610fa9578051835260019490940193918501918501610f8b565b50979650505050505050565b600060208284031215610fc6578081fd5b815180151581146109fe578182fd5b600080600060608486031215610fe9578182fd5b8335610ff481611358565b92506020840135915060408401356001600160401b03811115611015578182fd5b61102186828701610e95565b9150509250925092565b60006020828403121561103c578081fd5b5035919050565b60008060408385031215611055578182fd5b8235915060208301356001600160401b03811115611071578182fd5b61107d85828601610e95565b9150509250929050565b600080600080600060a0868803121561109e578081fd5b853594506020860135935060408601356001600160401b038111156110c1578182fd5b6110cd88828901610e95565b93505060608601356110de81611358565b949793965091946080013592915050565b6000815180845260208085019450808401835b838110156111275781516001600160a01b031687529582019590820190600101611102565b509495945050505050565b60008451611144818460208901611328565b80830190506101d160f51b8082528551611165816002850160208a01611328565b60029201918201528351611180816004840160208801611328565b0160040195945050505050565b6001600160a01b0391909116815260200190565b6001600160a01b039384168152919092166020820152604081019190915260600190565b6001600160a01b03929092168252602082015260400190565b6020808252825182820181905260009190848201906040850190845b81811015611216578351835292840192918401916001016111fa565b50909695505050505050565b6000602082528251806020840152611241816040850160208701611328565b601f01601f19169190910160400192915050565b6020808252818101527f537472696e67733a20686578206c656e67746820696e73756666696369656e74604082015260600190565b90815260200190565b600083825260406020830152610e8d60408301846110ef565b600086825285602083015260a060408301526112cb60a08301866110ef565b6001600160a01b0394909416606083015250608001529392505050565b6040518181016001600160401b038111828210171561130357fe5b604052919050565b60006001600160401b0382111561131e57fe5b5060209081020190565b60005b8381101561134357818101518382015260200161132b565b83811115611352576000848401525b50505050565b6001600160a01b038116811461136d57600080fd5b5056fea2646970667358221220099a6befa0308a4bcd5d0b3a4786dcc34b5a78eb2dc4a3cd5793823639a3656a64736f6c63430007060033",
  "linkReferences": {},
  "deployedLinkReferences": {}
}