{
  "_format": "hh-sol-artifact-1",
  "contractName": "DhedgeUniV3V2Router",
  "sourceName": "contracts/routers/DhedgeUniV3V2Router.sol",
  "abi": [
    {
      "inputs": [
        {
          "internalType": "contract IUniswapV3Factory",
          "name": "_uniV3Factory",
          "type": "address"
        },
        {
          "internalType": "contract IV3SwapRouter",
          "name": "_uniV3Router",
          "type": "address"
        }
      ],
      "stateMutability": "nonpayable",
      "type": "constructor"
    },
    {
      "inputs": [
        {
          "internalType": "uint256",
          "name": "amountOut",
          "type": "uint256"
        },
        {
          "internalType": "address[]",
          "name": "path",
          "type": "address[]"
        }
      ],
      "name": "getAmountsIn",
      "outputs": [
        {
          "internalType": "uint256[]",
          "name": "amountsIn",
          "type": "uint256[]"
        }
      ],
      "stateMutability": "view",
      "type": "function"
    },
    {
      "inputs": [
        {
          "internalType": "uint256",
          "name": "amountIn",
          "type": "uint256"
        },
        {
          "internalType": "address[]",
          "name": "path",
          "type": "address[]"
        }
      ],
      "name": "getAmountsOut",
      "outputs": [
        {
          "internalType": "uint256[]",
          "name": "amountsOut",
          "type": "uint256[]"
        }
      ],
      "stateMutability": "view",
      "type": "function"
    },
    {
      "inputs": [
        {
          "internalType": "uint256",
          "name": "",
          "type": "uint256"
        }
      ],
      "name": "poolFees",
      "outputs": [
        {
          "internalType": "uint24",
          "name": "",
          "type": "uint24"
        }
      ],
      "stateMutability": "view",
      "type": "function"
    },
    {
      "inputs": [
        {
          "internalType": "uint256",
          "name": "amountIn",
          "type": "uint256"
        },
        {
          "internalType": "uint256",
          "name": "amountOutMin",
          "type": "uint256"
        },
        {
          "internalType": "address[]",
          "name": "path",
          "type": "address[]"
        },
        {
          "internalType": "address",
          "name": "to",
          "type": "address"
        },
        {
          "internalType": "uint256",
          "name": "",
          "type": "uint256"
        }
      ],
      "name": "swapExactTokensForTokens",
      "outputs": [
        {
          "internalType": "uint256[]",
          "name": "amountsOut",
          "type": "uint256[]"
        }
      ],
      "stateMutability": "nonpayable",
      "type": "function"
    },
    {
      "inputs": [
        {
          "internalType": "uint256",
          "name": "expectedAmountOut",
          "type": "uint256"
        },
        {
          "internalType": "uint256",
          "name": "amountInMax",
          "type": "uint256"
        },
        {
          "internalType": "address[]",
          "name": "path",
          "type": "address[]"
        },
        {
          "internalType": "address",
          "name": "to",
          "type": "address"
        },
        {
          "internalType": "uint256",
          "name": "",
          "type": "uint256"
        }
      ],
      "name": "swapTokensForExactTokens",
      "outputs": [
        {
          "internalType": "uint256[]",
          "name": "amountsIn",
          "type": "uint256[]"
        }
      ],
      "stateMutability": "nonpayable",
      "type": "function"
    },
    {
      "inputs": [],
      "name": "uniV3Factory",
      "outputs": [
        {
          "internalType": "contract IUniswapV3Factory",
          "name": "",
          "type": "address"
        }
      ],
      "stateMutability": "view",
      "type": "function"
    },
    {
      "inputs": [],
      "name": "uniV3Router",
      "outputs": [
        {
          "internalType": "contract IV3SwapRouter",
          "name": "",
          "type": "address"
        }
      ],
      "stateMutability": "view",
      "type": "function"
    }
  ],
  "bytecode": "0x60806040523480156200001157600080fd5b5060405162002ef238038062002ef2833981016040819052620000349162000114565b600080546001600160a01b039384166001600160a01b03199182161782556001805493909416921691909117825560028054808401825591819052600a8083047f405787fa12a823e0f2b7631cc41b3ba8828b3321ca811111fa75cd3aa3bb5ace9081018054600395849006860261010090810a6064810262ffffff91820219909316929092179092558454808801865584810484018054918690068802840a6101f4810290840219909216919091179055845496870190945582860490910180549290950690930290920a610bb881029102199091161790556200016b565b6000806040838503121562000127578182fd5b8251620001348162000152565b6020840151909250620001478162000152565b809150509250929050565b6001600160a01b03811681146200016857600080fd5b50565b612d77806200017b6000396000f3fe608060405234801561001057600080fd5b506004361061006d5760003560e01c806311236758146100725780631f00ca741461009b57806338ed1739146100bb5780635fafa589146100ce578063705e474b146100e35780638803dbee146100eb578063d06ca61f146100fe575b600080fd5b610085610080366004612a4b565b610111565b6040516100929190612ce9565b60405180910390f35b6100ae6100a9366004612a7b565b61014a565b6040516100929190612c53565b6100ae6100c9366004612ac4565b610160565b6100d66103c7565b6040516100929190612c97565b6100d66103d6565b6100ae6100f9366004612ac4565b6103e5565b6100ae61010c366004612a7b565b610673565b6002818154811061012157600080fd5b90600052602060002090600a9182820401919006600302915054906101000a900462ffffff1681565b6060610157848484610680565b50949350505050565b60608061016e8887876109fa565b8151919350915087908390600019880190811061018757fe5b6020026020010151101561019a57600080fd5b858560008181106101a757fe5b90506020020160208101906101bc91906129f3565b6001600160a01b03166323b872dd33308b6040518463ffffffff1660e01b81526004016101eb93929190612bee565b602060405180830381600087803b15801561020557600080fd5b505af1158015610219573d6000803e3d6000fd5b505050506040513d601f19601f8201168201806040525081019061023d9190612a2b565b506102466128be565b6001600160a01b03851660208201526040810189905260608101889052818152868660008161027157fe5b905060200201602081019061028691906129f3565b60015460405163095ea7b360e01b81526001600160a01b039283169263095ea7b3926102b9929116908d90600401612c3a565b602060405180830381600087803b1580156102d357600080fd5b505af11580156102e7573d6000803e3d6000fd5b505050506040513d601f19601f8201168201806040525081019061030b9190612a2b565b5060015460405163b858183f60e01b81526000916001600160a01b03169063b858183f9061033d908590600401612cd6565b602060405180830381600087803b15801561035757600080fd5b505af115801561036b573d6000803e3d6000fd5b505050506040513d601f19601f8201168201806040525081019061038f9190612a63565b9050888110156103ba5760405162461bcd60e51b81526004016103b190612cab565b60405180910390fd5b5050509695505050505050565b6001546001600160a01b031681565b6000546001600160a01b031681565b6060806103f3888787610680565b8092508193505050868260008151811061040957fe5b6020026020010151111561041c57600080fd5b8585600081811061042957fe5b905060200201602081019061043e91906129f3565b6001600160a01b03166323b872dd33308560008151811061045b57fe5b60200260200101516040518463ffffffff1660e01b815260040161048193929190612bee565b602060405180830381600087803b15801561049b57600080fd5b505af11580156104af573d6000803e3d6000fd5b505050506040513d601f19601f820116820180604052508101906104d39190612a2b565b506104dc6128be565b6001600160a01b038516602082015260408101899052825183906000906104ff57fe5b60209081029190910101516060820152818152868660008161051d57fe5b905060200201602081019061053291906129f3565b60015484516001600160a01b039283169263095ea7b3921690869060009061055657fe5b60200260200101516040518363ffffffff1660e01b815260040161057b929190612c3a565b602060405180830381600087803b15801561059557600080fd5b505af11580156105a9573d6000803e3d6000fd5b505050506040513d601f19601f820116820180604052508101906105cd9190612a2b565b506001546040516304dc09a360e11b81526000916001600160a01b0316906309b81346906105ff908590600401612cd6565b602060405180830381600087803b15801561061957600080fd5b505af115801561062d573d6000803e3d6000fd5b505050506040513d601f19601f820116820180604052508101906106519190612a63565b9050888111156103ba5760405162461bcd60e51b81526004016103b190612cab565b60606101578484846109fa565b606080826001600160401b038111801561069957600080fd5b506040519080825280602002602001820160405280156106c3578160200160208202803683370190505b509150848260018686905003815181106106d957fe5b6020908102919091010152838360001981018181106106f457fe5b905060200201602081019061070991906129f3565b6040516020016107199190612b8f565b60408051601f19818403018152919052905060001983015b80156109f1576000196000805b60025481101561096e5760006002828154811061075757fe5b600091825260208220600a808304909101548354919092066003026101000a90910462ffffff1692506001600160a01b0316631698ee828b8b8981811061079a57fe5b90506020020160208101906107af91906129f3565b8c8c60018b038181106107be57fe5b90506020020160208101906107d391906129f3565b856040518463ffffffff1660e01b81526004016107f293929190612c12565b60206040518083038186803b15801561080a57600080fd5b505afa15801561081e573d6000803e3d6000fd5b505050506040513d601f19601f820116820180604052508101906108429190612a0f565b6001600160a01b0316146109655760006108c68a8a8881811061086157fe5b905060200201602081019061087691906129f3565b8b8b60018a0381811061088557fe5b905060200201602081019061089a91906129f3565b8a89815181106108a657fe5b60209081029190910101516000546001600160a01b031692919086610cd8565b905060006109278b8b60018a038181106108dc57fe5b90506020020160208101906108f191906129f3565b8c8c8a8181106108fd57fe5b905060200201602081019061091291906129f3565b6000546001600160a01b031691908587610d8b565b9050811580159061093757508582105b8015610956575088878151811061094a57fe5b60200260200101518110155b15610962578195508294505b50505b5060010161073e565b506000198214156109805750506109f1565b8185600185038151811061099057fe5b60200260200101818152505083818888600187038181106109ad57fe5b90506020020160208101906109c291906129f3565b6040516020016109d493929190612ba7565b60408051808303601f190181529190529350505060001901610731565b50935093915050565b606080826001600160401b0381118015610a1357600080fd5b50604051908082528060200260200182016040528015610a3d578160200160208202803683370190505b5091508482600081518110610a4e57fe5b60200260200101818152505083836000818110610a6757fe5b9050602002016020810190610a7c91906129f3565b604051602001610a8c9190612b8f565b60408051601f19818403018152919052905060015b838110156109f15760008060005b600254811015610c6157600060028281548110610ac857fe5b600091825260208220600a808304909101548354919092066003026101000a90910462ffffff1692506001600160a01b0316631698ee828b8b89818110610b0b57fe5b9050602002016020810190610b2091906129f3565b8c8c60018b03818110610b2f57fe5b9050602002016020810190610b4491906129f3565b856040518463ffffffff1660e01b8152600401610b6393929190612c12565b60206040518083038186803b158015610b7b57600080fd5b505afa158015610b8f573d6000803e3d6000fd5b505050506040513d601f19601f82011682018060405250810190610bb39190612a0f565b6001600160a01b031614610c58576000610c3a8a8a60018903818110610bd557fe5b9050602002016020810190610bea91906129f3565b8b8b89818110610bf657fe5b9050602002016020810190610c0b91906129f3565b8a60018a0381518110610c1a57fe5b60209081029190910101516000546001600160a01b031692919086610d8b565b90508015801590610c4a57508481115b15610c56578193508094505b505b50600101610aaf565b5081610c6e5750506109f1565b81858481518110610c7b57fe5b6020026020010181815250508381888886818110610c9557fe5b9050602002016020810190610caa91906129f3565b604051602001610cbc93929190612ba7565b60408051808303601f1901815291905293505050600101610aa1565b600080866001600160a01b0316631698ee828787866040518463ffffffff1660e01b815260040180846001600160a01b03168152602001836001600160a01b031681526020018262ffffff168152602001935050505060206040518083038186803b158015610d4657600080fd5b505afa158015610d5a573d6000803e3d6000fd5b505050506040513d6020811015610d7057600080fd5b50519050610d8085878684610e33565b979650505050505050565b600080866001600160a01b0316631698ee828787866040518463ffffffff1660e01b815260040180846001600160a01b03168152602001836001600160a01b031681526020018262ffffff168152602001935050505060206040518083038186803b158015610df957600080fd5b505afa158015610e0d573d6000803e3d6000fd5b505050506040513d6020811015610e2357600080fd5b50519050610d8085878684610ebe565b60006001600160a01b03808516908616108180610e798587830385610e6c5773fffd8963efd1fc6a506488495d951d5263988d25610e73565b6401000276a45b86610f34565b915091508215610e9d5760008213610e945781600003610e96565b815b9350610eb3565b60008113610eae5780600003610eb0565b805b93505b505050949350505050565b60006001600160a01b03808516908616118180610ef5858785610e6c5773fffd8963efd1fc6a506488495d951d5263988d25610e73565b915091508215610f185760008113610f105780600003610e96565b809350610eb3565b60008213610f295781600003610eb0565b509695505050505050565b60008080851381610f448861107f565b905084610f915780600001516001600160a01b0316866001600160a01b0316118015610f8c575073fffd8963efd1fc6a506488495d951d5263988d266001600160a01b038716105b610fc3565b80600001516001600160a01b0316866001600160a01b0316108015610fc357506401000276a36001600160a01b038716115b610fd557600080935093505050611076565b6000806000610fe4848b6112b3565b92509250925060005b83511580159061100f5750896001600160a01b0316826001600160a01b031614155b801561102457506000836001600160801b0316115b8015611034575060088460a00151105b1561105f576110498c868685878f8f8d61130a565b60a0870180516001019052945092509050610fed565b61106a848c8b611555565b90985096505050505050505b94509492505050565b6110876128ef565b60008290506000806000836001600160a01b0316633850c7bd6040518163ffffffff1660e01b815260040160e06040518083038186803b1580156110ca57600080fd5b505afa1580156110de573d6000803e3d6000fd5b505050506040513d60e08110156110f457600080fd5b50805160208083015160c09093015160408051630d34328160e11b8152905193975093955093506000926001600160a01b03881692631a68650292600480840193919291829003018186803b15801561114c57600080fd5b505afa158015611160573d6000803e3d6000fd5b505050506040513d602081101561117657600080fd5b5051604080516334324e9f60e21b815290519192506000916001600160a01b038a169163d0c93a7c916004808301926020929190829003018186803b1580156111be57600080fd5b505afa1580156111d2573d6000803e3d6000fd5b505050506040513d60208110156111e857600080fd5b50516040805163ddca3f4360e01b815290519192506000916001600160a01b038b169163ddca3f43916004808301926020929190829003018186803b15801561123057600080fd5b505afa158015611244573d6000803e3d6000fd5b505050506040513d602081101561125a57600080fd5b50516040805160c0810182526001600160a01b039098168852600296870b60208901529290950b918601919091525062ffffff90921660608401526001600160801b039091166080830152151560a08201529392505050565b6112bb612924565b5060808083015183516040805160c0810182529485526000602080870182905287516001600160a01b03169287019290925295015160020b606085015291830184905260a08301939093529092565b600080600061131761296f565b6001600160a01b038916815260408b015160608b015161133991908e896115b9565b9015156040840152600291820b90910b602083015293506113a6898761137357886001600160a01b0316866001600160a01b031611611389565b886001600160a01b0316866001600160a01b0316105b6113935785611395565b885b8a8d600001518f606001518b6116e0565b60c085015260a08401526080830152925084156113fc576113d08160c0015182608001510161190e565b8a51038a5260a08101516113f2906113e79061190e565b60208c015190611924565b60208b0152611437565b6114098160a0015161190e565b8a51018a5260c0810151608082015161143191611426910161190e565b60208c015190611940565b60208b01525b836001600160a01b0316836001600160a01b0316141561151c578060400151156114f35760008c6001600160a01b031663f30dba9383602001516040518263ffffffff1660e01b8152600401808260020b81526020019150506101006040518083038186803b1580156114a957600080fd5b505afa1580156114bd573d6000803e3d6000fd5b505050506040513d6101008110156114d457600080fd5b5060200151905086156114e5576000035b6114ef8982611956565b9250505b8561150257806020015161150b565b60018160200151035b600290810b900b60608b0152611546565b80516001600160a01b038481169116146115465761153983611a0c565b600290810b900b60608b01525b50985098509895505050505050565b600080600084131561158b578261157457602085015185518503611581565b8460000151840385602001515b90925090506115b1565b826115a1578460000151840385602001516115ab565b6020850151855185035b90925090505b935093915050565b6000806000808760020b8760020b816115ce57fe5b059050846115da576001015b60008760020b1280156115fe57508760020b8760020b816115f757fe5b0760020b15155b1561160857600019015b6000866001600160a01b0316635339c29660088460020b901d6040518263ffffffff1660e01b8152600401808260010b815260200191505060206040518083038186803b15801561165857600080fd5b505afa15801561166c573d6000803e3d6000fd5b505050506040513d602081101561168257600080fd5b5051905061169281898b89611cf7565b9095509350620d89e719600286900b12156116b357620d89e71994506116c9565b620d89e8600286900b13156116c957620d89e894505b6116d285611dfe565b925050509450945094915050565b60008080808415156001600160a01b03808b16908c16101514611730576040805162461bcd60e51b815260206004820152600360248201526214d41160ea1b604482015290519081900360640190fd5b600087128015906117a15760006117558989620f42400362ffffff16620f4240612125565b90508661176e576117698c8c8c60016121d6565b61177b565b61177b8b8d8c6001612251565b945084811061178c578a955061179b565b6117988c8b838a6123a8565b95505b506117eb565b856117b8576117b38b8b8b6000612251565b6117c5565b6117c58a8c8b60006121d6565b92508288600003106117d9578994506117eb565b6117e88b8a8a600003896123f4565b94505b6001600160a01b038a811690861614861561184e5780801561180a5750815b6118205761181b868d8c6001612251565b611822565b845b945080801561182f575081155b61184557611840868d8c60006121d6565b611847565b835b9350611898565b8080156118585750815b61186e576118698c878c60016121d6565b611870565b845b945080801561187d575081155b6118935761188e8c878c6000612251565b611895565b835b93505b811580156118a857508860000384115b156118b4578860000393505b8180156118d357508a6001600160a01b0316866001600160a01b031614155b156118e25784890392506118ff565b6118fc858962ffffff168a620f42400362ffffff16612440565b92505b50509650965096509692505050565b6000600160ff1b821061192057600080fd5b5090565b8082038281131560008312151461193a57600080fd5b92915050565b8181018281121560008312151461193a57600080fd5b60008082600f0b12156119bb57826001600160801b03168260000384039150816001600160801b0316106119b6576040805162461bcd60e51b81526020600482015260026024820152614c5360f01b604482015290519081900360640190fd5b61193a565b826001600160801b03168284019150816001600160801b0316101561193a576040805162461bcd60e51b81526020600482015260026024820152614c4160f01b604482015290519081900360640190fd5b60006401000276a36001600160a01b03831610801590611a48575073fffd8963efd1fc6a506488495d951d5263988d266001600160a01b038316105b611a7d576040805162461bcd60e51b81526020600482015260016024820152602960f91b604482015290519081900360640190fd5b600160201b600160c01b03602083901b166001600160801b03811160071b81811c6001600160401b03811160061b90811c63ffffffff811160051b90811c61ffff811160041b90811c60ff8111600390811b91821c600f811160021b90811c918211600190811b92831c97908811961790941790921717909117171760808110611b0f57607f810383901c9150611b19565b80607f0383901b91505b908002607f81811c60ff83811c9190911c800280831c81831c1c800280841c81841c1c800280851c81851c1c800280861c81861c1c800280871c81871c1c800280881c81881c1c800280891c81891c1c8002808a1c818a1c1c8002808b1c818b1c1c8002808c1c818c1c1c8002808d1c818d1c1c8002808e1c9c81901c9c909c1c80029c8d901c9e9d607f198f0160401b60c09190911c6001603f1b161760c19b909b1c6001603e1b169a909a1760c29990991c6001603d1b169890981760c39790971c6001603c1b169690961760c49590951c6001603b1b169490941760c59390931c6001603a1b169290921760c69190911c600160391b161760c79190911c600160381b161760c89190911c600160371b161760c99190911c600160361b161760ca9190911c600160351b161760cb9190911c600160341b161760cc9190911c600160331b161760cd9190911c600160321b1617693627a301d71055774c8581026f028f6481ab7f045a5af012a19d003aa9198101608090811d906fdb2df09e81959a81455e260799a0632f8301901d600281810b9083900b14611ce857886001600160a01b0316611ccc82611dfe565b6001600160a01b03161115611ce15781611ce3565b805b611cea565b815b9998505050505050505050565b60008060008460020b8660020b81611d0b57fe5b05905060008660020b128015611d3257508460020b8660020b81611d2b57fe5b0760020b15155b15611d3c57600019015b8315611d99576000611d4d8261247a565b600160ff82161b8001600019018a81168015159650919350915084611d7957878360ff16850302611d8f565b87611d838261248c565b60ff168460ff16038503025b9550505050611df4565b6000611da78260010161247a565b600019600160ff83161b01198a81168015159650919350915084611dd857878360ff0360ff16856001010102611dee565b8783611de383612527565b0360ff168560010101025b95505050505b5094509492505050565b60008060008360020b12611e15578260020b611e1d565b8260020b6000035b9050620d89e8811115611e5b576040805162461bcd60e51b81526020600482015260016024820152601560fa1b604482015290519081900360640190fd5b600060018216611e6f57600160801b611e81565b6ffffcb933bd6fad37aa2d162d1a5940015b6001600160881b031690506002821615611eab576ffff97272373d413259a46990580e213a0260801c5b6004821615611eca576ffff2e50f5f656932ef12357cf3c7fdcc0260801c5b6008821615611ee9576fffe5caca7e10e4e61c3624eaa0941cd00260801c5b6010821615611f08576fffcb9843d60f6159c9db58835c9266440260801c5b6020821615611f27576fff973b41fa98c081472e6896dfb254c00260801c5b6040821615611f46576fff2ea16466c96a3843ec78b326b528610260801c5b6080821615611f65576ffe5dee046a99a2a811c461f1969c30530260801c5b610100821615611f85576ffcbe86c7900a88aedcffc83b479aa3a40260801c5b610200821615611fa5576ff987a7253ac413176f2b074cf7815e540260801c5b610400821615611fc5576ff3392b0822b70005940c7a398e4b70f30260801c5b610800821615611fe5576fe7159475a2c29b7443b29c7fa6e889d90260801c5b611000821615612005576fd097f3bdfd2022b8845ad8f792aa58250260801c5b612000821615612025576fa9f746462d870fdf8a65dc1f90e061e50260801c5b614000821615612045576f70d869a156d2a1b890bb3df62baf32f70260801c5b618000821615612065576f31be135f97d08fd981231505542fcfa60260801c5b62010000821615612086576f09aa508b5b7a84e1c677de54f3e99bc90260801c5b620200008216156120a6576e5d6af8dedb81196699c329225ee6040260801c5b620400008216156120c5576d2216e584f5fa1ea926041bedfe980260801c5b620800008216156120e2576b048a170391f7dc42444e8fa20260801c5b60008460020b13156120fd5780600019816120f957fe5b0490505b600160201b810615612110576001612113565b60005b60ff16602082901c0192505050919050565b600080806000198587098686029250828110908390030390508061215b576000841161215057600080fd5b5082900490506121cf565b80841161216757600080fd5b600084868809851960019081018716968790049682860381900495909211909303600082900391909104909201919091029190911760038402600290811880860282030280860282030280860282030280860282030280860282030280860290910302029150505b9392505050565b6000836001600160a01b0316856001600160a01b031611156121f6579293925b816122235761221e836001600160801b03168686036001600160a01b0316600160601b612125565b612246565b612246836001600160801b03168686036001600160a01b0316600160601b612440565b90505b949350505050565b6000836001600160a01b0316856001600160a01b03161115612271579293925b600160601b600160e01b03606084901b166001600160a01b03868603811690871661229b57600080fd5b600082158015906122ab57508115155b156122d05760fe6122bb8361248c565b60ff166122c78561248c565b60ff1601101590505b801561235257846123145761230f6122fb876001600160801b0316848a6001600160a01b0316612125565b600160601b8a6001600160a01b0316612125565b612348565b612348612334876001600160801b0316848a6001600160a01b0316612440565b600160601b8a6001600160a01b0316612440565b9350505050612249565b8461238257876001600160a01b031661237584848a6001600160a01b0316612125565b8161237c57fe5b04612348565b61234861239984848a6001600160a01b0316612440565b896001600160a01b0316612610565b600080856001600160a01b0316116123bf57600080fd5b6000846001600160801b0316116123d557600080fd5b816123e75761221e858585600161261b565b61224685858560016126fc565b600080856001600160a01b03161161240b57600080fd5b6000846001600160801b03161161242157600080fd5b816124335761221e85858560006126fc565b612246858585600061261b565b600061244d848484612125565b90506000828061245957fe5b84860911156121cf57600019811061247057600080fd5b6001019392505050565b60020b600881901d9161010090910790565b600080821161249a57600080fd5b600160801b82106124ad57608091821c91015b600160401b82106124c057604091821c91015b600160201b82106124d357602091821c91015b6201000082106124e557601091821c91015b61010082106124f657600891821c91015b6010821061250657600491821c91015b6004821061251657600291821c91015b60028210612522576001015b919050565b600080821161253557600080fd5b5060ff6001600160801b0382161561255057607f1901612558565b608082901c91505b6001600160401b0382161561257057603f1901612578565b604082901c91505b63ffffffff82161561258d57601f1901612595565b602082901c91505b61ffff8216156125a857600f19016125b0565b601082901c91505b60ff8216156125c257600719016125ca565b600882901c91505b600f8216156125dc57600319016125e4565b600482901c91505b60038216156125f657600119016125fe565b600282901c91505b60018216156125225760001901919050565b808204910615150190565b6000811561268e5760006001600160a01b038411156126515761264c84600160601b876001600160801b0316612125565b612669565b6001600160801b038516606085901b8161266757fe5b045b90506126866126816001600160a01b03881683612898565b6128a8565b915050612249565b60006001600160a01b038411156126bc576126b784600160601b876001600160801b0316612440565b6126d3565b6126d3606085901b6001600160801b038716612610565b905080866001600160a01b0316116126ea57600080fd5b6001600160a01b038616039050612249565b60008261270a575083612249565b600160601b600160e01b03606085901b166000811580159061273457506001600160a01b03871615155b156127625760fe61274d886001600160a01b031661248c565b60ff166127598461248c565b60ff1601101590505b8315612814576001600160a01b0387168581029086828161277f57fe5b0414156127ee578161279157806127ae565b6127ae86896001600160a01b0316896001600160801b0316612440565b9050816127bb57826127c1565b600160601b5b92508083018381106127ec576127e1848a6001600160a01b031683612440565b945050505050612249565b505b6123488361280f888b6001600160a01b0316878161280857fe5b0490612898565b612610565b6001600160a01b0387168581029086828161282b57fe5b0414801561283857508083115b61284157600080fd5b8161284c5780612869565b61286986896001600160a01b0316896001600160801b0316612440565b905081612876578261287c565b600160601b5b92508083036127e1612681856001600160a01b038c1684612440565b8082018281101561193a57600080fd5b806001600160a01b038116811461252257600080fd5b60405180608001604052806060815260200160006001600160a01b0316815260200160008152602001600081525090565b6040805160c081018252600080825260208201819052918101829052606081018290526080810182905260a081019190915290565b6040518060c00160405280600081526020016000815260200160006001600160a01b03168152602001600060020b815260200160006001600160801b03168152602001600081525090565b6040805160e081018252600080825260208201819052918101829052606081018290526080810182905260a0810182905260c081019190915290565b60008083601f8401126129bc578182fd5b5081356001600160401b038111156129d2578182fd5b60208301915083602080830285010111156129ec57600080fd5b9250929050565b600060208284031215612a04578081fd5b81356121cf81612d29565b600060208284031215612a20578081fd5b81516121cf81612d29565b600060208284031215612a3c578081fd5b815180151581146121cf578182fd5b600060208284031215612a5c578081fd5b5035919050565b600060208284031215612a74578081fd5b5051919050565b600080600060408486031215612a8f578182fd5b8335925060208401356001600160401b03811115612aab578283fd5b612ab7868287016129ab565b9497909650939450505050565b60008060008060008060a08789031215612adc578182fd5b863595506020870135945060408701356001600160401b03811115612aff578283fd5b612b0b89828a016129ab565b9095509350506060870135612b1f81612d29565b80925050608087013590509295509295509295565b60008151608084528051806080860152612b558160a0870160208501612cf9565b6020848101516001600160a01b03169086015260408085015190860152606093840151938501939093525050601f01601f19160160a00190565b60609190911b6001600160601b031916815260140190565b60008451612bb9818460208901612cf9565b60e89490941b6001600160e81b0319169190930190815260609190911b6001600160601b031916600382015260170192915050565b6001600160a01b039384168152919092166020820152604081019190915260600190565b6001600160a01b03938416815291909216602082015262ffffff909116604082015260600190565b6001600160a01b03929092168252602082015260400190565b6020808252825182820181905260009190848201906040850190845b81811015612c8b57835183529284019291840191600101612c6f565b50909695505050505050565b6001600160a01b0391909116815260200190565b602080825260119082015270746f6f206d75636820736c69707061676560781b604082015260600190565b6000602082526121cf6020830184612b34565b62ffffff91909116815260200190565b60005b83811015612d14578181015183820152602001612cfc565b83811115612d23576000848401525b50505050565b6001600160a01b0381168114612d3e57600080fd5b5056fea264697066735822122030d7c3646bcf9f0f6ecfe030732cf0bc2eb5046259a5a1a2eaae620b6061f08564736f6c63430007060033",
  "linkReferences": {},
  "deployedLinkReferences": {}
}