{
  "_format": "hh-sol-artifact-1",
  "contractName": "PoolTokenSwapper",
  "sourceName": "contracts/swappers/poolTokenSwapper/PoolTokenSwapper.sol",
  "abi": [
    {
      "anonymous": false,
      "inputs": [
        {
          "indexed": true,
          "internalType": "address",
          "name": "previousOwner",
          "type": "address"
        },
        {
          "indexed": true,
          "internalType": "address",
          "name": "newOwner",
          "type": "address"
        }
      ],
      "name": "OwnershipTransferred",
      "type": "event"
    },
    {
      "anonymous": false,
      "inputs": [
        {
          "indexed": false,
          "internalType": "address",
          "name": "account",
          "type": "address"
        }
      ],
      "name": "Paused",
      "type": "event"
    },
    {
      "anonymous": false,
      "inputs": [
        {
          "indexed": true,
          "internalType": "address",
          "name": "user",
          "type": "address"
        },
        {
          "indexed": true,
          "internalType": "address",
          "name": "tokenIn",
          "type": "address"
        },
        {
          "indexed": true,
          "internalType": "address",
          "name": "tokenOut",
          "type": "address"
        },
        {
          "indexed": false,
          "internalType": "uint256",
          "name": "amountIn",
          "type": "uint256"
        },
        {
          "indexed": false,
          "internalType": "uint256",
          "name": "amountOut",
          "type": "uint256"
        }
      ],
      "name": "Swap",
      "type": "event"
    },
    {
      "anonymous": false,
      "inputs": [
        {
          "indexed": true,
          "internalType": "address",
          "name": "swapper",
          "type": "address"
        },
        {
          "indexed": true,
          "internalType": "address",
          "name": "manager",
          "type": "address"
        },
        {
          "indexed": false,
          "internalType": "uint16",
          "name": "transactionType",
          "type": "uint16"
        }
      ],
      "name": "TokenSwapperTransactionExecuted",
      "type": "event"
    },
    {
      "anonymous": false,
      "inputs": [
        {
          "indexed": false,
          "internalType": "address",
          "name": "account",
          "type": "address"
        }
      ],
      "name": "Unpaused",
      "type": "event"
    },
    {
      "inputs": [
        {
          "internalType": "address",
          "name": "",
          "type": "address"
        }
      ],
      "name": "assetConfiguration",
      "outputs": [
        {
          "internalType": "bool",
          "name": "",
          "type": "bool"
        }
      ],
      "stateMutability": "view",
      "type": "function"
    },
    {
      "inputs": [
        {
          "internalType": "bytes32",
          "name": "data",
          "type": "bytes32"
        }
      ],
      "name": "convert32toAddress",
      "outputs": [
        {
          "internalType": "address",
          "name": "o",
          "type": "address"
        }
      ],
      "stateMutability": "pure",
      "type": "function"
    },
    {
      "inputs": [
        {
          "internalType": "address",
          "name": "to",
          "type": "address"
        },
        {
          "internalType": "bytes",
          "name": "data",
          "type": "bytes"
        }
      ],
      "name": "execTransaction",
      "outputs": [
        {
          "internalType": "bool",
          "name": "success",
          "type": "bool"
        }
      ],
      "stateMutability": "nonpayable",
      "type": "function"
    },
    {
      "inputs": [],
      "name": "factory",
      "outputs": [
        {
          "internalType": "address",
          "name": "",
          "type": "address"
        }
      ],
      "stateMutability": "view",
      "type": "function"
    },
    {
      "inputs": [
        {
          "internalType": "bytes",
          "name": "data",
          "type": "bytes"
        },
        {
          "internalType": "uint8",
          "name": "inputNum",
          "type": "uint8"
        },
        {
          "internalType": "uint8",
          "name": "arrayIndex",
          "type": "uint8"
        }
      ],
      "name": "getArrayIndex",
      "outputs": [
        {
          "internalType": "bytes32",
          "name": "",
          "type": "bytes32"
        }
      ],
      "stateMutability": "pure",
      "type": "function"
    },
    {
      "inputs": [
        {
          "internalType": "bytes",
          "name": "data",
          "type": "bytes"
        },
        {
          "internalType": "uint8",
          "name": "inputNum",
          "type": "uint8"
        }
      ],
      "name": "getArrayLast",
      "outputs": [
        {
          "internalType": "bytes32",
          "name": "",
          "type": "bytes32"
        }
      ],
      "stateMutability": "pure",
      "type": "function"
    },
    {
      "inputs": [
        {
          "internalType": "bytes",
          "name": "data",
          "type": "bytes"
        },
        {
          "internalType": "uint8",
          "name": "inputNum",
          "type": "uint8"
        }
      ],
      "name": "getArrayLength",
      "outputs": [
        {
          "internalType": "uint256",
          "name": "",
          "type": "uint256"
        }
      ],
      "stateMutability": "pure",
      "type": "function"
    },
    {
      "inputs": [
        {
          "internalType": "bytes",
          "name": "data",
          "type": "bytes"
        },
        {
          "internalType": "uint8",
          "name": "inputNum",
          "type": "uint8"
        },
        {
          "internalType": "uint256",
          "name": "offset",
          "type": "uint256"
        }
      ],
      "name": "getBytes",
      "outputs": [
        {
          "internalType": "bytes",
          "name": "",
          "type": "bytes"
        }
      ],
      "stateMutability": "pure",
      "type": "function"
    },
    {
      "inputs": [
        {
          "internalType": "bytes",
          "name": "data",
          "type": "bytes"
        },
        {
          "internalType": "uint8",
          "name": "inputNum",
          "type": "uint8"
        }
      ],
      "name": "getInput",
      "outputs": [
        {
          "internalType": "bytes32",
          "name": "",
          "type": "bytes32"
        }
      ],
      "stateMutability": "pure",
      "type": "function"
    },
    {
      "inputs": [
        {
          "internalType": "bytes",
          "name": "data",
          "type": "bytes"
        }
      ],
      "name": "getMethod",
      "outputs": [
        {
          "internalType": "bytes4",
          "name": "",
          "type": "bytes4"
        }
      ],
      "stateMutability": "pure",
      "type": "function"
    },
    {
      "inputs": [
        {
          "internalType": "bytes",
          "name": "data",
          "type": "bytes"
        }
      ],
      "name": "getParams",
      "outputs": [
        {
          "internalType": "bytes",
          "name": "",
          "type": "bytes"
        }
      ],
      "stateMutability": "pure",
      "type": "function"
    },
    {
      "inputs": [
        {
          "internalType": "address",
          "name": "tokenIn",
          "type": "address"
        },
        {
          "internalType": "address",
          "name": "tokenOut",
          "type": "address"
        },
        {
          "internalType": "uint256",
          "name": "amountIn",
          "type": "uint256"
        }
      ],
      "name": "getSwapQuote",
      "outputs": [
        {
          "internalType": "uint256",
          "name": "amountOut",
          "type": "uint256"
        }
      ],
      "stateMutability": "view",
      "type": "function"
    },
    {
      "inputs": [
        {
          "internalType": "address",
          "name": "_factory",
          "type": "address"
        },
        {
          "internalType": "address",
          "name": "_manager",
          "type": "address"
        },
        {
          "components": [
            {
              "internalType": "address",
              "name": "asset",
              "type": "address"
            },
            {
              "internalType": "bool",
              "name": "assetEnabled",
              "type": "bool"
            }
          ],
          "internalType": "struct PoolTokenSwapper.AssetConfig[]",
          "name": "_assetConfigs",
          "type": "tuple[]"
        },
        {
          "components": [
            {
              "internalType": "address",
              "name": "pool",
              "type": "address"
            },
            {
              "internalType": "uint256",
              "name": "poolSwapFee",
              "type": "uint256"
            },
            {
              "internalType": "bool",
              "name": "poolEnabled",
              "type": "bool"
            }
          ],
          "internalType": "struct PoolTokenSwapper.PoolConfig[]",
          "name": "_poolConfigs",
          "type": "tuple[]"
        },
        {
          "components": [
            {
              "internalType": "address",
              "name": "sender",
              "type": "address"
            },
            {
              "internalType": "bool",
              "name": "status",
              "type": "bool"
            }
          ],
          "internalType": "struct PoolTokenSwapper.SwapWhitelistConfig[]",
          "name": "_swapWhitelist",
          "type": "tuple[]"
        }
      ],
      "name": "initialize",
      "outputs": [],
      "stateMutability": "nonpayable",
      "type": "function"
    },
    {
      "inputs": [
        {
          "internalType": "address",
          "name": "asset",
          "type": "address"
        }
      ],
      "name": "isSupportedAsset",
      "outputs": [
        {
          "internalType": "bool",
          "name": "supported",
          "type": "bool"
        }
      ],
      "stateMutability": "view",
      "type": "function"
    },
    {
      "inputs": [],
      "name": "manager",
      "outputs": [
        {
          "internalType": "address",
          "name": "",
          "type": "address"
        }
      ],
      "stateMutability": "view",
      "type": "function"
    },
    {
      "inputs": [],
      "name": "owner",
      "outputs": [
        {
          "internalType": "address",
          "name": "",
          "type": "address"
        }
      ],
      "stateMutability": "view",
      "type": "function"
    },
    {
      "inputs": [],
      "name": "pause",
      "outputs": [],
      "stateMutability": "nonpayable",
      "type": "function"
    },
    {
      "inputs": [],
      "name": "paused",
      "outputs": [
        {
          "internalType": "bool",
          "name": "",
          "type": "bool"
        }
      ],
      "stateMutability": "view",
      "type": "function"
    },
    {
      "inputs": [
        {
          "internalType": "address",
          "name": "",
          "type": "address"
        }
      ],
      "name": "poolConfiguration",
      "outputs": [
        {
          "internalType": "uint256",
          "name": "poolSwapFee",
          "type": "uint256"
        },
        {
          "internalType": "bool",
          "name": "poolEnabled",
          "type": "bool"
        }
      ],
      "stateMutability": "view",
      "type": "function"
    },
    {
      "inputs": [],
      "name": "poolFactory",
      "outputs": [
        {
          "internalType": "address",
          "name": "",
          "type": "address"
        }
      ],
      "stateMutability": "view",
      "type": "function"
    },
    {
      "inputs": [],
      "name": "poolLogic",
      "outputs": [
        {
          "internalType": "address",
          "name": "",
          "type": "address"
        }
      ],
      "stateMutability": "view",
      "type": "function"
    },
    {
      "inputs": [
        {
          "internalType": "bytes",
          "name": "data",
          "type": "bytes"
        },
        {
          "internalType": "uint256",
          "name": "offset",
          "type": "uint256"
        },
        {
          "internalType": "uint256",
          "name": "length",
          "type": "uint256"
        }
      ],
      "name": "read32",
      "outputs": [
        {
          "internalType": "bytes32",
          "name": "o",
          "type": "bytes32"
        }
      ],
      "stateMutability": "pure",
      "type": "function"
    },
    {
      "inputs": [
        {
          "internalType": "bytes",
          "name": "data",
          "type": "bytes"
        },
        {
          "internalType": "uint256",
          "name": "offset",
          "type": "uint256"
        }
      ],
      "name": "read4left",
      "outputs": [
        {
          "internalType": "bytes4",
          "name": "o",
          "type": "bytes4"
        }
      ],
      "stateMutability": "pure",
      "type": "function"
    },
    {
      "inputs": [],
      "name": "renounceOwnership",
      "outputs": [],
      "stateMutability": "nonpayable",
      "type": "function"
    },
    {
      "inputs": [
        {
          "internalType": "contract IERC20Upgradeable",
          "name": "_token",
          "type": "address"
        },
        {
          "internalType": "uint256",
          "name": "_amount",
          "type": "uint256"
        }
      ],
      "name": "salvage",
      "outputs": [],
      "stateMutability": "nonpayable",
      "type": "function"
    },
    {
      "inputs": [
        {
          "components": [
            {
              "internalType": "address",
              "name": "asset",
              "type": "address"
            },
            {
              "internalType": "bool",
              "name": "assetEnabled",
              "type": "bool"
            }
          ],
          "internalType": "struct PoolTokenSwapper.AssetConfig[]",
          "name": "_assetConfigs",
          "type": "tuple[]"
        }
      ],
      "name": "setAssets",
      "outputs": [],
      "stateMutability": "nonpayable",
      "type": "function"
    },
    {
      "inputs": [
        {
          "internalType": "address",
          "name": "_manager",
          "type": "address"
        }
      ],
      "name": "setManager",
      "outputs": [],
      "stateMutability": "nonpayable",
      "type": "function"
    },
    {
      "inputs": [
        {
          "components": [
            {
              "internalType": "address",
              "name": "pool",
              "type": "address"
            },
            {
              "internalType": "uint256",
              "name": "poolSwapFee",
              "type": "uint256"
            },
            {
              "internalType": "bool",
              "name": "poolEnabled",
              "type": "bool"
            }
          ],
          "internalType": "struct PoolTokenSwapper.PoolConfig[]",
          "name": "_poolConfigs",
          "type": "tuple[]"
        }
      ],
      "name": "setPools",
      "outputs": [],
      "stateMutability": "nonpayable",
      "type": "function"
    },
    {
      "inputs": [
        {
          "components": [
            {
              "internalType": "address",
              "name": "sender",
              "type": "address"
            },
            {
              "internalType": "bool",
              "name": "status",
              "type": "bool"
            }
          ],
          "internalType": "struct PoolTokenSwapper.SwapWhitelistConfig[]",
          "name": "_swapWhitelist",
          "type": "tuple[]"
        }
      ],
      "name": "setSwapWhitelist",
      "outputs": [],
      "stateMutability": "nonpayable",
      "type": "function"
    },
    {
      "inputs": [
        {
          "internalType": "address",
          "name": "tokenIn",
          "type": "address"
        },
        {
          "internalType": "address",
          "name": "tokenOut",
          "type": "address"
        },
        {
          "internalType": "uint256",
          "name": "amountIn",
          "type": "uint256"
        },
        {
          "internalType": "uint256",
          "name": "minAmountOut",
          "type": "uint256"
        }
      ],
      "name": "swap",
      "outputs": [
        {
          "internalType": "uint256",
          "name": "amountOut",
          "type": "uint256"
        }
      ],
      "stateMutability": "nonpayable",
      "type": "function"
    },
    {
      "inputs": [
        {
          "internalType": "address",
          "name": "",
          "type": "address"
        }
      ],
      "name": "swapWhitelist",
      "outputs": [
        {
          "internalType": "bool",
          "name": "",
          "type": "bool"
        }
      ],
      "stateMutability": "view",
      "type": "function"
    },
    {
      "inputs": [
        {
          "internalType": "address",
          "name": "newOwner",
          "type": "address"
        }
      ],
      "name": "transferOwnership",
      "outputs": [],
      "stateMutability": "nonpayable",
      "type": "function"
    },
    {
      "inputs": [],
      "name": "unpause",
      "outputs": [],
      "stateMutability": "nonpayable",
      "type": "function"
    }
  ],
  "bytecode": "0x608060405234801561001057600080fd5b5061399e806100206000396000f3fe608060405234801561001057600080fd5b506004361061019b5760003560e01c80637ae7cfb5116100ea5780637ae7cfb5146102e85780637d6fbef0146102fb57806382f86acc1461030e5780638456cb591461032157806385c315da146103295780638da5cb5b1461033c578063998546e3146103445780639be918e6146103575780639e2c13991461036a578063c3c6279f1461037d578063c45a015514610390578063d043596114610398578063d0ebdbe7146103ab578063db896b57146103be578063dd8be8c3146103d1578063f2fde38b146103e4578063fe029156146103f75761019b565b806309ff5c7d146101a05780631053f952146101c95780631eba3077146101e9578063293d8063146102095780632d05bbec1461022957806339b81fd91461023e5780633e3309cc146102465780633f4ba83a1461025957806341dc16c3146102615780634219dc4014610274578063426067711461027c5780634341dfde1461028f578063481c6a75146102b05780635c975abb146102b857806368901513146102cd578063715018a6146102e0575b600080fd5b6101b36101ae3660046132ad565b61040a565b6040516101c0919061349e565b60405180910390f35b6101dc6101d73660046132fc565b61049d565b6040516101c091906134bc565b6101fc6101f73660046131d6565b610537565b6040516101c09190613436565b61021c610217366004613220565b61053a565b6040516101c091906134a7565b61023c61023736600461316b565b61059c565b005b6101fc61060c565b61023c6102543660046133a3565b61061b565b61023c610691565b6101b361026f366004613342565b6106fd565b6101fc6107db565b6101b361028a366004613028565b6107ea565b6102a261029d366004612f36565b610885565b6040516101c0929190613839565b6101fc6108a1565b6102c06108b0565b6040516101c09190613493565b6101dc6102db3660046131ee565b6108b9565b61023c6108d4565b6102c06102f63660046130ad565b61096e565b61023c61030936600461312c565b610eb8565b6101b361031c3660046132ad565b610f24565b61023c610f3b565b61023c610337366004612f6e565b610fa5565b6101fc6110b7565b6101b36103523660046132ad565b6110c6565b6102c0610365366004612f36565b6110f7565b61023c61037836600461312c565b611214565b61021c61038b3660046131ee565b611280565b6101fc61128d565b6102c06103a6366004612f36565b61129c565b61023c6103b9366004612f36565b6112b1565b6101b36103cc366004613262565b61131f565b6102c06103df366004612f36565b61139e565b61023c6103f2366004612f36565b6113b3565b6101b3610405366004613068565b6114a4565b600080610422848460200260040160ff16602061131f565b905060006104358560048401602061131f565b90508061047e576040805162461bcd60e51b8152602060048201526012602482015271696e707574206973206e6f7420617272617960701b604482015290519081900360640190fd5b61049285602080840285016004019061131f565b925050505b92915050565b6060601482106104e5576040805162461bcd60e51b815260206004820152600e60248201526d1a5b9d985b1a59081bd9999cd95d60921b604482015290519081900360640190fd5b816020029150600061050485848660200260040160ff1601602061131f565b9050600061051986858401600401602061131f565b905061052b8660248487010183611619565b925050505b9392505050565b90565b60008160040183511015610593576040805162461bcd60e51b815260206004820152601b60248201527a52656164696e67206279746573206f7574206f6620626f756e647360281b604482015290519081900360640190fd5b50016020015190565b6105a461176a565b6001600160a01b03166105b56110b7565b6001600160a01b0316146105fe576040805162461bcd60e51b815260206004820181905260248201526000805160206138ff833981519152604482015290519081900360640190fd5b610608828261176e565b5050565b60ca546001600160a01b031681565b61062361176a565b6001600160a01b03166106346110b7565b6001600160a01b03161461067d576040805162461bcd60e51b815260206004820181905260248201526000805160206138ff833981519152604482015290519081900360640190fd5b6106086001600160a01b038316338361190c565b61069961176a565b6001600160a01b03166106aa6110b7565b6001600160a01b0316146106f3576040805162461bcd60e51b815260206004820181905260248201526000805160206138ff833981519152604482015290519081900360640190fd5b6106fb61195e565b565b600080610715858560200260040160ff16602061131f565b905060006107288660048401602061131f565b905080610771576040805162461bcd60e51b8152602060048201526012602482015271696e707574206973206e6f7420617272617960701b604482015290519081900360640190fd5b60ff841681116107c1576040805162461bcd60e51b815260206004820152601660248201527534b73b30b634b21030b93930bc903837b9b4ba34b7b760511b604482015290519081900360640190fd5b61052b866020600160ff881601810285016004019061131f565b60c9546001600160a01b031681565b60008060008060006107fc88886119fe565b935093509350935083801561080e5750805b156108255761081e888888611aaa565b945061087a565b82801561082f5750815b1561083f5761081e888888611cfb565b8280156108495750805b156108595761081e888888611f0a565b60405162461bcd60e51b81526004016108719061359f565b60405180910390fd5b505050509392505050565b60cd602052600090815260409020805460019091015460ff1682565b60cb546001600160a01b031681565b60655460ff1690565b6060610497600480845103846116199092919063ffffffff16565b6108dc61176a565b6001600160a01b03166108ed6110b7565b6001600160a01b031614610936576040805162461bcd60e51b815260206004820181905260248201526000805160206138ff833981519152604482015290519081900360640190fd5b6033546040516000916001600160a01b03169060008051602061391f833981519152908390a3603380546001600160a01b0319169055565b6000600260975414156109c8576040805162461bcd60e51b815260206004820152601f60248201527f5265656e7472616e637947756172643a207265656e7472616e742063616c6c00604482015290519081900360640190fd5b60026097556109d56108b0565b15610a1a576040805162461bcd60e51b815260206004820152601060248201526f14185d5cd8589b194e881c185d5cd95960821b604482015290519081900360640190fd5b60cb546001600160a01b03163314610a445760405162461bcd60e51b815260040161087190613797565b6001600160a01b038416610a6a5760405162461bcd60e51b8152600401610871906137f3565b60c954604051634f8419b960e01b81526000916001600160a01b031690634f8419b990610a9b908890600401613436565b60206040518083038186803b158015610ab357600080fd5b505afa158015610ac7573d6000803e3d6000fd5b505050506040513d601f19601f82011682018060405250810190610aeb9190612f52565b90506000806001600160a01b03831615610b8d57604051636179309d60e01b81528392506001600160a01b03831690636179309d90610b349030908b908b908b9060040161344a565b6040805180830381600087803b158015610b4d57600080fd5b505af1158015610b61573d6000803e3d6000fd5b505050506040513d601f19601f82011682018060405250810190610b8591906133ce565b509050610cde565b6001600160a01b038716600090815260cc602052604090205460ff1680610bcf57506001600160a01b038716600090815260cd602052604090206001015460ff165b15610cde5760c954604051633f30232f60e21b81526001600160a01b039091169063fcc08cbc90610c04908a90600401613436565b60206040518083038186803b158015610c1c57600080fd5b505afa158015610c30573d6000803e3d6000fd5b505050506040513d601f19601f82011682018060405250810190610c549190612f52565b604051636179309d60e01b81529092506001600160a01b03831690636179309d90610c899030908b908b908b9060040161344a565b6040805180830381600087803b158015610ca257600080fd5b505af1158015610cb6573d6000803e3d6000fd5b505050506040513d601f19601f82011682018060405250810190610cda91906133ce565b5090505b61ffff8116158015610d6b575060c954604051635b16ebb760e01b81526001600160a01b0390911690635b16ebb790610d1b908a90600401613436565b60206040518083038186803b158015610d3357600080fd5b505afa158015610d47573d6000803e3d6000fd5b505050506040513d601f19601f82011682018060405250810190610d6b91906131ba565b15610dd3576000610db187878080601f01602080910402602001604051908101604052809392919081815260200183838082843760009201919091525061128092505050565b90506001600160e01b03198116632e1a7d4d60e01b1415610dd157601391505b505b60008161ffff1611610df75760405162461bcd60e51b815260040161087190613541565b610e4186868080601f016020809104026020016040519081016040528093929190818152602001838380828437600092019190915250506001600160a01b038b16929150506120bc565b935083610e605760405162461bcd60e51b81526004016108719061363a565b60cb546040516001600160a01b039091169030907fabd0c76c7b0b35c4c4f498427eb22e28d5cd1a1b578727f9220643f7dd32d47490610ea190859061382a565b60405180910390a350506001609755509392505050565b610ec061176a565b6001600160a01b0316610ed16110b7565b6001600160a01b031614610f1a576040805162461bcd60e51b815260206004820181905260248201526000805160206138ff833981519152604482015290519081900360640190fd5b61060882826120ef565b6000610530838360200260040160ff16602061131f565b610f4361176a565b6001600160a01b0316610f546110b7565b6001600160a01b031614610f9d576040805162461bcd60e51b815260206004820181905260248201526000805160206138ff833981519152604482015290519081900360640190fd5b6106fb612174565b600054610100900460ff1680610fbe5750610fbe6121f7565b80610fcc575060005460ff16155b6110075760405162461bcd60e51b815260040180806020018281038252602e8152602001806138b0602e913960400191505060405180910390fd5b600054610100900460ff16158015611032576000805460ff1961ff0019909116610100171660011790555b61103a612208565b6110426122b9565b61104a612356565b60ca8054306001600160a01b03199182161790915560c980549091166001600160a01b038b1617905561107c886123eb565b6110868787612433565b611090858561176e565b61109a83836120ef565b80156110ac576000805461ff00191690555b505050505050505050565b6033546001600160a01b031690565b6000806110de848460200260040160ff16602061131f565b90506110ef8460048301602061131f565b949350505050565b60008060c960009054906101000a90046001600160a01b03166001600160a01b03166309ed48936040518163ffffffff1660e01b815260040160206040518083038186803b15801561114857600080fd5b505afa15801561115c573d6000803e3d6000fd5b505050506040513d601f19601f820116820180604052508101906111809190612f52565b60405163b4fb127960e01b81529091506000906001600160a01b0383169063b4fb1279906111b2908790600401613436565b60206040518083038186803b1580156111ca57600080fd5b505afa1580156111de573d6000803e3d6000fd5b505050506040513d601f19601f820116820180604052508101906112029190612f52565b6001600160a01b031614159392505050565b61121c61176a565b6001600160a01b031661122d6110b7565b6001600160a01b031614611276576040805162461bcd60e51b815260206004820181905260248201526000805160206138ff833981519152604482015290519081900360640190fd5b6106088282612433565b600061049782600061053a565b60c9546001600160a01b031690565b60ce6020526000908152604090205460ff1681565b6112b961176a565b6001600160a01b03166112ca6110b7565b6001600160a01b031614611313576040805162461bcd60e51b815260206004820181905260248201526000805160206138ff833981519152604482015290519081900360640190fd5b61131c816123eb565b50565b600081830184511015611377576040805162461bcd60e51b815260206004820152601b60248201527a52656164696e67206279746573206f7574206f6620626f756e647360281b604482015290519081900360640190fd5b826020018401519050816020038015611396576008810260020a820491505b509392505050565b60cc6020526000908152604090205460ff1681565b6113bb61176a565b6001600160a01b03166113cc6110b7565b6001600160a01b031614611415576040805162461bcd60e51b815260206004820181905260248201526000805160206138ff833981519152604482015290519081900360640190fd5b6001600160a01b03811661145a5760405162461bcd60e51b815260040180806020018281038252602681526020018061388a6026913960400191505060405180910390fd5b6033546040516001600160a01b0380841692169060008051602061391f83398151915290600090a3603380546001600160a01b0319166001600160a01b0392909216919091179055565b6000600260975414156114fe576040805162461bcd60e51b815260206004820152601f60248201527f5265656e7472616e637947756172643a207265656e7472616e742063616c6c00604482015290519081900360640190fd5b600260975561150b6108b0565b15611550576040805162461bcd60e51b815260206004820152601060248201526f14185d5cd8589b194e881c185d5cd95960821b604482015290519081900360640190fd5b33600090815260ce602052604090205460ff1661157f5760405162461bcd60e51b8152600401610871906136c8565b60008060008061158f89896119fe565b93509350935093508380156115a15750805b156115b9576115b28989898961262f565b9450611607565b8280156115c35750815b156115d4576115b2898989896126e6565b8280156115de5750805b156115ef576115b2898989896126f3565b60405162461bcd60e51b8152600401610871906136a2565b50506001609755509095945050505050565b60608182601f011015611664576040805162461bcd60e51b815260206004820152600e60248201526d736c6963655f6f766572666c6f7760901b604482015290519081900360640190fd5b8282840110156116ac576040805162461bcd60e51b815260206004820152600e60248201526d736c6963655f6f766572666c6f7760901b604482015290519081900360640190fd5b818301845110156116f8576040805162461bcd60e51b8152602060048201526011602482015270736c6963655f6f75744f66426f756e647360781b604482015290519081900360640190fd5b6060821580156117175760405191506000825260208201604052611761565b6040519150601f8416801560200281840101858101878315602002848b0101015b81831015611750578051835260209283019201611738565b5050858452601f01601f1916604052505b50949350505050565b3390565b60005b818110156119075760c9546001600160a01b0316635b16ebb784848481811061179657fe5b6117ac9260206060909202019081019150612f36565b6040518263ffffffff1660e01b81526004016117c89190613436565b60206040518083038186803b1580156117e057600080fd5b505afa1580156117f4573d6000803e3d6000fd5b505050506040513d601f19601f8201168201806040525081019061181891906131ba565b6118345760405162461bcd60e51b815260040161087190613573565b82828281811061184057fe5b9050606002016040016020810190611858919061319e565b60cd600085858581811061186857fe5b61187e9260206060909202019081019150612f36565b6001600160a01b031681526020810191909152604001600020600101805460ff19169115159190911790558282828181106118b557fe5b9050606002016020013560cd60008585858181106118cf57fe5b6118e59260206060909202019081019150612f36565b6001600160a01b03168152602081019190915260400160002055600101611771565b505050565b604080516001600160a01b038416602482015260448082018490528251808303909101815260649091019091526020810180516001600160e01b031663a9059cbb60e01b179052611907908490612700565b6119666108b0565b6119ae576040805162461bcd60e51b815260206004820152601460248201527314185d5cd8589b194e881b9bdd081c185d5cd95960621b604482015290519081900360640190fd5b6065805460ff191690557f5db9ee0a495bf2e6ff9c91a7834c1ba4fdd244a5e8aa4e537bd38aeae4b073aa6119e161176a565b604080516001600160a01b039092168252519081900360200190a1565b6001600160a01b038216600090815260cd602052604081206001015481908190819060ff1615611a2d57600192505b6001600160a01b038516600090815260cd602052604090206001015460ff1615611a55575060015b6001600160a01b038616600090815260cc602052604090205460ff1615611a7b57600193505b6001600160a01b038516600090815260cc602052604090205460ff1615611aa157600191505b92959194509250565b6001600160a01b038216600090815260cd60205260408120600101548390859060ff168015611af157506001600160a01b038116600090815260cc602052604090205460ff165b611b0d5760405162461bcd60e51b81526004016108719061372e565b6000866001600160a01b031663313ce5676040518163ffffffff1660e01b815260040160206040518083038186803b158015611b4857600080fd5b505afa158015611b5c573d6000803e3d6000fd5b505050506040513d601f19601f82011682018060405250810190611b80919061341a565b90506000866001600160a01b0316637ff9b5966040518163ffffffff1660e01b815260040160206040518083038186803b158015611bbd57600080fd5b505afa158015611bd1573d6000803e3d6000fd5b505050506040513d601f19601f82011682018060405250810190611bf59190613402565b60c95460405163b3596f0760e01b81529192506000916001600160a01b039091169063b3596f0790611c2b908c90600401613436565b60206040518083038186803b158015611c4357600080fd5b505afa158015611c57573d6000803e3d6000fd5b505050506040513d601f19601f82011682018060405250810190611c7b9190613402565b90506000611c9960ff8516600a0a611c938a856127b1565b9061280a565b9050611cb183611c9383670de0b6b3a76400006127b1565b96506000611cbf888b61286e565b9050611ccb88826128bc565b975060008811611ced5760405162461bcd60e51b81526004016108719061350f565b505050505050509392505050565b6001600160a01b038316600090815260cd60205260408120600101548490849060ff168015611d4257506001600160a01b038116600090815260cc602052604090205460ff165b611d5e5760405162461bcd60e51b81526004016108719061372e565b6000856001600160a01b031663313ce5676040518163ffffffff1660e01b815260040160206040518083038186803b158015611d9957600080fd5b505afa158015611dad573d6000803e3d6000fd5b505050506040513d601f19601f82011682018060405250810190611dd1919061341a565b90506000876001600160a01b0316637ff9b5966040518163ffffffff1660e01b815260040160206040518083038186803b158015611e0e57600080fd5b505afa158015611e22573d6000803e3d6000fd5b505050506040513d601f19601f82011682018060405250810190611e469190613402565b60c95460405163b3596f0760e01b81529192506000916001600160a01b039091169063b3596f0790611e7c908b90600401613436565b60206040518083038186803b158015611e9457600080fd5b505afa158015611ea8573d6000803e3d6000fd5b505050506040513d601f19601f82011682018060405250810190611ecc9190613402565b90506000611ee6670de0b6b3a7640000611c938a866127b1565b9050611efc82611c938360ff8816600a0a6127b1565b96506000611cbf888c61286e565b6001600160a01b038316600090815260cd60205260408120600101548490849060ff168015611f5457506001600160a01b038116600090815260cd602052604090206001015460ff165b611f705760405162461bcd60e51b815260040161087190613765565b6000866001600160a01b0316637ff9b5966040518163ffffffff1660e01b815260040160206040518083038186803b158015611fab57600080fd5b505afa158015611fbf573d6000803e3d6000fd5b505050506040513d601f19601f82011682018060405250810190611fe39190613402565b90506000866001600160a01b0316637ff9b5966040518163ffffffff1660e01b815260040160206040518083038186803b15801561202057600080fd5b505afa158015612034573d6000803e3d6000fd5b505050506040513d601f19601f820116820180604052508101906120589190613402565b90506000612072670de0b6b3a7640000611c9389866127b1565b905061208a82611c9383670de0b6b3a76400006127b1565b95506000612098878b61286e565b905060006120a6888b61286e565b9050611ccb6120b58383612919565b89906128bc565b60008060008351602085016000875af190508015600181146120dd576120e8565b3d806000803e806000fd5b5092915050565b60005b818110156119075782828281811061210657fe5b905060400201602001602081019061211e919061319e565b60ce600085858581811061212e57fe5b6121449260206040909202019081019150612f36565b6001600160a01b031681526020810191909152604001600020805460ff19169115159190911790556001016120f2565b61217c6108b0565b156121c1576040805162461bcd60e51b815260206004820152601060248201526f14185d5cd8589b194e881c185d5cd95960821b604482015290519081900360640190fd5b6065805460ff191660011790557f62e78cea01bee320cd4e420270b5ea74000d11b0c9f74754ebdbfc544b05a2586119e161176a565b600061220230612930565b15905090565b600054610100900460ff168061222157506122216121f7565b8061222f575060005460ff16155b61226a5760405162461bcd60e51b815260040180806020018281038252602e8152602001806138b0602e913960400191505060405180910390fd5b600054610100900460ff16158015612295576000805460ff1961ff0019909116610100171660011790555b61229d612936565b6122a56129d6565b801561131c576000805461ff001916905550565b600054610100900460ff16806122d257506122d26121f7565b806122e0575060005460ff16155b61231b5760405162461bcd60e51b815260040180806020018281038252602e8152602001806138b0602e913960400191505060405180910390fd5b600054610100900460ff16158015612346576000805460ff1961ff0019909116610100171660011790555b61234e612936565b6122a5612abd565b600054610100900460ff168061236f575061236f6121f7565b8061237d575060005460ff16155b6123b85760405162461bcd60e51b815260040180806020018281038252602e8152602001806138b0602e913960400191505060405180910390fd5b600054610100900460ff161580156123e3576000805460ff1961ff0019909116610100171660011790555b6122a5612b68565b6001600160a01b0381166124115760405162461bcd60e51b815260040161087190613604565b60cb80546001600160a01b0319166001600160a01b0392909216919091179055565b60005b818110156119075760c9546001600160a01b031663cc435bf384848481811061245b57fe5b6124719260206040909202019081019150612f36565b6040518263ffffffff1660e01b815260040161248d9190613436565b60206040518083038186803b1580156124a557600080fd5b505afa1580156124b9573d6000803e3d6000fd5b505050506040513d601f19601f820116820180604052508101906124dd91906131ba565b6124f95760405162461bcd60e51b8152600401610871906137c2565b60c9546001600160a01b0316635b16ebb784848481811061251657fe5b61252c9260206040909202019081019150612f36565b6040518263ffffffff1660e01b81526004016125489190613436565b60206040518083038186803b15801561256057600080fd5b505afa158015612574573d6000803e3d6000fd5b505050506040513d601f19601f8201168201806040525081019061259891906131ba565b156125b55760405162461bcd60e51b8152600401610871906135cd565b8282828181106125c157fe5b90506040020160200160208101906125d9919061319e565b60cc60008585858181106125e957fe5b6125ff9260206040909202019081019150612f36565b6001600160a01b031681526020810191909152604001600020805460ff1916911515919091179055600101612436565b600061263c858585611aaa565b90508181101561265e5760405162461bcd60e51b81526004016108719061366b565b6126736001600160a01b038616333086612c0e565b6126876001600160a01b038516338361190c565b836001600160a01b0316856001600160a01b0316336001600160a01b03167fcd3829a3813dc3cdd188fd3d01dcf3268c16be2fdd2dd21d0665418816e4606286856040516126d6929190613849565b60405180910390a4949350505050565b600061263c858585611cfb565b600061263c858585611f0a565b6000612755826040518060400160405280602081526020017f5361666545524332303a206c6f772d6c6576656c2063616c6c206661696c6564815250856001600160a01b0316612c6e9092919063ffffffff16565b8051909150156119075780806020019051602081101561277457600080fd5b50516119075760405162461bcd60e51b815260040180806020018281038252602a81526020018061393f602a913960400191505060405180910390fd5b6000826127c057506000610497565b828202828482816127cd57fe5b04146105305760405162461bcd60e51b81526004018080602001828103825260218152602001806138de6021913960400191505060405180910390fd5b600080821161285d576040805162461bcd60e51b815260206004820152601a602482015279536166654d6174683a206469766973696f6e206279207a65726f60301b604482015290519081900360640190fd5b81838161286657fe5b049392505050565b6001600160a01b038116600090815260cd602052604081205461289a9061271090611c939086906127b1565b9050600081116104975760405162461bcd60e51b8152600401610871906136ff565b600082821115612913576040805162461bcd60e51b815260206004820152601e60248201527f536166654d6174683a207375627472616374696f6e206f766572666c6f770000604482015290519081900360640190fd5b50900390565b6000818310156129295781610530565b5090919050565b3b151590565b600054610100900460ff168061294f575061294f6121f7565b8061295d575060005460ff16155b6129985760405162461bcd60e51b815260040180806020018281038252602e8152602001806138b0602e913960400191505060405180910390fd5b600054610100900460ff161580156122a5576000805460ff1961ff001990911661010017166001179055801561131c576000805461ff001916905550565b600054610100900460ff16806129ef57506129ef6121f7565b806129fd575060005460ff16155b612a385760405162461bcd60e51b815260040180806020018281038252602e8152602001806138b0602e913960400191505060405180910390fd5b600054610100900460ff16158015612a63576000805460ff1961ff0019909116610100171660011790555b6000612a6d61176a565b603380546001600160a01b0319166001600160a01b0383169081179091556040519192509060009060008051602061391f833981519152908290a350801561131c576000805461ff001916905550565b600054610100900460ff1680612ad65750612ad66121f7565b80612ae4575060005460ff16155b612b1f5760405162461bcd60e51b815260040180806020018281038252602e8152602001806138b0602e913960400191505060405180910390fd5b600054610100900460ff16158015612b4a576000805460ff1961ff0019909116610100171660011790555b6065805460ff19169055801561131c576000805461ff001916905550565b600054610100900460ff1680612b815750612b816121f7565b80612b8f575060005460ff16155b612bca5760405162461bcd60e51b815260040180806020018281038252602e8152602001806138b0602e913960400191505060405180910390fd5b600054610100900460ff16158015612bf5576000805460ff1961ff0019909116610100171660011790555b6001609755801561131c576000805461ff001916905550565b604080516001600160a01b0380861660248301528416604482015260648082018490528251808303909101815260849091019091526020810180516001600160e01b03166323b872dd60e01b179052612c68908590612700565b50505050565b60606110ef848460008585612c8285612930565b612cd3576040805162461bcd60e51b815260206004820152601d60248201527f416464726573733a2063616c6c20746f206e6f6e2d636f6e7472616374000000604482015290519081900360640190fd5b600080866001600160a01b031685876040518082805190602001908083835b60208310612d115780518252601f199092019160209182019101612cf2565b6001836020036101000a03801982511681845116808217855250505050505090500191505060006040518083038185875af1925050503d8060008114612d73576040519150601f19603f3d011682016040523d82523d6000602084013e612d78565b606091505b5091509150612d88828286612d93565b979650505050505050565b60608315612da2575081610530565b825115612db25782518084602001fd5b8160405162461bcd60e51b81526004018080602001828103825283818151815260200191508051906020019080838360005b83811015612dfc578181015183820152602001612de4565b50505050905090810190601f168015612e295780820380516001836020036101000a031916815260200191505b509250505060405180910390fd5b60008083601f840112612e48578081fd5b5081356001600160401b03811115612e5e578182fd5b602083019150836020604083028501011115612e7957600080fd5b9250929050565b60008083601f840112612e91578182fd5b5081356001600160401b03811115612ea7578182fd5b602083019150836020606083028501011115612e7957600080fd5b600082601f830112612ed2578081fd5b81356001600160401b0380821115612ee657fe5b604051601f8301601f191681016020018281118282101715612f0457fe5b604052828152848301602001861015612f1b578384fd5b82602086016020830137918201602001929092529392505050565b600060208284031215612f47578081fd5b813561053081613857565b600060208284031215612f63578081fd5b815161053081613857565b60008060008060008060008060a0898b031215612f89578384fd5b8835612f9481613857565b97506020890135612fa481613857565b965060408901356001600160401b0380821115612fbf578586fd5b612fcb8c838d01612e37565b909850965060608b0135915080821115612fe3578586fd5b612fef8c838d01612e80565b909650945060808b0135915080821115613007578384fd5b506130148b828c01612e37565b999c989b5096995094979396929594505050565b60008060006060848603121561303c578283fd5b833561304781613857565b9250602084013561305781613857565b929592945050506040919091013590565b6000806000806080858703121561307d578384fd5b843561308881613857565b9350602085013561309881613857565b93969395505050506040820135916060013590565b6000806000604084860312156130c1578283fd5b83356130cc81613857565b925060208401356001600160401b03808211156130e7578384fd5b818601915086601f8301126130fa578384fd5b813581811115613108578485fd5b876020828501011115613119578485fd5b6020830194508093505050509250925092565b6000806020838503121561313e578182fd5b82356001600160401b03811115613153578283fd5b61315f85828601612e37565b90969095509350505050565b6000806020838503121561317d578182fd5b82356001600160401b03811115613192578283fd5b61315f85828601612e80565b6000602082840312156131af578081fd5b81356105308161386c565b6000602082840312156131cb578081fd5b81516105308161386c565b6000602082840312156131e7578081fd5b5035919050565b6000602082840312156131ff578081fd5b81356001600160401b03811115613214578182fd5b6110ef84828501612ec2565b60008060408385031215613232578182fd5b82356001600160401b03811115613247578283fd5b61325385828601612ec2565b95602094909401359450505050565b600080600060608486031215613276578081fd5b83356001600160401b0381111561328b578182fd5b61329786828701612ec2565b9660208601359650604090950135949350505050565b600080604083850312156132bf578182fd5b82356001600160401b038111156132d4578283fd5b6132e085828601612ec2565b92505060208301356132f18161387a565b809150509250929050565b600080600060608486031215613310578081fd5b83356001600160401b03811115613325578182fd5b61333186828701612ec2565b93505060208401356130578161387a565b600080600060608486031215613356578081fd5b83356001600160401b0381111561336b578182fd5b61337786828701612ec2565b93505060208401356133888161387a565b915060408401356133988161387a565b809150509250925092565b600080604083850312156133b5578182fd5b82356133c081613857565b946020939093013593505050565b600080604083850312156133e0578182fd5b825161ffff811681146133f1578283fd5b60208401519092506132f18161386c565b600060208284031215613413578081fd5b5051919050565b60006020828403121561342b578081fd5b81516105308161387a565b6001600160a01b0391909116815260200190565b6001600160a01b038581168252841660208201526060604082018190528101829052600082846080840137818301608090810191909152601f909201601f191601019392505050565b901515815260200190565b90815260200190565b6001600160e01b031991909116815260200190565b6000602080835283518082850152825b818110156134e8578581018301518582016040015282016134cc565b818111156134f95783604083870101525b50601f01601f1916929092016040019392505050565b602080825260189082015277141514ce88195c9c9bdc881bdb88185b5bdd5b9d081bdd5d60421b604082015260600190565b602080825260189082015277282a299d1034b73b30b634b2103a3930b739b0b1ba34b7b760411b604082015260600190565b602080825260129082015271141514ce881a5cc81b9bdd0818481c1bdbdb60721b604082015260600190565b602080825260149082015273696e76616c69642071756f74652061737365747360601b604082015260600190565b6020808252601d908201527f5054533a2063616e6e6f742073657420706f6f6c206173206173736574000000604082015260600190565b6020808252601c908201527b5054533a20696e76616c6964206d616e61676572206164647265737360201b604082015260600190565b602080825260179082015276141514ce881d1c985b9cd858dd1a5bdb8819985a5b1959604a1b604082015260600190565b6020808252601d908201527f5054533a207072696365206368616e6765642c2074727920616761696e000000604082015260600190565b6020808252600c908201526b0696e76616c696420737761760a41b604082015260600190565b6020808252601e908201527f5054533a2073656e646572206973206e6f742077686974656c69737465640000604082015260600190565b6020808252601590820152745054533a20696e76616c696420737761702066656560581b604082015260600190565b6020808252601e908201527f5054533a20706f6f6c2f6173736574206973206e6f7420656e61626c65640000604082015260600190565b602080825260189082015277141514ce881c1bdbdb081a5cc81b9bdd08195b98589b195960421b604082015260600190565b602080825260119082015270282a299d1037b7363c9036b0b730b3b2b960791b604082015260600190565b602080825260179082015276141514ce88185cdcd95d081a5cc81b9bdd081d985b1a59604a1b604082015260600190565b6020808252601e908201527f5054533a206e6f6e2d7a65726f20616464726573732072657175697265640000604082015260600190565b61ffff91909116815260200190565b9182521515602082015260400190565b918252602082015260400190565b6001600160a01b038116811461131c57600080fd5b801515811461131c57600080fd5b60ff8116811461131c57600080fdfe4f776e61626c653a206e6577206f776e657220697320746865207a65726f2061646472657373496e697469616c697a61626c653a20636f6e747261637420697320616c726561647920696e697469616c697a6564536166654d6174683a206d756c7469706c69636174696f6e206f766572666c6f774f776e61626c653a2063616c6c6572206973206e6f7420746865206f776e65728be0079c531659141344cd1fd0a4f28419497f9722a3daafe3b4186f6b6457e05361666545524332303a204552433230206f7065726174696f6e20646964206e6f742073756363656564a2646970667358221220aa3ab4a784bfe9837118c4f8f6ac7d7839d064eb6ca5124dc6b0fd3d95b977bd64736f6c63430007060033",
  "linkReferences": {},
  "deployedLinkReferences": {}
}