{
  "_format": "hh-sol-artifact-1",
  "contractName": "VelodromeV2RouterGuard",
  "sourceName": "contracts/guards/contractGuards/velodrome/VelodromeV2RouterGuard.sol",
  "abi": [
    {
      "anonymous": false,
      "inputs": [
        {
          "indexed": false,
          "internalType": "address",
          "name": "poolLogic",
          "type": "address"
        },
        {
          "indexed": false,
          "internalType": "address",
          "name": "pair",
          "type": "address"
        },
        {
          "indexed": false,
          "internalType": "bytes",
          "name": "params",
          "type": "bytes"
        },
        {
          "indexed": false,
          "internalType": "uint256",
          "name": "time",
          "type": "uint256"
        }
      ],
      "name": "AddLiquidity",
      "type": "event"
    },
    {
      "anonymous": false,
      "inputs": [
        {
          "indexed": false,
          "internalType": "address",
          "name": "fundAddress",
          "type": "address"
        },
        {
          "indexed": false,
          "internalType": "address",
          "name": "asset",
          "type": "address"
        },
        {
          "indexed": false,
          "internalType": "address",
          "name": "liquidityPool",
          "type": "address"
        },
        {
          "indexed": false,
          "internalType": "uint256",
          "name": "amount",
          "type": "uint256"
        },
        {
          "indexed": false,
          "internalType": "uint256",
          "name": "time",
          "type": "uint256"
        }
      ],
      "name": "AddLiquiditySingle",
      "type": "event"
    },
    {
      "anonymous": false,
      "inputs": [
        {
          "indexed": false,
          "internalType": "address",
          "name": "poolLogic",
          "type": "address"
        },
        {
          "indexed": false,
          "internalType": "address",
          "name": "stakingContract",
          "type": "address"
        },
        {
          "indexed": false,
          "internalType": "uint256",
          "name": "time",
          "type": "uint256"
        }
      ],
      "name": "Claim",
      "type": "event"
    },
    {
      "anonymous": false,
      "inputs": [
        {
          "indexed": false,
          "internalType": "address",
          "name": "fundAddress",
          "type": "address"
        },
        {
          "indexed": false,
          "internalType": "address",
          "name": "sourceAsset",
          "type": "address"
        },
        {
          "indexed": false,
          "internalType": "uint256",
          "name": "sourceAmount",
          "type": "uint256"
        },
        {
          "indexed": false,
          "internalType": "address",
          "name": "dstAsset",
          "type": "address"
        },
        {
          "indexed": false,
          "internalType": "uint256",
          "name": "time",
          "type": "uint256"
        }
      ],
      "name": "ExchangeFrom",
      "type": "event"
    },
    {
      "anonymous": false,
      "inputs": [
        {
          "indexed": false,
          "internalType": "address",
          "name": "fundAddress",
          "type": "address"
        },
        {
          "indexed": false,
          "internalType": "address",
          "name": "sourceAsset",
          "type": "address"
        },
        {
          "indexed": false,
          "internalType": "address",
          "name": "dstAsset",
          "type": "address"
        },
        {
          "indexed": false,
          "internalType": "uint256",
          "name": "dstAmount",
          "type": "uint256"
        },
        {
          "indexed": false,
          "internalType": "uint256",
          "name": "time",
          "type": "uint256"
        }
      ],
      "name": "ExchangeTo",
      "type": "event"
    },
    {
      "anonymous": false,
      "inputs": [
        {
          "indexed": false,
          "internalType": "address",
          "name": "poolLogic",
          "type": "address"
        },
        {
          "indexed": false,
          "internalType": "address",
          "name": "pair",
          "type": "address"
        },
        {
          "indexed": false,
          "internalType": "bytes",
          "name": "params",
          "type": "bytes"
        },
        {
          "indexed": false,
          "internalType": "uint256",
          "name": "time",
          "type": "uint256"
        }
      ],
      "name": "RemoveLiquidity",
      "type": "event"
    },
    {
      "anonymous": false,
      "inputs": [
        {
          "indexed": false,
          "internalType": "address",
          "name": "fundAddress",
          "type": "address"
        },
        {
          "indexed": false,
          "internalType": "address",
          "name": "asset",
          "type": "address"
        },
        {
          "indexed": false,
          "internalType": "address",
          "name": "liquidityPool",
          "type": "address"
        },
        {
          "indexed": false,
          "internalType": "uint256",
          "name": "amount",
          "type": "uint256"
        },
        {
          "indexed": false,
          "internalType": "uint256",
          "name": "time",
          "type": "uint256"
        }
      ],
      "name": "RemoveLiquiditySingle",
      "type": "event"
    },
    {
      "anonymous": false,
      "inputs": [
        {
          "indexed": true,
          "internalType": "address",
          "name": "fundAddress",
          "type": "address"
        },
        {
          "indexed": false,
          "internalType": "address",
          "name": "asset",
          "type": "address"
        },
        {
          "indexed": false,
          "internalType": "address",
          "name": "cToken",
          "type": "address"
        },
        {
          "indexed": false,
          "internalType": "uint256",
          "name": "amount",
          "type": "uint256"
        },
        {
          "indexed": false,
          "internalType": "uint256",
          "name": "time",
          "type": "uint256"
        }
      ],
      "name": "SonneBorrowEvent",
      "type": "event"
    },
    {
      "anonymous": false,
      "inputs": [
        {
          "indexed": true,
          "internalType": "address",
          "name": "poolLogic",
          "type": "address"
        },
        {
          "indexed": false,
          "internalType": "address[]",
          "name": "cTokens",
          "type": "address[]"
        },
        {
          "indexed": false,
          "internalType": "uint256",
          "name": "time",
          "type": "uint256"
        }
      ],
      "name": "SonneEnterMarkets",
      "type": "event"
    },
    {
      "anonymous": false,
      "inputs": [
        {
          "indexed": true,
          "internalType": "address",
          "name": "poolLogic",
          "type": "address"
        },
        {
          "indexed": false,
          "internalType": "address",
          "name": "cToken",
          "type": "address"
        },
        {
          "indexed": false,
          "internalType": "uint256",
          "name": "time",
          "type": "uint256"
        }
      ],
      "name": "SonneExitMarket",
      "type": "event"
    },
    {
      "anonymous": false,
      "inputs": [
        {
          "indexed": true,
          "internalType": "address",
          "name": "fundAddress",
          "type": "address"
        },
        {
          "indexed": false,
          "internalType": "address",
          "name": "asset",
          "type": "address"
        },
        {
          "indexed": false,
          "internalType": "address",
          "name": "cToken",
          "type": "address"
        },
        {
          "indexed": false,
          "internalType": "uint256",
          "name": "amount",
          "type": "uint256"
        },
        {
          "indexed": false,
          "internalType": "uint256",
          "name": "time",
          "type": "uint256"
        }
      ],
      "name": "SonneMintEvent",
      "type": "event"
    },
    {
      "anonymous": false,
      "inputs": [
        {
          "indexed": true,
          "internalType": "address",
          "name": "fundAddress",
          "type": "address"
        },
        {
          "indexed": false,
          "internalType": "address",
          "name": "asset",
          "type": "address"
        },
        {
          "indexed": false,
          "internalType": "address",
          "name": "cToken",
          "type": "address"
        },
        {
          "indexed": false,
          "internalType": "uint256",
          "name": "amount",
          "type": "uint256"
        },
        {
          "indexed": false,
          "internalType": "uint256",
          "name": "time",
          "type": "uint256"
        }
      ],
      "name": "SonneRedeemEvent",
      "type": "event"
    },
    {
      "anonymous": false,
      "inputs": [
        {
          "indexed": true,
          "internalType": "address",
          "name": "fundAddress",
          "type": "address"
        },
        {
          "indexed": false,
          "internalType": "address",
          "name": "asset",
          "type": "address"
        },
        {
          "indexed": false,
          "internalType": "address",
          "name": "cToken",
          "type": "address"
        },
        {
          "indexed": false,
          "internalType": "uint256",
          "name": "amount",
          "type": "uint256"
        },
        {
          "indexed": false,
          "internalType": "uint256",
          "name": "time",
          "type": "uint256"
        }
      ],
      "name": "SonneRedeemUnderlyingEvent",
      "type": "event"
    },
    {
      "anonymous": false,
      "inputs": [
        {
          "indexed": true,
          "internalType": "address",
          "name": "fundAddress",
          "type": "address"
        },
        {
          "indexed": false,
          "internalType": "address",
          "name": "asset",
          "type": "address"
        },
        {
          "indexed": false,
          "internalType": "address",
          "name": "cToken",
          "type": "address"
        },
        {
          "indexed": false,
          "internalType": "uint256",
          "name": "amount",
          "type": "uint256"
        },
        {
          "indexed": false,
          "internalType": "uint256",
          "name": "time",
          "type": "uint256"
        }
      ],
      "name": "SonneRepayEvent",
      "type": "event"
    },
    {
      "anonymous": false,
      "inputs": [
        {
          "indexed": false,
          "internalType": "address",
          "name": "poolLogic",
          "type": "address"
        },
        {
          "indexed": false,
          "internalType": "address",
          "name": "stakingToken",
          "type": "address"
        },
        {
          "indexed": false,
          "internalType": "address",
          "name": "to",
          "type": "address"
        },
        {
          "indexed": false,
          "internalType": "uint256",
          "name": "amount",
          "type": "uint256"
        },
        {
          "indexed": false,
          "internalType": "uint256",
          "name": "time",
          "type": "uint256"
        }
      ],
      "name": "Stake",
      "type": "event"
    },
    {
      "anonymous": false,
      "inputs": [
        {
          "indexed": false,
          "internalType": "address",
          "name": "poolAddress",
          "type": "address"
        },
        {
          "indexed": false,
          "internalType": "contract IERC20[]",
          "name": "synthProxies",
          "type": "address[]"
        }
      ],
      "name": "SynthRedeem",
      "type": "event"
    },
    {
      "anonymous": false,
      "inputs": [
        {
          "indexed": false,
          "internalType": "address",
          "name": "poolLogic",
          "type": "address"
        },
        {
          "indexed": false,
          "internalType": "uint256",
          "name": "txType",
          "type": "uint256"
        }
      ],
      "name": "SynthetixV3Event",
      "type": "event"
    },
    {
      "anonymous": false,
      "inputs": [
        {
          "indexed": false,
          "internalType": "address",
          "name": "poolLogic",
          "type": "address"
        },
        {
          "indexed": false,
          "internalType": "address",
          "name": "stakingToken",
          "type": "address"
        },
        {
          "indexed": false,
          "internalType": "address",
          "name": "to",
          "type": "address"
        },
        {
          "indexed": false,
          "internalType": "uint256",
          "name": "amount",
          "type": "uint256"
        },
        {
          "indexed": false,
          "internalType": "uint256",
          "name": "time",
          "type": "uint256"
        }
      ],
      "name": "Unstake",
      "type": "event"
    },
    {
      "inputs": [
        {
          "internalType": "bytes32",
          "name": "data",
          "type": "bytes32"
        }
      ],
      "name": "convert32toAddress",
      "outputs": [
        {
          "internalType": "address",
          "name": "o",
          "type": "address"
        }
      ],
      "stateMutability": "pure",
      "type": "function"
    },
    {
      "inputs": [
        {
          "internalType": "bytes",
          "name": "data",
          "type": "bytes"
        },
        {
          "internalType": "uint8",
          "name": "inputNum",
          "type": "uint8"
        },
        {
          "internalType": "uint8",
          "name": "arrayIndex",
          "type": "uint8"
        }
      ],
      "name": "getArrayIndex",
      "outputs": [
        {
          "internalType": "bytes32",
          "name": "",
          "type": "bytes32"
        }
      ],
      "stateMutability": "pure",
      "type": "function"
    },
    {
      "inputs": [
        {
          "internalType": "bytes",
          "name": "data",
          "type": "bytes"
        },
        {
          "internalType": "uint8",
          "name": "inputNum",
          "type": "uint8"
        }
      ],
      "name": "getArrayLast",
      "outputs": [
        {
          "internalType": "bytes32",
          "name": "",
          "type": "bytes32"
        }
      ],
      "stateMutability": "pure",
      "type": "function"
    },
    {
      "inputs": [
        {
          "internalType": "bytes",
          "name": "data",
          "type": "bytes"
        },
        {
          "internalType": "uint8",
          "name": "inputNum",
          "type": "uint8"
        }
      ],
      "name": "getArrayLength",
      "outputs": [
        {
          "internalType": "uint256",
          "name": "",
          "type": "uint256"
        }
      ],
      "stateMutability": "pure",
      "type": "function"
    },
    {
      "inputs": [
        {
          "internalType": "bytes",
          "name": "data",
          "type": "bytes"
        },
        {
          "internalType": "uint8",
          "name": "inputNum",
          "type": "uint8"
        },
        {
          "internalType": "uint256",
          "name": "offset",
          "type": "uint256"
        }
      ],
      "name": "getBytes",
      "outputs": [
        {
          "internalType": "bytes",
          "name": "",
          "type": "bytes"
        }
      ],
      "stateMutability": "pure",
      "type": "function"
    },
    {
      "inputs": [
        {
          "internalType": "bytes",
          "name": "data",
          "type": "bytes"
        },
        {
          "internalType": "uint8",
          "name": "inputNum",
          "type": "uint8"
        }
      ],
      "name": "getInput",
      "outputs": [
        {
          "internalType": "bytes32",
          "name": "",
          "type": "bytes32"
        }
      ],
      "stateMutability": "pure",
      "type": "function"
    },
    {
      "inputs": [
        {
          "internalType": "bytes",
          "name": "data",
          "type": "bytes"
        }
      ],
      "name": "getMethod",
      "outputs": [
        {
          "internalType": "bytes4",
          "name": "",
          "type": "bytes4"
        }
      ],
      "stateMutability": "pure",
      "type": "function"
    },
    {
      "inputs": [
        {
          "internalType": "bytes",
          "name": "data",
          "type": "bytes"
        }
      ],
      "name": "getParams",
      "outputs": [
        {
          "internalType": "bytes",
          "name": "",
          "type": "bytes"
        }
      ],
      "stateMutability": "pure",
      "type": "function"
    },
    {
      "inputs": [
        {
          "internalType": "bytes",
          "name": "data",
          "type": "bytes"
        },
        {
          "internalType": "uint256",
          "name": "offset",
          "type": "uint256"
        },
        {
          "internalType": "uint256",
          "name": "length",
          "type": "uint256"
        }
      ],
      "name": "read32",
      "outputs": [
        {
          "internalType": "bytes32",
          "name": "o",
          "type": "bytes32"
        }
      ],
      "stateMutability": "pure",
      "type": "function"
    },
    {
      "inputs": [
        {
          "internalType": "bytes",
          "name": "data",
          "type": "bytes"
        },
        {
          "internalType": "uint256",
          "name": "offset",
          "type": "uint256"
        }
      ],
      "name": "read4left",
      "outputs": [
        {
          "internalType": "bytes4",
          "name": "o",
          "type": "bytes4"
        }
      ],
      "stateMutability": "pure",
      "type": "function"
    },
    {
      "inputs": [
        {
          "internalType": "address",
          "name": "_poolManagerLogic",
          "type": "address"
        },
        {
          "internalType": "address",
          "name": "_to",
          "type": "address"
        },
        {
          "internalType": "bytes",
          "name": "_data",
          "type": "bytes"
        }
      ],
      "name": "txGuard",
      "outputs": [
        {
          "internalType": "uint16",
          "name": "txType",
          "type": "uint16"
        },
        {
          "internalType": "bool",
          "name": "",
          "type": "bool"
        }
      ],
      "stateMutability": "nonpayable",
      "type": "function"
    }
  ],
  "bytecode": "0x608060405234801561001057600080fd5b506115c2806100206000396000f3fe608060405234801561001057600080fd5b50600436106100995760003560e01c806309ff5c7d1461009e5780631053f952146100c75780631eba3077146100e7578063293d80631461010757806341dc16c3146101275780636179309d1461013a578063689015131461015b57806382f86acc1461016e578063998546e314610181578063c3c6279f14610194578063db896b57146101a7575b600080fd5b6100b16100ac3660046112a9565b6101ba565b6040516100be919061146a565b60405180910390f35b6100da6100d53660046112f4565b61024b565b6040516100be9190611488565b6100fa6100f53660046111d2565b6102e3565b6040516100be91906113ee565b61011a61011536600461121c565b6102ea565b6040516100be9190611473565b6100b1610135366004611348565b61034c565b61014d61014836600461112c565b61042a565b6040516100be92919061155e565b6100da6101693660046111ea565b610d1e565b6100b161017c3660046112a9565b610d3f565b6100b161018f3660046112a9565b610d5d565b61011a6101a23660046111ea565b610d8e565b6100b16101b536600461125e565b610d9b565b6000806101d2848460200260040160ff166020610d9b565b905060006101e585600484016020610d9b565b90508061022e576040805162461bcd60e51b8152602060048201526012602482015271696e707574206973206e6f7420617272617960701b604482015290519081900360640190fd5b610242856020808402850160040190610d9b565b95945050505050565b606060148210610293576040805162461bcd60e51b815260206004820152600e60248201526d1a5b9d985b1a59081bd9999cd95d60921b604482015290519081900360640190fd5b81602002915060006102b285848660200260040160ff16016020610d9b565b905060006102c7868584016004016020610d9b565b90506102d98660248487010183610e1a565b9695505050505050565b805b919050565b60008160040183511015610343576040805162461bcd60e51b815260206004820152601b60248201527a52656164696e67206279746573206f7574206f6620626f756e647360281b604482015290519081900360640190fd5b50016020015190565b600080610364858560200260040160ff166020610d9b565b9050600061037786600484016020610d9b565b9050806103c0576040805162461bcd60e51b8152602060048201526012602482015271696e707574206973206e6f7420617272617960701b604482015290519081900360640190fd5b60ff84168111610410576040805162461bcd60e51b815260206004820152601660248201527534b73b30b634b21030b93930bc903837b9b4ba34b7b760511b604482015290519081900360640190fd5b6102d9866020600160ff8816018102850160040190610d9b565b60008060008690506000879050600061047887878080601f016020809104026020016040519081016040528093929190818152602001838380828437600092019190915250610d8e92505050565b905060006104bb88888080601f016020809104026020016040519081016040528093929190818152602001838380828437600092019190915250610d1e92505050565b90506000896001600160a01b031663d4b6846d6040518163ffffffff1660e01b815260040160206040518083038186803b1580156104f857600080fd5b505afa15801561050c573d6000803e3d6000fd5b505050506040513d601f19601f820116820180604052508101906105309190611000565b90506001600160e01b03198316635a47ddc360e01b14156109265760008060008085806020019051810190610565919061109f565b50975050505050935093509350876001600160a01b0316639be918e6856040518263ffffffff1660e01b815260040161059e91906113ee565b60206040518083038186803b1580156105b657600080fd5b505afa1580156105ca573d6000803e3d6000fd5b505050506040513d601f19601f820116820180604052508101906105ee91906111b8565b6106135760405162461bcd60e51b815260040161060a9061152b565b60405180910390fd5b604051634df48c7360e11b81526001600160a01b03891690639be918e69061063f9086906004016113ee565b60206040518083038186803b15801561065757600080fd5b505afa15801561066b573d6000803e3d6000fd5b505050506040513d601f19601f8201168201806040525081019061068f91906111b8565b6106ab5760405162461bcd60e51b815260040161060a906114f8565b60008e6001600160a01b031663874029d98686868a6040518563ffffffff1660e01b81526004016106df9493929190611402565b60206040518083038186803b1580156106f757600080fd5b505afa15801561070b573d6000803e3d6000fd5b505050506040513d601f19601f8201168201806040525081019061072f9190611000565b604051634df48c7360e11b81529091506001600160a01b038a1690639be918e69061075e9084906004016113ee565b60206040518083038186803b15801561077657600080fd5b505afa15801561078a573d6000803e3d6000fd5b505050506040513d601f19601f820116820180604052508101906107ae91906111b8565b6107ca5760405162461bcd60e51b815260040161060a9061149b565b816001600160a01b03168a6001600160a01b03166339b81fd96040518163ffffffff1660e01b815260040160206040518083038186803b15801561080d57600080fd5b505afa158015610821573d6000803e3d6000fd5b505050506040513d601f19601f820116820180604052508101906108459190611000565b6001600160a01b03161461086b5760405162461bcd60e51b815260040161060a906114c9565b7fecac6aac332d7889236ccda43a42987d0142f049850379a383b38d679b7847468a6001600160a01b03166339b81fd96040518163ffffffff1660e01b815260040160206040518083038186803b1580156108c557600080fd5b505afa1580156108d9573d6000803e3d6000fd5b505050506040513d601f19601f820116820180604052508101906108fd9190611000565b828942604051610910949392919061142d565b60405180910390a160039b505050505050610d0c565b6001600160e01b0319831663037b79b160e21b1415610d0c5760008060008085806020019051810190610959919061101c565b509650505050935093509350876001600160a01b0316639be918e6856040518263ffffffff1660e01b815260040161099191906113ee565b60206040518083038186803b1580156109a957600080fd5b505afa1580156109bd573d6000803e3d6000fd5b505050506040513d601f19601f820116820180604052508101906109e191906111b8565b6109fd5760405162461bcd60e51b815260040161060a9061152b565b604051634df48c7360e11b81526001600160a01b03891690639be918e690610a299086906004016113ee565b60206040518083038186803b158015610a4157600080fd5b505afa158015610a55573d6000803e3d6000fd5b505050506040513d601f19601f82011682018060405250810190610a7991906111b8565b610a955760405162461bcd60e51b815260040161060a906114f8565b60008e6001600160a01b031663874029d98686868a6040518563ffffffff1660e01b8152600401610ac99493929190611402565b60206040518083038186803b158015610ae157600080fd5b505afa158015610af5573d6000803e3d6000fd5b505050506040513d601f19601f82011682018060405250810190610b199190611000565b604051634df48c7360e11b81529091506001600160a01b038a1690639be918e690610b489084906004016113ee565b60206040518083038186803b158015610b6057600080fd5b505afa158015610b74573d6000803e3d6000fd5b505050506040513d601f19601f82011682018060405250810190610b9891906111b8565b610bb45760405162461bcd60e51b815260040161060a9061149b565b816001600160a01b03168a6001600160a01b03166339b81fd96040518163ffffffff1660e01b815260040160206040518083038186803b158015610bf757600080fd5b505afa158015610c0b573d6000803e3d6000fd5b505050506040513d601f19601f82011682018060405250810190610c2f9190611000565b6001600160a01b031614610c555760405162461bcd60e51b815260040161060a906114c9565b7f1319b83bc377afeaf1bb1464a06a701f9fac1f66f9d43e2903c22f0b1b1c23288a6001600160a01b03166339b81fd96040518163ffffffff1660e01b815260040160206040518083038186803b158015610caf57600080fd5b505afa158015610cc3573d6000803e3d6000fd5b505050506040513d601f19601f82011682018060405250810190610ce79190611000565b828942604051610cfa949392919061142d565b60405180910390a160049b5050505050505b50600094505050505094509492505050565b6060610d3960048084510384610e1a9092919063ffffffff16565b92915050565b6000610d56838360200260040160ff166020610d9b565b9392505050565b600080610d75848460200260040160ff166020610d9b565b9050610d8684600483016020610d9b565b949350505050565b6000610d398260006102ea565b600081830184511015610df3576040805162461bcd60e51b815260206004820152601b60248201527a52656164696e67206279746573206f7574206f6620626f756e647360281b604482015290519081900360640190fd5b826020018401519050816020038015610e12576008810260020a820491505b509392505050565b60608182601f011015610e65576040805162461bcd60e51b815260206004820152600e60248201526d736c6963655f6f766572666c6f7760901b604482015290519081900360640190fd5b828284011015610ead576040805162461bcd60e51b815260206004820152600e60248201526d736c6963655f6f766572666c6f7760901b604482015290519081900360640190fd5b81830184511015610ef9576040805162461bcd60e51b8152602060048201526011602482015270736c6963655f6f75744f66426f756e647360781b604482015290519081900360640190fd5b606082158015610f185760405191506000825260208201604052610f62565b6040519150601f8416801560200281840101858101878315602002848b0101015b81831015610f51578051835260209283019201610f39565b5050858452601f01601f1916604052505b50949350505050565b805180151581146102e557600080fd5b600082601f830112610f8b578081fd5b81356001600160401b0380821115610f9f57fe5b604051601f8301601f191681016020018281118282101715610fbd57fe5b604052828152848301602001861015610fd4578384fd5b82602086016020830137918201602001929092529392505050565b803560ff811681146102e557600080fd5b600060208284031215611011578081fd5b8151610d5681611574565b600080600080600080600080610100898b031215611038578384fd5b885161104381611574565b60208a015190985061105481611574565b965061106260408a01610f6b565b9550606089015194506080890151935060a0890151925060c089015161108781611574565b8092505060e089015190509295985092959890939650565b60008060008060008060008060006101208a8c0312156110bd578081fd5b89516110c881611574565b60208b01519099506110d981611574565b97506110e760408b01610f6b565b965060608a0151955060808a0151945060a08a0151935060c08a0151925060e08a015161111381611574565b809250506101008a015190509295985092959850929598565b60008060008060608587031215611141578384fd5b843561114c81611574565b9350602085013561115c81611574565b925060408501356001600160401b0380821115611177578384fd5b818701915087601f83011261118a578384fd5b813581811115611198578485fd5b8860208285010111156111a9578485fd5b95989497505060200194505050565b6000602082840312156111c9578081fd5b610d5682610f6b565b6000602082840312156111e3578081fd5b5035919050565b6000602082840312156111fb578081fd5b81356001600160401b03811115611210578182fd5b610d8684828501610f7b565b6000806040838503121561122e578182fd5b82356001600160401b03811115611243578283fd5b61124f85828601610f7b565b95602094909401359450505050565b600080600060608486031215611272578283fd5b83356001600160401b03811115611287578384fd5b61129386828701610f7b565b9660208601359650604090950135949350505050565b600080604083850312156112bb578182fd5b82356001600160401b038111156112d0578283fd5b6112dc85828601610f7b565b9250506112eb60208401610fef565b90509250929050565b600080600060608486031215611308578081fd5b83356001600160401b0381111561131d578182fd5b61132986828701610f7b565b93505061133860208501610fef565b9150604084013590509250925092565b60008060006060848603121561135c578081fd5b83356001600160401b03811115611371578182fd5b61137d86828701610f7b565b93505061138c60208501610fef565b915061139a60408501610fef565b90509250925092565b60008151808452815b818110156113c8576020818501810151868301820152016113ac565b818111156113d95782602083870101525b50601f01601f19169290920160200192915050565b6001600160a01b0391909116815260200190565b6001600160a01b03948516815292841660208401529015156040830152909116606082015260800190565b6001600160a01b03858116825284166020820152608060408201819052600090611459908301856113a3565b905082606083015295945050505050565b90815260200190565b6001600160e01b031991909116815260200190565b600060208252610d5660208301846113a3565b6020808252601490820152731d5b9cdd5c1c1bdc9d1959081b1c08185cdcd95d60621b604082015260600190565b6020808252601590820152741c9958da5c1a595b9d081a5cc81b9bdd081c1bdbdb605a1b604082015260600190565b6020808252601990820152783ab739bab83837b93a32b21030b9b9b2ba1d103a37b5b2b72160391b604082015260600190565b602080825260199082015278756e737570706f727465642061737365743a20746f6b656e4160381b604082015260600190565b61ffff9290921682521515602082015260400190565b6001600160a01b038116811461158957600080fd5b5056fea264697066735822122047e7fe6c1cbfc14fa809c871adf4220ab74adeaabd7c00a94b385e9b247bddbc64736f6c63430007060033",
  "linkReferences": {},
  "deployedLinkReferences": {}
}