{
  "_format": "hh-sol-artifact-1",
  "contractName": "DhedgeStakingV2NFTJson",
  "sourceName": "contracts/stakingv2/DhedgeStakingV2NFTJson.sol",
  "abi": [
    {
      "inputs": [
        {
          "internalType": "address",
          "name": "_addr",
          "type": "address"
        }
      ],
      "name": "addressToString",
      "outputs": [
        {
          "internalType": "string",
          "name": "",
          "type": "string"
        }
      ],
      "stateMutability": "pure",
      "type": "function"
    },
    {
      "inputs": [
        {
          "internalType": "string",
          "name": "str",
          "type": "string"
        },
        {
          "internalType": "uint256",
          "name": "startIndex",
          "type": "uint256"
        },
        {
          "internalType": "uint256",
          "name": "endIndex",
          "type": "uint256"
        }
      ],
      "name": "substring",
      "outputs": [
        {
          "internalType": "string",
          "name": "",
          "type": "string"
        }
      ],
      "stateMutability": "pure",
      "type": "function"
    },
    {
      "inputs": [
        {
          "internalType": "uint256",
          "name": "tokenId",
          "type": "uint256"
        },
        {
          "components": [
            {
              "internalType": "uint256",
              "name": "dhtAmount",
              "type": "uint256"
            },
            {
              "internalType": "uint256",
              "name": "dhtStakeStartTime",
              "type": "uint256"
            },
            {
              "internalType": "address",
              "name": "dhedgePoolAddress",
              "type": "address"
            },
            {
              "internalType": "uint256",
              "name": "dhedgePoolAmount",
              "type": "uint256"
            },
            {
              "internalType": "uint256",
              "name": "dhedgePoolStakeStartTime",
              "type": "uint256"
            },
            {
              "internalType": "uint256",
              "name": "stakeStartTokenPrice",
              "type": "uint256"
            },
            {
              "internalType": "bool",
              "name": "unstaked",
              "type": "bool"
            },
            {
              "internalType": "uint256",
              "name": "unstakeTime",
              "type": "uint256"
            },
            {
              "internalType": "uint256",
              "name": "reward",
              "type": "uint256"
            },
            {
              "internalType": "uint256",
              "name": "claimedReward",
              "type": "uint256"
            },
            {
              "internalType": "uint256",
              "name": "rewardParamsEmissionsRate",
              "type": "uint256"
            },
            {
              "internalType": "uint256",
              "name": "stakeFinishTokenPrice",
              "type": "uint256"
            },
            {
              "internalType": "uint256",
              "name": "vdhtAccruedAtUnstake",
              "type": "uint256"
            },
            {
              "internalType": "uint256",
              "name": "dhedgePoolRemainingExitCooldownAtStakeTime",
              "type": "uint256"
            }
          ],
          "internalType": "struct IDhedgeStakingV2Storage.Stake",
          "name": "stake",
          "type": "tuple"
        },
        {
          "internalType": "uint256",
          "name": "vDHT",
          "type": "uint256"
        },
        {
          "internalType": "uint256",
          "name": "rewards",
          "type": "uint256"
        },
        {
          "internalType": "string",
          "name": "poolSymbol",
          "type": "string"
        },
        {
          "internalType": "uint256",
          "name": "currentTokenPrice",
          "type": "uint256"
        },
        {
          "internalType": "address",
          "name": "dhtAddress",
          "type": "address"
        },
        {
          "internalType": "address",
          "name": "owner",
          "type": "address"
        }
      ],
      "name": "tokenJson",
      "outputs": [
        {
          "internalType": "string",
          "name": "",
          "type": "string"
        }
      ],
      "stateMutability": "view",
      "type": "function"
    }
  ],
  "bytecode": "0x608060405234801561001057600080fd5b5061427e806100206000396000f3fe608060405234801561001057600080fd5b50600436106100415760003560e01c80631dcd9b5514610046578063455564b91461006f5780635e57966d14610082575b600080fd5b610059610054366004610a65565b610095565b604051610066919061406f565b60405180910390f35b61005961007d366004610ab0565b610138565b610059610090366004610a4b565b6101cb565b60608360008484036001600160401b03811180156100b257600080fd5b506040519080825280601f01601f1916602001820160405280156100dd576020820181803683370190505b509050845b8481101561012e578281815181106100f657fe5b602001015160f81c60f81b828783038151811061010f57fe5b60200101906001600160f81b031916908160001a9053506001016100e2565b5095945050505050565b6060600061014b898988888b89896101e9565b9050600061019961015b8c610522565b836101698d60000151610522565b6101728d610522565b6040516020016101859493929190611a91565b6040516020818303038152906040526105fc565b9050806040516020016101ac9190611c06565b6040516020818303038152906040529250505098975050505050505050565b60606101e1826001600160a01b0316601461073c565b90505b919050565b60606101f3610999565b6040518060e0016040528060bd815260200161418c60bd913981526060600061021b856101cb565b905060008151905060006102328d604001516101cb565b8051909150600061024e85610248866002610878565b86610095565b60405160200161025e9190611bcf565b60408051601f198184030181529190529050600061028784610281856002610878565b85610095565b6040516020016102979190611b98565b604051602081830303815290604052905081816040516020016102bb929190611c4b565b604051602081830303815290604052965050505050505060006001600160a01b03168a604001516001600160a01b0316146103d65760608a01516000610318697b426fab61f00de3639960221b610312848c6108d5565b90610935565b9050600061032582610522565b805190915060006002821161035357604051806040016040528060018152602001600360fc1b815250610364565b610364836000610054856002610878565b90506000600283106103845761037f84610281856002610878565b6103a5565b836040516020016103959190611a68565b6040516020818303038152906040525b9050868e83836040516020016103be949392919061130c565b60405160208183030381529060405296505050505050505b806103fd6103f8620151806103128e602001514261087890919063ffffffff16565b610522565b60405160200161040e9291906114a8565b6040516020818303038152906040529050806104426103f8670de0b6b3a76400008d6000015161093590919063ffffffff16565b6104576103f88c670de0b6b3a7640000610935565b61046c6103f88a670de0b6b3a7640000610935565b60405160200161047f9493929190611874565b60405160208183030381529060405290508061049a856101cb565b6104a3876101cb565b6040516020016104b59392919061168c565b60408051601f1981840301815291815260208481018381528251808401845260068152651e17b9bb339f60d11b81840152868401819052865191519351949550610504949193929091016112c9565b60405160208183030381529060405292505050979650505050505050565b60608161054757506040805180820190915260018152600360fc1b60208201526101e4565b8160005b811561055f57600101600a8204915061054b565b6000816001600160401b038111801561057757600080fd5b506040519080825280601f01601f1916602001820160405280156105a2576020820181803683370190505b50859350905060001982015b83156105f357600a840660300160f81b828280600190039350815181106105d157fe5b60200101906001600160f81b031916908160001a905350600a840493506105ae565b50949350505050565b606081516000141561061d57506040805160208101909152600081526101e4565b600060405180606001604052806040815260200161412b6040913990506000600384516002018161064a57fe5b046004026001600160401b038111801561066357600080fd5b506040519080825280601f01601f19166020018201604052801561068e576020820181803683370190505b509050600182016020820185865187015b808210156106fa576003820191508151603f8160121c168501518453600184019350603f81600c1c168501518453600184019350603f8160061c168501518453600184019350603f811685015184535060018301925061069f565b5050600386510660018114610716576002811461072957610731565b603d6001830353603d6002830353610731565b603d60018303535b509195945050505050565b60606f181899199a1a9b1b9c1cb0b131b232b360811b60006002808502016001600160401b038111801561076f57600080fd5b506040519080825280601f01601f19166020018201604052801561079a576020820181803683370190505b509050600360fc1b816000815181106107af57fe5b60200101906001600160f81b031916908160001a905350600f60fb1b816001815181106107d857fe5b60200101906001600160f81b031916908160001a905350600160028502015b6001811115610846578286600f166010811061080f57fe5b1a60f81b82828151811061081f57fe5b60200101906001600160f81b031916908160001a90535060049590951c94600019016107f7565b50841561086e5760405162461bcd60e51b8152600401610865906140a2565b60405180910390fd5b9150505b92915050565b6000828211156108cf576040805162461bcd60e51b815260206004820152601e60248201527f536166654d6174683a207375627472616374696f6e206f766572666c6f770000604482015290519081900360640190fd5b50900390565b6000826108e457506000610872565b828202828482816108f157fe5b041461092e5760405162461bcd60e51b815260040180806020018281038252602181526020018061416b6021913960400191505060405180910390fd5b9392505050565b6000808211610988576040805162461bcd60e51b815260206004820152601a602482015279536166654d6174683a206469766973696f6e206279207a65726f60301b604482015290519081900360640190fd5b81838161099157fe5b049392505050565b60405180606001604052806003905b60608152602001906001900390816109a85790505090565b80356001600160a01b03811681146101e457600080fd5b803580151581146101e457600080fd5b600082601f8301126109f7578081fd5b81356001600160401b03811115610a0a57fe5b610a1d601f8201601f19166020016140d7565b818152846020838601011115610a31578283fd5b816020850160208301379081016020019190915292915050565b600060208284031215610a5c578081fd5b61092e826109c0565b600080600060608486031215610a79578182fd5b83356001600160401b03811115610a8e578283fd5b610a9a868287016109e7565b9660208601359650604090950135949350505050565b600080600080600080600080888a036102a0811215610acd578485fd5b893598506101c080601f1983011215610ae4578586fd5b610aed816140d7565b915060208b0135825260408b01356020830152610b0c60608c016109c0565b604083015260808b0135606083015260a08b0135608083015260c08b013560a0830152610b3b60e08c016109d7565b60c0830152610100808c013560e0840152610120808d0135828501526101409150818d01358185015250610160808d0135828501526101809150818d013581850152506101a0808d013582850152828d013581850152505050809750506101e0890135955061020089013594506102208901356001600160401b03811115610bc1578485fd5b610bcd8b828c016109e7565b9450506102408901359250610be56102608a016109c0565b9150610bf46102808a016109c0565b90509295985092959890939650565b60008151610c158185602086016140fa565b9290920192915050565b7f3c2f747370616e3e3c747370616e20666f6e742d73697a653d2731322720666981527f6c6c3d27233030303030302720626173656c696e652d73686966743d2732272060208201527f786d6c3a73706163653d277072657365727665273e3c2f747370616e3e3c2f7460408201526e32bc3a2830ba341f1e17ba32bc3a1f60891b6060820152606f0190565b7f3c2f747370616e3e3c747370616e20666f6e742d73697a653d2731322720666981527f6c6c3d27233030303030302720786d6c3a73706163653d277072657365727665602082015270139f1e17ba39b830b71f1e17ba32bc3a1f60791b604082015260510190565b7f4448543c2f747370616e3e3c747370616e20666f6e742d73697a653d2731322781527f2066696c6c3d27233030303030302720786d6c3a73706163653d277072657365602082015273393b32939f1e17ba39b830b71f1e17ba32bc3a1f60611b604082015260540190565b61088b60f21b815260020190565b7f7b2274726169745f74797065223a20225374616b656420444854222c20227661815264363ab2911d60d91b602082015260250190565b601760f91b815260010190565b7f7b2274726169745f74797065223a202276444854222c202276616c7565223a008152601f0190565b7f20446179733c2f747370616e3e3c747370616e20666f6e742d73697a653d273181527f32272066696c6c3d27233030303030302720786d6c3a73706163653d2770726560208201527539b2b93b32939f1e17ba39b830b71f1e17ba32bc3a1f60511b604082015260560190565b607d60f81b815260010190565b601d60f91b815260010190565b605b60f81b815260010190565b7f3c746578742069643d2774657874322720786d6c3a73706163653d277072657381527f65727665273e3c746578745061746820786c696e6b3a687265663d272370617460208201527f683235272073746172744f66667365743d2731273e3c747370616e20666f6e7460408201527f2d73697a653d273132272066696c6c3d27233030303030302720626173656c6960608201527f6e652d73686966743d27322720786d6c3a73706163653d27707265736572766560808201527f273e3c2f747370616e3e3c747370616e20666f6e742d73697a653d2731382e3460a08201527f353637272066696c6c3d27233030303030302720626173656c696e652d73686960c08201527b333a1e939913903c36b61d39b830b1b29e93b83932b9b2b93b32939f60211b60e082015260fc0190565b605d60f81b815260010190565b7f3c746578742069643d2731302d4448542d2d2720786d6c3a73706163653d277081527f72657365727665273e3c747370616e20783d2736342720793d2736373427206660208201527f6f6e742d73697a653d2733322720666f6e742d7765696768743d27373030272060408201527f66696c6c3d27233030303030302720786d6c3a73706163653d277072657365726060820152633b32939f60e11b608082015260840190565b7f3c746578742069643d27526577617264732d2d2d2720786d6c3a73706163653d81527f277072657365727665273e3c747370616e20783d2736342720793d273633362760208201527f20666f6e742d73697a653d273238272066696c6c3d272330303030303027207860408201527f6d6c3a73706163653d277072657365727665273e526577617264733a3c2f747360608201527f70616e3e3c747370616e20666f6e742d73697a653d273132272066696c6c3d2760808201527f233030303030302720786d6c3a73706163653d277072657365727665273e3c2f60a08201526c3a39b830b71f1e17ba32bc3a1f60991b60c082015260cd0190565b7f3c746578742069643d272d2d2d2720786d6c3a73706163653d2770726573657281527f7665273e3c746578745061746820786c696e6b3a687265663d2723706174683260208201527f34272073746172744f66667365743d2731273e3c747370616e20666f6e742d7360408201527f697a653d273132272066696c6c3d27233030303030302720626173656c696e6560608201527f2d73686966743d27322720786d6c3a73706163653d277072657365727665273e60808201527f3c2f747370616e3e3c747370616e20666f6e742d73697a653d2731382720666960a08201527f6c6c3d27233030303030302720626173656c696e652d73686966743d2732272060c0820152743c36b61d39b830b1b29e93b83932b9b2b93b32939f60591b60e082015260f50190565b6d01130ba3a3934b13aba32b9911d160951b8152600e0190565b62081f4b60ea1b815260030190565b600084516112db8184602089016140fa565b8451908301906112ef8183602089016140fa565b84519101906113028183602088016140fa565b0195945050505050565b6000855161131e818460208a016140fa565b80830190507f3c746578742069643d2745544842756c6c33782d2d2d2720786d6c3a7370616381527f653d277072657365727665273e3c747370616e20783d2736342720793d27343560208201527f372720666f6e742d73697a653d273238272066696c6c3d272330303030303027604082015275103c36b61d39b830b1b29e93b83932b9b2b93b32939f60511b606082015285516113c4816076840160208a016140fa565b6113d2607682840101610cac565b9150507f3c746578742069643d2754564c2720786d6c3a73706163653d2770726573657281527f7665273e3c747370616e20783d2736342720793d273439352720666f6e742d7360208201527f697a653d2733322720666f6e742d7765696768743d27373030272066696c6c3d60408201527f27233030303030302720786d6c3a73706163653d277072657365727665273e246060820152845161147d8160808401602089016140fa565b61149c611497611491608084860101610dc6565b87610c03565b610cac565b98975050505050505050565b600083516114ba8184602088016140fa565b7f3c746578742069643d274448542d54494d452d5354414b45442d2720786d6c3a9083019081527f73706163653d277072657365727665273e3c747370616e20783d27323635272060208201527f793d273232392720666f6e742d73697a653d273234272066696c6c3d2723303060408201527f303030302720786d6c3a73706163653d277072657365727665273e444854205460608201527f494d45205354414b45443a3c2f747370616e3e3c747370616e20666f6e742d7360808201527f697a653d273132272066696c6c3d27233030303030302720786d6c3a7370616360a08201527b329e93b83932b9b2b93b32939f1e17ba39b830b71f1e17ba32bc3a1f60211b60c08201527f3c746578742069643d27342d446179732d2d2720786d6c3a73706163653d277060dc8201527f72657365727665273e3c747370616e20783d273236352720793d27323732272060fc8201527f666f6e742d73697a653d2733322720666f6e742d7765696768743d273730302761011c8201527f2066696c6c3d27233030303030302720786d6c3a73706163653d27707265736561013c82015264393b32939f60d91b61015c82015261168361167e610161830186610c03565b610dfc565b95945050505050565b6000845161169e8184602089016140fa565b7f3c646566733e3c706174682069643d277061746832342720643d274d203130399083019081527f2e323939393838203831342e35204c203338203831342e34303030323420432060208201527f3338203831342e3430303032342032392e35203831312e39303030323420323960408201527f2e3330303030332038303420432032392e313030303036203739342e3739393960608201527f38382032392e333030303033203434332e352032392e3330303030332034343360808201527f2e35272f3e3c2f646566733e3c646566733e3c706174682069643d277061746860a08201527f32352720643d274d203439342032392e323939393838204c203535382032392e60c08201527f3039393937362043203535382032392e303939393736203537302032372e323060e08201527f30303132203537302034332e352043203537302036312e3730303031322035366101008201527f392e373030303132203430362e323939393838203536392e373030303132203461012082015272181b17191c9c9c9c1c13979f1e17b232b3399f60691b61014082015261186a61185a61186461185f826118546101538701611175565b8a610c03565b610c1f565b610e91565b86610c03565b9695505050505050565b60008551611886818460208a016140fa565b7f3c746578742069643d27444854564448542d2d2d2720786d6c3a73706163653d9083019081527f277072657365727665273e3c747370616e20783d2736342720793d273534372760208201527f20666f6e742d73697a653d273238272066696c6c3d272330303030303027207860408201527f6d6c3a73706163653d277072657365727665273e4448543a564448543c2f747360608201527f70616e3e3c747370616e20666f6e742d73697a653d273132272066696c6c3d2760808201527f233030303030302720786d6c3a73706163653d277072657365727665273e3c2f60a08201527f747370616e3e3c2f746578743e3c746578742069643d276468743a766468742760c08201527f20786d6c3a73706163653d277072657365727665273e3c747370616e20783d2760e08201527f36342720793d273538352720666f6e742d73697a653d2733322720666f6e742d6101008201527f7765696768743d27373030272066696c6c3d27233030303030302720786d6c3a6101208201527039b830b1b29e93b83932b9b2b93b32939f60791b610140820152611a5d611a58611864611a53611a4e611497611a48611a4361015189018e610c03565b610e77565b8b610c03565b611078565b610fd0565b610d15565b979650505050505050565b6000600360fc1b82528251611a848160018501602087016140fa565b9190910160010192915050565b607b60f81b8152730113730b6b2911d101122242a1029ba30b5b29d160651b60018201528451600090611acb816015850160208a016140fa565b61088b60f21b6015918401918201527f226465736372697074696f6e223a202276444854204163637275696e6720444860178201526815081cdd185ad9488b60ba1b60378201526e1134b6b0b3b2afb230ba30911d101160891b60408201528551611b3d81604f840160208a016140fa565b61149c611b8e611b93611b8e611b88611b83611b7e611b78611b73611b6e611b69604f8c8e0101610d81565b6112a0565b610e84565b610d8f565b8d610c03565b6112ba565b610dd3565b89610c03565b610e6a565b610fc3565b6000602360f81b82528251611bb48160018501602087016140fa565b633530393360e01b6001939091019283015250600501919050565b6000602360f81b82528251611beb8160018501602087016140fa565b630613064360e41b6001939091019283015250600501919050565b60007f646174613a6170706c69636174696f6e2f6a736f6e3b6261736536342c00000082528251611c3e81601d8501602087016140fa565b91909101601d0192915050565b60007f3c672069643d2747726f7570273e3c6c696e6561724772616469656e7420696482527f3d276c696e6561724772616469656e7431272078313d2731342e38272079313d60208301527f2731342e35272078323d273538342e34272079323d2731342e3527206772616460408301527f69656e74556e6974733d277573657253706163654f6e557365273e3c73746f7060608301527b206f66667365743d2731652d3035272073746f702d636f6c6f723d2760201b60808301528351611d1a81609c8501602088016140fa565b7f272073746f702d6f7061636974793d2731272f3e3c73746f70206f6666736574609c91840191820152703d2731272073746f702d636f6c6f723d2760781b60bc8201528351611d718160cd8401602088016140fa565b7f272073746f702d6f7061636974793d2731272f3e3c2f6c696e6561724772616460cd92909101918201527f69656e743e3c706174682069643d2750617468272066696c6c3d2775726c282360ed8201527f6c696e6561724772616469656e74312927207374726f6b653d276e6f6e65272061010d8201527f643d274d2034302e313030303036203832382e37303030313220432032362e3161012d8201527f3939393937203832382e3730303031322031342e383030303033203831372e3461014d8201527f30303032342031342e383030303033203830332e343030303234204c2031342e61016d8201527f3830303030332033392e37393939383820432031342e3830303030332032352e61018d8201527f3930303032342032362e3130303030362031342e352034302e313030303036206101ad8201527f31342e35204c203535392e3039393937362031342e352043203537332031342e6101cd8201527f35203538342e3430303032342032352e373939393838203538342e34303030326101ed8201527f342033392e373939393838204c203538342e343030303234203830332e35204361020d8201527f203538342e343030303234203831372e343030303234203537332e303939393761022d8201527f36203832382e373939393838203535392e303939393736203832382e3739393961024d8201527f3838204c2034302e313030303036203832382e373939393838205a272f3e3c7061026d8201527f6174682069643d277061746831272066696c6c3d2775726c28236c696e65617261028d8201527f4772616469656e74312927207374726f6b653d276e6f6e652720643d274d20356102ad8201527f35392e303939393736203239204320353635203239203536392e3930303032346102cd8201527f2033332e373939393838203536392e3930303032342033392e373939393838206102ed8201527f4c203536392e393030303234203830332e352043203536392e3930303032342061030d8201527f3830392e343030303234203536352e303939393736203831342e32393939383861032d8201527f203535392e303939393736203831342e323939393838204c2034302e3130303061034d8201527f3036203831342e32393939383820432033342e313939393937203831342e323961036d8201527f393938382032392e333030303033203830392e352032392e333030303033203861038d8201527f30332e35204c2032392e3330303030332033392e37393939383820432032392e6103ad8201527f3330303030332033332e3930303032342033342e3130303030362032392034306103cd8201527f2e313030303036203239204c203535392e303939393736203239204d203535396103ed8201527f2e3039393937362030204c2034302e313030303036203020432031382e31303061040d8201527f303036203020302e3330303030332031372e37393939383820302e333030303061042d8201527f332033392e373939393838204c20302e333030303033203830332e352043203061044d8201527f2e333030303033203832352e352031382e313030303036203834332e3239393961046d8201527f38382034302e313030303036203834332e323939393838204c203535392e303961048d8201527f39393736203834332e3239393938382043203538312e303939393736203834336104ad8201527f2e323939393838203539382e393030303234203832352e35203539382e3930306104cd8201527f303234203830332e35204c203539382e3930303032342033392e3739393938386104ed8201527f2043203539382e3930303032342031372e373939393838203538312e3039393961050d8201527f37362030203535392e3039393937362030204c203535392e303939393736203061052d8201527f205a272f3e203c2f673e203c706174682069643d277061746832272066696c6c61054d8201527f3d276e6f6e6527207374726f6b653d272330303030303027207374726f6b652d61056d82018190527f77696474683d273227207374726f6b652d6c696e656361703d27726f756e642761058d83018190527f207374726f6b652d6c696e656a6f696e3d27726f756e642720643d274d2032336105ad8401527f35203232372e373939393838204320323335203237352e3834383735352031396105cd8401527f362e303438373637203331342e37393939383820313438203331342e373939396105ed8401527f383820432039392e393531323333203331342e3739393938382036312032373561060d8401527f2e383438373535203631203232372e3739393938382043203631203137392e3761062d8401527f35313232312039392e393531323333203134302e37393939383820313438203161064d8401527f34302e3739393938382043203139362e303438373637203134302e373939393861066d8401527f3820323335203137392e37353132323120323335203232372e3739393938382061068d8401527f5a272f3e203c672069643d276731273e203c706174682069643d2770617468336106ad8401527f272066696c6c3d276e6f6e6527207374726f6b653d27233030303030302720736106cd8401527f74726f6b652d77696474683d273227207374726f6b652d6c696e656361703d276106ed8401527f726f756e6427207374726f6b652d6c696e656a6f696e3d27726f756e6427206461070d8401527f3d274d20323335203232372e373939393838204320323335203237352e38343861072d8401527f373535203139362e303438373637203331342e3739393938382031343820333161074d8401527f342e37393939383820432039392e393531323333203331342e3739393938382061076d8401527f3631203237352e383438373535203631203232372e373939393838204320363161078d8401527f203137392e3735313232312039392e393531323333203134302e3739393938386107ad8401527f20313438203134302e3739393938382043203139362e303438373637203134306107cd8401527f2e37393939383820323335203137392e37353132323120323335203232372e376107ed8401527f3939393838205a272f3e203c706174682069643d277061746834272066696c6c61080d84015261082d830182905261084d8301527f207374726f6b652d6c696e656a6f696e3d27726f756e642720643d274d20313161086d8301527f382e313030303036203134362043203131382e3130303030362031343620363461088d8301527f2e313030303036203231322e303939393736203130392e3730303031322033306108ad8301527f352e373030303132272f3e203c706174682069643d277061746835272066696c6108cd8301527f6c3d276e6f6e6527207374726f6b653d272330303030303027207374726f6b656108ed8301527f2d77696474683d273227207374726f6b652d6c696e656361703d27726f756e6461090d8301527f27207374726f6b652d6c696e656a6f696e3d27726f756e642720643d274d203161092d8301527f3439203134302e373939393838204c203134362e323939393838203331342e3761094d8301527f3939393838272f3e203c706174682069643d277061746836272066696c6c3d2761096d8301527f6e6f6e6527207374726f6b653d272330303030303027207374726f6b652d776961098d8301527f6474683d273227207374726f6b652d6c696e656361703d27726f756e642720736109ad8301527f74726f6b652d6c696e656a6f696e3d27726f756e642720643d274d203137372e6109cd8301527f323030303132203330392e3239393938382043203137372e32303030313220336109ed8301527f30392e323939393838203233312e323030303132203234332e32303030313220610a0d8301527f3138352e363030303036203134392e353939393736272f3e203c706174682069610a2d8301527f643d277061746837272066696c6c3d276e6f6e6527207374726f6b653d272330610a4d8301527f303030303027207374726f6b652d77696474683d273227207374726f6b652d6c610a6d8301527f696e656361703d27726f756e6427207374726f6b652d6c696e656a6f696e3d27610a8d8301527f726f756e642720643d274d203232372e383939393934203139312e3739393938610aad8301527f382043203232372e383939393934203139312e373939393838203135382e3839610acd8301527f39393934203134312e352036372e383939393934203139322e32393939383827610aed8301527f2f3e203c706174682069643d277061746838272066696c6c3d276e6f6e652720610b0d8301527f7374726f6b653d272330303030303027207374726f6b652d77696474683d2732610b2d8301527f2e3031353827207374726f6b652d6c696e656361703d27726f756e6427207374610b4d8301527f726f6b652d6c696e656a6f696e3d27726f756e642720643d274d2036372e3239610b6d8301527f393938382032363020432036372e32393939383820323630203133372e333939610b8d8301527f393934203331302e323030303132203232392e373939393838203235392e3239610bad8301527f39393838272f3e203c706174682069643d277061746839272066696c6c3d276e610bcd8301527f6f6e6527207374726f6b653d272330303030303027207374726f6b652d776964610bed8301527f74683d27312e3439333127207374726f6b652d6c696e656361703d27726f756e610c0d8301527f6427207374726f6b652d6c696e656a6f696e3d27726f756e642720643d274d20610c2d8301527f3233322e333939393934203231322043203233322e3339393939342032313220610c4d8301527f3135392e323939393838203138352e3539393937362036322e38393939393420610c6d8301527f3231322e323939393838272f3e203c706174682069643d277061746831302720610c8d8301527f66696c6c3d276e6f6e6527207374726f6b653d27233030303030302720737472610cad8301527f6f6b652d77696474683d27312e3439333127207374726f6b652d6c696e656361610ccd8301527f703d27726f756e6427207374726f6b652d6c696e656a6f696e3d27726f756e64610ced8301527f2720643d274d2036332e313030303036203234372e3739393938382043203633610d0d8301527f2e313030303036203234372e373939393838203133362e323030303132203237610d2d8301527f342e323030303132203233322e363030303036203234372e35272f3e203c7061610d4d8301527f74682069643d27706174683131272066696c6c3d276e6f6e6527207374726f6b610d6d8301527f653d272330303030303027207374726f6b652d77696474683d27322e39373433610d8d8301527f27207374726f6b652d6c696e656361703d27726f756e6427207374726f6b652d610dad8301527f6c696e656a6f696e3d27726f756e642720643d274d203536382e343030303234610dcd8301527f203731372e393030303234204c203230342e35203239362e303939393736272f610ded8301527f3e203c2f673e203c672069643d276732273e203c706174682069643d27706174610e0d8301527f683132272066696c6c3d272330303030303027207374726f6b653d276e6f6e65610e2d8301527f2720643d274d2038382e383939393934203737392e3039393937362043203838610e4d8301527f2e383939393934203737382e3539393937362038382e38393939393420373738610e6d8301527f2e3230303031322038382e383939393934203737372e37393939383820432038610e8d8301527f382e383939393934203736302e3930303032342038382e383939393934203734610ead8301527f342038382e383939393934203732372e30393939373620432038382e38393939610ecd8301527f3934203732362e3039393937362038392e323030303132203732352e37303030610eed8301527f31322039302e313030303036203732352e32393939383820432039332e333939610f0d8301527f393934203732342039362e363030303036203732322e3539393937362039392e610f2d8301527f383939393934203732312e3230303031322043203130302e3230303031322037610f4d8301527f32312e303939393736203130302e352037323120313031203732302e37393939610f6d8301527f3838204320313031203732312e32303030313220313031203732312e35393939610f8d8301527f373620313031203732312e393030303234204320313031203733392031303120610fad8301527f3735362e32303030313220313031203737332e32393939383820432031303120610fcd8301527f3737342e303939393736203130302e373939393838203737342e352031303020610fed8301527f3737342e37393939383820432039362e373030303132203737362039332e333961100d8301527f39393934203737372e3239393938382039302e313030303036203737382e353961102d8301527f3939373620432038392e373030303132203737382e3739393938382038392e3361104d8301527f3939393934203737392038382e383939393934203737392e303939393736205a61106d8301527f272f3e203c706174682069643d27706174683133272066696c6c3d272330303061108d8301527f30303027207374726f6b653d276e6f6e652720643d274d203132322e333939396110ad8301527f3934203738332e352043203131392e33393939393420373832203131362e35206110cd8301527f3738302e35203131332e363030303036203737392e30393939373620432031316110ed8301527f332e363030303036203737392e303939393736203131332e35203737392e303961110d8301527f39393736203131332e35203737392e3039393937362043203131302e3739393961112d8301527f3838203737372e35203131302e363030303036203737362e373939393838203161114d8301527f31302e363030303036203737342e3430303032342043203131302e373030303161116d8301527f32203736342e373030303132203131302e37303030313220373535203131302e61118d8301527f373030303132203734352e3239393938382043203131302e37303030313220376111ad8301527f34342e393030303234203131302e373030303132203734342e35203131302e376111cd8301527f3030303132203734332e3930303032342043203131312e3739393938382037346111ed8301527f342e343030303234203131322e383939393934203734342e373939393838203161120d8301527f31332e383939393934203734352e3239393938382043203131362e333939393961122d8301527f34203734362e34303030323420313139203734372e353939393736203132312e61124d8301527f35203734382e373030303132204320313232203734382e39303030323420313261126d8301527f322e35203734392e323030303132203132322e333939393934203734392e393061128d8301527f303032342043203132322e333939393934203736302e373939393838203132326112ad8301527f2e333939393934203737312e373030303132203132322e3339393939342037386112cd8301527f322e3730303031322043203132322e333939393934203738322e3930303032346112ed8301527f203132322e333939393934203738332e303939393736203132322e333939393961130d8301527f34203738332e35205a272f3e203c706174682069643d2770617468313427206661132d8301527f696c6c3d272330303030303027207374726f6b653d276e6f6e652720643d274d61134d8301527f2036372e323030303132203738372e39303030323420432036372e323030303161136d8301527f32203738372e3430303032342036372e323030303132203738372036372e323061138d8301527f30303132203738362e37303030313220432036372e32303030313220373738206113ad8301527f36372e323030303132203736392e3230303031322036372e32303030313220376113cd8301527f36302e3520432036372e323030303132203735392e3730303031322036372e336113ed8301527f3939393934203735392e3239393938382036382e32303030313220373539204361140d8301527f2037312e363030303036203735372e35203735203735352e393030303234203761142d8301527f382e333939393934203735342e34303030323420432037382e35203735342e3261144d8301527f39393938382037382e373030303132203735342e32393939383820373920373561146d8301527f342e3230303031322043203739203735342e353939393736203739203735342e61148d8301527f393030303234203739203735352e3239393938382043203739203736342e32306114ad8301527f30303132203739203737332e323030303132203739203738322e3039393937366114cd8301527f2043203739203738322e3930303032342037382e373939393838203738332e326114ed8301527f30303031322037382e313030303036203738332e3520432037342e373030303161150d8301527f32203738352037312e323939393838203738362e3430303032342036372e383961152d8301527f39393934203738372e39303030323420432036372e373939393838203738372e61154d8301527f3930303032342036372e363030303036203738372e3930303032342036372e3261156d8301527f3030303132203738372e393030303234205a272f3e203c2f673e203c7061746861158d8301527f2069643d27706174683135272066696c6c3d276e6f6e6527207374726f6b653d6115ad8301527f272330303030303027207374726f6b652d77696474683d27302e3938303127206115cd8301527f7374726f6b652d6c696e656361703d27726f756e6427207374726f6b652d6c696115ed83018190527f6e656a6f696e3d27726f756e642720643d274d203239362e383939393934203161160d8401527f34302e3739393938382043203239362e383939393934203136342e333832353661162d8401527f38203237372e373832353632203138332e35203235342e32303030313220313861164d8401527f332e352043203233302e363137343332203138332e35203231312e352031363461166d8401527f2e333832353638203231312e35203134302e3739393938382043203231312e3561168d8401527f203131372e323137343037203233302e3631373433322039382e3039393937366116ad8401527f203235342e3230303031322039382e3039393937362043203237372e373832356116cd8401527f36322039382e303939393736203239362e383939393934203131372e323137346116ed8401527f3037203239362e383939393934203134302e373939393838205a272f3e203c6761170d8401527f2069643d276733273e203c706174682069643d27706174683136272066696c6c61172d84015261174d8301919091527f77696474683d27302e3938303127207374726f6b652d6c696e656361703d277261176d8301527f6f756e6427207374726f6b652d6c696e656a6f696e3d27726f756e642720643d61178d8301527f274d203239362e383939393934203134302e3739393938382043203239362e386117ad8301527f3939393934203136342e333832353638203237372e373832353632203138332e6117cd8301527f35203235342e323030303132203138332e352043203233302e363137343332206117ed8301527f3138332e35203231312e35203136342e333832353638203231312e352031343061180d8301527f2e3739393938382043203231312e35203131372e323137343037203233302e3661182d8301527f31373433322039382e303939393736203235342e3230303031322039382e303961184d8301527f393937362043203237372e3738323536322039382e303939393736203239362e61186d8301527f383939393934203131372e323137343037203239362e3839393939342031343061188d8301527f2e373939393838205a272f3e203c706174682069643d277061746831372720666118ad8301527f696c6c3d276e6f6e6527207374726f6b653d272330303030303027207374726f6118cd83018190527f6b652d77696474683d27302e3939393127207374726f6b652d6c696e656361706118ed8401527f3d27726f756e6427207374726f6b652d6c696e656a6f696e3d27726f756e642761190d84018190527f20643d274d203233382e352039392e3930303032342043203233382e3520393961192d8501527f2e393030303234203231312e35203133322e393030303234203233342e32393961194d8501527f393838203137392e373030303132272f3e203c706174682069643d277061746861196d8501527f3138272066696c6c3d276e6f6e6527207374726f6b653d27233030303030302761198d8501527f207374726f6b652d77696474683d27302e3938303127207374726f6b652d6c696119ad8501527f6e656361703d27726f756e6427207374726f6b652d6c696e656a6f696e3d27726119cd8501527f6f756e642720643d274d203235342e3730303031322039382e303939393736206119ed8501527f4c203235332e333939393934203138332e343030303234272f3e203c70617468611a0d8501527f2069643d27706174683139272066696c6c3d276e6f6e6527207374726f6b653d611a2d8501527f272330303030303027207374726f6b652d77696474683d27302e393939312720611a4d850152611a6d8401929092527f6e656a6f696e3d27726f756e642720643d274d20323638203138312e35204320611a8d8401527f323638203138312e3520323935203134382e35203237322e3230303031322031611aad8401527f30312e373030303132272f3e203c706174682069643d27706174683230272066611acd840152611aed8301527f6b652d77696474683d27302e3938303127207374726f6b652d6c696e65636170611b0d830152611b2d8201527f20643d274d203239332e333939393934203132332e3039393937362043203239611b4d8201527f332e333939393934203132332e303939393736203235392e3630303030362039611b6d8201527f382e3520323135203132332e343030303234272f3e203c706174682069643d27611b8d8201527f706174683231272066696c6c3d276e6f6e6527207374726f6b653d2723303030611bad8201527f30303027207374726f6b652d77696474683d27302e3938373927207374726f6b611bcd8201527f652d6c696e656361703d27726f756e6427207374726f6b652d6c696e656a6f69611bed8201527f6e3d27726f756e642720643d274d203231342e373030303132203135362e3539611c0d8201527f393937362043203231342e373030303132203135362e35393939373620323439611c2d8201527f203138312e323030303132203239342e323939393838203135362e3239393938611c4d8201527f38272f3e203c706174682069643d27706174683232272066696c6c3d276e6f6e611c6d8201527f6527207374726f6b653d272330303030303027207374726f6b652d7769647468611c8d8201527f3d27302e3733343427207374726f6b652d6c696e656361703d27726f756e6427611cad8201527f207374726f6b652d6c696e656a6f696e3d27726f756e642720643d274d203239611ccd8201527f35203133322e373939393838204320323935203133322e373939393838203235611ced8201527f39203131392e373939393838203231312e363030303036203133322e39303030611d0d8201527f3234272f3e203c706174682069643d27706174683233272066696c6c3d276e6f611d2d8201527f6e6527207374726f6b653d272330303030303027207374726f6b652d77696474611d4d8201527f683d27302e3733313727207374726f6b652d6c696e656361703d27726f756e64611d6d8201527f27207374726f6b652d6c696e656a6f696e3d27726f756e642720643d274d2032611d8d8201527f31322e363030303036203135302e3539393937362043203231322e3630303030611dad8201527f36203135302e353939393736203234382e333939393934203136332e35393939611dcd820152791b9b10191c9a971b981818189910189a98171a93979f1e17b39f60311b611ded820152611e0701949350505050565b600060208252825180602084015261408e8160408501602087016140fa565b601f01601f19169190910160400192915050565b6020808252818101527f537472696e67733a20686578206c656e67746820696e73756666696369656e74604082015260600190565b6040518181016001600160401b03811182821017156140f257fe5b604052919050565b60005b838110156141155781810151838201526020016140fd565b83811115614124576000848401525b5050505056fe4142434445464748494a4b4c4d4e4f505152535455565758595a6162636465666768696a6b6c6d6e6f707172737475767778797a303132333435363738392b2f536166654d6174683a206d756c7469706c69636174696f6e206f766572666c6f773c3f786d6c2076657273696f6e3d27312e302720656e636f64696e673d275554462d38273f3e203c7376672077696474683d2735393927206865696768743d273834342720666f6e742d66616d696c793d27417269616c272076696577426f783d2730203020353939203834342720786d6c6e733d27687474703a2f2f7777772e77332e6f72672f323030302f7376672720786d6c6e733a786c696e6b3d27687474703a2f2f7777772e77332e6f72672f313939392f786c696e6b273ea2646970667358221220cae48c493e14f0cd8aa60de957dce9e18ccfc2c8195694da09459422580fa2f464736f6c63430007060033",
  "linkReferences": {},
  "deployedLinkReferences": {}
}