{
  "_format": "hh-sol-artifact-1",
  "contractName": "OpenAssetGuard",
  "sourceName": "contracts/guards/assetGuards/OpenAssetGuard.sol",
  "abi": [
    {
      "inputs": [
        {
          "internalType": "address[]",
          "name": "_assets",
          "type": "address[]"
        }
      ],
      "stateMutability": "nonpayable",
      "type": "constructor"
    },
    {
      "anonymous": false,
      "inputs": [
        {
          "indexed": false,
          "internalType": "address",
          "name": "fundAddress",
          "type": "address"
        },
        {
          "indexed": false,
          "internalType": "address",
          "name": "manager",
          "type": "address"
        },
        {
          "indexed": false,
          "internalType": "address",
          "name": "spender",
          "type": "address"
        },
        {
          "indexed": false,
          "internalType": "uint256",
          "name": "amount",
          "type": "uint256"
        },
        {
          "indexed": false,
          "internalType": "uint256",
          "name": "time",
          "type": "uint256"
        }
      ],
      "name": "Approve",
      "type": "event"
    },
    {
      "anonymous": false,
      "inputs": [
        {
          "indexed": false,
          "internalType": "address",
          "name": "fundAddress",
          "type": "address"
        },
        {
          "indexed": false,
          "internalType": "address",
          "name": "sourceAsset",
          "type": "address"
        },
        {
          "indexed": false,
          "internalType": "uint256",
          "name": "sourceAmount",
          "type": "uint256"
        },
        {
          "indexed": false,
          "internalType": "address",
          "name": "dstAsset",
          "type": "address"
        },
        {
          "indexed": false,
          "internalType": "uint256",
          "name": "time",
          "type": "uint256"
        }
      ],
      "name": "ExchangeFrom",
      "type": "event"
    },
    {
      "anonymous": false,
      "inputs": [
        {
          "indexed": false,
          "internalType": "address",
          "name": "fundAddress",
          "type": "address"
        },
        {
          "indexed": false,
          "internalType": "address",
          "name": "sourceAsset",
          "type": "address"
        },
        {
          "indexed": false,
          "internalType": "address",
          "name": "dstAsset",
          "type": "address"
        },
        {
          "indexed": false,
          "internalType": "uint256",
          "name": "dstAmount",
          "type": "uint256"
        },
        {
          "indexed": false,
          "internalType": "uint256",
          "name": "time",
          "type": "uint256"
        }
      ],
      "name": "ExchangeTo",
      "type": "event"
    },
    {
      "anonymous": false,
      "inputs": [
        {
          "indexed": true,
          "internalType": "address",
          "name": "previousOwner",
          "type": "address"
        },
        {
          "indexed": true,
          "internalType": "address",
          "name": "newOwner",
          "type": "address"
        }
      ],
      "name": "OwnershipTransferred",
      "type": "event"
    },
    {
      "anonymous": false,
      "inputs": [
        {
          "indexed": false,
          "internalType": "address",
          "name": "asset",
          "type": "address"
        },
        {
          "indexed": false,
          "internalType": "bool",
          "name": "isValid",
          "type": "bool"
        }
      ],
      "name": "SetValidAsset",
      "type": "event"
    },
    {
      "inputs": [
        {
          "internalType": "bytes32",
          "name": "data",
          "type": "bytes32"
        }
      ],
      "name": "convert32toAddress",
      "outputs": [
        {
          "internalType": "address",
          "name": "o",
          "type": "address"
        }
      ],
      "stateMutability": "pure",
      "type": "function"
    },
    {
      "inputs": [
        {
          "internalType": "bytes",
          "name": "data",
          "type": "bytes"
        },
        {
          "internalType": "uint8",
          "name": "inputNum",
          "type": "uint8"
        },
        {
          "internalType": "uint8",
          "name": "arrayIndex",
          "type": "uint8"
        }
      ],
      "name": "getArrayIndex",
      "outputs": [
        {
          "internalType": "bytes32",
          "name": "",
          "type": "bytes32"
        }
      ],
      "stateMutability": "pure",
      "type": "function"
    },
    {
      "inputs": [
        {
          "internalType": "bytes",
          "name": "data",
          "type": "bytes"
        },
        {
          "internalType": "uint8",
          "name": "inputNum",
          "type": "uint8"
        }
      ],
      "name": "getArrayLast",
      "outputs": [
        {
          "internalType": "bytes32",
          "name": "",
          "type": "bytes32"
        }
      ],
      "stateMutability": "pure",
      "type": "function"
    },
    {
      "inputs": [
        {
          "internalType": "bytes",
          "name": "data",
          "type": "bytes"
        },
        {
          "internalType": "uint8",
          "name": "inputNum",
          "type": "uint8"
        }
      ],
      "name": "getArrayLength",
      "outputs": [
        {
          "internalType": "uint256",
          "name": "",
          "type": "uint256"
        }
      ],
      "stateMutability": "pure",
      "type": "function"
    },
    {
      "inputs": [
        {
          "internalType": "bytes",
          "name": "data",
          "type": "bytes"
        },
        {
          "internalType": "uint8",
          "name": "inputNum",
          "type": "uint8"
        },
        {
          "internalType": "uint256",
          "name": "offset",
          "type": "uint256"
        }
      ],
      "name": "getBytes",
      "outputs": [
        {
          "internalType": "bytes",
          "name": "",
          "type": "bytes"
        }
      ],
      "stateMutability": "pure",
      "type": "function"
    },
    {
      "inputs": [
        {
          "internalType": "bytes",
          "name": "data",
          "type": "bytes"
        },
        {
          "internalType": "uint8",
          "name": "inputNum",
          "type": "uint8"
        }
      ],
      "name": "getInput",
      "outputs": [
        {
          "internalType": "bytes32",
          "name": "",
          "type": "bytes32"
        }
      ],
      "stateMutability": "pure",
      "type": "function"
    },
    {
      "inputs": [
        {
          "internalType": "bytes",
          "name": "data",
          "type": "bytes"
        }
      ],
      "name": "getMethod",
      "outputs": [
        {
          "internalType": "bytes4",
          "name": "",
          "type": "bytes4"
        }
      ],
      "stateMutability": "pure",
      "type": "function"
    },
    {
      "inputs": [
        {
          "internalType": "bytes",
          "name": "data",
          "type": "bytes"
        }
      ],
      "name": "getParams",
      "outputs": [
        {
          "internalType": "bytes",
          "name": "",
          "type": "bytes"
        }
      ],
      "stateMutability": "pure",
      "type": "function"
    },
    {
      "inputs": [
        {
          "internalType": "address",
          "name": "",
          "type": "address"
        }
      ],
      "name": "isValidAsset",
      "outputs": [
        {
          "internalType": "bool",
          "name": "",
          "type": "bool"
        }
      ],
      "stateMutability": "view",
      "type": "function"
    },
    {
      "inputs": [],
      "name": "owner",
      "outputs": [
        {
          "internalType": "address",
          "name": "",
          "type": "address"
        }
      ],
      "stateMutability": "view",
      "type": "function"
    },
    {
      "inputs": [
        {
          "internalType": "bytes",
          "name": "data",
          "type": "bytes"
        },
        {
          "internalType": "uint256",
          "name": "offset",
          "type": "uint256"
        },
        {
          "internalType": "uint256",
          "name": "length",
          "type": "uint256"
        }
      ],
      "name": "read32",
      "outputs": [
        {
          "internalType": "bytes32",
          "name": "o",
          "type": "bytes32"
        }
      ],
      "stateMutability": "pure",
      "type": "function"
    },
    {
      "inputs": [
        {
          "internalType": "bytes",
          "name": "data",
          "type": "bytes"
        },
        {
          "internalType": "uint256",
          "name": "offset",
          "type": "uint256"
        }
      ],
      "name": "read4left",
      "outputs": [
        {
          "internalType": "bytes4",
          "name": "o",
          "type": "bytes4"
        }
      ],
      "stateMutability": "pure",
      "type": "function"
    },
    {
      "inputs": [],
      "name": "renounceOwnership",
      "outputs": [],
      "stateMutability": "nonpayable",
      "type": "function"
    },
    {
      "inputs": [
        {
          "internalType": "address",
          "name": "_asset",
          "type": "address"
        },
        {
          "internalType": "bool",
          "name": "_isValid",
          "type": "bool"
        }
      ],
      "name": "setValidAsset",
      "outputs": [],
      "stateMutability": "nonpayable",
      "type": "function"
    },
    {
      "inputs": [
        {
          "internalType": "address",
          "name": "newOwner",
          "type": "address"
        }
      ],
      "name": "transferOwnership",
      "outputs": [],
      "stateMutability": "nonpayable",
      "type": "function"
    },
    {
      "inputs": [
        {
          "internalType": "address",
          "name": "_poolManagerLogic",
          "type": "address"
        },
        {
          "internalType": "address",
          "name": "to",
          "type": "address"
        },
        {
          "internalType": "bytes",
          "name": "data",
          "type": "bytes"
        }
      ],
      "name": "txGuard",
      "outputs": [
        {
          "internalType": "uint16",
          "name": "txType",
          "type": "uint16"
        },
        {
          "internalType": "bool",
          "name": "",
          "type": "bool"
        }
      ],
      "stateMutability": "nonpayable",
      "type": "function"
    }
  ],
  "bytecode": "0x60806040523480156200001157600080fd5b50604051620014593803806200145983398101604081905262000034916200010d565b600062000040620000ec565b600080546001600160a01b0319166001600160a01b0383169081178255604051929350917f8be0079c531659141344cd1fd0a4f28419497f9722a3daafe3b4186f6b6457e0908290a35060005b8151811015620000e4576001806000848481518110620000a957fe5b6020908102919091018101516001600160a01b03168252810191909152604001600020805460ff19169115159190911790556001016200008d565b5050620001cb565b3390565b80516001600160a01b03811681146200010857600080fd5b919050565b6000602080838503121562000120578182fd5b82516001600160401b038082111562000137578384fd5b818501915085601f8301126200014b578384fd5b8151818111156200015857fe5b838102604051858282010181811085821117156200017257fe5b604052828152858101935084860182860187018a101562000191578788fd5b8795505b83861015620001be57620001a981620000f0565b85526001959095019493860193860162000195565b5098975050505050505050565b61127e80620001db6000396000f3fe608060405234801561001057600080fd5b50600436106100d05760003560e01c806309ff5c7d146100d55780631053f952146100fe5780631eba30771461011e578063293d80631461013e57806341dc16c31461015e5780636179309d146101715780636890151314610192578063715018a6146101a557806382f86acc146101af5780638da5cb5b146101c2578063998546e3146101ca578063c3c6279f146101dd578063cb46fa63146101f0578063cc435bf314610203578063db896b5714610223578063f2fde38b14610236575b600080fd5b6100e86100e3366004610f98565b610249565b6040516100f59190611100565b60405180910390f35b61011161010c366004610fe3565b6102da565b6040516100f5919061111e565b61013161012c366004610ec1565b610372565b6040516100f59190611092565b61015161014c366004610f0b565b610379565b6040516100f59190611109565b6100e861016c366004611037565b6103db565b61018461017f366004610df9565b6104b9565b6040516100f59291906111d4565b6101116101a0366004610ed9565b610855565b6101ad610876565b005b6100e86101bd366004610f98565b610922565b610131610940565b6100e86101d8366004610f98565b61094f565b6101516101eb366004610ed9565b610980565b6101ad6101fe366004610e85565b61098d565b610216610211366004610dc1565b610a51565b6040516100f591906110f5565b6100e8610231366004610f4d565b610a66565b6101ad610244366004610dc1565b610ae5565b600080610261848460200260040160ff166020610a66565b9050600061027485600484016020610a66565b9050806102bd576040805162461bcd60e51b8152602060048201526012602482015271696e707574206973206e6f7420617272617960701b604482015290519081900360640190fd5b6102d1856020808402850160040190610a66565b95945050505050565b606060148210610322576040805162461bcd60e51b815260206004820152600e60248201526d1a5b9d985b1a59081bd9999cd95d60921b604482015290519081900360640190fd5b816020029150600061034185848660200260040160ff16016020610a66565b90506000610356868584016004016020610a66565b90506103688660248487010183610be7565b9695505050505050565b805b919050565b600081600401835110156103d2576040805162461bcd60e51b815260206004820152601b60248201527a52656164696e67206279746573206f7574206f6620626f756e647360281b604482015290519081900360640190fd5b50016020015190565b6000806103f3858560200260040160ff166020610a66565b9050600061040686600484016020610a66565b90508061044f576040805162461bcd60e51b8152602060048201526012602482015271696e707574206973206e6f7420617272617960701b604482015290519081900360640190fd5b60ff8416811161049f576040805162461bcd60e51b815260206004820152601660248201527534b73b30b634b21030b93930bc903837b9b4ba34b7b760511b604482015290519081900360640190fd5b610368866020600160ff8816018102850160040190610a66565b6001600160a01b038316600090815260016020526040812054819060ff166104fc5760405162461bcd60e51b81526004016104f390611171565b60405180910390fd5b600061053d85858080601f01602080910402602001604051908101604052809392919081815260200183838082843760009201919091525061098092505050565b90506001600160e01b0319811663095ea7b360e01b141561084757600061059c61012c87878080601f01602080910402602001604051908101604052809392919081815260200183838082843760009201829052509250610922915050565b905060006105e287878080601f01602080910402602001604051908101604052809392919081815260200183838082843760009201919091525060019250610922915050565b60001c905060008990506000816001600160a01b031663c45a01556040518163ffffffff1660e01b815260040160206040518083038186803b15801561062757600080fd5b505afa15801561063b573d6000803e3d6000fd5b505050506040513d601f19601f8201168201806040525081019061065f9190610ddd565b90506000816001600160a01b0316634f8419b9866040518263ffffffff1660e01b815260040161068f9190611092565b60206040518083038186803b1580156106a757600080fd5b505afa1580156106bb573d6000803e3d6000fd5b505050506040513d601f19601f820116820180604052508101906106df9190610ddd565b90506001600160a01b0381161580159061070257506001600160a01b0381163014155b61071e5760405162461bcd60e51b81526004016104f39061119e565b7f5343b378d69227c1bc2016fd44e8104f0ffa7729f4f4f4110e349a2db0a0d0c8836001600160a01b03166339b81fd96040518163ffffffff1660e01b815260040160206040518083038186803b15801561077857600080fd5b505afa15801561078c573d6000803e3d6000fd5b505050506040513d601f19601f820116820180604052508101906107b09190610ddd565b8d6001600160a01b031663481c6a756040518163ffffffff1660e01b815260040160206040518083038186803b1580156107e957600080fd5b505afa1580156107fd573d6000803e3d6000fd5b505050506040513d601f19601f820116820180604052508101906108219190610ddd565b8787426040516108359594939291906110a6565b60405180910390a16001975050505050505b506000905094509492505050565b606061087060048084510384610be79092919063ffffffff16565b92915050565b61087e610d38565b6001600160a01b031661088f610940565b6001600160a01b0316146108d8576040805162461bcd60e51b81526020600482018190526024820152600080516020611229833981519152604482015290519081900360640190fd5b600080546040516001600160a01b03909116907f8be0079c531659141344cd1fd0a4f28419497f9722a3daafe3b4186f6b6457e0908390a3600080546001600160a01b0319169055565b6000610939838360200260040160ff166020610a66565b9392505050565b6000546001600160a01b031690565b600080610967848460200260040160ff166020610a66565b905061097884600483016020610a66565b949350505050565b6000610870826000610379565b610995610d38565b6001600160a01b03166109a6610940565b6001600160a01b0316146109ef576040805162461bcd60e51b81526020600482018190526024820152600080516020611229833981519152604482015290519081900360640190fd5b6001600160a01b03821660009081526001602052604090819020805460ff1916831515179055517faba6bd1c43f97b1bc53a8eb1ee8cc0db8e3de5b49e74538003b94c9c252c351590610a4590849084906110da565b60405180910390a15050565b60016020526000908152604090205460ff1681565b600081830184511015610abe576040805162461bcd60e51b815260206004820152601b60248201527a52656164696e67206279746573206f7574206f6620626f756e647360281b604482015290519081900360640190fd5b826020018401519050816020038015610add576008810260020a820491505b509392505050565b610aed610d38565b6001600160a01b0316610afe610940565b6001600160a01b031614610b47576040805162461bcd60e51b81526020600482018190526024820152600080516020611229833981519152604482015290519081900360640190fd5b6001600160a01b038116610b8c5760405162461bcd60e51b81526004018080602001828103825260268152602001806112036026913960400191505060405180910390fd5b600080546040516001600160a01b03808516939216917f8be0079c531659141344cd1fd0a4f28419497f9722a3daafe3b4186f6b6457e091a3600080546001600160a01b0319166001600160a01b0392909216919091179055565b60608182601f011015610c32576040805162461bcd60e51b815260206004820152600e60248201526d736c6963655f6f766572666c6f7760901b604482015290519081900360640190fd5b828284011015610c7a576040805162461bcd60e51b815260206004820152600e60248201526d736c6963655f6f766572666c6f7760901b604482015290519081900360640190fd5b81830184511015610cc6576040805162461bcd60e51b8152602060048201526011602482015270736c6963655f6f75744f66426f756e647360781b604482015290519081900360640190fd5b606082158015610ce55760405191506000825260208201604052610d2f565b6040519150601f8416801560200281840101858101878315602002848b0101015b81831015610d1e578051835260209283019201610d06565b5050858452601f01601f1916604052505b50949350505050565b3390565b600082601f830112610d4c578081fd5b81356001600160401b0380821115610d6057fe5b604051601f8301601f191681016020018281118282101715610d7e57fe5b604052828152848301602001861015610d95578384fd5b82602086016020830137918201602001929092529392505050565b803560ff8116811461037457600080fd5b600060208284031215610dd2578081fd5b8135610939816111ea565b600060208284031215610dee578081fd5b8151610939816111ea565b60008060008060608587031215610e0e578283fd5b8435610e19816111ea565b93506020850135610e29816111ea565b925060408501356001600160401b0380821115610e44578384fd5b818701915087601f830112610e57578384fd5b813581811115610e65578485fd5b886020828501011115610e76578485fd5b95989497505060200194505050565b60008060408385031215610e97578182fd5b8235610ea2816111ea565b915060208301358015158114610eb6578182fd5b809150509250929050565b600060208284031215610ed2578081fd5b5035919050565b600060208284031215610eea578081fd5b81356001600160401b03811115610eff578182fd5b61097884828501610d3c565b60008060408385031215610f1d578182fd5b82356001600160401b03811115610f32578283fd5b610f3e85828601610d3c565b95602094909401359450505050565b600080600060608486031215610f61578283fd5b83356001600160401b03811115610f76578384fd5b610f8286828701610d3c565b9660208601359650604090950135949350505050565b60008060408385031215610faa578182fd5b82356001600160401b03811115610fbf578283fd5b610fcb85828601610d3c565b925050610fda60208401610db0565b90509250929050565b600080600060608486031215610ff7578283fd5b83356001600160401b0381111561100c578384fd5b61101886828701610d3c565b93505061102760208501610db0565b9150604084013590509250925092565b60008060006060848603121561104b578283fd5b83356001600160401b03811115611060578384fd5b61106c86828701610d3c565b93505061107b60208501610db0565b915061108960408501610db0565b90509250925092565b6001600160a01b0391909116815260200190565b6001600160a01b03958616815293851660208501529190931660408301526060820192909252608081019190915260a00190565b6001600160a01b039290921682521515602082015260400190565b901515815260200190565b90815260200190565b6001600160e01b031991909116815260200190565b6000602080835283518082850152825b8181101561114a5785810183015185820160400152820161112e565b8181111561115b5783604083870101525b50601f01601f1916929092016040019392505050565b60208082526013908201527234b73b30b634b2103232b9ba34b730ba34b7b760691b604082015260600190565b6020808252601c908201527b1d5b9cdd5c1c1bdc9d1959081cdc195b99195c88185c1c1c9bdd985b60221b604082015260600190565b61ffff9290921682521515602082015260400190565b6001600160a01b03811681146111ff57600080fd5b5056fe4f776e61626c653a206e6577206f776e657220697320746865207a65726f20616464726573734f776e61626c653a2063616c6c6572206973206e6f7420746865206f776e6572a2646970667358221220d43fc04d789c1ba5860a343225ad5322d3cd31197fafa3418cac0e4f271059d364736f6c63430007060033",
  "linkReferences": {},
  "deployedLinkReferences": {}
}