{
  "_format": "hh-sol-artifact-1",
  "contractName": "SynthetixPerpsV2MarketAssetGuard",
  "sourceName": "contracts/guards/assetGuards/SynthetixPerpsV2MarketAssetGuard.sol",
  "abi": [
    {
      "inputs": [
        {
          "internalType": "contract IAddressResolver",
          "name": "_addressResolver",
          "type": "address"
        },
        {
          "internalType": "address",
          "name": "_susdProxy",
          "type": "address"
        }
      ],
      "stateMutability": "nonpayable",
      "type": "constructor"
    },
    {
      "anonymous": false,
      "inputs": [
        {
          "indexed": false,
          "internalType": "address",
          "name": "fundAddress",
          "type": "address"
        },
        {
          "indexed": false,
          "internalType": "address",
          "name": "sourceAsset",
          "type": "address"
        },
        {
          "indexed": false,
          "internalType": "uint256",
          "name": "sourceAmount",
          "type": "uint256"
        },
        {
          "indexed": false,
          "internalType": "address",
          "name": "dstAsset",
          "type": "address"
        },
        {
          "indexed": false,
          "internalType": "uint256",
          "name": "time",
          "type": "uint256"
        }
      ],
      "name": "ExchangeFrom",
      "type": "event"
    },
    {
      "anonymous": false,
      "inputs": [
        {
          "indexed": false,
          "internalType": "address",
          "name": "fundAddress",
          "type": "address"
        },
        {
          "indexed": false,
          "internalType": "address",
          "name": "sourceAsset",
          "type": "address"
        },
        {
          "indexed": false,
          "internalType": "address",
          "name": "dstAsset",
          "type": "address"
        },
        {
          "indexed": false,
          "internalType": "uint256",
          "name": "dstAmount",
          "type": "uint256"
        },
        {
          "indexed": false,
          "internalType": "uint256",
          "name": "time",
          "type": "uint256"
        }
      ],
      "name": "ExchangeTo",
      "type": "event"
    },
    {
      "inputs": [],
      "name": "DESIRED_FILL_PRICE_DELTA",
      "outputs": [
        {
          "internalType": "uint256",
          "name": "",
          "type": "uint256"
        }
      ],
      "stateMutability": "view",
      "type": "function"
    },
    {
      "inputs": [],
      "name": "addressResolver",
      "outputs": [
        {
          "internalType": "contract IAddressResolver",
          "name": "",
          "type": "address"
        }
      ],
      "stateMutability": "view",
      "type": "function"
    },
    {
      "inputs": [
        {
          "internalType": "bytes32",
          "name": "data",
          "type": "bytes32"
        }
      ],
      "name": "convert32toAddress",
      "outputs": [
        {
          "internalType": "address",
          "name": "o",
          "type": "address"
        }
      ],
      "stateMutability": "pure",
      "type": "function"
    },
    {
      "inputs": [
        {
          "internalType": "bytes",
          "name": "data",
          "type": "bytes"
        },
        {
          "internalType": "uint8",
          "name": "inputNum",
          "type": "uint8"
        },
        {
          "internalType": "uint8",
          "name": "arrayIndex",
          "type": "uint8"
        }
      ],
      "name": "getArrayIndex",
      "outputs": [
        {
          "internalType": "bytes32",
          "name": "",
          "type": "bytes32"
        }
      ],
      "stateMutability": "pure",
      "type": "function"
    },
    {
      "inputs": [
        {
          "internalType": "bytes",
          "name": "data",
          "type": "bytes"
        },
        {
          "internalType": "uint8",
          "name": "inputNum",
          "type": "uint8"
        }
      ],
      "name": "getArrayLast",
      "outputs": [
        {
          "internalType": "bytes32",
          "name": "",
          "type": "bytes32"
        }
      ],
      "stateMutability": "pure",
      "type": "function"
    },
    {
      "inputs": [
        {
          "internalType": "bytes",
          "name": "data",
          "type": "bytes"
        },
        {
          "internalType": "uint8",
          "name": "inputNum",
          "type": "uint8"
        }
      ],
      "name": "getArrayLength",
      "outputs": [
        {
          "internalType": "uint256",
          "name": "",
          "type": "uint256"
        }
      ],
      "stateMutability": "pure",
      "type": "function"
    },
    {
      "inputs": [
        {
          "internalType": "address",
          "name": "pool",
          "type": "address"
        },
        {
          "internalType": "address",
          "name": "asset",
          "type": "address"
        }
      ],
      "name": "getBalance",
      "outputs": [
        {
          "internalType": "uint256",
          "name": "balance",
          "type": "uint256"
        }
      ],
      "stateMutability": "view",
      "type": "function"
    },
    {
      "inputs": [
        {
          "internalType": "bytes",
          "name": "data",
          "type": "bytes"
        },
        {
          "internalType": "uint8",
          "name": "inputNum",
          "type": "uint8"
        },
        {
          "internalType": "uint256",
          "name": "offset",
          "type": "uint256"
        }
      ],
      "name": "getBytes",
      "outputs": [
        {
          "internalType": "bytes",
          "name": "",
          "type": "bytes"
        }
      ],
      "stateMutability": "pure",
      "type": "function"
    },
    {
      "inputs": [
        {
          "internalType": "address",
          "name": "",
          "type": "address"
        }
      ],
      "name": "getDecimals",
      "outputs": [
        {
          "internalType": "uint256",
          "name": "decimals",
          "type": "uint256"
        }
      ],
      "stateMutability": "pure",
      "type": "function"
    },
    {
      "inputs": [
        {
          "internalType": "bytes",
          "name": "data",
          "type": "bytes"
        },
        {
          "internalType": "uint8",
          "name": "inputNum",
          "type": "uint8"
        }
      ],
      "name": "getInput",
      "outputs": [
        {
          "internalType": "bytes32",
          "name": "",
          "type": "bytes32"
        }
      ],
      "stateMutability": "pure",
      "type": "function"
    },
    {
      "inputs": [
        {
          "internalType": "bytes",
          "name": "data",
          "type": "bytes"
        }
      ],
      "name": "getMethod",
      "outputs": [
        {
          "internalType": "bytes4",
          "name": "",
          "type": "bytes4"
        }
      ],
      "stateMutability": "pure",
      "type": "function"
    },
    {
      "inputs": [
        {
          "internalType": "bytes",
          "name": "data",
          "type": "bytes"
        }
      ],
      "name": "getParams",
      "outputs": [
        {
          "internalType": "bytes",
          "name": "",
          "type": "bytes"
        }
      ],
      "stateMutability": "pure",
      "type": "function"
    },
    {
      "inputs": [
        {
          "internalType": "bytes",
          "name": "data",
          "type": "bytes"
        },
        {
          "internalType": "uint256",
          "name": "offset",
          "type": "uint256"
        },
        {
          "internalType": "uint256",
          "name": "length",
          "type": "uint256"
        }
      ],
      "name": "read32",
      "outputs": [
        {
          "internalType": "bytes32",
          "name": "o",
          "type": "bytes32"
        }
      ],
      "stateMutability": "pure",
      "type": "function"
    },
    {
      "inputs": [
        {
          "internalType": "bytes",
          "name": "data",
          "type": "bytes"
        },
        {
          "internalType": "uint256",
          "name": "offset",
          "type": "uint256"
        }
      ],
      "name": "read4left",
      "outputs": [
        {
          "internalType": "bytes4",
          "name": "o",
          "type": "bytes4"
        }
      ],
      "stateMutability": "pure",
      "type": "function"
    },
    {
      "inputs": [
        {
          "internalType": "address",
          "name": "pool",
          "type": "address"
        },
        {
          "internalType": "address",
          "name": "asset",
          "type": "address"
        }
      ],
      "name": "removeAssetCheck",
      "outputs": [],
      "stateMutability": "view",
      "type": "function"
    },
    {
      "inputs": [],
      "name": "susdProxy",
      "outputs": [
        {
          "internalType": "address",
          "name": "",
          "type": "address"
        }
      ],
      "stateMutability": "view",
      "type": "function"
    },
    {
      "inputs": [
        {
          "internalType": "address",
          "name": "",
          "type": "address"
        },
        {
          "internalType": "address",
          "name": "",
          "type": "address"
        },
        {
          "internalType": "bytes",
          "name": "",
          "type": "bytes"
        }
      ],
      "name": "txGuard",
      "outputs": [
        {
          "internalType": "uint16",
          "name": "txType",
          "type": "uint16"
        },
        {
          "internalType": "bool",
          "name": "",
          "type": "bool"
        }
      ],
      "stateMutability": "pure",
      "type": "function"
    },
    {
      "inputs": [
        {
          "internalType": "address",
          "name": "pool",
          "type": "address"
        },
        {
          "internalType": "address",
          "name": "asset",
          "type": "address"
        },
        {
          "internalType": "uint256",
          "name": "portion",
          "type": "uint256"
        },
        {
          "internalType": "address",
          "name": "withdrawerAddress",
          "type": "address"
        }
      ],
      "name": "withdrawProcessing",
      "outputs": [
        {
          "internalType": "address",
          "name": "withdrawAsset",
          "type": "address"
        },
        {
          "internalType": "uint256",
          "name": "withdrawBalance",
          "type": "uint256"
        },
        {
          "components": [
            {
              "internalType": "address",
              "name": "to",
              "type": "address"
            },
            {
              "internalType": "bytes",
              "name": "txData",
              "type": "bytes"
            }
          ],
          "internalType": "struct IAssetGuard.MultiTransaction[]",
          "name": "transactions",
          "type": "tuple[]"
        }
      ],
      "stateMutability": "view",
      "type": "function"
    }
  ],
  "bytecode": "0x60c06040523480156200001157600080fd5b50604051620025d1380380620025d1833981016040819052620000349162000053565b6001600160601b0319606092831b8116608052911b1660a052620000aa565b6000806040838503121562000066578182fd5b8251620000738162000091565b6020840151909250620000868162000091565b809150509250929050565b6001600160a01b0381168114620000a757600080fd5b50565b60805160601c60a05160601c6124e9620000e8600039806105495280611649528061186b52508061027e5280610a4f528061136252506124e96000f3fe608060405234801561001057600080fd5b50600436106100e65760003560e01c806305a2ee2a146100eb57806309ff5c7d146101095780631053f952146101295780631eba307714610149578063293d80631461015c57806341dc16c31461017c5780635e4551ef1461018f5780636179309d1461019757806368901513146101b857806369d8ff10146101cb5780636d5fae54146101d35780636f8ae202146101e857806382f86acc1461020a578063998546e31461021d578063c3c6279f14610230578063cf54aaa014610243578063d4fac45d14610256578063db896b5714610269575b600080fd5b6100f361027c565b6040516101009190612084565b60405180910390f35b61011c610117366004611d72565b6102a0565b604051610100919061213f565b61013c610137366004611dbd565b610333565b604051610100919061215d565b6100f3610157366004611c9b565b6103cd565b61016f61016a366004611ce5565b6103d4565b6040516101009190612148565b61011c61018a366004611e11565b610436565b61011c610514565b6101aa6101a5366004611ba3565b610520565b6040516101009291906123f9565b61013c6101c6366004611cb3565b61052c565b6100f3610547565b6101e66101e1366004611b6b565b61056b565b005b6101fb6101f6366004611c2f565b6105a5565b604051610100939291906120b1565b61011c610218366004611d72565b610bf7565b61011c61022b366004611d72565b610c0e565b61016f61023e366004611cb3565b610c3f565b61011c610251366004611b33565b610c4c565b61011c610264366004611b6b565b610c52565b61011c610277366004611d27565b610e17565b7f000000000000000000000000000000000000000000000000000000000000000081565b6000806102b8848460200260040160ff166020610e17565b905060006102cb85600484016020610e17565b905080610314576040805162461bcd60e51b8152602060048201526012602482015271696e707574206973206e6f7420617272617960701b604482015290519081900360640190fd5b610328856020808402850160040190610e17565b925050505b92915050565b60606014821061037b576040805162461bcd60e51b815260206004820152600e60248201526d1a5b9d985b1a59081bd9999cd95d60921b604482015290519081900360640190fd5b816020029150600061039a85848660200260040160ff16016020610e17565b905060006103af868584016004016020610e17565b90506103c18660248487010183610e96565b925050505b9392505050565b805b919050565b6000816004018351101561042d576040805162461bcd60e51b815260206004820152601b60248201527a52656164696e67206279746573206f7574206f6620626f756e647360281b604482015290519081900360640190fd5b50016020015190565b60008061044e858560200260040160ff166020610e17565b9050600061046186600484016020610e17565b9050806104aa576040805162461bcd60e51b8152602060048201526012602482015271696e707574206973206e6f7420617272617960701b604482015290519081900360640190fd5b60ff841681116104fa576040805162461bcd60e51b815260206004820152601660248201527534b73b30b634b21030b93930bc903837b9b4ba34b7b760511b604482015290519081900360640190fd5b6103c1866020600160ff8816018102850160040190610e17565b6706f05b59d3b2000081565b60008094509492505050565b606061032d60048084510384610e969092919063ffffffff16565b7f000000000000000000000000000000000000000000000000000000000000000081565b60006105778383610c52565b905080156105a05760405162461bcd60e51b815260040161059790612261565b60405180910390fd5b505050565b6000806060856001600160a01b031663c8b809aa886040518263ffffffff1660e01b81526004016105d69190612084565b6101206040518083038186803b1580156105ef57600080fd5b505afa158015610603573d6000803e3d6000fd5b505050506040513d601f19601f820116820180604052508101906106279190611e6c565b60200151600f0b1561064b5760405162461bcd60e51b8152600401610597906123c6565b60405163b9f4ff5560e01b81526001600160a01b0387169063b9f4ff5590610677908a90600401612084565b60206040518083038186803b15801561068f57600080fd5b505afa1580156106a3573d6000803e3d6000fd5b505050506040513d601f19601f820116820180604052508101906106c79190611c81565b156107925760408051600180825281830190925290816020015b6106e9611a20565b8152602001906001900390816106e1579050509050858160008151811061070c57fe5b60209081029190910101516001600160a01b0390911690526040516307498a0f60e41b9061073e908990602401612084565b604051602081830303815290604052906001600160e01b0319166020820180516001600160e01b0383818316178352505050508160008151811061077e57fe5b602002602001015160200181905250610bed565b61079a611a38565b60405163055f575160e41b81526000906001600160a01b038916906355f57510906107c9908c90600401612084565b60a06040518083038186803b1580156107e157600080fd5b505afa1580156107f5573d6000803e3d6000fd5b505050506040513d601f19601f820116820180604052508101906108199190611f14565b9050610847670de0b6b3a7640000610841898460800151600f0b610fe790919063ffffffff16565b90611090565b600003602083018190526109235760405163273efd3960e21b81526000906001600160a01b038a1690639cfbf4e490610884908d90600401612084565b604080518083038186803b15801561089b57600080fd5b505afa1580156108af573d6000803e3d6000fd5b505050506040513d601f19601f820116820180604052508101906108d39190611fb2565b6040850182905291506108fa90670de0b6b3a7640000906108f4908b611148565b906111a1565b6060840152801561091d5760405162461bcd60e51b815260040161059790612298565b50610a35565b60006109348a8a8560200151611205565b60a08601526080850181905290915061094e908290611462565b6040840181905261096d90670de0b6b3a7640000906108f4908b611148565b606084015260808201516000600f9190910b126109be576109b7670de0b6b3a76400006108f484606001516001600160801b03168560800151600f0b61114890919063ffffffff16565b83526109f7565b6109f4670de0b6b3a76400006108f484606001516001600160801b03168560800151600003600f0b61114890919063ffffffff16565b83525b6060830151610a1490600390610a0e9084906114ba565b90611148565b835110610a335760405162461bcd60e51b815260040161059790612338565b505b6040516321f8a72160e01b81526000906001600160a01b037f000000000000000000000000000000000000000000000000000000000000000016906321f8a72190610a829060040161236e565b60206040518083038186803b158015610a9a57600080fd5b505afa158015610aae573d6000803e3d6000fd5b505050506040513d601f19601f82011682018060405250810190610ad29190611b4f565b6001600160a01b0316638f20f2ea6040518163ffffffff1660e01b815260040160206040518083038186803b158015610b0a57600080fd5b505afa158015610b1e573d6000803e3d6000fd5b505050506040513d601f19601f82011682018060405250810190610b429190611f9a565b9050610b5f8360a00151846080015161146290919063ffffffff16565b83606001511015610b825760405162461bcd60e51b81526004016105979061238f565b602083015115801590610bbf575080610bac846060015185604001516114ba90919063ffffffff16565b1080610bbf575087670de0b6b3a7640000145b15610bdc5760405162461bcd60e51b8152600401610597906122cb565b50610be8828988611517565b925050505b9450945094915050565b60006103c6838360200260040160ff166020610e17565b600080610c26848460200260040160ff166020610e17565b9050610c3784600483016020610e17565b949350505050565b600061032d8260006103d4565b50601290565b60405163273efd3960e21b815260009082906001600160a01b03821690639cfbf4e490610c83908790600401612084565b604080518083038186803b158015610c9a57600080fd5b505afa158015610cae573d6000803e3d6000fd5b505050506040513d601f19601f82011682018060405250810190610cd29190611fb2565b5060405163055f575160e41b81529092506000906001600160a01b038316906355f5751090610d05908890600401612084565b60a06040518083038186803b158015610d1d57600080fd5b505afa158015610d31573d6000803e3d6000fd5b505050506040513d601f19601f82011682018060405250810190610d559190611f14565b60800151905080600f0b600014610e0f57604051634dd9d7e960e01b81526000906001600160a01b03841690634dd9d7e990610d9a9085850390600290600401612170565b604080518083038186803b158015610db157600080fd5b505afa158015610dc5573d6000803e3d6000fd5b505050506040513d601f19601f82011682018060405250810190610de99190611fb2565b509050838111610e0257610dfd84826114ba565b610e05565b60005b935050505061032d565b505092915050565b600081830184511015610e6f576040805162461bcd60e51b815260206004820152601b60248201527a52656164696e67206279746573206f7574206f6620626f756e647360281b604482015290519081900360640190fd5b826020018401519050816020038015610e8e576008810260020a820491505b509392505050565b60608182601f011015610ee1576040805162461bcd60e51b815260206004820152600e60248201526d736c6963655f6f766572666c6f7760901b604482015290519081900360640190fd5b828284011015610f29576040805162461bcd60e51b815260206004820152600e60248201526d736c6963655f6f766572666c6f7760901b604482015290519081900360640190fd5b81830184511015610f75576040805162461bcd60e51b8152602060048201526011602482015270736c6963655f6f75744f66426f756e647360781b604482015290519081900360640190fd5b606082158015610f945760405191506000825260208201604052610fde565b6040519150601f8416801560200281840101858101878315602002848b0101015b81831015610fcd578051835260209283019201610fb5565b5050858452601f01601f1916604052505b50949350505050565b600082610ff65750600061032d565b8260001914801561100a5750600160ff1b82145b156110465760405162461bcd60e51b815260040180806020018281038252602781526020018061248d6027913960400191505060405180910390fd5b8282028284828161105357fe5b05146103c65760405162461bcd60e51b815260040180806020018281038252602781526020018061248d6027913960400191505060405180910390fd5b6000816110e4576040805162461bcd60e51b815260206004820181905260248201527f5369676e6564536166654d6174683a206469766973696f6e206279207a65726f604482015290519081900360640190fd5b816000191480156110f85750600160ff1b83145b156111345760405162461bcd60e51b815260040180806020018281038252602181526020018061244b6021913960400191505060405180910390fd5b600082848161113f57fe5b05949350505050565b6000826111575750600061032d565b8282028284828161116457fe5b04146103c65760405162461bcd60e51b815260040180806020018281038252602181526020018061246c6021913960400191505060405180910390fd5b60008082116111f4576040805162461bcd60e51b815260206004820152601a602482015279536166654d6174683a206469766973696f6e206279207a65726f60301b604482015290519081900360640190fd5b8183816111fd57fe5b049392505050565b600080600080856001600160a01b031663ea9f9aa7866040518263ffffffff1660e01b8152600401611237919061213f565b604080518083038186803b15801561124e57600080fd5b505afa158015611262573d6000803e3d6000fd5b505050506040513d601f19601f820116820180604052508101906112869190611fb2565b5090506000866001600160a01b031663ea1d5478878460028c6040518563ffffffff1660e01b81526004016112be9493929190612188565b60c06040518083038186803b1580156112d657600080fd5b505afa1580156112ea573d6000803e3d6000fd5b505050506040513d601f19601f8201168201806040525081019061130e9190611fd4565b949950975092935060009250611322915050565b81600d81111561132e57fe5b1461134b5760405162461bcd60e51b815260040161059790612231565b6040516321f8a72160e01b81526001600160a01b037f000000000000000000000000000000000000000000000000000000000000000016906321f8a721906113959060040161236e565b60206040518083038186803b1580156113ad57600080fd5b505afa1580156113c1573d6000803e3d6000fd5b505050506040513d601f19601f820116820180604052508101906113e59190611b4f565b6001600160a01b031663139955026040518163ffffffff1660e01b815260040160206040518083038186803b15801561141d57600080fd5b505afa158015611431573d6000803e3d6000fd5b505050506040513d601f19601f820116820180604052508101906114559190611f9a565b9250505093509350939050565b6000828201838110156103c6576040805162461bcd60e51b815260206004820152601b60248201527a536166654d6174683a206164646974696f6e206f766572666c6f7760281b604482015290519081900360640190fd5b600082821115611511576040805162461bcd60e51b815260206004820152601e60248201527f536166654d6174683a207375627472616374696f6e206f766572666c6f770000604482015290519081900360640190fd5b50900390565b606060006115368560a00151866080015161146290919063ffffffff16565b856060015111611547576000611570565b6115708560a0015161156a876080015188606001516114ba90919063ffffffff16565b906114ba565b90508015610e8e5760208501516116fd576040805160028082526060820190925290816020015b61159f611a20565b81526020019060019003908161159757905050915083826000815181106115c257fe5b60209081029190910101516001600160a01b039091169052604051631114790960e31b906115f89060008490039060240161213f565b604051602081830303815290604052906001600160e01b0319166020820180516001600160e01b0383818316178352505050508260008151811061163857fe5b6020026020010151602001819052507f00000000000000000000000000000000000000000000000000000000000000008260018151811061167557fe5b60209081029190910101516001600160a01b03909116905260405163a9059cbb60e01b906116a99085908490602401612098565b604051602081830303815290604052906001600160e01b0319166020820180516001600160e01b038381831617835250505050826001815181106116e957fe5b602002602001015160200181905250610e8e565b600080856001600160a01b031663ea9f9aa788602001516040518263ffffffff1660e01b8152600401611730919061213f565b604080518083038186803b15801561174757600080fd5b505afa15801561175b573d6000803e3d6000fd5b505050506040513d601f19601f8201168201806040525081019061177f9190611fb2565b909250905080156117a25760405162461bcd60e51b815260040161059790612301565b506040805160038082526080820190925290816020015b6117c1611a20565b8152602001906001900390816117b957905050925084836000815181106117e457fe5b60209081029190910101516001600160a01b039091169052604051631114790960e31b9061181a9060008590039060240161213f565b604051602081830303815290604052906001600160e01b0319166020820180516001600160e01b0383818316178352505050508360008151811061185a57fe5b6020026020010151602001819052507f00000000000000000000000000000000000000000000000000000000000000008360018151811061189757fe5b60209081029190910101516001600160a01b03909116905260405163a9059cbb60e01b906118cb9086908590602401612098565b604051602081830303815290604052906001600160e01b0319166020820180516001600160e01b0383818316178352505050508360018151811061190b57fe5b6020026020010151602001819052506000866020015113156119575761195061194968056bc75e2d631000006108f4846706f05b59d3b20000611148565b8290611462565b9050611983565b61198061197968056bc75e2d631000006108f4846706f05b59d3b20000611148565b82906114ba565b90505b848360028151811061199157fe5b6020908102919091018101516001600160a01b039092169091528601516040516385f05ab560e01b916119c89184906024016121bd565b604051602081830303815290604052906001600160e01b0319166020820180516001600160e01b03838183161783525050505083600281518110611a0857fe5b60200260200101516020018190525050509392505050565b60408051808201909152600081526060602082015290565b6040518060c001604052806000815260200160008152602001600081526020016000815260200160008152602001600081525090565b805180151581146103cf57600080fd5b600082601f830112611a8e578081fd5b81356001600160401b03811115611aa157fe5b611ab4601f8201601f191660200161240f565b818152846020838601011115611ac8578283fd5b816020850160208301379081016020019190915292915050565b8051600f81900b81146103cf57600080fd5b80516001600160801b03811681146103cf57600080fd5b80516001600160401b03811681146103cf57600080fd5b803560ff811681146103cf57600080fd5b600060208284031215611b44578081fd5b81356103c681612432565b600060208284031215611b60578081fd5b81516103c681612432565b60008060408385031215611b7d578081fd5b8235611b8881612432565b91506020830135611b9881612432565b809150509250929050565b60008060008060608587031215611bb8578182fd5b8435611bc381612432565b93506020850135611bd381612432565b925060408501356001600160401b0380821115611bee578384fd5b818701915087601f830112611c01578384fd5b813581811115611c0f578485fd5b886020828501011115611c20578485fd5b95989497505060200194505050565b60008060008060808587031215611c44578384fd5b8435611c4f81612432565b93506020850135611c5f81612432565b9250604085013591506060850135611c7681612432565b939692955090935050565b600060208284031215611c92578081fd5b6103c682611a6e565b600060208284031215611cac578081fd5b5035919050565b600060208284031215611cc4578081fd5b81356001600160401b03811115611cd9578182fd5b610c3784828501611a7e565b60008060408385031215611cf7578182fd5b82356001600160401b03811115611d0c578283fd5b611d1885828601611a7e565b95602094909401359450505050565b600080600060608486031215611d3b578081fd5b83356001600160401b03811115611d50578182fd5b611d5c86828701611a7e565b9660208601359650604090950135949350505050565b60008060408385031215611d84578182fd5b82356001600160401b03811115611d99578283fd5b611da585828601611a7e565b925050611db460208401611b22565b90509250929050565b600080600060608486031215611dd1578081fd5b83356001600160401b03811115611de6578182fd5b611df286828701611a7e565b935050611e0160208501611b22565b9150604084013590509250925092565b600080600060608486031215611e25578081fd5b83356001600160401b03811115611e3a578182fd5b611e4686828701611a7e565b935050611e5560208501611b22565b9150611e6360408501611b22565b90509250925092565b6000610120808385031215611e7f578182fd5b611e888161240f565b9050611e9383611a6e565b8152611ea160208401611ae2565b6020820152611eb260408401611af4565b6040820152611ec360608401611af4565b6060820152611ed460808401611af4565b6080820152611ee560a08401611af4565b60a082015260c083015160c082015260e083015160e08201526101008084015181830152508091505092915050565b600060a08284031215611f25578081fd5b60405160a081018181106001600160401b0382111715611f4157fe5b604052611f4d83611b0b565b8152611f5b60208401611b0b565b6020820152611f6c60408401611af4565b6040820152611f7d60608401611af4565b6060820152611f8e60808401611ae2565b60808201529392505050565b600060208284031215611fab578081fd5b5051919050565b60008060408385031215611fc4578182fd5b82519150611db460208401611a6e565b60008060008060008060c08789031215611fec578384fd5b865195506020870151945060408701519350606087015192506080870151915060a0870151600e811061201d578182fd5b809150509295509295509295565b60008151808452815b8181101561205057602081850181015186830182015201612034565b818111156120615782602083870101525b50601f01601f19169290920160200192915050565b6003811061208057fe5b9052565b6001600160a01b0391909116815260200190565b6001600160a01b03929092168252602082015260400190565b60006060820160018060a01b03808716845260208681860152604060608187015283875180865260808801915060808482028901019550838901875b8281101561212e57898803607f19018452815180518816895286015186890186905261211b868a018261202b565b98505092850192908501906001016120ed565b50959b9a5050505050505050505050565b90815260200190565b6001600160e01b031991909116815260200190565b6000602082526103c6602083018461202b565b600f83900b8152604081016103c66020830184612076565b84815260208101849052608081016121a36040830185612076565b6001600160a01b0392909216606091909101529392505050565b91825260208201526060604082018190526042908201527f307834343438343534343437343530303030303030303030303030303030303060808201527f303030303030303030303030303030303030303030303030303030303030303060a082015261030360f41b60c082015260e00190565b60208082526016908201527521b0b73737ba1036b7b234b33c903837b9b4ba34b7b760511b604082015260600190565b6020808252601d908201527f63616e6e6f742072656d6f7665206e6f6e2d656d707479206173736574000000604082015260600190565b6020808252601990820152781c195c9c081d8c881b585c99da5b881a5cc81a5b9d985b1a59603a1b604082015260600190565b6020808252601c908201527b6d617267696e2077696c6c2062652062656c6f77206d696e696d756d60201b604082015260600190565b6020808252601d908201527f706572702076322066696c6c20707269636520697320696e76616c6964000000604082015260600190565b6020808252601c908201527b70657270207632207769746864726177616c20746f6f206c6172676560201b604082015260600190565b74506572707356324d61726b657453657474696e677360581b815260200190565b6020808252601f908201527f466565206973206d6f7265207468616e206d617267696e20706f7274696f6e00604082015260600190565b60208082526019908201527864656c61796564206f7264657220696e2070726f677265737360381b604082015260600190565b61ffff9290921682521515602082015260400190565b6040518181016001600160401b038111828210171561242a57fe5b604052919050565b6001600160a01b038116811461244757600080fd5b5056fe5369676e6564536166654d6174683a206469766973696f6e206f766572666c6f77536166654d6174683a206d756c7469706c69636174696f6e206f766572666c6f775369676e6564536166654d6174683a206d756c7469706c69636174696f6e206f766572666c6f77a2646970667358221220eb5ca239bb7559d3a7b41913cdb7a8c1315ff8a470cdfdfbebb9f3b854fe4dc564736f6c63430007060033",
  "linkReferences": {},
  "deployedLinkReferences": {}
}