{
  "_format": "hh-sol-artifact-1",
  "contractName": "AaveLendingPoolGuardV3L2Pool",
  "sourceName": "contracts/guards/contractGuards/AaveLendingPoolGuardV3L2Pool.sol",
  "abi": [
    {
      "inputs": [
        {
          "internalType": "address",
          "name": "_lendingPool",
          "type": "address"
        }
      ],
      "stateMutability": "nonpayable",
      "type": "constructor"
    },
    {
      "anonymous": false,
      "inputs": [
        {
          "indexed": false,
          "internalType": "address",
          "name": "fundAddress",
          "type": "address"
        },
        {
          "indexed": false,
          "internalType": "address",
          "name": "asset",
          "type": "address"
        },
        {
          "indexed": false,
          "internalType": "address",
          "name": "lendingPool",
          "type": "address"
        },
        {
          "indexed": false,
          "internalType": "uint256",
          "name": "amount",
          "type": "uint256"
        },
        {
          "indexed": false,
          "internalType": "uint256",
          "name": "time",
          "type": "uint256"
        }
      ],
      "name": "Borrow",
      "type": "event"
    },
    {
      "anonymous": false,
      "inputs": [
        {
          "indexed": false,
          "internalType": "address",
          "name": "fundAddress",
          "type": "address"
        },
        {
          "indexed": false,
          "internalType": "address",
          "name": "asset",
          "type": "address"
        },
        {
          "indexed": false,
          "internalType": "address",
          "name": "lendingPool",
          "type": "address"
        },
        {
          "indexed": false,
          "internalType": "uint256",
          "name": "amount",
          "type": "uint256"
        },
        {
          "indexed": false,
          "internalType": "uint256",
          "name": "time",
          "type": "uint256"
        }
      ],
      "name": "Deposit",
      "type": "event"
    },
    {
      "anonymous": false,
      "inputs": [
        {
          "indexed": false,
          "internalType": "address",
          "name": "fundAddress",
          "type": "address"
        },
        {
          "indexed": false,
          "internalType": "address",
          "name": "sourceAsset",
          "type": "address"
        },
        {
          "indexed": false,
          "internalType": "uint256",
          "name": "sourceAmount",
          "type": "uint256"
        },
        {
          "indexed": false,
          "internalType": "address",
          "name": "dstAsset",
          "type": "address"
        },
        {
          "indexed": false,
          "internalType": "uint256",
          "name": "time",
          "type": "uint256"
        }
      ],
      "name": "ExchangeFrom",
      "type": "event"
    },
    {
      "anonymous": false,
      "inputs": [
        {
          "indexed": false,
          "internalType": "address",
          "name": "fundAddress",
          "type": "address"
        },
        {
          "indexed": false,
          "internalType": "address",
          "name": "sourceAsset",
          "type": "address"
        },
        {
          "indexed": false,
          "internalType": "address",
          "name": "dstAsset",
          "type": "address"
        },
        {
          "indexed": false,
          "internalType": "uint256",
          "name": "dstAmount",
          "type": "uint256"
        },
        {
          "indexed": false,
          "internalType": "uint256",
          "name": "time",
          "type": "uint256"
        }
      ],
      "name": "ExchangeTo",
      "type": "event"
    },
    {
      "anonymous": false,
      "inputs": [
        {
          "indexed": false,
          "internalType": "address",
          "name": "fundAddress",
          "type": "address"
        },
        {
          "indexed": false,
          "internalType": "address",
          "name": "asset",
          "type": "address"
        }
      ],
      "name": "RebalanceStableBorrowRate",
      "type": "event"
    },
    {
      "anonymous": false,
      "inputs": [
        {
          "indexed": false,
          "internalType": "address",
          "name": "fundAddress",
          "type": "address"
        },
        {
          "indexed": false,
          "internalType": "address",
          "name": "asset",
          "type": "address"
        },
        {
          "indexed": false,
          "internalType": "address",
          "name": "lendingPool",
          "type": "address"
        },
        {
          "indexed": false,
          "internalType": "uint256",
          "name": "amount",
          "type": "uint256"
        },
        {
          "indexed": false,
          "internalType": "uint256",
          "name": "time",
          "type": "uint256"
        }
      ],
      "name": "Repay",
      "type": "event"
    },
    {
      "anonymous": false,
      "inputs": [
        {
          "indexed": false,
          "internalType": "address",
          "name": "fundAddress",
          "type": "address"
        },
        {
          "indexed": false,
          "internalType": "address",
          "name": "asset",
          "type": "address"
        },
        {
          "indexed": false,
          "internalType": "bool",
          "name": "useAsCollateral",
          "type": "bool"
        },
        {
          "indexed": false,
          "internalType": "uint256",
          "name": "time",
          "type": "uint256"
        }
      ],
      "name": "SetUserUseReserveAsCollateral",
      "type": "event"
    },
    {
      "anonymous": false,
      "inputs": [
        {
          "indexed": false,
          "internalType": "address",
          "name": "fundAddress",
          "type": "address"
        },
        {
          "indexed": false,
          "internalType": "address",
          "name": "asset",
          "type": "address"
        },
        {
          "indexed": false,
          "internalType": "uint256",
          "name": "rateMode",
          "type": "uint256"
        }
      ],
      "name": "SwapBorrowRateMode",
      "type": "event"
    },
    {
      "anonymous": false,
      "inputs": [
        {
          "indexed": false,
          "internalType": "address",
          "name": "fundAddress",
          "type": "address"
        },
        {
          "indexed": false,
          "internalType": "address",
          "name": "asset",
          "type": "address"
        },
        {
          "indexed": false,
          "internalType": "address",
          "name": "lendingPool",
          "type": "address"
        },
        {
          "indexed": false,
          "internalType": "uint256",
          "name": "amount",
          "type": "uint256"
        },
        {
          "indexed": false,
          "internalType": "uint256",
          "name": "time",
          "type": "uint256"
        }
      ],
      "name": "Withdraw",
      "type": "event"
    },
    {
      "inputs": [
        {
          "internalType": "bytes32",
          "name": "data",
          "type": "bytes32"
        }
      ],
      "name": "convert32toAddress",
      "outputs": [
        {
          "internalType": "address",
          "name": "o",
          "type": "address"
        }
      ],
      "stateMutability": "pure",
      "type": "function"
    },
    {
      "inputs": [
        {
          "internalType": "bytes",
          "name": "data",
          "type": "bytes"
        },
        {
          "internalType": "uint8",
          "name": "inputNum",
          "type": "uint8"
        },
        {
          "internalType": "uint8",
          "name": "arrayIndex",
          "type": "uint8"
        }
      ],
      "name": "getArrayIndex",
      "outputs": [
        {
          "internalType": "bytes32",
          "name": "",
          "type": "bytes32"
        }
      ],
      "stateMutability": "pure",
      "type": "function"
    },
    {
      "inputs": [
        {
          "internalType": "bytes",
          "name": "data",
          "type": "bytes"
        },
        {
          "internalType": "uint8",
          "name": "inputNum",
          "type": "uint8"
        }
      ],
      "name": "getArrayLast",
      "outputs": [
        {
          "internalType": "bytes32",
          "name": "",
          "type": "bytes32"
        }
      ],
      "stateMutability": "pure",
      "type": "function"
    },
    {
      "inputs": [
        {
          "internalType": "bytes",
          "name": "data",
          "type": "bytes"
        },
        {
          "internalType": "uint8",
          "name": "inputNum",
          "type": "uint8"
        }
      ],
      "name": "getArrayLength",
      "outputs": [
        {
          "internalType": "uint256",
          "name": "",
          "type": "uint256"
        }
      ],
      "stateMutability": "pure",
      "type": "function"
    },
    {
      "inputs": [
        {
          "internalType": "bytes",
          "name": "data",
          "type": "bytes"
        },
        {
          "internalType": "uint8",
          "name": "inputNum",
          "type": "uint8"
        },
        {
          "internalType": "uint256",
          "name": "offset",
          "type": "uint256"
        }
      ],
      "name": "getBytes",
      "outputs": [
        {
          "internalType": "bytes",
          "name": "",
          "type": "bytes"
        }
      ],
      "stateMutability": "pure",
      "type": "function"
    },
    {
      "inputs": [
        {
          "internalType": "bytes",
          "name": "data",
          "type": "bytes"
        },
        {
          "internalType": "uint8",
          "name": "inputNum",
          "type": "uint8"
        }
      ],
      "name": "getInput",
      "outputs": [
        {
          "internalType": "bytes32",
          "name": "",
          "type": "bytes32"
        }
      ],
      "stateMutability": "pure",
      "type": "function"
    },
    {
      "inputs": [
        {
          "internalType": "bytes",
          "name": "data",
          "type": "bytes"
        }
      ],
      "name": "getMethod",
      "outputs": [
        {
          "internalType": "bytes4",
          "name": "",
          "type": "bytes4"
        }
      ],
      "stateMutability": "pure",
      "type": "function"
    },
    {
      "inputs": [
        {
          "internalType": "bytes",
          "name": "data",
          "type": "bytes"
        }
      ],
      "name": "getParams",
      "outputs": [
        {
          "internalType": "bytes",
          "name": "",
          "type": "bytes"
        }
      ],
      "stateMutability": "pure",
      "type": "function"
    },
    {
      "inputs": [],
      "name": "lendingPool",
      "outputs": [
        {
          "internalType": "contract ILendingL2Pool",
          "name": "",
          "type": "address"
        }
      ],
      "stateMutability": "view",
      "type": "function"
    },
    {
      "inputs": [
        {
          "internalType": "bytes",
          "name": "data",
          "type": "bytes"
        },
        {
          "internalType": "uint256",
          "name": "offset",
          "type": "uint256"
        },
        {
          "internalType": "uint256",
          "name": "length",
          "type": "uint256"
        }
      ],
      "name": "read32",
      "outputs": [
        {
          "internalType": "bytes32",
          "name": "o",
          "type": "bytes32"
        }
      ],
      "stateMutability": "pure",
      "type": "function"
    },
    {
      "inputs": [
        {
          "internalType": "bytes",
          "name": "data",
          "type": "bytes"
        },
        {
          "internalType": "uint256",
          "name": "offset",
          "type": "uint256"
        }
      ],
      "name": "read4left",
      "outputs": [
        {
          "internalType": "bytes4",
          "name": "o",
          "type": "bytes4"
        }
      ],
      "stateMutability": "pure",
      "type": "function"
    },
    {
      "inputs": [
        {
          "internalType": "address",
          "name": "_poolManagerLogic",
          "type": "address"
        },
        {
          "internalType": "address",
          "name": "to",
          "type": "address"
        },
        {
          "internalType": "bytes",
          "name": "data",
          "type": "bytes"
        }
      ],
      "name": "txGuard",
      "outputs": [
        {
          "internalType": "uint16",
          "name": "txType",
          "type": "uint16"
        },
        {
          "internalType": "bool",
          "name": "isPublic",
          "type": "bool"
        }
      ],
      "stateMutability": "nonpayable",
      "type": "function"
    }
  ],
  "bytecode": "0x60806040523480156200001157600080fd5b50604051620037563803806200375683398101604081905262000034916200005a565b600080546001600160a01b0319166001600160a01b03929092169190911790556200008a565b6000602082840312156200006c578081fd5b81516001600160a01b038116811462000083578182fd5b9392505050565b6136bc806200009a6000396000f3fe608060405234801561001057600080fd5b50600436106100a45760003560e01c806309ff5c7d146100a95780631053f952146100d25780631eba3077146100f2578063293d80631461011257806341dc16c3146101325780636179309d14610145578063689015131461016657806382f86acc14610179578063998546e31461018c578063a59a99731461019f578063c3c6279f146101a7578063db896b57146101ba575b600080fd5b6100bc6100b73660046131d2565b6101cd565b6040516100c9919061338e565b60405180910390f35b6100e56100e0366004613214565b61025e565b6040516100c991906133ac565b6101056101003660046130e3565b6102f6565b6040516100c991906132dd565b610125610120366004613145565b6102fd565b6040516100c99190613397565b6100bc610140366004613268565b61035f565b610158610153366004612f5b565b61043d565b6040516100c9929190613635565b6100e5610174366004613113565b610978565b6100bc6101873660046131d2565b610999565b6100bc61019a3660046131d2565b6109b7565b6101056109e8565b6101256101b5366004613113565b6109f7565b6100bc6101c8366004613187565b610a04565b6000806101e5848460200260040160ff166020610a04565b905060006101f885600484016020610a04565b905080610241576040805162461bcd60e51b8152602060048201526012602482015271696e707574206973206e6f7420617272617960701b604482015290519081900360640190fd5b610255856020808402850160040190610a04565b95945050505050565b6060601482106102a6576040805162461bcd60e51b815260206004820152600e60248201526d1a5b9d985b1a59081bd9999cd95d60921b604482015290519081900360640190fd5b81602002915060006102c585848660200260040160ff16016020610a04565b905060006102da868584016004016020610a04565b90506102ec8660248487010183610a83565b9695505050505050565b805b919050565b60008160040183511015610356576040805162461bcd60e51b815260206004820152601b60248201527a52656164696e67206279746573206f7574206f6620626f756e647360281b604482015290519081900360640190fd5b50016020015190565b600080610377858560200260040160ff166020610a04565b9050600061038a86600484016020610a04565b9050806103d3576040805162461bcd60e51b8152602060048201526012602482015271696e707574206973206e6f7420617272617960701b604482015290519081900360640190fd5b60ff84168111610423576040805162461bcd60e51b815260206004820152601660248201527534b73b30b634b21030b93930bc903837b9b4ba34b7b760511b604482015290519081900360640190fd5b6102ec866020600160ff8816018102850160040190610a04565b600080600061048185858080601f0160208091040260200160405190810160405280939291908181526020018383808284376000920191909152506109f792505050565b90506000876001600160a01b03166339b81fd96040518163ffffffff1660e01b815260040160206040518083038186803b1580156104be57600080fd5b505afa1580156104d2573d6000803e3d6000fd5b505050506040513d601f19601f820116820180604052508101906104f69190612cf3565b90506000886001600160a01b031663c45a01556040518163ffffffff1660e01b815260040160206040518083038186803b15801561053357600080fd5b505afa158015610547573d6000803e3d6000fd5b505050506040513d601f19601f8201168201806040525081019061056b9190612cf3565b90506001600160e01b031983166303de9ce160e61b14156106065760006105c788888080601f01602080910402602001604051908101604052809392919081815260200183838082843760009201919091525061097892505050565b8060200190518101906105da91906130fb565b90506000806105e883610bd4565b50915091506105fc84868e8e86868b610c84565b975050505061096c565b6001600160e01b0319831663470cc4cf60e11b141561069457600061066088888080601f01602080910402602001604051908101604052809392919081815260200183838082843760009201919091525061097892505050565b80602001905181019061067391906130fb565b905060008061068183610f6a565b915091506105fc84868e8e86868b611018565b6001600160e01b03198316634d013f0360e01b14156107215760006106ee88888080601f01602080910402602001604051908101604052809392919081815260200183838082843760009201919091525061097892505050565b80602001905181019061070191906130fb565b905060008061070f836111cc565b915091506105fc84868e8e868661120c565b6001600160e01b03198316631abddb0d60e31b14156107b157600061077b88888080601f01602080910402602001604051908101604052809392919081815260200183838082843760009201919091525061097892505050565b80602001905181019061078e91906130fb565b905060008061079c836114b5565b5050915091506105fc84868e8e86868b611571565b6001600160e01b0319831663563dd61360e01b141561084057600061080b88888080601f01602080910402602001604051908101604052809392919081815260200183838082843760009201919091525061097892505050565b80602001905181019061081e91906130fb565b905060008061082c83611be5565b50915091506105fc84868e8e86868b611c44565b6001600160e01b03198316631fe3c6f360e01b14156108cd57600061089a88888080601f01602080910402602001604051908101604052809392919081815260200183838082843760009201919091525061097892505050565b8060200190518101906108ad91906130fb565b90506000806108bb83611f21565b915091506105fc84868e8e8686611f61565b6001600160e01b0319831663427da17760e01b141561095a57600061092788888080601f01602080910402602001604051908101604052809392919081815260200183838082843760009201919091525061097892505050565b80602001905181019061093a91906130fb565b9050600080610948836120b4565b915091506105fc84868e8e86866120f3565b61096689898989612275565b90955093505b50505094509492505050565b606061099360048084510384610a839092919063ffffffff16565b92915050565b60006109b0838360200260040160ff166020610a04565b9392505050565b6000806109cf848460200260040160ff166020610a04565b90506109e084600483016020610a04565b949350505050565b6000546001600160a01b031681565b60006109938260006102fd565b600081830184511015610a5c576040805162461bcd60e51b815260206004820152601b60248201527a52656164696e67206279746573206f7574206f6620626f756e647360281b604482015290519081900360640190fd5b826020018401519050816020038015610a7b576008810260020a820491505b509392505050565b60608182601f011015610ace576040805162461bcd60e51b815260206004820152600e60248201526d736c6963655f6f766572666c6f7760901b604482015290519081900360640190fd5b828284011015610b16576040805162461bcd60e51b815260206004820152600e60248201526d736c6963655f6f766572666c6f7760901b604482015290519081900360640190fd5b81830184511015610b62576040805162461bcd60e51b8152602060048201526011602482015270736c6963655f6f75744f66426f756e647360781b604482015290519081900360640190fd5b606082158015610b815760405191506000825260208201604052610bcb565b6040519150601f8416801560200281840101858101878315602002848b0101015b81831015610bba578051835260209283019201610ba2565b5050858452601f01601f1916604052505b50949350505050565b60008054604051635275179760e01b81528291829161ffff86811692601088901c6001600160801b031692609089901c909216916001600160a01b0390911690635275179790610c28908690600401613626565b60206040518083038186803b158015610c4057600080fd5b505afa158015610c54573d6000803e3d6000fd5b505050506040513d601f19601f82011682018060405250810190610c789190612cf3565b97919650945092505050565b60405163032c49ed60e01b815260009086906001600160a01b038a169063032c49ed90610cb59088906004016132dd565b60206040518083038186803b158015610ccd57600080fd5b505afa158015610ce1573d6000803e3d6000fd5b505050506040513d601f19601f82011682018060405250810190610d0591906132c3565b61ffff1660041480610d96575060405163032c49ed60e01b81526001600160a01b038a169063032c49ed90610d3e9088906004016132dd565b60206040518083038186803b158015610d5657600080fd5b505afa158015610d6a573d6000803e3d6000fd5b505050506040513d601f19601f82011682018060405250810190610d8e91906132c3565b61ffff16600e145b610dbb5760405162461bcd60e51b8152600401610db2906135f9565b60405180910390fd5b604051634df48c7360e11b81526001600160a01b03821690639be918e690610de79089906004016132dd565b60206040518083038186803b158015610dff57600080fd5b505afa158015610e13573d6000803e3d6000fd5b505050506040513d601f19601f82011682018060405250810190610e3791906130c9565b610e535760405162461bcd60e51b8152600401610db290613463565b604051634df48c7360e11b81526001600160a01b03821690639be918e690610e7f9088906004016132dd565b60206040518083038186803b158015610e9757600080fd5b505afa158015610eab573d6000803e3d6000fd5b505050506040513d601f19601f82011682018060405250810190610ecf91906130c9565b610eeb5760405162461bcd60e51b8152600401610db2906134e2565b876001600160a01b0316836001600160a01b031614610f1c5760405162461bcd60e51b8152600401610db2906134b3565b7f5fe47ed6d4225326d3303476197d782ded5a4e9c14f479dc9ec4992af4e85d598886888742604051610f5395949392919061330b565b60405180910390a150600998975050505050505050565b60008061ffff83166001600160801b03601085901c811690811415610f8e57506000195b600054604051635275179760e01b81526001600160a01b0390911690635275179790610fbe908590600401613626565b60206040518083038186803b158015610fd657600080fd5b505afa158015610fea573d6000803e3d6000fd5b505050506040513d601f19601f8201168201806040525081019061100e9190612cf3565b9350915050915091565b604051634df48c7360e11b815260009086906001600160a01b03821690639be918e6906110499089906004016132dd565b60206040518083038186803b15801561106157600080fd5b505afa158015611075573d6000803e3d6000fd5b505050506040513d601f19601f8201168201806040525081019061109991906130c9565b6110b55760405162461bcd60e51b8152600401610db290613463565b604051634df48c7360e11b81526001600160a01b03821690639be918e6906110e19088906004016132dd565b60206040518083038186803b1580156110f957600080fd5b505afa15801561110d573d6000803e3d6000fd5b505050506040513d601f19601f8201168201806040525081019061113191906130c9565b61114d5760405162461bcd60e51b8152600401610db2906133ff565b876001600160a01b0316836001600160a01b03161461117e5760405162461bcd60e51b8152600401610db2906134b3565b7ffbde797d201c681b91056529119e0b02407c7bb96a4a2c75c01fc9667232c8db88868887426040516111b595949392919061330b565b60405180910390a150600a98975050505050505050565b60008054604051635275179760e01b8152829161ffff851691601086901c600116916001600160a01b031690635275179790610fbe908590600401613626565b60405163032c49ed60e01b815260009085906001600160a01b0389169063032c49ed9061123d9087906004016132dd565b60206040518083038186803b15801561125557600080fd5b505afa158015611269573d6000803e3d6000fd5b505050506040513d601f19601f8201168201806040525081019061128d91906132c3565b61ffff166004148061131e575060405163032c49ed60e01b81526001600160a01b0389169063032c49ed906112c69087906004016132dd565b60206040518083038186803b1580156112de57600080fd5b505afa1580156112f2573d6000803e3d6000fd5b505050506040513d601f19601f8201168201806040525081019061131691906132c3565b61ffff16600e145b61133a5760405162461bcd60e51b8152600401610db290613570565b604051634df48c7360e11b81526001600160a01b03821690639be918e6906113669088906004016132dd565b60206040518083038186803b15801561137e57600080fd5b505afa158015611392573d6000803e3d6000fd5b505050506040513d601f19601f820116820180604052508101906113b691906130c9565b6113d25760405162461bcd60e51b8152600401610db290613463565b604051634df48c7360e11b81526001600160a01b03821690639be918e6906113fe9087906004016132dd565b60206040518083038186803b15801561141657600080fd5b505afa15801561142a573d6000803e3d6000fd5b505050506040513d601f19601f8201168201806040525081019061144e91906130c9565b61146a5760405162461bcd60e51b8152600401610db2906135ce565b7f181292cda292c2772583eda60ea1c30a312f4ca6ea1717bda3c4d4d602971f258785854260405161149f949392919061333f565b60405180910390a150600b979650505050505050565b60008054604051635275179760e01b815282918291829161ffff87811692601089901c6001600160801b03169260908a901c60ff169260988b901c16916001600160a01b0390911690635275179790611512908790600401613626565b60206040518083038186803b15801561152a57600080fd5b505afa15801561153e573d6000803e3d6000fd5b505050506040513d601f19601f820116820180604052508101906115629190612cf3565b99929850909650945092505050565b60405163032c49ed60e01b81526000906001600160a01b0389169063032c49ed906115a09087906004016132dd565b60206040518083038186803b1580156115b857600080fd5b505afa1580156115cc573d6000803e3d6000fd5b505050506040513d601f19601f820116820180604052508101906115f091906132c3565b61ffff1660041480611681575060405163032c49ed60e01b81526001600160a01b0389169063032c49ed906116299087906004016132dd565b60206040518083038186803b15801561164157600080fd5b505afa158015611655573d6000803e3d6000fd5b505050506040513d601f19601f8201168201806040525081019061167991906132c3565b61ffff16600e145b61169d5760405162461bcd60e51b8152600401610db290613570565b604051634df48c7360e11b81526001600160a01b03871690639be918e6906116c99088906004016132dd565b60206040518083038186803b1580156116e157600080fd5b505afa1580156116f5573d6000803e3d6000fd5b505050506040513d601f19601f8201168201806040525081019061171991906130c9565b6117355760405162461bcd60e51b8152600401610db290613463565b604051634df48c7360e11b81526001600160a01b03871690639be918e6906117619087906004016132dd565b60206040518083038186803b15801561177957600080fd5b505afa15801561178d573d6000803e3d6000fd5b505050506040513d601f19601f820116820180604052508101906117b191906130c9565b6117cd5760405162461bcd60e51b8152600401610db29061359c565b866001600160a01b0316826001600160a01b0316146117fe5760405162461bcd60e51b8152600401610db2906134b3565b6000866001600160a01b031663e5406dbf6040518163ffffffff1660e01b815260040160006040518083038186803b15801561183957600080fd5b505afa15801561184d573d6000803e3d6000fd5b505050506040513d6000823e601f3d908101601f191682016040526118759190810190612fe7565b90506000896001600160a01b031663795053d36040518163ffffffff1660e01b815260040160206040518083038186803b1580156118b257600080fd5b505afa1580156118c6573d6000803e3d6000fd5b505050506040513d601f19601f820116820180604052508101906118ea9190612cf3565b90506000816001600160a01b031663c2a9ffb16040518163ffffffff1660e01b81526004016119189061348d565b60206040518083038186803b15801561193057600080fd5b505afa158015611944573d6000803e3d6000fd5b505050506040513d601f19601f820116820180604052508101906119689190612cf3565b905060005b8351811015611b9457876001600160a01b031684828151811061198c57fe5b6020026020010151600001516001600160a01b031614156119ac57611b8c565b600080836001600160a01b031663d2493b6c8785815181106119ca57fe5b6020026020010151600001516040518263ffffffff1660e01b81526004016119f291906132dd565b60606040518083038186803b158015611a0a57600080fd5b505afa158015611a1e573d6000803e3d6000fd5b505050506040513d601f19601f82011682018060405250810190611a429190612f1a565b9093509150506001600160a01b0382161580611ad757506040516370a0823160e01b81526001600160a01b038316906370a0823190611a85908b906004016132dd565b60206040518083038186803b158015611a9d57600080fd5b505afa158015611ab1573d6000803e3d6000fd5b505050506040513d601f19601f82011682018060405250810190611ad591906130fb565b155b8015611b6d57506001600160a01b0381161580611b6d57506040516370a0823160e01b81526001600160a01b038216906370a0823190611b1b908b906004016132dd565b60206040518083038186803b158015611b3357600080fd5b505afa158015611b47573d6000803e3d6000fd5b505050506040513d601f19601f82011682018060405250810190611b6b91906130fb565b155b611b895760405162461bcd60e51b8152600401610db290613433565b50505b60010161196d565b507f96558a334f4759f0e7c423d68c84721860bd8fbf94ddc4e55158ecb125ad04b58a888a8942604051611bcc95949392919061330b565b60405180910390a150600c9a9950505050505050505050565b6000808061ffff84166001600160801b03601086901c81169060ff609088901c1690821415611c145760001991505b600054604051635275179760e01b81526001600160a01b0390911690635275179790610c28908690600401613626565b604051634df48c7360e11b815260009086906001600160a01b03821690639be918e690611c759089906004016132dd565b60206040518083038186803b158015611c8d57600080fd5b505afa158015611ca1573d6000803e3d6000fd5b505050506040513d601f19601f82011682018060405250810190611cc591906130c9565b611ce15760405162461bcd60e51b8152600401610db290613463565b604051634df48c7360e11b81526001600160a01b03821690639be918e690611d0d9088906004016132dd565b60206040518083038186803b158015611d2557600080fd5b505afa158015611d39573d6000803e3d6000fd5b505050506040513d601f19601f82011682018060405250810190611d5d91906130c9565b611d795760405162461bcd60e51b8152600401610db29061353f565b60405163032c49ed60e01b81526001600160a01b038a169063032c49ed90611da59088906004016132dd565b60206040518083038186803b158015611dbd57600080fd5b505afa158015611dd1573d6000803e3d6000fd5b505050506040513d601f19601f82011682018060405250810190611df591906132c3565b61ffff1660041480611e86575060405163032c49ed60e01b81526001600160a01b038a169063032c49ed90611e2e9088906004016132dd565b60206040518083038186803b158015611e4657600080fd5b505afa158015611e5a573d6000803e3d6000fd5b505050506040513d601f19601f82011682018060405250810190611e7e91906132c3565b61ffff16600e145b611ea25760405162461bcd60e51b8152600401610db290613570565b876001600160a01b0316836001600160a01b031614611ed35760405162461bcd60e51b8152600401610db2906134b3565b7f81cfb79463601de705d4cf6b8d69112983d76a685120e5e4d3581f30871b87fc8886888742604051611f0a95949392919061330b565b60405180910390a150600d98975050505050505050565b60008054604051635275179760e01b8152829161ffff851691601086901c60ff16916001600160a01b031690635275179790610fbe908590600401613626565b604051634df48c7360e11b81526000906001600160a01b03861690639be918e690611f909086906004016132dd565b60206040518083038186803b158015611fa857600080fd5b505afa158015611fbc573d6000803e3d6000fd5b505050506040513d601f19601f82011682018060405250810190611fe091906130c9565b611ffc5760405162461bcd60e51b8152600401610db2906135ce565b7fdc1756dba319cd9103bf89d14bdb5d8d6edbdc041bb7ef699e2e9bf7eafc0443856001600160a01b03166339b81fd96040518163ffffffff1660e01b815260040160206040518083038186803b15801561205657600080fd5b505afa15801561206a573d6000803e3d6000fd5b505050506040513d601f19601f8201168201806040525081019061208e9190612cf3565b848460405161209f9392919061336a565b60405180910390a150600e9695505050505050565b60008054604051635275179760e01b8152829161ffff8516916001600160a01b03601087901c8116921690635275179790610fbe908590600401613626565b604051634df48c7360e11b81526000906001600160a01b03861690639be918e6906121229086906004016132dd565b60206040518083038186803b15801561213a57600080fd5b505afa15801561214e573d6000803e3d6000fd5b505050506040513d601f19601f8201168201806040525081019061217291906130c9565b61218e5760405162461bcd60e51b8152600401610db2906135ce565b856001600160a01b0316826001600160a01b0316146121bf5760405162461bcd60e51b8152600401610db290613515565b7f9f439ae0c81e41a04d3fdfe07aed54e6a179fb0db15be7702eb66fa8ef6f5300856001600160a01b03166339b81fd96040518163ffffffff1660e01b815260040160206040518083038186803b15801561221957600080fd5b505afa15801561222d573d6000803e3d6000fd5b505050506040513d601f19601f820116820180604052508101906122519190612cf3565b846040516122609291906132f1565b60405180910390a150600f9695505050505050565b60008060006122b985858080601f0160208091040260200160405190810160405280939291908181526020018383808284376000920191909152506109f792505050565b90506000876001600160a01b03166339b81fd96040518163ffffffff1660e01b815260040160206040518083038186803b1580156122f657600080fd5b505afa15801561230a573d6000803e3d6000fd5b505050506040513d601f19601f8201168201806040525081019061232e9190612cf3565b90506000886001600160a01b031663c45a01556040518163ffffffff1660e01b815260040160206040518083038186803b15801561236b57600080fd5b505afa15801561237f573d6000803e3d6000fd5b505050506040513d601f19601f820116820180604052508101906123a39190612cf3565b90506001600160e01b0319831663617ba03760e01b141561242b5760008060006124028a8a8080601f01602080910402602001604051908101604052809392919081815260200183838082843760009201919091525061097892505050565b8060200190518101906124159190612deb565b509250925092506105fc84868e8e878787610c84565b6001600160e01b03198316630b6b65f560e21b14156124b55760008061248689898080601f01602080910402602001604051908101604052809392919081815260200183838082843760009201919091525061097892505050565b8060200190518101906124999190612e3c565b50915091506124ac83858d8d86866124c1565b9650505061096c565b6109668989898961276c565b604051634df48c7360e11b815260009085906001600160a01b03821690639be918e6906124f29088906004016132dd565b60206040518083038186803b15801561250a57600080fd5b505afa15801561251e573d6000803e3d6000fd5b505050506040513d601f19601f8201168201806040525081019061254291906130c9565b61255e5760405162461bcd60e51b8152600401610db290613463565b604051634df48c7360e11b81526001600160a01b03821690639be918e69061258a9087906004016132dd565b60206040518083038186803b1580156125a257600080fd5b505afa1580156125b6573d6000803e3d6000fd5b505050506040513d601f19601f820116820180604052508101906125da91906130c9565b6125f65760405162461bcd60e51b8152600401610db29061353f565b60405163032c49ed60e01b81526001600160a01b0389169063032c49ed906126229087906004016132dd565b60206040518083038186803b15801561263a57600080fd5b505afa15801561264e573d6000803e3d6000fd5b505050506040513d601f19601f8201168201806040525081019061267291906132c3565b61ffff1660041480612703575060405163032c49ed60e01b81526001600160a01b0389169063032c49ed906126ab9087906004016132dd565b60206040518083038186803b1580156126c357600080fd5b505afa1580156126d7573d6000803e3d6000fd5b505050506040513d601f19601f820116820180604052508101906126fb91906132c3565b61ffff16600e145b61271f5760405162461bcd60e51b8152600401610db290613570565b7f81cfb79463601de705d4cf6b8d69112983d76a685120e5e4d3581f30871b87fc878587864260405161275695949392919061330b565b60405180910390a150600d979650505050505050565b60008060006127b085858080601f0160208091040260200160405190810160405280939291908181526020018383808284376000920191909152506109f792505050565b90506000876001600160a01b03166339b81fd96040518163ffffffff1660e01b815260040160206040518083038186803b1580156127ed57600080fd5b505afa158015612801573d6000803e3d6000fd5b505050506040513d601f19601f820116820180604052508101906128259190612cf3565b90506000886001600160a01b031663c45a01556040518163ffffffff1660e01b815260040160206040518083038186803b15801561286257600080fd5b505afa158015612876573d6000803e3d6000fd5b505050506040513d601f19601f8201168201806040525081019061289a9190612cf3565b90506001600160e01b0319831663e8eda9df60e01b141561292c5760008060006128f98a8a8080601f01602080910402602001604051908101604052809392919081815260200183838082843760009201919091525061097892505050565b80602001905181019061290c9190612deb565b5092509250925061292284868e8e878787610c84565b9750505050612c4c565b6001600160e01b03198316631a4ca37b60e21b14156129b15760008060006129898a8a8080601f01602080910402602001604051908101604052809392919081815260200183838082843760009201919091525061097892505050565b80602001905181019061299c9190612da9565b92509250925061292284868e8e878787611018565b6001600160e01b03198316635a3b74b960e01b1415612a3a57600080612a0c89898080601f01602080910402602001604051908101604052809392919081815260200183838082843760009201919091525061097892505050565b806020019051810190612a1f9190612d48565b91509150612a3183858d8d868661120c565b96505050612c4c565b6001600160e01b0319831663a415bcad60e01b1415612ac1576000806000612a978a8a8080601f01602080910402602001604051908101604052809392919081815260200183838082843760009201919091525061097892505050565b806020019051810190612aaa9190612ebd565b945050509250925061292284868e8e878787611571565b6001600160e01b0319831663573ade8160e01b1415612b47576000806000612b1e8a8a8080601f01602080910402602001604051908101604052809392919081815260200183838082843760009201919091525061097892505050565b806020019051810190612b319190612e72565b9350509250925061292284868e8e878787611c44565b6001600160e01b03198316634a5d44d160e11b1415612bc757600080612ba289898080601f01602080910402602001604051908101604052809392919081815260200183838082843760009201919091525061097892505050565b806020019051810190612bb59190612d7c565b91509150612a3183858d8d8686611f61565b6001600160e01b0319831663668891c160e11b1415612c4c57600080612c2289898080601f01602080910402602001604051908101604052809392919081815260200183838082843760009201919091525061097892505050565b806020019051810190612c359190612d0f565b91509150612c4783858d8d86866120f3565b965050505b5060009250505094509492505050565b805180151581146102f857600080fd5b600082601f830112612c7c578081fd5b81356001600160401b03811115612c8f57fe5b612ca2601f8201601f191660200161364b565b818152846020838601011115612cb6578283fd5b816020850160208301379081016020019190915292915050565b805161ffff811681146102f857600080fd5b803560ff811681146102f857600080fd5b600060208284031215612d04578081fd5b81516109b08161366e565b60008060408385031215612d21578081fd5b8251612d2c8161366e565b6020840151909250612d3d8161366e565b809150509250929050565b60008060408385031215612d5a578182fd5b8251612d658161366e565b9150612d7360208401612c5c565b90509250929050565b60008060408385031215612d8e578182fd5b8251612d998161366e565b6020939093015192949293505050565b600080600060608486031215612dbd578081fd5b8351612dc88161366e565b602085015160408601519194509250612de08161366e565b809150509250925092565b60008060008060808587031215612e00578081fd5b8451612e0b8161366e565b602086015160408701519195509350612e238161366e565b9150612e3160608601612cd0565b905092959194509250565b600080600060608486031215612e50578283fd5b8351612e5b8161366e565b602085015160409095015190969495509392505050565b60008060008060808587031215612e87578384fd5b8451612e928161366e565b8094505060208501519250604085015191506060850151612eb28161366e565b939692955090935050565b600080600080600060a08688031215612ed4578283fd5b8551612edf8161366e565b6020870151604088015191965094509250612efc60608701612cd0565b91506080860151612f0c8161366e565b809150509295509295909350565b600080600060608486031215612f2e578081fd5b8351612f398161366e565b6020850151909350612f4a8161366e565b6040850151909250612de08161366e565b60008060008060608587031215612f70578182fd5b8435612f7b8161366e565b93506020850135612f8b8161366e565b925060408501356001600160401b0380821115612fa6578384fd5b818701915087601f830112612fb9578384fd5b813581811115612fc7578485fd5b886020828501011115612fd8578485fd5b95989497505060200194505050565b60006020808385031215612ff9578182fd5b82516001600160401b038082111561300f578384fd5b818501915085601f830112613022578384fd5b81518181111561302e57fe5b61303b848583020161364b565b818152848101908486016040808502870188018b1015613059578889fd5b8896505b848710156130ba5780828c031215613073578889fd5b8051818101818110888211171561308657fe5b825282516130938161366e565b81526130a0838a01612c5c565b818a0152845260019690960195928701929081019061305d565b50909998505050505050505050565b6000602082840312156130da578081fd5b6109b082612c5c565b6000602082840312156130f4578081fd5b5035919050565b60006020828403121561310c578081fd5b5051919050565b600060208284031215613124578081fd5b81356001600160401b03811115613139578182fd5b6109e084828501612c6c565b60008060408385031215613157578182fd5b82356001600160401b0381111561316c578283fd5b61317885828601612c6c565b95602094909401359450505050565b60008060006060848603121561319b578081fd5b83356001600160401b038111156131b0578182fd5b6131bc86828701612c6c565b9660208601359650604090950135949350505050565b600080604083850312156131e4578182fd5b82356001600160401b038111156131f9578283fd5b61320585828601612c6c565b925050612d7360208401612ce2565b600080600060608486031215613228578081fd5b83356001600160401b0381111561323d578182fd5b61324986828701612c6c565b93505061325860208501612ce2565b9150604084013590509250925092565b60008060006060848603121561327c578081fd5b83356001600160401b03811115613291578182fd5b61329d86828701612c6c565b9350506132ac60208501612ce2565b91506132ba60408501612ce2565b90509250925092565b6000602082840312156132d4578081fd5b6109b082612cd0565b6001600160a01b0391909116815260200190565b6001600160a01b0392831681529116602082015260400190565b6001600160a01b03958616815293851660208501529190931660408301526060820192909252608081019190915260a00190565b6001600160a01b03948516815292909316602083015215156040820152606081019190915260800190565b6001600160a01b039384168152919092166020820152604081019190915260600190565b90815260200190565b6001600160e01b031991909116815260200190565b6000602080835283518082850152825b818110156133d8578581018301518582016040015282016133bc565b818111156133e95783604083870101525b50601f01601f1916929092016040019392505050565b6020808252601a90820152791d5b9cdd5c1c1bdc9d1959081dda5d1a191c985dc8185cdcd95d60321b604082015260600190565b602080825260169082015275626f72726f77696e672061737365742065786973747360501b604082015260600190565b60208082526010908201526f18585d99481b9bdd08195b98589b195960821b604082015260600190565b796161766550726f746f636f6c4461746150726f7669646572563360301b815260200190565b6020808252601590820152741c9958da5c1a595b9d081a5cc81b9bdd081c1bdbdb605a1b604082015260600190565b6020808252601990820152781d5b9cdd5c1c1bdc9d19590819195c1bdcda5d08185cdcd95d603a1b604082015260600190565b60208082526010908201526f1d5cd95c881a5cc81b9bdd081c1bdbdb60821b604082015260600190565b6020808252601790820152761d5b9cdd5c1c1bdc9d1959081c995c185e48185cdcd95d604a1b604082015260600190565b6020808252601290820152711b9bdd08189bdc9c9bddc8195b98589b195960721b604082015260600190565b6020808252601890820152771d5b9cdd5c1c1bdc9d195908189bdc9c9bddc8185cdcd95d60421b604082015260600190565b6020808252601190820152701d5b9cdd5c1c1bdc9d195908185cdcd95d607a1b604082015260600190565b6020808252601390820152721b9bdd081b195b991a5b99c8195b98589b1959606a1b604082015260600190565b61ffff91909116815260200190565b61ffff9290921682521515602082015260400190565b6040518181016001600160401b038111828210171561366657fe5b604052919050565b6001600160a01b038116811461368357600080fd5b5056fea2646970667358221220126bc94b22bce8c6dad81c5ca9f668ea7f4ab61b13363d7708873414272a487164736f6c63430007060033",
  "linkReferences": {},
  "deployedLinkReferences": {}
}