{
  "_format": "hh-sol-artifact-1",
  "contractName": "VelodromeVariableLPAggregator",
  "sourceName": "contracts/priceAggregators/VelodromeVariableLPAggregator.sol",
  "abi": [
    {
      "inputs": [
        {
          "internalType": "address",
          "name": "_pair",
          "type": "address"
        },
        {
          "internalType": "address",
          "name": "_factory",
          "type": "address"
        }
      ],
      "stateMutability": "nonpayable",
      "type": "constructor"
    },
    {
      "inputs": [],
      "name": "decimals",
      "outputs": [
        {
          "internalType": "uint8",
          "name": "",
          "type": "uint8"
        }
      ],
      "stateMutability": "pure",
      "type": "function"
    },
    {
      "inputs": [],
      "name": "factory",
      "outputs": [
        {
          "internalType": "address",
          "name": "",
          "type": "address"
        }
      ],
      "stateMutability": "view",
      "type": "function"
    },
    {
      "inputs": [],
      "name": "latestRoundData",
      "outputs": [
        {
          "internalType": "uint80",
          "name": "",
          "type": "uint80"
        },
        {
          "internalType": "int256",
          "name": "",
          "type": "int256"
        },
        {
          "internalType": "uint256",
          "name": "",
          "type": "uint256"
        },
        {
          "internalType": "uint256",
          "name": "",
          "type": "uint256"
        },
        {
          "internalType": "uint80",
          "name": "",
          "type": "uint80"
        }
      ],
      "stateMutability": "view",
      "type": "function"
    },
    {
      "inputs": [],
      "name": "pair",
      "outputs": [
        {
          "internalType": "address",
          "name": "",
          "type": "address"
        }
      ],
      "stateMutability": "view",
      "type": "function"
    },
    {
      "inputs": [],
      "name": "token0",
      "outputs": [
        {
          "internalType": "address",
          "name": "",
          "type": "address"
        }
      ],
      "stateMutability": "view",
      "type": "function"
    },
    {
      "inputs": [],
      "name": "token1",
      "outputs": [
        {
          "internalType": "address",
          "name": "",
          "type": "address"
        }
      ],
      "stateMutability": "view",
      "type": "function"
    }
  ],
  "bytecode": "0x608060405234801561001057600080fd5b506040516109bf3803806109bf8339818101604052604081101561003357600080fd5b50805160209091015181816001600160a01b038216610099576040805162461bcd60e51b815260206004820152601960248201527f5f7061697220616464726573732063616e6e6f74206265203000000000000000604482015290519081900360640190fd5b6001600160a01b0381166100f4576040805162461bcd60e51b815260206004820152601c60248201527f5f666163746f727920616464726573732063616e6e6f74206265203000000000604482015290519081900360640190fd5b600080546001600160a01b0319166001600160a01b03848116919091179182905560408051630dfe168160e01b815290519290911691630dfe168191600480820192602092909190829003018186803b15801561015057600080fd5b505afa158015610164573d6000803e3d6000fd5b505050506040513d602081101561017a57600080fd5b5051600180546001600160a01b0319166001600160a01b039283161790556000546040805163d21220a760e01b81529051919092169163d21220a7916004808301926020929190829003018186803b1580156101d557600080fd5b505afa1580156101e9573d6000803e3d6000fd5b505050506040513d60208110156101ff57600080fd5b5051600280546001600160a01b039283166001600160a01b0319918216179091556003805493909216921691909117905550505061077d806102426000396000f3fe608060405234801561001057600080fd5b50600436106100625760003560e01c80630dfe168114610067578063313ce5671461008b578063a8aa1b31146100a9578063c45a0155146100b1578063d21220a7146100b9578063feaf968c146100c1575b600080fd5b61006f61010d565b604080516001600160a01b039092168252519081900360200190f35b61009361011c565b6040805160ff9092168252519081900360200190f35b61006f610121565b61006f610130565b61006f61013f565b6100c961014e565b60405180866001600160501b03168152602001858152602001848152602001838152602001826001600160501b031681526020019550505050505060405180910390f35b6001546001600160a01b031681565b600890565b6000546001600160a01b031681565b6003546001600160a01b031681565b6002546001600160a01b031681565b600080600080600080600061016161041b565b9150915060008060009054906101000a90046001600160a01b03166001600160a01b03166318160ddd6040518163ffffffff1660e01b815260040160206040518083038186803b1580156101b457600080fd5b505afa1580156101c8573d6000803e3d6000fd5b505050506040513d60208110156101de57600080fd5b50516000805460408051630240bc6b60e21b81529051939450919283926001600160a01b0390921691630902f1ac916004808301926060929190829003018186803b15801561022c57600080fd5b505afa158015610240573d6000803e3d6000fd5b505050506040513d606081101561025657600080fd5b5080516020918201516001546040805163313ce56760e01b815290516001600160701b0394851697509390921694506000936001600160a01b039091169263313ce567926004808201939291829003018186803b1580156102b657600080fd5b505afa1580156102ca573d6000803e3d6000fd5b505050506040513d60208110156102e057600080fd5b50516002546040805163313ce56760e01b8152905160ff90931693506000926001600160a01b039092169163313ce56791600480820192602092909190829003018186803b15801561033157600080fd5b505afa158015610345573d6000803e3d6000fd5b505050506040513d602081101561035b57600080fd5b505160ff169050610382600a83900a61037c86670de0b6b3a764000061051e565b90610580565b935061039e600a82900a61037c85670de0b6b3a764000061051e565b925060006103b46103af868661051e565b6105e4565b6001600160801b0316905060006103ce6103af8a8a61051e565b6001600160801b0316905060006103fb6402540be40061037c8a8160026103f5898961051e565b9061051e565b60009f509d508e9c50429b508c9a50505050505050505050509091929394565b6003546001546040805163b3596f0760e01b81526001600160a01b03928316600482015290516000938493169163b3596f07916024808301926020929190829003018186803b15801561046d57600080fd5b505afa158015610481573d6000803e3d6000fd5b505050506040513d602081101561049757600080fd5b50516003546002546040805163b3596f0760e01b81526001600160a01b0392831660048201529051919092169163b3596f07916024808301926020929190829003018186803b1580156104e957600080fd5b505afa1580156104fd573d6000803e3d6000fd5b505050506040513d602081101561051357600080fd5b505190925090509091565b60008261052d5750600061057a565b8282028284828161053a57fe5b04146105775760405162461bcd60e51b81526004018080602001828103825260218152602001806107276021913960400191505060405180910390fd5b90505b92915050565b60008082116105d3576040805162461bcd60e51b815260206004820152601a602482015279536166654d6174683a206469766973696f6e206279207a65726f60301b604482015290519081900360640190fd5b8183816105dc57fe5b049392505050565b6000816105f357506000610721565b816001600160801b821061060c5760809190911c9060401b5b600160401b82106106225760409190911c9060201b5b600160201b82106106385760209190911c9060101b5b62010000821061064d5760109190911c9060081b5b61010082106106615760089190911c9060041b5b601082106106745760049190911c9060021b5b600882106106805760011b5b600181858161068b57fe5b048201901c9050600181858161069d57fe5b048201901c905060018185816106af57fe5b048201901c905060018185816106c157fe5b048201901c905060018185816106d357fe5b048201901c905060018185816106e557fe5b048201901c905060018185816106f757fe5b048201901c9050600081858161070957fe5b049050808210610719578061071b565b815b93505050505b91905056fe536166654d6174683a206d756c7469706c69636174696f6e206f766572666c6f77a26469706673582212208c4bcc2ef1f3f22b4e40d4306c19a56a2bdab18b913aa3122620d7bb069bc2a164736f6c63430007060033",
  "linkReferences": {},
  "deployedLinkReferences": {}
}