{
  "_format": "hh-sol-artifact-1",
  "contractName": "PoolLogicV24",
  "sourceName": "contracts/v2.4.1/PoolLogicV24.sol",
  "abi": [
    {
      "anonymous": false,
      "inputs": [
        {
          "indexed": true,
          "internalType": "address",
          "name": "owner",
          "type": "address"
        },
        {
          "indexed": true,
          "internalType": "address",
          "name": "spender",
          "type": "address"
        },
        {
          "indexed": false,
          "internalType": "uint256",
          "name": "value",
          "type": "uint256"
        }
      ],
      "name": "Approval",
      "type": "event"
    },
    {
      "anonymous": false,
      "inputs": [
        {
          "indexed": false,
          "internalType": "address",
          "name": "fundAddress",
          "type": "address"
        },
        {
          "indexed": false,
          "internalType": "address",
          "name": "investor",
          "type": "address"
        },
        {
          "indexed": false,
          "internalType": "address",
          "name": "assetDeposited",
          "type": "address"
        },
        {
          "indexed": false,
          "internalType": "uint256",
          "name": "amountDeposited",
          "type": "uint256"
        },
        {
          "indexed": false,
          "internalType": "uint256",
          "name": "valueDeposited",
          "type": "uint256"
        },
        {
          "indexed": false,
          "internalType": "uint256",
          "name": "fundTokensReceived",
          "type": "uint256"
        },
        {
          "indexed": false,
          "internalType": "uint256",
          "name": "totalInvestorFundTokens",
          "type": "uint256"
        },
        {
          "indexed": false,
          "internalType": "uint256",
          "name": "fundValue",
          "type": "uint256"
        },
        {
          "indexed": false,
          "internalType": "uint256",
          "name": "totalSupply",
          "type": "uint256"
        },
        {
          "indexed": false,
          "internalType": "uint256",
          "name": "time",
          "type": "uint256"
        }
      ],
      "name": "Deposit",
      "type": "event"
    },
    {
      "anonymous": false,
      "inputs": [
        {
          "indexed": false,
          "internalType": "address",
          "name": "pool",
          "type": "address"
        },
        {
          "indexed": false,
          "internalType": "address",
          "name": "manager",
          "type": "address"
        },
        {
          "indexed": false,
          "internalType": "uint256",
          "name": "available",
          "type": "uint256"
        },
        {
          "indexed": false,
          "internalType": "uint256",
          "name": "daoFee",
          "type": "uint256"
        },
        {
          "indexed": false,
          "internalType": "uint256",
          "name": "managerFee",
          "type": "uint256"
        },
        {
          "indexed": false,
          "internalType": "uint256",
          "name": "tokenPriceAtLastFeeMint",
          "type": "uint256"
        }
      ],
      "name": "ManagerFeeMinted",
      "type": "event"
    },
    {
      "anonymous": false,
      "inputs": [
        {
          "indexed": false,
          "internalType": "address",
          "name": "poolManagerLogic",
          "type": "address"
        },
        {
          "indexed": false,
          "internalType": "address",
          "name": "from",
          "type": "address"
        }
      ],
      "name": "PoolManagerLogicSet",
      "type": "event"
    },
    {
      "anonymous": false,
      "inputs": [
        {
          "indexed": false,
          "internalType": "bool",
          "name": "isPoolPrivate",
          "type": "bool"
        }
      ],
      "name": "PoolPrivacyUpdated",
      "type": "event"
    },
    {
      "anonymous": false,
      "inputs": [
        {
          "indexed": false,
          "internalType": "address",
          "name": "pool",
          "type": "address"
        },
        {
          "indexed": false,
          "internalType": "address",
          "name": "manager",
          "type": "address"
        },
        {
          "indexed": false,
          "internalType": "uint16",
          "name": "transactionType",
          "type": "uint16"
        },
        {
          "indexed": false,
          "internalType": "uint256",
          "name": "time",
          "type": "uint256"
        }
      ],
      "name": "TransactionExecuted",
      "type": "event"
    },
    {
      "anonymous": false,
      "inputs": [
        {
          "indexed": true,
          "internalType": "address",
          "name": "from",
          "type": "address"
        },
        {
          "indexed": true,
          "internalType": "address",
          "name": "to",
          "type": "address"
        },
        {
          "indexed": false,
          "internalType": "uint256",
          "name": "value",
          "type": "uint256"
        }
      ],
      "name": "Transfer",
      "type": "event"
    },
    {
      "anonymous": false,
      "inputs": [
        {
          "indexed": false,
          "internalType": "address",
          "name": "fundAddress",
          "type": "address"
        },
        {
          "indexed": false,
          "internalType": "address",
          "name": "investor",
          "type": "address"
        },
        {
          "indexed": false,
          "internalType": "uint256",
          "name": "valueWithdrawn",
          "type": "uint256"
        },
        {
          "indexed": false,
          "internalType": "uint256",
          "name": "fundTokensWithdrawn",
          "type": "uint256"
        },
        {
          "indexed": false,
          "internalType": "uint256",
          "name": "totalInvestorFundTokens",
          "type": "uint256"
        },
        {
          "indexed": false,
          "internalType": "uint256",
          "name": "fundValue",
          "type": "uint256"
        },
        {
          "indexed": false,
          "internalType": "uint256",
          "name": "totalSupply",
          "type": "uint256"
        },
        {
          "components": [
            {
              "internalType": "address",
              "name": "asset",
              "type": "address"
            },
            {
              "internalType": "uint256",
              "name": "amount",
              "type": "uint256"
            },
            {
              "internalType": "bool",
              "name": "withdrawProcessed",
              "type": "bool"
            }
          ],
          "indexed": false,
          "internalType": "struct PoolLogicV24.WithdrawnAsset[]",
          "name": "withdrawnAssets",
          "type": "tuple[]"
        },
        {
          "indexed": false,
          "internalType": "uint256",
          "name": "time",
          "type": "uint256"
        }
      ],
      "name": "Withdrawal",
      "type": "event"
    },
    {
      "inputs": [
        {
          "internalType": "address",
          "name": "owner",
          "type": "address"
        },
        {
          "internalType": "address",
          "name": "spender",
          "type": "address"
        }
      ],
      "name": "allowance",
      "outputs": [
        {
          "internalType": "uint256",
          "name": "",
          "type": "uint256"
        }
      ],
      "stateMutability": "view",
      "type": "function"
    },
    {
      "inputs": [
        {
          "internalType": "address",
          "name": "spender",
          "type": "address"
        },
        {
          "internalType": "uint256",
          "name": "amount",
          "type": "uint256"
        }
      ],
      "name": "approve",
      "outputs": [
        {
          "internalType": "bool",
          "name": "",
          "type": "bool"
        }
      ],
      "stateMutability": "nonpayable",
      "type": "function"
    },
    {
      "inputs": [],
      "name": "availableManagerFee",
      "outputs": [
        {
          "internalType": "uint256",
          "name": "",
          "type": "uint256"
        }
      ],
      "stateMutability": "view",
      "type": "function"
    },
    {
      "inputs": [
        {
          "internalType": "address",
          "name": "account",
          "type": "address"
        }
      ],
      "name": "balanceOf",
      "outputs": [
        {
          "internalType": "uint256",
          "name": "",
          "type": "uint256"
        }
      ],
      "stateMutability": "view",
      "type": "function"
    },
    {
      "inputs": [],
      "name": "creationTime",
      "outputs": [
        {
          "internalType": "uint256",
          "name": "",
          "type": "uint256"
        }
      ],
      "stateMutability": "view",
      "type": "function"
    },
    {
      "inputs": [],
      "name": "creator",
      "outputs": [
        {
          "internalType": "address",
          "name": "",
          "type": "address"
        }
      ],
      "stateMutability": "view",
      "type": "function"
    },
    {
      "inputs": [],
      "name": "decimals",
      "outputs": [
        {
          "internalType": "uint8",
          "name": "",
          "type": "uint8"
        }
      ],
      "stateMutability": "view",
      "type": "function"
    },
    {
      "inputs": [
        {
          "internalType": "address",
          "name": "spender",
          "type": "address"
        },
        {
          "internalType": "uint256",
          "name": "subtractedValue",
          "type": "uint256"
        }
      ],
      "name": "decreaseAllowance",
      "outputs": [
        {
          "internalType": "bool",
          "name": "",
          "type": "bool"
        }
      ],
      "stateMutability": "nonpayable",
      "type": "function"
    },
    {
      "inputs": [
        {
          "internalType": "address",
          "name": "_asset",
          "type": "address"
        },
        {
          "internalType": "uint256",
          "name": "_amount",
          "type": "uint256"
        }
      ],
      "name": "deposit",
      "outputs": [
        {
          "internalType": "uint256",
          "name": "",
          "type": "uint256"
        }
      ],
      "stateMutability": "nonpayable",
      "type": "function"
    },
    {
      "inputs": [
        {
          "internalType": "address",
          "name": "to",
          "type": "address"
        },
        {
          "internalType": "bytes",
          "name": "data",
          "type": "bytes"
        }
      ],
      "name": "execTransaction",
      "outputs": [
        {
          "internalType": "bool",
          "name": "success",
          "type": "bool"
        }
      ],
      "stateMutability": "nonpayable",
      "type": "function"
    },
    {
      "inputs": [
        {
          "internalType": "address[]",
          "name": "assets",
          "type": "address[]"
        },
        {
          "internalType": "uint256[]",
          "name": "amounts",
          "type": "uint256[]"
        },
        {
          "internalType": "uint256[]",
          "name": "premiums",
          "type": "uint256[]"
        },
        {
          "internalType": "address",
          "name": "originator",
          "type": "address"
        },
        {
          "internalType": "bytes",
          "name": "params",
          "type": "bytes"
        }
      ],
      "name": "executeOperation",
      "outputs": [
        {
          "internalType": "bool",
          "name": "success",
          "type": "bool"
        }
      ],
      "stateMutability": "nonpayable",
      "type": "function"
    },
    {
      "inputs": [],
      "name": "factory",
      "outputs": [
        {
          "internalType": "address",
          "name": "",
          "type": "address"
        }
      ],
      "stateMutability": "view",
      "type": "function"
    },
    {
      "inputs": [],
      "name": "getExitCooldown",
      "outputs": [
        {
          "internalType": "uint256",
          "name": "",
          "type": "uint256"
        }
      ],
      "stateMutability": "view",
      "type": "function"
    },
    {
      "inputs": [
        {
          "internalType": "address",
          "name": "sender",
          "type": "address"
        }
      ],
      "name": "getExitRemainingCooldown",
      "outputs": [
        {
          "internalType": "uint256",
          "name": "",
          "type": "uint256"
        }
      ],
      "stateMutability": "view",
      "type": "function"
    },
    {
      "inputs": [],
      "name": "getFundSummary",
      "outputs": [
        {
          "internalType": "string",
          "name": "",
          "type": "string"
        },
        {
          "internalType": "uint256",
          "name": "",
          "type": "uint256"
        },
        {
          "internalType": "uint256",
          "name": "",
          "type": "uint256"
        },
        {
          "internalType": "address",
          "name": "",
          "type": "address"
        },
        {
          "internalType": "string",
          "name": "",
          "type": "string"
        },
        {
          "internalType": "uint256",
          "name": "",
          "type": "uint256"
        },
        {
          "internalType": "bool",
          "name": "",
          "type": "bool"
        },
        {
          "internalType": "uint256",
          "name": "",
          "type": "uint256"
        },
        {
          "internalType": "uint256",
          "name": "",
          "type": "uint256"
        }
      ],
      "stateMutability": "view",
      "type": "function"
    },
    {
      "inputs": [
        {
          "internalType": "address",
          "name": "spender",
          "type": "address"
        },
        {
          "internalType": "uint256",
          "name": "addedValue",
          "type": "uint256"
        }
      ],
      "name": "increaseAllowance",
      "outputs": [
        {
          "internalType": "bool",
          "name": "",
          "type": "bool"
        }
      ],
      "stateMutability": "nonpayable",
      "type": "function"
    },
    {
      "inputs": [
        {
          "internalType": "address",
          "name": "_factory",
          "type": "address"
        },
        {
          "internalType": "bool",
          "name": "_privatePool",
          "type": "bool"
        },
        {
          "internalType": "string",
          "name": "_fundName",
          "type": "string"
        },
        {
          "internalType": "string",
          "name": "_fundSymbol",
          "type": "string"
        }
      ],
      "name": "initialize",
      "outputs": [],
      "stateMutability": "nonpayable",
      "type": "function"
    },
    {
      "inputs": [
        {
          "internalType": "address",
          "name": "member",
          "type": "address"
        }
      ],
      "name": "isMemberAllowed",
      "outputs": [
        {
          "internalType": "bool",
          "name": "",
          "type": "bool"
        }
      ],
      "stateMutability": "view",
      "type": "function"
    },
    {
      "inputs": [
        {
          "internalType": "address",
          "name": "",
          "type": "address"
        }
      ],
      "name": "lastDeposit",
      "outputs": [
        {
          "internalType": "uint256",
          "name": "",
          "type": "uint256"
        }
      ],
      "stateMutability": "view",
      "type": "function"
    },
    {
      "inputs": [],
      "name": "managerName",
      "outputs": [
        {
          "internalType": "string",
          "name": "",
          "type": "string"
        }
      ],
      "stateMutability": "view",
      "type": "function"
    },
    {
      "inputs": [],
      "name": "mintManagerFee",
      "outputs": [],
      "stateMutability": "nonpayable",
      "type": "function"
    },
    {
      "inputs": [],
      "name": "name",
      "outputs": [
        {
          "internalType": "string",
          "name": "",
          "type": "string"
        }
      ],
      "stateMutability": "view",
      "type": "function"
    },
    {
      "inputs": [],
      "name": "poolManagerLogic",
      "outputs": [
        {
          "internalType": "address",
          "name": "",
          "type": "address"
        }
      ],
      "stateMutability": "view",
      "type": "function"
    },
    {
      "inputs": [],
      "name": "privatePool",
      "outputs": [
        {
          "internalType": "bool",
          "name": "",
          "type": "bool"
        }
      ],
      "stateMutability": "view",
      "type": "function"
    },
    {
      "inputs": [
        {
          "internalType": "address",
          "name": "_poolManagerLogic",
          "type": "address"
        }
      ],
      "name": "setPoolManagerLogic",
      "outputs": [
        {
          "internalType": "bool",
          "name": "",
          "type": "bool"
        }
      ],
      "stateMutability": "nonpayable",
      "type": "function"
    },
    {
      "inputs": [
        {
          "internalType": "bool",
          "name": "_privatePool",
          "type": "bool"
        }
      ],
      "name": "setPoolPrivate",
      "outputs": [],
      "stateMutability": "nonpayable",
      "type": "function"
    },
    {
      "inputs": [],
      "name": "symbol",
      "outputs": [
        {
          "internalType": "string",
          "name": "",
          "type": "string"
        }
      ],
      "stateMutability": "view",
      "type": "function"
    },
    {
      "inputs": [],
      "name": "tokenPrice",
      "outputs": [
        {
          "internalType": "uint256",
          "name": "",
          "type": "uint256"
        }
      ],
      "stateMutability": "view",
      "type": "function"
    },
    {
      "inputs": [],
      "name": "tokenPriceAtLastFeeMint",
      "outputs": [
        {
          "internalType": "uint256",
          "name": "",
          "type": "uint256"
        }
      ],
      "stateMutability": "view",
      "type": "function"
    },
    {
      "inputs": [],
      "name": "totalSupply",
      "outputs": [
        {
          "internalType": "uint256",
          "name": "",
          "type": "uint256"
        }
      ],
      "stateMutability": "view",
      "type": "function"
    },
    {
      "inputs": [
        {
          "internalType": "address",
          "name": "recipient",
          "type": "address"
        },
        {
          "internalType": "uint256",
          "name": "amount",
          "type": "uint256"
        }
      ],
      "name": "transfer",
      "outputs": [
        {
          "internalType": "bool",
          "name": "",
          "type": "bool"
        }
      ],
      "stateMutability": "nonpayable",
      "type": "function"
    },
    {
      "inputs": [
        {
          "internalType": "address",
          "name": "sender",
          "type": "address"
        },
        {
          "internalType": "address",
          "name": "recipient",
          "type": "address"
        },
        {
          "internalType": "uint256",
          "name": "amount",
          "type": "uint256"
        }
      ],
      "name": "transferFrom",
      "outputs": [
        {
          "internalType": "bool",
          "name": "",
          "type": "bool"
        }
      ],
      "stateMutability": "nonpayable",
      "type": "function"
    },
    {
      "inputs": [
        {
          "internalType": "uint256",
          "name": "_fundTokenAmount",
          "type": "uint256"
        }
      ],
      "name": "withdraw",
      "outputs": [],
      "stateMutability": "nonpayable",
      "type": "function"
    }
  ],
  "bytecode": "0x608060405234801561001057600080fd5b5061433a806100206000396000f3fe608060405234801561001057600080fd5b506004361061019b5760003560e01c806370a08231116100ea57806370a08231146102d9578063750226de146102ec5780637714f39d146102ff5780637ae7cfb5146103075780637ff9b5961461031a578063920f5c841461032257806395d89b4114610335578063a457c2d71461033d578063a9059cbb14610350578063b8ea2b6e14610363578063bbbf725b14610376578063c45a015514610389578063cc3c6df614610391578063d8270dce14610399578063dd62ed3e146103a1578063edbf6f50146103b4578063fed4416a146103bc5761019b565b806302d05d3f146101a057806306fdde03146101be578063095ea7b3146101d357806318160ddd146101f35780631c5918d2146102085780631e50a4a61461022557806323b872dd1461022d57806329d16ee8146102405780632e1a7d4d14610253578063313ce56714610268578063395093511461027d5780633babaad5146102905780634501b088146102a357806347e7ef24146102ab5780635426f81d146102be57806359b5e75e146102d1575b600080fd5b6101a86103c4565b6040516101b59190613926565b60405180910390f35b6101c66103d8565b6040516101b59190613bf5565b6101e66101e1366004613477565b61046f565b6040516101b59190613bea565b6101fb61048d565b6040516101b59190614086565b610210610493565b6040516101b599989796959493929190613c08565b6101a8610609565b6101e661023b366004613365565b610618565b6101fb61024e3660046132f5565b6106a0565b610266610261366004613851565b6106b2565b005b610270610ace565b6040516101b5919061408f565b6101e661028b366004613477565b610ad7565b61026661029e3660046137b2565b610b25565b6101fb610b92565b6101fb6102b9366004613477565b610c14565b6102666102cc3660046133a5565b610f8d565b6101e66110b6565b6101fb6102e73660046132f5565b6110bf565b6101e66102fa3660046132f5565b6110de565b6101fb61122e565b6101e661031536600461342a565b611234565b6101fb6116f5565b6101e66103303660046134f9565b61179d565b6101c6611a75565b6101e661034b366004613477565b611ad6565b6101e661035e366004613477565b611b3e565b6101fb6103713660046132f5565b611b52565b6101e66103843660046132f5565b611bab565b6101a8611c2c565b610266611c3b565b6101fb611ce6565b6101fb6103af36600461332d565b611cec565b6101fb611d17565b6101c6611e4a565b60975461010090046001600160a01b031681565b60368054604080516020601f60026000196101006001881615020190951694909404938401819004810282018101909252828152606093909290918301828280156104645780601f1061043957610100808354040283529160200191610464565b820191906000526020600020905b81548152906001019060200180831161044757829003601f168201915b505050505090505b90565b600061048361047c611ecb565b8484611ecf565b5060015b92915050565b60355490565b606060008060006060600080600080600080609c60009054906101000a90046001600160a01b03166001600160a01b031663198055386040518163ffffffff1660e01b8152600401604080518083038186803b1580156104f257600080fd5b505afa158015610506573d6000803e3d6000fd5b505050506040513d601f19601f8201168201806040525081019061052a9190613881565b90925090506105376103d8565b61053f61048d565b609c60009054906101000a90046001600160a01b03166001600160a01b031663ad60ffcc6040518163ffffffff1660e01b815260040160206040518083038186803b15801561058d57600080fd5b505afa1580156105a1573d6000803e3d6000fd5b505050506040513d601f19601f820116820180604052508101906105c59190613869565b6105cd611fbb565b6105d5611e4a565b609854609760009054906101000a900460ff1688889a509a509a509a509a509a509a509a509a505050909192939495969798565b609c546001600160a01b031681565b6000610625848484612038565b61069584610631611ecb565b6106908560405180606001604052806028815260200161422e602891396001600160a01b038a1660009081526034602052604081209061066f611ecb565b6001600160a01b031681526020810191909152604001600020549190612183565b611ecf565b5060015b9392505050565b609b6020526000908152604090205481565b6002606554141561070a576040805162461bcd60e51b815260206004820152601f60248201527f5265656e7472616e637947756172643a207265656e7472616e742063616c6c00604482015290519081900360640190fd5b6002606555609954604080516358c3de9360e11b815290516001600160a01b039092169163b187bd2691600480820192602092909190829003018186803b15801561075457600080fd5b505afa158015610768573d6000803e3d6000fd5b505050506040513d601f19601f8201168201806040525081019061078c91906137ce565b156107b25760405162461bcd60e51b81526004016107a990614007565b60405180910390fd5b806107bc336110bf565b10156107da5760405162461bcd60e51b81526004016107a990613ee2565b6107e333611b52565b156108005760405162461bcd60e51b81526004016107a990613d6d565b600061080a61221a565b9050600061083161081961048d565b61082b85670de0b6b3a76400006124f8565b90612551565b905061083d33846125b5565b609c546040805163e5406dbf60e01b815290516000926001600160a01b03169163e5406dbf9160048083019286929190829003018186803b15801561088157600080fd5b505afa158015610895573d6000803e3d6000fd5b505050506040513d6000823e601f3d908101601f191682016040526108bd9190810190613610565b80519091506000816001600160401b03811180156108da57600080fd5b5060405190808252806020026020018201604052801561091457816020015b610901613078565b8152602001906001900390816108f95790505b5090506000805b83811015610a2b57600080600061094a88858151811061093757fe5b602002602001015160000151338b61269f565b919450925090508115610a205760405163a9059cbb60e01b81526001600160a01b0384169063a9059cbb90610985903390869060040161395e565b602060405180830381600087803b15801561099f57600080fd5b505af11580156109b3573d6000803e3d6000fd5b505050506040513d601f19601f820116820180604052508101906109d791906137ce565b506040518060600160405280846001600160a01b03168152602001838152602001821515815250868661ffff1681518110610a0e57fe5b60209081029190910101526001909401935b50505060010161091b565b506000610a3c8461ffff84166129ef565b8351819003845290506000610a5d670de0b6b3a764000061082b898b6124f8565b90507ffad3d7f9ed107ffa7fc8ce8baa521effc3650ec48a4d1dd36bdb9c4b91db12953033838c610a8d336110bf565b610a978e886129ef565b610a9f61048d565b8b42604051610ab6999897969594939291906139e7565b60405180910390a15050600160655550505050505050565b60385460ff1690565b6000610483610ae4611ecb565b846106908560346000610af5611ecb565b6001600160a01b03908116825260208083019390935260409182016000908120918c168152925290205490612a4c565b610b2d611fbb565b6001600160a01b0316336001600160a01b031614610b5d5760405162461bcd60e51b81526004016107a990613dc6565b60975460ff1615158115151415610b865760405162461bcd60e51b81526004016107a990613d96565b610b8f81612aa4565b50565b609954604080516308a0361160e31b815290516000926001600160a01b031691634501b088916004808301926020929190829003018186803b158015610bd757600080fd5b505afa158015610beb573d6000803e3d6000fd5b505050506040513d601f19601f82011682018060405250810190610c0f9190613869565b905090565b6000610c1e611fbb565b6001600160a01b0316336001600160a01b03161480610c40575060975460ff16155b80610c4f5750610c4f33611bab565b610c6b5760405162461bcd60e51b81526004016107a990613d12565b609960009054906101000a90046001600160a01b03166001600160a01b031663b187bd266040518163ffffffff1660e01b815260040160206040518083038186803b158015610cb957600080fd5b505afa158015610ccd573d6000803e3d6000fd5b505050506040513d601f19601f82011682018060405250810190610cf191906137ce565b15610d0e5760405162461bcd60e51b81526004016107a990614007565b609c5460405163bdbef07d60e01b81526001600160a01b039091169063bdbef07d90610d3e908690600401613926565b60206040518083038186803b158015610d5657600080fd5b505afa158015610d6a573d6000803e3d6000fd5b505050506040513d601f19601f82011682018060405250810190610d8e91906137ce565b610daa5760405162461bcd60e51b81526004016107a990613f10565b336000908152609b60205260408120429055610dc461221a565b90506000610dd061048d565b6040516323b872dd60e01b81529091506001600160a01b038616906323b872dd90610e039033903090899060040161393a565b602060405180830381600087803b158015610e1d57600080fd5b505af1158015610e31573d6000803e3d6000fd5b505050506040513d601f19601f82011682018060405250810190610e5591906137ce565b610e715760405162461bcd60e51b81526004016107a990613e21565b609c546040516314e03fdd60e11b81526000916001600160a01b0316906329c07fba90610ea4908990899060040161395e565b60206040518083038186803b158015610ebc57600080fd5b505afa158015610ed0573d6000803e3d6000fd5b505050506040513d601f19601f82011682018060405250810190610ef49190613869565b905060008215610f1357610f0c8461082b84866124f8565b9050610f16565b50805b610f203382612aed565b7f97e6c213c123075e233a6f2323f33d8319141b993ab05e9e2f7eb2eda08cb944303389898686610f50336110bf565b610f5a8c8b612a4c565b610f648c8b612a4c565b42604051610f7b9a99989796959493929190613991565b60405180910390a19695505050505050565b600054610100900460ff1680610fa65750610fa6612bcd565b80610fb4575060005460ff16155b610fef5760405162461bcd60e51b815260040180806020018281038252602e8152602001806141df602e913960400191505060405180910390fd5b600054610100900460ff1615801561101a576000805460ff1961ff0019909116610100171660011790555b6001600160a01b0385166110405760405162461bcd60e51b81526004016107a990613f3f565b61104a8383612bde565b611052612c94565b609980546001600160a01b0319166001600160a01b03871617905561107684612aa4565b60978054610100600160a81b031916336101000217905542609855670de0b6b3a7640000609a5580156110af576000805461ff00191690555b5050505050565b60975460ff1681565b6001600160a01b0381166000908152603360205260409020545b919050565b60006001600160a01b0382166111065760405162461bcd60e51b81526004016107a990613caa565b6099546001600160a01b03163314806111b55750609960009054906101000a90046001600160a01b03166001600160a01b0316638da5cb5b6040518163ffffffff1660e01b815260040160206040518083038186803b15801561116857600080fd5b505afa15801561117c573d6000803e3d6000fd5b505050506040513d601f19601f820116820180604052508101906111a09190613311565b6001600160a01b0316336001600160a01b0316145b6111d15760405162461bcd60e51b81526004016107a990613ead565b609c80546001600160a01b0319166001600160a01b0384161790556040517f63fb64c359a4cae97e1bf003c1ab11390b5f0e18cc5b3d67b90bd61c0f5c52fd9061121e9084903390613977565b60405180910390a1506001919050565b609a5481565b600061123e611fbb565b6001600160a01b0316336001600160a01b031614806112755750611260612d3d565b6001600160a01b0316336001600160a01b0316145b6112915760405162461bcd60e51b81526004016107a990613e50565b600260655414156112e9576040805162461bcd60e51b815260206004820152601f60248201527f5265656e7472616e637947756172643a207265656e7472616e742063616c6c00604482015290519081900360640190fd5b6002606555609954604080516358c3de9360e11b815290516001600160a01b039092169163b187bd2691600480820192602092909190829003018186803b15801561133357600080fd5b505afa158015611347573d6000803e3d6000fd5b505050506040513d601f19601f8201168201806040525081019061136b91906137ce565b156113885760405162461bcd60e51b81526004016107a990614007565b6001600160a01b0383166113ae5760405162461bcd60e51b81526004016107a990613f9c565b609954604051631c09fa9b60e21b81526000916001600160a01b031690637027ea6c906113df908790600401613926565b60206040518083038186803b1580156113f757600080fd5b505afa15801561140b573d6000803e3d6000fd5b505050506040513d601f19601f8201168201806040525081019061142f9190613311565b90506001600160a01b0381166114575760405162461bcd60e51b81526004016107a990613e80565b60995460405163cc435bf360e01b81526001600160a01b039091169063cc435bf390611487908790600401613926565b60206040518083038186803b15801561149f57600080fd5b505afa1580156114b3573d6000803e3d6000fd5b505050506040513d601f19601f820116820180604052508101906114d791906137ce565b1561157857609c54604051634df48c7360e11b81526001600160a01b0390911690639be918e69061150c908790600401613926565b60206040518083038186803b15801561152457600080fd5b505afa158015611538573d6000803e3d6000fd5b505050506040513d601f19601f8201168201806040525081019061155c91906137ce565b6115785760405162461bcd60e51b81526004016107a990613cdf565b609c54604051636179309d60e01b81526000916001600160a01b0380851692636179309d926115af92169089908990600401613a90565b602060405180830381600087803b1580156115c957600080fd5b505af11580156115dd573d6000803e3d6000fd5b505050506040513d601f19601f82011682018060405250810190611601919061382f565b905060008161ffff16116116275760405162461bcd60e51b81526004016107a990613d40565b846001600160a01b03168460405161163f919061390a565b6000604051808303816000865af19150503d806000811461167c576040519150601f19603f3d011682016040523d82523d6000602084013e611681565b606091505b505080935050826116a45760405162461bcd60e51b81526004016107a990613f68565b7f14464fb67b1871a79e726fa7af525f8fff56e9e5649d511e47f3a357ae31d207306116ce611fbb565b83426040516116e09493929190613abc565b60405180910390a15050600160655592915050565b600080609c60009054906101000a90046001600160a01b03166001600160a01b031663ad60ffcc6040518163ffffffff1660e01b815260040160206040518083038186803b15801561174657600080fd5b505afa15801561175a573d6000803e3d6000fd5b505050506040513d601f19601f8201168201806040525081019061177e9190613869565b9050600061178a61048d565b90506117968282612d82565b9250505090565b60006001600160a01b03831630146117c75760405162461bcd60e51b81526004016107a990613dec565b609954604051633f30232f60e21b81526000916001600160a01b03169063fcc08cbc906117f8903390600401613926565b60206040518083038186803b15801561181057600080fd5b505afa158015611824573d6000803e3d6000fd5b505050506040513d601f19601f820116820180604052508101906118489190613311565b90506001600160a01b038116158015906118e35750806001600160a01b031663e9d337b86040518163ffffffff1660e01b815260040160206040518083038186803b15801561189657600080fd5b505afa1580156118aa573d6000803e3d6000fd5b505050506040513d601f19601f820116820180604052508101906118ce9190613311565b6001600160a01b0316336001600160a01b0316145b6118ff5760405162461bcd60e51b81526004016107a990614058565b60008084806020019051810190611916919061371b565b915091506000836001600160a01b031663952bfb1630848d8d8d896040518763ffffffff1660e01b815260040161195296959493929190613b4a565b60006040518083038186803b15801561196a57600080fd5b505afa15801561197e573d6000803e3d6000fd5b505050506040513d6000823e601f3d908101601f191682016040526119a691908101906136e9565b905060005b8151811015611a67578181815181106119c057fe5b6020026020010151600001516001600160a01b03168282815181106119e157fe5b6020026020010151602001516040516119fa919061390a565b6000604051808303816000865af19150503d8060008114611a37576040519150601f19603f3d011682016040523d82523d6000602084013e611a3c565b606091505b50508096505085611a5f5760405162461bcd60e51b81526004016107a990613fd2565b6001016119ab565b505050505095945050505050565b60378054604080516020601f60026000196101006001881615020190951694909404938401819004810282018101909252828152606093909290918301828280156104645780601f1061043957610100808354040283529160200191610464565b6000610483611ae3611ecb565b84610690856040518060600160405280602581526020016142e06025913960346000611b0d611ecb565b6001600160a01b03908116825260208083019390935260409182016000908120918d16815292529020549190612183565b6000610483611b4b611ecb565b8484612038565b600080611b5d610b92565b6001600160a01b0384166000908152609b602052604081205491925090611b849083612a4c565b905042811015611b99576000925050506110d9565b611ba381426129ef565b949350505050565b609c5460405163bbbf725b60e01b81526000916001600160a01b03169063bbbf725b90611bdc908590600401613926565b60206040518083038186803b158015611bf457600080fd5b505afa158015611c08573d6000803e3d6000fd5b505050506040513d601f19601f8201168201806040525081019061048791906137ce565b6099546001600160a01b031681565b609960009054906101000a90046001600160a01b03166001600160a01b031663b187bd266040518163ffffffff1660e01b815260040160206040518083038186803b158015611c8957600080fd5b505afa158015611c9d573d6000803e3d6000fd5b505050506040513d601f19601f82011682018060405250810190611cc191906137ce565b15611cde5760405162461bcd60e51b81526004016107a990614007565b610b8f61221a565b60985481565b6001600160a01b03918216600090815260346020908152604080832093909416825291909152205490565b600080609c60009054906101000a90046001600160a01b03166001600160a01b031663ad60ffcc6040518163ffffffff1660e01b815260040160206040518083038186803b158015611d6857600080fd5b505afa158015611d7c573d6000803e3d6000fd5b505050506040513d601f19601f82011682018060405250810190611da09190613869565b90506000611dac61048d565b609c54604080516303300aa760e31b8152815193945060009384936001600160a01b03169263198055389260048082019391829003018186803b158015611df257600080fd5b505afa158015611e06573d6000803e3d6000fd5b505050506040513d601f19601f82011682018060405250810190611e2a9190613881565b8092508193505050611e418484609a548585612db2565b94505050505090565b609c5460408051637f6a20b560e11b815290516060926001600160a01b03169163fed4416a916004808301926000929190829003018186803b158015611e8f57600080fd5b505afa158015611ea3573d6000803e3d6000fd5b505050506040513d6000823e601f3d908101601f19168201604052610c0f91908101906137ea565b3390565b6001600160a01b038316611f145760405162461bcd60e51b81526004018080602001828103825260248152602001806142bc6024913960400191505060405180910390fd5b6001600160a01b038216611f595760405162461bcd60e51b81526004018080602001828103825260228152602001806141976022913960400191505060405180910390fd5b6001600160a01b03808416600081815260346020908152604080832094871680845294825291829020859055815185815291517f8c5be1e5ebec7d5bd14f71427d1e84f3dd0314c0f7b2291e5b200ac8c7c3b9259281900390910190a3505050565b609c546040805163481c6a7560e01b815290516000926001600160a01b03169163481c6a75916004808301926020929190829003018186803b15801561200057600080fd5b505afa158015612014573d6000803e3d6000fd5b505050506040513d601f19601f82011682018060405250810190610c0f9190613311565b6001600160a01b03831661207d5760405162461bcd60e51b81526004018080602001828103825260258152602001806142976025913960400191505060405180910390fd5b6001600160a01b0382166120c25760405162461bcd60e51b81526004018080602001828103825260238152602001806141526023913960400191505060405180910390fd5b6120cd838383612e23565b61210a816040518060600160405280602681526020016141b9602691396001600160a01b0386166000908152603360205260409020549190612183565b6001600160a01b0380851660009081526033602052604080822093909355908416815220546121399082612a4c565b6001600160a01b03808416600081815260336020908152604091829020949094558051858152905191939287169260008051602061425683398151915292918290030190a3505050565b600081848411156122125760405162461bcd60e51b81526004018080602001828103825283818151815260200191508051906020019080838360005b838110156121d75781810151838201526020016121bf565b50505050905090810190601f1680156122045780820380516001836020036101000a031916815260200191505b509250505060405180910390fd5b505050900390565b609c5460408051632b583ff360e21b815290516000926001600160a01b03169163ad60ffcc916004808301926020929190829003018186803b15801561225f57600080fd5b505afa158015612273573d6000803e3d6000fd5b505050506040513d601f19601f820116820180604052508101906122979190613869565b905060006122a361048d565b609c54604080516303300aa760e31b8152815193945060009384936001600160a01b03169263198055389260048082019391829003018186803b1580156122e957600080fd5b505afa1580156122fd573d6000803e3d6000fd5b505050506040513d601f19601f820116820180604052508101906123219190613881565b8092508193505050600061233a8585609a548686612db2565b905061271081101561234f575050505061046c565b60995460408051638da5cb5b60e01b815290516000926001600160a01b031691638da5cb5b916004808301926020929190829003018186803b15801561239457600080fd5b505afa1580156123a8573d6000803e3d6000fd5b505050506040513d601f19601f820116820180604052508101906123cc9190613311565b6099546040805163272b69b960e21b8152815193945060009384936001600160a01b031692639cada6e49260048082019391829003018186803b15801561241257600080fd5b505afa158015612426573d6000803e3d6000fd5b505050506040513d601f19601f8201168201806040525081019061244a9190613881565b9092509050600061245f8261082b87866124f8565b9050600061246d86836129ef565b9050811561247f5761247f8583612aed565b801561249657612496612490611fbb565b82612aed565b6124a08a8a612d82565b609a557f755a8059d66d8d243bc9f6913f429a811f154599d0538bb0b6a2ac23f23d2ccd306124cd611fbb565b609a546040516124e49392918b9188918891613b14565b60405180910390a150505050505050505090565b60008261250757506000610487565b8282028284828161251457fe5b04146106995760405162461bcd60e51b815260040180806020018281038252602181526020018061420d6021913960400191505060405180910390fd5b60008082116125a4576040805162461bcd60e51b815260206004820152601a602482015279536166654d6174683a206469766973696f6e206279207a65726f60301b604482015290519081900360640190fd5b8183816125ad57fe5b049392505050565b6001600160a01b0382166125fa5760405162461bcd60e51b81526004018080602001828103825260218152602001806142766021913960400191505060405180910390fd5b61260682600083612e23565b61264381604051806060016040528060228152602001614175602291396001600160a01b0385166000908152603360205260409020549190612183565b6001600160a01b03831660009081526033602052604090205560355461266990826129ef565b6035556040805182815290516000916001600160a01b038516916000805160206142568339815191529181900360200190a35050565b609954604051633f30232f60e21b81526000918291829182916001600160a01b039091169063fcc08cbc906126d8908a90600401613926565b60206040518083038186803b1580156126f057600080fd5b505afa158015612704573d6000803e3d6000fd5b505050506040513d601f19601f820116820180604052508101906127289190613311565b90506001600160a01b0381166127505760405162461bcd60e51b81526004016107a990614031565b6000806000836001600160a01b0316636f8ae202308c8b8d6040518563ffffffff1660e01b81526004016127879493929190613ae9565b60006040518083038186803b15801561279f57600080fd5b505afa1580156127b3573d6000803e3d6000fd5b505050506040513d6000823e601f3d908101601f191682016040526127db91908101906134a2565b8051929550909350915080156129de5760006001600160a01b0385161561287b576040516370a0823160e01b81526001600160a01b038616906370a0823190612828903090600401613926565b60206040518083038186803b15801561284057600080fd5b505afa158015612854573d6000803e3d6000fd5b505050506040513d601f19601f820116820180604052508101906128789190613869565b90505b60005b828110156129395783818151811061289257fe5b6020026020010151600001516001600160a01b03168482815181106128b357fe5b6020026020010151602001516040516128cc919061390a565b6000604051808303816000865af19150503d8060008114612909576040519150601f19603f3d011682016040523d82523d6000602084013e61290e565b606091505b505080985050876129315760405162461bcd60e51b81526004016107a990613c77565b60010161287e565b506001600160a01b038516156129dc576129d9816129d3876001600160a01b03166370a08231306040518263ffffffff1660e01b815260040161297c9190613926565b60206040518083038186803b15801561299457600080fd5b505afa1580156129a8573d6000803e3d6000fd5b505050506040513d601f19601f820116820180604052508101906129cc9190613869565b8790612a4c565b906129ef565b93505b505b509195509350505093509350939050565b600082821115612a46576040805162461bcd60e51b815260206004820152601e60248201527f536166654d6174683a207375627472616374696f6e206f766572666c6f770000604482015290519081900360640190fd5b50900390565b600082820183811015610699576040805162461bcd60e51b815260206004820152601b60248201527a536166654d6174683a206164646974696f6e206f766572666c6f7760281b604482015290519081900360640190fd5b6097805460ff19168215151790556040517f8d75e9ede4188432084b863d70b3416010c97547dfeb4fc17734d2e997ee0f3990612ae2908390613bea565b60405180910390a150565b6001600160a01b038216612b48576040805162461bcd60e51b815260206004820152601f60248201527f45524332303a206d696e7420746f20746865207a65726f206164647265737300604482015290519081900360640190fd5b612b5460008383612e23565b603554612b619082612a4c565b6035556001600160a01b038216600090815260336020526040902054612b879082612a4c565b6001600160a01b03831660008181526033602090815260408083209490945583518581529351929391926000805160206142568339815191529281900390910190a35050565b6000612bd830612e54565b15905090565b600054610100900460ff1680612bf75750612bf7612bcd565b80612c05575060005460ff16155b612c405760405162461bcd60e51b815260040180806020018281038252602e8152602001806141df602e913960400191505060405180910390fd5b600054610100900460ff16158015612c6b576000805460ff1961ff0019909116610100171660011790555b612c73612e5a565b612c7d8383612efa565b8015612c8f576000805461ff00191690555b505050565b600054610100900460ff1680612cad5750612cad612bcd565b80612cbb575060005460ff16155b612cf65760405162461bcd60e51b815260040180806020018281038252602e8152602001806141df602e913960400191505060405180910390fd5b600054610100900460ff16158015612d21576000805460ff1961ff0019909116610100171660011790555b612d29612fd2565b8015610b8f576000805461ff001916905550565b609c5460408051631758078b60e01b815290516000926001600160a01b031691631758078b916004808301926020929190829003018186803b15801561200057600080fd5b6000811580612d8f575082155b15612d9c57506000610487565b6106998261082b85670de0b6b3a76400006124f8565b6000841580612dbf575085155b15612dcc57506000612e1a565b6000612de48661082b89670de0b6b3a76400006124f8565b9050848111612df7576000915050612e1a565b6000612e158261082b868189612e0f8d81878f6129ef565b906124f8565b925050505b95945050505050565b612e2e838383612c8f565b612e3783611b52565b15612c8f5760405162461bcd60e51b81526004016107a990613d6d565b3b151590565b600054610100900460ff1680612e735750612e73612bcd565b80612e81575060005460ff16155b612ebc5760405162461bcd60e51b815260040180806020018281038252602e8152602001806141df602e913960400191505060405180910390fd5b600054610100900460ff16158015612d29576000805460ff1961ff0019909116610100171660011790558015610b8f576000805461ff001916905550565b600054610100900460ff1680612f135750612f13612bcd565b80612f21575060005460ff16155b612f5c5760405162461bcd60e51b815260040180806020018281038252602e8152602001806141df602e913960400191505060405180910390fd5b600054610100900460ff16158015612f87576000805460ff1961ff0019909116610100171660011790555b8251612f9a906036906020860190613098565b508151612fae906037906020850190613098565b506038805460ff191660121790558015612c8f576000805461ff0019169055505050565b600054610100900460ff1680612feb5750612feb612bcd565b80612ff9575060005460ff16155b6130345760405162461bcd60e51b815260040180806020018281038252602e8152602001806141df602e913960400191505060405180910390fd5b600054610100900460ff1615801561305f576000805460ff1961ff0019909116610100171660011790555b60016065558015610b8f576000805461ff001916905550565b604080516060810182526000808252602082018190529181019190915290565b828054600181600116156101000203166002900490600052602060002090601f0160209004810192826130ce5760008555613114565b82601f106130e757805160ff1916838001178555613114565b82800160010185558215613114579182015b828111156131145782518255916020019190600101906130f9565b50613120929150613124565b5090565b5b808211156131205760008155600101613125565b600061314c613147846140dd565b61409d565b905082815283838301111561316057600080fd5b6106998360208301846140fe565b80356110d98161412e565b600082601f830112613189578081fd5b81516020613199613147836140c0565b82815281810190858301855b858110156132425781518801604080601f19838d030112156131c5578889fd5b80518181016001600160401b0382821081831117156131e057fe5b90835283890151906131f18261412e565b908252838301519080821115613205578b8cfd5b508084019350508b603f84011261321a57898afd5b61322a8c89850151848601613139565b818901528652505092840192908401906001016131a5565b5090979650505050505050565b600082601f83011261325f578081fd5b8135602061326f613147836140c0565b828152818101908583018385028701840188101561328b578586fd5b855b858110156132425781358452928401929084019060010161328d565b600082601f8301126132b9578081fd5b81356132c7613147826140dd565b8181528460208386010111156132db578283fd5b816020850160208301379081016020019190915292915050565b600060208284031215613306578081fd5b81356106998161412e565b600060208284031215613322578081fd5b81516106998161412e565b6000806040838503121561333f578081fd5b823561334a8161412e565b9150602083013561335a8161412e565b809150509250929050565b600080600060608486031215613379578081fd5b83356133848161412e565b925060208401356133948161412e565b929592945050506040919091013590565b600080600080608085870312156133ba578182fd5b84356133c58161412e565b935060208501356133d581614143565b925060408501356001600160401b03808211156133f0578384fd5b6133fc888389016132a9565b93506060870135915080821115613411578283fd5b5061341e878288016132a9565b91505092959194509250565b6000806040838503121561343c578182fd5b82356134478161412e565b915060208301356001600160401b03811115613461578182fd5b61346d858286016132a9565b9150509250929050565b60008060408385031215613489578182fd5b82356134948161412e565b946020939093013593505050565b6000806000606084860312156134b6578081fd5b83516134c18161412e565b6020850151604086015191945092506001600160401b038111156134e3578182fd5b6134ef86828701613179565b9150509250925092565b600080600080600060a08688031215613510578283fd5b85356001600160401b0380821115613526578485fd5b818801915088601f830112613539578485fd5b81356020613549613147836140c0565b82815281810190858301838502870184018e101561356557898afd5b8996505b8487101561359057803561357c8161412e565b835260019690960195918301918301613569565b50995050890135925050808211156135a6578485fd5b6135b289838a0161324f565b955060408801359150808211156135c7578485fd5b6135d389838a0161324f565b94506135e16060890161316e565b935060808801359150808211156135f6578283fd5b50613603888289016132a9565b9150509295509295909350565b60006020808385031215613622578182fd5b82516001600160401b0380821115613638578384fd5b818501915085601f83011261364b578384fd5b8151613659613147826140c0565b818152848101908486016040808502870188018b1015613677578889fd5b8896505b848710156136da5780828c031215613691578889fd5b805181810181811088821117156136a457fe5b825282516136b18161412e565b8152828901516136c081614143565b818a0152845260019690960195928701929081019061367b565b50909998505050505050505050565b6000602082840312156136fa578081fd5b81516001600160401b0381111561370f578182fd5b611ba384828501613179565b6000806040838503121561372d578182fd5b82516001600160401b03811115613742578283fd5b8301601f81018513613752578283fd5b80516020613762613147836140c0565b82815281810190848301838502860184018a101561377e578788fd5b8795505b848610156137a0578051835260019590950194918301918301613782565b50969091015195979596505050505050565b6000602082840312156137c3578081fd5b813561069981614143565b6000602082840312156137df578081fd5b815161069981614143565b6000602082840312156137fb578081fd5b81516001600160401b03811115613810578182fd5b8201601f81018413613820578182fd5b611ba384825160208401613139565b600060208284031215613840578081fd5b815161ffff81168114610699578182fd5b600060208284031215613862578081fd5b5035919050565b60006020828403121561387a578081fd5b5051919050565b60008060408385031215613893578182fd5b505080516020909101519092909150565b6000815180845260208085019450808401835b838110156138d3578151875295820195908201906001016138b7565b509495945050505050565b600081518084526138f68160208601602086016140fe565b601f01601f19169290920160200192915050565b6000825161391c8184602087016140fe565b9190910192915050565b6001600160a01b0391909116815260200190565b6001600160a01b039384168152919092166020820152604081019190915260600190565b6001600160a01b03929092168252602082015260400190565b6001600160a01b0392831681529116602082015260400190565b6001600160a01b039a8b168152988a1660208a01529690981660408801526060870194909452608086019290925260a085015260c084015260e08301526101008201929092526101208101919091526101400190565b600061012080830160018060a01b03808e1685526020818e168187015260408d8188015260608d818901528c60808901528b60a08901528a60c08901528560e0890152849550895180865261014089019650838b019550875b81811015613a7157865180518716895285810151868a01528401511515848901529682019695840195600101613a40565b505050505061010094909401949094529b9a5050505050505050505050565b6001600160a01b03848116825283166020820152606060408201819052600090612e1a908301846138de565b6001600160a01b03948516815292909316602083015261ffff166040820152606081019190915260800190565b6001600160a01b03948516815292841660208401526040830191909152909116606082015260800190565b6001600160a01b03968716815294909516602085015260408401929092526060830152608082015260a081019190915260c00190565b6001600160a01b038781168252602080830188905260c060408401819052875190840181905260009288830192909160e0860190855b81811015613b9e578551851683529483019491830191600101613b80565b50508581036060870152613bb2818a6138a4565b93505050508281036080840152613bc981866138a4565b905082810360a0840152613bdd81856138a4565b9998505050505050505050565b901515815260200190565b60006020825261069960208301846138de565b6000610120808352613c1c8184018d6138de565b602084018c9052604084018b90526001600160a01b038a16606085015283810360808501529050613c4d81896138de565b60a0840197909752505092151560c084015260e08301919091526101009091015295945050505050565b6020808252601990820152786661696c656420746f20776974686472617720746f6b656e7360381b604082015260600190565b6020808252818101527f496e76616c696420706f6f6c4d616e616765724c6f6769632061646472657373604082015260600190565b602080825260199082015278185cdcd95d081b9bdd08195b98589b1959081a5b881c1bdbdb603a1b604082015260600190565b6020808252601490820152731bdb9b1e481b595b58995c9cc8185b1b1bddd95960621b604082015260600190565b60208082526013908201527234b73b30b634b2103a3930b739b0b1ba34b7b760691b604082015260600190565b6020808252600f908201526e636f6f6c646f776e2061637469766560881b604082015260600190565b602080825260169082015275199b1859c81b5d5cdd08189948191a5999995c995b9d60521b604082015260600190565b6020808252600c908201526b37b7363c9036b0b730b3b2b960a11b604082015260600190565b6020808252601b908201527a37b7363c903837b7b610333630b9b4103637b0b71037b934b3b4b760291b604082015260600190565b6020808252601590820152741d1bdad95b881d1c985b9cd9995c8819985a5b1959605a1b604082015260600190565b60208082526016908201527537b7363c9036b0b730b3b2b91037b9103a3930b232b960511b604082015260600190565b60208082526013908201527234b73b30b634b2103232b9ba34b730ba34b7b760691b604082015260600190565b6020808252601b908201527a1bdb9b1e48111053c81bdc88199858dd1bdc9e48185b1b1bddd959602a1b604082015260600190565b602080825260149082015273696e73756666696369656e742062616c616e636560601b604082015260600190565b6020808252601590820152741a5b9d985b1a590819195c1bdcda5d08185cdcd95d605a1b604082015260600190565b6020808252600f908201526e496e76616c696420666163746f727960881b604082015260600190565b6020808252601a908201527919985a5b1959081d1bc8195e1958dd5d19481d1a194818d85b1b60321b604082015260600190565b6020808252601c908201527b1b9bdb8b5e995c9bc81859191c995cdcc81a5cc81c995c5d5a5c995960221b604082015260600190565b6020808252601b908201527a3330b4b632b2103a3790383937b1b2b9b990333630b9b43637b0b760291b604082015260600190565b60208082526010908201526f18dbdb9d1c9858dd1cc81c185d5cd95960821b604082015260600190565b6020808252600d908201526c1a5b9d985b1a590819dd585c99609a1b604082015260600190565b6020808252601490820152731a5b9d985b1a59081b195b991a5b99c81c1bdbdb60621b604082015260600190565b90815260200190565b60ff91909116815260200190565b6040518181016001600160401b03811182821017156140b857fe5b604052919050565b60006001600160401b038211156140d357fe5b5060209081020190565b60006001600160401b038211156140f057fe5b50601f01601f191660200190565b60005b83811015614119578181015183820152602001614101565b83811115614128576000848401525b50505050565b6001600160a01b0381168114610b8f57600080fd5b8015158114610b8f57600080fdfe45524332303a207472616e7366657220746f20746865207a65726f206164647265737345524332303a206275726e20616d6f756e7420657863656564732062616c616e636545524332303a20617070726f766520746f20746865207a65726f206164647265737345524332303a207472616e7366657220616d6f756e7420657863656564732062616c616e6365496e697469616c697a61626c653a20636f6e747261637420697320616c726561647920696e697469616c697a6564536166654d6174683a206d756c7469706c69636174696f6e206f766572666c6f7745524332303a207472616e7366657220616d6f756e74206578636565647320616c6c6f77616e6365ddf252ad1be2c89b69c2b068fc378daa952ba7f163c4a11628f55a4df523b3ef45524332303a206275726e2066726f6d20746865207a65726f206164647265737345524332303a207472616e736665722066726f6d20746865207a65726f206164647265737345524332303a20617070726f76652066726f6d20746865207a65726f206164647265737345524332303a2064656372656173656420616c6c6f77616e63652062656c6f77207a65726fa26469706673582212200f3d980cadd8ab246083decc828f33d94829731d56d71623a40d5508e30e031d64736f6c63430007060033",
  "linkReferences": {},
  "deployedLinkReferences": {}
}