{
  "_format": "hh-sol-artifact-1",
  "contractName": "SonneFinancePriceAggregator",
  "sourceName": "contracts/priceAggregators/SonneFinancePriceAggregator.sol",
  "abi": [
    {
      "inputs": [
        {
          "internalType": "address",
          "name": "cToken_",
          "type": "address"
        },
        {
          "internalType": "address",
          "name": "comptrollerLens_",
          "type": "address"
        },
        {
          "internalType": "uint256",
          "name": "initialExchangeRateMantissa_",
          "type": "uint256"
        }
      ],
      "stateMutability": "nonpayable",
      "type": "constructor"
    },
    {
      "inputs": [],
      "name": "cToken",
      "outputs": [
        {
          "internalType": "address",
          "name": "",
          "type": "address"
        }
      ],
      "stateMutability": "view",
      "type": "function"
    },
    {
      "inputs": [],
      "name": "comptrollerLens",
      "outputs": [
        {
          "internalType": "contract ComptrollerLensInterface",
          "name": "",
          "type": "address"
        }
      ],
      "stateMutability": "view",
      "type": "function"
    },
    {
      "inputs": [],
      "name": "decimals",
      "outputs": [
        {
          "internalType": "uint8",
          "name": "",
          "type": "uint8"
        }
      ],
      "stateMutability": "pure",
      "type": "function"
    },
    {
      "inputs": [],
      "name": "exchangeRate",
      "outputs": [
        {
          "internalType": "uint256",
          "name": "exchangeRate_",
          "type": "uint256"
        }
      ],
      "stateMutability": "view",
      "type": "function"
    },
    {
      "inputs": [],
      "name": "latestRoundData",
      "outputs": [
        {
          "internalType": "uint80",
          "name": "",
          "type": "uint80"
        },
        {
          "internalType": "int256",
          "name": "",
          "type": "int256"
        },
        {
          "internalType": "uint256",
          "name": "",
          "type": "uint256"
        },
        {
          "internalType": "uint256",
          "name": "",
          "type": "uint256"
        },
        {
          "internalType": "uint80",
          "name": "",
          "type": "uint80"
        }
      ],
      "stateMutability": "view",
      "type": "function"
    }
  ],
  "bytecode": "0x6101406040523480156200001257600080fd5b506040516200104838038062001048833981016040819052620000359162000293565b6001600160a01b038316620000915760405162461bcd60e51b815260206004820152601a60248201527f63546f6b656e20616464726573732063616e6e6f74206265203000000000000060448201526064015b60405180910390fd5b6001600160a01b038216620000e95760405162461bcd60e51b815260206004820181905260248201527f7072696365206f7261636c6520616464726573732063616e6e6f742062652030604482015260640162000088565b6001600160a01b03808416608081905290831660a05260408051636f307dc360e01b81529051636f307dc3916004808201926020929091908290030181865afa1580156200013b573d6000803e3d6000fd5b505050506040513d601f19601f82011682018060405250810190620001619190620002d4565b6001600160a01b031663313ce5676040518163ffffffff1660e01b8152600401602060405180830381865afa1580156200019f573d6000803e3d6000fd5b505050506040513d601f19601f82011682018060405250810190620001c59190620002f9565b60ff1660c08181525050826001600160a01b031663313ce5676040518163ffffffff1660e01b8152600401602060405180830381865afa1580156200020e573d6000803e3d6000fd5b505050506040513d601f19601f82011682018060405250810190620002349190620002f9565b60ff1660e081905260c0516200024c90601262000334565b6200025891906200034f565b6200026590600a62000468565b610100526101205250620004769050565b80516001600160a01b03811681146200028e57600080fd5b919050565b600080600060608486031215620002a957600080fd5b620002b48462000276565b9250620002c46020850162000276565b9150604084015190509250925092565b600060208284031215620002e757600080fd5b620002f28262000276565b9392505050565b6000602082840312156200030c57600080fd5b815160ff81168114620002f257600080fd5b634e487b7160e01b600052601160045260246000fd5b600082198211156200034a576200034a6200031e565b500190565b6000828210156200036457620003646200031e565b500390565b600181815b80851115620003aa5781600019048211156200038e576200038e6200031e565b808516156200039c57918102915b93841c93908002906200036e565b509250929050565b600082620003c35750600162000462565b81620003d25750600062000462565b8160018114620003eb5760028114620003f65762000416565b600191505062000462565b60ff8411156200040a576200040a6200031e565b50506001821b62000462565b5060208310610133831016604e8410600b84101617156200043b575081810a62000462565b62000447838362000369565b80600019048211156200045e576200045e6200031e565b0290505b92915050565b6000620002f28383620003b2565b60805160a05160c05160e0516101005161012051610b6b620004dd60003960006101b5015260006102fd01526000505060006102c601526000818160bf015261023d015260008181608b015281816101220152818161035501526104170152610b6b6000f3fe608060405234801561001057600080fd5b50600436106100575760003560e01c8063313ce5671461005c5780633ba0b9a91461007057806369e527da14610086578063d3270f99146100ba578063feaf968c146100e1575b600080fd5b604051600881526020015b60405180910390f35b61007861011d565b604051908152602001610067565b6100ad7f000000000000000000000000000000000000000000000000000000000000000081565b6040516100679190610927565b6100ad7f000000000000000000000000000000000000000000000000000000000000000081565b6100e9610232565b604080516001600160501b03968716815260208101959095528401929092526060830152909116608082015260a001610067565b6000807f0000000000000000000000000000000000000000000000000000000000000000905060008190506000816001600160a01b03166318160ddd6040518163ffffffff1660e01b8152600401602060405180830381865afa158015610188573d6000803e3d6000fd5b505050506040513d601f19601f820116820180604052508101906101ac919061093b565b9050806101dc577f0000000000000000000000000000000000000000000000000000000000000000935050505090565b60008060006101e961040f565b919450925090506000816101fd848661096a565b6102079190610982565b90508461021c670de0b6b3a764000083610999565b61022691906109ce565b97505050505050505090565b6000806000806000807f00000000000000000000000000000000000000000000000000000000000000006001600160a01b0316637dc0d1d06040518163ffffffff1660e01b8152600401602060405180830381865afa158015610299573d6000803e3d6000fd5b505050506040513d601f19601f820116820180604052508101906102bd91906109fa565b905060006102ec7f00000000000000000000000000000000000000000000000000000000000000006024610982565b6102f790600a610afb565b905060007f000000000000000000000000000000000000000000000000000000000000000061032461011d565b61033690670de0b6b3a7640000610999565b61034091906109ce565b90506000836001600160a01b031663fc57d4df7f00000000000000000000000000000000000000000000000000000000000000006040518263ffffffff1660e01b81526004016103909190610927565b602060405180830381865afa1580156103ad573d6000803e3d6000fd5b505050506040513d601f19601f820116820180604052508101906103d1919061093b565b905060006103e4846402540be400610999565b6103ee8385610999565b6103f89190610b07565b909a90995060009850429750889650945050505050565b6000806000807f00000000000000000000000000000000000000000000000000000000000000009050600081905060004290506000826001600160a01b0316636c540baf6040518163ffffffff1660e01b8152600401602060405180830381865afa158015610482573d6000803e3d6000fd5b505050506040513d601f19601f820116820180604052508101906104a6919061093b565b90506000846001600160a01b0316636f307dc36040518163ffffffff1660e01b8152600401602060405180830381865afa1580156104e8573d6000803e3d6000fd5b505050506040513d601f19601f8201168201806040525081019061050c91906109fa565b6001600160a01b03166370a08231866040518263ffffffff1660e01b81526004016105379190610927565b602060405180830381865afa158015610554573d6000803e3d6000fd5b505050506040513d601f19601f82011682018060405250810190610578919061093b565b90506000846001600160a01b03166347bd37186040518163ffffffff1660e01b8152600401602060405180830381865afa1580156105ba573d6000803e3d6000fd5b505050506040513d601f19601f820116820180604052508101906105de919061093b565b90506000856001600160a01b0316638f840ddd6040518163ffffffff1660e01b8152600401602060405180830381865afa158015610620573d6000803e3d6000fd5b505050506040513d601f19601f82011682018060405250810190610644919061093b565b90508484141561065e579199909850909650945050505050565b6000866001600160a01b031663f3fdb15a6040518163ffffffff1660e01b8152600401602060405180830381865afa15801561069e573d6000803e3d6000fd5b505050506040513d601f19601f820116820180604052508101906106c291906109fa565b6040516315f2405360e01b81526004810186905260248101859052604481018490526001600160a01b0391909116906315f2405390606401602060405180830381865afa158015610717573d6000803e3d6000fd5b505050506040513d601f19601f8201168201806040525081019061073b919061093b565b9050645d21dba0008111156107955760405162461bcd60e51b815260206004820152601c60248201527b0c4dee4e4deee40e4c2e8ca40d2e640c2c4e6eae4c8d8f240d0d2ced60231b604482015260640160405180910390fd5b60006107a18688610982565b905060006107bd60405180602001604052808581525083610873565b905060006107cb82876108a6565b905060006107d9878361096a565b9050600061085660405180602001604052808e6001600160a01b031663173b99046040518163ffffffff1660e01b8152600401602060405180830381865afa158015610829573d6000803e3d6000fd5b505050506040513d601f19601f8201168201806040525081019061084d919061093b565b905284896108c6565b90508882829f509f509f5050505050505050505050505050909192565b604080516020810190915260008152604051806020016040528061089b8560000151856108f0565b905290505b92915050565b6000806108b38484610873565b90506108be81610903565b949350505050565b6000806108d38585610873565b90506108e76108e182610903565b8461091b565b95945050505050565b60006108fc8284610999565b9392505050565b80516000906108a090670de0b6b3a7640000906109ce565b60006108fc828461096a565b6001600160a01b0391909116815260200190565b60006020828403121561094d57600080fd5b5051919050565b634e487b7160e01b600052601160045260246000fd5b6000821982111561097d5761097d610954565b500190565b60008282101561099457610994610954565b500390565b60008160001904831182151516156109b3576109b3610954565b500290565b634e487b7160e01b600052601260045260246000fd5b6000826109dd576109dd6109b8565b500490565b6001600160a01b03811681146109f757600080fd5b50565b600060208284031215610a0c57600080fd5b81516108fc816109e2565b600181815b80851115610a52578160001904821115610a3857610a38610954565b80851615610a4557918102915b93841c9390800290610a1c565b509250929050565b600082610a69575060016108a0565b81610a76575060006108a0565b8160018114610a8c5760028114610a9657610ab2565b60019150506108a0565b60ff841115610aa757610aa7610954565b50506001821b6108a0565b5060208310610133831016604e8410600b8410161715610ad5575081810a6108a0565b610adf8383610a17565b8060001904821115610af357610af3610954565b029392505050565b60006108fc8383610a5a565b600082610b1657610b166109b8565b600160ff1b821460001984141615610b3057610b30610954565b50059056fea264697066735822122070f4026c9b2aab9f7a7eff3df14024b31b8807549256d92561511d22513e026964736f6c634300080a0033",
  "linkReferences": {},
  "deployedLinkReferences": {}
}