{
  "_format": "hh-sol-artifact-1",
  "contractName": "SynthPriceAggregator",
  "sourceName": "contracts/priceAggregators/SynthPriceAggregator.sol",
  "abi": [
    {
      "inputs": [
        {
          "internalType": "address",
          "name": "_susdPriceAggregator",
          "type": "address"
        },
        {
          "internalType": "address",
          "name": "_tokenPriceAggregator",
          "type": "address"
        }
      ],
      "stateMutability": "nonpayable",
      "type": "constructor"
    },
    {
      "inputs": [],
      "name": "decimals",
      "outputs": [
        {
          "internalType": "uint8",
          "name": "",
          "type": "uint8"
        }
      ],
      "stateMutability": "pure",
      "type": "function"
    },
    {
      "inputs": [],
      "name": "latestRoundData",
      "outputs": [
        {
          "internalType": "uint80",
          "name": "roundId",
          "type": "uint80"
        },
        {
          "internalType": "int256",
          "name": "answer",
          "type": "int256"
        },
        {
          "internalType": "uint256",
          "name": "startedAt",
          "type": "uint256"
        },
        {
          "internalType": "uint256",
          "name": "updatedAt",
          "type": "uint256"
        },
        {
          "internalType": "uint80",
          "name": "answeredInRound",
          "type": "uint80"
        }
      ],
      "stateMutability": "view",
      "type": "function"
    },
    {
      "inputs": [],
      "name": "susdPriceAggregator",
      "outputs": [
        {
          "internalType": "address",
          "name": "",
          "type": "address"
        }
      ],
      "stateMutability": "view",
      "type": "function"
    },
    {
      "inputs": [],
      "name": "tokenPriceAggregator",
      "outputs": [
        {
          "internalType": "address",
          "name": "",
          "type": "address"
        }
      ],
      "stateMutability": "view",
      "type": "function"
    }
  ],
  "bytecode": "0x608060405234801561001057600080fd5b506040516104c83803806104c88339818101604052604081101561003357600080fd5b508051602090910151600080546001600160a01b039384166001600160a01b0319918216179091556001805493909216921691909117905561044e8061007a6000396000f3fe608060405234801561001057600080fd5b506004361061004c5760003560e01c80632b34892814610051578063313ce56714610075578063c101ee2214610093578063feaf968c1461009b575b600080fd5b6100596100e7565b604080516001600160a01b039092168252519081900360200190f35b61007d6100f6565b6040805160ff9092168252519081900360200190f35b6100596100fb565b6100a361010a565b60405180866001600160501b03168152602001858152602001848152602001838152602001826001600160501b031681526020019550505050505060405180910390f35b6001546001600160a01b031681565b600890565b6000546001600160a01b031681565b60008060008060008060008060009054906101000a90046001600160a01b03166001600160a01b031663feaf968c6040518163ffffffff1660e01b815260040160a06040518083038186803b15801561016257600080fd5b505afa158015610176573d6000803e3d6000fd5b505050506040513d60a081101561018c57600080fd5b50602081015160609091015160015460408051633fabe5a360e21b8152905193955091935060009283926001600160a01b039092169163feaf968c9160048083019260a0929190829003018186803b1580156101e757600080fd5b505afa1580156101fb573d6000803e3d6000fd5b505050506040513d60a081101561021157600080fd5b506020810151606090910151909250905061023a6305f5e1006102348685610266565b90610318565b9750600088600083861161024e5785610250565b835b929c919b50995090975060009650945050505050565b60008261027557506000610312565b826000191480156102895750600160ff1b82145b156102c55760405162461bcd60e51b81526004018080602001828103825260278152602001806103f26027913960400191505060405180910390fd5b828202828482816102d257fe5b051461030f5760405162461bcd60e51b81526004018080602001828103825260278152602001806103f26027913960400191505060405180910390fd5b90505b92915050565b60008161036c576040805162461bcd60e51b815260206004820181905260248201527f5369676e6564536166654d6174683a206469766973696f6e206279207a65726f604482015290519081900360640190fd5b816000191480156103805750600160ff1b83145b156103bc5760405162461bcd60e51b81526004018080602001828103825260218152602001806103d16021913960400191505060405180910390fd5b60008284816103c757fe5b0594935050505056fe5369676e6564536166654d6174683a206469766973696f6e206f766572666c6f775369676e6564536166654d6174683a206d756c7469706c69636174696f6e206f766572666c6f77a2646970667358221220b47bdf14be46e6e5cf3c27dd3e78f1bfa9548084740b6a97ff7f709c3b72d15f64736f6c63430007060033",
  "linkReferences": {},
  "deployedLinkReferences": {}
}