{
  "_format": "hh-sol-artifact-1",
  "contractName": "ProxyFactory",
  "sourceName": "contracts/upgradability/ProxyFactory.sol",
  "abi": [
    {
      "anonymous": false,
      "inputs": [
        {
          "indexed": true,
          "internalType": "address",
          "name": "previousOwner",
          "type": "address"
        },
        {
          "indexed": true,
          "internalType": "address",
          "name": "newOwner",
          "type": "address"
        }
      ],
      "name": "OwnershipTransferred",
      "type": "event"
    },
    {
      "anonymous": false,
      "inputs": [
        {
          "indexed": false,
          "internalType": "address",
          "name": "proxy",
          "type": "address"
        }
      ],
      "name": "ProxyCreated",
      "type": "event"
    },
    {
      "inputs": [
        {
          "internalType": "bytes",
          "name": "_data",
          "type": "bytes"
        },
        {
          "internalType": "uint8",
          "name": "_proxyType",
          "type": "uint8"
        }
      ],
      "name": "deploy",
      "outputs": [
        {
          "internalType": "address",
          "name": "",
          "type": "address"
        }
      ],
      "stateMutability": "nonpayable",
      "type": "function"
    },
    {
      "inputs": [
        {
          "internalType": "uint8",
          "name": "_proxyType",
          "type": "uint8"
        }
      ],
      "name": "getLogic",
      "outputs": [
        {
          "internalType": "address",
          "name": "",
          "type": "address"
        }
      ],
      "stateMutability": "view",
      "type": "function"
    },
    {
      "inputs": [],
      "name": "owner",
      "outputs": [
        {
          "internalType": "address",
          "name": "",
          "type": "address"
        }
      ],
      "stateMutability": "view",
      "type": "function"
    },
    {
      "inputs": [],
      "name": "renounceOwnership",
      "outputs": [],
      "stateMutability": "nonpayable",
      "type": "function"
    },
    {
      "inputs": [
        {
          "internalType": "address",
          "name": "_poolLogic",
          "type": "address"
        },
        {
          "internalType": "address",
          "name": "_poolManagerLogic",
          "type": "address"
        }
      ],
      "name": "setLogic",
      "outputs": [],
      "stateMutability": "nonpayable",
      "type": "function"
    },
    {
      "inputs": [
        {
          "internalType": "address",
          "name": "newOwner",
          "type": "address"
        }
      ],
      "name": "transferOwnership",
      "outputs": [],
      "stateMutability": "nonpayable",
      "type": "function"
    }
  ],
  "bytecode": "0x608060405234801561001057600080fd5b50610a8a806100206000396000f3fe608060405234801561001057600080fd5b50600436106100625760003560e01c806345812ca514610067578063715018a61461012c578063808ae5fb146101365780638da5cb5b14610164578063ecef89d51461016c578063f2fde38b1461018c575b600080fd5b6101106004803603604081101561007d57600080fd5b810190602081018135600160201b81111561009757600080fd5b8201836020820111156100a957600080fd5b803590602001918460018302840111600160201b831117156100ca57600080fd5b91908080601f0160208091040260200160405190810160405280939291908181526020018383808284376000920191909152509295505050903560ff1691506101b29050565b604080516001600160a01b039092168252519081900360200190f35b6101346101c5565b005b6101346004803603604081101561014c57600080fd5b506001600160a01b0381358116916020013516610271565b6101106103a6565b6101106004803603602081101561018257600080fd5b503560ff166103b5565b610134600480360360208110156101a257600080fd5b50356001600160a01b03166103e8565b60006101be83836104eb565b9392505050565b6101cd610619565b6001600160a01b03166101de6103a6565b6001600160a01b031614610227576040805162461bcd60e51b81526020600482018190526024820152600080516020610a35833981519152604482015290519081900360640190fd5b6033546040516000916001600160a01b0316907f8be0079c531659141344cd1fd0a4f28419497f9722a3daafe3b4186f6b6457e0908390a3603380546001600160a01b0319169055565b610279610619565b6001600160a01b031661028a6103a6565b6001600160a01b0316146102d3576040805162461bcd60e51b81526020600482018190526024820152600080516020610a35833981519152604482015290519081900360640190fd5b6001600160a01b038216610322576040805162461bcd60e51b8152602060048201526011602482015270496e76616c696420706f6f6c4c6f67696360781b604482015290519081900360640190fd5b6001600160a01b038116610378576040805162461bcd60e51b8152602060048201526018602482015277496e76616c696420706f6f6c4d616e616765724c6f67696360401b604482015290519081900360640190fd5b606580546001600160a01b039384166001600160a01b03199182161790915560668054929093169116179055565b6033546001600160a01b031690565b60008160ff16600114156103d557506066546001600160a01b03166103e3565b506065546001600160a01b03165b919050565b6103f0610619565b6001600160a01b03166104016103a6565b6001600160a01b03161461044a576040805162461bcd60e51b81526020600482018190526024820152600080516020610a35833981519152604482015290519081900360640190fd5b6001600160a01b03811661048f5760405162461bcd60e51b8152600401808060200182810382526026815260200180610a0f6026913960400191505060405180910390fd5b6033546040516001600160a01b038084169216907f8be0079c531659141344cd1fd0a4f28419497f9722a3daafe3b4186f6b6457e090600090a3603380546001600160a01b0319166001600160a01b0392909216919091179055565b6000806104f661061d565b604080516001600160a01b038316815290519192507efffc2da0b561cae30d9826d37709e9421c4725faebc226cbbb7ef5fc5e7349919081900360200190a1806001600160a01b031663e74a474a3086866040518463ffffffff1660e01b815260040180846001600160a01b03168152602001806020018360ff168152602001828103825284818151815260200191508051906020019080838360005b838110156105ab578181015183820152602001610593565b50505050905090810190601f1680156105d85780820380516001836020036101000a031916815260200191505b50945050505050600060405180830381600087803b1580156105f957600080fd5b505af115801561060d573d6000803e3d6000fd5b50929695505050505050565b3390565b60008060006040518060200161063290610664565b6020820181038252601f19601f8201166040525090508051602082016000f09150813b61065e57600080fd5b50905090565b61039d806106728339019056fe608060405234801561001057600080fd5b5061037d806100206000396000f3fe6080604052600436106100225760003560e01c8063e74a474a1461003957610031565b366100315761002f6100f2565b005b61002f6100f2565b61002f6004803603606081101561004f57600080fd5b6001600160a01b038235169190810190604081016020820135600160201b81111561007957600080fd5b82018360208201111561008b57600080fd5b803590602001918460018302840111600160201b831117156100ac57600080fd5b91908080601f0160208091040260200160405190810160405280939291908181526020018383808284376000920191909152509295505050903560ff16915061010c9050565b6100fa61010a565b61010a61010561019c565b61025d565b565b600061011661019c565b6001600160a01b031614610161576040805162461bcd60e51b815260206004820152600d60248201526c496d706c206e6f74207a65726f60981b604482015290519081900360640190fd5b61016a83610281565b610173816102ff565b815115610197576101958261018661019c565b6001600160a01b031690610307565b505b505050565b7f360894a13ba1a3210667c828492db98dca3e2076cc3735a920a3ca505d382bbc80546000916001600160a01b0382166101db5760009250505061025a565b816001600160a01b031663ecef89d56101f2610338565b6040518263ffffffff1660e01b8152600401808260ff16815260200191505060206040518083038186803b15801561022957600080fd5b505afa15801561023d573d6000803e3d6000fd5b505050506040513d602081101561025357600080fd5b5051925050505b90565b3660008037600080366000845af43d6000803e80801561027c573d6000f35b3d6000fd5b61028a81610341565b6102db576040805162461bcd60e51b815260206004820181905260248201527f43616e6e6f742073657420696d706c656d656e746174696f6e20746f20454f41604482015290519081900360640190fd5b7f360894a13ba1a3210667c828492db98dca3e2076cc3735a920a3ca505d382bbc55565b600160fc1b55565b6000806000835160208501865af4905080156001811461032657610331565b3d806000803e806000fd5b5092915050565b600160fc1b5490565b3b15159056fea2646970667358221220db02276f833114d2779575b953214dd6737c50216e65d5ea2dd9bcb65fb5559464736f6c634300070600334f776e61626c653a206e6577206f776e657220697320746865207a65726f20616464726573734f776e61626c653a2063616c6c6572206973206e6f7420746865206f776e6572a264697066735822122012211bbffe953d27a3ccb5f340ffde56d5b93c0dafe0aba1eea0fe3a3be1518364736f6c63430007060033",
  "linkReferences": {},
  "deployedLinkReferences": {}
}