{
  "_format": "hh-sol-artifact-1",
  "contractName": "SynthetixFuturesMarketAssetGuard",
  "sourceName": "contracts/guards/assetGuards/SynthetixFuturesMarketAssetGuard.sol",
  "abi": [
    {
      "anonymous": false,
      "inputs": [
        {
          "indexed": false,
          "internalType": "address",
          "name": "fundAddress",
          "type": "address"
        },
        {
          "indexed": false,
          "internalType": "address",
          "name": "sourceAsset",
          "type": "address"
        },
        {
          "indexed": false,
          "internalType": "uint256",
          "name": "sourceAmount",
          "type": "uint256"
        },
        {
          "indexed": false,
          "internalType": "address",
          "name": "dstAsset",
          "type": "address"
        },
        {
          "indexed": false,
          "internalType": "uint256",
          "name": "time",
          "type": "uint256"
        }
      ],
      "name": "ExchangeFrom",
      "type": "event"
    },
    {
      "anonymous": false,
      "inputs": [
        {
          "indexed": false,
          "internalType": "address",
          "name": "fundAddress",
          "type": "address"
        },
        {
          "indexed": false,
          "internalType": "address",
          "name": "sourceAsset",
          "type": "address"
        },
        {
          "indexed": false,
          "internalType": "address",
          "name": "dstAsset",
          "type": "address"
        },
        {
          "indexed": false,
          "internalType": "uint256",
          "name": "dstAmount",
          "type": "uint256"
        },
        {
          "indexed": false,
          "internalType": "uint256",
          "name": "time",
          "type": "uint256"
        }
      ],
      "name": "ExchangeTo",
      "type": "event"
    },
    {
      "inputs": [
        {
          "internalType": "bytes32",
          "name": "data",
          "type": "bytes32"
        }
      ],
      "name": "convert32toAddress",
      "outputs": [
        {
          "internalType": "address",
          "name": "o",
          "type": "address"
        }
      ],
      "stateMutability": "pure",
      "type": "function"
    },
    {
      "inputs": [
        {
          "internalType": "bytes",
          "name": "data",
          "type": "bytes"
        },
        {
          "internalType": "uint8",
          "name": "inputNum",
          "type": "uint8"
        },
        {
          "internalType": "uint8",
          "name": "arrayIndex",
          "type": "uint8"
        }
      ],
      "name": "getArrayIndex",
      "outputs": [
        {
          "internalType": "bytes32",
          "name": "",
          "type": "bytes32"
        }
      ],
      "stateMutability": "pure",
      "type": "function"
    },
    {
      "inputs": [
        {
          "internalType": "bytes",
          "name": "data",
          "type": "bytes"
        },
        {
          "internalType": "uint8",
          "name": "inputNum",
          "type": "uint8"
        }
      ],
      "name": "getArrayLast",
      "outputs": [
        {
          "internalType": "bytes32",
          "name": "",
          "type": "bytes32"
        }
      ],
      "stateMutability": "pure",
      "type": "function"
    },
    {
      "inputs": [
        {
          "internalType": "bytes",
          "name": "data",
          "type": "bytes"
        },
        {
          "internalType": "uint8",
          "name": "inputNum",
          "type": "uint8"
        }
      ],
      "name": "getArrayLength",
      "outputs": [
        {
          "internalType": "uint256",
          "name": "",
          "type": "uint256"
        }
      ],
      "stateMutability": "pure",
      "type": "function"
    },
    {
      "inputs": [
        {
          "internalType": "address",
          "name": "pool",
          "type": "address"
        },
        {
          "internalType": "address",
          "name": "asset",
          "type": "address"
        }
      ],
      "name": "getBalance",
      "outputs": [
        {
          "internalType": "uint256",
          "name": "balance",
          "type": "uint256"
        }
      ],
      "stateMutability": "view",
      "type": "function"
    },
    {
      "inputs": [
        {
          "internalType": "bytes",
          "name": "data",
          "type": "bytes"
        },
        {
          "internalType": "uint8",
          "name": "inputNum",
          "type": "uint8"
        },
        {
          "internalType": "uint256",
          "name": "offset",
          "type": "uint256"
        }
      ],
      "name": "getBytes",
      "outputs": [
        {
          "internalType": "bytes",
          "name": "",
          "type": "bytes"
        }
      ],
      "stateMutability": "pure",
      "type": "function"
    },
    {
      "inputs": [
        {
          "internalType": "address",
          "name": "",
          "type": "address"
        }
      ],
      "name": "getDecimals",
      "outputs": [
        {
          "internalType": "uint256",
          "name": "decimals",
          "type": "uint256"
        }
      ],
      "stateMutability": "pure",
      "type": "function"
    },
    {
      "inputs": [
        {
          "internalType": "bytes",
          "name": "data",
          "type": "bytes"
        },
        {
          "internalType": "uint8",
          "name": "inputNum",
          "type": "uint8"
        }
      ],
      "name": "getInput",
      "outputs": [
        {
          "internalType": "bytes32",
          "name": "",
          "type": "bytes32"
        }
      ],
      "stateMutability": "pure",
      "type": "function"
    },
    {
      "inputs": [
        {
          "internalType": "bytes",
          "name": "data",
          "type": "bytes"
        }
      ],
      "name": "getMethod",
      "outputs": [
        {
          "internalType": "bytes4",
          "name": "",
          "type": "bytes4"
        }
      ],
      "stateMutability": "pure",
      "type": "function"
    },
    {
      "inputs": [
        {
          "internalType": "bytes",
          "name": "data",
          "type": "bytes"
        }
      ],
      "name": "getParams",
      "outputs": [
        {
          "internalType": "bytes",
          "name": "",
          "type": "bytes"
        }
      ],
      "stateMutability": "pure",
      "type": "function"
    },
    {
      "inputs": [
        {
          "internalType": "bytes",
          "name": "data",
          "type": "bytes"
        },
        {
          "internalType": "uint256",
          "name": "offset",
          "type": "uint256"
        },
        {
          "internalType": "uint256",
          "name": "length",
          "type": "uint256"
        }
      ],
      "name": "read32",
      "outputs": [
        {
          "internalType": "bytes32",
          "name": "o",
          "type": "bytes32"
        }
      ],
      "stateMutability": "pure",
      "type": "function"
    },
    {
      "inputs": [
        {
          "internalType": "bytes",
          "name": "data",
          "type": "bytes"
        },
        {
          "internalType": "uint256",
          "name": "offset",
          "type": "uint256"
        }
      ],
      "name": "read4left",
      "outputs": [
        {
          "internalType": "bytes4",
          "name": "o",
          "type": "bytes4"
        }
      ],
      "stateMutability": "pure",
      "type": "function"
    },
    {
      "inputs": [
        {
          "internalType": "address",
          "name": "pool",
          "type": "address"
        },
        {
          "internalType": "address",
          "name": "asset",
          "type": "address"
        }
      ],
      "name": "removeAssetCheck",
      "outputs": [],
      "stateMutability": "view",
      "type": "function"
    },
    {
      "inputs": [
        {
          "internalType": "address",
          "name": "",
          "type": "address"
        },
        {
          "internalType": "address",
          "name": "",
          "type": "address"
        },
        {
          "internalType": "bytes",
          "name": "",
          "type": "bytes"
        }
      ],
      "name": "txGuard",
      "outputs": [
        {
          "internalType": "uint16",
          "name": "txType",
          "type": "uint16"
        },
        {
          "internalType": "bool",
          "name": "",
          "type": "bool"
        }
      ],
      "stateMutability": "pure",
      "type": "function"
    },
    {
      "inputs": [
        {
          "internalType": "address",
          "name": "pool",
          "type": "address"
        },
        {
          "internalType": "address",
          "name": "asset",
          "type": "address"
        },
        {
          "internalType": "uint256",
          "name": "portion",
          "type": "uint256"
        },
        {
          "internalType": "address",
          "name": "withdrawerAddress",
          "type": "address"
        }
      ],
      "name": "withdrawProcessing",
      "outputs": [
        {
          "internalType": "address",
          "name": "withdrawAsset",
          "type": "address"
        },
        {
          "internalType": "uint256",
          "name": "withdrawBalance",
          "type": "uint256"
        },
        {
          "components": [
            {
              "internalType": "address",
              "name": "to",
              "type": "address"
            },
            {
              "internalType": "bytes",
              "name": "txData",
              "type": "bytes"
            }
          ],
          "internalType": "struct IAssetGuard.MultiTransaction[]",
          "name": "transactions",
          "type": "tuple[]"
        }
      ],
      "stateMutability": "view",
      "type": "function"
    }
  ],
  "bytecode": "0x608060405234801561001057600080fd5b50611c39806100206000396000f3fe608060405234801561001057600080fd5b50600436106100c55760003560e01c806309ff5c7d146100ca5780631053f952146100f35780631eba307714610113578063293d80631461013357806341dc16c3146101535780636179309d1461016657806368901513146101875780636d5fae541461019a5780636f8ae202146101af57806382f86acc146101d1578063998546e3146101e4578063c3c6279f146101f7578063cf54aaa01461020a578063d4fac45d1461021d578063db896b5714610230575b600080fd5b6100dd6100d836600461181e565b610243565b6040516100ea9190611ac5565b60405180910390f35b610106610101366004611869565b6102d6565b6040516100ea9190611ae3565b610126610121366004611747565b61036e565b6040516100ea9190611a0a565b610146610141366004611791565b610375565b6040516100ea9190611ace565b6100dd6101613660046118bd565b6103d7565b61017961017436600461164f565b6104b5565b6040516100ea929190611b6c565b61010661019536600461175f565b6104c1565b6101ad6101a8366004611617565b6104dc565b005b6101c26101bd3660046116db565b610516565b6040516100ea93929190611a37565b6100dd6101df36600461181e565b610e95565b6100dd6101f236600461181e565b610eb3565b61014661020536600461175f565b610ee4565b6100dd6102183660046115df565b610ef1565b6100dd61022b366004611617565b610ef7565b6100dd61023e3660046117d3565b6110b9565b60008061025b848460200260040160ff1660206110b9565b9050600061026e856004840160206110b9565b9050806102b7576040805162461bcd60e51b8152602060048201526012602482015271696e707574206973206e6f7420617272617960701b604482015290519081900360640190fd5b6102cb8560208084028501600401906110b9565b925050505b92915050565b60606014821061031e576040805162461bcd60e51b815260206004820152600e60248201526d1a5b9d985b1a59081bd9999cd95d60921b604482015290519081900360640190fd5b816020029150600061033d85848660200260040160ff160160206110b9565b905060006103528685840160040160206110b9565b90506103648660248487010183611138565b9695505050505050565b805b919050565b600081600401835110156103ce576040805162461bcd60e51b815260206004820152601b60248201527a52656164696e67206279746573206f7574206f6620626f756e647360281b604482015290519081900360640190fd5b50016020015190565b6000806103ef858560200260040160ff1660206110b9565b90506000610402866004840160206110b9565b90508061044b576040805162461bcd60e51b8152602060048201526012602482015271696e707574206973206e6f7420617272617960701b604482015290519081900360640190fd5b60ff8416811161049b576040805162461bcd60e51b815260206004820152601660248201527534b73b30b634b21030b93930bc903837b9b4ba34b7b760511b604482015290519081900360640190fd5b610364866020600160ff88160181028501600401906110b9565b60008094509492505050565b60606102d0600480845103846111389092919063ffffffff16565b60006104e88383610ef7565b905080156105115760405162461bcd60e51b815260040161050890611b04565b60405180910390fd5b505050565b60008060606000866001600160a01b031663b9f4ff55896040518263ffffffff1660e01b81526004016105499190611a0a565b60206040518083038186803b15801561056157600080fd5b505afa158015610575573d6000803e3d6000fd5b505050506040513d601f19601f82011682018060405250810190610599919061172d565b905080156106685760408051600180825281830190925290816020015b6105be611504565b8152602001906001900390816105b657905050915086826000815181106105e157fe5b60209081029190910101516001600160a01b0390911690526040516307498a0f60e41b90610613908a90602401611a0a565b604051602081830303815290604052906001600160e01b0319166020820180516001600160e01b0383818316178352505050508260008151811061065357fe5b60200260200101516020018190525050610e8b565b60405163273efd3960e21b81526000906001600160a01b03891690639cfbf4e490610697908c90600401611a0a565b604080518083038186803b1580156106ae57600080fd5b505afa1580156106c2573d6000803e3d6000fd5b505050506040513d601f19601f820116820180604052508101906106e69190611930565b5090506000610707670de0b6b3a7640000610701848b611289565b906112e2565b90506000896001600160a01b03166304f3bcec6040518163ffffffff1660e01b815260040160206040518083038186803b15801561074457600080fd5b505afa158015610758573d6000803e3d6000fd5b505050506040513d601f19601f8201168201806040525081019061077c91906115fb565b6001600160a01b03166321f8a7216040518163ffffffff1660e01b81526004016107a590611b4b565b60206040518083038186803b1580156107bd57600080fd5b505afa1580156107d1573d6000803e3d6000fd5b505050506040513d601f19601f820116820180604052508101906107f591906115fb565b6001600160a01b0316638f20f2ea6040518163ffffffff1660e01b815260040160206040518083038186803b15801561082d57600080fd5b505afa158015610841573d6000803e3d6000fd5b505050506040513d601f19601f820116820180604052508101906108659190611918565b905060008a6001600160a01b03166355f575108d6040518263ffffffff1660e01b81526004016108959190611a0a565b60a06040518083038186803b1580156108ad57600080fd5b505afa1580156108c1573d6000803e3d6000fd5b505050506040513d601f19601f820116820180604052508101906108e59190611952565b94505050505080600f0b6000141580156109185750816109058585611346565b1080610918575089670de0b6b3a7640000145b15610a34576040805160028082526060820190925290816020015b61093b611504565b8152602001906001900390816109335790505095508a8660008151811061095e57fe5b6020908102919091018101516001600160a01b0390921690915260408051600481526024810190915290810180516001600160e01b031663c393d0e360e01b179052865187906000906109ad57fe5b6020026020010151602001819052508a866001815181106109ca57fe5b6020908102919091018101516001600160a01b0390921690915260408051600481526024810190915290810180516001600160e01b0316635a1cbd2b60e01b179052865187906001908110610a1b57fe5b6020026020010151602001819052505050505050610e8b565b6000610a56670de0b6b3a7640000610a50600f85900b8e6113a3565b9061144c565b604051631906652f60e01b8152600091820392506001600160a01b038e1690631906652f90610a89908590600401611ac5565b604080518083038186803b158015610aa057600080fd5b505afa158015610ab4573d6000803e3d6000fd5b505050506040513d601f19601f82011682018060405250810190610ad89190611930565b5090506000818611610aeb576000610af5565b610af58683611346565b905060008315610bc2576040805160038082526080820190925290816020015b610b1d611504565b815260200190600190039081610b155790505099508e8a8281518110610b3f57fe5b60209081029190910101516001600160a01b039091169052604051632f07449f60e01b90610b71908690602401611ac5565b604051602081830303815290604052906001600160e01b0319166020820180516001600160e01b0383818316178352505050508a8281518110610bb057fe5b60209081029190910181015101526001015b8115610e815780610c01576040805160028082526060820190925290816020015b610beb611504565b815260200190600190039081610be35790505099505b8e8a8281518110610c0e57fe5b60209081029190910101516001600160a01b039091169052604051631114790960e31b90610c4490600085900390602401611ac5565b604051602081830303815290604052906001600160e01b0319166020820180516001600160e01b0383818316178352505050508a8281518110610c8357fe5b6020026020010151602001819052508e6001600160a01b03166304f3bcec6040518163ffffffff1660e01b815260040160206040518083038186803b158015610ccb57600080fd5b505afa158015610cdf573d6000803e3d6000fd5b505050506040513d601f19601f82011682018060405250810190610d0391906115fb565b6001600160a01b031663514560616040518163ffffffff1660e01b8152600401610d2c90611b3b565b60206040518083038186803b158015610d4457600080fd5b505afa158015610d58573d6000803e3d6000fd5b505050506040513d601f19601f82011682018060405250810190610d7c91906115fb565b6001600160a01b031663ec5568896040518163ffffffff1660e01b815260040160206040518083038186803b158015610db457600080fd5b505afa158015610dc8573d6000803e3d6000fd5b505050506040513d601f19601f82011682018060405250810190610dec91906115fb565b8a8260010181518110610dfb57fe5b60209081029190910101516001600160a01b03909116905260405163a9059cbb60e01b90610e2f908f908590602401611a1e565b604051602081830303815290604052906001600160e01b0319166020820180516001600160e01b0383818316178352505050508a8260010181518110610e7157fe5b6020026020010151602001819052505b5050505050505050505b9450945094915050565b6000610eac838360200260040160ff1660206110b9565b9392505050565b600080610ecb848460200260040160ff1660206110b9565b9050610edc846004830160206110b9565b949350505050565b60006102d0826000610375565b50601290565b60405163273efd3960e21b815260009082906001600160a01b03821690639cfbf4e490610f28908790600401611a0a565b604080518083038186803b158015610f3f57600080fd5b505afa158015610f53573d6000803e3d6000fd5b505050506040513d601f19601f82011682018060405250810190610f779190611930565b5060405163055f575160e41b81529092506000906001600160a01b038316906355f5751090610faa908890600401611a0a565b60a06040518083038186803b158015610fc257600080fd5b505afa158015610fd6573d6000803e3d6000fd5b505050506040513d601f19601f82011682018060405250810190610ffa9190611952565b94505050505080600f0b6000146110b157604051631906652f60e01b81526000906001600160a01b03841690631906652f9061103c9085850390600401611af6565b604080518083038186803b15801561105357600080fd5b505afa158015611067573d6000803e3d6000fd5b505050506040513d601f19601f8201168201806040525081019061108b9190611930565b5090508381116110a45761109f8482611346565b6110a7565b60005b93505050506102d0565b505092915050565b600081830184511015611111576040805162461bcd60e51b815260206004820152601b60248201527a52656164696e67206279746573206f7574206f6620626f756e647360281b604482015290519081900360640190fd5b826020018401519050816020038015611130576008810260020a820491505b509392505050565b60608182601f011015611183576040805162461bcd60e51b815260206004820152600e60248201526d736c6963655f6f766572666c6f7760901b604482015290519081900360640190fd5b8282840110156111cb576040805162461bcd60e51b815260206004820152600e60248201526d736c6963655f6f766572666c6f7760901b604482015290519081900360640190fd5b81830184511015611217576040805162461bcd60e51b8152602060048201526011602482015270736c6963655f6f75744f66426f756e647360781b604482015290519081900360640190fd5b6060821580156112365760405191506000825260208201604052611280565b6040519150601f8416801560200281840101858101878315602002848b0101015b8183101561126f578051835260209283019201611257565b5050858452601f01601f1916604052505b50949350505050565b600082611298575060006102d0565b828202828482816112a557fe5b0414610eac5760405162461bcd60e51b8152600401808060200182810382526021815260200180611bbc6021913960400191505060405180910390fd5b6000808211611335576040805162461bcd60e51b815260206004820152601a602482015279536166654d6174683a206469766973696f6e206279207a65726f60301b604482015290519081900360640190fd5b81838161133e57fe5b049392505050565b60008282111561139d576040805162461bcd60e51b815260206004820152601e60248201527f536166654d6174683a207375627472616374696f6e206f766572666c6f770000604482015290519081900360640190fd5b50900390565b6000826113b2575060006102d0565b826000191480156113c65750600160ff1b82145b156114025760405162461bcd60e51b8152600401808060200182810382526027815260200180611bdd6027913960400191505060405180910390fd5b8282028284828161140f57fe5b0514610eac5760405162461bcd60e51b8152600401808060200182810382526027815260200180611bdd6027913960400191505060405180910390fd5b6000816114a0576040805162461bcd60e51b815260206004820181905260248201527f5369676e6564536166654d6174683a206469766973696f6e206279207a65726f604482015290519081900360640190fd5b816000191480156114b45750600160ff1b83145b156114f05760405162461bcd60e51b8152600401808060200182810382526021815260200180611b9b6021913960400191505060405180910390fd5b60008284816114fb57fe5b05949350505050565b60408051808201909152600081526060602082015290565b8051801515811461037057600080fd5b600082601f83011261153c578081fd5b81356001600160401b038082111561155057fe5b604051601f8301601f19168101602001828111828210171561156e57fe5b604052828152848301602001861015611585578384fd5b82602086016020830137918201602001929092529392505050565b80516001600160801b038116811461037057600080fd5b80516001600160401b038116811461037057600080fd5b803560ff8116811461037057600080fd5b6000602082840312156115f0578081fd5b8135610eac81611b82565b60006020828403121561160c578081fd5b8151610eac81611b82565b60008060408385031215611629578081fd5b823561163481611b82565b9150602083013561164481611b82565b809150509250929050565b60008060008060608587031215611664578182fd5b843561166f81611b82565b9350602085013561167f81611b82565b925060408501356001600160401b038082111561169a578384fd5b818701915087601f8301126116ad578384fd5b8135818111156116bb578485fd5b8860208285010111156116cc578485fd5b95989497505060200194505050565b600080600080608085870312156116f0578384fd5b84356116fb81611b82565b9350602085013561170b81611b82565b925060408501359150606085013561172281611b82565b939692955090935050565b60006020828403121561173e578081fd5b610eac8261151c565b600060208284031215611758578081fd5b5035919050565b600060208284031215611770578081fd5b81356001600160401b03811115611785578182fd5b610edc8482850161152c565b600080604083850312156117a3578182fd5b82356001600160401b038111156117b8578283fd5b6117c48582860161152c565b95602094909401359450505050565b6000806000606084860312156117e7578283fd5b83356001600160401b038111156117fc578384fd5b6118088682870161152c565b9660208601359650604090950135949350505050565b60008060408385031215611830578182fd5b82356001600160401b03811115611845578283fd5b6118518582860161152c565b925050611860602084016115ce565b90509250929050565b60008060006060848603121561187d578081fd5b83356001600160401b03811115611892578182fd5b61189e8682870161152c565b9350506118ad602085016115ce565b9150604084013590509250925092565b6000806000606084860312156118d1578081fd5b83356001600160401b038111156118e6578182fd5b6118f28682870161152c565b935050611901602085016115ce565b915061190f604085016115ce565b90509250925092565b600060208284031215611929578081fd5b5051919050565b60008060408385031215611942578182fd5b825191506118606020840161151c565b600080600080600060a08688031215611969578283fd5b611972866115b7565b9450611980602087016115b7565b935061198e604087016115a0565b925061199c606087016115a0565b9150608086015180600f0b81146119b1578182fd5b809150509295509295909350565b60008151808452815b818110156119e4576020818501810151868301820152016119c8565b818111156119f55782602083870101525b50601f01601f19169290920160200192915050565b6001600160a01b0391909116815260200190565b6001600160a01b03929092168252602082015260400190565b60006060820160018060a01b03808716845260208681860152604060608187015283875180865260808801915060808482028901019550838901875b82811015611ab457898803607f190184528151805188168952860151868901869052611aa1868a01826119bf565b9850509285019290850190600101611a73565b50959b9a5050505050505050505050565b90815260200190565b6001600160e01b031991909116815260200190565b600060208252610eac60208301846119bf565b600f9190910b815260200190565b6020808252601d908201527f63616e6e6f742072656d6f7665206e6f6e2d656d707479206173736574000000604082015260600190565b631cd554d160e21b815260200190565b74467574757265734d61726b657453657474696e677360581b815260200190565b61ffff9290921682521515602082015260400190565b6001600160a01b0381168114611b9757600080fd5b5056fe5369676e6564536166654d6174683a206469766973696f6e206f766572666c6f77536166654d6174683a206d756c7469706c69636174696f6e206f766572666c6f775369676e6564536166654d6174683a206d756c7469706c69636174696f6e206f766572666c6f77a2646970667358221220d69177a0cd281dd75758a7da4fd0e4ed79a03c8246c9940e6141041c686d761464736f6c63430007060033",
  "linkReferences": {},
  "deployedLinkReferences": {}
}