{
  "_format": "hh-sol-artifact-1",
  "contractName": "SynthetixPerpsV2MarketContractGuard",
  "sourceName": "contracts/guards/contractGuards/SynthetixPerpsV2MarketContractGuard.sol",
  "abi": [
    {
      "inputs": [
        {
          "internalType": "address",
          "name": "_susdProxy",
          "type": "address"
        },
        {
          "internalType": "address[]",
          "name": "_whitelistedDHedgePools",
          "type": "address[]"
        }
      ],
      "stateMutability": "nonpayable",
      "type": "constructor"
    },
    {
      "anonymous": false,
      "inputs": [
        {
          "indexed": false,
          "internalType": "address",
          "name": "fundAddress",
          "type": "address"
        },
        {
          "indexed": false,
          "internalType": "address",
          "name": "sourceAsset",
          "type": "address"
        },
        {
          "indexed": false,
          "internalType": "uint256",
          "name": "sourceAmount",
          "type": "uint256"
        },
        {
          "indexed": false,
          "internalType": "address",
          "name": "dstAsset",
          "type": "address"
        },
        {
          "indexed": false,
          "internalType": "uint256",
          "name": "time",
          "type": "uint256"
        }
      ],
      "name": "ExchangeFrom",
      "type": "event"
    },
    {
      "anonymous": false,
      "inputs": [
        {
          "indexed": false,
          "internalType": "address",
          "name": "fundAddress",
          "type": "address"
        },
        {
          "indexed": false,
          "internalType": "address",
          "name": "sourceAsset",
          "type": "address"
        },
        {
          "indexed": false,
          "internalType": "address",
          "name": "dstAsset",
          "type": "address"
        },
        {
          "indexed": false,
          "internalType": "uint256",
          "name": "dstAmount",
          "type": "uint256"
        },
        {
          "indexed": false,
          "internalType": "uint256",
          "name": "time",
          "type": "uint256"
        }
      ],
      "name": "ExchangeTo",
      "type": "event"
    },
    {
      "anonymous": false,
      "inputs": [
        {
          "indexed": false,
          "internalType": "address",
          "name": "fundAddress",
          "type": "address"
        },
        {
          "indexed": false,
          "internalType": "address",
          "name": "perpsV2Market",
          "type": "address"
        }
      ],
      "name": "PerpsV2MarketEvent",
      "type": "event"
    },
    {
      "inputs": [],
      "name": "MAX_LEVERAGE",
      "outputs": [
        {
          "internalType": "uint256",
          "name": "",
          "type": "uint256"
        }
      ],
      "stateMutability": "view",
      "type": "function"
    },
    {
      "inputs": [
        {
          "internalType": "bytes32",
          "name": "data",
          "type": "bytes32"
        }
      ],
      "name": "convert32toAddress",
      "outputs": [
        {
          "internalType": "address",
          "name": "o",
          "type": "address"
        }
      ],
      "stateMutability": "pure",
      "type": "function"
    },
    {
      "inputs": [
        {
          "internalType": "bytes",
          "name": "data",
          "type": "bytes"
        },
        {
          "internalType": "uint8",
          "name": "inputNum",
          "type": "uint8"
        },
        {
          "internalType": "uint8",
          "name": "arrayIndex",
          "type": "uint8"
        }
      ],
      "name": "getArrayIndex",
      "outputs": [
        {
          "internalType": "bytes32",
          "name": "",
          "type": "bytes32"
        }
      ],
      "stateMutability": "pure",
      "type": "function"
    },
    {
      "inputs": [
        {
          "internalType": "bytes",
          "name": "data",
          "type": "bytes"
        },
        {
          "internalType": "uint8",
          "name": "inputNum",
          "type": "uint8"
        }
      ],
      "name": "getArrayLast",
      "outputs": [
        {
          "internalType": "bytes32",
          "name": "",
          "type": "bytes32"
        }
      ],
      "stateMutability": "pure",
      "type": "function"
    },
    {
      "inputs": [
        {
          "internalType": "bytes",
          "name": "data",
          "type": "bytes"
        },
        {
          "internalType": "uint8",
          "name": "inputNum",
          "type": "uint8"
        }
      ],
      "name": "getArrayLength",
      "outputs": [
        {
          "internalType": "uint256",
          "name": "",
          "type": "uint256"
        }
      ],
      "stateMutability": "pure",
      "type": "function"
    },
    {
      "inputs": [
        {
          "internalType": "bytes",
          "name": "data",
          "type": "bytes"
        },
        {
          "internalType": "uint8",
          "name": "inputNum",
          "type": "uint8"
        },
        {
          "internalType": "uint256",
          "name": "offset",
          "type": "uint256"
        }
      ],
      "name": "getBytes",
      "outputs": [
        {
          "internalType": "bytes",
          "name": "",
          "type": "bytes"
        }
      ],
      "stateMutability": "pure",
      "type": "function"
    },
    {
      "inputs": [
        {
          "internalType": "bytes",
          "name": "data",
          "type": "bytes"
        },
        {
          "internalType": "uint8",
          "name": "inputNum",
          "type": "uint8"
        }
      ],
      "name": "getInput",
      "outputs": [
        {
          "internalType": "bytes32",
          "name": "",
          "type": "bytes32"
        }
      ],
      "stateMutability": "pure",
      "type": "function"
    },
    {
      "inputs": [
        {
          "internalType": "bytes",
          "name": "data",
          "type": "bytes"
        }
      ],
      "name": "getMethod",
      "outputs": [
        {
          "internalType": "bytes4",
          "name": "",
          "type": "bytes4"
        }
      ],
      "stateMutability": "pure",
      "type": "function"
    },
    {
      "inputs": [
        {
          "internalType": "bytes",
          "name": "data",
          "type": "bytes"
        }
      ],
      "name": "getParams",
      "outputs": [
        {
          "internalType": "bytes",
          "name": "",
          "type": "bytes"
        }
      ],
      "stateMutability": "pure",
      "type": "function"
    },
    {
      "inputs": [
        {
          "internalType": "address",
          "name": "",
          "type": "address"
        }
      ],
      "name": "isPoolWhitelisted",
      "outputs": [
        {
          "internalType": "bool",
          "name": "",
          "type": "bool"
        }
      ],
      "stateMutability": "view",
      "type": "function"
    },
    {
      "inputs": [
        {
          "internalType": "bytes",
          "name": "data",
          "type": "bytes"
        },
        {
          "internalType": "uint256",
          "name": "offset",
          "type": "uint256"
        },
        {
          "internalType": "uint256",
          "name": "length",
          "type": "uint256"
        }
      ],
      "name": "read32",
      "outputs": [
        {
          "internalType": "bytes32",
          "name": "o",
          "type": "bytes32"
        }
      ],
      "stateMutability": "pure",
      "type": "function"
    },
    {
      "inputs": [
        {
          "internalType": "bytes",
          "name": "data",
          "type": "bytes"
        },
        {
          "internalType": "uint256",
          "name": "offset",
          "type": "uint256"
        }
      ],
      "name": "read4left",
      "outputs": [
        {
          "internalType": "bytes4",
          "name": "o",
          "type": "bytes4"
        }
      ],
      "stateMutability": "pure",
      "type": "function"
    },
    {
      "inputs": [],
      "name": "susdProxy",
      "outputs": [
        {
          "internalType": "address",
          "name": "",
          "type": "address"
        }
      ],
      "stateMutability": "view",
      "type": "function"
    },
    {
      "inputs": [
        {
          "internalType": "address",
          "name": "_poolManagerLogic",
          "type": "address"
        },
        {
          "internalType": "address",
          "name": "to",
          "type": "address"
        },
        {
          "internalType": "bytes",
          "name": "data",
          "type": "bytes"
        }
      ],
      "name": "txGuard",
      "outputs": [
        {
          "internalType": "uint16",
          "name": "txType",
          "type": "uint16"
        },
        {
          "internalType": "bool",
          "name": "",
          "type": "bool"
        }
      ],
      "stateMutability": "nonpayable",
      "type": "function"
    }
  ],
  "bytecode": "0x60a06040523480156200001157600080fd5b5060405162001617380380620016178339810160408190526200003491620000c6565b6001600160601b0319606083901b1660805260005b8151811015620000a05760016000808484815181106200006557fe5b6020908102919091018101516001600160a01b03168252810191909152604001600020805460ff191691151591909117905560010162000049565b5050506200019b565b80516001600160a01b0381168114620000c157600080fd5b919050565b60008060408385031215620000d9578182fd5b620000e483620000a9565b602084810151919350906001600160401b038082111562000103578384fd5b818601915086601f83011262000117578384fd5b8151818111156200012457fe5b838102604051858282010181811085821117156200013e57fe5b604052828152858101935084860182860187018b10156200015d578788fd5b8795505b838610156200018a576200017581620000a9565b85526001959095019493860193860162000161565b508096505050505050509250929050565b60805160601c611459620001be6000398061061552806108c452506114596000f3fe608060405234801561001057600080fd5b50600436106100ba5760003560e01c806309ff5c7d146100bf5780631053f952146100e85780631eba307714610108578063293d8063146101285780632b26a9821461014857806341dc16c3146101685780636179309d1461017b578063689015131461019c57806369d8ff10146101af57806382f86acc146101b7578063998546e3146101ca5780639b45ec97146101dd578063c3c6279f146101e5578063db896b57146101f8575b600080fd5b6100d26100cd36600461107b565b61020b565b6040516100df9190611275565b60405180910390f35b6100fb6100f63660046110c6565b61029e565b6040516100df9190611293565b61011b610116366004610fa4565b610336565b6040516100df919061123c565b61013b610136366004610fee565b61033d565b6040516100df919061127e565b61015b610156366004610ec6565b61039f565b6040516100df919061126a565b6100d261017636600461111a565b6103b4565b61018e610189366004610efe565b610492565b6040516100df9291906113b3565b6100fb6101aa366004610fbc565b6108a7565b61011b6108c2565b6100d26101c536600461107b565b6108e6565b6100d26101d836600461107b565b610904565b6100d2610935565b61013b6101f3366004610fbc565b610941565b6100d2610206366004611030565b61094e565b600080610223848460200260040160ff16602061094e565b905060006102368560048401602061094e565b90508061027f576040805162461bcd60e51b8152602060048201526012602482015271696e707574206973206e6f7420617272617960701b604482015290519081900360640190fd5b61029385602080840285016004019061094e565b925050505b92915050565b6060601482106102e6576040805162461bcd60e51b815260206004820152600e60248201526d1a5b9d985b1a59081bd9999cd95d60921b604482015290519081900360640190fd5b816020029150600061030585848660200260040160ff1601602061094e565b9050600061031a86858401600401602061094e565b905061032c86602484870101836109cd565b9695505050505050565b805b919050565b60008160040183511015610396576040805162461bcd60e51b815260206004820152601b60248201527a52656164696e67206279746573206f7574206f6620626f756e647360281b604482015290519081900360640190fd5b50016020015190565b60006020819052908152604090205460ff1681565b6000806103cc858560200260040160ff16602061094e565b905060006103df8660048401602061094e565b905080610428576040805162461bcd60e51b8152602060048201526012602482015271696e707574206973206e6f7420617272617960701b604482015290519081900360640190fd5b60ff84168111610478576040805162461bcd60e51b815260206004820152601660248201527534b73b30b634b21030b93930bc903837b9b4ba34b7b760511b604482015290519081900360640190fd5b61032c866020600160ff881601810285016004019061094e565b60008060006104d685858080601f01602080910402602001604051908101604052809392919081815260200183838082843760009201919091525061094192505050565b90506000876001600160a01b03166339b81fd96040518163ffffffff1660e01b815260040160206040518083038186803b15801561051357600080fd5b505afa158015610527573d6000803e3d6000fd5b505050506040513d601f19601f8201168201806040525081019061054b9190610ee2565b604051634df48c7360e11b815290915088906001600160a01b03821690639be918e69061057c908b9060040161123c565b60206040518083038186803b15801561059457600080fd5b505afa1580156105a8573d6000803e3d6000fd5b505050506040513d601f19601f820116820180604052508101906105cc9190610f8a565b6105f15760405162461bcd60e51b81526004016105e890611354565b60405180910390fd5b604051634df48c7360e11b81526001600160a01b03821690639be918e69061063d907f00000000000000000000000000000000000000000000000000000000000000009060040161123c565b60206040518083038186803b15801561065557600080fd5b505afa158015610669573d6000803e3d6000fd5b505050506040513d601f19601f8201168201806040525081019061068d9190610f8a565b6106a95760405162461bcd60e51b81526004016105e89061137f565b6001600160e01b0319831663a1c35a3560e01b141561079e576001600160a01b03821660009081526020819052604090205460ff166106fa5760405162461bcd60e51b81526004016105e8906112e6565b600061073b88888080601f0160208091040260200160405190810160405280939291908181526020018383808284376000920191909152506108a792505050565b80602001905181019061074e9190611175565b905061075b838a83610b1e565b7f3c098e8eb1fb4273e99eee5d68bddc5fc03f012203219538c602f7adf22ad28b838a60405161078c929190611250565b60405180910390a16023955050610897565b6001600160e01b031983166385f05ab560e01b14156107ef576001600160a01b03821660009081526020819052604090205460ff166106fa5760405162461bcd60e51b81526004016105e8906112e6565b6001600160e01b03198316631114790960e31b148061081e57506001600160e01b03198316635a1cbd2b60e01b145b8061083957506001600160e01b0319831663c70b41e960e01b145b8061085457506001600160e01b03198316636e672c0360e11b145b15610897577f3c098e8eb1fb4273e99eee5d68bddc5fc03f012203219538c602f7adf22ad28b828960405161088a929190611250565b60405180910390a1602394505b5060009250505094509492505050565b6060610298600480845103846109cd9092919063ffffffff16565b7f000000000000000000000000000000000000000000000000000000000000000081565b60006108fd838360200260040160ff16602061094e565b9392505050565b60008061091c848460200260040160ff16602061094e565b905061092d8460048301602061094e565b949350505050565b6722b1c8c1227a000081565b600061029882600061033d565b6000818301845110156109a6576040805162461bcd60e51b815260206004820152601b60248201527a52656164696e67206279746573206f7574206f6620626f756e647360281b604482015290519081900360640190fd5b8260200184015190508160200380156109c5576008810260020a820491505b509392505050565b60608182601f011015610a18576040805162461bcd60e51b815260206004820152600e60248201526d736c6963655f6f766572666c6f7760901b604482015290519081900360640190fd5b828284011015610a60576040805162461bcd60e51b815260206004820152600e60248201526d736c6963655f6f766572666c6f7760901b604482015290519081900360640190fd5b81830184511015610aac576040805162461bcd60e51b8152602060048201526011602482015270736c6963655f6f75744f66426f756e647360781b604482015290519081900360640190fd5b606082158015610acb5760405191506000825260208201604052610b15565b6040519150601f8416801560200281840101858101878315602002848b0101015b81831015610b04578051835260209283019201610aec565b5050858452601f01601f1916604052505b50949350505050565b60405163055f575160e41b81526000906001600160a01b038416906355f5751090610b4d90879060040161123c565b60a06040518083038186803b158015610b6557600080fd5b505afa158015610b79573d6000803e3d6000fd5b505050506040513d601f19601f82011682018060405250810190610b9d919061118d565b9050600080610bbc848460800151600f0b610ce190919063ffffffff16565b90506000856001600160a01b031663ea9f9aa7866040518263ffffffff1660e01b8152600401610bec9190611275565b604080518083038186803b158015610c0357600080fd5b505afa158015610c17573d6000803e3d6000fd5b505050506040513d601f19601f82011682018060405250810190610c3b919061121a565b50905060008212610c6957610c62670de0b6b3a7640000610c5c8484610d46565b90610d9f565b9250610c86565b610c83670de0b6b3a7640000610c5c600085900384610d46565b92505b610cba670de0b6b3a7640000610c5c6722b1c8c1227a000087604001516001600160801b0316610d4690919063ffffffff16565b8310610cd85760405162461bcd60e51b81526004016105e89061131d565b50505050505050565b6000828201818312801590610cf65750838112155b80610d0b5750600083128015610d0b57508381125b6108fd5760405162461bcd60e51b81526004018080602001828103825260218152602001806113e26021913960400191505060405180910390fd5b600082610d5557506000610298565b82820282848281610d6257fe5b04146108fd5760405162461bcd60e51b81526004018080602001828103825260218152602001806114036021913960400191505060405180910390fd5b6000808211610df2576040805162461bcd60e51b815260206004820152601a602482015279536166654d6174683a206469766973696f6e206279207a65726f60301b604482015290519081900360640190fd5b818381610dfb57fe5b049392505050565b8051801515811461033857600080fd5b600082601f830112610e23578081fd5b81356001600160401b0380821115610e3757fe5b604051601f8301601f191681016020018281118282101715610e5557fe5b604052828152848301602001861015610e6c578384fd5b82602086016020830137918201602001929092529392505050565b80516001600160801b038116811461033857600080fd5b80516001600160401b038116811461033857600080fd5b803560ff8116811461033857600080fd5b600060208284031215610ed7578081fd5b81356108fd816113c9565b600060208284031215610ef3578081fd5b81516108fd816113c9565b60008060008060608587031215610f13578283fd5b8435610f1e816113c9565b93506020850135610f2e816113c9565b925060408501356001600160401b0380821115610f49578384fd5b818701915087601f830112610f5c578384fd5b813581811115610f6a578485fd5b886020828501011115610f7b578485fd5b95989497505060200194505050565b600060208284031215610f9b578081fd5b6108fd82610e03565b600060208284031215610fb5578081fd5b5035919050565b600060208284031215610fcd578081fd5b81356001600160401b03811115610fe2578182fd5b61092d84828501610e13565b60008060408385031215611000578182fd5b82356001600160401b03811115611015578283fd5b61102185828601610e13565b95602094909401359450505050565b600080600060608486031215611044578283fd5b83356001600160401b03811115611059578384fd5b61106586828701610e13565b9660208601359650604090950135949350505050565b6000806040838503121561108d578182fd5b82356001600160401b038111156110a2578283fd5b6110ae85828601610e13565b9250506110bd60208401610eb5565b90509250929050565b6000806000606084860312156110da578283fd5b83356001600160401b038111156110ef578384fd5b6110fb86828701610e13565b93505061110a60208501610eb5565b9150604084013590509250925092565b60008060006060848603121561112e578081fd5b83356001600160401b03811115611143578182fd5b61114f86828701610e13565b93505061115e60208501610eb5565b915061116c60408501610eb5565b90509250925092565b600060208284031215611186578081fd5b5051919050565b600060a0828403121561119e578081fd5b60405160a081018181106001600160401b03821117156111ba57fe5b6040526111c683610e9e565b81526111d460208401610e9e565b60208201526111e560408401610e87565b60408201526111f660608401610e87565b6060820152608083015180600f0b811461120e578283fd5b60808201529392505050565b6000806040838503121561122c578182fd5b825191506110bd60208401610e03565b6001600160a01b0391909116815260200190565b6001600160a01b0392831681529116602082015260400190565b901515815260200190565b90815260200190565b6001600160e01b031991909116815260200190565b6000602080835283518082850152825b818110156112bf578581018301518582016040015282016112a3565b818111156112d05783604083870101525b50601f01601f1916929092016040019392505050565b6020808252601e908201527f706f6f6c206e6f742077686974656c697374656420666f722070657270730000604082015260600190565b6020808252601f908201527f6c65766572616765206d757374206265206c657373207468616e20322e357800604082015260600190565b6020808252601190820152701d5b9cdd5c1c1bdc9d195908185cdcd95d607a1b604082015260600190565b6020808252601a90820152791cdd5cd9081b5d5cdd08189948195b98589b195908185cdcd95d60321b604082015260600190565b61ffff9290921682521515602082015260400190565b6001600160a01b03811681146113de57600080fd5b5056fe5369676e6564536166654d6174683a206164646974696f6e206f766572666c6f77536166654d6174683a206d756c7469706c69636174696f6e206f766572666c6f77a2646970667358221220370ea8de56c52a6176551cccda5c8ae6582e66d14ee77c15bf369cf2e17d28ea64736f6c63430007060033",
  "linkReferences": {},
  "deployedLinkReferences": {}
}