{
  "_format": "hh-sol-artifact-1",
  "contractName": "MaticXPriceAggregator",
  "sourceName": "contracts/priceAggregators/MaticXPriceAggregator.sol",
  "abi": [
    {
      "inputs": [
        {
          "internalType": "address",
          "name": "_matic",
          "type": "address"
        },
        {
          "internalType": "address",
          "name": "_maticX",
          "type": "address"
        },
        {
          "internalType": "address",
          "name": "_maticXPool",
          "type": "address"
        },
        {
          "internalType": "address",
          "name": "_factory",
          "type": "address"
        }
      ],
      "stateMutability": "nonpayable",
      "type": "constructor"
    },
    {
      "inputs": [],
      "name": "decimals",
      "outputs": [
        {
          "internalType": "uint8",
          "name": "",
          "type": "uint8"
        }
      ],
      "stateMutability": "pure",
      "type": "function"
    },
    {
      "inputs": [],
      "name": "factory",
      "outputs": [
        {
          "internalType": "address",
          "name": "",
          "type": "address"
        }
      ],
      "stateMutability": "view",
      "type": "function"
    },
    {
      "inputs": [],
      "name": "latestRoundData",
      "outputs": [
        {
          "internalType": "uint80",
          "name": "",
          "type": "uint80"
        },
        {
          "internalType": "int256",
          "name": "",
          "type": "int256"
        },
        {
          "internalType": "uint256",
          "name": "",
          "type": "uint256"
        },
        {
          "internalType": "uint256",
          "name": "",
          "type": "uint256"
        },
        {
          "internalType": "uint80",
          "name": "",
          "type": "uint80"
        }
      ],
      "stateMutability": "view",
      "type": "function"
    },
    {
      "inputs": [],
      "name": "matic",
      "outputs": [
        {
          "internalType": "address",
          "name": "",
          "type": "address"
        }
      ],
      "stateMutability": "view",
      "type": "function"
    },
    {
      "inputs": [],
      "name": "maticX",
      "outputs": [
        {
          "internalType": "address",
          "name": "",
          "type": "address"
        }
      ],
      "stateMutability": "view",
      "type": "function"
    },
    {
      "inputs": [],
      "name": "maticXPool",
      "outputs": [
        {
          "internalType": "address",
          "name": "",
          "type": "address"
        }
      ],
      "stateMutability": "view",
      "type": "function"
    }
  ],
  "bytecode": "0x608060405234801561001057600080fd5b506040516105d33803806105d38339818101604052608081101561003357600080fd5b50805160208201516040830151606090930151919290916001600160a01b0384166100a5576040805162461bcd60e51b815260206004820152601a60248201527f5f6d6174696320616464726573732063616e6e6f742062652030000000000000604482015290519081900360640190fd5b6001600160a01b038316610100576040805162461bcd60e51b815260206004820152601b60248201527f5f6d617469635820616464726573732063616e6e6f7420626520300000000000604482015290519081900360640190fd5b6001600160a01b03821661015b576040805162461bcd60e51b815260206004820152601f60248201527f5f6d6174696358506f6f6c20616464726573732063616e6e6f74206265203000604482015290519081900360640190fd5b6001600160a01b0381166101b6576040805162461bcd60e51b815260206004820152601c60248201527f5f666163746f727920616464726573732063616e6e6f74206265203000000000604482015290519081900360640190fd5b600080546001600160a01b039586166001600160a01b03199182161790915560018054948616948216949094179093556002805492851692841692909217909155600380549190931691161790556103c0806102136000396000f3fe608060405234801561001057600080fd5b50600436106100625760003560e01c806302ee037014610067578063313ce5671461008b5780635cb533b4146100a9578063b6b0b097146100b1578063c45a0155146100b9578063feaf968c146100c1575b600080fd5b61006f61010d565b604080516001600160a01b039092168252519081900360200190f35b61009361011c565b6040805160ff9092168252519081900360200190f35b61006f610121565b61006f610130565b61006f61013f565b6100c961014e565b60405180866001600160501b03168152602001858152602001848152602001838152602001826001600160501b031681526020019550505050505060405180910390f35b6002546001600160a01b031681565b600890565b6001546001600160a01b031681565b6000546001600160a01b031681565b6003546001600160a01b031681565b60008060008060008061015f61021e565b600254604080516375a85ef560e01b8152670de0b6b3a7640000600482015290519293506000926001600160a01b03909216916375a85ef591602480820192602092909190829003018186803b1580156101b857600080fd5b505afa1580156101cc573d6000803e3d6000fd5b505050506040513d60208110156101e257600080fd5b5051905060006102086b204fce5e3e2502611000000061020285856102a3565b90610305565b6000999098508997504296508795509350505050565b600354600080546040805163b3596f0760e01b81526001600160a01b03928316600482015290519293919091169163b3596f0791602480820192602092909190829003018186803b15801561027257600080fd5b505afa158015610286573d6000803e3d6000fd5b505050506040513d602081101561029c57600080fd5b5051905090565b6000826102b2575060006102ff565b828202828482816102bf57fe5b04146102fc5760405162461bcd60e51b815260040180806020018281038252602181526020018061036a6021913960400191505060405180910390fd5b90505b92915050565b6000808211610358576040805162461bcd60e51b815260206004820152601a602482015279536166654d6174683a206469766973696f6e206279207a65726f60301b604482015290519081900360640190fd5b81838161036157fe5b04939250505056fe536166654d6174683a206d756c7469706c69636174696f6e206f766572666c6f77a2646970667358221220f5afa7cb372da812c34c3808e56b246f3230c6c1f9e2aceca9764c3d245f308164736f6c63430007060033",
  "linkReferences": {},
  "deployedLinkReferences": {}
}