{
  "_format": "hh-sol-artifact-1",
  "contractName": "UniswapV3PriceLibrary",
  "sourceName": "contracts/utils/uniswap/UniswapV3PriceLibrary.sol",
  "abi": [
    {
      "inputs": [],
      "name": "MIN_THRESHOLD",
      "outputs": [
        {
          "internalType": "uint24",
          "name": "",
          "type": "uint24"
        }
      ],
      "stateMutability": "view",
      "type": "function"
    }
  ],
  "bytecode": "0x6092610024600b82828239805160001a607314601757fe5b30600052607381538281f3fe730000000000000000000000000000000000000000301460806040526004361060335760003560e01c8063bd11c4c0146038575b600080fd5b603e6056565b6040805162ffffff9092168252519081900360200190f35b610bb88156fea2646970667358221220626873e289d6818b94832124c5e3899da48af0ff0387fe78391a43478bbf09cc64736f6c63430007060033",
  "linkReferences": {},
  "deployedLinkReferences": {}
}