{
  "_format": "hh-sol-artifact-1",
  "contractName": "BalancerV2GaugeAssetGuard",
  "sourceName": "contracts/guards/assetGuards/BalancerV2GaugeAssetGuard.sol",
  "abi": [
    {
      "anonymous": false,
      "inputs": [
        {
          "indexed": false,
          "internalType": "address",
          "name": "fundAddress",
          "type": "address"
        },
        {
          "indexed": false,
          "internalType": "address",
          "name": "manager",
          "type": "address"
        },
        {
          "indexed": false,
          "internalType": "address",
          "name": "spender",
          "type": "address"
        },
        {
          "indexed": false,
          "internalType": "uint256",
          "name": "amount",
          "type": "uint256"
        },
        {
          "indexed": false,
          "internalType": "uint256",
          "name": "time",
          "type": "uint256"
        }
      ],
      "name": "Approve",
      "type": "event"
    },
    {
      "anonymous": false,
      "inputs": [
        {
          "indexed": false,
          "internalType": "address",
          "name": "fundAddress",
          "type": "address"
        },
        {
          "indexed": false,
          "internalType": "address",
          "name": "sourceAsset",
          "type": "address"
        },
        {
          "indexed": false,
          "internalType": "uint256",
          "name": "sourceAmount",
          "type": "uint256"
        },
        {
          "indexed": false,
          "internalType": "address",
          "name": "dstAsset",
          "type": "address"
        },
        {
          "indexed": false,
          "internalType": "uint256",
          "name": "time",
          "type": "uint256"
        }
      ],
      "name": "ExchangeFrom",
      "type": "event"
    },
    {
      "anonymous": false,
      "inputs": [
        {
          "indexed": false,
          "internalType": "address",
          "name": "fundAddress",
          "type": "address"
        },
        {
          "indexed": false,
          "internalType": "address",
          "name": "sourceAsset",
          "type": "address"
        },
        {
          "indexed": false,
          "internalType": "address",
          "name": "dstAsset",
          "type": "address"
        },
        {
          "indexed": false,
          "internalType": "uint256",
          "name": "dstAmount",
          "type": "uint256"
        },
        {
          "indexed": false,
          "internalType": "uint256",
          "name": "time",
          "type": "uint256"
        }
      ],
      "name": "ExchangeTo",
      "type": "event"
    },
    {
      "inputs": [
        {
          "internalType": "bytes32",
          "name": "data",
          "type": "bytes32"
        }
      ],
      "name": "convert32toAddress",
      "outputs": [
        {
          "internalType": "address",
          "name": "o",
          "type": "address"
        }
      ],
      "stateMutability": "pure",
      "type": "function"
    },
    {
      "inputs": [
        {
          "internalType": "bytes",
          "name": "data",
          "type": "bytes"
        },
        {
          "internalType": "uint8",
          "name": "inputNum",
          "type": "uint8"
        },
        {
          "internalType": "uint8",
          "name": "arrayIndex",
          "type": "uint8"
        }
      ],
      "name": "getArrayIndex",
      "outputs": [
        {
          "internalType": "bytes32",
          "name": "",
          "type": "bytes32"
        }
      ],
      "stateMutability": "pure",
      "type": "function"
    },
    {
      "inputs": [
        {
          "internalType": "bytes",
          "name": "data",
          "type": "bytes"
        },
        {
          "internalType": "uint8",
          "name": "inputNum",
          "type": "uint8"
        }
      ],
      "name": "getArrayLast",
      "outputs": [
        {
          "internalType": "bytes32",
          "name": "",
          "type": "bytes32"
        }
      ],
      "stateMutability": "pure",
      "type": "function"
    },
    {
      "inputs": [
        {
          "internalType": "bytes",
          "name": "data",
          "type": "bytes"
        },
        {
          "internalType": "uint8",
          "name": "inputNum",
          "type": "uint8"
        }
      ],
      "name": "getArrayLength",
      "outputs": [
        {
          "internalType": "uint256",
          "name": "",
          "type": "uint256"
        }
      ],
      "stateMutability": "pure",
      "type": "function"
    },
    {
      "inputs": [
        {
          "internalType": "address",
          "name": "pool",
          "type": "address"
        },
        {
          "internalType": "address",
          "name": "asset",
          "type": "address"
        }
      ],
      "name": "getBalance",
      "outputs": [
        {
          "internalType": "uint256",
          "name": "balance",
          "type": "uint256"
        }
      ],
      "stateMutability": "view",
      "type": "function"
    },
    {
      "inputs": [
        {
          "internalType": "bytes",
          "name": "data",
          "type": "bytes"
        },
        {
          "internalType": "uint8",
          "name": "inputNum",
          "type": "uint8"
        },
        {
          "internalType": "uint256",
          "name": "offset",
          "type": "uint256"
        }
      ],
      "name": "getBytes",
      "outputs": [
        {
          "internalType": "bytes",
          "name": "",
          "type": "bytes"
        }
      ],
      "stateMutability": "pure",
      "type": "function"
    },
    {
      "inputs": [
        {
          "internalType": "address",
          "name": "asset",
          "type": "address"
        }
      ],
      "name": "getDecimals",
      "outputs": [
        {
          "internalType": "uint256",
          "name": "decimals",
          "type": "uint256"
        }
      ],
      "stateMutability": "view",
      "type": "function"
    },
    {
      "inputs": [
        {
          "internalType": "bytes",
          "name": "data",
          "type": "bytes"
        },
        {
          "internalType": "uint8",
          "name": "inputNum",
          "type": "uint8"
        }
      ],
      "name": "getInput",
      "outputs": [
        {
          "internalType": "bytes32",
          "name": "",
          "type": "bytes32"
        }
      ],
      "stateMutability": "pure",
      "type": "function"
    },
    {
      "inputs": [
        {
          "internalType": "bytes",
          "name": "data",
          "type": "bytes"
        }
      ],
      "name": "getMethod",
      "outputs": [
        {
          "internalType": "bytes4",
          "name": "",
          "type": "bytes4"
        }
      ],
      "stateMutability": "pure",
      "type": "function"
    },
    {
      "inputs": [
        {
          "internalType": "bytes",
          "name": "data",
          "type": "bytes"
        }
      ],
      "name": "getParams",
      "outputs": [
        {
          "internalType": "bytes",
          "name": "",
          "type": "bytes"
        }
      ],
      "stateMutability": "pure",
      "type": "function"
    },
    {
      "inputs": [
        {
          "internalType": "bytes",
          "name": "data",
          "type": "bytes"
        },
        {
          "internalType": "uint256",
          "name": "offset",
          "type": "uint256"
        },
        {
          "internalType": "uint256",
          "name": "length",
          "type": "uint256"
        }
      ],
      "name": "read32",
      "outputs": [
        {
          "internalType": "bytes32",
          "name": "o",
          "type": "bytes32"
        }
      ],
      "stateMutability": "pure",
      "type": "function"
    },
    {
      "inputs": [
        {
          "internalType": "bytes",
          "name": "data",
          "type": "bytes"
        },
        {
          "internalType": "uint256",
          "name": "offset",
          "type": "uint256"
        }
      ],
      "name": "read4left",
      "outputs": [
        {
          "internalType": "bytes4",
          "name": "o",
          "type": "bytes4"
        }
      ],
      "stateMutability": "pure",
      "type": "function"
    },
    {
      "inputs": [
        {
          "internalType": "address",
          "name": "pool",
          "type": "address"
        },
        {
          "internalType": "address",
          "name": "asset",
          "type": "address"
        }
      ],
      "name": "removeAssetCheck",
      "outputs": [],
      "stateMutability": "view",
      "type": "function"
    },
    {
      "inputs": [
        {
          "internalType": "address",
          "name": "_poolManagerLogic",
          "type": "address"
        },
        {
          "internalType": "address",
          "name": "",
          "type": "address"
        },
        {
          "internalType": "bytes",
          "name": "data",
          "type": "bytes"
        }
      ],
      "name": "txGuard",
      "outputs": [
        {
          "internalType": "uint16",
          "name": "txType",
          "type": "uint16"
        },
        {
          "internalType": "bool",
          "name": "",
          "type": "bool"
        }
      ],
      "stateMutability": "nonpayable",
      "type": "function"
    },
    {
      "inputs": [
        {
          "internalType": "address",
          "name": "pool",
          "type": "address"
        },
        {
          "internalType": "address",
          "name": "asset",
          "type": "address"
        },
        {
          "internalType": "uint256",
          "name": "portion",
          "type": "uint256"
        },
        {
          "internalType": "address",
          "name": "to",
          "type": "address"
        }
      ],
      "name": "withdrawProcessing",
      "outputs": [
        {
          "internalType": "address",
          "name": "withdrawAsset",
          "type": "address"
        },
        {
          "internalType": "uint256",
          "name": "withdrawBalance",
          "type": "uint256"
        },
        {
          "components": [
            {
              "internalType": "address",
              "name": "to",
              "type": "address"
            },
            {
              "internalType": "bytes",
              "name": "txData",
              "type": "bytes"
            }
          ],
          "internalType": "struct IAssetGuard.MultiTransaction[]",
          "name": "transactions",
          "type": "tuple[]"
        }
      ],
      "stateMutability": "view",
      "type": "function"
    }
  ],
  "bytecode": "0x608060405234801561001057600080fd5b50611a70806100206000396000f3fe608060405234801561001057600080fd5b50600436106100c55760003560e01c806309ff5c7d146100ca5780631053f952146100f35780631eba307714610113578063293d80631461013357806341dc16c3146101535780636179309d1461016657806368901513146101875780636d5fae541461019a5780636f8ae202146101af57806382f86acc146101d1578063998546e3146101e4578063c3c6279f146101f7578063cf54aaa01461020a578063d4fac45d1461021d578063db896b5714610230575b600080fd5b6100dd6100d83660046116aa565b610243565b6040516100ea919061192e565b60405180910390f35b6101066101013660046116ee565b6102d6565b6040516100ea919061194c565b6101266101213660046115d3565b61036e565b6040516100ea9190611825565b61014661014136600461161d565b610371565b6040516100ea9190611937565b6100dd610161366004611745565b6103d3565b6101796101743660046114d5565b6104b1565b6040516100ea9291906119cc565b6101066101953660046115eb565b610816565b6101ad6101a836600461149d565b610831565b005b6101c26101bd366004611561565b610862565b6040516100ea939291906118a0565b6100dd6101df3660046116aa565b610af9565b6100dd6101f23660046116aa565b610b17565b6101466102053660046115eb565b610b48565b6100dd610218366004611465565b610b55565b6100dd61022b36600461149d565b610bd1565b6100dd61023e36600461165f565b610fe0565b60008061025b848460200260040160ff166020610fe0565b9050600061026e85600484016020610fe0565b9050806102b7576040805162461bcd60e51b8152602060048201526012602482015271696e707574206973206e6f7420617272617960701b604482015290519081900360640190fd5b6102cb856020808402850160040190610fe0565b925050505b92915050565b60606014821061031e576040805162461bcd60e51b815260206004820152600e60248201526d1a5b9d985b1a59081bd9999cd95d60921b604482015290519081900360640190fd5b816020029150600061033d85848660200260040160ff16016020610fe0565b90506000610352868584016004016020610fe0565b9050610364866024848701018361105f565b9695505050505050565b90565b600081600401835110156103ca576040805162461bcd60e51b815260206004820152601b60248201527a52656164696e67206279746573206f7574206f6620626f756e647360281b604482015290519081900360640190fd5b50016020015190565b6000806103eb858560200260040160ff166020610fe0565b905060006103fe86600484016020610fe0565b905080610447576040805162461bcd60e51b8152602060048201526012602482015271696e707574206973206e6f7420617272617960701b604482015290519081900360640190fd5b60ff84168111610497576040805162461bcd60e51b815260206004820152601660248201527534b73b30b634b21030b93930bc903837b9b4ba34b7b760511b604482015290519081900360640190fd5b610364866020600160ff8816018102850160040190610fe0565b60008060006104f585858080601f016020809104026020016040519081016040528093929190818152602001838380828437600092019190915250610b4892505050565b90506001600160e01b0319811663095ea7b360e01b141561080857600061055461012187878080601f01602080910402602001604051908101604052809392919081815260200183838082843760009201829052509250610af9915050565b9050600061059a87878080601f01602080910402602001604051908101604052809392919081815260200183838082843760009201919091525060019250610af9915050565b60001c905060008990506000816001600160a01b031663c45a01556040518163ffffffff1660e01b815260040160206040518083038186803b1580156105df57600080fd5b505afa1580156105f3573d6000803e3d6000fd5b505050506040513d601f19601f820116820180604052508101906106179190611481565b90506000816001600160a01b0316634f8419b9866040518263ffffffff1660e01b81526004016106479190611825565b60206040518083038186803b15801561065f57600080fd5b505afa158015610673573d6000803e3d6000fd5b505050506040513d601f19601f820116820180604052508101906106979190611481565b90506001600160a01b038116158015906106ba57506001600160a01b0381163014155b6106df5760405162461bcd60e51b81526004016106d690611996565b60405180910390fd5b7f5343b378d69227c1bc2016fd44e8104f0ffa7729f4f4f4110e349a2db0a0d0c8836001600160a01b03166339b81fd96040518163ffffffff1660e01b815260040160206040518083038186803b15801561073957600080fd5b505afa15801561074d573d6000803e3d6000fd5b505050506040513d601f19601f820116820180604052508101906107719190611481565b8d6001600160a01b031663481c6a756040518163ffffffff1660e01b815260040160206040518083038186803b1580156107aa57600080fd5b505afa1580156107be573d6000803e3d6000fd5b505050506040513d601f19601f820116820180604052508101906107e29190611481565b8787426040516107f6959493929190611853565b60405180910390a16001975050505050505b506000905094509492505050565b60606102d06004808451038461105f9092919063ffffffff16565b600061083d8383610bd1565b9050801561085d5760405162461bcd60e51b81526004016106d69061195f565b505050565b60008060606000866001600160a01b03166370a08231896040518263ffffffff1660e01b81526004016108959190611825565b60206040518083038186803b1580156108ad57600080fd5b505afa1580156108c1573d6000803e3d6000fd5b505050506040513d601f19601f820116820180604052508101906108e591906117a6565b90506000610905670de0b6b3a76400006108ff848a6111b0565b90611209565b90508015610aed576040805160028082526060820190925290816020015b61092b6113d9565b815260200190600190039081610923579050509250878360008151811061094e57fe5b60209081029190910101516001600160a01b0390911690526040517f38d07436d945465922078d3bd5f86327fc29f53045364fc096b9ea94df3c8ca29061099c9083906001906024016119e2565b604051602081830303815290604052906001600160e01b0319166020820180516001600160e01b038381831617835250505050836000815181106109dc57fe5b602002602001015160200181905250876001600160a01b03166382c630666040518163ffffffff1660e01b815260040160206040518083038186803b158015610a2457600080fd5b505afa158015610a38573d6000803e3d6000fd5b505050506040513d601f19601f82011682018060405250810190610a5c9190611481565b83600181518110610a6957fe5b60209081029190910101516001600160a01b03909116905260405163a9059cbb60e01b90610a9d9088908490602401611887565b604051602081830303815290604052906001600160e01b0319166020820180516001600160e01b03838183161783525050505083600181518110610add57fe5b6020026020010151602001819052505b50509450945094915050565b6000610b10838360200260040160ff166020610fe0565b9392505050565b600080610b2f848460200260040160ff166020610fe0565b9050610b4084600483016020610fe0565b949350505050565b60006102d0826000610371565b6000816001600160a01b031663313ce5676040518163ffffffff1660e01b815260040160206040518083038186803b158015610b9057600080fd5b505afa158015610ba4573d6000803e3d6000fd5b505050506040513d601f19601f82011682018060405250810190610bc891906117be565b60ff1692915050565b600080836001600160a01b031663c45a01556040518163ffffffff1660e01b815260040160206040518083038186803b158015610c0d57600080fd5b505afa158015610c21573d6000803e3d6000fd5b505050506040513d601f19601f82011682018060405250810190610c459190611481565b90506000846001600160a01b0316631e50a4a66040518163ffffffff1660e01b815260040160206040518083038186803b158015610c8257600080fd5b505afa158015610c96573d6000803e3d6000fd5b505050506040513d601f19601f82011682018060405250810190610cba9190611481565b905060008490506000816001600160a01b03166382c630666040518163ffffffff1660e01b815260040160206040518083038186803b158015610cfc57600080fd5b505afa158015610d10573d6000803e3d6000fd5b505050506040513d601f19601f82011682018060405250810190610d349190611481565b9050610dbd848483856001600160a01b03166370a082318c6040518263ffffffff1660e01b8152600401610d689190611825565b60206040518083038186803b158015610d8057600080fd5b505afa158015610d94573d6000803e3d6000fd5b505050506040513d601f19601f82011682018060405250810190610db891906117a6565b61126d565b94506000826001600160a01b031663bf88a6ff6040518163ffffffff1660e01b815260040160206040518083038186803b158015610dfa57600080fd5b505afa158015610e0e573d6000803e3d6000fd5b505050506040513d601f19601f82011682018060405250810190610e329190611481565b6001600160a01b031663963c94b96040518163ffffffff1660e01b815260040160206040518083038186803b158015610e6a57600080fd5b505afa158015610e7e573d6000803e3d6000fd5b505050506040513d601f19601f82011682018060405250810190610ea291906117a6565b905060005b81811015610fd4576040516354c49fe960e01b81526000906001600160a01b038616906354c49fe990610ede90859060040161192e565b60206040518083038186803b158015610ef657600080fd5b505afa158015610f0a573d6000803e3d6000fd5b505050506040513d601f19601f82011682018060405250810190610f2e9190611481565b90506000856001600160a01b03166333fd6f748c846040518363ffffffff1660e01b8152600401610f60929190611839565b60206040518083038186803b158015610f7857600080fd5b505afa158015610f8c573d6000803e3d6000fd5b505050506040513d601f19601f82011682018060405250810190610fb091906117a6565b9050610fc8610fc18989858561126d565b8a90611381565b98505050600101610ea7565b50505050505092915050565b600081830184511015611038576040805162461bcd60e51b815260206004820152601b60248201527a52656164696e67206279746573206f7574206f6620626f756e647360281b604482015290519081900360640190fd5b826020018401519050816020038015611057576008810260020a820491505b509392505050565b60608182601f0110156110aa576040805162461bcd60e51b815260206004820152600e60248201526d736c6963655f6f766572666c6f7760901b604482015290519081900360640190fd5b8282840110156110f2576040805162461bcd60e51b815260206004820152600e60248201526d736c6963655f6f766572666c6f7760901b604482015290519081900360640190fd5b8183018451101561113e576040805162461bcd60e51b8152602060048201526011602482015270736c6963655f6f75744f66426f756e647360781b604482015290519081900360640190fd5b60608215801561115d57604051915060008252602082016040526111a7565b6040519150601f8416801560200281840101858101878315602002848b0101015b8183101561119657805183526020928301920161117e565b5050858452601f01601f1916604052505b50949350505050565b6000826111bf575060006102d0565b828202828482816111cc57fe5b0414610b105760405162461bcd60e51b8152600401808060200182810382526021815260200180611a1a6021913960400191505060405180910390fd5b600080821161125c576040805162461bcd60e51b815260206004820152601a602482015279536166654d6174683a206469766973696f6e206279207a65726f60301b604482015290519081900360640190fd5b81838161126557fe5b049392505050565b60405163cc435bf360e01b81526000906001600160a01b0386169063cc435bf39061129c908690600401611825565b60206040518083038186803b1580156112b457600080fd5b505afa1580156112c8573d6000803e3d6000fd5b505050506040513d601f19601f820116820180604052508101906112ec91906115b3565b15611376576040516314e03fdd60e11b81526001600160a01b038516906329c07fba9061131f9086908690600401611887565b60206040518083038186803b15801561133757600080fd5b505afa15801561134b573d6000803e3d6000fd5b505050506040513d601f19601f8201168201806040525081019061136f91906117a6565b9050610b40565b506000949350505050565b600082820183811015610b10576040805162461bcd60e51b815260206004820152601b60248201527a536166654d6174683a206164646974696f6e206f766572666c6f7760281b604482015290519081900360640190fd5b60408051808201909152600081526060602082015290565b600082601f830112611401578081fd5b81356001600160401b038082111561141557fe5b604051601f8301601f19168101602001828111828210171561143357fe5b60405282815284830160200186101561144a578384fd5b82602086016020830137918201602001929092529392505050565b600060208284031215611476578081fd5b8135610b10816119f2565b600060208284031215611492578081fd5b8151610b10816119f2565b600080604083850312156114af578081fd5b82356114ba816119f2565b915060208301356114ca816119f2565b809150509250929050565b600080600080606085870312156114ea578182fd5b84356114f5816119f2565b93506020850135611505816119f2565b925060408501356001600160401b0380821115611520578384fd5b818701915087601f830112611533578384fd5b813581811115611541578485fd5b886020828501011115611552578485fd5b95989497505060200194505050565b60008060008060808587031215611576578384fd5b8435611581816119f2565b93506020850135611591816119f2565b92506040850135915060608501356115a8816119f2565b939692955090935050565b6000602082840312156115c4578081fd5b81518015158114610b10578182fd5b6000602082840312156115e4578081fd5b5035919050565b6000602082840312156115fc578081fd5b81356001600160401b03811115611611578182fd5b610b40848285016113f1565b6000806040838503121561162f578182fd5b82356001600160401b03811115611644578283fd5b611650858286016113f1565b95602094909401359450505050565b600080600060608486031215611673578283fd5b83356001600160401b03811115611688578384fd5b611694868287016113f1565b9660208601359650604090950135949350505050565b600080604083850312156116bc578182fd5b82356001600160401b038111156116d1578283fd5b6116dd858286016113f1565b92505060208301356114ca81611a0a565b600080600060608486031215611702578283fd5b83356001600160401b03811115611717578384fd5b611723868287016113f1565b935050602084013561173481611a0a565b929592945050506040919091013590565b600080600060608486031215611759578081fd5b83356001600160401b0381111561176e578182fd5b61177a868287016113f1565b935050602084013561178b81611a0a565b9150604084013561179b81611a0a565b809150509250925092565b6000602082840312156117b7578081fd5b5051919050565b6000602082840312156117cf578081fd5b8151610b1081611a0a565b60008151808452815b818110156117ff576020818501810151868301820152016117e3565b818111156118105782602083870101525b50601f01601f19169290920160200192915050565b6001600160a01b0391909116815260200190565b6001600160a01b0392831681529116602082015260400190565b6001600160a01b03958616815293851660208501529190931660408301526060820192909252608081019190915260a00190565b6001600160a01b03929092168252602082015260400190565b60006060820160018060a01b03808716845260208681860152604060608187015283875180865260808801915060808482028901019550838901875b8281101561191d57898803607f19018452815180518816895286015186890186905261190a868a01826117da565b98505092850192908501906001016118dc565b50959b9a5050505050505050505050565b90815260200190565b6001600160e01b031991909116815260200190565b600060208252610b1060208301846117da565b6020808252601d908201527f63616e6e6f742072656d6f7665206e6f6e2d656d707479206173736574000000604082015260600190565b6020808252601c908201527b1d5b9cdd5c1c1bdc9d1959081cdc195b99195c88185c1c1c9bdd985b60221b604082015260600190565b61ffff9290921682521515602082015260400190565b9182521515602082015260400190565b6001600160a01b0381168114611a0757600080fd5b50565b60ff81168114611a0757600080fdfe536166654d6174683a206d756c7469706c69636174696f6e206f766572666c6f77a2646970667358221220c89113cdcfcfc7c76b003a8189f0c3a9456c56d296a3d104dd190ecd5dae9c7564736f6c63430007060033",
  "linkReferences": {},
  "deployedLinkReferences": {}
}