{
  "_format": "hh-sol-artifact-1",
  "contractName": "RamsesStableLPAggregator",
  "sourceName": "contracts/priceAggregators/RamsesStableLPAggregator.sol",
  "abi": [
    {
      "inputs": [
        {
          "internalType": "address",
          "name": "_pair",
          "type": "address"
        },
        {
          "internalType": "address",
          "name": "_factory",
          "type": "address"
        }
      ],
      "stateMutability": "nonpayable",
      "type": "constructor"
    },
    {
      "inputs": [],
      "name": "decimals",
      "outputs": [
        {
          "internalType": "uint8",
          "name": "",
          "type": "uint8"
        }
      ],
      "stateMutability": "pure",
      "type": "function"
    },
    {
      "inputs": [],
      "name": "factory",
      "outputs": [
        {
          "internalType": "address",
          "name": "",
          "type": "address"
        }
      ],
      "stateMutability": "view",
      "type": "function"
    },
    {
      "inputs": [],
      "name": "latestRoundData",
      "outputs": [
        {
          "internalType": "uint80",
          "name": "",
          "type": "uint80"
        },
        {
          "internalType": "int256",
          "name": "",
          "type": "int256"
        },
        {
          "internalType": "uint256",
          "name": "",
          "type": "uint256"
        },
        {
          "internalType": "uint256",
          "name": "",
          "type": "uint256"
        },
        {
          "internalType": "uint80",
          "name": "",
          "type": "uint80"
        }
      ],
      "stateMutability": "view",
      "type": "function"
    },
    {
      "inputs": [],
      "name": "pair",
      "outputs": [
        {
          "internalType": "address",
          "name": "",
          "type": "address"
        }
      ],
      "stateMutability": "view",
      "type": "function"
    },
    {
      "inputs": [],
      "name": "token0",
      "outputs": [
        {
          "internalType": "address",
          "name": "",
          "type": "address"
        }
      ],
      "stateMutability": "view",
      "type": "function"
    },
    {
      "inputs": [],
      "name": "token1",
      "outputs": [
        {
          "internalType": "address",
          "name": "",
          "type": "address"
        }
      ],
      "stateMutability": "view",
      "type": "function"
    }
  ],
  "bytecode": "0x608060405234801561001057600080fd5b50604051610b28380380610b288339818101604052604081101561003357600080fd5b50805160209091015181816001600160a01b038216610099576040805162461bcd60e51b815260206004820152601960248201527f5f7061697220616464726573732063616e6e6f74206265203000000000000000604482015290519081900360640190fd5b6001600160a01b0381166100f4576040805162461bcd60e51b815260206004820152601c60248201527f5f666163746f727920616464726573732063616e6e6f74206265203000000000604482015290519081900360640190fd5b600080546001600160a01b0319166001600160a01b03848116919091179182905560408051630dfe168160e01b815290519290911691630dfe168191600480820192602092909190829003018186803b15801561015057600080fd5b505afa158015610164573d6000803e3d6000fd5b505050506040513d602081101561017a57600080fd5b5051600180546001600160a01b0319166001600160a01b039283161790556000546040805163d21220a760e01b81529051919092169163d21220a7916004808301926020929190829003018186803b1580156101d557600080fd5b505afa1580156101e9573d6000803e3d6000fd5b505050506040513d60208110156101ff57600080fd5b5051600280546001600160a01b039283166001600160a01b031991821617909155600380549390921692169190911790555050506108e6806102426000396000f3fe608060405234801561001057600080fd5b50600436106100625760003560e01c80630dfe168114610067578063313ce5671461008b578063a8aa1b31146100a9578063c45a0155146100b1578063d21220a7146100b9578063feaf968c146100c1575b600080fd5b61006f61010d565b604080516001600160a01b039092168252519081900360200190f35b61009361011c565b6040805160ff9092168252519081900360200190f35b61006f610121565b61006f610130565b61006f61013f565b6100c961014e565b60405180866001600160501b03168152602001858152602001848152602001838152602001826001600160501b031681526020019550505050505060405180910390f35b6001546001600160a01b031681565b600890565b6000546001600160a01b031681565b6003546001600160a01b031681565b6002546001600160a01b031681565b600080600080600080600061016161040a565b9150915060008060009054906101000a90046001600160a01b03166001600160a01b03166318160ddd6040518163ffffffff1660e01b815260040160206040518083038186803b1580156101b457600080fd5b505afa1580156101c8573d6000803e3d6000fd5b505050506040513d60208110156101de57600080fd5b50516000805460408051630240bc6b60e21b81529051939450919283926001600160a01b0390921691630902f1ac916004808301926060929190829003018186803b15801561022c57600080fd5b505afa158015610240573d6000803e3d6000fd5b505050506040513d606081101561025657600080fd5b5080516020918201516001546040805163313ce56760e01b815290516001600160701b0394851697509390921694506000936001600160a01b039091169263313ce567926004808201939291829003018186803b1580156102b657600080fd5b505afa1580156102ca573d6000803e3d6000fd5b505050506040513d60208110156102e057600080fd5b50516002546040805163313ce56760e01b8152905160ff90931693506000926001600160a01b039092169163313ce56791600480820192602092909190829003018186803b15801561033157600080fd5b505afa158015610345573d6000803e3d6000fd5b505050506040513d602081101561035b57600080fd5b505160ff169050610382600a83900a61037c86670de0b6b3a764000061050d565b9061056f565b935061039e600a82900a61037c85670de0b6b3a764000061050d565b92506000806103af86868b8b6105d3565b909250905060006103d78861037c6103c7858d61050d565b6103d1878f61050d565b906106f5565b905060006103ea826402540be40061056f565b60004260009e509e509e509e509e50505050505050505050509091929394565b6003546001546040805163b3596f0760e01b81526001600160a01b03928316600482015290516000938493169163b3596f07916024808301926020929190829003018186803b15801561045c57600080fd5b505afa158015610470573d6000803e3d6000fd5b505050506040513d602081101561048657600080fd5b50516003546002546040805163b3596f0760e01b81526001600160a01b0392831660048201529051919092169163b3596f07916024808301926020929190829003018186803b1580156104d857600080fd5b505afa1580156104ec573d6000803e3d6000fd5b505050506040513d602081101561050257600080fd5b505190925090509091565b60008261051c57506000610569565b8282028284828161052957fe5b04146105665760405162461bcd60e51b81526004018080602001828103825260218152602001806108906021913960400191505060405180910390fd5b90505b92915050565b60008082116105c2576040805162461bcd60e51b815260206004820152601a602482015279536166654d6174683a206469766973696f6e206279207a65726f60301b604482015290519081900360640190fd5b8183816105cb57fe5b049392505050565b600080806105e96105e4888861050d565b61074d565b6001600160801b031690506000610613610603888061050d565b61060d8a8061050d565b0161074d565b6001600160801b03169050600061062d6105e4848461050d565b6001600160801b0316905060006106508761037c8a670de0b6b3a764000061050d565b905060006106696105e483670de0b6b3a764000061050d565b6001600160801b031690506000610698610683848061050d565b6a0c097ce7bc90715b34b9f160241b0161074d565b6001600160801b0316905060006106b26105e4848461050d565b6001600160801b031690506106d38161037c87670de0b6b3a764000061050d565b98506106e38a61037c8b8e61050d565b97505050505050505094509492505050565b600082820183811015610566576040805162461bcd60e51b815260206004820152601b60248201527a536166654d6174683a206164646974696f6e206f766572666c6f7760281b604482015290519081900360640190fd5b60008161075c5750600061088a565b816001600160801b82106107755760809190911c9060401b5b600160401b821061078b5760409190911c9060201b5b600160201b82106107a15760209190911c9060101b5b6201000082106107b65760109190911c9060081b5b61010082106107ca5760089190911c9060041b5b601082106107dd5760049190911c9060021b5b600882106107e95760011b5b60018185816107f457fe5b048201901c9050600181858161080657fe5b048201901c9050600181858161081857fe5b048201901c9050600181858161082a57fe5b048201901c9050600181858161083c57fe5b048201901c9050600181858161084e57fe5b048201901c9050600181858161086057fe5b048201901c9050600081858161087257fe5b0490508082106108825780610884565b815b93505050505b91905056fe536166654d6174683a206d756c7469706c69636174696f6e206f766572666c6f77a26469706673582212207af17a3b95ec586d016c082e38c25b0bbd77f4ba39f21bc6713618795e1e6fba64736f6c63430007060033",
  "linkReferences": {},
  "deployedLinkReferences": {}
}