{
  "_format": "hh-sol-artifact-1",
  "contractName": "BalancerDHedgePoolPriceOracle",
  "sourceName": "contracts/oracles/BalancerDHedgePoolPriceOracle.sol",
  "abi": [
    {
      "inputs": [
        {
          "internalType": "address",
          "name": "_poolAddress",
          "type": "address"
        },
        {
          "internalType": "uint8",
          "name": "_decimals",
          "type": "uint8"
        }
      ],
      "stateMutability": "nonpayable",
      "type": "constructor"
    },
    {
      "inputs": [],
      "name": "decimals",
      "outputs": [
        {
          "internalType": "uint8",
          "name": "",
          "type": "uint8"
        }
      ],
      "stateMutability": "view",
      "type": "function"
    },
    {
      "inputs": [],
      "name": "getRate",
      "outputs": [
        {
          "internalType": "uint256",
          "name": "",
          "type": "uint256"
        }
      ],
      "stateMutability": "view",
      "type": "function"
    },
    {
      "inputs": [],
      "name": "poolAddress",
      "outputs": [
        {
          "internalType": "address",
          "name": "",
          "type": "address"
        }
      ],
      "stateMutability": "view",
      "type": "function"
    }
  ],
  "bytecode": "0x608060405234801561001057600080fd5b5060405161042438038061042483398101604081905261002f91610128565b60128160ff16111561005c5760405162461bcd60e51b815260040161005390610189565b60405180910390fd5b6000826001600160a01b0316637ff9b5966040518163ffffffff1660e01b815260040160206040518083038186803b15801561009757600080fd5b505afa1580156100ab573d6000803e3d6000fd5b505050506040513d601f19601f820116820180604052508101906100cf9190610171565b116100ec5760405162461bcd60e51b8152600401610053906101b4565b6000805460ff909216600160a01b0260ff60a01b196001600160a01b039094166001600160a01b031990931692909217929092161790556101eb565b6000806040838503121561013a578182fd5b82516001600160a01b0381168114610150578283fd5b602084015190925060ff81168114610166578182fd5b809150509250929050565b600060208284031215610182578081fd5b5051919050565b6020808252601190820152700c8cac6d2dac2d8e640c2c4deecca40627607b1b604082015260600190565b60208082526018908201527f706f6f6c206e6f742076616c6964206f722066756e6465640000000000000000604082015260600190565b61022a806101fa6000396000f3fe608060405234801561001057600080fd5b50600436106100415760003560e01c80631755ff2114610046578063313ce56714610064578063679aefce14610079575b600080fd5b61004e61008e565b60405161005b91906101c9565b60405180910390f35b61006c61009d565b60405161005b91906101e6565b6100816100ad565b60405161005b91906101dd565b6000546001600160a01b031681565b600054600160a01b900460ff1681565b6000805460408051633ffcdacb60e11b815290516101489260ff600160a01b8204811660120316600a0a926001600160a01b0390911691637ff9b59691600480820192602092909190829003018186803b15801561010a57600080fd5b505afa15801561011e573d6000803e3d6000fd5b505050506040513d601f19601f8201168201806040525081019061014291906101b1565b9061014d565b905090565b60008082116101a0576040805162461bcd60e51b815260206004820152601a602482015279536166654d6174683a206469766973696f6e206279207a65726f60301b604482015290519081900360640190fd5b8183816101a957fe5b049392505050565b6000602082840312156101c2578081fd5b5051919050565b6001600160a01b0391909116815260200190565b90815260200190565b60ff9190911681526020019056fea26469706673582212208f3a0bb4be30708fe69666782e80d8381fdef4c61db71346521136226de14a0b64736f6c63430007060033",
  "linkReferences": {},
  "deployedLinkReferences": {}
}