{
  "_format": "hh-sol-artifact-1",
  "contractName": "UniV3TWAPAggregator",
  "sourceName": "contracts/priceAggregators/UniV3TWAPAggregator.sol",
  "abi": [
    {
      "inputs": [
        {
          "internalType": "contract IUniswapV3Pool",
          "name": "_pool",
          "type": "address"
        },
        {
          "internalType": "address",
          "name": "_mainToken",
          "type": "address"
        },
        {
          "internalType": "contract IAggregatorV3Interface",
          "name": "_pairTokenUsdAggregator",
          "type": "address"
        },
        {
          "internalType": "int256",
          "name": "_priceLowerLimit",
          "type": "int256"
        },
        {
          "internalType": "int256",
          "name": "_priceUpperLimit",
          "type": "int256"
        },
        {
          "internalType": "uint32",
          "name": "_updateInterval",
          "type": "uint32"
        }
      ],
      "stateMutability": "nonpayable",
      "type": "constructor"
    },
    {
      "inputs": [],
      "name": "decimals",
      "outputs": [
        {
          "internalType": "uint8",
          "name": "",
          "type": "uint8"
        }
      ],
      "stateMutability": "pure",
      "type": "function"
    },
    {
      "inputs": [],
      "name": "latestRoundData",
      "outputs": [
        {
          "internalType": "uint80",
          "name": "roundId",
          "type": "uint80"
        },
        {
          "internalType": "int256",
          "name": "answer",
          "type": "int256"
        },
        {
          "internalType": "uint256",
          "name": "startedAt",
          "type": "uint256"
        },
        {
          "internalType": "uint256",
          "name": "updatedAt",
          "type": "uint256"
        },
        {
          "internalType": "uint80",
          "name": "answeredInRound",
          "type": "uint80"
        }
      ],
      "stateMutability": "view",
      "type": "function"
    },
    {
      "inputs": [],
      "name": "mainToken",
      "outputs": [
        {
          "internalType": "address",
          "name": "",
          "type": "address"
        }
      ],
      "stateMutability": "view",
      "type": "function"
    },
    {
      "inputs": [],
      "name": "mainTokenUnit",
      "outputs": [
        {
          "internalType": "uint256",
          "name": "",
          "type": "uint256"
        }
      ],
      "stateMutability": "view",
      "type": "function"
    },
    {
      "inputs": [],
      "name": "pairToken",
      "outputs": [
        {
          "internalType": "address",
          "name": "",
          "type": "address"
        }
      ],
      "stateMutability": "view",
      "type": "function"
    },
    {
      "inputs": [],
      "name": "pairTokenUnit",
      "outputs": [
        {
          "internalType": "uint256",
          "name": "",
          "type": "uint256"
        }
      ],
      "stateMutability": "view",
      "type": "function"
    },
    {
      "inputs": [],
      "name": "pairTokenUsdAggregator",
      "outputs": [
        {
          "internalType": "contract IAggregatorV3Interface",
          "name": "",
          "type": "address"
        }
      ],
      "stateMutability": "view",
      "type": "function"
    },
    {
      "inputs": [],
      "name": "pool",
      "outputs": [
        {
          "internalType": "contract IUniswapV3Pool",
          "name": "",
          "type": "address"
        }
      ],
      "stateMutability": "view",
      "type": "function"
    },
    {
      "inputs": [],
      "name": "priceLowerLimit",
      "outputs": [
        {
          "internalType": "int256",
          "name": "",
          "type": "int256"
        }
      ],
      "stateMutability": "view",
      "type": "function"
    },
    {
      "inputs": [],
      "name": "priceUpperLimit",
      "outputs": [
        {
          "internalType": "int256",
          "name": "",
          "type": "int256"
        }
      ],
      "stateMutability": "view",
      "type": "function"
    },
    {
      "inputs": [],
      "name": "updateInterval",
      "outputs": [
        {
          "internalType": "uint32",
          "name": "",
          "type": "uint32"
        }
      ],
      "stateMutability": "view",
      "type": "function"
    }
  ],
  "bytecode": "0x6101a06040523480156200001257600080fd5b506040516200138538038062001385833981810160405260c08110156200003857600080fd5b5080516020820151604083015160608085015160808087015160a0909701516001600160601b031987851b81169092529284901b1660e05293949293919290818312620000cc576040805162461bcd60e51b815260206004820152601360248201527f696e76616c6964207072696365206c696d697400000000000000000000000000604482015290519081900360640190fd5b6101408390526101608290526001600160e01b031960e082901b16610180526001600160601b0319606086901b1660a0526040805163313ce56760e01b815290516001600160a01b0387169163313ce567916004808301926020929190829003018186803b1580156200013e57600080fd5b505afa15801562000153573d6000803e3d6000fd5b505050506040513d60208110156200016a57600080fd5b505160ff16600a0a6101005260408051630dfe168160e01b815290516000916001600160a01b03891691630dfe168191600480820192602092909190829003018186803b158015620001bb57600080fd5b505afa158015620001d0573d6000803e3d6000fd5b505050506040513d6020811015620001e757600080fd5b505190506001600160a01b0386811690821614156200026b57866001600160a01b031663d21220a76040518163ffffffff1660e01b815260040160206040518083038186803b1580156200023a57600080fd5b505afa1580156200024f573d6000803e3d6000fd5b505050506040513d60208110156200026657600080fd5b505190505b806001600160a01b031660c0816001600160a01b031660601b81525050806001600160a01b031663313ce5676040518163ffffffff1660e01b815260040160206040518083038186803b158015620002c257600080fd5b505afa158015620002d7573d6000803e3d6000fd5b505050506040513d6020811015620002ee57600080fd5b505160ff16600a0a610120525050505050505060805160601c60a05160601c60c05160601c60e05160601c610100516101205161014051610160516101805160e01c610fd6620003af600039806102be528061030f525080610252528061050e528061053652508061029a5280610473528061049b52508061022e5280610440525080610276528061033e52508061020a52806103aa5250806101c252806103805250806101e6528061035f52508061019952806102ee5250610fd66000f3fe608060405234801561001057600080fd5b50600436106100995760003560e01c806316f0115b1461009e578063313ce567146100c25780633de35b79146100e05780633fc15f15146100e85780637e539a41146100f0578063b6dc36c7146100f8578063be805e3c14610112578063c58647c31461011a578063e75c93d914610122578063fd2c80ae1461012a578063feaf968c1461014b575b600080fd5b6100a6610197565b604080516001600160a01b039092168252519081900360200190f35b6100ca6101bb565b6040805160ff9092168252519081900360200190f35b6100a66101c0565b6100a66101e4565b6100a6610208565b61010061022c565b60408051918252519081900360200190f35b610100610250565b610100610274565b610100610298565b6101326102bc565b6040805163ffffffff9092168252519081900360200190f35b6101536102e0565b60405180866001600160501b03168152602001858152602001848152602001838152602001826001600160501b031681526020019550505050505060405180910390f35b7f000000000000000000000000000000000000000000000000000000000000000081565b600890565b7f000000000000000000000000000000000000000000000000000000000000000081565b7f000000000000000000000000000000000000000000000000000000000000000081565b7f000000000000000000000000000000000000000000000000000000000000000081565b7f000000000000000000000000000000000000000000000000000000000000000081565b7f000000000000000000000000000000000000000000000000000000000000000081565b7f000000000000000000000000000000000000000000000000000000000000000081565b7f000000000000000000000000000000000000000000000000000000000000000081565b7f000000000000000000000000000000000000000000000000000000000000000081565b6000806000806000806103337f00000000000000000000000000000000000000000000000000000000000000007f00000000000000000000000000000000000000000000000000000000000000006105bb565b50905060006103a4827f00000000000000000000000000000000000000000000000000000000000000007f00000000000000000000000000000000000000000000000000000000000000007f0000000000000000000000000000000000000000000000000000000000000000610925565b905060007f00000000000000000000000000000000000000000000000000000000000000006001600160a01b031663feaf968c6040518163ffffffff1660e01b815260040160a06040518083038186803b15801561040157600080fd5b505afa158015610415573d6000803e3d6000fd5b505050506040513d60a081101561042b57600080fd5b5060208101516060909101519550905061046f7f00000000000000000000000000000000000000000000000000000000000000006104698385610a17565b90610ac9565b96507f000000000000000000000000000000000000000000000000000000000000000015806104be57507f00000000000000000000000000000000000000000000000000000000000000008712155b61050c576040805162461bcd60e51b815260206004820152601a602482015279185b9cddd95c88195e18d959591cc81b1bddd95c881b1a5b5a5d60321b604482015290519081900360640190fd5b7f0000000000000000000000000000000000000000000000000000000000000000158061055957507f00000000000000000000000000000000000000000000000000000000000000008713155b6105a7576040805162461bcd60e51b815260206004820152601a602482015279185b9cddd95c88195e18d959591cc81d5c1c195c881b1a5b5a5d60321b604482015290519081900360640190fd5b506000965086945084925050509091929394565b60008063ffffffff83166105fb576040805162461bcd60e51b8152602060048201526002602482015261042560f41b604482015290519081900360640190fd5b604080516002808252606082018352600092602083019080368337019050509050838160008151811061062a57fe5b602002602001019063ffffffff16908163ffffffff168152505060008160018151811061065357fe5b63ffffffff90921660209283029190910182015260405163883bdbfd60e01b81526004810182815283516024830152835160009384936001600160a01b038b169363883bdbfd9388939192839260449091019185820191028083838b5b838110156106c85781810151838201526020016106b0565b505050509050019250505060006040518083038186803b1580156106eb57600080fd5b505afa1580156106ff573d6000803e3d6000fd5b505050506040513d6000823e601f3d908101601f19168201604090815281101561072857600080fd5b8101908080516040519392919084600160201b82111561074757600080fd5b90830190602082018581111561075c57600080fd5b82518660208202830111600160201b8211171561077857600080fd5b82525081516020918201928201910280838360005b838110156107a557818101518382015260200161078d565b5050505090500160405260200180516040519392919084600160201b8211156107cd57600080fd5b9083019060208201858111156107e257600080fd5b82518660208202830111600160201b821117156107fe57600080fd5b82525081516020918201928201910280838360005b8381101561082b578181015183820152602001610813565b505050509050016040525050509150915060008260008151811061084b57fe5b60200260200101518360018151811061086057fe5b602002602001015103905060008260008151811061087a57fe5b60200260200101518360018151811061088f57fe5b60200260200101510390508763ffffffff168260060b816108ac57fe5b05965060008260060b1280156108d657508763ffffffff168260060b816108cf57fe5b0760060b15155b156108e357600019909601955b63ffffffff88166001600160a01b0302600160201b600160c01b03602083901b166001600160c01b0382168161091557fe5b0496505050505050509250929050565b60008061093186610b81565b90506001600160801b036001600160a01b038216116109a0576001600160a01b03808216800290848116908616106109805761097b600160c01b876001600160801b031683610ea8565b610998565b61099881876001600160801b0316600160c01b610ea8565b925050610a0e565b60006109ba6001600160a01b03831680600160401b610ea8565b9050836001600160a01b0316856001600160a01b0316106109f2576109ed600160801b876001600160801b031683610ea8565b610a0a565b610a0a81876001600160801b0316600160801b610ea8565b9250505b50949350505050565b600082610a2657506000610ac3565b82600019148015610a3a5750600160ff1b82145b15610a765760405162461bcd60e51b8152600401808060200182810382526027815260200180610f7a6027913960400191505060405180910390fd5b82820282848281610a8357fe5b0514610ac05760405162461bcd60e51b8152600401808060200182810382526027815260200180610f7a6027913960400191505060405180910390fd5b90505b92915050565b600081610b1d576040805162461bcd60e51b815260206004820181905260248201527f5369676e6564536166654d6174683a206469766973696f6e206279207a65726f604482015290519081900360640190fd5b81600019148015610b315750600160ff1b83145b15610b6d5760405162461bcd60e51b8152600401808060200182810382526021815260200180610f596021913960400191505060405180910390fd5b6000828481610b7857fe5b05949350505050565b60008060008360020b12610b98578260020b610ba0565b8260020b6000035b9050620d89e8811115610bde576040805162461bcd60e51b81526020600482015260016024820152601560fa1b604482015290519081900360640190fd5b600060018216610bf257600160801b610c04565b6ffffcb933bd6fad37aa2d162d1a5940015b6001600160881b031690506002821615610c2e576ffff97272373d413259a46990580e213a0260801c5b6004821615610c4d576ffff2e50f5f656932ef12357cf3c7fdcc0260801c5b6008821615610c6c576fffe5caca7e10e4e61c3624eaa0941cd00260801c5b6010821615610c8b576fffcb9843d60f6159c9db58835c9266440260801c5b6020821615610caa576fff973b41fa98c081472e6896dfb254c00260801c5b6040821615610cc9576fff2ea16466c96a3843ec78b326b528610260801c5b6080821615610ce8576ffe5dee046a99a2a811c461f1969c30530260801c5b610100821615610d08576ffcbe86c7900a88aedcffc83b479aa3a40260801c5b610200821615610d28576ff987a7253ac413176f2b074cf7815e540260801c5b610400821615610d48576ff3392b0822b70005940c7a398e4b70f30260801c5b610800821615610d68576fe7159475a2c29b7443b29c7fa6e889d90260801c5b611000821615610d88576fd097f3bdfd2022b8845ad8f792aa58250260801c5b612000821615610da8576fa9f746462d870fdf8a65dc1f90e061e50260801c5b614000821615610dc8576f70d869a156d2a1b890bb3df62baf32f70260801c5b618000821615610de8576f31be135f97d08fd981231505542fcfa60260801c5b62010000821615610e09576f09aa508b5b7a84e1c677de54f3e99bc90260801c5b62020000821615610e29576e5d6af8dedb81196699c329225ee6040260801c5b62040000821615610e48576d2216e584f5fa1ea926041bedfe980260801c5b62080000821615610e65576b048a170391f7dc42444e8fa20260801c5b60008460020b1315610e80578060001981610e7c57fe5b0490505b600160201b810615610e93576001610e96565b60005b60ff16602082901c0192505050919050565b6000808060001985870986860292508281109083900303905080610ede5760008411610ed357600080fd5b508290049050610f51565b808411610eea57600080fd5b6000848688096000868103871696879004966002600389028118808a02820302808a02820302808a02820302808a02820302808a02820302808a02909103029181900381900460010186841190950394909402919094039290920491909117919091029150505b939250505056fe5369676e6564536166654d6174683a206469766973696f6e206f766572666c6f775369676e6564536166654d6174683a206d756c7469706c69636174696f6e206f766572666c6f77a2646970667358221220dfe3be4bdc8e003f50c7b7c738e25b4f19ac29f90940f28caa34a35c6176bacd64736f6c63430007060033",
  "linkReferences": {},
  "deployedLinkReferences": {}
}