{
  "_format": "hh-sol-artifact-1",
  "contractName": "SynthetixGuard",
  "sourceName": "contracts/guards/contractGuards/SynthetixGuard.sol",
  "abi": [
    {
      "inputs": [
        {
          "internalType": "contract IAddressResolver",
          "name": "_addressResolver",
          "type": "address"
        }
      ],
      "stateMutability": "nonpayable",
      "type": "constructor"
    },
    {
      "anonymous": false,
      "inputs": [
        {
          "indexed": false,
          "internalType": "address",
          "name": "fundAddress",
          "type": "address"
        },
        {
          "indexed": false,
          "internalType": "address",
          "name": "sourceAsset",
          "type": "address"
        },
        {
          "indexed": false,
          "internalType": "uint256",
          "name": "sourceAmount",
          "type": "uint256"
        },
        {
          "indexed": false,
          "internalType": "address",
          "name": "dstAsset",
          "type": "address"
        },
        {
          "indexed": false,
          "internalType": "uint256",
          "name": "time",
          "type": "uint256"
        }
      ],
      "name": "ExchangeFrom",
      "type": "event"
    },
    {
      "anonymous": false,
      "inputs": [
        {
          "indexed": false,
          "internalType": "address",
          "name": "fundAddress",
          "type": "address"
        },
        {
          "indexed": false,
          "internalType": "address",
          "name": "sourceAsset",
          "type": "address"
        },
        {
          "indexed": false,
          "internalType": "address",
          "name": "dstAsset",
          "type": "address"
        },
        {
          "indexed": false,
          "internalType": "uint256",
          "name": "dstAmount",
          "type": "uint256"
        },
        {
          "indexed": false,
          "internalType": "uint256",
          "name": "time",
          "type": "uint256"
        }
      ],
      "name": "ExchangeTo",
      "type": "event"
    },
    {
      "inputs": [],
      "name": "addressResolver",
      "outputs": [
        {
          "internalType": "contract IAddressResolver",
          "name": "",
          "type": "address"
        }
      ],
      "stateMutability": "view",
      "type": "function"
    },
    {
      "inputs": [
        {
          "internalType": "bytes32",
          "name": "data",
          "type": "bytes32"
        }
      ],
      "name": "convert32toAddress",
      "outputs": [
        {
          "internalType": "address",
          "name": "o",
          "type": "address"
        }
      ],
      "stateMutability": "pure",
      "type": "function"
    },
    {
      "inputs": [
        {
          "internalType": "bytes",
          "name": "data",
          "type": "bytes"
        },
        {
          "internalType": "uint8",
          "name": "inputNum",
          "type": "uint8"
        },
        {
          "internalType": "uint8",
          "name": "arrayIndex",
          "type": "uint8"
        }
      ],
      "name": "getArrayIndex",
      "outputs": [
        {
          "internalType": "bytes32",
          "name": "",
          "type": "bytes32"
        }
      ],
      "stateMutability": "pure",
      "type": "function"
    },
    {
      "inputs": [
        {
          "internalType": "bytes",
          "name": "data",
          "type": "bytes"
        },
        {
          "internalType": "uint8",
          "name": "inputNum",
          "type": "uint8"
        }
      ],
      "name": "getArrayLast",
      "outputs": [
        {
          "internalType": "bytes32",
          "name": "",
          "type": "bytes32"
        }
      ],
      "stateMutability": "pure",
      "type": "function"
    },
    {
      "inputs": [
        {
          "internalType": "bytes",
          "name": "data",
          "type": "bytes"
        },
        {
          "internalType": "uint8",
          "name": "inputNum",
          "type": "uint8"
        }
      ],
      "name": "getArrayLength",
      "outputs": [
        {
          "internalType": "uint256",
          "name": "",
          "type": "uint256"
        }
      ],
      "stateMutability": "pure",
      "type": "function"
    },
    {
      "inputs": [
        {
          "internalType": "bytes32",
          "name": "key",
          "type": "bytes32"
        }
      ],
      "name": "getAssetProxy",
      "outputs": [
        {
          "internalType": "address",
          "name": "proxy",
          "type": "address"
        }
      ],
      "stateMutability": "view",
      "type": "function"
    },
    {
      "inputs": [
        {
          "internalType": "bytes",
          "name": "data",
          "type": "bytes"
        },
        {
          "internalType": "uint8",
          "name": "inputNum",
          "type": "uint8"
        },
        {
          "internalType": "uint256",
          "name": "offset",
          "type": "uint256"
        }
      ],
      "name": "getBytes",
      "outputs": [
        {
          "internalType": "bytes",
          "name": "",
          "type": "bytes"
        }
      ],
      "stateMutability": "pure",
      "type": "function"
    },
    {
      "inputs": [
        {
          "internalType": "bytes",
          "name": "data",
          "type": "bytes"
        },
        {
          "internalType": "uint8",
          "name": "inputNum",
          "type": "uint8"
        }
      ],
      "name": "getInput",
      "outputs": [
        {
          "internalType": "bytes32",
          "name": "",
          "type": "bytes32"
        }
      ],
      "stateMutability": "pure",
      "type": "function"
    },
    {
      "inputs": [
        {
          "internalType": "bytes",
          "name": "data",
          "type": "bytes"
        }
      ],
      "name": "getMethod",
      "outputs": [
        {
          "internalType": "bytes4",
          "name": "",
          "type": "bytes4"
        }
      ],
      "stateMutability": "pure",
      "type": "function"
    },
    {
      "inputs": [
        {
          "internalType": "bytes",
          "name": "data",
          "type": "bytes"
        }
      ],
      "name": "getParams",
      "outputs": [
        {
          "internalType": "bytes",
          "name": "",
          "type": "bytes"
        }
      ],
      "stateMutability": "pure",
      "type": "function"
    },
    {
      "inputs": [
        {
          "internalType": "bytes",
          "name": "data",
          "type": "bytes"
        },
        {
          "internalType": "uint256",
          "name": "offset",
          "type": "uint256"
        },
        {
          "internalType": "uint256",
          "name": "length",
          "type": "uint256"
        }
      ],
      "name": "read32",
      "outputs": [
        {
          "internalType": "bytes32",
          "name": "o",
          "type": "bytes32"
        }
      ],
      "stateMutability": "pure",
      "type": "function"
    },
    {
      "inputs": [
        {
          "internalType": "bytes",
          "name": "data",
          "type": "bytes"
        },
        {
          "internalType": "uint256",
          "name": "offset",
          "type": "uint256"
        }
      ],
      "name": "read4left",
      "outputs": [
        {
          "internalType": "bytes4",
          "name": "o",
          "type": "bytes4"
        }
      ],
      "stateMutability": "pure",
      "type": "function"
    },
    {
      "inputs": [
        {
          "internalType": "address",
          "name": "_poolManagerLogic",
          "type": "address"
        },
        {
          "internalType": "address",
          "name": "",
          "type": "address"
        },
        {
          "internalType": "bytes",
          "name": "data",
          "type": "bytes"
        }
      ],
      "name": "txGuard",
      "outputs": [
        {
          "internalType": "uint16",
          "name": "txType",
          "type": "uint16"
        },
        {
          "internalType": "bool",
          "name": "",
          "type": "bool"
        }
      ],
      "stateMutability": "nonpayable",
      "type": "function"
    }
  ],
  "bytecode": "0x608060405234801561001057600080fd5b506040516112fd3803806112fd8339818101604052602081101561003357600080fd5b50516001600160a01b03811661007a5760405162461bcd60e51b81526004018080602001828103825260248152602001806112d96024913960400191505060405180910390fd5b600080546001600160a01b039092166001600160a01b031990921691909117905561122f806100aa6000396000f3fe608060405234801561001057600080fd5b50600436106100af5760003560e01c806305a2ee2a146100b457806309ff5c7d146100d85780631053f952146101935780631eba3077146102b4578063293d8063146102d15780633ded65301461039457806341dc16c3146103b15780636179309d14610465578063689015131461050a57806382f86acc146105ae578063998546e314610657578063c3c6279f14610700578063db896b57146107a4575b600080fd5b6100bc61084d565b604080516001600160a01b039092168252519081900360200190f35b610181600480360360408110156100ee57600080fd5b810190602081018135600160201b81111561010857600080fd5b82018360208201111561011a57600080fd5b803590602001918460018302840111600160201b8311171561013b57600080fd5b91908080601f0160208091040260200160405190810160405280939291908181526020018383808284376000920191909152509295505050903560ff16915061085c9050565b60408051918252519081900360200190f35b61023f600480360360608110156101a957600080fd5b810190602081018135600160201b8111156101c357600080fd5b8201836020820111156101d557600080fd5b803590602001918460018302840111600160201b831117156101f657600080fd5b91908080601f0160208091040260200160405190810160405280939291908181526020018383808284376000920191909152509295505060ff83351693505050602001356108ed565b6040805160208082528351818301528351919283929083019185019080838360005b83811015610279578181015183820152602001610261565b50505050905090810190601f1680156102a65780820380516001836020036101000a031916815260200191505b509250505060405180910390f35b6100bc600480360360208110156102ca57600080fd5b5035610985565b610377600480360360408110156102e757600080fd5b810190602081018135600160201b81111561030157600080fd5b82018360208201111561031357600080fd5b803590602001918460018302840111600160201b8311171561033457600080fd5b91908080601f0160208091040260200160405190810160405280939291908181526020018383808284376000920191909152509295505091359250610988915050565b604080516001600160e01b03199092168252519081900360200190f35b6100bc600480360360208110156103aa57600080fd5b50356109ea565b610181600480360360608110156103c757600080fd5b810190602081018135600160201b8111156103e157600080fd5b8201836020820111156103f357600080fd5b803590602001918460018302840111600160201b8311171561041457600080fd5b91908080601f0160208091040260200160405190810160405280939291908181526020018383808284376000920191909152509295505060ff8335811694506020909301359092169150610be59050565b6104ec6004803603606081101561047b57600080fd5b6001600160a01b038235811692602081013590911691810190606081016040820135600160201b8111156104ae57600080fd5b8201836020820111156104c057600080fd5b803590602001918460018302840111600160201b831117156104e157600080fd5b509092509050610cc3565b6040805161ffff909316835290151560208301528051918290030190f35b61023f6004803603602081101561052057600080fd5b810190602081018135600160201b81111561053a57600080fd5b82018360208201111561054c57600080fd5b803590602001918460018302840111600160201b8311171561056d57600080fd5b91908080601f016020809104026020016040519081016040528093929190818152602001838380828437600092019190915250929550610fac945050505050565b610181600480360360408110156105c457600080fd5b810190602081018135600160201b8111156105de57600080fd5b8201836020820111156105f057600080fd5b803590602001918460018302840111600160201b8311171561061157600080fd5b91908080601f0160208091040260200160405190810160405280939291908181526020018383808284376000920191909152509295505050903560ff169150610fcd9050565b6101816004803603604081101561066d57600080fd5b810190602081018135600160201b81111561068757600080fd5b82018360208201111561069957600080fd5b803590602001918460018302840111600160201b831117156106ba57600080fd5b91908080601f0160208091040260200160405190810160405280939291908181526020018383808284376000920191909152509295505050903560ff169150610feb9050565b6103776004803603602081101561071657600080fd5b810190602081018135600160201b81111561073057600080fd5b82018360208201111561074257600080fd5b803590602001918460018302840111600160201b8311171561076357600080fd5b91908080601f01602080910402602001604051908101604052809392919081815260200183838082843760009201919091525092955061101c945050505050565b610181600480360360608110156107ba57600080fd5b810190602081018135600160201b8111156107d457600080fd5b8201836020820111156107e657600080fd5b803590602001918460018302840111600160201b8311171561080757600080fd5b91908080601f0160208091040260200160405190810160405280939291908181526020018383808284376000920191909152509295505082359350505060200135611029565b6000546001600160a01b031681565b600080610874848460200260040160ff166020611029565b9050600061088785600484016020611029565b9050806108d0576040805162461bcd60e51b8152602060048201526012602482015271696e707574206973206e6f7420617272617960701b604482015290519081900360640190fd5b6108e4856020808402850160040190611029565b95945050505050565b606060148210610935576040805162461bcd60e51b815260206004820152600e60248201526d1a5b9d985b1a59081bd9999cd95d60921b604482015290519081900360640190fd5b816020029150600061095485848660200260040160ff16016020611029565b90506000610969868584016004016020611029565b905061097b86602484870101836110a8565b9695505050505050565b90565b600081600401835110156109e1576040805162461bcd60e51b815260206004820152601b60248201527a52656164696e67206279746573206f7574206f6620626f756e647360281b604482015290519081900360640190fd5b50016020015190565b60008054604080516321f8a72160e01b8152680a6f2dce8d0cae8d2f60bb1b6004820152905183926001600160a01b0316916321f8a721916024808301926020929190829003018186803b158015610a4157600080fd5b505afa158015610a55573d6000803e3d6000fd5b505050506040513d6020811015610a6b57600080fd5b505160408051633260803960e01b81526004810186905290516001600160a01b0390921691633260803991602480820192602092909190829003018186803b158015610ab657600080fd5b505afa158015610aca573d6000803e3d6000fd5b505050506040513d6020811015610ae057600080fd5b505190506001600160a01b038116610b2d576040805162461bcd60e51b815260206004820152600b60248201526a696e76616c6964206b657960a81b604482015290519081900360640190fd5b806001600160a01b031663ec5568896040518163ffffffff1660e01b815260040160206040518083038186803b158015610b6657600080fd5b505afa158015610b7a573d6000803e3d6000fd5b505050506040513d6020811015610b9057600080fd5b505191506001600160a01b038216610bdf576040805162461bcd60e51b815260206004820152600d60248201526c696e76616c69642070726f787960981b604482015290519081900360640190fd5b50919050565b600080610bfd858560200260040160ff166020611029565b90506000610c1086600484016020611029565b905080610c59576040805162461bcd60e51b8152602060048201526012602482015271696e707574206973206e6f7420617272617960701b604482015290519081900360640190fd5b60ff84168111610ca9576040805162461bcd60e51b815260206004820152601660248201527534b73b30b634b21030b93930bc903837b9b4ba34b7b760511b604482015290519081900360640190fd5b61097b866020600160ff8816018102850160040190611029565b6000806000610d0785858080601f01602080910402602001604051908101604052809392919081815260200183838082843760009201919091525061101c92505050565b90506001600160e01b0319811663018756bb60e51b1415610f9e576000610d6386868080601f01602080910402602001604051908101604052809392919081815260200183838082843760009201829052509250610fcd915050565b90506000610da987878080601f01602080910402602001604051908101604052809392919081815260200183838082843760009201919091525060019250610fcd915050565b90506000610def88888080601f01602080910402602001604051908101604052809392919081815260200183838082843760009201919091525060029250610fcd915050565b90506000610dfc846109ea565b90506000610e09836109ea565b60408051634df48c7360e11b81526001600160a01b03808416600483015291519293508e928392831691639be918e6916024808301926020929190829003018186803b158015610e5857600080fd5b505afa158015610e6c573d6000803e3d6000fd5b505050506040513d6020811015610e8257600080fd5b5051610ed5576040805162461bcd60e51b815260206004820152601d60248201527f756e737570706f727465642064657374696e6174696f6e206173736574000000604482015290519081900360640190fd5b7ff9124d5fa05676e43110dedb3b2ba1dd981d675af70eb1f3c6e26ec6f7aee010826001600160a01b03166339b81fd96040518163ffffffff1660e01b815260040160206040518083038186803b158015610f2f57600080fd5b505afa158015610f43573d6000803e3d6000fd5b505050506040513d6020811015610f5957600080fd5b5051604080516001600160a01b03928316815282881660208201528082018a90529186166060830152426080830152519081900360a00190a160029950505050505050505b506000905094509492505050565b6060610fc7600480845103846110a89092919063ffffffff16565b92915050565b6000610fe4838360200260040160ff166020611029565b9392505050565b600080611003848460200260040160ff166020611029565b905061101484600483016020611029565b949350505050565b6000610fc7826000610988565b600081830184511015611081576040805162461bcd60e51b815260206004820152601b60248201527a52656164696e67206279746573206f7574206f6620626f756e647360281b604482015290519081900360640190fd5b8260200184015190508160200380156110a0576008810260020a820491505b509392505050565b60608182601f0110156110f3576040805162461bcd60e51b815260206004820152600e60248201526d736c6963655f6f766572666c6f7760901b604482015290519081900360640190fd5b82828401101561113b576040805162461bcd60e51b815260206004820152600e60248201526d736c6963655f6f766572666c6f7760901b604482015290519081900360640190fd5b81830184511015611187576040805162461bcd60e51b8152602060048201526011602482015270736c6963655f6f75744f66426f756e647360781b604482015290519081900360640190fd5b6060821580156111a657604051915060008252602082016040526111f0565b6040519150601f8416801560200281840101858101878315602002848b0101015b818310156111df5780518352602092830192016111c7565b5050858452601f01601f1916604052505b5094935050505056fea264697066735822122069ee1884ae5732ab99501c2f97560bf6c15a6bd2f3e6a8ce2903578020f1eabd64736f6c634300070600335f616464726573735265736f6c76657220616464726573732063616e6e6f742062652030",
  "linkReferences": {},
  "deployedLinkReferences": {}
}