{
  "_format": "hh-sol-artifact-1",
  "contractName": "UniswapV3NonfungiblePositionGuard",
  "sourceName": "contracts/guards/contractGuards/uniswapv3/UniswapV3NonfungiblePositionGuard.sol",
  "abi": [
    {
      "inputs": [
        {
          "internalType": "uint256",
          "name": "_uniV3PositionsLimit",
          "type": "uint256"
        },
        {
          "internalType": "address",
          "name": "_nftTracker",
          "type": "address"
        }
      ],
      "stateMutability": "nonpayable",
      "type": "constructor"
    },
    {
      "anonymous": false,
      "inputs": [
        {
          "indexed": false,
          "internalType": "address",
          "name": "fundAddress",
          "type": "address"
        },
        {
          "indexed": false,
          "internalType": "uint256",
          "name": "tokenId",
          "type": "uint256"
        },
        {
          "indexed": false,
          "internalType": "uint256",
          "name": "time",
          "type": "uint256"
        }
      ],
      "name": "Burn",
      "type": "event"
    },
    {
      "anonymous": false,
      "inputs": [
        {
          "indexed": false,
          "internalType": "address",
          "name": "fundAddress",
          "type": "address"
        },
        {
          "indexed": false,
          "internalType": "uint256",
          "name": "tokenId",
          "type": "uint256"
        },
        {
          "indexed": false,
          "internalType": "uint128",
          "name": "amount0Max",
          "type": "uint128"
        },
        {
          "indexed": false,
          "internalType": "uint128",
          "name": "amount1Max",
          "type": "uint128"
        },
        {
          "indexed": false,
          "internalType": "uint256",
          "name": "time",
          "type": "uint256"
        }
      ],
      "name": "Collect",
      "type": "event"
    },
    {
      "anonymous": false,
      "inputs": [
        {
          "indexed": false,
          "internalType": "address",
          "name": "fundAddress",
          "type": "address"
        },
        {
          "indexed": false,
          "internalType": "uint256",
          "name": "tokenId",
          "type": "uint256"
        },
        {
          "indexed": false,
          "internalType": "uint128",
          "name": "liquidity",
          "type": "uint128"
        },
        {
          "indexed": false,
          "internalType": "uint256",
          "name": "amount0Min",
          "type": "uint256"
        },
        {
          "indexed": false,
          "internalType": "uint256",
          "name": "amount1Min",
          "type": "uint256"
        },
        {
          "indexed": false,
          "internalType": "uint256",
          "name": "time",
          "type": "uint256"
        }
      ],
      "name": "DecreaseLiquidity",
      "type": "event"
    },
    {
      "anonymous": false,
      "inputs": [
        {
          "indexed": false,
          "internalType": "address",
          "name": "fundAddress",
          "type": "address"
        },
        {
          "indexed": false,
          "internalType": "address",
          "name": "sourceAsset",
          "type": "address"
        },
        {
          "indexed": false,
          "internalType": "uint256",
          "name": "sourceAmount",
          "type": "uint256"
        },
        {
          "indexed": false,
          "internalType": "address",
          "name": "dstAsset",
          "type": "address"
        },
        {
          "indexed": false,
          "internalType": "uint256",
          "name": "time",
          "type": "uint256"
        }
      ],
      "name": "ExchangeFrom",
      "type": "event"
    },
    {
      "anonymous": false,
      "inputs": [
        {
          "indexed": false,
          "internalType": "address",
          "name": "fundAddress",
          "type": "address"
        },
        {
          "indexed": false,
          "internalType": "address",
          "name": "sourceAsset",
          "type": "address"
        },
        {
          "indexed": false,
          "internalType": "address",
          "name": "dstAsset",
          "type": "address"
        },
        {
          "indexed": false,
          "internalType": "uint256",
          "name": "dstAmount",
          "type": "uint256"
        },
        {
          "indexed": false,
          "internalType": "uint256",
          "name": "time",
          "type": "uint256"
        }
      ],
      "name": "ExchangeTo",
      "type": "event"
    },
    {
      "anonymous": false,
      "inputs": [
        {
          "indexed": false,
          "internalType": "address",
          "name": "fundAddress",
          "type": "address"
        },
        {
          "indexed": false,
          "internalType": "uint256",
          "name": "tokenId",
          "type": "uint256"
        },
        {
          "indexed": false,
          "internalType": "uint256",
          "name": "amount0Desired",
          "type": "uint256"
        },
        {
          "indexed": false,
          "internalType": "uint256",
          "name": "amount1Desired",
          "type": "uint256"
        },
        {
          "indexed": false,
          "internalType": "uint256",
          "name": "amount0Min",
          "type": "uint256"
        },
        {
          "indexed": false,
          "internalType": "uint256",
          "name": "amount1Min",
          "type": "uint256"
        },
        {
          "indexed": false,
          "internalType": "uint256",
          "name": "time",
          "type": "uint256"
        }
      ],
      "name": "IncreaseLiquidity",
      "type": "event"
    },
    {
      "anonymous": false,
      "inputs": [
        {
          "indexed": false,
          "internalType": "address",
          "name": "fundAddress",
          "type": "address"
        },
        {
          "indexed": false,
          "internalType": "address",
          "name": "token0",
          "type": "address"
        },
        {
          "indexed": false,
          "internalType": "address",
          "name": "token1",
          "type": "address"
        },
        {
          "indexed": false,
          "internalType": "uint24",
          "name": "fee",
          "type": "uint24"
        },
        {
          "indexed": false,
          "internalType": "int24",
          "name": "tickLower",
          "type": "int24"
        },
        {
          "indexed": false,
          "internalType": "int24",
          "name": "tickUpper",
          "type": "int24"
        },
        {
          "indexed": false,
          "internalType": "uint256",
          "name": "amount0Desired",
          "type": "uint256"
        },
        {
          "indexed": false,
          "internalType": "uint256",
          "name": "amount1Desired",
          "type": "uint256"
        },
        {
          "indexed": false,
          "internalType": "uint256",
          "name": "amount0Min",
          "type": "uint256"
        },
        {
          "indexed": false,
          "internalType": "uint256",
          "name": "amount1Min",
          "type": "uint256"
        },
        {
          "indexed": false,
          "internalType": "uint256",
          "name": "time",
          "type": "uint256"
        }
      ],
      "name": "Mint",
      "type": "event"
    },
    {
      "inputs": [],
      "name": "NFT_TYPE",
      "outputs": [
        {
          "internalType": "bytes32",
          "name": "",
          "type": "bytes32"
        }
      ],
      "stateMutability": "view",
      "type": "function"
    },
    {
      "inputs": [
        {
          "internalType": "address",
          "name": "poolManagerLogic",
          "type": "address"
        },
        {
          "internalType": "address",
          "name": "to",
          "type": "address"
        },
        {
          "internalType": "bytes",
          "name": "data",
          "type": "bytes"
        }
      ],
      "name": "afterTxGuard",
      "outputs": [],
      "stateMutability": "nonpayable",
      "type": "function"
    },
    {
      "inputs": [
        {
          "internalType": "bytes32",
          "name": "data",
          "type": "bytes32"
        }
      ],
      "name": "convert32toAddress",
      "outputs": [
        {
          "internalType": "address",
          "name": "o",
          "type": "address"
        }
      ],
      "stateMutability": "pure",
      "type": "function"
    },
    {
      "inputs": [
        {
          "internalType": "bytes",
          "name": "data",
          "type": "bytes"
        },
        {
          "internalType": "uint8",
          "name": "inputNum",
          "type": "uint8"
        },
        {
          "internalType": "uint8",
          "name": "arrayIndex",
          "type": "uint8"
        }
      ],
      "name": "getArrayIndex",
      "outputs": [
        {
          "internalType": "bytes32",
          "name": "",
          "type": "bytes32"
        }
      ],
      "stateMutability": "pure",
      "type": "function"
    },
    {
      "inputs": [
        {
          "internalType": "bytes",
          "name": "data",
          "type": "bytes"
        },
        {
          "internalType": "uint8",
          "name": "inputNum",
          "type": "uint8"
        }
      ],
      "name": "getArrayLast",
      "outputs": [
        {
          "internalType": "bytes32",
          "name": "",
          "type": "bytes32"
        }
      ],
      "stateMutability": "pure",
      "type": "function"
    },
    {
      "inputs": [
        {
          "internalType": "bytes",
          "name": "data",
          "type": "bytes"
        },
        {
          "internalType": "uint8",
          "name": "inputNum",
          "type": "uint8"
        }
      ],
      "name": "getArrayLength",
      "outputs": [
        {
          "internalType": "uint256",
          "name": "",
          "type": "uint256"
        }
      ],
      "stateMutability": "pure",
      "type": "function"
    },
    {
      "inputs": [
        {
          "internalType": "bytes",
          "name": "data",
          "type": "bytes"
        },
        {
          "internalType": "uint8",
          "name": "inputNum",
          "type": "uint8"
        },
        {
          "internalType": "uint256",
          "name": "offset",
          "type": "uint256"
        }
      ],
      "name": "getBytes",
      "outputs": [
        {
          "internalType": "bytes",
          "name": "",
          "type": "bytes"
        }
      ],
      "stateMutability": "pure",
      "type": "function"
    },
    {
      "inputs": [
        {
          "internalType": "bytes",
          "name": "data",
          "type": "bytes"
        },
        {
          "internalType": "uint8",
          "name": "inputNum",
          "type": "uint8"
        }
      ],
      "name": "getInput",
      "outputs": [
        {
          "internalType": "bytes32",
          "name": "",
          "type": "bytes32"
        }
      ],
      "stateMutability": "pure",
      "type": "function"
    },
    {
      "inputs": [
        {
          "internalType": "bytes",
          "name": "data",
          "type": "bytes"
        }
      ],
      "name": "getMethod",
      "outputs": [
        {
          "internalType": "bytes4",
          "name": "",
          "type": "bytes4"
        }
      ],
      "stateMutability": "pure",
      "type": "function"
    },
    {
      "inputs": [
        {
          "internalType": "address",
          "name": "poolLogic",
          "type": "address"
        }
      ],
      "name": "getOwnedTokenIds",
      "outputs": [
        {
          "internalType": "uint256[]",
          "name": "tokenIds",
          "type": "uint256[]"
        }
      ],
      "stateMutability": "view",
      "type": "function"
    },
    {
      "inputs": [
        {
          "internalType": "bytes",
          "name": "data",
          "type": "bytes"
        }
      ],
      "name": "getParams",
      "outputs": [
        {
          "internalType": "bytes",
          "name": "",
          "type": "bytes"
        }
      ],
      "stateMutability": "pure",
      "type": "function"
    },
    {
      "inputs": [],
      "name": "isTxTrackingGuard",
      "outputs": [
        {
          "internalType": "bool",
          "name": "",
          "type": "bool"
        }
      ],
      "stateMutability": "view",
      "type": "function"
    },
    {
      "inputs": [],
      "name": "nftTracker",
      "outputs": [
        {
          "internalType": "address",
          "name": "",
          "type": "address"
        }
      ],
      "stateMutability": "view",
      "type": "function"
    },
    {
      "inputs": [
        {
          "internalType": "bytes",
          "name": "data",
          "type": "bytes"
        },
        {
          "internalType": "uint256",
          "name": "offset",
          "type": "uint256"
        },
        {
          "internalType": "uint256",
          "name": "length",
          "type": "uint256"
        }
      ],
      "name": "read32",
      "outputs": [
        {
          "internalType": "bytes32",
          "name": "o",
          "type": "bytes32"
        }
      ],
      "stateMutability": "pure",
      "type": "function"
    },
    {
      "inputs": [
        {
          "internalType": "bytes",
          "name": "data",
          "type": "bytes"
        },
        {
          "internalType": "uint256",
          "name": "offset",
          "type": "uint256"
        }
      ],
      "name": "read4left",
      "outputs": [
        {
          "internalType": "bytes4",
          "name": "o",
          "type": "bytes4"
        }
      ],
      "stateMutability": "pure",
      "type": "function"
    },
    {
      "inputs": [
        {
          "internalType": "address",
          "name": "_poolManagerLogic",
          "type": "address"
        },
        {
          "internalType": "address",
          "name": "to",
          "type": "address"
        },
        {
          "internalType": "bytes",
          "name": "data",
          "type": "bytes"
        }
      ],
      "name": "txGuard",
      "outputs": [
        {
          "internalType": "uint16",
          "name": "txType",
          "type": "uint16"
        },
        {
          "internalType": "bool",
          "name": "",
          "type": "bool"
        }
      ],
      "stateMutability": "nonpayable",
      "type": "function"
    },
    {
      "inputs": [],
      "name": "uniV3PositionsLimit",
      "outputs": [
        {
          "internalType": "uint256",
          "name": "",
          "type": "uint256"
        }
      ],
      "stateMutability": "view",
      "type": "function"
    }
  ],
  "bytecode": "0x60a06040526001805460ff1916811790553480156200001d57600080fd5b5060405162002e7038038062002e7083398101604081905262000040916200005c565b60009190915560601b6001600160601b03191660805262000099565b600080604083850312156200006f578182fd5b825160208401519092506001600160a01b03811681146200008e578182fd5b809150509250929050565b60805160601c612da5620000cb600039806104f0528061063f52806115e1528061171352806118995250612da56000f3fe608060405234801561001057600080fd5b50600436106100db5760003560e01c806309ff5c7d146100e05780631053f952146101095780631eba307714610129578063293d806314610149578063382fe1b01461016957806341dc16c3146101715780634349be80146101845780634fac7e411461018c57806352dac656146101ac5780636179309d146101b457806368901513146101d55780637bf98119146101e857806382f86acc146101fd578063998546e314610210578063c3c6279f14610223578063db896b5714610236578063f66c9dd214610249575b600080fd5b6100f36100ee36600461247a565b61025e565b6040516101009190612a97565b60405180910390f35b61011c6101173660046124c5565b6102f1565b6040516101009190612acc565b61013c6101373660046123a3565b61038b565b604051610100919061289e565b61015c6101573660046123ed565b610392565b6040516101009190612ab7565b6100f36103f4565b6100f361017f366004612519565b6103fa565b6100f36104d8565b61019f61019a36600461221a565b6104ea565b6040516101009190612a48565b61013c61063d565b6101c76101c2366004612252565b610661565b604051610100929190612c90565b61011c6101e33660046123bb565b61119e565b6101f06111b9565b6040516101009190612a8c565b6100f361020b36600461247a565b6111c2565b6100f361021e36600461247a565b6111d9565b61015c6102313660046123bb565b61120a565b6100f361024436600461242f565b611217565b61025c610257366004612252565b611296565b005b600080610276848460200260040160ff166020611217565b9050600061028985600484016020611217565b9050806102d2576040805162461bcd60e51b8152602060048201526012602482015271696e707574206973206e6f7420617272617960701b604482015290519081900360640190fd5b6102e6856020808402850160040190611217565b925050505b92915050565b606060148210610339576040805162461bcd60e51b815260206004820152600e60248201526d1a5b9d985b1a59081bd9999cd95d60921b604482015290519081900360640190fd5b816020029150600061035885848660200260040160ff16016020611217565b9050600061036d868584016004016020611217565b905061037f86602484870101836112a7565b925050505b9392505050565b805b919050565b600081600401835110156103eb576040805162461bcd60e51b815260206004820152601b60248201527a52656164696e67206279746573206f7574206f6620626f756e647360281b604482015290519081900360640190fd5b50016020015190565b60005481565b600080610412858560200260040160ff166020611217565b9050600061042586600484016020611217565b90508061046e576040805162461bcd60e51b8152602060048201526012602482015271696e707574206973206e6f7420617272617960701b604482015290519081900360640190fd5b60ff841681116104be576040805162461bcd60e51b815260206004820152601660248201527534b73b30b634b21030b93930bc903837b9b4ba34b7b760511b604482015290519081900360640190fd5b61037f866020600160ff8816018102850160040190611217565b600080516020612d2f83398151915281565b606060007f00000000000000000000000000000000000000000000000000000000000000006001600160a01b031663adee6197600080516020612d2f833981519152856040518363ffffffff1660e01b815260040161054a929190612aa0565b60006040518083038186803b15801561056257600080fd5b505afa158015610576573d6000803e3d6000fd5b505050506040513d6000823e601f3d908101601f1916820160405261059e91908101906122b1565b905080516001600160401b03811180156105b757600080fd5b506040519080825280602002602001820160405280156105e1578160200160208202803683370190505b50915060005b8151811015610636578181815181106105fc57fe5b60200260200101518060200190518101906106179190612780565b83828151811061062357fe5b60209081029190910101526001016105e7565b5050919050565b7f000000000000000000000000000000000000000000000000000000000000000081565b600080600061066f8461120a565b90506000859050600087905060008890506000826001600160a01b03166339b81fd96040518163ffffffff1660e01b815260040160206040518083038186803b1580156106bb57600080fd5b505afa1580156106cf573d6000803e3d6000fd5b505050506040513d601f19601f820116820180604052508101906106f39190612236565b90506001600160e01b03198516634418b22b60e11b1415610b125760006107198961119e565b80602001905181019061072c91906126c3565b8051604051634df48c7360e11b81529192506001600160a01b03851691639be918e69161075b9160040161289e565b60206040518083038186803b15801561077357600080fd5b505afa158015610787573d6000803e3d6000fd5b505050506040513d601f19601f820116820180604052508101906107ab9190612383565b6107d05760405162461bcd60e51b81526004016107c790612c35565b60405180910390fd5b6020810151604051634df48c7360e11b81526001600160a01b03851691639be918e691610800919060040161289e565b60206040518083038186803b15801561081857600080fd5b505afa15801561082c573d6000803e3d6000fd5b505050506040513d601f19601f820116820180604052508101906108509190612383565b61086c5760405162461bcd60e51b81526004016107c790612c02565b604051634df48c7360e11b81526001600160a01b03841690639be918e690610898908d9060040161289e565b60206040518083038186803b1580156108b057600080fd5b505afa1580156108c4573d6000803e3d6000fd5b505050506040513d601f19601f820116820180604052508101906108e89190612383565b6109045760405162461bcd60e51b81526004016107c790612b9d565b8061012001516001600160a01b0316826001600160a01b03161461093a5760405162461bcd60e51b81526004016107c790612b6e565b610a30826001600160a01b031663c45a01556040518163ffffffff1660e01b815260040160206040518083038186803b15801561097657600080fd5b505afa15801561098a573d6000803e3d6000fd5b505050506040513d601f19601f820116820180604052508101906109ae9190612236565b866001600160a01b031663c45a01556040518163ffffffff1660e01b815260040160206040518083038186803b1580156109e757600080fd5b505afa1580156109fb573d6000803e3d6000fd5b505050506040513d601f19601f82011682018060405250810190610a1f9190612236565b8351602085015160408601516113f8565b507f3db68d9a7cfa39e90af519a8f1480036bffcd9f7e523bf75be5bba56182f3075846001600160a01b03166339b81fd96040518163ffffffff1660e01b815260040160206040518083038186803b158015610a8b57600080fd5b505afa158015610a9f573d6000803e3d6000fd5b505050506040513d601f19601f82011682018060405250810190610ac39190612236565b825160208401516040808601516060870151608088015160a089015160c08a015160e08b01516101008c01519651610b009a9998979042906128b2565b60405180910390a1601497505061118d565b6001600160e01b0319851663219f5d1760e01b1415610c17576000610b368961119e565b806020019051810190610b499190612651565b90507f8e69035cb5024486db94eca157a5699bef15fbd162164b5ad0884937171ec247846001600160a01b03166339b81fd96040518163ffffffff1660e01b815260040160206040518083038186803b158015610ba557600080fd5b505afa158015610bb9573d6000803e3d6000fd5b505050506040513d601f19601f82011682018060405250810190610bdd9190612236565b82516020840151604080860151606087015160808801519251610c0596959493904290612a0d565b60405180910390a1601597505061118d565b6001600160e01b03198516630624e65f60e11b1415610d17576000610c3b8961119e565b806020019051810190610c4e91906125e4565b90507f799970b13fae38c486aa8ce7b7df21996e61a40436e1de40c403dc3c0e67a3bd846001600160a01b03166339b81fd96040518163ffffffff1660e01b815260040160206040518083038186803b158015610caa57600080fd5b505afa158015610cbe573d6000803e3d6000fd5b505050506040513d601f19601f82011682018060405250810190610ce29190612236565b8251602084015160408086015160608701519151610d05959493929042906129b0565b60405180910390a1601697505061118d565b6001600160e01b03198516630852cd8d60e31b1415610e05576000610d3b8961119e565b806020019051810190610d4e9190612780565b90507f49995e5dd6158cf69ad3e9777c46755a1a826a446c6416992167462dad033b2a846001600160a01b03166339b81fd96040518163ffffffff1660e01b815260040160206040518083038186803b158015610daa57600080fd5b505afa158015610dbe573d6000803e3d6000fd5b505050506040513d601f19601f82011682018060405250810190610de29190612236565b8242604051610df3939291906129ec565b60405180910390a1601797505061118d565b6001600160e01b0319851663fc6f786560e01b14156110f7576000610e298961119e565b806020019051810190610e3c9190612574565b805160405163133f757160e31b815291925060009182916001600160a01b038916916399fbab8891610e7091600401612a97565b6101806040518083038186803b158015610e8957600080fd5b505afa158015610e9d573d6000803e3d6000fd5b505050506040513d601f19601f82011682018060405250810190610ec19190612798565b5050505050505050935093505050846001600160a01b0316639be918e6836040518263ffffffff1660e01b8152600401610efb919061289e565b60206040518083038186803b158015610f1357600080fd5b505afa158015610f27573d6000803e3d6000fd5b505050506040513d601f19601f82011682018060405250810190610f4b9190612383565b610f675760405162461bcd60e51b81526004016107c790612c35565b604051634df48c7360e11b81526001600160a01b03861690639be918e690610f9390849060040161289e565b60206040518083038186803b158015610fab57600080fd5b505afa158015610fbf573d6000803e3d6000fd5b505050506040513d601f19601f82011682018060405250810190610fe39190612383565b610fff5760405162461bcd60e51b81526004016107c790612c02565b82602001516001600160a01b0316846001600160a01b0316146110345760405162461bcd60e51b81526004016107c790612b6e565b7fda096837604c42af709bd13794ab5c9f3d2ebc2297e06edbeda7af18245615e7866001600160a01b03166339b81fd96040518163ffffffff1660e01b815260040160206040518083038186803b15801561108e57600080fd5b505afa1580156110a2573d6000803e3d6000fd5b505050506040513d601f19601f820116820180604052508101906110c69190612236565b8451604080870151606088015191516110e3949392904290612979565b60405180910390a16018995050505061118d565b6001600160e01b03198516631592ca1b60e31b141561118d57600061111b8961119e565b80602001905181019061112e91906122b1565b905060005b81518110156111865761115a8c8c84848151811061114d57fe5b6020026020010151610661565b50985061ffff891661117e5760405162461bcd60e51b81526004016107c790612b0a565b600101611133565b5060199750505b506000945050505050935093915050565b60606102eb600480845103846112a79092919063ffffffff16565b60015460ff1681565b6000610384838360200260040160ff166020611217565b6000806111f1848460200260040160ff166020611217565b905061120284600483016020611217565b949350505050565b60006102eb826000610392565b60008183018451101561126f576040805162461bcd60e51b815260206004820152601b60248201527a52656164696e67206279746573206f7574206f6620626f756e647360281b604482015290519081900360640190fd5b82602001840151905081602003801561128e576008810260020a820491505b509392505050565b6112a18383836114a5565b50505050565b60608182601f0110156112f2576040805162461bcd60e51b815260206004820152600e60248201526d736c6963655f6f766572666c6f7760901b604482015290519081900360640190fd5b82828401101561133a576040805162461bcd60e51b815260206004820152600e60248201526d736c6963655f6f766572666c6f7760901b604482015290519081900360640190fd5b81830184511015611386576040805162461bcd60e51b8152602060048201526011602482015270736c6963655f6f75744f66426f756e647360781b604482015290519081900360640190fd5b6060821580156113a557604051915060008252602082016040526113ef565b6040519150601f8416801560200281840101858101878315602002848b0101015b818310156113de5780518352602092830192016113c6565b5050858452601f01601f1916604052505b50949350505050565b600061149b86866001600160a01b0316631698ee828787876040518463ffffffff1660e01b815260040180846001600160a01b03168152602001836001600160a01b031681526020018262ffffff168152602001935050505060206040518083038186803b15801561146957600080fd5b505afa15801561147d573d6000803e3d6000fd5b505050506040513d602081101561149357600080fd5b5051846119d1565b9695505050505050565b600080846001600160a01b03166339b81fd96040518163ffffffff1660e01b815260040160206040518083038186803b1580156114e157600080fd5b505afa1580156114f5573d6000803e3d6000fd5b505050506040513d601f19601f820116820180604052508101906115199190612236565b9050336001600160a01b038216146115435760405162461bcd60e51b81526004016107c790612c68565b600061154e8461120a565b9050846001600160e01b03198216634418b22b60e11b14156117e8576000816001600160a01b03166318160ddd6040518163ffffffff1660e01b815260040160206040518083038186803b1580156115a557600080fd5b505afa1580156115b9573d6000803e3d6000fd5b505050506040513d601f19601f820116820180604052508101906115dd9190612780565b90507f00000000000000000000000000000000000000000000000000000000000000006001600160a01b03166354d8c4ba88600080516020612d2f83398151915287866001600160a01b0316634f6ccce7600188036040518263ffffffff1660e01b815260040161164e9190612a97565b60206040518083038186803b15801561166657600080fd5b505afa15801561167a573d6000803e3d6000fd5b505050506040513d601f19601f8201168201806040525081019061169e9190612780565b6040516020016116ae9190612a97565b6040516020818303038152906040526040518563ffffffff1660e01b81526004016116dc949392919061291c565b600060405180830381600087803b1580156116f657600080fd5b505af115801561170a573d6000803e3d6000fd5b505050506000547f00000000000000000000000000000000000000000000000000000000000000006001600160a01b031663ab053684600080516020612d2f833981519152876040518363ffffffff1660e01b815260040161176d929190612aa0565b60206040518083038186803b15801561178557600080fd5b505afa158015611799573d6000803e3d6000fd5b505050506040513d601f19601f820116820180604052508101906117bd9190612780565b11156117db5760405162461bcd60e51b81526004016107c790612b37565b6001945050505050610384565b6001600160e01b03198216630852cd8d60e31b141561192357600061180c8661119e565b80602001905181019061181f9190612780565b9050600061182c856104ea565b905060005b81518110156118625781818151811061184657fe5b602002602001015183141561185a57611862565b600101611831565b815181106118825760405162461bcd60e51b81526004016107c790612bd0565b604051636631173960e11b81526001600160a01b037f0000000000000000000000000000000000000000000000000000000000000000169063cc622e72906118e2908c90600080516020612d2f833981519152908b90879060040161294f565b600060405180830381600087803b1580156118fc57600080fd5b505af1158015611910573d6000803e3d6000fd5b5050505060019650505050505050610384565b6001600160e01b03198216631592ca1b60e31b14156119c45760006119478661119e565b80602001905181019061195a91906122b1565b90506000805b82518110156119b7576119878a8a85848151811061197a57fe5b60200260200101516114a5565b156119af5781156119aa5760405162461bcd60e51b81526004016107c790612adf565b600191505b600101611960565b5094506103849350505050565b5060009695505050505050565b600080839050806001600160a01b0316633850c7bd6040518163ffffffff1660e01b815260040160e06040518083038186803b158015611a1057600080fd5b505afa158015611a24573d6000803e3d6000fd5b505050506040513d60e0811015611a3a57600080fd5b505160408051630dfe168160e01b81529051919350600091611b259188916001600160a01b03861691630dfe1681916004808301926020929190829003018186803b158015611a8857600080fd5b505afa158015611a9c573d6000803e3d6000fd5b505050506040513d6020811015611ab257600080fd5b50516040805163d21220a760e01b815290516001600160a01b0387169163d21220a7916004808301926020929190829003018186803b158015611af457600080fd5b505afa158015611b08573d6000803e3d6000fd5b505050506040513d6020811015611b1e57600080fd5b5051611c2b565b90506000610bb862ffffff86161015611b4057610bb8611b5b565b611b5b6064611b5562ffffff88166096611e21565b90611e7a565b9050611b8a611b7a620f4240611b556001600160a01b03861685611e21565b6001600160a01b03841690611ede565b846001600160a01b0316108015611bd55750611bc9611bb9620f4240611b556001600160a01b03861685611e21565b6001600160a01b03861690611ede565b826001600160a01b0316105b611c21576040805162461bcd60e51b81526020600482015260186024820152770aadcd240ec664098a040e0e4d2c6ca40dad2e6dac2e8c6d60431b604482015290519081900360640190fd5b5050509392505050565b600080846001600160a01b031663b3596f07856040518263ffffffff1660e01b815260040180826001600160a01b0316815260200191505060206040518083038186803b158015611c7b57600080fd5b505afa158015611c8f573d6000803e3d6000fd5b505050506040513d6020811015611ca557600080fd5b50516040805163b3596f0760e01b81526001600160a01b03868116600483015291519293506000929188169163b3596f0791602480820192602092909190829003018186803b158015611cf757600080fd5b505afa158015611d0b573d6000803e3d6000fd5b505050506040513d6020811015611d2157600080fd5b50516040805163313ce56760e01b815290519192506000916001600160a01b0388169163313ce567916004808301926020929190829003018186803b158015611d6957600080fd5b505afa158015611d7d573d6000803e3d6000fd5b505050506040513d6020811015611d9357600080fd5b50516040805163313ce56760e01b815290519192506000916001600160a01b0388169163313ce567916004808301926020929190829003018186803b158015611ddb57600080fd5b505afa158015611def573d6000803e3d6000fd5b505050506040513d6020811015611e0557600080fd5b50519050611e1584848484611f36565b98975050505050505050565b600082611e30575060006102eb565b82820282848281611e3d57fe5b04146103845760405162461bcd60e51b8152600401808060200182810382526021815260200180612d4f6021913960400191505060405180910390fd5b6000808211611ecd576040805162461bcd60e51b815260206004820152601a602482015279536166654d6174683a206469766973696f6e206279207a65726f60301b604482015290519081900360640190fd5b818381611ed657fe5b049392505050565b600082820183811015610384576040805162461bcd60e51b815260206004820152601b60248201527a536166654d6174683a206164646974696f6e206f766572666c6f7760281b604482015290519081900360640190fd5b600080611f4d85611b558860ff8716600a0a611e21565b90506000670de0b6b3a7640000821115611f7657506001611f73826402540be400611e7a565b91505b670de0b6b3a76400008211158015611f8f57506103e882115b611fe0576040805162461bcd60e51b815260206004820181905260248201527f556e6920763320707269636520726174696f206f7574206f6620626f756e6473604482015290519081900360640190fd5b611ffc611ff760c084901b60ff8816600a0a611e7a565b612030565b6001600160801b031692508015612026576120236001600160a01b038416620186a0611e21565b92505b5050949350505050565b60008161203f5750600061038d565b816001600160801b82106120585760809190911c9060401b5b600160401b821061206e5760409190911c9060201b5b600160201b82106120845760209190911c9060101b5b6201000082106120995760109190911c9060081b5b61010082106120ad5760089190911c9060041b5b601082106120c05760049190911c9060021b5b600882106120cc5760011b5b60018185816120d757fe5b048201901c905060018185816120e957fe5b048201901c905060018185816120fb57fe5b048201901c9050600181858161210d57fe5b048201901c9050600181858161211f57fe5b048201901c9050600181858161213157fe5b048201901c9050600181858161214357fe5b048201901c9050600081858161215557fe5b0490508082106121655780612167565b815b935050505061038d565b805161038d81612d16565b600082601f83011261218c578081fd5b813561219f61219a82612cc9565b612ca6565b8181528460208386010111156121b3578283fd5b816020850160208301379081016020019190915292915050565b8051600281900b811461038d57600080fd5b80516001600160801b038116811461038d57600080fd5b805162ffffff8116811461038d57600080fd5b803560ff8116811461038d57600080fd5b60006020828403121561222b578081fd5b813561038481612d16565b600060208284031215612247578081fd5b815161038481612d16565b600080600060608486031215612266578182fd5b833561227181612d16565b9250602084013561228181612d16565b915060408401356001600160401b0381111561229b578182fd5b6122a78682870161217c565b9150509250925092565b600060208083850312156122c3578182fd5b82516001600160401b03808211156122d9578384fd5b818501915085601f8301126122ec578384fd5b8151818111156122f857fe5b6123058485830201612ca6565b8181528481019250838501865b8381101561237557815186018a603f82011261232c578889fd5b87810151604061233e61219a83612cc9565b8281528d82848601011115612351578b8cfd5b612360838c8301848701612cea565b88525050509386019390860190600101612312565b509098975050505050505050565b600060208284031215612394578081fd5b81518015158114610384578182fd5b6000602082840312156123b4578081fd5b5035919050565b6000602082840312156123cc578081fd5b81356001600160401b038111156123e1578182fd5b6112028482850161217c565b600080604083850312156123ff578182fd5b82356001600160401b03811115612414578283fd5b6124208582860161217c565b95602094909401359450505050565b600080600060608486031215612443578081fd5b83356001600160401b03811115612458578182fd5b6124648682870161217c565b9660208601359650604090950135949350505050565b6000806040838503121561248c578182fd5b82356001600160401b038111156124a1578283fd5b6124ad8582860161217c565b9250506124bc60208401612209565b90509250929050565b6000806000606084860312156124d9578081fd5b83356001600160401b038111156124ee578182fd5b6124fa8682870161217c565b93505061250960208501612209565b9150604084013590509250925092565b60008060006060848603121561252d578081fd5b83356001600160401b03811115612542578182fd5b61254e8682870161217c565b93505061255d60208501612209565b915061256b60408501612209565b90509250925092565b600060808284031215612585578081fd5b604051608081018181106001600160401b03821117156125a157fe5b6040528251815260208301516125b681612d16565b60208201526125c7604084016121df565b60408201526125d8606084016121df565b60608201529392505050565b600060a082840312156125f5578081fd5b60405160a081018181106001600160401b038211171561261157fe5b60405282518152612624602084016121df565b60208201526040830151604082015260608301516060820152608083015160808201528091505092915050565b600060c08284031215612662578081fd5b60405160c081018181106001600160401b038211171561267e57fe5b8060405250825181526020830151602082015260408301516040820152606083015160608201526080830151608082015260a083015160a08201528091505092915050565b60006101608083850312156126d6578182fd5b6126df81612ca6565b90506126ea83612171565b81526126f860208401612171565b6020820152612709604084016121f6565b604082015261271a606084016121cd565b606082015261272b608084016121cd565b608082015260a083015160a082015260c083015160c082015260e083015160e0820152610100808401518183015250610120612768818501612171565b90820152610140928301519281019290925250919050565b600060208284031215612791578081fd5b5051919050565b6000806000806000806000806000806000806101808d8f0312156127ba57898afd5b8c516001600160601b03811681146127d0578a8bfd5b9b506127de60208e01612171565b9a506127ec60408e01612171565b99506127fa60608e01612171565b985061280860808e016121f6565b975061281660a08e016121cd565b965061282460c08e016121cd565b955061283260e08e016121df565b94506101008d015193506101208d015192506128516101408e016121df565b91506128606101608e016121df565b90509295989b509295989b509295989b565b6000815180845261288a816020860160208601612cea565b601f01601f19169290920160200192915050565b6001600160a01b0391909116815260200190565b6001600160a01b039b8c168152998b1660208b015297909916604089015262ffffff959095166060880152600293840b60808801529190920b60a086015260c085019190915260e08401526101008301526101208201929092526101408101919091526101600190565b6001600160a01b038581168252602082018590528316604082015260806060820181905260009061149b90830184612872565b6001600160a01b039485168152602081019390935292166040820152606081019190915260800190565b6001600160a01b0395909516855260208501939093526001600160801b039182166040850152166060830152608082015260a00190565b6001600160a01b0396909616865260208601949094526001600160801b039290921660408501526060840152608083015260a082015260c00190565b6001600160a01b039390931683526020830191909152604082015260600190565b6001600160a01b03979097168752602087019590955260408601939093526060850191909152608084015260a083015260c082015260e00190565b6020808252825182820181905260009190848201906040850190845b81811015612a8057835183529284019291840191600101612a64565b50909695505050505050565b901515815260200190565b90815260200190565b9182526001600160a01b0316602082015260400190565b6001600160e01b031991909116815260200190565b6000602082526103846020830184612872565b6020808252601190820152701a5b9d985b1a59081b5d5b1d1a58d85b1b607a1b604082015260600190565b60208082526013908201527234b73b30b634b2103a3930b739b0b1ba34b7b760691b604082015260600190565b6020808252601d908201527f746f6f206d616e7920756e697377617020763320706f736974696f6e73000000604082015260600190565b6020808252601590820152741c9958da5c1a595b9d081a5cc81b9bdd081c1bdbdb605a1b604082015260600190565b6020808252601990820152781d5b9a5cddd85c08185cdcd95d081b9bdd08195b98589b1959603a1b604082015260600190565b602080825260189082015277706f736974696f6e206973206e6f7420696e20747261636b60401b604082015260600190565b6020808252601990820152783ab739bab83837b93a32b21030b9b9b2ba1d103a37b5b2b72160391b604082015260600190565b602080825260199082015278756e737570706f727465642061737365743a20746f6b656e4160381b604082015260600190565b6020808252600e908201526d6e6f7420706f6f6c206c6f67696360901b604082015260600190565b61ffff9290921682521515602082015260400190565b6040518181016001600160401b0381118282101715612cc157fe5b604052919050565b60006001600160401b03821115612cdc57fe5b50601f01601f191660200190565b60005b83811015612d05578181015183820152602001612ced565b838111156112a15750506000910152565b6001600160a01b0381168114612d2b57600080fd5b5056fe78033d542bb5872ced8cc03ed54a619b342d0e8ea0227fe1b16760b308cf6b5c536166654d6174683a206d756c7469706c69636174696f6e206f766572666c6f77a26469706673582212207c25f53e794079ecce6e02a76f090ba5798541973af5e836f6d1f31d15864c4164736f6c63430007060033",
  "linkReferences": {},
  "deployedLinkReferences": {}
}