{
  "_format": "hh-sol-artifact-1",
  "contractName": "DhedgeStakingV2VDHTCalculator",
  "sourceName": "contracts/stakingv2/DhedgeStakingV2VDHTCalculator.sol",
  "abi": [
    {
      "inputs": [
        {
          "internalType": "uint256",
          "name": "stakeStartTime",
          "type": "uint256"
        },
        {
          "internalType": "uint256",
          "name": "dhtAmount",
          "type": "uint256"
        },
        {
          "internalType": "uint256",
          "name": "stakeFinishTime",
          "type": "uint256"
        },
        {
          "internalType": "uint256",
          "name": "maxVDurationTime",
          "type": "uint256"
        }
      ],
      "name": "calculateVDHT",
      "outputs": [
        {
          "internalType": "uint256",
          "name": "vDHT",
          "type": "uint256"
        }
      ],
      "stateMutability": "pure",
      "type": "function"
    }
  ],
  "bytecode": "0x608060405234801561001057600080fd5b5061022d806100206000396000f3fe608060405234801561001057600080fd5b506004361061002b5760003560e01c806301ead68a14610030575b600080fd5b61005f6004803603608081101561004657600080fd5b5080359060208101359060408101359060600135610071565b60408051918252519081900360200190f35b60008061007e84876100b0565b905082811115610090578491506100a7565b6100a48361009e8784610112565b90610172565b91505b50949350505050565b600082821115610107576040805162461bcd60e51b815260206004820152601e60248201527f536166654d6174683a207375627472616374696f6e206f766572666c6f770000604482015290519081900360640190fd5b508082035b92915050565b6000826101215750600061010c565b8282028284828161012e57fe5b041461016b5760405162461bcd60e51b81526004018080602001828103825260218152602001806101d76021913960400191505060405180910390fd5b9392505050565b60008082116101c5576040805162461bcd60e51b815260206004820152601a602482015279536166654d6174683a206469766973696f6e206279207a65726f60301b604482015290519081900360640190fd5b8183816101ce57fe5b04939250505056fe536166654d6174683a206d756c7469706c69636174696f6e206f766572666c6f77a2646970667358221220a407faaedfbbdf202bd43f0964a19c1777a72db4ff3a896e1cb2b2a320f5562a64736f6c63430007060033",
  "linkReferences": {},
  "deployedLinkReferences": {}
}