{
  "_format": "hh-sol-artifact-1",
  "contractName": "DynamicBonds",
  "sourceName": "contracts/DynamicBonds.sol",
  "abi": [
    {
      "anonymous": false,
      "inputs": [
        {
          "components": [
            {
              "internalType": "uint256",
              "name": "price",
              "type": "uint256"
            },
            {
              "internalType": "uint256",
              "name": "lockPeriod",
              "type": "uint256"
            }
          ],
          "indexed": false,
          "internalType": "struct DynamicBonds.BondOption[]",
          "name": "bondOptions",
          "type": "tuple[]"
        }
      ],
      "name": "AddBondOptions",
      "type": "event"
    },
    {
      "anonymous": false,
      "inputs": [
        {
          "indexed": true,
          "internalType": "address",
          "name": "user",
          "type": "address"
        },
        {
          "indexed": false,
          "internalType": "uint256",
          "name": "bondId",
          "type": "uint256"
        }
      ],
      "name": "Claim",
      "type": "event"
    },
    {
      "anonymous": false,
      "inputs": [
        {
          "indexed": true,
          "internalType": "address",
          "name": "user",
          "type": "address"
        },
        {
          "indexed": false,
          "internalType": "uint256",
          "name": "bondId",
          "type": "uint256"
        },
        {
          "indexed": false,
          "internalType": "uint256",
          "name": "payoutAmount",
          "type": "uint256"
        },
        {
          "components": [
            {
              "internalType": "uint256",
              "name": "price",
              "type": "uint256"
            },
            {
              "internalType": "uint256",
              "name": "lockPeriod",
              "type": "uint256"
            }
          ],
          "indexed": false,
          "internalType": "struct DynamicBonds.BondOption",
          "name": "bondOption",
          "type": "tuple"
        }
      ],
      "name": "Deposit",
      "type": "event"
    },
    {
      "anonymous": false,
      "inputs": [
        {
          "indexed": true,
          "internalType": "address",
          "name": "previousOwner",
          "type": "address"
        },
        {
          "indexed": true,
          "internalType": "address",
          "name": "newOwner",
          "type": "address"
        }
      ],
      "name": "OwnershipTransferred",
      "type": "event"
    },
    {
      "anonymous": false,
      "inputs": [
        {
          "indexed": false,
          "internalType": "address",
          "name": "account",
          "type": "address"
        }
      ],
      "name": "Paused",
      "type": "event"
    },
    {
      "anonymous": false,
      "inputs": [
        {
          "indexed": false,
          "internalType": "uint256",
          "name": "payoutAvailable",
          "type": "uint256"
        },
        {
          "indexed": false,
          "internalType": "uint256",
          "name": "expiryTimestamp",
          "type": "uint256"
        }
      ],
      "name": "SetBondTerms",
      "type": "event"
    },
    {
      "anonymous": false,
      "inputs": [
        {
          "indexed": false,
          "internalType": "address",
          "name": "account",
          "type": "address"
        }
      ],
      "name": "Unpaused",
      "type": "event"
    },
    {
      "anonymous": false,
      "inputs": [
        {
          "indexed": false,
          "internalType": "uint256",
          "name": "index",
          "type": "uint256"
        },
        {
          "components": [
            {
              "internalType": "uint256",
              "name": "price",
              "type": "uint256"
            },
            {
              "internalType": "uint256",
              "name": "lockPeriod",
              "type": "uint256"
            }
          ],
          "indexed": false,
          "internalType": "struct DynamicBonds.BondOption",
          "name": "bondOption",
          "type": "tuple"
        }
      ],
      "name": "UpdateBondOption",
      "type": "event"
    },
    {
      "anonymous": false,
      "inputs": [
        {
          "indexed": false,
          "internalType": "uint256[]",
          "name": "index",
          "type": "uint256[]"
        },
        {
          "components": [
            {
              "internalType": "uint256",
              "name": "price",
              "type": "uint256"
            },
            {
              "internalType": "uint256",
              "name": "lockPeriod",
              "type": "uint256"
            }
          ],
          "indexed": false,
          "internalType": "struct DynamicBonds.BondOption[]",
          "name": "bondOption",
          "type": "tuple[]"
        }
      ],
      "name": "UpdateBondOptions",
      "type": "event"
    },
    {
      "inputs": [
        {
          "components": [
            {
              "internalType": "uint256",
              "name": "price",
              "type": "uint256"
            },
            {
              "internalType": "uint256",
              "name": "lockPeriod",
              "type": "uint256"
            }
          ],
          "internalType": "struct DynamicBonds.BondOption[]",
          "name": "_bondOptions",
          "type": "tuple[]"
        }
      ],
      "name": "addBondOptions",
      "outputs": [],
      "stateMutability": "nonpayable",
      "type": "function"
    },
    {
      "inputs": [],
      "name": "bondNumber",
      "outputs": [
        {
          "internalType": "uint256",
          "name": "",
          "type": "uint256"
        }
      ],
      "stateMutability": "view",
      "type": "function"
    },
    {
      "inputs": [],
      "name": "bondOptions",
      "outputs": [
        {
          "components": [
            {
              "internalType": "uint256",
              "name": "price",
              "type": "uint256"
            },
            {
              "internalType": "uint256",
              "name": "lockPeriod",
              "type": "uint256"
            }
          ],
          "internalType": "struct DynamicBonds.BondOption[]",
          "name": "",
          "type": "tuple[]"
        }
      ],
      "stateMutability": "view",
      "type": "function"
    },
    {
      "inputs": [],
      "name": "bondTerms",
      "outputs": [
        {
          "internalType": "uint256",
          "name": "payoutAvailable",
          "type": "uint256"
        },
        {
          "internalType": "uint256",
          "name": "expiryTimestamp",
          "type": "uint256"
        }
      ],
      "stateMutability": "view",
      "type": "function"
    },
    {
      "inputs": [
        {
          "internalType": "uint256",
          "name": "",
          "type": "uint256"
        }
      ],
      "name": "bonds",
      "outputs": [
        {
          "internalType": "address",
          "name": "bondOwner",
          "type": "address"
        },
        {
          "internalType": "uint256",
          "name": "lockAmount",
          "type": "uint256"
        },
        {
          "components": [
            {
              "internalType": "uint256",
              "name": "price",
              "type": "uint256"
            },
            {
              "internalType": "uint256",
              "name": "lockPeriod",
              "type": "uint256"
            }
          ],
          "internalType": "struct DynamicBonds.BondOption",
          "name": "bondOption",
          "type": "tuple"
        },
        {
          "internalType": "uint256",
          "name": "lockStartedAt",
          "type": "uint256"
        },
        {
          "internalType": "bool",
          "name": "claimed",
          "type": "bool"
        }
      ],
      "stateMutability": "view",
      "type": "function"
    },
    {
      "inputs": [
        {
          "internalType": "uint256",
          "name": "_bondId",
          "type": "uint256"
        }
      ],
      "name": "claim",
      "outputs": [],
      "stateMutability": "nonpayable",
      "type": "function"
    },
    {
      "inputs": [],
      "name": "debtTotal",
      "outputs": [
        {
          "internalType": "uint256",
          "name": "",
          "type": "uint256"
        }
      ],
      "stateMutability": "view",
      "type": "function"
    },
    {
      "inputs": [
        {
          "internalType": "uint256",
          "name": "_maxDepositAmount",
          "type": "uint256"
        },
        {
          "internalType": "uint256",
          "name": "_payoutAmount",
          "type": "uint256"
        },
        {
          "internalType": "uint256",
          "name": "_bondOptionIndex",
          "type": "uint256"
        }
      ],
      "name": "deposit",
      "outputs": [],
      "stateMutability": "nonpayable",
      "type": "function"
    },
    {
      "inputs": [],
      "name": "depositToken",
      "outputs": [
        {
          "internalType": "address",
          "name": "",
          "type": "address"
        }
      ],
      "stateMutability": "view",
      "type": "function"
    },
    {
      "inputs": [],
      "name": "depositTotal",
      "outputs": [
        {
          "internalType": "uint256",
          "name": "",
          "type": "uint256"
        }
      ],
      "stateMutability": "view",
      "type": "function"
    },
    {
      "inputs": [
        {
          "internalType": "address",
          "name": "_token",
          "type": "address"
        },
        {
          "internalType": "uint256",
          "name": "_amount",
          "type": "uint256"
        }
      ],
      "name": "forceWithdraw",
      "outputs": [],
      "stateMutability": "nonpayable",
      "type": "function"
    },
    {
      "inputs": [
        {
          "internalType": "address",
          "name": "_user",
          "type": "address"
        }
      ],
      "name": "getUserBonds",
      "outputs": [
        {
          "components": [
            {
              "internalType": "uint256",
              "name": "bondId",
              "type": "uint256"
            },
            {
              "internalType": "address",
              "name": "bondOwner",
              "type": "address"
            },
            {
              "internalType": "uint256",
              "name": "lockAmount",
              "type": "uint256"
            },
            {
              "components": [
                {
                  "internalType": "uint256",
                  "name": "price",
                  "type": "uint256"
                },
                {
                  "internalType": "uint256",
                  "name": "lockPeriod",
                  "type": "uint256"
                }
              ],
              "internalType": "struct DynamicBonds.BondOption",
              "name": "bondOption",
              "type": "tuple"
            },
            {
              "internalType": "uint256",
              "name": "lockStartedAt",
              "type": "uint256"
            },
            {
              "internalType": "bool",
              "name": "claimed",
              "type": "bool"
            }
          ],
          "internalType": "struct DynamicBonds.BondView[]",
          "name": "bondsArray",
          "type": "tuple[]"
        }
      ],
      "stateMutability": "view",
      "type": "function"
    },
    {
      "inputs": [
        {
          "internalType": "address",
          "name": "_depositToken",
          "type": "address"
        },
        {
          "internalType": "address",
          "name": "_payoutToken",
          "type": "address"
        },
        {
          "internalType": "address",
          "name": "_treasury",
          "type": "address"
        },
        {
          "internalType": "uint256",
          "name": "_minBondPrice",
          "type": "uint256"
        },
        {
          "internalType": "uint256",
          "name": "_maxPayoutAvailable",
          "type": "uint256"
        }
      ],
      "name": "initialize",
      "outputs": [],
      "stateMutability": "nonpayable",
      "type": "function"
    },
    {
      "inputs": [],
      "name": "maxPayoutAvailable",
      "outputs": [
        {
          "internalType": "uint256",
          "name": "",
          "type": "uint256"
        }
      ],
      "stateMutability": "view",
      "type": "function"
    },
    {
      "inputs": [],
      "name": "minBondPrice",
      "outputs": [
        {
          "internalType": "uint256",
          "name": "",
          "type": "uint256"
        }
      ],
      "stateMutability": "view",
      "type": "function"
    },
    {
      "inputs": [],
      "name": "owner",
      "outputs": [
        {
          "internalType": "address",
          "name": "",
          "type": "address"
        }
      ],
      "stateMutability": "view",
      "type": "function"
    },
    {
      "inputs": [],
      "name": "paused",
      "outputs": [
        {
          "internalType": "bool",
          "name": "",
          "type": "bool"
        }
      ],
      "stateMutability": "view",
      "type": "function"
    },
    {
      "inputs": [],
      "name": "payoutToken",
      "outputs": [
        {
          "internalType": "address",
          "name": "",
          "type": "address"
        }
      ],
      "stateMutability": "view",
      "type": "function"
    },
    {
      "inputs": [],
      "name": "renounceOwnership",
      "outputs": [],
      "stateMutability": "nonpayable",
      "type": "function"
    },
    {
      "inputs": [
        {
          "internalType": "uint256",
          "name": "_payoutAvailable",
          "type": "uint256"
        },
        {
          "internalType": "uint256",
          "name": "_expiryTimestamp",
          "type": "uint256"
        }
      ],
      "name": "setBondTerms",
      "outputs": [],
      "stateMutability": "nonpayable",
      "type": "function"
    },
    {
      "inputs": [
        {
          "internalType": "uint256",
          "name": "_maxPayoutAvailable",
          "type": "uint256"
        }
      ],
      "name": "setMaxPayoutAvailable",
      "outputs": [],
      "stateMutability": "nonpayable",
      "type": "function"
    },
    {
      "inputs": [
        {
          "internalType": "uint256",
          "name": "_minBondPrice",
          "type": "uint256"
        }
      ],
      "name": "setMinBondPrice",
      "outputs": [],
      "stateMutability": "nonpayable",
      "type": "function"
    },
    {
      "inputs": [
        {
          "internalType": "address",
          "name": "_treasury",
          "type": "address"
        }
      ],
      "name": "setTreasury",
      "outputs": [],
      "stateMutability": "nonpayable",
      "type": "function"
    },
    {
      "inputs": [
        {
          "internalType": "address",
          "name": "newOwner",
          "type": "address"
        }
      ],
      "name": "transferOwnership",
      "outputs": [],
      "stateMutability": "nonpayable",
      "type": "function"
    },
    {
      "inputs": [],
      "name": "treasury",
      "outputs": [
        {
          "internalType": "address",
          "name": "",
          "type": "address"
        }
      ],
      "stateMutability": "view",
      "type": "function"
    },
    {
      "inputs": [
        {
          "internalType": "uint256",
          "name": "_index",
          "type": "uint256"
        },
        {
          "components": [
            {
              "internalType": "uint256",
              "name": "price",
              "type": "uint256"
            },
            {
              "internalType": "uint256",
              "name": "lockPeriod",
              "type": "uint256"
            }
          ],
          "internalType": "struct DynamicBonds.BondOption",
          "name": "_bondOption",
          "type": "tuple"
        }
      ],
      "name": "updateBondOption",
      "outputs": [],
      "stateMutability": "nonpayable",
      "type": "function"
    },
    {
      "inputs": [
        {
          "internalType": "uint256[]",
          "name": "_indexes",
          "type": "uint256[]"
        },
        {
          "components": [
            {
              "internalType": "uint256",
              "name": "price",
              "type": "uint256"
            },
            {
              "internalType": "uint256",
              "name": "lockPeriod",
              "type": "uint256"
            }
          ],
          "internalType": "struct DynamicBonds.BondOption[]",
          "name": "_bondOptions",
          "type": "tuple[]"
        }
      ],
      "name": "updateBondOptions",
      "outputs": [],
      "stateMutability": "nonpayable",
      "type": "function"
    },
    {
      "inputs": [
        {
          "internalType": "address",
          "name": "",
          "type": "address"
        },
        {
          "internalType": "uint256",
          "name": "",
          "type": "uint256"
        }
      ],
      "name": "userBonds",
      "outputs": [
        {
          "internalType": "uint256",
          "name": "",
          "type": "uint256"
        }
      ],
      "stateMutability": "view",
      "type": "function"
    }
  ],
  "bytecode": "0x608060405234801561001057600080fd5b5061224f806100206000396000f3fe608060405234801561001057600080fd5b50600436106101535760003560e01c8062aeef8a146101585780633526a7ca1461016d578063379607f5146101965780634adae0da146101a95780634efa82b6146101b15780635c975abb146101c65780635f1c17c0146101db57806361d027b3146101ff5780637046ce4114610207578063715018a61461021a57806375b6a2db146102225780638da5cb5b1461022a5780638e38dc5014610232578063952d87961461024557806397c7b551146102585780639b087e6c14610278578063a6b63eb814610280578063af3aaf1714610293578063c6a6f09b146102a8578063c88b4ae4146102b0578063c89039c5146102c3578063ce6a1f86146102cb578063cf8c353b146102de578063de6efb31146102f1578063e7e7e38714610307578063f0f442601461030f578063f0fd631814610322578063f2fde38b14610335575b600080fd5b61016b610166366004611c6e565b610348565b005b61018061017b366004611af0565b6105fc565b60405161018d91906120de565b60405180910390f35b61016b6101a4366004611c09565b61062d565b6101806107af565b6101b96107b5565b60405161018d9190611d0d565b6101ce6107c4565b60405161018d9190611e92565b6101ee6101e9366004611c09565b6107cd565b60405161018d959493929190611d5e565b6101b9610820565b61016b610215366004611c09565b61082f565b61016b610896565b610180610930565b6101b9610936565b61016b610240366004611c21565b610945565b61016b610253366004611af0565b6109ee565b61026b610266366004611a7b565b610ab5565b60405161018d9190611dad565b610180610c8d565b61016b61028e366004611a9c565b610c93565b61029b610e0a565b60405161018d9190611d9a565b610180610e80565b61016b6102be366004611c4d565b610e86565b6101b9610f65565b61016b6102d9366004611b19565b610f74565b61016b6102ec366004611c09565b61109d565b6102f9611104565b60405161018d9291906120fb565b61018061110d565b61016b61031d366004611a7b565b611113565b61016b610330366004611b53565b611197565b61016b610343366004611a7b565b611290565b609e544211156103735760405162461bcd60e51b815260040161036a90611f85565b60405180910390fd5b609d548211156103955760405162461bcd60e51b815260040161036a90612001565b609f5481106103b65760405162461bcd60e51b815260040161036a90612084565b6000609d60020182815481106103c857fe5b906000526020600020906002020160405180604001604052908160008201548152602001600182015481525050905060a2548160000151101561041d5760405162461bcd60e51b815260040161036a90611e9d565b60a454815160009161043a91610434908790611381565b906113e3565b90508481111561045c5760405162461bcd60e51b815260040161036a90611f2b565b6099546040516104cf916323b872dd60e01b9161048b9133916001600160a01b03909116908690602401611d21565b60408051601f198184030181529190526020810180516001600160e01b03166001600160e01b0319909316929092179091526097546001600160a01b031690611447565b506040805160a080820183523380835260208084018981528486018881524260608701908152600060808801818152609c80548352978652898220985189546001600160a01b0319166001600160a01b0390911617895593516001808a01919091559251805160028a015585015160038901559051600488015591516005909601805460ff19169615159690961790955591825260a18152938120915482549384018355918152929092200155609d54610589908561147a565b609d55609a5461059990826114d7565b609a55609b546105a990856114d7565b609b55609c5460405133917f0be9f2e55f2a5fdcc37ac9e13a43aa32e80789a3a7870d39e3bc41d34774dfec916105e4919088908790612109565b60405180910390a25050609c80546001019055505050565b60a1602052816000526040600020818154811061061857600080fd5b90600052602060002001600091509150505481565b609c54811061064e5760405162461bcd60e51b815260040161036a90612038565b600081815260a06020526040902080546001600160a01b031633146106855760405162461bcd60e51b815260040161036a90611fdb565b60038101546004820154429161069b91906114d7565b11156106b95760405162461bcd60e51b815260040161036a90612064565b600581015460ff16156106de5760405162461bcd60e51b815260040161036a90611f5c565b60058101805460ff19166001908117909155810154609b546106ff9161147a565b609b5560018101546040516107699163a9059cbb60e01b91610725913391602401611d45565b60408051601f198184030181529190526020810180516001600160e01b03166001600160e01b0319909316929092179091526098546001600160a01b031690611447565b50336001600160a01b03167f47cee97cb7acd717b3c0aa1435d004cd5b3c8c57d70dbceb4e4458bbd60e39d4836040516107a391906120de565b60405180910390a25050565b609a5481565b6098546001600160a01b031681565b60655460ff1690565b60a0602090815260009182526040918290208054600182015484518086019095526002830154855260038301549385019390935260048201546005909201546001600160a01b0390911693919060ff1685565b6099546001600160a01b031681565b61083761152f565b6001600160a01b0316610848610936565b6001600160a01b031614610891576040805162461bcd60e51b815260206004820181905260248201526000805160206121da833981519152604482015290519081900360640190fd5b60a255565b61089e61152f565b6001600160a01b03166108af610936565b6001600160a01b0316146108f8576040805162461bcd60e51b815260206004820181905260248201526000805160206121da833981519152604482015290519081900360640190fd5b6033546040516000916001600160a01b0316906000805160206121fa833981519152908390a3603380546001600160a01b0319169055565b60a25481565b6033546001600160a01b031690565b61094d61152f565b6001600160a01b031661095e610936565b6001600160a01b0316146109a7576040805162461bcd60e51b815260206004820181905260248201526000805160206121da833981519152604482015290519081900360640190fd5b6109b18282611533565b7f7e992bd08d1850c94e8f6937bb47fd801628223fbd90c2a5710d504140092c5582826040516109e29291906120e7565b60405180910390a15050565b6109f661152f565b6001600160a01b0316610a07610936565b6001600160a01b031614610a50576040805162461bcd60e51b815260206004820181905260248201526000805160206121da833981519152604482015290519081900360640190fd5b610ab063a9059cbb60e01b3383604051602401610a6e929190611d45565b60408051601f198184030181529190526020810180516001600160e01b03166001600160e01b0319909316929092179091526001600160a01b03841690611447565b505050565b6001600160a01b038116600090815260a160209081526040808320805482518185028101850190935280835260609493830182828015610b1457602002820191906000526020600020905b815481526020019060010190808311610b00575b5050505050905080516001600160401b0381118015610b3257600080fd5b50604051908082528060200260200182016040528015610b6c57816020015b610b59611947565b815260200190600190039081610b515790505b50915060005b8151811015610c8657600060a06000848481518110610b8d57fe5b6020908102919091018101518252818101929092526040908101600020815160a08101835281546001600160a01b03168152600182015481850152825180840184526002830154815260038301549481019490945280830193909352600481015460608401526005015460ff1615156080830152805160c081019091528451919250908190859085908110610c1e57fe5b6020026020010151815260200182600001516001600160a01b0316815260200182602001518152602001826040015181526020018260600151815260200182608001511515815250848381518110610c7257fe5b602090810291909101015250600101610b72565b5050919050565b60a35481565b600054610100900460ff1680610cac5750610cac6115ab565b80610cba575060005460ff16155b610cf55760405162461bcd60e51b815260040180806020018281038252602e81526020018061218b602e913960400191505060405180910390fd5b600054610100900460ff16158015610d20576000805460ff1961ff0019909116610100171660011790555b610d286115bc565b610d3061166e565b609780546001600160a01b038089166001600160a01b031992831617909255609880548884169083168117909155609980549388169390921692909217905560a284905560a38390556040805163313ce56760e01b8152905163313ce56791600480820192602092909190829003018186803b158015610daf57600080fd5b505afa158015610dc3573d6000803e3d6000fd5b505050506040513d601f19601f82011682018060405250810190610de79190611c99565b60ff16600a0a60a4558015610e02576000805461ff00191690555b505050505050565b6060609d600201805480602002602001604051908101604052809291908181526020016000905b82821015610e7757838290600052602060002090600202016040518060400160405290816000820154815260200160018201548152505081526020019060010190610e31565b50505050905090565b609c5481565b610e8e61152f565b6001600160a01b0316610e9f610936565b6001600160a01b031614610ee8576040805162461bcd60e51b815260206004820181905260248201526000805160206121da833981519152604482015290519081900360640190fd5b60a354821115610f0a5760405162461bcd60e51b815260040161036a90611fa6565b428111610f295760405162461bcd60e51b815260040161036a90611ef9565b609d829055609e8190556040517f6ce30ede0614e2c337df047a16883821e992fff8189523906fdc63fa247b014e906109e290849084906120fb565b6097546001600160a01b031681565b610f7c61152f565b6001600160a01b0316610f8d610936565b6001600160a01b031614610fd6576040805162461bcd60e51b815260206004820181905260248201526000805160206121da833981519152604482015290519081900360640190fd5b60005b81518110156110625760a254828281518110610ff157fe5b602002602001015160000151101561101b5760405162461bcd60e51b815260040161036a90611e9d565b609d60020182828151811061102c57fe5b60209081029190910181015182546001818101855560009485529383902082516002909202019081559101519082015501610fd9565b507f0a413af7751571fb03d47cfa8f63a88c00b1cef0cdd0066fff106970ea318793816040516110929190611d9a565b60405180910390a150565b6110a561152f565b6001600160a01b03166110b6610936565b6001600160a01b0316146110ff576040805162461bcd60e51b815260206004820181905260248201526000805160206121da833981519152604482015290519081900360640190fd5b60a355565b609d54609e5482565b609b5481565b61111b61152f565b6001600160a01b031661112c610936565b6001600160a01b031614611175576040805162461bcd60e51b815260206004820181905260248201526000805160206121da833981519152604482015290519081900360640190fd5b609980546001600160a01b0319166001600160a01b0392909216919091179055565b61119f61152f565b6001600160a01b03166111b0610936565b6001600160a01b0316146111f9576040805162461bcd60e51b815260206004820181905260248201526000805160206121da833981519152604482015290519081900360640190fd5b805182511461121a5760405162461bcd60e51b815260040161036a90611ecb565b60005b825181101561125e5761125683828151811061123557fe5b602002602001015183838151811061124957fe5b6020026020010151611533565b60010161121d565b507f5d371b2358f59a0da89fab37fa9877263823f21f37a2718486177e9383b1639382826040516109e2929190611e3b565b61129861152f565b6001600160a01b03166112a9610936565b6001600160a01b0316146112f2576040805162461bcd60e51b815260206004820181905260248201526000805160206121da833981519152604482015290519081900360640190fd5b6001600160a01b0381166113375760405162461bcd60e51b81526004018080602001828103825260268152602001806121656026913960400191505060405180910390fd5b6033546040516001600160a01b038084169216906000805160206121fa83398151915290600090a3603380546001600160a01b0319166001600160a01b0392909216919091179055565b600082611390575060006113dd565b8282028284828161139d57fe5b04146113da5760405162461bcd60e51b81526004018080602001828103825260218152602001806121b96021913960400191505060405180910390fd5b90505b92915050565b6000808211611436576040805162461bcd60e51b815260206004820152601a602482015279536166654d6174683a206469766973696f6e206279207a65726f60301b604482015290519081900360640190fd5b81838161143f57fe5b049392505050565b60008060008351602085016000875af1905080156001811461146857611473565b3d806000803e806000fd5b5092915050565b6000828211156114d1576040805162461bcd60e51b815260206004820152601e60248201527f536166654d6174683a207375627472616374696f6e206f766572666c6f770000604482015290519081900360640190fd5b50900390565b6000828201838110156113da576040805162461bcd60e51b815260206004820152601b60248201527a536166654d6174683a206164646974696f6e206f766572666c6f7760281b604482015290519081900360640190fd5b3390565b609f5482106115545760405162461bcd60e51b815260040161036a906120b7565b60a254815110156115775760405162461bcd60e51b815260040161036a90611e9d565b80609d600201838154811061158857fe5b600091825260209182902083516002909202019081559101516001909101555050565b60006115b63061170b565b15905090565b600054610100900460ff16806115d557506115d56115ab565b806115e3575060005460ff16155b61161e5760405162461bcd60e51b815260040180806020018281038252602e81526020018061218b602e913960400191505060405180910390fd5b600054610100900460ff16158015611649576000805460ff1961ff0019909116610100171660011790555b611651611715565b6116596117b5565b801561166b576000805461ff00191690555b50565b600054610100900460ff168061168757506116876115ab565b80611695575060005460ff16155b6116d05760405162461bcd60e51b815260040180806020018281038252602e81526020018061218b602e913960400191505060405180910390fd5b600054610100900460ff161580156116fb576000805460ff1961ff0019909116610100171660011790555b611703611715565b61165961189c565b803b15155b919050565b600054610100900460ff168061172e575061172e6115ab565b8061173c575060005460ff16155b6117775760405162461bcd60e51b815260040180806020018281038252602e81526020018061218b602e913960400191505060405180910390fd5b600054610100900460ff16158015611659576000805460ff1961ff001990911661010017166001179055801561166b576000805461ff001916905550565b600054610100900460ff16806117ce57506117ce6115ab565b806117dc575060005460ff16155b6118175760405162461bcd60e51b815260040180806020018281038252602e81526020018061218b602e913960400191505060405180910390fd5b600054610100900460ff16158015611842576000805460ff1961ff0019909116610100171660011790555b600061184c61152f565b603380546001600160a01b0319166001600160a01b038316908117909155604051919250906000906000805160206121fa833981519152908290a350801561166b576000805461ff001916905550565b600054610100900460ff16806118b557506118b56115ab565b806118c3575060005460ff16155b6118fe5760405162461bcd60e51b815260040180806020018281038252602e81526020018061218b602e913960400191505060405180910390fd5b600054610100900460ff16158015611929576000805460ff1961ff0019909116610100171660011790555b6065805460ff19169055801561166b576000805461ff001916905550565b6040518060c001604052806000815260200160006001600160a01b031681526020016000815260200161197861198c565b815260006020820181905260409091015290565b604051806040016040528060008152602001600081525090565b80356001600160a01b038116811461171057600080fd5b600082601f8301126119cd578081fd5b813560206119e26119dd83612147565b612124565b82815281810190858301604080860288018501891015611a00578687fd5b865b86811015611a2657611a148a84611a34565b85529385019391810191600101611a02565b509198975050505050505050565b600060408284031215611a45578081fd5b604051604081018181106001600160401b0382111715611a6157fe5b604052823581526020928301359281019290925250919050565b600060208284031215611a8c578081fd5b611a95826119a6565b9392505050565b600080600080600060a08688031215611ab3578081fd5b611abc866119a6565b9450611aca602087016119a6565b9350611ad8604087016119a6565b94979396509394606081013594506080013592915050565b60008060408385031215611b02578182fd5b611b0b836119a6565b946020939093013593505050565b600060208284031215611b2a578081fd5b81356001600160401b03811115611b3f578182fd5b611b4b848285016119bd565b949350505050565b60008060408385031215611b65578182fd5b82356001600160401b0380821115611b7b578384fd5b818501915085601f830112611b8e578384fd5b81356020611b9e6119dd83612147565b82815281810190858301838502870184018b1015611bba578889fd5b8896505b84871015611bdc578035835260019690960195918301918301611bbe565b5096505086013592505080821115611bf2578283fd5b50611bff858286016119bd565b9150509250929050565b600060208284031215611c1a578081fd5b5035919050565b60008060608385031215611c33578182fd5b82359150611c448460208501611a34565b90509250929050565b60008060408385031215611c5f578182fd5b50508035926020909101359150565b600080600060608486031215611c82578283fd5b505081359360208301359350604090920135919050565b600060208284031215611caa578081fd5b815160ff811681146113da578182fd5b6000815180845260208085019450808401835b83811015611cf357611ce0878351611cfe565b6040969096019590820190600101611ccd565b509495945050505050565b80518252602090810151910152565b6001600160a01b0391909116815260200190565b6001600160a01b039384168152919092166020820152604081019190915260600190565b6001600160a01b03929092168252602082015260400190565b6001600160a01b03861681526020810185905260c08101611d826040830186611cfe565b83608083015282151560a08301529695505050505050565b600060208252611a956020830184611cba565b602080825282518282018190526000919060409081850190868401855b82811015611e2e57815180518552868101516001600160a01b0316878601528581015186860152606080820151611e0382880182611cfe565b5050608081015160a0868101919091520151151560c085015260e09093019290850190600101611dca565b5091979650505050505050565b604080825283519082018190526000906020906060840190828701845b82811015611e7457815184529284019290840190600101611e58565b50505083810382850152611e888186611cba565b9695505050505050565b901515815260200190565b602080825260149082015273746f6f206c6f77207061796f757420707269636560601b604082015260600190565b6020808252601490820152730d8cadccee8d040c8decae6dc4ee840dac2e8c6d60631b604082015260600190565b6020808252601890820152770696e76616c6964206578706972792074696d657374616d760441b604082015260600190565b60208082526017908201527619195c1bdcda5d08185b5bdd5b9d08195e18d959591959604a1b604082015260600190565b6020808252600f908201526e185b1c9958591e4818db185a5b5959608a1b604082015260600190565b602080825260079082015266195e1c1a5c995960ca1b604082015260600190565b6020808252601b908201527a195e18d95959081b585e08185d985a5b18589b19481c185e5bdd5d602a1b604082015260600190565b6020808252600c908201526b1d5b985d5d1a1bdc9a5e995960a21b604082015260600190565b6020808252601d908201527f696e73756666696369656e7420617661696c61626c65207061796f7574000000604082015260600190565b6020808252601290820152710d2dcecc2d8d2c840c4dedcc840d2dcc8caf60731b604082015260600190565b6020808252600690820152651b1bd8dad95960d21b604082015260600190565b6020808252601990820152780d2dcecc2d8d2c840c4dedcc840dee0e8d2dedc40d2dcc8caf603b1b604082015260600190565b6020808252600d908201526c0d2dcecc2d8d2c840d2dcc8caf609b1b604082015260600190565b90815260200190565b82815260608101611a956020830184611cfe565b918252602082015260400190565b8381526020810183905260808101611b4b6040830184611cfe565b6040518181016001600160401b038111828210171561213f57fe5b604052919050565b60006001600160401b0382111561215a57fe5b506020908102019056fe4f776e61626c653a206e6577206f776e657220697320746865207a65726f2061646472657373496e697469616c697a61626c653a20636f6e747261637420697320616c726561647920696e697469616c697a6564536166654d6174683a206d756c7469706c69636174696f6e206f766572666c6f774f776e61626c653a2063616c6c6572206973206e6f7420746865206f776e65728be0079c531659141344cd1fd0a4f28419497f9722a3daafe3b4186f6b6457e0a264697066735822122094c6a94ab53f9a14ab64f02fca3d524e5af6d42a93256ccb39755aa8be495fbf64736f6c63430007060033",
  "linkReferences": {},
  "deployedLinkReferences": {}
}