{
  "_format": "hh-sol-artifact-1",
  "contractName": "RewardDistribution",
  "sourceName": "contracts/distribution/RewardDistribution.sol",
  "abi": [
    {
      "inputs": [
        {
          "internalType": "address",
          "name": "_rewardToken",
          "type": "address"
        },
        {
          "internalType": "uint256",
          "name": "_rewardAmountPerSecond",
          "type": "uint256"
        }
      ],
      "stateMutability": "nonpayable",
      "type": "constructor"
    },
    {
      "anonymous": false,
      "inputs": [
        {
          "indexed": false,
          "internalType": "string",
          "name": "operation",
          "type": "string"
        }
      ],
      "name": "OwnerOperation",
      "type": "event"
    },
    {
      "anonymous": false,
      "inputs": [
        {
          "indexed": true,
          "internalType": "address",
          "name": "previousOwner",
          "type": "address"
        },
        {
          "indexed": true,
          "internalType": "address",
          "name": "newOwner",
          "type": "address"
        }
      ],
      "name": "OwnershipTransferred",
      "type": "event"
    },
    {
      "anonymous": false,
      "inputs": [
        {
          "indexed": false,
          "internalType": "address",
          "name": "account",
          "type": "address"
        }
      ],
      "name": "Paused",
      "type": "event"
    },
    {
      "anonymous": false,
      "inputs": [
        {
          "components": [
            {
              "internalType": "address",
              "name": "pool",
              "type": "address"
            },
            {
              "internalType": "uint256",
              "name": "amount",
              "type": "uint256"
            }
          ],
          "indexed": false,
          "internalType": "struct RewardDistribution.RewardSummary[]",
          "name": "distributedRewards",
          "type": "tuple[]"
        },
        {
          "indexed": false,
          "internalType": "uint256",
          "name": "totalDistributedRewards",
          "type": "uint256"
        }
      ],
      "name": "RewardsDistribution",
      "type": "event"
    },
    {
      "anonymous": false,
      "inputs": [
        {
          "indexed": false,
          "internalType": "address",
          "name": "account",
          "type": "address"
        }
      ],
      "name": "Unpaused",
      "type": "event"
    },
    {
      "inputs": [],
      "name": "calculateEligiblePoolsRewards",
      "outputs": [
        {
          "components": [
            {
              "internalType": "address",
              "name": "pool",
              "type": "address"
            },
            {
              "internalType": "uint256",
              "name": "amount",
              "type": "uint256"
            }
          ],
          "internalType": "struct RewardDistribution.RewardSummary[]",
          "name": "rewards",
          "type": "tuple[]"
        },
        {
          "internalType": "uint256",
          "name": "totalRewardsToDistribute",
          "type": "uint256"
        }
      ],
      "stateMutability": "view",
      "type": "function"
    },
    {
      "inputs": [
        {
          "internalType": "uint256",
          "name": "_poolTvl",
          "type": "uint256"
        },
        {
          "internalType": "uint256",
          "name": "_eligiblePoolsTvl",
          "type": "uint256"
        },
        {
          "internalType": "uint256",
          "name": "_rewardsToDistribute",
          "type": "uint256"
        }
      ],
      "name": "calculatePoolRewardAmount",
      "outputs": [
        {
          "internalType": "uint256",
          "name": "amount",
          "type": "uint256"
        }
      ],
      "stateMutability": "pure",
      "type": "function"
    },
    {
      "inputs": [
        {
          "internalType": "uint256",
          "name": "_rewardAmountPerSecond",
          "type": "uint256"
        },
        {
          "internalType": "uint256",
          "name": "_lastDistributionTime",
          "type": "uint256"
        },
        {
          "internalType": "uint256",
          "name": "_blockTimestamp",
          "type": "uint256"
        }
      ],
      "name": "calculateTotalRewardsForPeriod",
      "outputs": [
        {
          "internalType": "uint256",
          "name": "totalRewardsForPeriod",
          "type": "uint256"
        }
      ],
      "stateMutability": "pure",
      "type": "function"
    },
    {
      "inputs": [],
      "name": "distributeRewards",
      "outputs": [],
      "stateMutability": "nonpayable",
      "type": "function"
    },
    {
      "inputs": [],
      "name": "getEligiblePoolsWithTvl",
      "outputs": [
        {
          "internalType": "uint256",
          "name": "tvl",
          "type": "uint256"
        },
        {
          "components": [
            {
              "internalType": "address",
              "name": "pool",
              "type": "address"
            },
            {
              "internalType": "uint256",
              "name": "tvl",
              "type": "uint256"
            }
          ],
          "internalType": "struct RewardDistribution.EligiblePool[]",
          "name": "eligiblePools",
          "type": "tuple[]"
        }
      ],
      "stateMutability": "view",
      "type": "function"
    },
    {
      "inputs": [],
      "name": "getRewardsAPY",
      "outputs": [
        {
          "internalType": "uint256",
          "name": "apy",
          "type": "uint256"
        }
      ],
      "stateMutability": "view",
      "type": "function"
    },
    {
      "inputs": [],
      "name": "getWhitelistedPools",
      "outputs": [
        {
          "internalType": "address[]",
          "name": "",
          "type": "address[]"
        }
      ],
      "stateMutability": "view",
      "type": "function"
    },
    {
      "inputs": [],
      "name": "lastDistributionTime",
      "outputs": [
        {
          "internalType": "uint256",
          "name": "",
          "type": "uint256"
        }
      ],
      "stateMutability": "view",
      "type": "function"
    },
    {
      "inputs": [
        {
          "internalType": "uint256",
          "name": "_rewardAmountPerSecond",
          "type": "uint256"
        }
      ],
      "name": "launch",
      "outputs": [],
      "stateMutability": "nonpayable",
      "type": "function"
    },
    {
      "inputs": [],
      "name": "owner",
      "outputs": [
        {
          "internalType": "address",
          "name": "",
          "type": "address"
        }
      ],
      "stateMutability": "view",
      "type": "function"
    },
    {
      "inputs": [],
      "name": "paused",
      "outputs": [
        {
          "internalType": "bool",
          "name": "",
          "type": "bool"
        }
      ],
      "stateMutability": "view",
      "type": "function"
    },
    {
      "inputs": [],
      "name": "renounceOwnership",
      "outputs": [],
      "stateMutability": "nonpayable",
      "type": "function"
    },
    {
      "inputs": [],
      "name": "rewardAmountPerSecond",
      "outputs": [
        {
          "internalType": "uint256",
          "name": "",
          "type": "uint256"
        }
      ],
      "stateMutability": "view",
      "type": "function"
    },
    {
      "inputs": [],
      "name": "rewardToken",
      "outputs": [
        {
          "internalType": "contract IERC20",
          "name": "",
          "type": "address"
        }
      ],
      "stateMutability": "view",
      "type": "function"
    },
    {
      "inputs": [
        {
          "internalType": "uint256",
          "name": "_rewardAmountPerSecond",
          "type": "uint256"
        }
      ],
      "name": "setRewardAmountPerSecond",
      "outputs": [],
      "stateMutability": "nonpayable",
      "type": "function"
    },
    {
      "inputs": [
        {
          "internalType": "address",
          "name": "_rewardToken",
          "type": "address"
        }
      ],
      "name": "setRewardToken",
      "outputs": [],
      "stateMutability": "nonpayable",
      "type": "function"
    },
    {
      "inputs": [
        {
          "internalType": "address[]",
          "name": "_whitelistedPools",
          "type": "address[]"
        }
      ],
      "name": "setWhitelistedPools",
      "outputs": [],
      "stateMutability": "nonpayable",
      "type": "function"
    },
    {
      "inputs": [
        {
          "internalType": "address",
          "name": "newOwner",
          "type": "address"
        }
      ],
      "name": "transferOwnership",
      "outputs": [],
      "stateMutability": "nonpayable",
      "type": "function"
    },
    {
      "inputs": [
        {
          "internalType": "uint256",
          "name": "",
          "type": "uint256"
        }
      ],
      "name": "whitelistedPools",
      "outputs": [
        {
          "internalType": "address",
          "name": "",
          "type": "address"
        }
      ],
      "stateMutability": "view",
      "type": "function"
    },
    {
      "inputs": [
        {
          "internalType": "contract IERC20",
          "name": "_token",
          "type": "address"
        },
        {
          "internalType": "uint256",
          "name": "_amount",
          "type": "uint256"
        }
      ],
      "name": "withdrawAdmin",
      "outputs": [],
      "stateMutability": "nonpayable",
      "type": "function"
    }
  ],
  "bytecode": "0x60806040523480156200001157600080fd5b5060405162001b4638038062001b468339810160408190526200003491620000fb565b600062000040620000f7565b600080546001600160a01b0319166001600160a01b0383169081178255604051929350917f8be0079c531659141344cd1fd0a4f28419497f9722a3daafe3b4186f6b6457e0908290a3506000805460ff60a01b191690556001600160a01b038216620000c95760405162461bcd60e51b8152600401620000c09062000135565b60405180910390fd5b600180546001600160a01b0319166001600160a01b039390931692909217909155600455426003556200015c565b3390565b600080604083850312156200010e578182fd5b82516001600160a01b038116811462000125578283fd5b6020939093015192949293505050565b6020808252600d908201526c34b73b30b634b2103a37b5b2b760991b604082015260600190565b6119da806200016c6000396000f3fe608060405234801561001057600080fd5b50600436106100fc5760003560e01c8063192b0629146101015780632e32cefe14610120578063335dddc6146101365780633554b1fb1461015657806345a610181461016b5780635c975abb1461017e5780636747fc13146101935780636f4a2cd0146101a6578063715018a6146101ae57806375b17350146101b657806377e679cd146101be57806385b12c7c146101c65780638aee8127146101d95780638da5cb5b146101ec578063974fc37e14610201578063af7412ab14610209578063b3f71ea91461021c578063f2fde38b1461022f578063f7c618c114610242578063fb13605d1461024a575b600080fd5b61010961025f565b60405161011792919061167c565b60405180910390f35b61012861039e565b604051610117929190611886565b6101496101443660046115d8565b6106cc565b604051610117919061187d565b6101696101643660046114ef565b610705565b005b6101696101793660046115a8565b61079b565b610186610829565b60405161011791906116cd565b6101696101a136600461157d565b610839565b6101696108b3565b610169610a27565b610149610ad3565b610149610ad9565b6101696101d43660046115a8565b610adf565b6101696101e73660046114b7565b610b71565b6101f4610c30565b604051610117919061161b565b610149610c3f565b6101f46102173660046115a8565b610d0b565b61014961022a3660046115d8565b610d35565b61016961023d3660046114b7565b610d52565b6101f4610e54565b610252610e63565b604051610117919061162f565b6060600080600061026e61039e565b91509150600061028360045460035442610d35565b8251909150806001600160401b038111801561029e57600080fd5b506040519080825280602002602001820160405280156102d857816020015b6102c5611428565b8152602001906001900390816102bd5790505b50955060005b81811015610395578381815181106102f257fe5b60200260200101516000015187828151811061030a57fe5b6020026020010151600001906001600160a01b031690816001600160a01b03168152505061035084828151811061033d57fe5b60200260200101516020015186856106cc565b87828151811061035c57fe5b6020026020010151602001818152505086818151811061037857fe5b6020026020010151602001518601955080806001019150506102de565b50505050509091565b600254600090606090806001600160401b03811180156103bd57600080fd5b506040519080825280602002602001820160405280156103f757816020015b6103e4611428565b8152602001906001900390816103dc5790505b5091506000805b828110156106b1576002818154811061041357fe5b6000918252602091829020015460408051630f28525360e11b815290516001600160a01b0390921692631e50a4a692600480840193829003018186803b15801561045c57600080fd5b505afa158015610470573d6000803e3d6000fd5b505050506040513d601f19601f8201168201806040525081019061049491906114d3565b600154604051634df48c7360e11b81526001600160a01b0392831692639be918e6926104c59291169060040161161b565b60206040518083038186803b1580156104dd57600080fd5b505afa1580156104f1573d6000803e3d6000fd5b505050506040513d601f19601f82011682018060405250810190610515919061155d565b156106a9576002818154811061052757fe5b9060005260206000200160009054906101000a90046001600160a01b031684838151811061055157fe5b60209081029190910101516001600160a01b039091169052600280548290811061057757fe5b6000918252602091829020015460408051630f28525360e11b815290516001600160a01b0390921692631e50a4a692600480840193829003018186803b1580156105c057600080fd5b505afa1580156105d4573d6000803e3d6000fd5b505050506040513d601f19601f820116820180604052508101906105f891906114d3565b6001600160a01b031663ad60ffcc6040518163ffffffff1660e01b815260040160206040518083038186803b15801561063057600080fd5b505afa158015610644573d6000803e3d6000fd5b505050506040513d601f19601f8201168201806040525081019061066891906115c0565b84838151811061067457fe5b6020026020010151602001818152505083828151811061069057fe5b6020026020010151602001518501945081806001019250505b6001016103fe565b5060006106be8383610ec5565b845103845250929391925050565b60008215806106da57508284115b156106e7575060006106fe565b6106fb836106f58487610f27565b90610f80565b90505b9392505050565b61070d610fe4565b6001600160a01b031661071e610c30565b6001600160a01b031614610767576040805162461bcd60e51b8152602060048201819052602482015260008051602061193b833981519152604482015290519081900360640190fd5b6107736002838361143f565b5060008051602061195b83398151915260405161078f90611765565b60405180910390a15050565b6107a3610fe4565b6001600160a01b03166107b4610c30565b6001600160a01b0316146107fd576040805162461bcd60e51b8152602060048201819052602482015260008051602061193b833981519152604482015290519081900360640190fd5b600481905560405160008051602061195b8339815191529061081e906117ea565b60405180910390a150565b600054600160a01b900460ff1690565b610841610fe4565b6001600160a01b0316610852610c30565b6001600160a01b03161461089b576040805162461bcd60e51b8152602060048201819052602482015260008051602061193b833981519152604482015290519081900360640190fd5b6108af6001600160a01b0383163383610fe8565b5050565b6000806108be61025f565b6001546040516370a0823160e01b81529294509092506000916001600160a01b03909116906370a08231906108f790309060040161161b565b60206040518083038186803b15801561090f57600080fd5b505afa158015610923573d6000803e3d6000fd5b505050506040513d601f19601f8201168201806040525081019061094791906115c0565b905060008351116109735760405162461bcd60e51b815260040161096a90611700565b60405180910390fd5b816109905760405162461bcd60e51b815260040161096a90611736565b818110156109b05760405162461bcd60e51b815260040161096a906117b9565b6003546004546109c1914203610f27565b8211156109e05760405162461bcd60e51b815260040161096a90611853565b6109e98361103f565b7f143193c24e7f00d87a0ad8e82f6e73f6f10d7af11f266818128012b7e1a867868383604051610a1a92919061167c565b60405180910390a1505050565b610a2f610fe4565b6001600160a01b0316610a40610c30565b6001600160a01b031614610a89576040805162461bcd60e51b8152602060048201819052602482015260008051602061193b833981519152604482015290519081900360640190fd5b600080546040516001600160a01b03909116907f8be0079c531659141344cd1fd0a4f28419497f9722a3daafe3b4186f6b6457e0908390a3600080546001600160a01b0319169055565b60035481565b60045481565b610ae7610fe4565b6001600160a01b0316610af8610c30565b6001600160a01b031614610b41576040805162461bcd60e51b8152602060048201819052602482015260008051602061193b833981519152604482015290519081900360640190fd5b60045415610b615760405162461bcd60e51b815260040161096a9061181c565b610b6a8161079b565b5042600355565b610b79610fe4565b6001600160a01b0316610b8a610c30565b6001600160a01b031614610bd3576040805162461bcd60e51b8152602060048201819052602482015260008051602061193b833981519152604482015290519081900360640190fd5b6001600160a01b038116610bf95760405162461bcd60e51b815260040161096a90611792565b600180546001600160a01b0319166001600160a01b03831617905560405160008051602061195b8339815191529061081e906116d8565b6000546001600160a01b031690565b6000806000610c4c61039e565b915091508160001415610c625760009250610d06565b610d038260045483600081518110610c7657fe5b6020026020010151600001516001600160a01b031663c45a01556040518163ffffffff1660e01b815260040160206040518083038186803b158015610cba57600080fd5b505afa158015610cce573d6000803e3d6000fd5b505050506040513d601f19601f82011682018060405250810190610cf291906114d3565b6001546001600160a01b03166110ec565b92505b505090565b60028181548110610d1b57600080fd5b6000918252602090912001546001600160a01b0316905081565b6000828211610d46575060006106fe565b6106fb84848403610f27565b610d5a610fe4565b6001600160a01b0316610d6b610c30565b6001600160a01b031614610db4576040805162461bcd60e51b8152602060048201819052602482015260008051602061193b833981519152604482015290519081900360640190fd5b6001600160a01b038116610df95760405162461bcd60e51b81526004018080602001828103825260268152602001806118f46026913960400191505060405180910390fd5b600080546040516001600160a01b03808516939216917f8be0079c531659141344cd1fd0a4f28419497f9722a3daafe3b4186f6b6457e091a3600080546001600160a01b0319166001600160a01b0392909216919091179055565b6001546001600160a01b031681565b60606002805480602002602001604051908101604052809291908181526020018280548015610ebb57602002820191906000526020600020905b81546001600160a01b03168152600190910190602001808311610e9d575b5050505050905090565b600082821115610f1c576040805162461bcd60e51b815260206004820152601e60248201527f536166654d6174683a207375627472616374696f6e206f766572666c6f770000604482015290519081900360640190fd5b508082035b92915050565b600082610f3657506000610f21565b82820282848281610f4357fe5b04146106fe5760405162461bcd60e51b815260040180806020018281038252602181526020018061191a6021913960400191505060405180910390fd5b6000808211610fd3576040805162461bcd60e51b815260206004820152601a602482015279536166654d6174683a206469766973696f6e206279207a65726f60301b604482015290519081900360640190fd5b818381610fdc57fe5b049392505050565b3390565b604080516001600160a01b038416602482015260448082018490528251808303909101815260649091019091526020810180516001600160e01b031663a9059cbb60e01b17905261103a90849061117d565b505050565b611047610829565b1561108c576040805162461bcd60e51b815260206004820152601060248201526f14185d5cd8589b194e881c185d5cd95960821b604482015290519081900360640190fd5b4260035560005b81518110156108af576110e48282815181106110ab57fe5b6020026020010151600001518383815181106110c357fe5b60209081029190910181015101516001546001600160a01b03169190610fe8565b600101611093565b60006111748585856001600160a01b031663b3596f07866040518263ffffffff1660e01b815260040161111f919061161b565b60206040518083038186803b15801561113757600080fd5b505afa15801561114b573d6000803e3d6000fd5b505050506040513d601f19601f8201168201806040525081019061116f91906115c0565b61122e565b95945050505050565b60006111d2826040518060400160405280602081526020017f5361666545524332303a206c6f772d6c6576656c2063616c6c206661696c6564815250856001600160a01b03166112599092919063ffffffff16565b80519091501561103a578080602001905160208110156111f157600080fd5b505161103a5760405162461bcd60e51b815260040180806020018281038252602a81526020018061197b602a913960400191505060405180910390fd5b60008361123d575060006106fe565b6106fb846106f584611253876301e13380610f27565b90610f27565b60606106fb84846000858561126d8561137e565b6112be576040805162461bcd60e51b815260206004820152601d60248201527f416464726573733a2063616c6c20746f206e6f6e2d636f6e7472616374000000604482015290519081900360640190fd5b600080866001600160a01b031685876040518082805190602001908083835b602083106112fc5780518252601f1990920191602091820191016112dd565b6001836020036101000a03801982511681845116808217855250505050505090500191505060006040518083038185875af1925050503d806000811461135e576040519150601f19603f3d011682016040523d82523d6000602084013e611363565b606091505b5091509150611373828286611384565b979650505050505050565b3b151590565b606083156113935750816106fe565b8251156113a35782518084602001fd5b8160405162461bcd60e51b81526004018080602001828103825283818151815260200191508051906020019080838360005b838110156113ed5781810151838201526020016113d5565b50505050905090810190601f16801561141a5780820380516001836020036101000a031916815260200191505b509250505060405180910390fd5b604080518082019091526000808252602082015290565b828054828255906000526020600020908101928215611492579160200282015b828111156114925781546001600160a01b0319166001600160a01b0384351617825560209092019160019091019061145f565b5061149e9291506114a2565b5090565b5b8082111561149e57600081556001016114a3565b6000602082840312156114c8578081fd5b81356106fe816118db565b6000602082840312156114e4578081fd5b81516106fe816118db565b60008060208385031215611501578081fd5b82356001600160401b0380821115611517578283fd5b818501915085601f83011261152a578283fd5b813581811115611538578384fd5b866020808302850101111561154b578384fd5b60209290920196919550909350505050565b60006020828403121561156e578081fd5b815180151581146106fe578182fd5b6000806040838503121561158f578182fd5b823561159a816118db565b946020939093013593505050565b6000602082840312156115b9578081fd5b5035919050565b6000602082840312156115d1578081fd5b5051919050565b6000806000606084860312156115ec578081fd5b505081359360208301359350604090920135919050565b80516001600160a01b03168252602090810151910152565b6001600160a01b0391909116815260200190565b6020808252825182820181905260009190848201906040850190845b818110156116705783516001600160a01b03168352928401929184019160010161164b565b50909695505050505050565b60408082528351828201819052600091906020906060850190828801855b828110156116bd576116ad848351611603565b928501929084019060010161169a565b5050509301939093525092915050565b901515815260200190565b6020808252600e908201526d39b2ba2932bbb0b9322a37b5b2b760911b604082015260600190565b6020808252601c908201527b1b9bc8195b1a59da589b19481c1bdbdb1cc81bdc881b9bdd081cd95d60221b604082015260600190565b6020808252601590820152746e6f7468696e6720746f206469737472696275746560581b604082015260600190565b60208082526013908201527273657457686974656c6973746564506f6f6c7360681b604082015260600190565b6020808252600d908201526c34b73b30b634b2103a37b5b2b760991b604082015260600190565b6020808252601790820152763737ba1032b737bab3b4103932bbb0b932103a37b5b2b760491b604082015260600190565b6020808252601890820152771cd95d14995dd85c99105b5bdd5b9d14195c94d958dbdb9960421b604082015260600190565b6020808252601e908201527f726577617264416d6f756e745065725365636f6e64206e6f74207a65726f0000604082015260600190565b60208082526010908201526f37bb32b93234b9ba3934b13aba34b7b760811b604082015260600190565b90815260200190565b60006040808301858452602082818601528186518084526060870191508288019350855b818110156118cd576118bd838651611603565b93830193918501916001016118aa565b509098975050505050505050565b6001600160a01b03811681146118f057600080fd5b5056fe4f776e61626c653a206e6577206f776e657220697320746865207a65726f2061646472657373536166654d6174683a206d756c7469706c69636174696f6e206f766572666c6f774f776e61626c653a2063616c6c6572206973206e6f7420746865206f776e65722a187da20163582a863d51103d3f0eeb25238ed59c945293838f3168ff2f337e5361666545524332303a204552433230206f7065726174696f6e20646964206e6f742073756363656564a2646970667358221220b9475cf5d2a0648f2ec551da39e44b2c38f5894bc67707abe88f2d085eda5e4264736f6c63430007060033",
  "linkReferences": {},
  "deployedLinkReferences": {}
}