{
  "_format": "hh-sol-artifact-1",
  "contractName": "PoolLogic",
  "sourceName": "contracts/PoolLogic.sol",
  "abi": [
    {
      "anonymous": false,
      "inputs": [
        {
          "indexed": true,
          "internalType": "address",
          "name": "owner",
          "type": "address"
        },
        {
          "indexed": true,
          "internalType": "address",
          "name": "spender",
          "type": "address"
        },
        {
          "indexed": false,
          "internalType": "uint256",
          "name": "value",
          "type": "uint256"
        }
      ],
      "name": "Approval",
      "type": "event"
    },
    {
      "anonymous": false,
      "inputs": [
        {
          "indexed": false,
          "internalType": "address",
          "name": "fundAddress",
          "type": "address"
        },
        {
          "indexed": false,
          "internalType": "address",
          "name": "investor",
          "type": "address"
        },
        {
          "indexed": false,
          "internalType": "address",
          "name": "assetDeposited",
          "type": "address"
        },
        {
          "indexed": false,
          "internalType": "uint256",
          "name": "amountDeposited",
          "type": "uint256"
        },
        {
          "indexed": false,
          "internalType": "uint256",
          "name": "valueDeposited",
          "type": "uint256"
        },
        {
          "indexed": false,
          "internalType": "uint256",
          "name": "fundTokensReceived",
          "type": "uint256"
        },
        {
          "indexed": false,
          "internalType": "uint256",
          "name": "totalInvestorFundTokens",
          "type": "uint256"
        },
        {
          "indexed": false,
          "internalType": "uint256",
          "name": "fundValue",
          "type": "uint256"
        },
        {
          "indexed": false,
          "internalType": "uint256",
          "name": "totalSupply",
          "type": "uint256"
        },
        {
          "indexed": false,
          "internalType": "uint256",
          "name": "time",
          "type": "uint256"
        }
      ],
      "name": "Deposit",
      "type": "event"
    },
    {
      "anonymous": false,
      "inputs": [
        {
          "indexed": false,
          "internalType": "address",
          "name": "pool",
          "type": "address"
        },
        {
          "indexed": false,
          "internalType": "address",
          "name": "manager",
          "type": "address"
        },
        {
          "indexed": false,
          "internalType": "uint256",
          "name": "available",
          "type": "uint256"
        },
        {
          "indexed": false,
          "internalType": "uint256",
          "name": "daoFee",
          "type": "uint256"
        },
        {
          "indexed": false,
          "internalType": "uint256",
          "name": "managerFee",
          "type": "uint256"
        },
        {
          "indexed": false,
          "internalType": "uint256",
          "name": "tokenPriceAtLastFeeMint",
          "type": "uint256"
        }
      ],
      "name": "ManagerFeeMinted",
      "type": "event"
    },
    {
      "anonymous": false,
      "inputs": [
        {
          "indexed": false,
          "internalType": "address",
          "name": "poolManagerLogic",
          "type": "address"
        },
        {
          "indexed": false,
          "internalType": "address",
          "name": "from",
          "type": "address"
        }
      ],
      "name": "PoolManagerLogicSet",
      "type": "event"
    },
    {
      "anonymous": false,
      "inputs": [
        {
          "indexed": false,
          "internalType": "bool",
          "name": "isPoolPrivate",
          "type": "bool"
        }
      ],
      "name": "PoolPrivacyUpdated",
      "type": "event"
    },
    {
      "anonymous": false,
      "inputs": [
        {
          "indexed": false,
          "internalType": "address",
          "name": "pool",
          "type": "address"
        },
        {
          "indexed": false,
          "internalType": "address",
          "name": "manager",
          "type": "address"
        },
        {
          "indexed": false,
          "internalType": "uint16",
          "name": "transactionType",
          "type": "uint16"
        },
        {
          "indexed": false,
          "internalType": "uint256",
          "name": "time",
          "type": "uint256"
        }
      ],
      "name": "TransactionExecuted",
      "type": "event"
    },
    {
      "anonymous": false,
      "inputs": [
        {
          "indexed": true,
          "internalType": "address",
          "name": "from",
          "type": "address"
        },
        {
          "indexed": true,
          "internalType": "address",
          "name": "to",
          "type": "address"
        },
        {
          "indexed": false,
          "internalType": "uint256",
          "name": "value",
          "type": "uint256"
        }
      ],
      "name": "Transfer",
      "type": "event"
    },
    {
      "anonymous": false,
      "inputs": [
        {
          "indexed": false,
          "internalType": "address",
          "name": "fundAddress",
          "type": "address"
        },
        {
          "indexed": false,
          "internalType": "address",
          "name": "investor",
          "type": "address"
        },
        {
          "indexed": false,
          "internalType": "uint256",
          "name": "valueWithdrawn",
          "type": "uint256"
        },
        {
          "indexed": false,
          "internalType": "uint256",
          "name": "fundTokensWithdrawn",
          "type": "uint256"
        },
        {
          "indexed": false,
          "internalType": "uint256",
          "name": "totalInvestorFundTokens",
          "type": "uint256"
        },
        {
          "indexed": false,
          "internalType": "uint256",
          "name": "fundValue",
          "type": "uint256"
        },
        {
          "indexed": false,
          "internalType": "uint256",
          "name": "totalSupply",
          "type": "uint256"
        },
        {
          "components": [
            {
              "internalType": "address",
              "name": "asset",
              "type": "address"
            },
            {
              "internalType": "uint256",
              "name": "amount",
              "type": "uint256"
            },
            {
              "internalType": "bool",
              "name": "externalWithdrawProcessed",
              "type": "bool"
            }
          ],
          "indexed": false,
          "internalType": "struct PoolLogic.WithdrawnAsset[]",
          "name": "withdrawnAssets",
          "type": "tuple[]"
        },
        {
          "indexed": false,
          "internalType": "uint256",
          "name": "time",
          "type": "uint256"
        }
      ],
      "name": "Withdrawal",
      "type": "event"
    },
    {
      "inputs": [
        {
          "internalType": "address",
          "name": "owner",
          "type": "address"
        },
        {
          "internalType": "address",
          "name": "spender",
          "type": "address"
        }
      ],
      "name": "allowance",
      "outputs": [
        {
          "internalType": "uint256",
          "name": "",
          "type": "uint256"
        }
      ],
      "stateMutability": "view",
      "type": "function"
    },
    {
      "inputs": [
        {
          "internalType": "address",
          "name": "spender",
          "type": "address"
        },
        {
          "internalType": "uint256",
          "name": "amount",
          "type": "uint256"
        }
      ],
      "name": "approve",
      "outputs": [
        {
          "internalType": "bool",
          "name": "",
          "type": "bool"
        }
      ],
      "stateMutability": "nonpayable",
      "type": "function"
    },
    {
      "inputs": [],
      "name": "availableManagerFee",
      "outputs": [
        {
          "internalType": "uint256",
          "name": "fee",
          "type": "uint256"
        }
      ],
      "stateMutability": "view",
      "type": "function"
    },
    {
      "inputs": [
        {
          "internalType": "address",
          "name": "account",
          "type": "address"
        }
      ],
      "name": "balanceOf",
      "outputs": [
        {
          "internalType": "uint256",
          "name": "",
          "type": "uint256"
        }
      ],
      "stateMutability": "view",
      "type": "function"
    },
    {
      "inputs": [
        {
          "internalType": "uint256",
          "name": "fundValue",
          "type": "uint256"
        }
      ],
      "name": "calculateAvailableManagerFee",
      "outputs": [
        {
          "internalType": "uint256",
          "name": "fee",
          "type": "uint256"
        }
      ],
      "stateMutability": "view",
      "type": "function"
    },
    {
      "inputs": [
        {
          "internalType": "uint256",
          "name": "currentBalance",
          "type": "uint256"
        },
        {
          "internalType": "uint256",
          "name": "liquidityMinted",
          "type": "uint256"
        },
        {
          "internalType": "uint256",
          "name": "newCooldown",
          "type": "uint256"
        },
        {
          "internalType": "uint256",
          "name": "lastCooldown",
          "type": "uint256"
        },
        {
          "internalType": "uint256",
          "name": "lastDepositTime",
          "type": "uint256"
        },
        {
          "internalType": "uint256",
          "name": "blockTimestamp",
          "type": "uint256"
        }
      ],
      "name": "calculateCooldown",
      "outputs": [
        {
          "internalType": "uint256",
          "name": "cooldown",
          "type": "uint256"
        }
      ],
      "stateMutability": "pure",
      "type": "function"
    },
    {
      "inputs": [],
      "name": "creationTime",
      "outputs": [
        {
          "internalType": "uint256",
          "name": "",
          "type": "uint256"
        }
      ],
      "stateMutability": "view",
      "type": "function"
    },
    {
      "inputs": [],
      "name": "creator",
      "outputs": [
        {
          "internalType": "address",
          "name": "",
          "type": "address"
        }
      ],
      "stateMutability": "view",
      "type": "function"
    },
    {
      "inputs": [],
      "name": "decimals",
      "outputs": [
        {
          "internalType": "uint8",
          "name": "",
          "type": "uint8"
        }
      ],
      "stateMutability": "view",
      "type": "function"
    },
    {
      "inputs": [
        {
          "internalType": "address",
          "name": "spender",
          "type": "address"
        },
        {
          "internalType": "uint256",
          "name": "subtractedValue",
          "type": "uint256"
        }
      ],
      "name": "decreaseAllowance",
      "outputs": [
        {
          "internalType": "bool",
          "name": "",
          "type": "bool"
        }
      ],
      "stateMutability": "nonpayable",
      "type": "function"
    },
    {
      "inputs": [
        {
          "internalType": "address",
          "name": "_asset",
          "type": "address"
        },
        {
          "internalType": "uint256",
          "name": "_amount",
          "type": "uint256"
        }
      ],
      "name": "deposit",
      "outputs": [
        {
          "internalType": "uint256",
          "name": "liquidityMinted",
          "type": "uint256"
        }
      ],
      "stateMutability": "nonpayable",
      "type": "function"
    },
    {
      "inputs": [
        {
          "internalType": "address",
          "name": "_recipient",
          "type": "address"
        },
        {
          "internalType": "address",
          "name": "_asset",
          "type": "address"
        },
        {
          "internalType": "uint256",
          "name": "_amount",
          "type": "uint256"
        }
      ],
      "name": "depositFor",
      "outputs": [
        {
          "internalType": "uint256",
          "name": "liquidityMinted",
          "type": "uint256"
        }
      ],
      "stateMutability": "nonpayable",
      "type": "function"
    },
    {
      "inputs": [
        {
          "internalType": "address",
          "name": "_recipient",
          "type": "address"
        },
        {
          "internalType": "address",
          "name": "_asset",
          "type": "address"
        },
        {
          "internalType": "uint256",
          "name": "_amount",
          "type": "uint256"
        },
        {
          "internalType": "uint256",
          "name": "_cooldown",
          "type": "uint256"
        }
      ],
      "name": "depositForWithCustomCooldown",
      "outputs": [
        {
          "internalType": "uint256",
          "name": "liquidityMinted",
          "type": "uint256"
        }
      ],
      "stateMutability": "nonpayable",
      "type": "function"
    },
    {
      "inputs": [
        {
          "internalType": "address",
          "name": "to",
          "type": "address"
        },
        {
          "internalType": "bytes",
          "name": "data",
          "type": "bytes"
        }
      ],
      "name": "execTransaction",
      "outputs": [
        {
          "internalType": "bool",
          "name": "success",
          "type": "bool"
        }
      ],
      "stateMutability": "nonpayable",
      "type": "function"
    },
    {
      "inputs": [
        {
          "components": [
            {
              "internalType": "address",
              "name": "to",
              "type": "address"
            },
            {
              "internalType": "bytes",
              "name": "data",
              "type": "bytes"
            }
          ],
          "internalType": "struct PoolLogic.TxToExecute[]",
          "name": "txs",
          "type": "tuple[]"
        }
      ],
      "name": "execTransactions",
      "outputs": [
        {
          "internalType": "bool",
          "name": "success",
          "type": "bool"
        }
      ],
      "stateMutability": "nonpayable",
      "type": "function"
    },
    {
      "inputs": [
        {
          "internalType": "address[]",
          "name": "assets",
          "type": "address[]"
        },
        {
          "internalType": "uint256[]",
          "name": "amounts",
          "type": "uint256[]"
        },
        {
          "internalType": "uint256[]",
          "name": "premiums",
          "type": "uint256[]"
        },
        {
          "internalType": "address",
          "name": "originator",
          "type": "address"
        },
        {
          "internalType": "bytes",
          "name": "params",
          "type": "bytes"
        }
      ],
      "name": "executeOperation",
      "outputs": [
        {
          "internalType": "bool",
          "name": "success",
          "type": "bool"
        }
      ],
      "stateMutability": "nonpayable",
      "type": "function"
    },
    {
      "inputs": [],
      "name": "factory",
      "outputs": [
        {
          "internalType": "address",
          "name": "",
          "type": "address"
        }
      ],
      "stateMutability": "view",
      "type": "function"
    },
    {
      "inputs": [
        {
          "internalType": "address",
          "name": "sender",
          "type": "address"
        }
      ],
      "name": "getExitRemainingCooldown",
      "outputs": [
        {
          "internalType": "uint256",
          "name": "remaining",
          "type": "uint256"
        }
      ],
      "stateMutability": "view",
      "type": "function"
    },
    {
      "inputs": [],
      "name": "getFundSummary",
      "outputs": [
        {
          "components": [
            {
              "internalType": "string",
              "name": "name",
              "type": "string"
            },
            {
              "internalType": "uint256",
              "name": "totalSupply",
              "type": "uint256"
            },
            {
              "internalType": "uint256",
              "name": "totalFundValue",
              "type": "uint256"
            },
            {
              "internalType": "address",
              "name": "manager",
              "type": "address"
            },
            {
              "internalType": "string",
              "name": "managerName",
              "type": "string"
            },
            {
              "internalType": "uint256",
              "name": "creationTime",
              "type": "uint256"
            },
            {
              "internalType": "bool",
              "name": "privatePool",
              "type": "bool"
            },
            {
              "internalType": "uint256",
              "name": "performanceFeeNumerator",
              "type": "uint256"
            },
            {
              "internalType": "uint256",
              "name": "managerFeeNumerator",
              "type": "uint256"
            },
            {
              "internalType": "uint256",
              "name": "managerFeeDenominator",
              "type": "uint256"
            },
            {
              "internalType": "uint256",
              "name": "exitFeeNumerator",
              "type": "uint256"
            },
            {
              "internalType": "uint256",
              "name": "exitFeeDenominator",
              "type": "uint256"
            },
            {
              "internalType": "uint256",
              "name": "entryFeeNumerator",
              "type": "uint256"
            }
          ],
          "internalType": "struct PoolLogic.FundSummary",
          "name": "",
          "type": "tuple"
        }
      ],
      "stateMutability": "view",
      "type": "function"
    },
    {
      "inputs": [
        {
          "internalType": "address",
          "name": "spender",
          "type": "address"
        },
        {
          "internalType": "uint256",
          "name": "addedValue",
          "type": "uint256"
        }
      ],
      "name": "increaseAllowance",
      "outputs": [
        {
          "internalType": "bool",
          "name": "",
          "type": "bool"
        }
      ],
      "stateMutability": "nonpayable",
      "type": "function"
    },
    {
      "inputs": [
        {
          "internalType": "address",
          "name": "_factory",
          "type": "address"
        },
        {
          "internalType": "bool",
          "name": "_privatePool",
          "type": "bool"
        },
        {
          "internalType": "string",
          "name": "_fundName",
          "type": "string"
        },
        {
          "internalType": "string",
          "name": "_fundSymbol",
          "type": "string"
        }
      ],
      "name": "initialize",
      "outputs": [],
      "stateMutability": "nonpayable",
      "type": "function"
    },
    {
      "inputs": [
        {
          "internalType": "address",
          "name": "member",
          "type": "address"
        }
      ],
      "name": "isMemberAllowed",
      "outputs": [
        {
          "internalType": "bool",
          "name": "",
          "type": "bool"
        }
      ],
      "stateMutability": "view",
      "type": "function"
    },
    {
      "inputs": [
        {
          "internalType": "address",
          "name": "",
          "type": "address"
        }
      ],
      "name": "lastDeposit",
      "outputs": [
        {
          "internalType": "uint256",
          "name": "",
          "type": "uint256"
        }
      ],
      "stateMutability": "view",
      "type": "function"
    },
    {
      "inputs": [
        {
          "internalType": "address",
          "name": "",
          "type": "address"
        }
      ],
      "name": "lastExitCooldown",
      "outputs": [
        {
          "internalType": "uint256",
          "name": "",
          "type": "uint256"
        }
      ],
      "stateMutability": "view",
      "type": "function"
    },
    {
      "inputs": [],
      "name": "lastFeeMintTime",
      "outputs": [
        {
          "internalType": "uint256",
          "name": "",
          "type": "uint256"
        }
      ],
      "stateMutability": "view",
      "type": "function"
    },
    {
      "inputs": [
        {
          "internalType": "address",
          "name": "",
          "type": "address"
        }
      ],
      "name": "lastWhitelistTransfer",
      "outputs": [
        {
          "internalType": "uint256",
          "name": "",
          "type": "uint256"
        }
      ],
      "stateMutability": "view",
      "type": "function"
    },
    {
      "inputs": [],
      "name": "managerName",
      "outputs": [
        {
          "internalType": "string",
          "name": "_managerName",
          "type": "string"
        }
      ],
      "stateMutability": "view",
      "type": "function"
    },
    {
      "inputs": [],
      "name": "mintManagerFee",
      "outputs": [],
      "stateMutability": "nonpayable",
      "type": "function"
    },
    {
      "inputs": [],
      "name": "name",
      "outputs": [
        {
          "internalType": "string",
          "name": "",
          "type": "string"
        }
      ],
      "stateMutability": "view",
      "type": "function"
    },
    {
      "inputs": [
        {
          "internalType": "address",
          "name": "operator",
          "type": "address"
        },
        {
          "internalType": "address",
          "name": "from",
          "type": "address"
        },
        {
          "internalType": "uint256",
          "name": "tokenId",
          "type": "uint256"
        },
        {
          "internalType": "bytes",
          "name": "data",
          "type": "bytes"
        }
      ],
      "name": "onERC721Received",
      "outputs": [
        {
          "internalType": "bytes4",
          "name": "magicSelector",
          "type": "bytes4"
        }
      ],
      "stateMutability": "nonpayable",
      "type": "function"
    },
    {
      "inputs": [],
      "name": "poolManagerLogic",
      "outputs": [
        {
          "internalType": "address",
          "name": "",
          "type": "address"
        }
      ],
      "stateMutability": "view",
      "type": "function"
    },
    {
      "inputs": [],
      "name": "privatePool",
      "outputs": [
        {
          "internalType": "bool",
          "name": "",
          "type": "bool"
        }
      ],
      "stateMutability": "view",
      "type": "function"
    },
    {
      "inputs": [
        {
          "internalType": "address",
          "name": "_poolManagerLogic",
          "type": "address"
        }
      ],
      "name": "setPoolManagerLogic",
      "outputs": [
        {
          "internalType": "bool",
          "name": "",
          "type": "bool"
        }
      ],
      "stateMutability": "nonpayable",
      "type": "function"
    },
    {
      "inputs": [
        {
          "internalType": "bool",
          "name": "_privatePool",
          "type": "bool"
        }
      ],
      "name": "setPoolPrivate",
      "outputs": [],
      "stateMutability": "nonpayable",
      "type": "function"
    },
    {
      "inputs": [],
      "name": "symbol",
      "outputs": [
        {
          "internalType": "string",
          "name": "",
          "type": "string"
        }
      ],
      "stateMutability": "view",
      "type": "function"
    },
    {
      "inputs": [],
      "name": "tokenPrice",
      "outputs": [
        {
          "internalType": "uint256",
          "name": "price",
          "type": "uint256"
        }
      ],
      "stateMutability": "view",
      "type": "function"
    },
    {
      "inputs": [],
      "name": "tokenPriceAtLastFeeMint",
      "outputs": [
        {
          "internalType": "uint256",
          "name": "",
          "type": "uint256"
        }
      ],
      "stateMutability": "view",
      "type": "function"
    },
    {
      "inputs": [],
      "name": "tokenPriceWithoutManagerFee",
      "outputs": [
        {
          "internalType": "uint256",
          "name": "price",
          "type": "uint256"
        }
      ],
      "stateMutability": "view",
      "type": "function"
    },
    {
      "inputs": [],
      "name": "totalSupply",
      "outputs": [
        {
          "internalType": "uint256",
          "name": "",
          "type": "uint256"
        }
      ],
      "stateMutability": "view",
      "type": "function"
    },
    {
      "inputs": [
        {
          "internalType": "address",
          "name": "recipient",
          "type": "address"
        },
        {
          "internalType": "uint256",
          "name": "amount",
          "type": "uint256"
        }
      ],
      "name": "transfer",
      "outputs": [
        {
          "internalType": "bool",
          "name": "",
          "type": "bool"
        }
      ],
      "stateMutability": "nonpayable",
      "type": "function"
    },
    {
      "inputs": [
        {
          "internalType": "address",
          "name": "sender",
          "type": "address"
        },
        {
          "internalType": "address",
          "name": "recipient",
          "type": "address"
        },
        {
          "internalType": "uint256",
          "name": "amount",
          "type": "uint256"
        }
      ],
      "name": "transferFrom",
      "outputs": [
        {
          "internalType": "bool",
          "name": "",
          "type": "bool"
        }
      ],
      "stateMutability": "nonpayable",
      "type": "function"
    },
    {
      "inputs": [
        {
          "internalType": "uint256",
          "name": "_fundTokenAmount",
          "type": "uint256"
        }
      ],
      "name": "withdraw",
      "outputs": [],
      "stateMutability": "nonpayable",
      "type": "function"
    },
    {
      "inputs": [
        {
          "internalType": "address",
          "name": "_recipient",
          "type": "address"
        },
        {
          "internalType": "uint256",
          "name": "_fundTokenAmount",
          "type": "uint256"
        }
      ],
      "name": "withdrawTo",
      "outputs": [],
      "stateMutability": "nonpayable",
      "type": "function"
    }
  ],
  "bytecode": "0x608060405234801561001057600080fd5b506159f080620000216000396000f3fe608060405234801561001057600080fd5b50600436106102095760003560e01c80637714f39d116101215780637714f39d146103b65780637ae7cfb5146103be5780637ff9b596146103d1578063920f5c84146103d957806394138e97146103ec57806395d89b41146103ff578063a457c2d714610407578063a77134e41461041a578063a9059cbb14610422578063a971a91314610435578063aee8833414610448578063b3db428b1461045b578063b8ea2b6e1461046e578063bbbf725b14610481578063c45a015514610494578063cc3c6df61461049c578063d8270dce146104a4578063dd62ed3e146104ac578063de6eb133146104bf578063df8ff12f146104d2578063edbf6f50146104da578063fed4416a146104e257610209565b806302d05d3f1461020e57806306fdde031461022c578063095ea7b314610241578063150b7a021461026157806318160ddd146102815780631c5918d2146102965780631e50a4a6146102ab578063205c2878146102b357806323b872dd146102c857806329d16ee8146102db5780632e1a7d4d146102ee578063313ce5671461030157806339509351146103165780633babaad51461032957806347e7ef241461033c5780635426f81d1461034f57806354df770f1461036257806359b5e75e1461037557806370a082311461037d5780637481de6614610390578063750226de146103a3575b600080fd5b6102166104ea565b6040516102239190614cc8565b60405180910390f35b6102346104fe565b604051610223919061500c565b61025461024f36600461470f565b610594565b6040516102239190614fdd565b61027461026f366004614583565b6105b2565b6040516102239190614fe8565b61028961071d565b60405161022391906156e7565b61029e610723565b6040516102239190615610565b610216610957565b6102c66102c136600461470f565b610966565b005b6102546102d6366004614543565b610e83565b6102896102e93660046144d3565b610f0b565b6102c66102fc366004614b69565b610f1d565b610309610f2a565b60405161022391906156f0565b61025461032436600461470f565b610f33565b6102c6610337366004614ab8565b610f81565b61028961034a36600461470f565b610ff3565b6102c661035d366004614638565b611086565b610289610370366004614bf1565b6111b4565b61025461126d565b61028961038b3660046144d3565b611276565b61028961039e3660046144d3565b611295565b6102546103b13660046144d3565b6112a7565b6102896113f7565b6102546103cc3660046146bd565b6113fd565b610289611447565b6102546103e7366004614791565b611507565b6102896103fa366004614b69565b61192b565b6102346119e1565b61025461041536600461470f565b611a42565b610289611aaa565b61025461043036600461470f565b611b52565b6102546104433660046149b3565b611b66565b6102896104563660046144d3565b611c4f565b610289610469366004614543565b611c61565b61028961047c3660046144d3565b611cb7565b61025461048f3660046144d3565b611d05565b610216611d86565b6102c6611d95565b610289611edd565b6102896104ba36600461450b565b611ee3565b6102896104cd3660046145f3565b611f0e565b610289612087565b61028961208d565b610234612127565b60975461010090046001600160a01b031681565b60368054604080516020601f600260001961010060018816150201909516949094049384018190048102820181019092528281526060939092909183018282801561058a5780601f1061055f5761010080835404028352916020019161058a565b820191906000526020600020905b81548152906001019060200180831161056d57829003601f168201915b5050505050905090565b60006105a86105a16121ad565b84846121b1565b5060015b92915050565b609954604051634f8419b960e01b815260009182916001600160a01b0390911690634f8419b9906105e7908a90600401614cc8565b60206040518083038186803b1580156105ff57600080fd5b505afa158015610613573d6000803e3d6000fd5b505050506040513d601f19601f8201168201806040525081019061063791906144ef565b90506001600160a01b0381166106685760405162461bcd60e51b815260040161065f906153f0565b60405180910390fd5b6040516306baeff360e11b81526001600160a01b03821690630d75dfe69061069c908a908a908a908a908a90600401614e9d565b602060405180830381600087803b1580156106b657600080fd5b505af11580156106ca573d6000803e3d6000fd5b505050506040513d601f19601f820116820180604052508101906106ee9190614ad4565b61070a5760405162461bcd60e51b815260040161065f9061512f565b50630a85bd0160e11b9695505050505050565b60355490565b61072b61419d565b600080600080609c60009054906101000a90046001600160a01b03166001600160a01b031663ced72f876040518163ffffffff1660e01b815260040160806040518083038186803b15801561077f57600080fd5b505afa158015610793573d6000803e3d6000fd5b505050506040513d601f19601f820116820180604052508101906107b79190614bbc565b9350935093509350600080609960009054906101000a90046001600160a01b03166001600160a01b031663ecb0116a6040518163ffffffff1660e01b8152600401604080518083038186803b15801561080f57600080fd5b505afa158015610823573d6000803e3d6000fd5b505050506040513d601f19601f820116820180604052508101906108479190614b99565b91509150604051806101a0016040528061085f6104fe565b815260200161086c61071d565b8152609c5460408051632b583ff360e21b815290516020938401936001600160a01b039093169263ad60ffcc9260048082019391829003018186803b1580156108b457600080fd5b505afa1580156108c8573d6000803e3d6000fd5b505050506040513d601f19601f820116820180604052508101906108ec9190614b81565b81526020016108f961229d565b6001600160a01b0316815260200161090f612127565b8152609854602082015260975460ff16151560408201526060810197909752608087019590955260a086019290925260c085015260e084015261010090920191909152905090565b609c546001600160a01b031681565b600260655414156109be576040805162461bcd60e51b815260206004820152601f60248201527f5265656e7472616e637947756172643a207265656e7472616e742063616c6c00604482015290519081900360640190fd5b6002606555609954604080516358c3de9360e11b815290516001600160a01b039092169163b187bd2691600480820192602092909190829003018186803b158015610a0857600080fd5b505afa158015610a1c573d6000803e3d6000fd5b505050506040513d601f19601f82011682018060405250810190610a409190614ad4565b15610a5d5760405162461bcd60e51b815260040161065f90615528565b60995460405163cdf04c0760e01b81526001600160a01b039091169063cdf04c0790610a8d903090600401614cc8565b60206040518083038186803b158015610aa557600080fd5b505afa158015610ab9573d6000803e3d6000fd5b505050506040513d601f19601f82011682018060405250810190610add9190614ad4565b15610afa5760405162461bcd60e51b815260040161065f9061536a565b336000908152609b60205260409020544211610b285760405162461bcd60e51b815260040161065f906152aa565b80610b3233611276565b1015610b505760405162461bcd60e51b815260040161065f906153c2565b6000610b6482610b5e61071d565b9061231a565b9050620186a081101580610b76575080155b610b925760405162461bcd60e51b815260040161065f90615392565b506000610b9d612377565b90506000610bc4610bac61071d565b610bbe85670de0b6b3a7640000612679565b906126d2565b9050610bd03384612736565b609c546040805163e5406dbf60e01b815290516000926001600160a01b03169163e5406dbf9160048083019286929190829003018186803b158015610c1457600080fd5b505afa158015610c28573d6000803e3d6000fd5b505050506040513d6000823e601f3d908101601f19168201604052610c5091908101906148a8565b9050600081516001600160401b0381118015610c6b57600080fd5b50604051908082528060200260200182016040528015610ca557816020015b610c92614210565b815260200190600190039081610c8a5790505b5090506000805b8351811015610dd5576000806000610cdc878581518110610cc957fe5b6020026020010151600001518c8a612820565b919450925090508115610d71576001600160a01b038316610d0f5760405162461bcd60e51b815260040161065f906155ae565b610d6f63a9059cbb60e01b8c84604051602401610d2d929190614f24565b60408051601f198184030181529190526020810180516001600160e01b03166001600160e01b0319909316929092179091526001600160a01b03851690612af6565b505b8080610d7d5750600082115b15610dca576040518060600160405280846001600160a01b03168152602001838152602001821515815250868661ffff1681518110610db857fe5b60209081029190910101526001909401935b505050600101610cac565b508251600090610de99061ffff841661231a565b8351819003845290506000610e0a670de0b6b3a7640000610bbe888a612679565b90507ffad3d7f9ed107ffa7fc8ce8baa521effc3650ec48a4d1dd36bdb9c4b91db12953033838b610e3a33611276565b610e448d8861231a565b610e4c61071d565b8b42604051610e6399989796959493929190614d1a565b60405180910390a1610e73612b29565b5050600160655550505050505050565b6000610e90848484612b93565b610f0084610e9c6121ad565b610efb856040518060600160405280602881526020016158e4602891396001600160a01b038a16600090815260346020526040812090610eda6121ad565b6001600160a01b031681526020810191909152604001600020549190612cde565b6121b1565b5060015b9392505050565b609b6020526000908152604090205481565b610f273382610966565b50565b60385460ff1690565b60006105a8610f406121ad565b84610efb8560346000610f516121ad565b6001600160a01b03908116825260208083019390935260409182016000908120918c168152925290205490612d75565b610f8961229d565b6001600160a01b0316336001600160a01b031614610fb95760405162461bcd60e51b815260040161065f9061524f565b60975460ff1615158115151415610fe25760405162461bcd60e51b815260040161065f9061521f565b610feb81612dcd565b610f27612b29565b6000610f04338484609960009054906101000a90046001600160a01b03166001600160a01b0316634501b0886040518163ffffffff1660e01b815260040160206040518083038186803b15801561104957600080fd5b505afa15801561105d573d6000803e3d6000fd5b505050506040513d601f19601f820116820180604052508101906110819190614b81565b612e16565b600054610100900460ff168061109f575061109f613405565b806110ad575060005460ff16155b6110e85760405162461bcd60e51b815260040180806020018281038252602e815260200180615895602e913960400191505060405180910390fd5b600054610100900460ff16158015611113576000805460ff1961ff0019909116610100171660011790555b6001600160a01b0385166111395760405162461bcd60e51b815260040161065f90615465565b6111438383613416565b61114b6134cc565b609980546001600160a01b0319166001600160a01b03871617905561116f84612dcd565b60978054610100600160a81b0319163361010002179055426098819055609e55670de0b6b3a7640000609a5580156111ad576000805461ff00191690555b5050505050565b6000806111c18486612d75565b905060008382106111db576111d6828561231a565b6111de565b60005b9050881580156111ec575087155b156111fa5760009250611261565b8861120757869250611261565b87158061121357508087105b1561122057809250611261565b60006112308a610bbe8a8c612679565b9050600061123e8284612d75565b905088811161125a5780611253576001611255565b805b61125c565b885b945050505b50509695505050505050565b60975460ff1681565b6001600160a01b0381166000908152603360205260409020545b919050565b609f6020526000908152604090205481565b60006001600160a01b0382166112cf5760405162461bcd60e51b815260040161065f90615099565b6099546001600160a01b031633148061137e5750609960009054906101000a90046001600160a01b03166001600160a01b0316638da5cb5b6040518163ffffffff1660e01b815260040160206040518083038186803b15801561133157600080fd5b505afa158015611345573d6000803e3d6000fd5b505050506040513d601f19601f8201168201806040525081019061136991906144ef565b6001600160a01b0316336001600160a01b0316145b61139a5760405162461bcd60e51b815260040161065f9061548e565b609c80546001600160a01b0319166001600160a01b0384161790556040517f63fb64c359a4cae97e1bf003c1ab11390b5f0e18cc5b3d67b90bd61c0f5c52fd906113e79084903390614d00565b60405180910390a1506001919050565b609a5481565b600061143f8484848080601f01602080910402602001604051908101604052809392919081815260200183838082843760009201919091525061357592505050565b949350505050565b600080609c60009054906101000a90046001600160a01b03166001600160a01b031663ad60ffcc6040518163ffffffff1660e01b815260040160206040518083038186803b15801561149857600080fd5b505afa1580156114ac573d6000803e3d6000fd5b505050506040513d601f19601f820116820180604052508101906114d09190614b81565b905060006114dd8261192b565b905060006114f3826114ed61071d565b90612d75565b90506114ff8382613c95565b935050505090565b60006001600160a01b03831630146115315760405162461bcd60e51b815260040161065f90615275565b609954604051633f30232f60e21b81526000916001600160a01b03169063fcc08cbc90611562903390600401614cc8565b60206040518083038186803b15801561157a57600080fd5b505afa15801561158e573d6000803e3d6000fd5b505050506040513d601f19601f820116820180604052508101906115b291906144ef565b90506001600160a01b0381161580159061164d5750806001600160a01b031663e9d337b86040518163ffffffff1660e01b815260040160206040518083038186803b15801561160057600080fd5b505afa158015611614573d6000803e3d6000fd5b505050506040513d601f19601f8201168201806040525081019061163891906144ef565b6001600160a01b0316336001600160a01b0316145b6116695760405162461bcd60e51b815260040161065f906155e2565b600080848060200190518101906116809190614a21565b6099546040516321f8a72160e01b81529294509092506000916001600160a01b03909116906321f8a721906116b790600401615455565b60206040518083038186803b1580156116cf57600080fd5b505afa1580156116e3573d6000803e3d6000fd5b505050506040513d601f19601f8201168201806040525081019061170791906144ef565b90506000816001600160a01b03166370a08231306040518263ffffffff1660e01b81526004016117379190614cc8565b60206040518083038186803b15801561174f57600080fd5b505afa158015611763573d6000803e3d6000fd5b505050506040513d601f19601f820116820180604052508101906117879190614b81565b90506000856001600160a01b031663952bfb1630868f8f8f8b6040518763ffffffff1660e01b81526004016117c196959493929190614f3d565b60006040518083038186803b1580156117d957600080fd5b505afa1580156117ed573d6000803e3d6000fd5b505050506040513d6000823e601f3d908101601f191682016040526118159190810190614981565b905060005b81518110156118775761186d82828151811061183257fe5b60200260200101516020015183838151811061184a57fe5b6020026020010151600001516001600160a01b0316612af690919063ffffffff16565b975060010161181a565b5081158061190057506040516370a0823160e01b81526001600160a01b038416906370a08231906118ac903090600401614cc8565b60206040518083038186803b1580156118c457600080fd5b505afa1580156118d8573d6000803e3d6000fd5b505050506040513d601f19601f820116820180604052508101906118fc9190614b81565b8211155b61191c5760405162461bcd60e51b815260040161065f9061533f565b50505050505095945050505050565b60008061193661071d565b90506000806000609c60009054906101000a90046001600160a01b03166001600160a01b031663ced72f876040518163ffffffff1660e01b815260040160806040518083038186803b15801561198b57600080fd5b505afa15801561199f573d6000803e3d6000fd5b505050506040513d601f19601f820116820180604052508101906119c39190614bbc565b935050925092506119d78685858585613cc5565b9695505050505050565b60378054604080516020601f600260001961010060018816150201909516949094049384018190048102820181019092528281526060939092909183018282801561058a5780601f1061055f5761010080835404028352916020019161058a565b60006105a8611a4f6121ad565b84610efb856040518060600160405280602581526020016159966025913960346000611a796121ad565b6001600160a01b03908116825260208083019390935260409182016000908120918d16815292529020549190612cde565b600080609c60009054906101000a90046001600160a01b03166001600160a01b031663ad60ffcc6040518163ffffffff1660e01b815260040160206040518083038186803b158015611afb57600080fd5b505afa158015611b0f573d6000803e3d6000fd5b505050506040513d601f19601f82011682018060405250810190611b339190614b81565b90506000611b3f61071d565b9050611b4b8282613c95565b9250505090565b60006105a8611b5f6121ad565b8484612b93565b600081611b855760405162461bcd60e51b815260040161065f9061530b565b60005b82811015610f00576000611c27858584818110611ba157fe5b9050602002810190611bb39190615742565b611bc19060208101906144d3565b868685818110611bcd57fe5b9050602002810190611bdf9190615742565b611bed9060208101906156fe565b8080601f01602080910402602001604051908101604052809392919081815260200183838082843760009201919091525061357592505050565b905080611c465760405162461bcd60e51b815260040161065f906154fb565b50600101611b88565b609d6020526000908152604090205481565b600061143f848484609960009054906101000a90046001600160a01b03166001600160a01b0316634501b0886040518163ffffffff1660e01b815260040160206040518083038186803b15801561104957600080fd5b6001600160a01b0381166000908152609f6020908152604080832054609b9092528220548291611ce79190612d75565b905042811015611cfb576000915050611290565b610f04814261231a565b609c5460405163bbbf725b60e01b81526000916001600160a01b03169063bbbf725b90611d36908590600401614cc8565b60206040518083038186803b158015611d4e57600080fd5b505afa158015611d62573d6000803e3d6000fd5b505050506040513d601f19601f820116820180604052508101906105ac9190614ad4565b6099546001600160a01b031681565b609960009054906101000a90046001600160a01b03166001600160a01b031663b187bd266040518163ffffffff1660e01b815260040160206040518083038186803b158015611de357600080fd5b505afa158015611df7573d6000803e3d6000fd5b505050506040513d601f19601f82011682018060405250810190611e1b9190614ad4565b15611e385760405162461bcd60e51b815260040161065f90615528565b60995460405163cdf04c0760e01b81526001600160a01b039091169063cdf04c0790611e68903090600401614cc8565b60206040518083038186803b158015611e8057600080fd5b505afa158015611e94573d6000803e3d6000fd5b505050506040513d601f19601f82011682018060405250810190611eb89190614ad4565b15611ed55760405162461bcd60e51b815260040161065f9061536a565b610f27612377565b60985481565b6001600160a01b03918216600090815260346020908152604080832093909416825291909152205490565b609954604051632927233b60e01b81526000916001600160a01b031690632927233b90611f3f903390600401614cc8565b60206040518083038186803b158015611f5757600080fd5b505afa158015611f6b573d6000803e3d6000fd5b505050506040513d601f19601f82011682018060405250810190611f8f9190614ad4565b611fab5760405162461bcd60e51b815260040161065f90615162565b61012c821015611fcd5760405162461bcd60e51b815260040161065f90615552565b609960009054906101000a90046001600160a01b03166001600160a01b0316634501b0886040518163ffffffff1660e01b815260040160206040518083038186803b15801561201b57600080fd5b505afa15801561202f573d6000803e3d6000fd5b505050506040513d601f19601f820116820180604052508101906120539190614b81565b8211156120725760405162461bcd60e51b815260040161065f906151e9565b61207e85858585612e16565b95945050505050565b609e5481565b600080609c60009054906101000a90046001600160a01b03166001600160a01b031663ad60ffcc6040518163ffffffff1660e01b815260040160206040518083038186803b1580156120de57600080fd5b505afa1580156120f2573d6000803e3d6000fd5b505050506040513d601f19601f820116820180604052508101906121169190614b81565b90506121218161192b565b91505090565b609c5460408051637f6a20b560e11b815290516060926001600160a01b03169163fed4416a916004808301926000929190829003018186803b15801561216c57600080fd5b505afa158015612180573d6000803e3d6000fd5b505050506040513d6000823e601f3d908101601f191682016040526121a89190810190614af0565b905090565b3390565b6001600160a01b0383166121f65760405162461bcd60e51b81526004018080602001828103825260248152602001806159726024913960400191505060405180910390fd5b6001600160a01b03821661223b5760405162461bcd60e51b815260040180806020018281038252602281526020018061584d6022913960400191505060405180910390fd5b6001600160a01b03808416600081815260346020908152604080832094871680845294825291829020859055815185815291517f8c5be1e5ebec7d5bd14f71427d1e84f3dd0314c0f7b2291e5b200ac8c7c3b9259281900390910190a3505050565b609c546040805163481c6a7560e01b815290516000926001600160a01b03169163481c6a75916004808301926020929190829003018186803b1580156122e257600080fd5b505afa1580156122f6573d6000803e3d6000fd5b505050506040513d601f19601f820116820180604052508101906121a891906144ef565b600082821115612371576040805162461bcd60e51b815260206004820152601e60248201527f536166654d6174683a207375627472616374696f6e206f766572666c6f770000604482015290519081900360640190fd5b50900390565b609c54604080516335fd4a6360e11b815290516000926001600160a01b031691636bfa94c691600480830192602092919082900301818787803b1580156123bd57600080fd5b505af11580156123d1573d6000803e3d6000fd5b505050506040513d601f19601f820116820180604052508101906123f59190614b81565b9050600061240161071d565b90506000806000609c60009054906101000a90046001600160a01b03166001600160a01b031663ced72f876040518163ffffffff1660e01b815260040160806040518083038186803b15801561245657600080fd5b505afa15801561246a573d6000803e3d6000fd5b505050506040513d601f19601f8201168201806040525081019061248e9190614bbc565b9350509250925060006124a48686868686613cc5565b90506000609960009054906101000a90046001600160a01b03166001600160a01b0316632131c68c6040518163ffffffff1660e01b815260040160206040518083038186803b1580156124f657600080fd5b505afa15801561250a573d6000803e3d6000fd5b505050506040513d601f19601f8201168201806040525081019061252e91906144ef565b6099546040805163272b69b960e21b8152815193945060009384936001600160a01b031692639cada6e49260048082019391829003018186803b15801561257457600080fd5b505afa158015612588573d6000803e3d6000fd5b505050506040513d601f19601f820116820180604052508101906125ac9190614b99565b909250905060006125c182610bbe8786612679565b905060006125cf868361231a565b905081156125e1576125e18583613d81565b80156125f8576125f86125f261229d565b82613d81565b60006126048c8c613c95565b905080609a54101561261657609a8190555b42609e557f755a8059d66d8d243bc9f6913f429a811f154599d0538bb0b6a2ac23f23d2ccd3061264461229d565b609a5460405161265b9392918c9189918991614eee565b60405180910390a161266b612b29565b505050505050505050505090565b600082612688575060006105ac565b8282028284828161269557fe5b0414610f045760405162461bcd60e51b81526004018080602001828103825260218152602001806158c36021913960400191505060405180910390fd5b6000808211612725576040805162461bcd60e51b815260206004820152601a602482015279536166654d6174683a206469766973696f6e206279207a65726f60301b604482015290519081900360640190fd5b81838161272e57fe5b049392505050565b6001600160a01b03821661277b5760405162461bcd60e51b815260040180806020018281038252602181526020018061592c6021913960400191505060405180910390fd5b61278782600083613e61565b6127c48160405180606001604052806022815260200161582b602291396001600160a01b0385166000908152603360205260409020549190612cde565b6001600160a01b0383166000908152603360205260409020556035546127ea908261231a565b6035556040805182815290516000916001600160a01b0385169160008051602061590c8339815191529181900360200190a35050565b609954604051633f30232f60e21b81526000918291829182916001600160a01b039091169063fcc08cbc90612859908a90600401614cc8565b60206040518083038186803b15801561287157600080fd5b505afa158015612885573d6000803e3d6000fd5b505050506040513d601f19601f820116820180604052508101906128a991906144ef565b90506001600160a01b0381166128d15760405162461bcd60e51b815260040161065f90615587565b6000806000836001600160a01b0316636f8ae202308c8b8d6040518563ffffffff1660e01b81526004016129089493929190614e72565b600060405180830381600087803b15801561292257600080fd5b505af1158015612936573d6000803e3d6000fd5b505050506040513d6000823e601f3d908101601f1916820160405261295e919081019061473a565b805192955090935091508015612ae55760006001600160a01b038516156129fe576040516370a0823160e01b81526001600160a01b038616906370a08231906129ab903090600401614cc8565b60206040518083038186803b1580156129c357600080fd5b505afa1580156129d7573d6000803e3d6000fd5b505050506040513d601f19601f820116820180604052508101906129fb9190614b81565b90505b60005b82811015612a3a57612a30848281518110612a1857fe5b60200260200101516020015185838151811061184a57fe5b9750600101612a01565b506001600160a01b03851615612ae3576040516370a0823160e01b81526000906001600160a01b038716906370a0823190612a79903090600401614cc8565b60206040518083038186803b158015612a9157600080fd5b505afa158015612aa5573d6000803e3d6000fd5b505050506040513d601f19601f82011682018060405250810190612ac99190614b81565b9050612adf612ad8828461231a565b8690612d75565b9450505b505b509195509350505093509350939050565b60008060008351602085016000875af19050801560018114612b1757612b22565b3d806000803e806000fd5b5092915050565b609960009054906101000a90046001600160a01b03166001600160a01b03166325c4121b6040518163ffffffff1660e01b8152600401600060405180830381600087803b158015612b7957600080fd5b505af1158015612b8d573d6000803e3d6000fd5b50505050565b6001600160a01b038316612bd85760405162461bcd60e51b815260040180806020018281038252602581526020018061594d6025913960400191505060405180910390fd5b6001600160a01b038216612c1d5760405162461bcd60e51b81526004018080602001828103825260238152602001806158086023913960400191505060405180910390fd5b612c28838383613e61565b612c658160405180606001604052806026815260200161586f602691396001600160a01b0386166000908152603360205260409020549190612cde565b6001600160a01b038085166000908152603360205260408082209390935590841681522054612c949082612d75565b6001600160a01b03808416600081815260336020908152604091829020949094558051858152905191939287169260008051602061590c83398151915292918290030190a3505050565b60008184841115612d6d5760405162461bcd60e51b81526004018080602001828103825283818151815260200191508051906020019080838360005b83811015612d32578181015183820152602001612d1a565b50505050905090810190601f168015612d5f5780820380516001836020036101000a031916815260200191505b509250505060405180910390fd5b505050900390565b600082820183811015610f04576040805162461bcd60e51b815260206004820152601b60248201527a536166654d6174683a206164646974696f6e206f766572666c6f7760281b604482015290519081900360640190fd5b6097805460ff19168215151790556040517f8d75e9ede4188432084b863d70b3416010c97547dfeb4fc17734d2e997ee0f3990612e0b908390614fdd565b60405180910390a150565b600084612e2161229d565b6001600160a01b0316816001600160a01b03161480612e43575060975460ff16155b80612e525750612e5281611d05565b612e6e5760405162461bcd60e51b815260040161065f90615101565b609960009054906101000a90046001600160a01b03166001600160a01b031663b187bd266040518163ffffffff1660e01b815260040160206040518083038186803b158015612ebc57600080fd5b505afa158015612ed0573d6000803e3d6000fd5b505050506040513d601f19601f82011682018060405250810190612ef49190614ad4565b15612f115760405162461bcd60e51b815260040161065f90615528565b60995460405163cdf04c0760e01b81526001600160a01b039091169063cdf04c0790612f41903090600401614cc8565b60206040518083038186803b158015612f5957600080fd5b505afa158015612f6d573d6000803e3d6000fd5b505050506040513d601f19601f82011682018060405250810190612f919190614ad4565b15612fae5760405162461bcd60e51b815260040161065f9061536a565b609c5460405163bdbef07d60e01b81526001600160a01b039091169063bdbef07d90612fde908890600401614cc8565b60206040518083038186803b158015612ff657600080fd5b505afa15801561300a573d6000803e3d6000fd5b505050506040513d601f19601f8201168201806040525081019061302e9190614ad4565b61304a5760405162461bcd60e51b815260040161065f90615426565b6000613054612377565b9050600061306061071d565b90506130c46323b872dd60e01b33308960405160240161308293929190614cdc565b60408051601f198184030181529190526020810180516001600160e01b03166001600160e01b0319909316929092179091526001600160a01b03891690612af6565b50609c546040516314e03fdd60e11b81526000916001600160a01b0316906329c07fba906130f8908b908b90600401614f24565b60206040518083038186803b15801561311057600080fd5b505afa158015613124573d6000803e3d6000fd5b505050506040513d601f19601f820116820180604052508101906131489190614b81565b9050600080609c60009054906101000a90046001600160a01b03166001600160a01b031663ced72f876040518163ffffffff1660e01b815260040160806040518083038186803b15801561319b57600080fd5b505afa1580156131af573d6000803e3d6000fd5b505050506040513d601f19601f820116820180604052508101906131d39190614bbc565b935093505050600084111561320c5761320581610bbe87816131f5848861231a565b6131ff898b612679565b90612679565b9650613227565b61322481610bbe61321d828661231a565b8690612679565b96505b5050620186a085101561324c5760405162461bcd60e51b815260040161065f90615068565b6132876132588a611276565b6001600160a01b038b166000908152609f6020908152604080832054609b9092529091205488918a91426111b4565b6001600160a01b038a166000908152609f6020908152604080832093909355609b9052204290556132b88986613d81565b60006132c38a611276565b905060006132d18584612d75565b905060006132df8589612d75565b9050609c60009054906101000a90046001600160a01b03166001600160a01b03166350b721a76040518163ffffffff1660e01b815260040160206040518083038186803b15801561332f57600080fd5b505afa158015613343573d6000803e3d6000fd5b505050506040513d601f19601f820116820180604052508101906133679190614b81565b613387670de0b6b3a7640000610bbe6133808686613c95565b8790612679565b10156133a55760405162461bcd60e51b815260040161065f906152d8565b7f97e6c213c123075e233a6f2323f33d8319141b993ab05e9e2f7eb2eda08cb944308d8d8d888d898989426040516133e69a99989796959493929190614dc3565b60405180910390a16133f6612b29565b50505050505050949350505050565b600061341030613f34565b15905090565b600054610100900460ff168061342f575061342f613405565b8061343d575060005460ff16155b6134785760405162461bcd60e51b815260040180806020018281038252602e815260200180615895602e913960400191505060405180910390fd5b600054610100900460ff161580156134a3576000805460ff1961ff0019909116610100171660011790555b6134ab613f3a565b6134b58383613fda565b80156134c7576000805461ff00191690555b505050565b600054610100900460ff16806134e557506134e5613405565b806134f3575060005460ff16155b61352e5760405162461bcd60e51b815260040180806020018281038252602e815260200180615895602e913960400191505060405180910390fd5b600054610100900460ff16158015613559576000805460ff1961ff0019909116610100171660011790555b6135616140b2565b8015610f27576000805461ff001916905550565b6000600260655414156135cf576040805162461bcd60e51b815260206004820152601f60248201527f5265656e7472616e637947756172643a207265656e7472616e742063616c6c00604482015290519081900360640190fd5b6002606555609954604080516358c3de9360e11b815290516001600160a01b039092169163b187bd2691600480820192602092909190829003018186803b15801561361957600080fd5b505afa15801561362d573d6000803e3d6000fd5b505050506040513d601f19601f820116820180604052508101906136519190614ad4565b1561366e5760405162461bcd60e51b815260040161065f90615528565b6001600160a01b0383166136945760405162461bcd60e51b815260040161065f906154c5565b609954604051634f8419b960e01b81526000916001600160a01b031690634f8419b9906136c5908790600401614cc8565b60206040518083038186803b1580156136dd57600080fd5b505afa1580156136f1573d6000803e3d6000fd5b505050506040513d601f19601f8201168201806040525081019061371591906144ef565b905060008080806001600160a01b038516156137bb57609c54604051636179309d60e01b81528694506001600160a01b0380861692636179309d9261376492909116908c908c90600401614e19565b6040805180830381600087803b15801561377d57600080fd5b505af1158015613791573d6000803e3d6000fd5b505050506040513d601f19601f820116820180604052508101906137b59190614b35565b90925090505b61ffff8216613a8457609954604051633f30232f60e21b81526001600160a01b039091169063fcc08cbc906137f4908b90600401614cc8565b60206040518083038186803b15801561380c57600080fd5b505afa158015613820573d6000803e3d6000fd5b505050506040513d601f19601f8201168201806040525081019061384491906144ef565b93506001600160a01b038416613958576099546040805163795053d360e01b815290516000926001600160a01b03169163795053d3916004808301926020929190829003018186803b15801561389957600080fd5b505afa1580156138ad573d6000803e3d6000fd5b505050506040513d601f19601f820116820180604052508101906138d191906144ef565b60405162a950c360e81b81529091506001600160a01b0382169063a950c3009061390090600090600401614ffd565b60206040518083038186803b15801561391857600080fd5b505afa15801561392c573d6000803e3d6000fd5b505050506040513d601f19601f8201168201806040525081019061395091906144ef565b9450506139f4565b609c54604051634df48c7360e11b81526001600160a01b0390911690639be918e690613988908b90600401614cc8565b60206040518083038186803b1580156139a057600080fd5b505afa1580156139b4573d6000803e3d6000fd5b505050506040513d601f19601f820116820180604052508101906139d89190614ad4565b6139f45760405162461bcd60e51b815260040161065f906150ce565b609c54604051636179309d60e01b81528594506001600160a01b0380861692636179309d92613a2d92909116908c908c90600401614e19565b6040805180830381600087803b158015613a4657600080fd5b505af1158015613a5a573d6000803e3d6000fd5b505050506040513d601f19601f82011682018060405250810190613a7e9190614b35565b90925090505b60008261ffff1611613aa85760405162461bcd60e51b815260040161065f90615193565b8080613acc5750613ab761229d565b6001600160a01b0316336001600160a01b0316145b80613aef5750613ada614158565b6001600160a01b0316336001600160a01b0316145b613b0b5760405162461bcd60e51b815260040161065f9061501f565b613b1e6001600160a01b03891688612af6565b60408051600481526024810182526020810180516001600160e01b0316637bf9811960e01b179052905191975060009182916001600160a01b03871691613b659190614cac565b6000604051808303816000865af19150503d8060008114613ba2576040519150601f19603f3d011682016040523d82523d6000602084013e613ba7565b606091505b5091509150818015613bc8575080806020019051810190613bc89190614ad4565b15613c3657609c54604051637b364ee960e11b81526001600160a01b038781169263f66c9dd292613c0392909116908e908e90600401614e19565b600060405180830381600087803b158015613c1d57600080fd5b505af1158015613c31573d6000803e3d6000fd5b505050505b7f14464fb67b1871a79e726fa7af525f8fff56e9e5649d511e47f3a357ae31d20730613c6061229d565b8642604051613c729493929190614e45565b60405180910390a1613c82612b29565b5050600160655550939695505050505050565b6000811580613ca2575082155b15613caf575060006105ac565b610f0482610bbe85670de0b6b3a7640000612679565b6000841580613cd2575085155b15613cdf5750600061207e565b6000613cf786610bbe89670de0b6b3a7640000612679565b9050609a54811115613d2b57613d2881610bbe85610bbe896131ff8c6131ff609a548a61231a90919063ffffffff16565b91505b609e5415613d77576000613d4a609e544261231a90919063ffffffff16565b90506000613d666301e13380610bbe87818a6131ff8e89612679565b9050613d728482612d75565b935050505b5095945050505050565b6001600160a01b038216613ddc576040805162461bcd60e51b815260206004820152601f60248201527f45524332303a206d696e7420746f20746865207a65726f206164647265737300604482015290519081900360640190fd5b613de860008383613e61565b603554613df59082612d75565b6035556001600160a01b038216600090815260336020526040902054613e1b9082612d75565b6001600160a01b038316600081815260336020908152604080832094909455835185815293519293919260008051602061590c8339815191529281900390910190a35050565b613e6c8383836134c7565b6001600160a01b038316613e7f576134c7565b609954604051637065accb60e11b81526001600160a01b039091169063e0cb599690613eaf908590600401614cc8565b60206040518083038186803b158015613ec757600080fd5b505afa158015613edb573d6000803e3d6000fd5b505050506040513d601f19601f82011682018060405250810190613eff9190614ad4565b151560011415613f0e576134c7565b613f1783611cb7565b156134c75760405162461bcd60e51b815260040161065f906151c0565b3b151590565b600054610100900460ff1680613f535750613f53613405565b80613f61575060005460ff16155b613f9c5760405162461bcd60e51b815260040180806020018281038252602e815260200180615895602e913960400191505060405180910390fd5b600054610100900460ff16158015613561576000805460ff1961ff0019909116610100171660011790558015610f27576000805461ff001916905550565b600054610100900460ff1680613ff35750613ff3613405565b80614001575060005460ff16155b61403c5760405162461bcd60e51b815260040180806020018281038252602e815260200180615895602e913960400191505060405180910390fd5b600054610100900460ff16158015614067576000805460ff1961ff0019909116610100171660011790555b825161407a906036906020860190614230565b50815161408e906037906020850190614230565b506038805460ff1916601217905580156134c7576000805461ff0019169055505050565b600054610100900460ff16806140cb57506140cb613405565b806140d9575060005460ff16155b6141145760405162461bcd60e51b815260040180806020018281038252602e815260200180615895602e913960400191505060405180910390fd5b600054610100900460ff1615801561413f576000805460ff1961ff0019909116610100171660011790555b60016065558015610f27576000805461ff001916905550565b609c5460408051631758078b60e01b815290516000926001600160a01b031691631758078b916004808301926020929190829003018186803b1580156122e257600080fd5b604051806101a0016040528060608152602001600081526020016000815260200160006001600160a01b0316815260200160608152602001600081526020016000151581526020016000815260200160008152602001600081526020016000815260200160008152602001600081525090565b604080516060810182526000808252602082018190529181019190915290565b828054600181600116156101000203166002900490600052602060002090601f01602090048101928261426657600085556142ac565b82601f1061427f57805160ff19168380011785556142ac565b828001600101855582156142ac579182015b828111156142ac578251825591602001919060010190614291565b506142b89291506142bc565b5090565b5b808211156142b857600081556001016142bd565b60006142e46142df84615797565b615757565b90508281528383830111156142f857600080fd5b610f048360208301846157b8565b8035611290816157e4565b600082601f830112614321578081fd5b815160206143316142df8361577a565b82815281810190858301855b858110156143da5781518801604080601f19838d0301121561435d578889fd5b80518181016001600160401b03828210818311171561437857fe5b9083528389015190614389826157e4565b90825283830151908082111561439d578b8cfd5b508084019350508b603f8401126143b257898afd5b6143c28c898501518486016142d1565b8189015286525050928401929084019060010161433d565b5090979650505050505050565b600082601f8301126143f7578081fd5b813560206144076142df8361577a565b8281528181019085830183850287018401881015614423578586fd5b855b858110156143da57813584529284019290840190600101614425565b60008083601f840112614452578182fd5b5081356001600160401b03811115614468578182fd5b60208301915083602082850101111561448057600080fd5b9250929050565b600082601f830112614497578081fd5b81356144a56142df82615797565b8181528460208386010111156144b9578283fd5b816020850160208301379081016020019190915292915050565b6000602082840312156144e4578081fd5b8135610f04816157e4565b600060208284031215614500578081fd5b8151610f04816157e4565b6000806040838503121561451d578081fd5b8235614528816157e4565b91506020830135614538816157e4565b809150509250929050565b600080600060608486031215614557578081fd5b8335614562816157e4565b92506020840135614572816157e4565b929592945050506040919091013590565b60008060008060006080868803121561459a578283fd5b85356145a5816157e4565b945060208601356145b5816157e4565b93506040860135925060608601356001600160401b038111156145d6578182fd5b6145e288828901614441565b969995985093965092949392505050565b60008060008060808587031215614608578182fd5b8435614613816157e4565b93506020850135614623816157e4565b93969395505050506040820135916060013590565b6000806000806080858703121561464d578182fd5b8435614658816157e4565b93506020850135614668816157f9565b925060408501356001600160401b0380821115614683578384fd5b61468f88838901614487565b935060608701359150808211156146a4578283fd5b506146b187828801614487565b91505092959194509250565b6000806000604084860312156146d1578081fd5b83356146dc816157e4565b925060208401356001600160401b038111156146f6578182fd5b61470286828701614441565b9497909650939450505050565b60008060408385031215614721578182fd5b823561472c816157e4565b946020939093013593505050565b60008060006060848603121561474e578081fd5b8351614759816157e4565b6020850151604086015191945092506001600160401b0381111561477b578182fd5b61478786828701614311565b9150509250925092565b600080600080600060a086880312156147a8578283fd5b85356001600160401b03808211156147be578485fd5b818801915088601f8301126147d1578485fd5b813560206147e16142df8361577a565b82815281810190858301838502870184018e10156147fd57898afd5b8996505b84871015614828578035614814816157e4565b835260019690960195918301918301614801565b509950508901359250508082111561483e578485fd5b61484a89838a016143e7565b9550604088013591508082111561485f578485fd5b61486b89838a016143e7565b945061487960608901614306565b9350608088013591508082111561488e578283fd5b5061489b88828901614487565b9150509295509295909350565b600060208083850312156148ba578182fd5b82516001600160401b03808211156148d0578384fd5b818501915085601f8301126148e3578384fd5b81516148f16142df8261577a565b818152848101908486016040808502870188018b101561490f578889fd5b8896505b848710156149725780828c031215614929578889fd5b8051818101818110888211171561493c57fe5b82528251614949816157e4565b815282890151614958816157f9565b818a01528452600196909601959287019290810190614913565b50909998505050505050505050565b600060208284031215614992578081fd5b81516001600160401b038111156149a7578182fd5b61143f84828501614311565b600080602083850312156149c5578182fd5b82356001600160401b03808211156149db578384fd5b818501915085601f8301126149ee578384fd5b8135818111156149fc578485fd5b8660208083028501011115614a0f578485fd5b60209290920196919550909350505050565b60008060408385031215614a33578182fd5b82516001600160401b03811115614a48578283fd5b8301601f81018513614a58578283fd5b80516020614a686142df8361577a565b82815281810190848301838502860184018a1015614a84578788fd5b8795505b84861015614aa6578051835260019590950194918301918301614a88565b50969091015195979596505050505050565b600060208284031215614ac9578081fd5b8135610f04816157f9565b600060208284031215614ae5578081fd5b8151610f04816157f9565b600060208284031215614b01578081fd5b81516001600160401b03811115614b16578182fd5b8201601f81018413614b26578182fd5b61143f848251602084016142d1565b60008060408385031215614b47578182fd5b825161ffff81168114614b58578283fd5b6020840151909250614538816157f9565b600060208284031215614b7a578081fd5b5035919050565b600060208284031215614b92578081fd5b5051919050565b60008060408385031215614bab578182fd5b505080516020909101519092909150565b60008060008060808587031215614bd1578182fd5b505082516020840151604085015160609095015191969095509092509050565b60008060008060008060c08789031215614c09578384fd5b505084359660208601359650604086013595606081013595506080810135945060a0013592509050565b6001600160a01b03169052565b6000815180845260208085019450808401835b83811015614c6f57815187529582019590820190600101614c53565b509495945050505050565b15159052565b60008151808452614c988160208601602086016157b8565b601f01601f19169290920160200192915050565b60008251614cbe8184602087016157b8565b9190910192915050565b6001600160a01b0391909116815260200190565b6001600160a01b039384168152919092166020820152604081019190915260600190565b6001600160a01b0392831681529116602082015260400190565b600061012080830160018060a01b03808e1685526020818e168187015260408d8188015260608d818901528c60808901528b60a08901528a60c08901528560e0890152849550895180865261014089019650838b019550875b81811015614da457865180518716895285810151868a01528401511515848901529682019695840195600101614d73565b505050505061010094909401949094529b9a5050505050505050505050565b6001600160a01b039a8b168152988a1660208a01529690981660408801526060870194909452608086019290925260a085015260c084015260e08301526101008201929092526101208101919091526101400190565b6001600160a01b0384811682528316602082015260606040820181905260009061207e90830184614c80565b6001600160a01b03948516815292909316602083015261ffff166040820152606081019190915260800190565b6001600160a01b03948516815292841660208401526040830191909152909116606082015260800190565b6001600160a01b038681168252851660208201526040810184905260806060820181905281018290526000828460a084013781830160a090810191909152601f909201601f19160101949350505050565b6001600160a01b03968716815294909516602085015260408401929092526060830152608082015260a081019190915260c00190565b6001600160a01b03929092168252602082015260400190565b6001600160a01b038781168252602080830188905260c060408401819052875190840181905260009288830192909160e0860190855b81811015614f91578551851683529483019491830191600101614f73565b50508581036060870152614fa5818a614c40565b93505050508281036080840152614fbc8186614c40565b905082810360a0840152614fd08185614c40565b9998505050505050505050565b901515815260200190565b6001600160e01b031991909116815260200190565b61ffff91909116815260200190565b600060208252610f046020830184614c80565b60208082526029908201527f6f6e6c79206d616e61676572206f7220747261646572206f72207075626c696360408201526810333ab731ba34b7b760b91b606082015260800190565b6020808252601790820152761a5b9d985b1a59081b1a5c5d5a591a5d1e535a5b9d1959604a1b604082015260600190565b6020808252818101527f496e76616c696420706f6f6c4d616e616765724c6f6769632061646472657373604082015260600190565b602080825260199082015278185cdcd95d081b9bdd08195b98589b1959081a5b881c1bdbdb603a1b604082015260600190565b6020808252601490820152731bdb9b1e481b595b58995c9cc8185b1b1bddd95960621b604082015260600190565b602080825260199082015278115490cdcc8c481d1bdad95b881b9bdd081d995c9a599a5959603a1b604082015260600190565b60208082526017908201527637b7363c903bb434ba32b634b9ba32b21039b2b73232b960491b604082015260600190565b60208082526013908201527234b73b30b634b2103a3930b739b0b1ba34b7b760691b604082015260600190565b6020808252600f908201526e636f6f6c646f776e2061637469766560881b604082015260600190565b6020808252601c908201527b31b0b73a1032bc31b2b2b2103232b330bab63a1031b7b7b63237bbb760211b604082015260600190565b602080825260169082015275199b1859c81b5d5cdd08189948191a5999995c995b9d60521b604082015260600190565b6020808252600c908201526b37b7363c9036b0b730b3b2b960a11b604082015260600190565b6020808252601b908201527a37b7363c903837b7b610333630b9b4103637b0b71037b934b3b4b760291b604082015260600190565b60208082526014908201527363616e2077697468647261772073686f72746c7960601b604082015260600190565b6020808252601990820152781b5d5cdd081b59595d081b5a5b9a5b5d5b4819195c1bdcda5d603a1b604082015260600190565b6020808252601a90820152796e6f207472616e73616374696f6e7320746f206578656375746560301b604082015260600190565b602080825260119082015270746f6f206869676820736c69707061676560781b604082015260600190565b6020808252600e908201526d1c1bdbdb081a5cc81c185d5cd95960921b604082015260600190565b60208082526016908201527518995b1bddc81cdd5c1c1b1e481d1a1c995cda1bdb1960521b604082015260600190565b602080825260149082015273696e73756666696369656e742062616c616e636560601b604082015260600190565b6020808252601c908201527b1bdb9b1e4819dd585c991959081859191c995cdcc8185b1b1bddd95960221b604082015260600190565b6020808252601590820152741a5b9d985b1a590819195c1bdcda5d08185cdcd95d605a1b604082015260600190565b630eecae8d60e31b815260200190565b6020808252600f908201526e496e76616c696420666163746f727960881b604082015260600190565b6020808252601d908201527f6f6e6c79206f776e6572206f7220666163746f727920616c6c6f776564000000604082015260600190565b6020808252601c908201527b1b9bdb8b5e995c9bc81859191c995cdcc81a5cc81c995c5d5a5c995960221b604082015260600190565b6020808252601390820152727472616e73616374696f6e206661696c75726560681b604082015260600190565b60208082526010908201526f18dbdb9d1c9858dd1cc81c185d5cd95960821b604082015260600190565b6020808252601b908201527a636f6f6c646f776e206d757374206578636565642035206d696e7360281b604082015260600190565b6020808252600d908201526c1a5b9d985b1a590819dd585c99609a1b604082015260600190565b6020808252601a9082015279726571756972657320617373657420746f20776974686472617760301b604082015260600190565b6020808252601490820152731a5b9d985b1a59081b195b991a5b99c81c1bdbdb60621b604082015260600190565b60006020825282516101a080602085015261562f6101c0850183614c80565b9150602085015160408501526040850151606085015260608501516156576080860182614c33565b506080850151848303601f190160a08601526156738382614c80565b92505060a085015160c085015260c085015161569260e0860182614c7a565b5060e08501516101008581019190915285015161012080860191909152850151610140808601919091528501516101608086019190915285015161018080860191909152909401519390920192909252919050565b90815260200190565b60ff91909116815260200190565b6000808335601e19843603018112615714578283fd5b8301803591506001600160401b0382111561572d578283fd5b60200191503681900382131561448057600080fd5b60008235603e19833603018112614cbe578182fd5b6040518181016001600160401b038111828210171561577257fe5b604052919050565b60006001600160401b0382111561578d57fe5b5060209081020190565b60006001600160401b038211156157aa57fe5b50601f01601f191660200190565b60005b838110156157d35781810151838201526020016157bb565b83811115612b8d5750506000910152565b6001600160a01b0381168114610f2757600080fd5b8015158114610f2757600080fdfe45524332303a207472616e7366657220746f20746865207a65726f206164647265737345524332303a206275726e20616d6f756e7420657863656564732062616c616e636545524332303a20617070726f766520746f20746865207a65726f206164647265737345524332303a207472616e7366657220616d6f756e7420657863656564732062616c616e6365496e697469616c697a61626c653a20636f6e747261637420697320616c726561647920696e697469616c697a6564536166654d6174683a206d756c7469706c69636174696f6e206f766572666c6f7745524332303a207472616e7366657220616d6f756e74206578636565647320616c6c6f77616e6365ddf252ad1be2c89b69c2b068fc378daa952ba7f163c4a11628f55a4df523b3ef45524332303a206275726e2066726f6d20746865207a65726f206164647265737345524332303a207472616e736665722066726f6d20746865207a65726f206164647265737345524332303a20617070726f76652066726f6d20746865207a65726f206164647265737345524332303a2064656372656173656420616c6c6f77616e63652062656c6f77207a65726fa264697066735822122065b07e63cfa471791a417270de407539f464836217e3758eb721ae300105961d64736f6c63430007060033",
  "linkReferences": {},
  "deployedLinkReferences": {}
}