{
  "_format": "hh-sol-artifact-1",
  "contractName": "DQUICKPriceAggregator",
  "sourceName": "contracts/priceAggregators/dQUICKPriceAggregator.sol",
  "abi": [
    {
      "inputs": [
        {
          "internalType": "address",
          "name": "_dQUICK",
          "type": "address"
        },
        {
          "internalType": "address",
          "name": "_quick",
          "type": "address"
        },
        {
          "internalType": "address",
          "name": "_factory",
          "type": "address"
        }
      ],
      "stateMutability": "nonpayable",
      "type": "constructor"
    },
    {
      "inputs": [],
      "name": "dQUICK",
      "outputs": [
        {
          "internalType": "address",
          "name": "",
          "type": "address"
        }
      ],
      "stateMutability": "view",
      "type": "function"
    },
    {
      "inputs": [],
      "name": "decimals",
      "outputs": [
        {
          "internalType": "uint8",
          "name": "",
          "type": "uint8"
        }
      ],
      "stateMutability": "pure",
      "type": "function"
    },
    {
      "inputs": [],
      "name": "factory",
      "outputs": [
        {
          "internalType": "address",
          "name": "",
          "type": "address"
        }
      ],
      "stateMutability": "view",
      "type": "function"
    },
    {
      "inputs": [],
      "name": "latestRoundData",
      "outputs": [
        {
          "internalType": "uint80",
          "name": "",
          "type": "uint80"
        },
        {
          "internalType": "int256",
          "name": "",
          "type": "int256"
        },
        {
          "internalType": "uint256",
          "name": "",
          "type": "uint256"
        },
        {
          "internalType": "uint256",
          "name": "",
          "type": "uint256"
        },
        {
          "internalType": "uint80",
          "name": "",
          "type": "uint80"
        }
      ],
      "stateMutability": "view",
      "type": "function"
    },
    {
      "inputs": [],
      "name": "quick",
      "outputs": [
        {
          "internalType": "address",
          "name": "",
          "type": "address"
        }
      ],
      "stateMutability": "view",
      "type": "function"
    }
  ],
  "bytecode": "0x608060405234801561001057600080fd5b5060405161053e38038061053e8339818101604052606081101561003357600080fd5b50805160208201516040909201519091906001600160a01b03831661009f576040805162461bcd60e51b815260206004820152601b60248201527f5f64515549434b20616464726573732063616e6e6f7420626520300000000000604482015290519081900360640190fd5b6001600160a01b0382166100fa576040805162461bcd60e51b815260206004820152601a60248201527f5f717569636b20616464726573732063616e6e6f742062652030000000000000604482015290519081900360640190fd5b6001600160a01b038116610155576040805162461bcd60e51b815260206004820152601c60248201527f5f666163746f727920616464726573732063616e6e6f74206265203000000000604482015290519081900360640190fd5b600080546001600160a01b039485166001600160a01b03199182161790915560018054938516938216939093179092556002805491909316911617905561039d806101a16000396000f3fe608060405234801561001057600080fd5b50600436106100575760003560e01c8063313ce5671461005c578063c45a01551461007a578063e70ac55f1461009e578063fdd3a879146100a6578063feaf968c146100ae575b600080fd5b6100646100fa565b6040805160ff9092168252519081900360200190f35b6100826100ff565b604080516001600160a01b039092168252519081900360200190f35b61008261010e565b61008261011d565b6100b661012c565b60405180866001600160501b03168152602001858152602001848152602001838152602001826001600160501b031681526020019550505050505060405180910390f35b600890565b6002546001600160a01b031681565b6000546001600160a01b031681565b6001546001600160a01b031681565b60008060008060008061013d6101fb565b60008054604080516315a33b5f60e31b8152670de0b6b3a76400006004820152905193945091926001600160a01b039091169163ad19daf8916024808301926020929190829003018186803b15801561019557600080fd5b505afa1580156101a9573d6000803e3d6000fd5b505050506040513d60208110156101bf57600080fd5b5051905060006101e56b204fce5e3e250261100000006101df8585610280565b906102e2565b6000999098508997504296508795509350505050565b6002546001546040805163b3596f0760e01b81526001600160a01b0392831660048201529051600093929092169163b3596f0791602480820192602092909190829003018186803b15801561024f57600080fd5b505afa158015610263573d6000803e3d6000fd5b505050506040513d602081101561027957600080fd5b5051905090565b60008261028f575060006102dc565b8282028284828161029c57fe5b04146102d95760405162461bcd60e51b81526004018080602001828103825260218152602001806103476021913960400191505060405180910390fd5b90505b92915050565b6000808211610335576040805162461bcd60e51b815260206004820152601a602482015279536166654d6174683a206469766973696f6e206279207a65726f60301b604482015290519081900360640190fd5b81838161033e57fe5b04939250505056fe536166654d6174683a206d756c7469706c69636174696f6e206f766572666c6f77a26469706673582212208527e4f8f1e1c2bac985b655a115cc39a57c79d0d736df1230412ec95a2d912164736f6c63430007060033",
  "linkReferences": {},
  "deployedLinkReferences": {}
}