{
  "_format": "hh-sol-artifact-1",
  "contractName": "AaveIncentivesControllerGuard",
  "sourceName": "contracts/guards/contractGuards/AaveIncentivesControllerGuard.sol",
  "abi": [
    {
      "inputs": [
        {
          "internalType": "address",
          "name": "_rewardToken",
          "type": "address"
        }
      ],
      "stateMutability": "nonpayable",
      "type": "constructor"
    },
    {
      "anonymous": false,
      "inputs": [
        {
          "indexed": false,
          "internalType": "address",
          "name": "fundAddress",
          "type": "address"
        },
        {
          "indexed": false,
          "internalType": "address",
          "name": "stakingContract",
          "type": "address"
        },
        {
          "indexed": false,
          "internalType": "uint256",
          "name": "time",
          "type": "uint256"
        }
      ],
      "name": "Claim",
      "type": "event"
    },
    {
      "anonymous": false,
      "inputs": [
        {
          "indexed": false,
          "internalType": "address",
          "name": "fundAddress",
          "type": "address"
        },
        {
          "indexed": false,
          "internalType": "address",
          "name": "sourceAsset",
          "type": "address"
        },
        {
          "indexed": false,
          "internalType": "uint256",
          "name": "sourceAmount",
          "type": "uint256"
        },
        {
          "indexed": false,
          "internalType": "address",
          "name": "dstAsset",
          "type": "address"
        },
        {
          "indexed": false,
          "internalType": "uint256",
          "name": "time",
          "type": "uint256"
        }
      ],
      "name": "ExchangeFrom",
      "type": "event"
    },
    {
      "anonymous": false,
      "inputs": [
        {
          "indexed": false,
          "internalType": "address",
          "name": "fundAddress",
          "type": "address"
        },
        {
          "indexed": false,
          "internalType": "address",
          "name": "sourceAsset",
          "type": "address"
        },
        {
          "indexed": false,
          "internalType": "address",
          "name": "dstAsset",
          "type": "address"
        },
        {
          "indexed": false,
          "internalType": "uint256",
          "name": "dstAmount",
          "type": "uint256"
        },
        {
          "indexed": false,
          "internalType": "uint256",
          "name": "time",
          "type": "uint256"
        }
      ],
      "name": "ExchangeTo",
      "type": "event"
    },
    {
      "inputs": [
        {
          "internalType": "bytes32",
          "name": "data",
          "type": "bytes32"
        }
      ],
      "name": "convert32toAddress",
      "outputs": [
        {
          "internalType": "address",
          "name": "o",
          "type": "address"
        }
      ],
      "stateMutability": "pure",
      "type": "function"
    },
    {
      "inputs": [
        {
          "internalType": "bytes",
          "name": "data",
          "type": "bytes"
        },
        {
          "internalType": "uint8",
          "name": "inputNum",
          "type": "uint8"
        },
        {
          "internalType": "uint8",
          "name": "arrayIndex",
          "type": "uint8"
        }
      ],
      "name": "getArrayIndex",
      "outputs": [
        {
          "internalType": "bytes32",
          "name": "",
          "type": "bytes32"
        }
      ],
      "stateMutability": "pure",
      "type": "function"
    },
    {
      "inputs": [
        {
          "internalType": "bytes",
          "name": "data",
          "type": "bytes"
        },
        {
          "internalType": "uint8",
          "name": "inputNum",
          "type": "uint8"
        }
      ],
      "name": "getArrayLast",
      "outputs": [
        {
          "internalType": "bytes32",
          "name": "",
          "type": "bytes32"
        }
      ],
      "stateMutability": "pure",
      "type": "function"
    },
    {
      "inputs": [
        {
          "internalType": "bytes",
          "name": "data",
          "type": "bytes"
        },
        {
          "internalType": "uint8",
          "name": "inputNum",
          "type": "uint8"
        }
      ],
      "name": "getArrayLength",
      "outputs": [
        {
          "internalType": "uint256",
          "name": "",
          "type": "uint256"
        }
      ],
      "stateMutability": "pure",
      "type": "function"
    },
    {
      "inputs": [
        {
          "internalType": "bytes",
          "name": "data",
          "type": "bytes"
        },
        {
          "internalType": "uint8",
          "name": "inputNum",
          "type": "uint8"
        },
        {
          "internalType": "uint256",
          "name": "offset",
          "type": "uint256"
        }
      ],
      "name": "getBytes",
      "outputs": [
        {
          "internalType": "bytes",
          "name": "",
          "type": "bytes"
        }
      ],
      "stateMutability": "pure",
      "type": "function"
    },
    {
      "inputs": [
        {
          "internalType": "bytes",
          "name": "data",
          "type": "bytes"
        },
        {
          "internalType": "uint8",
          "name": "inputNum",
          "type": "uint8"
        }
      ],
      "name": "getInput",
      "outputs": [
        {
          "internalType": "bytes32",
          "name": "",
          "type": "bytes32"
        }
      ],
      "stateMutability": "pure",
      "type": "function"
    },
    {
      "inputs": [
        {
          "internalType": "bytes",
          "name": "data",
          "type": "bytes"
        }
      ],
      "name": "getMethod",
      "outputs": [
        {
          "internalType": "bytes4",
          "name": "",
          "type": "bytes4"
        }
      ],
      "stateMutability": "pure",
      "type": "function"
    },
    {
      "inputs": [
        {
          "internalType": "bytes",
          "name": "data",
          "type": "bytes"
        }
      ],
      "name": "getParams",
      "outputs": [
        {
          "internalType": "bytes",
          "name": "",
          "type": "bytes"
        }
      ],
      "stateMutability": "pure",
      "type": "function"
    },
    {
      "inputs": [
        {
          "internalType": "bytes",
          "name": "data",
          "type": "bytes"
        },
        {
          "internalType": "uint256",
          "name": "offset",
          "type": "uint256"
        },
        {
          "internalType": "uint256",
          "name": "length",
          "type": "uint256"
        }
      ],
      "name": "read32",
      "outputs": [
        {
          "internalType": "bytes32",
          "name": "o",
          "type": "bytes32"
        }
      ],
      "stateMutability": "pure",
      "type": "function"
    },
    {
      "inputs": [
        {
          "internalType": "bytes",
          "name": "data",
          "type": "bytes"
        },
        {
          "internalType": "uint256",
          "name": "offset",
          "type": "uint256"
        }
      ],
      "name": "read4left",
      "outputs": [
        {
          "internalType": "bytes4",
          "name": "o",
          "type": "bytes4"
        }
      ],
      "stateMutability": "pure",
      "type": "function"
    },
    {
      "inputs": [],
      "name": "rewardToken",
      "outputs": [
        {
          "internalType": "address",
          "name": "",
          "type": "address"
        }
      ],
      "stateMutability": "view",
      "type": "function"
    },
    {
      "inputs": [
        {
          "internalType": "address",
          "name": "_poolManagerLogic",
          "type": "address"
        },
        {
          "internalType": "address",
          "name": "to",
          "type": "address"
        },
        {
          "internalType": "bytes",
          "name": "data",
          "type": "bytes"
        }
      ],
      "name": "txGuard",
      "outputs": [
        {
          "internalType": "uint16",
          "name": "txType",
          "type": "uint16"
        },
        {
          "internalType": "bool",
          "name": "isPublic",
          "type": "bool"
        }
      ],
      "stateMutability": "nonpayable",
      "type": "function"
    }
  ],
  "bytecode": "0x608060405234801561001057600080fd5b50604051610dfa380380610dfa83398101604081905261002f91610054565b600080546001600160a01b0319166001600160a01b0392909216919091179055610082565b600060208284031215610065578081fd5b81516001600160a01b038116811461007b578182fd5b9392505050565b610d69806100916000396000f3fe608060405234801561001057600080fd5b50600436106100a45760003560e01c806309ff5c7d146100a95780631053f952146100d25780631eba3077146100f2578063293d80631461011257806341dc16c3146101325780636179309d14610145578063689015131461016657806382f86acc14610179578063998546e31461018c578063c3c6279f1461019f578063db896b57146101b2578063f7c618c1146101c5575b600080fd5b6100bc6100b7366004610b01565b6101cd565b6040516100c99190610c33565b60405180910390f35b6100e56100e0366004610b4c565b61025e565b6040516100c99190610c51565b610105610100366004610a2a565b6102f6565b6040516100c99190610bfb565b610125610120366004610a74565b6102fd565b6040516100c99190610c3c565b6100bc610140366004610ba0565b61035f565b61015861015336600461097e565b61043d565b6040516100c9929190610d05565b6100e5610174366004610a42565b610681565b6100bc610187366004610b01565b6106a2565b6100bc61019a366004610b01565b6106c0565b6101256101ad366004610a42565b6106f1565b6100bc6101c0366004610ab6565b6106fe565b61010561077d565b6000806101e5848460200260040160ff1660206106fe565b905060006101f8856004840160206106fe565b905080610241576040805162461bcd60e51b8152602060048201526012602482015271696e707574206973206e6f7420617272617960701b604482015290519081900360640190fd5b6102558560208084028501600401906106fe565b95945050505050565b6060601482106102a6576040805162461bcd60e51b815260206004820152600e60248201526d1a5b9d985b1a59081bd9999cd95d60921b604482015290519081900360640190fd5b81602002915060006102c585848660200260040160ff160160206106fe565b905060006102da8685840160040160206106fe565b90506102ec866024848701018361078c565b9695505050505050565b805b919050565b60008160040183511015610356576040805162461bcd60e51b815260206004820152601b60248201527a52656164696e67206279746573206f7574206f6620626f756e647360281b604482015290519081900360640190fd5b50016020015190565b600080610377858560200260040160ff1660206106fe565b9050600061038a866004840160206106fe565b9050806103d3576040805162461bcd60e51b8152602060048201526012602482015271696e707574206973206e6f7420617272617960701b604482015290519081900360640190fd5b60ff84168111610423576040805162461bcd60e51b815260206004820152601660248201527534b73b30b634b21030b93930bc903837b9b4ba34b7b760511b604482015290519081900360640190fd5b6102ec866020600160ff88160181028501600401906106fe565b600080600061048185858080601f0160208091040260200160405190810160405280939291908181526020018383808284376000920191909152506106f192505050565b90506000876001600160a01b03166339b81fd96040518163ffffffff1660e01b815260040160206040518083038186803b1580156104be57600080fd5b505afa1580156104d2573d6000803e3d6000fd5b505050506040513d601f19601f820116820180604052508101906104f69190610962565b90506001600160e01b03198216633111e7b360e01b141561067657600061055861010088888080601f016020809104026020016040519081016040528093929190818152602001838380828437600092019190915250600292506106a2915050565b600054604051634df48c7360e11b81529192506001600160a01b03808c1692639be918e69261058b921690600401610bfb565b60206040518083038186803b1580156105a357600080fd5b505afa1580156105b7573d6000803e3d6000fd5b505050506040513d601f19601f820116820180604052508101906105db9190610a0a565b6106005760405162461bcd60e51b81526004016105f790610cd3565b60405180910390fd5b816001600160a01b0316816001600160a01b0316146106315760405162461bcd60e51b81526004016105f790610ca4565b7f70eb43c4a8ae8c40502dcf22436c509c28d6ff421cf07c491be56984bd98706882894260405161066493929190610c0f565b60405180910390a16007945060019350505b505094509492505050565b606061069c6004808451038461078c9092919063ffffffff16565b92915050565b60006106b9838360200260040160ff1660206106fe565b9392505050565b6000806106d8848460200260040160ff1660206106fe565b90506106e9846004830160206106fe565b949350505050565b600061069c8260006102fd565b600081830184511015610756576040805162461bcd60e51b815260206004820152601b60248201527a52656164696e67206279746573206f7574206f6620626f756e647360281b604482015290519081900360640190fd5b826020018401519050816020038015610775576008810260020a820491505b509392505050565b6000546001600160a01b031681565b60608182601f0110156107d7576040805162461bcd60e51b815260206004820152600e60248201526d736c6963655f6f766572666c6f7760901b604482015290519081900360640190fd5b82828401101561081f576040805162461bcd60e51b815260206004820152600e60248201526d736c6963655f6f766572666c6f7760901b604482015290519081900360640190fd5b8183018451101561086b576040805162461bcd60e51b8152602060048201526011602482015270736c6963655f6f75744f66426f756e647360781b604482015290519081900360640190fd5b60608215801561088a57604051915060008252602082016040526108d4565b6040519150601f8416801560200281840101858101878315602002848b0101015b818310156108c35780518352602092830192016108ab565b5050858452601f01601f1916604052505b50949350505050565b600082601f8301126108ed578081fd5b81356001600160401b038082111561090157fe5b604051601f8301601f19168101602001828111828210171561091f57fe5b604052828152848301602001861015610936578384fd5b82602086016020830137918201602001929092529392505050565b803560ff811681146102f857600080fd5b600060208284031215610973578081fd5b81516106b981610d1b565b60008060008060608587031215610993578283fd5b843561099e81610d1b565b935060208501356109ae81610d1b565b925060408501356001600160401b03808211156109c9578384fd5b818701915087601f8301126109dc578384fd5b8135818111156109ea578485fd5b8860208285010111156109fb578485fd5b95989497505060200194505050565b600060208284031215610a1b578081fd5b815180151581146106b9578182fd5b600060208284031215610a3b578081fd5b5035919050565b600060208284031215610a53578081fd5b81356001600160401b03811115610a68578182fd5b6106e9848285016108dd565b60008060408385031215610a86578182fd5b82356001600160401b03811115610a9b578283fd5b610aa7858286016108dd565b95602094909401359450505050565b600080600060608486031215610aca578283fd5b83356001600160401b03811115610adf578384fd5b610aeb868287016108dd565b9660208601359650604090950135949350505050565b60008060408385031215610b13578182fd5b82356001600160401b03811115610b28578283fd5b610b34858286016108dd565b925050610b4360208401610951565b90509250929050565b600080600060608486031215610b60578283fd5b83356001600160401b03811115610b75578384fd5b610b81868287016108dd565b935050610b9060208501610951565b9150604084013590509250925092565b600080600060608486031215610bb4578283fd5b83356001600160401b03811115610bc9578384fd5b610bd5868287016108dd565b935050610be460208501610951565b9150610bf260408501610951565b90509250925092565b6001600160a01b0391909116815260200190565b6001600160a01b039384168152919092166020820152604081019190915260600190565b90815260200190565b6001600160e01b031991909116815260200190565b6000602080835283518082850152825b81811015610c7d57858101830151858201604001528201610c61565b81811115610c8e5783604083870101525b50601f01601f1916929092016040019392505050565b6020808252601590820152741c9958da5c1a595b9d081a5cc81b9bdd081c1bdbdb605a1b604082015260600190565b6020808252601890820152771d5b9cdd5c1c1bdc9d1959081c995dd85c9908185cdcd95d60421b604082015260600190565b61ffff9290921682521515602082015260400190565b6001600160a01b0381168114610d3057600080fd5b5056fea2646970667358221220710fdb9c325899e7e3019003c1b5d2915c27b08e6705267ffcafc7cc7c4c675b64736f6c63430007060033",
  "linkReferences": {},
  "deployedLinkReferences": {}
}