{
  "_format": "hh-sol-artifact-1",
  "contractName": "MaiVaultAssetGuard",
  "sourceName": "contracts/guards/assetGuards/mai/MaiVaultAssetGuard.sol",
  "abi": [
    {
      "inputs": [
        {
          "internalType": "address",
          "name": "_usdc",
          "type": "address"
        },
        {
          "internalType": "address",
          "name": "_aaveLendingPoolV3",
          "type": "address"
        }
      ],
      "stateMutability": "nonpayable",
      "type": "constructor"
    },
    {
      "anonymous": false,
      "inputs": [
        {
          "indexed": false,
          "internalType": "address",
          "name": "fundAddress",
          "type": "address"
        },
        {
          "indexed": false,
          "internalType": "address",
          "name": "sourceAsset",
          "type": "address"
        },
        {
          "indexed": false,
          "internalType": "uint256",
          "name": "sourceAmount",
          "type": "uint256"
        },
        {
          "indexed": false,
          "internalType": "address",
          "name": "dstAsset",
          "type": "address"
        },
        {
          "indexed": false,
          "internalType": "uint256",
          "name": "time",
          "type": "uint256"
        }
      ],
      "name": "ExchangeFrom",
      "type": "event"
    },
    {
      "anonymous": false,
      "inputs": [
        {
          "indexed": false,
          "internalType": "address",
          "name": "fundAddress",
          "type": "address"
        },
        {
          "indexed": false,
          "internalType": "address",
          "name": "sourceAsset",
          "type": "address"
        },
        {
          "indexed": false,
          "internalType": "address",
          "name": "dstAsset",
          "type": "address"
        },
        {
          "indexed": false,
          "internalType": "uint256",
          "name": "dstAmount",
          "type": "uint256"
        },
        {
          "indexed": false,
          "internalType": "uint256",
          "name": "time",
          "type": "uint256"
        }
      ],
      "name": "ExchangeTo",
      "type": "event"
    },
    {
      "inputs": [],
      "name": "PROMOTER_ID",
      "outputs": [
        {
          "internalType": "uint256",
          "name": "",
          "type": "uint256"
        }
      ],
      "stateMutability": "view",
      "type": "function"
    },
    {
      "inputs": [],
      "name": "aaveLendingPool",
      "outputs": [
        {
          "internalType": "contract IAaveV3Pool",
          "name": "",
          "type": "address"
        }
      ],
      "stateMutability": "view",
      "type": "function"
    },
    {
      "inputs": [
        {
          "internalType": "bytes32",
          "name": "data",
          "type": "bytes32"
        }
      ],
      "name": "convert32toAddress",
      "outputs": [
        {
          "internalType": "address",
          "name": "o",
          "type": "address"
        }
      ],
      "stateMutability": "pure",
      "type": "function"
    },
    {
      "inputs": [
        {
          "internalType": "address",
          "name": "",
          "type": "address"
        },
        {
          "internalType": "uint256",
          "name": "usdcAmount",
          "type": "uint256"
        },
        {
          "internalType": "uint256",
          "name": "premium",
          "type": "uint256"
        },
        {
          "internalType": "address",
          "name": "initiator",
          "type": "address"
        },
        {
          "internalType": "bytes",
          "name": "params",
          "type": "bytes"
        }
      ],
      "name": "executeOperation",
      "outputs": [
        {
          "internalType": "bool",
          "name": "",
          "type": "bool"
        }
      ],
      "stateMutability": "nonpayable",
      "type": "function"
    },
    {
      "inputs": [
        {
          "internalType": "bytes",
          "name": "data",
          "type": "bytes"
        },
        {
          "internalType": "uint8",
          "name": "inputNum",
          "type": "uint8"
        },
        {
          "internalType": "uint8",
          "name": "arrayIndex",
          "type": "uint8"
        }
      ],
      "name": "getArrayIndex",
      "outputs": [
        {
          "internalType": "bytes32",
          "name": "",
          "type": "bytes32"
        }
      ],
      "stateMutability": "pure",
      "type": "function"
    },
    {
      "inputs": [
        {
          "internalType": "bytes",
          "name": "data",
          "type": "bytes"
        },
        {
          "internalType": "uint8",
          "name": "inputNum",
          "type": "uint8"
        }
      ],
      "name": "getArrayLast",
      "outputs": [
        {
          "internalType": "bytes32",
          "name": "",
          "type": "bytes32"
        }
      ],
      "stateMutability": "pure",
      "type": "function"
    },
    {
      "inputs": [
        {
          "internalType": "bytes",
          "name": "data",
          "type": "bytes"
        },
        {
          "internalType": "uint8",
          "name": "inputNum",
          "type": "uint8"
        }
      ],
      "name": "getArrayLength",
      "outputs": [
        {
          "internalType": "uint256",
          "name": "",
          "type": "uint256"
        }
      ],
      "stateMutability": "pure",
      "type": "function"
    },
    {
      "inputs": [
        {
          "internalType": "address",
          "name": "pool",
          "type": "address"
        },
        {
          "internalType": "address",
          "name": "asset",
          "type": "address"
        }
      ],
      "name": "getBalance",
      "outputs": [
        {
          "internalType": "uint256",
          "name": "balance",
          "type": "uint256"
        }
      ],
      "stateMutability": "view",
      "type": "function"
    },
    {
      "inputs": [
        {
          "internalType": "bytes",
          "name": "data",
          "type": "bytes"
        },
        {
          "internalType": "uint8",
          "name": "inputNum",
          "type": "uint8"
        },
        {
          "internalType": "uint256",
          "name": "offset",
          "type": "uint256"
        }
      ],
      "name": "getBytes",
      "outputs": [
        {
          "internalType": "bytes",
          "name": "",
          "type": "bytes"
        }
      ],
      "stateMutability": "pure",
      "type": "function"
    },
    {
      "inputs": [
        {
          "internalType": "address",
          "name": "",
          "type": "address"
        }
      ],
      "name": "getDecimals",
      "outputs": [
        {
          "internalType": "uint256",
          "name": "decimals",
          "type": "uint256"
        }
      ],
      "stateMutability": "pure",
      "type": "function"
    },
    {
      "inputs": [
        {
          "internalType": "bytes",
          "name": "data",
          "type": "bytes"
        },
        {
          "internalType": "uint8",
          "name": "inputNum",
          "type": "uint8"
        }
      ],
      "name": "getInput",
      "outputs": [
        {
          "internalType": "bytes32",
          "name": "",
          "type": "bytes32"
        }
      ],
      "stateMutability": "pure",
      "type": "function"
    },
    {
      "inputs": [
        {
          "internalType": "bytes",
          "name": "data",
          "type": "bytes"
        }
      ],
      "name": "getMethod",
      "outputs": [
        {
          "internalType": "bytes4",
          "name": "",
          "type": "bytes4"
        }
      ],
      "stateMutability": "pure",
      "type": "function"
    },
    {
      "inputs": [
        {
          "internalType": "bytes",
          "name": "data",
          "type": "bytes"
        }
      ],
      "name": "getParams",
      "outputs": [
        {
          "internalType": "bytes",
          "name": "",
          "type": "bytes"
        }
      ],
      "stateMutability": "pure",
      "type": "function"
    },
    {
      "inputs": [
        {
          "internalType": "address",
          "name": "vault",
          "type": "address"
        },
        {
          "internalType": "uint256",
          "name": "vaultId",
          "type": "uint256"
        },
        {
          "internalType": "uint256",
          "name": "portion",
          "type": "uint256"
        },
        {
          "internalType": "address",
          "name": "withdrawer",
          "type": "address"
        }
      ],
      "name": "processWithdrawAndReturn",
      "outputs": [],
      "stateMutability": "nonpayable",
      "type": "function"
    },
    {
      "inputs": [
        {
          "internalType": "bytes",
          "name": "data",
          "type": "bytes"
        },
        {
          "internalType": "uint256",
          "name": "offset",
          "type": "uint256"
        },
        {
          "internalType": "uint256",
          "name": "length",
          "type": "uint256"
        }
      ],
      "name": "read32",
      "outputs": [
        {
          "internalType": "bytes32",
          "name": "o",
          "type": "bytes32"
        }
      ],
      "stateMutability": "pure",
      "type": "function"
    },
    {
      "inputs": [
        {
          "internalType": "bytes",
          "name": "data",
          "type": "bytes"
        },
        {
          "internalType": "uint256",
          "name": "offset",
          "type": "uint256"
        }
      ],
      "name": "read4left",
      "outputs": [
        {
          "internalType": "bytes4",
          "name": "o",
          "type": "bytes4"
        }
      ],
      "stateMutability": "pure",
      "type": "function"
    },
    {
      "inputs": [
        {
          "internalType": "address",
          "name": "pool",
          "type": "address"
        },
        {
          "internalType": "address",
          "name": "asset",
          "type": "address"
        }
      ],
      "name": "removeAssetCheck",
      "outputs": [],
      "stateMutability": "view",
      "type": "function"
    },
    {
      "inputs": [
        {
          "internalType": "address",
          "name": "",
          "type": "address"
        },
        {
          "internalType": "address",
          "name": "",
          "type": "address"
        },
        {
          "internalType": "bytes",
          "name": "",
          "type": "bytes"
        }
      ],
      "name": "txGuard",
      "outputs": [
        {
          "internalType": "uint16",
          "name": "txType",
          "type": "uint16"
        },
        {
          "internalType": "bool",
          "name": "",
          "type": "bool"
        }
      ],
      "stateMutability": "pure",
      "type": "function"
    },
    {
      "inputs": [],
      "name": "usdc",
      "outputs": [
        {
          "internalType": "address",
          "name": "",
          "type": "address"
        }
      ],
      "stateMutability": "view",
      "type": "function"
    },
    {
      "inputs": [
        {
          "internalType": "address",
          "name": "pool",
          "type": "address"
        },
        {
          "internalType": "address",
          "name": "asset",
          "type": "address"
        },
        {
          "internalType": "uint256",
          "name": "portion",
          "type": "uint256"
        },
        {
          "internalType": "address",
          "name": "withdrawerAddress",
          "type": "address"
        }
      ],
      "name": "withdrawProcessing",
      "outputs": [
        {
          "internalType": "address",
          "name": "withdrawAsset",
          "type": "address"
        },
        {
          "internalType": "uint256",
          "name": "withdrawBalance",
          "type": "uint256"
        },
        {
          "components": [
            {
              "internalType": "address",
              "name": "to",
              "type": "address"
            },
            {
              "internalType": "bytes",
              "name": "txData",
              "type": "bytes"
            }
          ],
          "internalType": "struct IAssetGuard.MultiTransaction[]",
          "name": "transactions",
          "type": "tuple[]"
        }
      ],
      "stateMutability": "view",
      "type": "function"
    }
  ],
  "bytecode": "0x60c06040523480156200001157600080fd5b50604051620030d4380380620030d4833981016040819052620000349162000070565b6001600160601b0319606092831b8116608052911b1660a052620000a7565b80516001600160a01b03811681146200006b57600080fd5b919050565b6000806040838503121562000083578182fd5b6200008e8362000053565b91506200009e6020840162000053565b90509250929050565b60805160601c60a05160601c612fdb620000f960003980610e5b5280611af95250806107395280610e8a5280610fe752806111585280611c8f5280611d0e5280611f5d52806120d75250612fdb6000f3fe608060405234801561001057600080fd5b50600436106100fc5760003560e01c806309ff5c7d146101015780631053f9521461012a5780631b11d0ff1461014a5780631eba30771461016a578063293d80631461018a578063347859a8146101aa5780633e413bee146101bf57806341dc16c3146101c757806357c30609146101da5780636179309d146101e257806368901513146102035780636d5fae54146102165780636f8ae2021461022957806382f86acc1461024b578063998546e31461025e578063c3c6279f14610271578063cf54aaa014610284578063d4fac45d14610297578063db896b57146102aa578063e9d337b8146102bd575b600080fd5b61011461010f366004612a4b565b6102c5565b6040516101219190612ddd565b60405180910390f35b61013d610138366004612a96565b610358565b6040516101219190612dfb565b61015d61015836600461283b565b6103f0565b6040516101219190612dd2565b61017d610178366004612974565b6107d3565b6040516101219190612c65565b61019d6101983660046129be565b6107da565b6040516101219190612de6565b6101bd6101b83660046127fd565b61083c565b005b61017d611156565b6101146101d5366004612aea565b61117a565b610114611258565b6101f56101f0366004612749565b61125d565b604051610121929190612ed3565b61013d61021136600461298c565b611269565b6101bd610224366004612711565b611284565b61023c6102373660046127ab565b6112b5565b60405161012193929190612d19565b610114610259366004612a4b565b6115f2565b61011461026c366004612a4b565b611610565b61019d61027f36600461298c565b611641565b6101146102923660046126d9565b61164e565b6101146102a5366004612711565b611654565b6101146102b8366004612a00565b611a78565b61017d611af7565b6000806102dd848460200260040160ff166020611a78565b905060006102f085600484016020611a78565b905080610339576040805162461bcd60e51b8152602060048201526012602482015271696e707574206973206e6f7420617272617960701b604482015290519081900360640190fd5b61034d856020808402850160040190611a78565b925050505b92915050565b6060601482106103a0576040805162461bcd60e51b815260206004820152600e60248201526d1a5b9d985b1a59081bd9999cd95d60921b604482015290519081900360640190fd5b81602002915060006103bf85848660200260040160ff16016020611a78565b905060006103d4868584016004016020611a78565b90506103e68660248487010183611b1b565b9695505050505050565b60006001600160a01b03841630146104235760405162461bcd60e51b815260040161041a90612e45565b60405180910390fd5b600061043183850185612b45565b90506000816020015190506104c08260000151826001600160a01b031663570b2b846040518163ffffffff1660e01b815260040160206040518083038186803b15801561047d57600080fd5b505afa158015610491573d6000803e3d6000fd5b505050506040513d601f19601f820116820180604052508101906104b591906126f5565b84608001518b611c6c565b806001600160a01b031663570b2b846040518163ffffffff1660e01b815260040160206040518083038186803b1580156104f957600080fd5b505afa15801561050d573d6000803e3d6000fd5b505050506040513d601f19601f8201168201806040525081019061053191906126f5565b6001600160a01b031663095ea7b38284608001516040518363ffffffff1660e01b8152600401610562929190612d00565b602060405180830381600087803b15801561057c57600080fd5b505af1158015610590573d6000803e3d6000fd5b505050506040513d601f19601f820116820180604052508101906105b49190612954565b50806001600160a01b0316633128ef278360400151846080015160006040518463ffffffff1660e01b81526004016105ee93929190612f33565b600060405180830381600087803b15801561060857600080fd5b505af115801561061c573d6000803e3d6000fd5b5050506040808401516060850151915163767a7b0560e01b81526001600160a01b038516935063767a7b05926106559291600401612f25565b600060405180830381600087803b15801561066f57600080fd5b505af1158015610683573d6000803e3d6000fd5b50505050600061069c888a61202e90919063ffffffff16565b90506107228360000151836001600160a01b031663d8dfeb456040518163ffffffff1660e01b815260040160206040518083038186803b1580156106df57600080fd5b505afa1580156106f3573d6000803e3d6000fd5b505050506040513d601f19601f8201168201806040525081019061071791906126f5565b856060015184612086565b60405163095ea7b360e01b81526001600160a01b037f0000000000000000000000000000000000000000000000000000000000000000169063095ea7b3906107709033908590600401612d00565b602060405180830381600087803b15801561078a57600080fd5b505af115801561079e573d6000803e3d6000fd5b505050506040513d601f19601f820116820180604052508101906107c29190612954565b5060019a9950505050505050505050565b805b919050565b60008160040183511015610833576040805162461bcd60e51b815260206004820152601b60248201527a52656164696e67206279746573206f7574206f6620626f756e647360281b604482015290519081900360640190fd5b50016020015190565b6000336001600160a01b031663c45a01556040518163ffffffff1660e01b815260040160206040518083038186803b15801561087757600080fd5b505afa15801561088b573d6000803e3d6000fd5b505050506040513d601f19601f820116820180604052508101906108af91906126f5565b6040516349f723b560e11b815290915085906000906001600160a01b038316906393ee476a906108e3908990600401612ddd565b602060405180830381600087803b1580156108fd57600080fd5b505af1158015610911573d6000803e3d6000fd5b505050506040513d601f19601f820116820180604052508101906109359190612bbf565b90506000826001600160a01b031663d4a9b2c5886040518263ffffffff1660e01b81526004016109659190612ddd565b60206040518083038186803b15801561097d57600080fd5b505afa158015610991573d6000803e3d6000fd5b505050506040513d601f19601f820116820180604052508101906109b59190612bbf565b905060006109d5670de0b6b3a76400006109cf858a612227565b90612280565b90506000610a6b670de0b6b3a76400006109cf8a886001600160a01b031663d4a9b2c58e6040518263ffffffff1660e01b8152600401610a159190612ddd565b60206040518083038186803b158015610a2d57600080fd5b505afa158015610a41573d6000803e3d6000fd5b505050506040513d601f19601f82011682018060405250810190610a659190612bbf565b90612227565b90506000866001600160a01b03166321f8a7216040518163ffffffff1660e01b8152600401610a9990612e7a565b60206040518083038186803b158015610ab157600080fd5b505afa158015610ac5573d6000803e3d6000fd5b505050506040513d601f19601f82011682018060405250810190610ae991906126f5565b905083156110e7578215610ef3576000866001600160a01b0316635357b989886001600160a01b0316631c883e7b6040518163ffffffff1660e01b815260040160206040518083038186803b158015610b4157600080fd5b505afa158015610b55573d6000803e3d6000fd5b505050506040513d601f19601f82011682018060405250810190610b799190612bbf565b6040516335cd193360e21b815289906001600160a01b038c169063d73464cc90610ba890600090600401612ddd565b60206040518083038186803b158015610bc057600080fd5b505afa158015610bd4573d6000803e3d6000fd5b505050506040513d601f19601f82011682018060405250810190610bf89190612bbf565b6040518463ffffffff1660e01b8152600401610c1693929190612f33565b60206040518083038186803b158015610c2e57600080fd5b505afa158015610c42573d6000803e3d6000fd5b505050506040513d601f19601f82011682018060405250810190610c669190612bbf565b9050610c7283826122e4565b92506000610de760646109cf6067610a6564e8d4a51000336001600160a01b0316631e50a4a66040518163ffffffff1660e01b815260040160206040518083038186803b158015610cc257600080fd5b505afa158015610cd6573d6000803e3d6000fd5b505050506040513d601f19601f82011682018060405250810190610cfa91906126f5565b6001600160a01b03166329c07fba8f6001600160a01b031663570b2b846040518163ffffffff1660e01b815260040160206040518083038186803b158015610d4157600080fd5b505afa158015610d55573d6000803e3d6000fd5b505050506040513d601f19601f82011682018060405250810190610d7991906126f5565b8d6040518363ffffffff1660e01b8152600401610d97929190612d00565b60206040518083038186803b158015610daf57600080fd5b505afa158015610dc3573d6000803e3d6000fd5b505050506040513d601f19601f820116820180604052508101906109cf9190612bbf565b905060006040518060a00160405280856001600160a01b031681526020018f6001600160a01b031681526020018e815260200186815260200187815250604051602001610e349190612e90565b60408051601f19818403018152908290526310ac2ddf60e21b825291506001600160a01b037f000000000000000000000000000000000000000000000000000000000000000016906342b0b77c90610eb99030907f00000000000000000000000000000000000000000000000000000000000000009087908790600090600401612cb7565b600060405180830381600087803b158015610ed357600080fd5b505af1158015610ee7573d6000803e3d6000fd5b50505050505050610fd0565b60405163767a7b0560e01b81526001600160a01b0387169063767a7b0590610f21908d908690600401612f25565b600060405180830381600087803b158015610f3b57600080fd5b505af1158015610f4f573d6000803e3d6000fd5b50505050610fd081876001600160a01b031663d8dfeb456040518163ffffffff1660e01b815260040160206040518083038186803b158015610f9057600080fd5b505afa158015610fa4573d6000803e3d6000fd5b505050506040513d601f19601f82011682018060405250810190610fc891906126f5565b846000612086565b6040516370a0823160e01b81526001600160a01b037f0000000000000000000000000000000000000000000000000000000000000000169063a9059cbb908a9083906370a0823190611026903090600401612c65565b60206040518083038186803b15801561103e57600080fd5b505afa158015611052573d6000803e3d6000fd5b505050506040513d601f19601f820116820180604052508101906110769190612bbf565b6040518363ffffffff1660e01b8152600401611093929190612d00565b602060405180830381600087803b1580156110ad57600080fd5b505af11580156110c1573d6000803e3d6000fd5b505050506040513d601f19601f820116820180604052508101906110e59190612954565b505b6040516323b872dd60e01b81526001600160a01b038716906323b872dd9061111790309033908f90600401612c93565b600060405180830381600087803b15801561113157600080fd5b505af1158015611145573d6000803e3d6000fd5b505050505050505050505050505050565b7f000000000000000000000000000000000000000000000000000000000000000081565b600080611192858560200260040160ff166020611a78565b905060006111a586600484016020611a78565b9050806111ee576040805162461bcd60e51b8152602060048201526012602482015271696e707574206973206e6f7420617272617960701b604482015290519081900360640190fd5b60ff8416811161123e576040805162461bcd60e51b815260206004820152601660248201527534b73b30b634b21030b93930bc903837b9b4ba34b7b760511b604482015290519081900360640190fd5b6103e6866020600160ff8816018102850160040190611a78565b600081565b60008094509492505050565b606061035260048084510384611b1b9092919063ffffffff16565b60006112908383611654565b905080156112b05760405162461bcd60e51b815260040161041a90612e0e565b505050565b60008060606000876001600160a01b031663c45a01556040518163ffffffff1660e01b815260040160206040518083038186803b1580156112f557600080fd5b505afa158015611309573d6000803e3d6000fd5b505050506040513d601f19601f8201168201806040525081019061132d91906126f5565b6001600160a01b0316634f8419b9886040518263ffffffff1660e01b81526004016113589190612c65565b60206040518083038186803b15801561137057600080fd5b505afa158015611384573d6000803e3d6000fd5b505050506040513d601f19601f820116820180604052508101906113a891906126f5565b90506000816001600160a01b031663c69520138a8a6040518363ffffffff1660e01b81526004016113da929190612c79565b60006040518083038186803b1580156113f257600080fd5b505afa158015611406573d6000803e3d6000fd5b505050506040513d6000823e601f3d908101601f1916820160405261142e91908101906128b4565b905080516002026001600160401b038111801561144a57600080fd5b5060405190808252806020026020018201604052801561148457816020015b611471612606565b8152602001906001900390816114695790505b5092506000805b82518110156115e45760008382815181106114a257fe5b602002602001015190508a8684815181106114b957fe5b60209081029190910101516001600160a01b0390911690526040516323b872dd60e01b906114ef908e9030908590602401612c93565b604051602081830303815290604052906001600160e01b0319166020820180516001600160e01b03838183161783525050505086848151811061152e57fe5b60200260200101516020018190525082806001019350503086848151811061155257fe5b60209081029190910101516001600160a01b03909116905260405163068f0b3560e31b9061158a908d9084908e908e90602401612da7565b604051602081830303815290604052906001600160e01b0319166020820180516001600160e01b0383818316178352505050508684815181106115c957fe5b6020908102919091018101510152506001918201910161148b565b505050509450945094915050565b6000611609838360200260040160ff166020611a78565b9392505050565b600080611628848460200260040160ff166020611a78565b905061163984600483016020611a78565b949350505050565b60006103528260006107da565b50601290565b600080836001600160a01b0316631e50a4a66040518163ffffffff1660e01b815260040160206040518083038186803b15801561169057600080fd5b505afa1580156116a4573d6000803e3d6000fd5b505050506040513d601f19601f820116820180604052508101906116c891906126f5565b90506000806116d78686612341565b9150915060008590506000816001600160a01b0316635357b989836001600160a01b0316631c883e7b6040518163ffffffff1660e01b815260040160206040518083038186803b15801561172a57600080fd5b505afa15801561173e573d6000803e3d6000fd5b505050506040513d601f19601f820116820180604052508101906117629190612bbf565b6040516335cd193360e21b815286906001600160a01b0387169063d73464cc9061179190600090600401612ddd565b60206040518083038186803b1580156117a957600080fd5b505afa1580156117bd573d6000803e3d6000fd5b505050506040513d601f19601f820116820180604052508101906117e19190612bbf565b6040518463ffffffff1660e01b81526004016117ff93929190612f33565b60206040518083038186803b15801561181757600080fd5b505afa15801561182b573d6000803e3d6000fd5b505050506040513d601f19601f8201168201806040525081019061184f9190612bbf565b90506000856001600160a01b03166329c07fba846001600160a01b031663d8dfeb456040518163ffffffff1660e01b815260040160206040518083038186803b15801561189b57600080fd5b505afa1580156118af573d6000803e3d6000fd5b505050506040513d601f19601f820116820180604052508101906118d391906126f5565b876040518363ffffffff1660e01b81526004016118f1929190612d00565b60206040518083038186803b15801561190957600080fd5b505afa15801561191d573d6000803e3d6000fd5b505050506040513d601f19601f820116820180604052508101906119419190612bbf565b90506000866001600160a01b03166329c07fba856001600160a01b031663570b2b846040518163ffffffff1660e01b815260040160206040518083038186803b15801561198d57600080fd5b505afa1580156119a1573d6000803e3d6000fd5b505050506040513d601f19601f820116820180604052508101906119c591906126f5565b876040518363ffffffff1660e01b81526004016119e3929190612d00565b60206040518083038186803b1580156119fb57600080fd5b505afa158015611a0f573d6000803e3d6000fd5b505050506040513d601f19601f82011682018060405250810190611a339190612bbf565b9050611a3f818461202e565b821115611a6857611a5a83611a5484846122e4565b906122e4565b975050505050505050610352565b6000975050505050505050610352565b600081830184511015611ad0576040805162461bcd60e51b815260206004820152601b60248201527a52656164696e67206279746573206f7574206f6620626f756e647360281b604482015290519081900360640190fd5b826020018401519050816020038015611aef576008810260020a820491505b509392505050565b7f000000000000000000000000000000000000000000000000000000000000000081565b60608182601f011015611b66576040805162461bcd60e51b815260206004820152600e60248201526d736c6963655f6f766572666c6f7760901b604482015290519081900360640190fd5b828284011015611bae576040805162461bcd60e51b815260206004820152600e60248201526d736c6963655f6f766572666c6f7760901b604482015290519081900360640190fd5b81830184511015611bfa576040805162461bcd60e51b8152602060048201526011602482015270736c6963655f6f75744f66426f756e647360781b604482015290519081900360640190fd5b606082158015611c195760405191506000825260208201604052611c63565b6040519150601f8416801560200281840101858101878315602002848b0101015b81831015611c52578051835260209283019201611c3a565b5050858452601f01601f1916604052505b50949350505050565b6040805160028082526060820183526000926020830190803683370190505090507f000000000000000000000000000000000000000000000000000000000000000081600081518110611cbb57fe5b60200260200101906001600160a01b031690816001600160a01b0316815250508381600181518110611ce957fe5b6001600160a01b03928316602091820292909201015260405163095ea7b360e01b81527f00000000000000000000000000000000000000000000000000000000000000009091169063095ea7b390611d479088908690600401612d00565b602060405180830381600087803b158015611d6157600080fd5b505af1158015611d75573d6000803e3d6000fd5b505050506040513d601f19601f82011682018060405250810190611d999190612954565b506040516338ed173960e01b81526001600160a01b038616906338ed173990611dd090859087908690309060001990600401612ee9565b600060405180830381600087803b158015611dea57600080fd5b505af1158015611dfe573d6000803e3d6000fd5b505050506040513d6000823e601f3d908101601f19168201604052611e2691908101906128b4565b506000611ea984866001600160a01b03166370a08231306040518263ffffffff1660e01b8152600401611e599190612c65565b60206040518083038186803b158015611e7157600080fd5b505afa158015611e85573d6000803e3d6000fd5b505050506040513d601f19601f82011682018060405250810190611a549190612bbf565b60405163095ea7b360e01b81529091506001600160a01b0386169063095ea7b390611eda9089908590600401612d00565b602060405180830381600087803b158015611ef457600080fd5b505af1158015611f08573d6000803e3d6000fd5b505050506040513d601f19601f82011682018060405250810190611f2c9190612954565b508482600081518110611f3b57fe5b60200260200101906001600160a01b031690816001600160a01b0316815250507f000000000000000000000000000000000000000000000000000000000000000082600181518110611f8957fe5b6001600160a01b0392831660209182029290920101526040516338ed173960e01b8152908716906338ed173990611fcf9084906000908790309060001990600401612ee9565b600060405180830381600087803b158015611fe957600080fd5b505af1158015611ffd573d6000803e3d6000fd5b505050506040513d6000823e601f3d908101601f1916820160405261202591908101906128b4565b50505050505050565b600082820183811015611609576040805162461bcd60e51b815260206004820152601b60248201527a536166654d6174683a206164646974696f6e206f766572666c6f7760281b604482015290519081900360640190fd5b60408051600280825260608201835260009260208301908036833701905050905083816000815181106120b557fe5b60200260200101906001600160a01b031690816001600160a01b0316815250507f00000000000000000000000000000000000000000000000000000000000000008160018151811061210357fe5b6001600160a01b03928316602091820292909201015260405163095ea7b360e01b81529085169063095ea7b3906121409088908790600401612d00565b602060405180830381600087803b15801561215a57600080fd5b505af115801561216e573d6000803e3d6000fd5b505050506040513d601f19601f820116820180604052508101906121929190612954565b506040516338ed173960e01b81526001600160a01b038616906338ed1739906121c990869086908690309060001990600401612ee9565b600060405180830381600087803b1580156121e357600080fd5b505af11580156121f7573d6000803e3d6000fd5b505050506040513d6000823e601f3d908101601f1916820160405261221f91908101906128b4565b505050505050565b60008261223657506000610352565b8282028284828161224357fe5b04146116095760405162461bcd60e51b8152600401808060200182810382526021815260200180612f856021913960400191505060405180910390fd5b60008082116122d3576040805162461bcd60e51b815260206004820152601a602482015279536166654d6174683a206469766973696f6e206279207a65726f60301b604482015290519081900360640190fd5b8183816122dc57fe5b049392505050565b60008282111561233b576040805162461bcd60e51b815260206004820152601e60248201527f536166654d6174683a207375627472616374696f6e206f766572666c6f770000604482015290519081900360640190fd5b50900390565b6000806000846001600160a01b031663c45a01556040518163ffffffff1660e01b815260040160206040518083038186803b15801561237f57600080fd5b505afa158015612393573d6000803e3d6000fd5b505050506040513d601f19601f820116820180604052508101906123b791906126f5565b6001600160a01b0316634f8419b9856040518263ffffffff1660e01b81526004016123e29190612c65565b60206040518083038186803b1580156123fa57600080fd5b505afa15801561240e573d6000803e3d6000fd5b505050506040513d601f19601f8201168201806040525081019061243291906126f5565b60405163c695201360e01b815290915084906000906001600160a01b0384169063c695201390612468908a908690600401612c79565b60006040518083038186803b15801561248057600080fd5b505afa158015612494573d6000803e3d6000fd5b505050506040513d6000823e601f3d908101601f191682016040526124bc91908101906128b4565b905060005b81518110156125fb5760008282815181106124d857fe5b60200260200101519050612568846001600160a01b031663d4a9b2c5836040518263ffffffff1660e01b81526004016125119190612ddd565b60206040518083038186803b15801561252957600080fd5b505afa15801561253d573d6000803e3d6000fd5b505050506040513d601f19601f820116820180604052508101906125619190612bbf565b889061202e565b96506125f0846001600160a01b031663d310f49b836040518263ffffffff1660e01b81526004016125999190612ddd565b60206040518083038186803b1580156125b157600080fd5b505afa1580156125c5573d6000803e3d6000fd5b505050506040513d601f19601f820116820180604052508101906125e99190612bbf565b879061202e565b9550506001016124c1565b505050509250929050565b60408051808201909152600081526060602082015290565b60008083601f84011261262f578182fd5b5081356001600160401b03811115612645578182fd5b60208301915083602082850101111561265d57600080fd5b9250929050565b600082601f830112612674578081fd5b81356001600160401b0381111561268757fe5b61269a601f8201601f1916602001612f49565b8181528460208386010111156126ae578283fd5b816020850160208301379081016020019190915292915050565b803560ff811681146107d557600080fd5b6000602082840312156126ea578081fd5b813561160981612f6c565b600060208284031215612706578081fd5b815161160981612f6c565b60008060408385031215612723578081fd5b823561272e81612f6c565b9150602083013561273e81612f6c565b809150509250929050565b6000806000806060858703121561275e578182fd5b843561276981612f6c565b9350602085013561277981612f6c565b925060408501356001600160401b03811115612793578283fd5b61279f8782880161261e565b95989497509550505050565b600080600080608085870312156127c0578384fd5b84356127cb81612f6c565b935060208501356127db81612f6c565b92506040850135915060608501356127f281612f6c565b939692955090935050565b60008060008060808587031215612812578384fd5b843561281d81612f6c565b9350602085013592506040850135915060608501356127f281612f6c565b60008060008060008060a08789031215612853578182fd5b863561285e81612f6c565b95506020870135945060408701359350606087013561287c81612f6c565b925060808701356001600160401b03811115612896578283fd5b6128a289828a0161261e565b979a9699509497509295939492505050565b600060208083850312156128c6578182fd5b82516001600160401b03808211156128dc578384fd5b818501915085601f8301126128ef578384fd5b8151818111156128fb57fe5b838102915061290b848301612f49565b8181528481019084860184860187018a1015612925578788fd5b8795505b83861015612947578051835260019590950194918601918601612929565b5098975050505050505050565b600060208284031215612965578081fd5b81518015158114611609578182fd5b600060208284031215612985578081fd5b5035919050565b60006020828403121561299d578081fd5b81356001600160401b038111156129b2578182fd5b61163984828501612664565b600080604083850312156129d0578182fd5b82356001600160401b038111156129e5578283fd5b6129f185828601612664565b95602094909401359450505050565b600080600060608486031215612a14578081fd5b83356001600160401b03811115612a29578182fd5b612a3586828701612664565b9660208601359650604090950135949350505050565b60008060408385031215612a5d578182fd5b82356001600160401b03811115612a72578283fd5b612a7e85828601612664565b925050612a8d602084016126c8565b90509250929050565b600080600060608486031215612aaa578081fd5b83356001600160401b03811115612abf578182fd5b612acb86828701612664565b935050612ada602085016126c8565b9150604084013590509250925092565b600080600060608486031215612afe578081fd5b83356001600160401b03811115612b13578182fd5b612b1f86828701612664565b935050612b2e602085016126c8565b9150612b3c604085016126c8565b90509250925092565b600060a08284031215612b56578081fd5b60405160a081018181106001600160401b0382111715612b7257fe5b6040528235612b8081612f6c565b81526020830135612b9081612f6c565b806020830152506040830135604082015260608301356060820152608083013560808201528091505092915050565b600060208284031215612bd0578081fd5b5051919050565b6000815180845260208085019450808401835b83811015612c0f5781516001600160a01b031687529582019590820190600101612bea565b509495945050505050565b60008151808452815b81811015612c3f57602081850181015186830182015201612c23565b81811115612c505782602083870101525b50601f01601f19169290920160200192915050565b6001600160a01b0391909116815260200190565b6001600160a01b0392831681529116602082015260400190565b6001600160a01b039384168152919092166020820152604081019190915260600190565b6001600160a01b038681168252851660208201526040810184905260a060608201819052600090612cea90830185612c1a565b905061ffff831660808301529695505050505050565b6001600160a01b03929092168252602082015260400190565b60006060820160018060a01b03808716845260208681860152604060608187015283875180865260808801915060808482028901019550838901875b82811015612d9657898803607f190184528151805188168952860151868901869052612d83868a0182612c1a565b9850509285019290850190600101612d55565b50959b9a5050505050505050505050565b6001600160a01b03948516815260208101939093526040830191909152909116606082015260800190565b901515815260200190565b90815260200190565b6001600160e01b031991909116815260200190565b6000602082526116096020830184612c1a565b6020808252601d908201527f63616e6e6f742072656d6f7665206e6f6e2d656d707479206173736574000000604082015260600190565b6020808252601b908201527a37b7363c903837b7b610333630b9b4103637b0b71037b934b3b4b760291b604082015260600190565b6939bbb0b82937baba32b960b11b815260200190565b81516001600160a01b0390811682526020808401519091169082015260408083015190820152606080830151908201526080918201519181019190915260a00190565b61ffff9290921682521515602082015260400190565b600086825285602083015260a06040830152612f0860a0830186612bd7565b6001600160a01b0394909416606083015250608001529392505050565b918252602082015260400190565b9283526020830191909152604082015260600190565b6040518181016001600160401b0381118282101715612f6457fe5b604052919050565b6001600160a01b0381168114612f8157600080fd5b5056fe536166654d6174683a206d756c7469706c69636174696f6e206f766572666c6f77a2646970667358221220086b3f9d8e4dc8e5746632ece49b06747e293a0ed9c1707c376d7e523ea7981364736f6c63430007060033",
  "linkReferences": {},
  "deployedLinkReferences": {}
}