{
  "_format": "hh-sol-artifact-1",
  "contractName": "DhedgeRamsesUniV2Router",
  "sourceName": "contracts/routers/DhedgeRamsesUniV2Router.sol",
  "abi": [
    {
      "inputs": [
        {
          "internalType": "contract IRamsesRouter",
          "name": "_router",
          "type": "address"
        }
      ],
      "stateMutability": "nonpayable",
      "type": "constructor"
    },
    {
      "inputs": [
        {
          "internalType": "uint256",
          "name": "",
          "type": "uint256"
        },
        {
          "internalType": "address[]",
          "name": "path",
          "type": "address[]"
        }
      ],
      "name": "getAmountsIn",
      "outputs": [
        {
          "internalType": "uint256[]",
          "name": "amountsIn",
          "type": "uint256[]"
        }
      ],
      "stateMutability": "pure",
      "type": "function"
    },
    {
      "inputs": [
        {
          "internalType": "uint256",
          "name": "amountIn",
          "type": "uint256"
        },
        {
          "internalType": "address[]",
          "name": "path",
          "type": "address[]"
        }
      ],
      "name": "getAmountsOut",
      "outputs": [
        {
          "internalType": "uint256[]",
          "name": "amountsOut",
          "type": "uint256[]"
        }
      ],
      "stateMutability": "view",
      "type": "function"
    },
    {
      "inputs": [],
      "name": "router",
      "outputs": [
        {
          "internalType": "contract IRamsesRouter",
          "name": "",
          "type": "address"
        }
      ],
      "stateMutability": "view",
      "type": "function"
    },
    {
      "inputs": [
        {
          "internalType": "uint256",
          "name": "amountIn",
          "type": "uint256"
        },
        {
          "internalType": "uint256",
          "name": "amountOutMin",
          "type": "uint256"
        },
        {
          "internalType": "address[]",
          "name": "path",
          "type": "address[]"
        },
        {
          "internalType": "address",
          "name": "to",
          "type": "address"
        },
        {
          "internalType": "uint256",
          "name": "deadline",
          "type": "uint256"
        }
      ],
      "name": "swapExactTokensForTokens",
      "outputs": [
        {
          "internalType": "uint256[]",
          "name": "amountsOut",
          "type": "uint256[]"
        }
      ],
      "stateMutability": "nonpayable",
      "type": "function"
    },
    {
      "inputs": [
        {
          "internalType": "uint256",
          "name": "",
          "type": "uint256"
        },
        {
          "internalType": "uint256",
          "name": "",
          "type": "uint256"
        },
        {
          "internalType": "address[]",
          "name": "",
          "type": "address[]"
        },
        {
          "internalType": "address",
          "name": "",
          "type": "address"
        },
        {
          "internalType": "uint256",
          "name": "",
          "type": "uint256"
        }
      ],
      "name": "swapTokensForExactTokens",
      "outputs": [
        {
          "internalType": "uint256[]",
          "name": "",
          "type": "uint256[]"
        }
      ],
      "stateMutability": "pure",
      "type": "function"
    }
  ],
  "bytecode": "0x608060405234801561001057600080fd5b50604051610dbd380380610dbd83398101604081905261002f91610054565b600080546001600160a01b0319166001600160a01b0392909216919091179055610082565b600060208284031215610065578081fd5b81516001600160a01b038116811461007b578182fd5b9392505050565b610d2c806100916000396000f3fe608060405234801561001057600080fd5b50600436106100575760003560e01c80631f00ca741461005c57806338ed1739146100855780638803dbee14610098578063d06ca61f146100ab578063f887ea40146100be575b600080fd5b61006f61006a366004610a46565b6100d3565b60405161007c9190610b71565b60405180910390f35b61006f610093366004610aba565b61011e565b61006f6100a6366004610aba565b610681565b61006f6100b9366004610a46565b61069b565b6100c66108bb565b60405161007c9190610bb5565b6060816001600160401b03811180156100eb57600080fd5b50604051908082528060200260200182016040528015610115578160200160208202803683370190505b50949350505050565b6060600484106101495760405162461bcd60e51b815260040161014090610bc9565b60405180910390fd5b6000805481906001600160a01b0316635e1e63258a8989858161016857fe5b905060200201602081019061017d919061095e565b8a8a600181811061018a57fe5b905060200201602081019061019f919061095e565b6040518463ffffffff1660e01b81526004016101bd93929190610c49565b604080518083038186803b1580156101d457600080fd5b505afa1580156101e8573d6000803e3d6000fd5b505050506040513d601f19601f8201168201806040525081019061020c9190610a8f565b9092509050600060038714610222576001610225565b60025b60ff166001600160401b038111801561023d57600080fd5b5060405190808252806020026020018201604052801561027757816020015b6102646108ca565b81526020019060019003908161025c5790505b50905060405180606001604052808989600081811061029257fe5b90506020020160208101906102a7919061095e565b6001600160a01b03168152602001898960018181106102c257fe5b90506020020160208101906102d7919061095e565b6001600160a01b03168152602001831515815250816000815181106102f857fe5b6020908102919091010152600387141561045f576000546001600160a01b0316635e1e6325848a8a600181811061032b57fe5b9050602002016020810190610340919061095e565b8b8b600281811061034d57fe5b9050602002016020810190610362919061095e565b6040518463ffffffff1660e01b815260040161038093929190610c49565b604080518083038186803b15801561039757600080fd5b505afa1580156103ab573d6000803e3d6000fd5b505050506040513d601f19601f820116820180604052508101906103cf9190610a8f565b9050809250506040518060600160405280898960018181106103ed57fe5b9050602002016020810190610402919061095e565b6001600160a01b031681526020018989600281811061041d57fe5b9050602002016020810190610432919061095e565b6001600160a01b031681526020018315158152508160018151811061045357fe5b60200260200101819052505b8787600081811061046c57fe5b9050602002016020810190610481919061095e565b6001600160a01b03166323b872dd33308d6040518463ffffffff1660e01b81526004016104b093929190610b34565b602060405180830381600087803b1580156104ca57600080fd5b505af11580156104de573d6000803e3d6000fd5b505050506040513d601f19601f820116820180604052508101906105029190610a2c565b508787600081811061051057fe5b9050602002016020810190610525919061095e565b60005460405163095ea7b360e01b81526001600160a01b039283169263095ea7b392610558929116908e90600401610b58565b602060405180830381600087803b15801561057257600080fd5b505af1158015610586573d6000803e3d6000fd5b505050506040513d601f19601f820116820180604052508101906105aa9190610a2c565b50600054604051631e82ecdb60e31b81526001600160a01b039091169063f41766d8906105e3908d908d9086908c908c90600401610c68565b600060405180830381600087803b1580156105fd57600080fd5b505af1158015610611573d6000803e3d6000fd5b505050506040513d6000823e601f3d908101601f19168201604052610639919081019061097f565b9350888460018a8a9050038151811061064e57fe5b602002602001015110156106745760405162461bcd60e51b815260040161014090610bf0565b5050509695505050505050565b606060405162461bcd60e51b815260040161014090610c1b565b6060600482106106bd5760405162461bcd60e51b815260040161014090610bc9565b600080546001600160a01b0316635e1e632586868685816106da57fe5b90506020020160208101906106ef919061095e565b878760018181106106fc57fe5b9050602002016020810190610711919061095e565b6040518463ffffffff1660e01b815260040161072f93929190610c49565b604080518083038186803b15801561074657600080fd5b505afa15801561075a573d6000803e3d6000fd5b505050506040513d601f19601f8201168201806040525081019061077e9190610a8f565b5090506003831415610851576000546001600160a01b0316635e1e632582868660018181106107a957fe5b90506020020160208101906107be919061095e565b878760028181106107cb57fe5b90506020020160208101906107e0919061095e565b6040518463ffffffff1660e01b81526004016107fe93929190610c49565b604080518083038186803b15801561081557600080fd5b505afa158015610829573d6000803e3d6000fd5b505050506040513d601f19601f8201168201806040525081019061084d9190610a8f565b5090505b826001600160401b038111801561086757600080fd5b50604051908082528060200260200182016040528015610891578160200160208202803683370190505b509150808260018686905003815181106108a757fe5b602002602001018181525050509392505050565b6000546001600160a01b031681565b604080516060810182526000808252602082018190529181019190915290565b80356001600160a01b038116811461090157600080fd5b919050565b60008083601f840112610917578081fd5b5081356001600160401b0381111561092d578182fd5b602083019150836020808302850101111561094757600080fd5b9250929050565b8051801515811461090157600080fd5b60006020828403121561096f578081fd5b610978826108ea565b9392505050565b60006020808385031215610991578182fd5b82516001600160401b03808211156109a7578384fd5b818501915085601f8301126109ba578384fd5b8151818111156109c657fe5b838102604051858282010181811085821117156109df57fe5b604052828152858101935084860182860187018a10156109fd578788fd5b8795505b83861015610a1f578051855260019590950194938601938601610a01565b5098975050505050505050565b600060208284031215610a3d578081fd5b6109788261094e565b600080600060408486031215610a5a578182fd5b8335925060208401356001600160401b03811115610a76578283fd5b610a8286828701610906565b9497909650939450505050565b60008060408385031215610aa1578182fd5b82519150610ab16020840161094e565b90509250929050565b60008060008060008060a08789031215610ad2578182fd5b863595506020870135945060408701356001600160401b03811115610af5578283fd5b610b0189828a01610906565b9095509350610b149050606088016108ea565b9150608087013590509295509295509295565b6001600160a01b03169052565b6001600160a01b039384168152919092166020820152604081019190915260600190565b6001600160a01b03929092168252602082015260400190565b6020808252825182820181905260009190848201906040850190845b81811015610ba957835183529284019291840191600101610b8d565b50909695505050505050565b6001600160a01b0391909116815260200190565b6020808252600d908201526c746f6f206d616e7920686f707360981b604082015260600190565b602080825260119082015270746f6f206d75636820736c69707061676560781b604082015260600190565b60208082526014908201527329aa2322aa103737ba1039bab83837b93a32b21760611b604082015260600190565b9283526001600160a01b03918216602084015216604082015260600190565b600060a0820187835260208781850152604060a08186015282885180855260c087019150838a019450855b81811015610cd057855180516001600160a01b03908116855286820151168685015284015115158484015294840194606090920191600101610c93565b505080945050505050610ce66060830185610b27565b826080830152969550505050505056fea26469706673582212203433d539ce7734f7643694123132bbd6b821e0d52a40ec28d4e051c43c0a935f64736f6c63430007060033",
  "linkReferences": {},
  "deployedLinkReferences": {}
}