{
  "_format": "hh-sol-artifact-1",
  "contractName": "DHedgePoolAggregator",
  "sourceName": "contracts/priceAggregators/DHedgePoolAggregator.sol",
  "abi": [
    {
      "inputs": [
        {
          "internalType": "address",
          "name": "_poolLogic",
          "type": "address"
        }
      ],
      "stateMutability": "nonpayable",
      "type": "constructor"
    },
    {
      "inputs": [],
      "name": "decimals",
      "outputs": [
        {
          "internalType": "uint8",
          "name": "",
          "type": "uint8"
        }
      ],
      "stateMutability": "pure",
      "type": "function"
    },
    {
      "inputs": [],
      "name": "latestRoundData",
      "outputs": [
        {
          "internalType": "uint80",
          "name": "",
          "type": "uint80"
        },
        {
          "internalType": "int256",
          "name": "",
          "type": "int256"
        },
        {
          "internalType": "uint256",
          "name": "",
          "type": "uint256"
        },
        {
          "internalType": "uint256",
          "name": "",
          "type": "uint256"
        },
        {
          "internalType": "uint80",
          "name": "",
          "type": "uint80"
        }
      ],
      "stateMutability": "view",
      "type": "function"
    },
    {
      "inputs": [],
      "name": "poolLogic",
      "outputs": [
        {
          "internalType": "address",
          "name": "",
          "type": "address"
        }
      ],
      "stateMutability": "view",
      "type": "function"
    }
  ],
  "bytecode": "0x608060405234801561001057600080fd5b506040516102f93803806102f98339818101604052602081101561003357600080fd5b50516001600160a01b038116610090576040805162461bcd60e51b815260206004820152601e60248201527f5f706f6f6c4c6f67696320616464726573732063616e6e6f7420626520300000604482015290519081900360640190fd5b600080546001600160a01b039092166001600160a01b0319909216919091179055610239806100c06000396000f3fe608060405234801561001057600080fd5b50600436106100415760003560e01c8063313ce5671461004657806339b81fd914610064578063feaf968c14610088575b600080fd5b61004e6100d4565b6040805160ff9092168252519081900360200190f35b61006c6100d9565b604080516001600160a01b039092168252519081900360200190f35b6100906100e8565b60405180866001600160501b03168152602001858152602001848152602001838152602001826001600160501b031681526020019550505050505060405180910390f35b600890565b6000546001600160a01b031681565b60008060008060008060008054906101000a90046001600160a01b03166001600160a01b0316637ff9b5966040518163ffffffff1660e01b815260040160206040518083038186803b15801561013d57600080fd5b505afa158015610151573d6000803e3d6000fd5b505050506040513d602081101561016757600080fd5b505190506000811561018757610182826402540be40061019f565b61018a565b60005b60009890975088965042955086945092505050565b60008082116101f2576040805162461bcd60e51b815260206004820152601a602482015279536166654d6174683a206469766973696f6e206279207a65726f60301b604482015290519081900360640190fd5b8183816101fb57fe5b04939250505056fea26469706673582212204164a011f91d01ac2a58d1e1fd5998e12dd9dcbf649f1a34f26ef55539e6ec6764736f6c63430007060033",
  "linkReferences": {},
  "deployedLinkReferences": {}
}