{
  "_format": "hh-sol-artifact-1",
  "contractName": "BalancerV2LPAggregator",
  "sourceName": "contracts/priceAggregators/BalancerV2LPAggregator.sol",
  "abi": [
    {
      "inputs": [
        {
          "internalType": "address",
          "name": "_factory",
          "type": "address"
        },
        {
          "internalType": "contract IBalancerWeightedPool",
          "name": "_pool",
          "type": "address"
        },
        {
          "components": [
            {
              "internalType": "uint256",
              "name": "maxPriceDeviation",
              "type": "uint256"
            },
            {
              "internalType": "uint256",
              "name": "K",
              "type": "uint256"
            },
            {
              "internalType": "uint256",
              "name": "powerPrecision",
              "type": "uint256"
            },
            {
              "internalType": "uint256[][]",
              "name": "approximationMatrix",
              "type": "uint256[][]"
            }
          ],
          "internalType": "struct BalancerV2LPAggregator.PriceDeviationParams",
          "name": "_params",
          "type": "tuple"
        }
      ],
      "stateMutability": "nonpayable",
      "type": "constructor"
    },
    {
      "inputs": [],
      "name": "decimals",
      "outputs": [
        {
          "internalType": "uint8",
          "name": "",
          "type": "uint8"
        }
      ],
      "stateMutability": "pure",
      "type": "function"
    },
    {
      "inputs": [],
      "name": "factory",
      "outputs": [
        {
          "internalType": "address",
          "name": "",
          "type": "address"
        }
      ],
      "stateMutability": "view",
      "type": "function"
    },
    {
      "inputs": [],
      "name": "latestRoundData",
      "outputs": [
        {
          "internalType": "uint80",
          "name": "",
          "type": "uint80"
        },
        {
          "internalType": "int256",
          "name": "",
          "type": "int256"
        },
        {
          "internalType": "uint256",
          "name": "",
          "type": "uint256"
        },
        {
          "internalType": "uint256",
          "name": "",
          "type": "uint256"
        },
        {
          "internalType": "uint80",
          "name": "",
          "type": "uint80"
        }
      ],
      "stateMutability": "view",
      "type": "function"
    },
    {
      "inputs": [],
      "name": "params",
      "outputs": [
        {
          "internalType": "uint256",
          "name": "maxPriceDeviation",
          "type": "uint256"
        },
        {
          "internalType": "uint256",
          "name": "K",
          "type": "uint256"
        },
        {
          "internalType": "uint256",
          "name": "powerPrecision",
          "type": "uint256"
        }
      ],
      "stateMutability": "view",
      "type": "function"
    },
    {
      "inputs": [],
      "name": "pool",
      "outputs": [
        {
          "internalType": "contract IBalancerWeightedPool",
          "name": "",
          "type": "address"
        }
      ],
      "stateMutability": "view",
      "type": "function"
    },
    {
      "inputs": [],
      "name": "poolId",
      "outputs": [
        {
          "internalType": "bytes32",
          "name": "",
          "type": "bytes32"
        }
      ],
      "stateMutability": "view",
      "type": "function"
    },
    {
      "inputs": [
        {
          "internalType": "uint256",
          "name": "",
          "type": "uint256"
        }
      ],
      "name": "tokenDecimals",
      "outputs": [
        {
          "internalType": "uint8",
          "name": "",
          "type": "uint8"
        }
      ],
      "stateMutability": "view",
      "type": "function"
    },
    {
      "inputs": [
        {
          "internalType": "uint256",
          "name": "",
          "type": "uint256"
        }
      ],
      "name": "tokens",
      "outputs": [
        {
          "internalType": "address",
          "name": "",
          "type": "address"
        }
      ],
      "stateMutability": "view",
      "type": "function"
    },
    {
      "inputs": [],
      "name": "vault",
      "outputs": [
        {
          "internalType": "contract IBalancerV2Vault",
          "name": "",
          "type": "address"
        }
      ],
      "stateMutability": "view",
      "type": "function"
    },
    {
      "inputs": [
        {
          "internalType": "uint256",
          "name": "",
          "type": "uint256"
        }
      ],
      "name": "weights",
      "outputs": [
        {
          "internalType": "uint256",
          "name": "",
          "type": "uint256"
        }
      ],
      "stateMutability": "view",
      "type": "function"
    }
  ],
  "bytecode": "0x60806040523480156200001157600080fd5b5060405162001a8638038062001a86833981016040819052620000349162000752565b6001600160a01b038316620000665760405162461bcd60e51b81526004016200005d9062000a1f565b60405180910390fd5b6001600160a01b0382166200008f5760405162461bcd60e51b81526004016200005d906200097a565b826000806101000a8154816001600160a01b0302191690836001600160a01b03160217905550816001600160a01b0316638d928af86040518163ffffffff1660e01b815260040160206040518083038186803b158015620000ef57600080fd5b505afa15801562000104573d6000803e3d6000fd5b505050506040513d601f19601f820116820180604052508101906200012a91906200072c565b600180546001600160a01b039283166001600160a01b0319918216179091556002805492851692909116821790556040805163038fff2d60e41b815290516338fff2d091600480820192602092909190829003018186803b1580156200018f57600080fd5b505afa158015620001a4573d6000803e3d6000fd5b505050506040513d601f19601f82011682018060405250810190620001ca919062000935565b6003819055600154604051631f29a8cd60e31b81526001600160a01b039091169163f94d46689162000200919060040162000971565b60006040518083038186803b1580156200021957600080fd5b505afa1580156200022e573d6000803e3d6000fd5b505050506040513d6000823e601f3d908101601f191682016040526200025891908101906200081e565b505080516200026f906004906020840190620004f8565b5050600260009054906101000a90046001600160a01b03166001600160a01b031663f89f27ed6040518163ffffffff1660e01b815260040160006040518083038186803b158015620002c057600080fd5b505afa158015620002d5573d6000803e3d6000fd5b505050506040513d6000823e601f3d908101601f19168201604052620002ff9190810190620008f7565b8051620003159160069160209091019062000562565b5060045460005b81811015620003fc576005600482815481106200033557fe5b600091825260209182902001546040805163313ce56760e01b815290516001600160a01b039092169263313ce56792600480840193829003018186803b1580156200037f57600080fd5b505afa15801562000394573d6000803e3d6000fd5b505050506040513d601f19601f82011682018060405250810190620003ba91906200094e565b8154600181810184556000938452602093849020938204909301805460ff938416601f9093166101000a9283029390920219909116919091179055016200031c565b508151670de0b6b3a764000011620004285760405162461bcd60e51b81526004016200005d90620009e8565b60018260400151101580156200044a5750670de0b6b3a7640000826040015111155b620004695760405162461bcd60e51b81526004016200005d90620009b1565b60608201515115806200049857508060010182606001516000815181106200048d57fe5b602002602001015151145b620004b75760405162461bcd60e51b81526004016200005d9062000a56565b81516007908155602080840151600855604084015160095560608401518051859392620004ea92600a92910190620005a0565b509050505050505062000ae5565b82805482825590600052602060002090810192821562000550579160200282015b828111156200055057825182546001600160a01b0319166001600160a01b0390911617825560209092019160019091019062000519565b506200055e92915062000600565b5090565b82805482825590600052602060002090810192821562000550579160200282015b828111156200055057825182559160200191906001019062000583565b828054828255906000526020600020908101928215620005f2579160200282015b82811115620005f25782518051620005e191849160209091019062000562565b5091602001919060010190620005c1565b506200055e92915062000617565b5b808211156200055e576000815560010162000601565b808211156200055e5760006200062e828262000638565b5060010162000617565b508054600082559060005260206000209081019062000658919062000600565b50565b600082601f8301126200066c578081fd5b81516020620006856200067f8362000ab1565b62000a8d565b82815281810190858301855b85811015620006be57620006ab898684518b0101620006cb565b8452928401929084019060010162000691565b5090979650505050505050565b600082601f830112620006dc578081fd5b81516020620006ef6200067f8362000ab1565b82815281810190858301838502870184018810156200070c578586fd5b855b85811015620006be578151845292840192908401906001016200070e565b6000602082840312156200073e578081fd5b81516200074b8162000acf565b9392505050565b60008060006060848603121562000767578182fd5b8351620007748162000acf565b6020850151909350620007878162000acf565b60408501519092506001600160401b0380821115620007a4578283fd5b9085019060808288031215620007b8578283fd5b604051608081018181108382111715620007ce57fe5b8060405250825181526020830151602082015260408301516040820152606083015182811115620007fd578485fd5b6200080b898286016200065b565b6060830152508093505050509250925092565b60008060006060848603121562000833578283fd5b83516001600160401b03808211156200084a578485fd5b818601915086601f8301126200085e578485fd5b81516020620008716200067f8362000ab1565b82815281810190858301838502870184018c10156200088e57898afd5b8996505b84871015620008bd578051620008a88162000acf565b83526001969096019591830191830162000892565b5091890151919750909350505080821115620008d7578384fd5b50620008e686828701620006cb565b925050604084015190509250925092565b60006020828403121562000909578081fd5b81516001600160401b038111156200091f578182fd5b6200092d84828501620006cb565b949350505050565b60006020828403121562000947578081fd5b5051919050565b60006020828403121562000960578081fd5b815160ff811681146200074b578182fd5b90815260200190565b60208082526019908201527f5f706f6f6c20616464726573732063616e6e6f74206265203000000000000000604082015260600190565b60208082526017908201527f496e76616c696420506f77657220507265636973696f6e000000000000000000604082015260600190565b60208082526017908201527f496e76616c696420507269636520446576696174696f6e000000000000000000604082015260600190565b6020808252601c908201527f5f666163746f727920616464726573732063616e6e6f74206265203000000000604082015260600190565b60208082526015908201527f496e76616c696420417070726f78204d61747269780000000000000000000000604082015260600190565b6040518181016001600160401b038111828210171562000aa957fe5b604052919050565b60006001600160401b0382111562000ac557fe5b5060209081020190565b6001600160a01b03811681146200065857600080fd5b610f918062000af56000396000f3fe608060405234801561001057600080fd5b506004361061008e5760003560e01c806316f0115b14610093578063313ce567146100b15780633e0dc34e146100c65780634f64b2be146100db5780638609f458146100ee578063b5f163ff14610101578063c45a015514610114578063cff0ab961461011c578063fbfa77cf14610133578063feaf968c1461013b575b600080fd5b61009b610154565b6040516100a89190610e89565b60405180910390f35b6100b9610163565b6040516100a89190610eec565b6100ce610168565b6040516100a89190610e9d565b61009b6100e9366004610e59565b61016e565b6100b96100fc366004610e59565b610198565b6100ce61010f366004610e59565b6101cc565b61009b6101ed565b6101246101fc565b6040516100a893929190610ea6565b61009b610208565b610143610217565b6040516100a8959493929190610ebc565b6002546001600160a01b031681565b600890565b60035481565b6004818154811061017e57600080fd5b6000918252602090912001546001600160a01b0316905081565b600581815481106101a857600080fd5b9060005260206000209060209182820401919006915054906101000a900460ff1681565b600681815481106101dc57600080fd5b600091825260209091200154905081565b6000546001600160a01b031681565b60075460085460095483565b6001546001600160a01b031681565b6000808080808080610227610279565b905061023281610402565b1561024757610240816104ee565b9150610253565b610250816105de565b91505b6000610264836402540be400610677565b90989097506000965042955086945092505050565b6004546060906001600160401b038111801561029457600080fd5b506040519080825280602002602001820160405280156102be578160200160208202803683370190505b50600154600354604051631f29a8cd60e31b81529293506000926001600160a01b039092169163f94d4668916102f691600401610e9d565b60006040518083038186803b15801561030e57600080fd5b505afa158015610322573d6000803e3d6000fd5b505050506040513d6000823e601f3d908101601f1916820160405261034a9190810190610d83565b5091505060005b6004548110156103fd576103de6005828154811061036b57fe5b90600052602060002090602091828204019190069054906101000a900460ff1660ff16600a0a6103d88484815181106103a057fe5b60200260200101516103d2600486815481106103b857fe5b6000918252602090912001546001600160a01b03166106dd565b9061075e565b90610677565b8382815181106103ea57fe5b6020908102919091010152600101610351565b505090565b600454600090815b818110156104e25760005b828110156104d9578082146104d15760006104956006848154811061043657fe5b90600052602060002001546103d888858151811061045057fe5b60200260200101516103d86006878154811061046857fe5b90600052602060002001548b898151811061047f57fe5b602002602001015161075e90919063ffffffff16565b600754909150670de0b6b3a7640000018111806104bd5750600754670de0b6b3a76400000381105b156104cf5760019450505050506104e9565b505b600101610415565b5060010161040a565b5060009150505b919050565b600454600090670de0b6b3a764000090825b818110156105385761052e836105298388858151811061051c57fe5b60200260200101516107b7565b610874565b9250600101610500565b506105d661054b83600760010154610874565b600260009054906101000a90046001600160a01b03166001600160a01b03166318160ddd6040518163ffffffff1660e01b815260040160206040518083038186803b15801561059957600080fd5b505afa1580156105ad573d6000803e3d6000fd5b505050506040513d601f19601f820116820180604052508101906105d19190610e71565b61093d565b949350505050565b600080805b60045481101561061d576106138482815181106105fc57fe5b602002602001015183610a4590919063ffffffff16565b91506001016105e3565b5061067081600260009054906101000a90046001600160a01b03166001600160a01b03166318160ddd6040518163ffffffff1660e01b815260040160206040518083038186803b15801561059957600080fd5b9392505050565b60008082116106ca576040805162461bcd60e51b815260206004820152601a602482015279536166654d6174683a206469766973696f6e206279207a65726f60301b604482015290519081900360640190fd5b8183816106d357fe5b0490505b92915050565b6000805460405163b3596f0760e01b81526001600160a01b039091169063b3596f079061070e908590600401610e89565b60206040518083038186803b15801561072657600080fd5b505afa15801561073a573d6000803e3d6000fd5b505050506040513d601f19601f820116820180604052508101906106d79190610e71565b60008261076d575060006106d7565b8282028284828161077a57fe5b04146106705760405162461bcd60e51b8152600401808060200182810382526021815260200180610f3b6021913960400191505060405180910390fd5b600080600684815481106107c757fe5b906000526020600020015490506000806107e18686610a9d565b9150915081600014806107fb5750671bc16d674ec7ffff85105b1561085957671bc16d674ec7ffff85101561082a576108208584600760020154610b68565b93505050506106d7565b61082085610529610843670de0b6b3a76400008961093d565b86670de0b6b3a764000003600760020154610b68565b6108208161052961086a888661093d565b6009548790610b68565b600082820283158061088e57508284828161088b57fe5b04145b6108d2576040805162461bcd60e51b815260206004820152601060248201526f4552525f4d554c5f4f564552464c4f5760801b604482015290519081900360640190fd5b6706f05b59d3b20000810181811015610925576040805162461bcd60e51b815260206004820152601060248201526f4552525f4d554c5f4f564552464c4f5760801b604482015290519081900360640190fd5b6000670de0b6b3a7640000825b049695505050505050565b600081610980576040805162461bcd60e51b815260206004820152600c60248201526b4552525f4449565f5a45524f60a01b604482015290519081900360640190fd5b670de0b6b3a764000083028315806109a85750670de0b6b3a76400008482816109a557fe5b04145b6109ec576040805162461bcd60e51b815260206004820152601060248201526f11549497d1125597d25395115493905360821b604482015290519081900360640190fd5b60028304810181811015610a3a576040805162461bcd60e51b815260206004820152601060248201526f11549497d1125597d25395115493905360821b604482015290519081900360640190fd5b600084828161093257fe5b600082820183811015610670576040805162461bcd60e51b815260206004820152601b60248201527a536166654d6174683a206164646974696f6e206f766572666c6f7760281b604482015290519081900360640190fd5b60008060005b600a54811015610b58578360076003018281548110610abe57fe5b90600052602060002001600081548110610ad457fe5b906000526020600020015410610b5057600a805482908110610af257fe5b90600052602060002001600081548110610b0857fe5b906000526020600020015460076003018281548110610b2357fe5b906000526020600020018660010181548110610b3b57fe5b90600052602060002001549250925050610b61565b600101610aa3565b50600080915091505b9250929050565b6000828180610b7f87670de0b6b3a7640000610c46565b9092509050670de0b6b3a764000080600060015b888410610c37576000670de0b6b3a764000082029050600080610bc78a610bc285670de0b6b3a7640000610c68565b610c46565b91509150610bd987610529848c610874565b9650610be5878461093d565b965086610bf457505050610c37565b8715610bfe579315935b8015610c08579315935b8415610c1f57610c188688610c68565b9550610c2c565b610c298688610cca565b95505b505050600101610b93565b50909998505050505050505050565b600080828410610c5c5750508082036000610b61565b50508181036001610b61565b6000806000610c778585610c46565b915091508015610cc2576040805162461bcd60e51b81526020600482015260116024820152704552525f5355425f554e444552464c4f5760781b604482015290519081900360640190fd5b509392505050565b600082820183811015610670576040805162461bcd60e51b815260206004820152601060248201526f4552525f4144445f4f564552464c4f5760801b604482015290519081900360640190fd5b600082601f830112610d27578081fd5b81516020610d3c610d3783610f1d565b610efa565b8281528181019085830183850287018401881015610d58578586fd5b855b85811015610d7657815184529284019290840190600101610d5a565b5090979650505050505050565b600080600060608486031215610d97578283fd5b83516001600160401b0380821115610dad578485fd5b818601915086601f830112610dc0578485fd5b81516020610dd0610d3783610f1d565b82815281810190858301838502870184018c1015610dec57898afd5b8996505b84871015610e225780516001600160a01b0381168114610e0e578a8bfd5b835260019690960195918301918301610df0565b5091890151919750909350505080821115610e3b578384fd5b50610e4886828701610d17565b925050604084015190509250925092565b600060208284031215610e6a578081fd5b5035919050565b600060208284031215610e82578081fd5b5051919050565b6001600160a01b0391909116815260200190565b90815260200190565b9283526020830191909152604082015260600190565b6001600160501b039586168152602081019490945260408401929092526060830152909116608082015260a00190565b60ff91909116815260200190565b6040518181016001600160401b0381118282101715610f1557fe5b604052919050565b60006001600160401b03821115610f3057fe5b506020908102019056fe536166654d6174683a206d756c7469706c69636174696f6e206f766572666c6f77a26469706673582212207dd0e65c15237641c3e3e9106da61901c25047a34fe8710d9be48f40e93cb5cd64736f6c63430007060033",
  "linkReferences": {},
  "deployedLinkReferences": {}
}