{
  "_format": "hh-sol-artifact-1",
  "contractName": "DhedgeStakingV2",
  "sourceName": "contracts/stakingv2/DhedgeStakingV2.sol",
  "abi": [
    {
      "anonymous": false,
      "inputs": [
        {
          "indexed": false,
          "internalType": "uint256",
          "name": "tokenId",
          "type": "uint256"
        },
        {
          "indexed": false,
          "internalType": "uint256",
          "name": "dhtAmount",
          "type": "uint256"
        }
      ],
      "name": "AddDHTToStake",
      "type": "event"
    },
    {
      "anonymous": false,
      "inputs": [
        {
          "indexed": true,
          "internalType": "address",
          "name": "owner",
          "type": "address"
        },
        {
          "indexed": true,
          "internalType": "address",
          "name": "approved",
          "type": "address"
        },
        {
          "indexed": true,
          "internalType": "uint256",
          "name": "tokenId",
          "type": "uint256"
        }
      ],
      "name": "Approval",
      "type": "event"
    },
    {
      "anonymous": false,
      "inputs": [
        {
          "indexed": true,
          "internalType": "address",
          "name": "owner",
          "type": "address"
        },
        {
          "indexed": true,
          "internalType": "address",
          "name": "operator",
          "type": "address"
        },
        {
          "indexed": false,
          "internalType": "bool",
          "name": "approved",
          "type": "bool"
        }
      ],
      "name": "ApprovalForAll",
      "type": "event"
    },
    {
      "anonymous": false,
      "inputs": [
        {
          "indexed": false,
          "internalType": "uint256",
          "name": "tokenId",
          "type": "uint256"
        },
        {
          "indexed": false,
          "internalType": "uint256",
          "name": "claimAmount",
          "type": "uint256"
        }
      ],
      "name": "Claim",
      "type": "event"
    },
    {
      "anonymous": false,
      "inputs": [
        {
          "indexed": false,
          "internalType": "uint256",
          "name": "tokenId",
          "type": "uint256"
        },
        {
          "indexed": false,
          "internalType": "uint256",
          "name": "dhtAmount",
          "type": "uint256"
        }
      ],
      "name": "NewStake",
      "type": "event"
    },
    {
      "anonymous": false,
      "inputs": [
        {
          "indexed": false,
          "internalType": "string",
          "name": "operation",
          "type": "string"
        }
      ],
      "name": "OwnerOperation",
      "type": "event"
    },
    {
      "anonymous": false,
      "inputs": [
        {
          "indexed": true,
          "internalType": "address",
          "name": "previousOwner",
          "type": "address"
        },
        {
          "indexed": true,
          "internalType": "address",
          "name": "newOwner",
          "type": "address"
        }
      ],
      "name": "OwnershipTransferred",
      "type": "event"
    },
    {
      "anonymous": false,
      "inputs": [
        {
          "indexed": false,
          "internalType": "address",
          "name": "account",
          "type": "address"
        }
      ],
      "name": "Paused",
      "type": "event"
    },
    {
      "anonymous": false,
      "inputs": [
        {
          "indexed": false,
          "internalType": "uint256",
          "name": "tokenId",
          "type": "uint256"
        },
        {
          "indexed": false,
          "internalType": "address",
          "name": "dhedgePoolAddress",
          "type": "address"
        },
        {
          "indexed": false,
          "internalType": "uint256",
          "name": "poolTokenAmount",
          "type": "uint256"
        }
      ],
      "name": "StakePoolTokens",
      "type": "event"
    },
    {
      "anonymous": false,
      "inputs": [
        {
          "indexed": true,
          "internalType": "address",
          "name": "from",
          "type": "address"
        },
        {
          "indexed": true,
          "internalType": "address",
          "name": "to",
          "type": "address"
        },
        {
          "indexed": true,
          "internalType": "uint256",
          "name": "tokenId",
          "type": "uint256"
        }
      ],
      "name": "Transfer",
      "type": "event"
    },
    {
      "anonymous": false,
      "inputs": [
        {
          "indexed": false,
          "internalType": "address",
          "name": "account",
          "type": "address"
        }
      ],
      "name": "Unpaused",
      "type": "event"
    },
    {
      "anonymous": false,
      "inputs": [
        {
          "indexed": false,
          "internalType": "uint256",
          "name": "tokenId",
          "type": "uint256"
        }
      ],
      "name": "UnstakeDHT",
      "type": "event"
    },
    {
      "anonymous": false,
      "inputs": [
        {
          "indexed": false,
          "internalType": "uint256",
          "name": "tokenId",
          "type": "uint256"
        },
        {
          "indexed": false,
          "internalType": "uint256",
          "name": "newTokedId",
          "type": "uint256"
        }
      ],
      "name": "UnstakePoolTokens",
      "type": "event"
    },
    {
      "inputs": [],
      "name": "POOL_TOKEN_UNIT",
      "outputs": [
        {
          "internalType": "uint256",
          "name": "",
          "type": "uint256"
        }
      ],
      "stateMutability": "view",
      "type": "function"
    },
    {
      "inputs": [],
      "name": "UNIT",
      "outputs": [
        {
          "internalType": "uint256",
          "name": "",
          "type": "uint256"
        }
      ],
      "stateMutability": "view",
      "type": "function"
    },
    {
      "inputs": [
        {
          "internalType": "uint256",
          "name": "tokenId",
          "type": "uint256"
        },
        {
          "internalType": "uint256",
          "name": "dhtAmount",
          "type": "uint256"
        }
      ],
      "name": "addDhtToStake",
      "outputs": [],
      "stateMutability": "nonpayable",
      "type": "function"
    },
    {
      "inputs": [],
      "name": "aggregateStakeStartTime",
      "outputs": [
        {
          "internalType": "uint256",
          "name": "",
          "type": "uint256"
        }
      ],
      "stateMutability": "view",
      "type": "function"
    },
    {
      "inputs": [
        {
          "internalType": "address",
          "name": "to",
          "type": "address"
        },
        {
          "internalType": "uint256",
          "name": "tokenId",
          "type": "uint256"
        }
      ],
      "name": "approve",
      "outputs": [],
      "stateMutability": "nonpayable",
      "type": "function"
    },
    {
      "inputs": [
        {
          "internalType": "address",
          "name": "owner",
          "type": "address"
        }
      ],
      "name": "balanceOf",
      "outputs": [
        {
          "internalType": "uint256",
          "name": "",
          "type": "uint256"
        }
      ],
      "stateMutability": "view",
      "type": "function"
    },
    {
      "inputs": [],
      "name": "baseURI",
      "outputs": [
        {
          "internalType": "string",
          "name": "",
          "type": "string"
        }
      ],
      "stateMutability": "view",
      "type": "function"
    },
    {
      "inputs": [
        {
          "internalType": "uint256",
          "name": "vDHTAmount",
          "type": "uint256"
        },
        {
          "internalType": "uint256",
          "name": "poolTokensStaked",
          "type": "uint256"
        },
        {
          "internalType": "uint256",
          "name": "tokenPriceStart",
          "type": "uint256"
        },
        {
          "internalType": "uint256",
          "name": "tokenPriceFinish",
          "type": "uint256"
        },
        {
          "internalType": "uint256",
          "name": "stakeStartTime",
          "type": "uint256"
        },
        {
          "internalType": "uint256",
          "name": "stakeFinishTime",
          "type": "uint256"
        },
        {
          "internalType": "uint256",
          "name": "stakeEmissionsRate",
          "type": "uint256"
        },
        {
          "components": [
            {
              "internalType": "uint256",
              "name": "stakeDurationDelaySeconds",
              "type": "uint256"
            },
            {
              "internalType": "uint256",
              "name": "maxDurationBoostSeconds",
              "type": "uint256"
            },
            {
              "internalType": "uint256",
              "name": "maxPerformanceBoostNumerator",
              "type": "uint256"
            },
            {
              "internalType": "uint256",
              "name": "maxPerformanceBoostDenominator",
              "type": "uint256"
            },
            {
              "internalType": "uint256",
              "name": "stakingRatio",
              "type": "uint256"
            },
            {
              "internalType": "uint256",
              "name": "emissionsRate",
              "type": "uint256"
            },
            {
              "internalType": "uint256",
              "name": "emissionsRateDenominator",
              "type": "uint256"
            }
          ],
          "internalType": "struct IDhedgeStakingV2Storage.RewardParams",
          "name": "rewardParams",
          "type": "tuple"
        }
      ],
      "name": "calculateDhtRewardAmount",
      "outputs": [
        {
          "internalType": "uint256",
          "name": "",
          "type": "uint256"
        }
      ],
      "stateMutability": "pure",
      "type": "function"
    },
    {
      "inputs": [
        {
          "internalType": "uint256",
          "name": "vDHTAmount",
          "type": "uint256"
        },
        {
          "internalType": "uint256",
          "name": "totalValue",
          "type": "uint256"
        },
        {
          "internalType": "uint256",
          "name": "stakingRatio",
          "type": "uint256"
        }
      ],
      "name": "calculateMaxVDHTAllowed",
      "outputs": [
        {
          "internalType": "uint256",
          "name": "",
          "type": "uint256"
        }
      ],
      "stateMutability": "pure",
      "type": "function"
    },
    {
      "inputs": [
        {
          "internalType": "uint256",
          "name": "tokenPriceStart",
          "type": "uint256"
        },
        {
          "internalType": "uint256",
          "name": "tokenPriceFinish",
          "type": "uint256"
        },
        {
          "internalType": "uint256",
          "name": "maxPerformanceBoostNumerator",
          "type": "uint256"
        },
        {
          "internalType": "uint256",
          "name": "maxPerformanceBoostDenominator",
          "type": "uint256"
        }
      ],
      "name": "calculatePerformanceFactor",
      "outputs": [
        {
          "internalType": "uint256",
          "name": "",
          "type": "uint256"
        }
      ],
      "stateMutability": "pure",
      "type": "function"
    },
    {
      "inputs": [
        {
          "internalType": "uint256",
          "name": "stakeStartTime",
          "type": "uint256"
        },
        {
          "internalType": "uint256",
          "name": "stakeFinishTime",
          "type": "uint256"
        },
        {
          "internalType": "uint256",
          "name": "maxDurationBoostSeconds",
          "type": "uint256"
        }
      ],
      "name": "calculateStakeDurationFactor",
      "outputs": [
        {
          "internalType": "uint256",
          "name": "",
          "type": "uint256"
        }
      ],
      "stateMutability": "pure",
      "type": "function"
    },
    {
      "inputs": [
        {
          "internalType": "uint256",
          "name": "stakeStartTime",
          "type": "uint256"
        },
        {
          "internalType": "uint256",
          "name": "dhtAmount",
          "type": "uint256"
        },
        {
          "internalType": "uint256",
          "name": "stakeFinishTime",
          "type": "uint256"
        },
        {
          "internalType": "uint256",
          "name": "maxVDurationTime",
          "type": "uint256"
        }
      ],
      "name": "calculateVDHT",
      "outputs": [
        {
          "internalType": "uint256",
          "name": "vDHT",
          "type": "uint256"
        }
      ],
      "stateMutability": "pure",
      "type": "function"
    },
    {
      "inputs": [
        {
          "internalType": "uint256",
          "name": "tokenId",
          "type": "uint256"
        }
      ],
      "name": "canClaimAmount",
      "outputs": [
        {
          "internalType": "uint256",
          "name": "claimAmount",
          "type": "uint256"
        }
      ],
      "stateMutability": "view",
      "type": "function"
    },
    {
      "inputs": [
        {
          "internalType": "uint256",
          "name": "claimAmount",
          "type": "uint256"
        }
      ],
      "name": "checkEnoughDht",
      "outputs": [],
      "stateMutability": "view",
      "type": "function"
    },
    {
      "inputs": [
        {
          "internalType": "uint256",
          "name": "tokenId",
          "type": "uint256"
        }
      ],
      "name": "claim",
      "outputs": [],
      "stateMutability": "nonpayable",
      "type": "function"
    },
    {
      "inputs": [
        {
          "internalType": "address",
          "name": "pool",
          "type": "address"
        },
        {
          "internalType": "uint256",
          "name": "cap",
          "type": "uint256"
        }
      ],
      "name": "configurePool",
      "outputs": [],
      "stateMutability": "nonpayable",
      "type": "function"
    },
    {
      "inputs": [
        {
          "internalType": "uint256",
          "name": "tokenId",
          "type": "uint256"
        }
      ],
      "name": "currentRewardsForStake",
      "outputs": [
        {
          "internalType": "uint256",
          "name": "rewardsDHT",
          "type": "uint256"
        }
      ],
      "stateMutability": "view",
      "type": "function"
    },
    {
      "inputs": [],
      "name": "dhtAddress",
      "outputs": [
        {
          "internalType": "address",
          "name": "",
          "type": "address"
        }
      ],
      "stateMutability": "view",
      "type": "function"
    },
    {
      "inputs": [
        {
          "internalType": "address",
          "name": "staker",
          "type": "address"
        }
      ],
      "name": "dhtBalanceOf",
      "outputs": [
        {
          "internalType": "uint256",
          "name": "dht",
          "type": "uint256"
        }
      ],
      "stateMutability": "view",
      "type": "function"
    },
    {
      "inputs": [],
      "name": "dhtCap",
      "outputs": [
        {
          "internalType": "uint256",
          "name": "",
          "type": "uint256"
        }
      ],
      "stateMutability": "view",
      "type": "function"
    },
    {
      "inputs": [],
      "name": "dhtRewarded",
      "outputs": [
        {
          "internalType": "uint256",
          "name": "",
          "type": "uint256"
        }
      ],
      "stateMutability": "view",
      "type": "function"
    },
    {
      "inputs": [],
      "name": "dhtStaked",
      "outputs": [
        {
          "internalType": "uint256",
          "name": "",
          "type": "uint256"
        }
      ],
      "stateMutability": "view",
      "type": "function"
    },
    {
      "inputs": [
        {
          "internalType": "uint256",
          "name": "tokenId",
          "type": "uint256"
        }
      ],
      "name": "getApproved",
      "outputs": [
        {
          "internalType": "address",
          "name": "",
          "type": "address"
        }
      ],
      "stateMutability": "view",
      "type": "function"
    },
    {
      "inputs": [
        {
          "internalType": "address",
          "name": "dhedgePoolAddress",
          "type": "address"
        }
      ],
      "name": "getPoolConfiguration",
      "outputs": [
        {
          "components": [
            {
              "internalType": "bool",
              "name": "configured",
              "type": "bool"
            },
            {
              "internalType": "uint256",
              "name": "stakeCap",
              "type": "uint256"
            },
            {
              "internalType": "uint256",
              "name": "stakedSoFar",
              "type": "uint256"
            }
          ],
          "internalType": "struct IDhedgeStakingV2Storage.PoolConfiguration",
          "name": "",
          "type": "tuple"
        }
      ],
      "stateMutability": "view",
      "type": "function"
    },
    {
      "inputs": [
        {
          "internalType": "uint256",
          "name": "tokenId",
          "type": "uint256"
        }
      ],
      "name": "getStake",
      "outputs": [
        {
          "components": [
            {
              "internalType": "uint256",
              "name": "dhtAmount",
              "type": "uint256"
            },
            {
              "internalType": "uint256",
              "name": "dhtStakeStartTime",
              "type": "uint256"
            },
            {
              "internalType": "address",
              "name": "dhedgePoolAddress",
              "type": "address"
            },
            {
              "internalType": "uint256",
              "name": "dhedgePoolAmount",
              "type": "uint256"
            },
            {
              "internalType": "uint256",
              "name": "dhedgePoolStakeStartTime",
              "type": "uint256"
            },
            {
              "internalType": "uint256",
              "name": "stakeStartTokenPrice",
              "type": "uint256"
            },
            {
              "internalType": "bool",
              "name": "unstaked",
              "type": "bool"
            },
            {
              "internalType": "uint256",
              "name": "unstakeTime",
              "type": "uint256"
            },
            {
              "internalType": "uint256",
              "name": "reward",
              "type": "uint256"
            },
            {
              "internalType": "uint256",
              "name": "claimedReward",
              "type": "uint256"
            },
            {
              "internalType": "uint256",
              "name": "rewardParamsEmissionsRate",
              "type": "uint256"
            },
            {
              "internalType": "uint256",
              "name": "stakeFinishTokenPrice",
              "type": "uint256"
            },
            {
              "internalType": "uint256",
              "name": "vdhtAccruedAtUnstake",
              "type": "uint256"
            },
            {
              "internalType": "uint256",
              "name": "dhedgePoolRemainingExitCooldownAtStakeTime",
              "type": "uint256"
            }
          ],
          "internalType": "struct IDhedgeStakingV2Storage.Stake",
          "name": "",
          "type": "tuple"
        }
      ],
      "stateMutability": "view",
      "type": "function"
    },
    {
      "inputs": [],
      "name": "globalVDHT",
      "outputs": [
        {
          "internalType": "uint256",
          "name": "",
          "type": "uint256"
        }
      ],
      "stateMutability": "view",
      "type": "function"
    },
    {
      "inputs": [
        {
          "internalType": "address",
          "name": "_dhtAddress",
          "type": "address"
        }
      ],
      "name": "initialize",
      "outputs": [],
      "stateMutability": "nonpayable",
      "type": "function"
    },
    {
      "inputs": [
        {
          "internalType": "address",
          "name": "owner",
          "type": "address"
        },
        {
          "internalType": "address",
          "name": "operator",
          "type": "address"
        }
      ],
      "name": "isApprovedForAll",
      "outputs": [
        {
          "internalType": "bool",
          "name": "",
          "type": "bool"
        }
      ],
      "stateMutability": "view",
      "type": "function"
    },
    {
      "inputs": [],
      "name": "maxStakingValue",
      "outputs": [
        {
          "internalType": "uint256",
          "name": "maximumStakingValue",
          "type": "uint256"
        }
      ],
      "stateMutability": "view",
      "type": "function"
    },
    {
      "inputs": [],
      "name": "maxVDurationTimeSeconds",
      "outputs": [
        {
          "internalType": "uint256",
          "name": "",
          "type": "uint256"
        }
      ],
      "stateMutability": "view",
      "type": "function"
    },
    {
      "inputs": [],
      "name": "name",
      "outputs": [
        {
          "internalType": "string",
          "name": "",
          "type": "string"
        }
      ],
      "stateMutability": "view",
      "type": "function"
    },
    {
      "inputs": [
        {
          "internalType": "uint256",
          "name": "dhtAmount",
          "type": "uint256"
        }
      ],
      "name": "newStake",
      "outputs": [
        {
          "internalType": "uint256",
          "name": "tokenId",
          "type": "uint256"
        }
      ],
      "stateMutability": "nonpayable",
      "type": "function"
    },
    {
      "inputs": [],
      "name": "numberOfPoolsConfigured",
      "outputs": [
        {
          "internalType": "uint256",
          "name": "",
          "type": "uint256"
        }
      ],
      "stateMutability": "view",
      "type": "function"
    },
    {
      "inputs": [],
      "name": "owner",
      "outputs": [
        {
          "internalType": "address",
          "name": "",
          "type": "address"
        }
      ],
      "stateMutability": "view",
      "type": "function"
    },
    {
      "inputs": [
        {
          "internalType": "uint256",
          "name": "tokenId",
          "type": "uint256"
        }
      ],
      "name": "ownerOf",
      "outputs": [
        {
          "internalType": "address",
          "name": "",
          "type": "address"
        }
      ],
      "stateMutability": "view",
      "type": "function"
    },
    {
      "inputs": [],
      "name": "paused",
      "outputs": [
        {
          "internalType": "bool",
          "name": "",
          "type": "bool"
        }
      ],
      "stateMutability": "view",
      "type": "function"
    },
    {
      "inputs": [
        {
          "internalType": "uint256",
          "name": "",
          "type": "uint256"
        }
      ],
      "name": "poolConfiguredByIndex",
      "outputs": [
        {
          "internalType": "address",
          "name": "",
          "type": "address"
        }
      ],
      "stateMutability": "view",
      "type": "function"
    },
    {
      "inputs": [],
      "name": "renounceOwnership",
      "outputs": [],
      "stateMutability": "nonpayable",
      "type": "function"
    },
    {
      "inputs": [],
      "name": "rewardParams",
      "outputs": [
        {
          "internalType": "uint256",
          "name": "stakeDurationDelaySeconds",
          "type": "uint256"
        },
        {
          "internalType": "uint256",
          "name": "maxDurationBoostSeconds",
          "type": "uint256"
        },
        {
          "internalType": "uint256",
          "name": "maxPerformanceBoostNumerator",
          "type": "uint256"
        },
        {
          "internalType": "uint256",
          "name": "maxPerformanceBoostDenominator",
          "type": "uint256"
        },
        {
          "internalType": "uint256",
          "name": "stakingRatio",
          "type": "uint256"
        },
        {
          "internalType": "uint256",
          "name": "emissionsRate",
          "type": "uint256"
        },
        {
          "internalType": "uint256",
          "name": "emissionsRateDenominator",
          "type": "uint256"
        }
      ],
      "stateMutability": "view",
      "type": "function"
    },
    {
      "inputs": [],
      "name": "rewardStreamingTime",
      "outputs": [
        {
          "internalType": "uint256",
          "name": "",
          "type": "uint256"
        }
      ],
      "stateMutability": "view",
      "type": "function"
    },
    {
      "inputs": [
        {
          "internalType": "address",
          "name": "from",
          "type": "address"
        },
        {
          "internalType": "address",
          "name": "to",
          "type": "address"
        },
        {
          "internalType": "uint256",
          "name": "tokenId",
          "type": "uint256"
        }
      ],
      "name": "safeTransferFrom",
      "outputs": [],
      "stateMutability": "nonpayable",
      "type": "function"
    },
    {
      "inputs": [
        {
          "internalType": "address",
          "name": "from",
          "type": "address"
        },
        {
          "internalType": "address",
          "name": "to",
          "type": "address"
        },
        {
          "internalType": "uint256",
          "name": "tokenId",
          "type": "uint256"
        },
        {
          "internalType": "bytes",
          "name": "_data",
          "type": "bytes"
        }
      ],
      "name": "safeTransferFrom",
      "outputs": [],
      "stateMutability": "nonpayable",
      "type": "function"
    },
    {
      "inputs": [
        {
          "internalType": "address",
          "name": "operator",
          "type": "address"
        },
        {
          "internalType": "bool",
          "name": "approved",
          "type": "bool"
        }
      ],
      "name": "setApprovalForAll",
      "outputs": [],
      "stateMutability": "nonpayable",
      "type": "function"
    },
    {
      "inputs": [
        {
          "internalType": "uint256",
          "name": "newDHTCap",
          "type": "uint256"
        }
      ],
      "name": "setDHTCap",
      "outputs": [],
      "stateMutability": "nonpayable",
      "type": "function"
    },
    {
      "inputs": [
        {
          "internalType": "uint256",
          "name": "newEmissionsRate",
          "type": "uint256"
        }
      ],
      "name": "setEmissionsRate",
      "outputs": [],
      "stateMutability": "nonpayable",
      "type": "function"
    },
    {
      "inputs": [
        {
          "internalType": "uint256",
          "name": "newMaxDurationBoostSeconds",
          "type": "uint256"
        }
      ],
      "name": "setMaxDurationBoostSeconds",
      "outputs": [],
      "stateMutability": "nonpayable",
      "type": "function"
    },
    {
      "inputs": [
        {
          "internalType": "uint256",
          "name": "newMaxPerformanceBoostNumerator",
          "type": "uint256"
        }
      ],
      "name": "setMaxPerformanceBoostNumerator",
      "outputs": [],
      "stateMutability": "nonpayable",
      "type": "function"
    },
    {
      "inputs": [
        {
          "internalType": "uint256",
          "name": "newMaxVDurationTimeSeconds",
          "type": "uint256"
        }
      ],
      "name": "setMaxVDurationTimeSeconds",
      "outputs": [],
      "stateMutability": "nonpayable",
      "type": "function"
    },
    {
      "inputs": [
        {
          "internalType": "uint256",
          "name": "newRewardStreamingTime",
          "type": "uint256"
        }
      ],
      "name": "setRewardStreamingTime",
      "outputs": [],
      "stateMutability": "nonpayable",
      "type": "function"
    },
    {
      "inputs": [
        {
          "internalType": "uint256",
          "name": "newStakeDurationDelaySeconds",
          "type": "uint256"
        }
      ],
      "name": "setStakeDurationDelaySeconds",
      "outputs": [],
      "stateMutability": "nonpayable",
      "type": "function"
    },
    {
      "inputs": [
        {
          "internalType": "uint256",
          "name": "newStakingRatio",
          "type": "uint256"
        }
      ],
      "name": "setStakingRatio",
      "outputs": [],
      "stateMutability": "nonpayable",
      "type": "function"
    },
    {
      "inputs": [
        {
          "internalType": "contract IDhedgeStakingV2NFTJson",
          "name": "newTokenUriGenerator",
          "type": "address"
        }
      ],
      "name": "setTokenUriGenerator",
      "outputs": [],
      "stateMutability": "nonpayable",
      "type": "function"
    },
    {
      "inputs": [
        {
          "internalType": "uint256",
          "name": "tokenId",
          "type": "uint256"
        },
        {
          "internalType": "address",
          "name": "dhedgePoolAddress",
          "type": "address"
        },
        {
          "internalType": "uint256",
          "name": "dhedgePoolAmount",
          "type": "uint256"
        }
      ],
      "name": "stakePoolTokens",
      "outputs": [],
      "stateMutability": "nonpayable",
      "type": "function"
    },
    {
      "inputs": [
        {
          "internalType": "uint256",
          "name": "",
          "type": "uint256"
        }
      ],
      "name": "stakes",
      "outputs": [
        {
          "internalType": "uint256",
          "name": "dhtAmount",
          "type": "uint256"
        },
        {
          "internalType": "uint256",
          "name": "dhtStakeStartTime",
          "type": "uint256"
        },
        {
          "internalType": "address",
          "name": "dhedgePoolAddress",
          "type": "address"
        },
        {
          "internalType": "uint256",
          "name": "dhedgePoolAmount",
          "type": "uint256"
        },
        {
          "internalType": "uint256",
          "name": "dhedgePoolStakeStartTime",
          "type": "uint256"
        },
        {
          "internalType": "uint256",
          "name": "stakeStartTokenPrice",
          "type": "uint256"
        },
        {
          "internalType": "bool",
          "name": "unstaked",
          "type": "bool"
        },
        {
          "internalType": "uint256",
          "name": "unstakeTime",
          "type": "uint256"
        },
        {
          "internalType": "uint256",
          "name": "reward",
          "type": "uint256"
        },
        {
          "internalType": "uint256",
          "name": "claimedReward",
          "type": "uint256"
        },
        {
          "internalType": "uint256",
          "name": "rewardParamsEmissionsRate",
          "type": "uint256"
        },
        {
          "internalType": "uint256",
          "name": "stakeFinishTokenPrice",
          "type": "uint256"
        },
        {
          "internalType": "uint256",
          "name": "vdhtAccruedAtUnstake",
          "type": "uint256"
        },
        {
          "internalType": "uint256",
          "name": "dhedgePoolRemainingExitCooldownAtStakeTime",
          "type": "uint256"
        }
      ],
      "stateMutability": "view",
      "type": "function"
    },
    {
      "inputs": [
        {
          "internalType": "bytes4",
          "name": "interfaceId",
          "type": "bytes4"
        }
      ],
      "name": "supportsInterface",
      "outputs": [
        {
          "internalType": "bool",
          "name": "",
          "type": "bool"
        }
      ],
      "stateMutability": "view",
      "type": "function"
    },
    {
      "inputs": [],
      "name": "symbol",
      "outputs": [
        {
          "internalType": "string",
          "name": "",
          "type": "string"
        }
      ],
      "stateMutability": "view",
      "type": "function"
    },
    {
      "inputs": [
        {
          "internalType": "uint256",
          "name": "index",
          "type": "uint256"
        }
      ],
      "name": "tokenByIndex",
      "outputs": [
        {
          "internalType": "uint256",
          "name": "",
          "type": "uint256"
        }
      ],
      "stateMutability": "view",
      "type": "function"
    },
    {
      "inputs": [
        {
          "internalType": "address",
          "name": "owner",
          "type": "address"
        },
        {
          "internalType": "uint256",
          "name": "index",
          "type": "uint256"
        }
      ],
      "name": "tokenOfOwnerByIndex",
      "outputs": [
        {
          "internalType": "uint256",
          "name": "",
          "type": "uint256"
        }
      ],
      "stateMutability": "view",
      "type": "function"
    },
    {
      "inputs": [
        {
          "internalType": "uint256",
          "name": "tokenId",
          "type": "uint256"
        }
      ],
      "name": "tokenURI",
      "outputs": [
        {
          "internalType": "string",
          "name": "",
          "type": "string"
        }
      ],
      "stateMutability": "view",
      "type": "function"
    },
    {
      "inputs": [],
      "name": "tokenUriGenerator",
      "outputs": [
        {
          "internalType": "contract IDhedgeStakingV2NFTJson",
          "name": "",
          "type": "address"
        }
      ],
      "stateMutability": "view",
      "type": "function"
    },
    {
      "inputs": [],
      "name": "totalStakingValue",
      "outputs": [
        {
          "internalType": "uint256",
          "name": "",
          "type": "uint256"
        }
      ],
      "stateMutability": "view",
      "type": "function"
    },
    {
      "inputs": [],
      "name": "totalSupply",
      "outputs": [
        {
          "internalType": "uint256",
          "name": "",
          "type": "uint256"
        }
      ],
      "stateMutability": "view",
      "type": "function"
    },
    {
      "inputs": [
        {
          "internalType": "address",
          "name": "from",
          "type": "address"
        },
        {
          "internalType": "address",
          "name": "to",
          "type": "address"
        },
        {
          "internalType": "uint256",
          "name": "tokenId",
          "type": "uint256"
        }
      ],
      "name": "transferFrom",
      "outputs": [],
      "stateMutability": "nonpayable",
      "type": "function"
    },
    {
      "inputs": [
        {
          "internalType": "address",
          "name": "newOwner",
          "type": "address"
        }
      ],
      "name": "transferOwnership",
      "outputs": [],
      "stateMutability": "nonpayable",
      "type": "function"
    },
    {
      "inputs": [
        {
          "internalType": "uint256",
          "name": "tokenId",
          "type": "uint256"
        },
        {
          "internalType": "uint256",
          "name": "dhtAmount",
          "type": "uint256"
        }
      ],
      "name": "unstakeDHT",
      "outputs": [],
      "stateMutability": "nonpayable",
      "type": "function"
    },
    {
      "inputs": [
        {
          "internalType": "uint256",
          "name": "tokenId",
          "type": "uint256"
        }
      ],
      "name": "unstakePoolTokens",
      "outputs": [
        {
          "internalType": "uint256",
          "name": "newTokenId",
          "type": "uint256"
        }
      ],
      "stateMutability": "nonpayable",
      "type": "function"
    },
    {
      "inputs": [
        {
          "internalType": "address",
          "name": "staker",
          "type": "address"
        }
      ],
      "name": "vDHTBalanceOf",
      "outputs": [
        {
          "internalType": "uint256",
          "name": "vDHT",
          "type": "uint256"
        }
      ],
      "stateMutability": "view",
      "type": "function"
    },
    {
      "inputs": [
        {
          "internalType": "uint256",
          "name": "tokenId",
          "type": "uint256"
        }
      ],
      "name": "vDHTBalanceOfStake",
      "outputs": [
        {
          "internalType": "uint256",
          "name": "vDHT",
          "type": "uint256"
        }
      ],
      "stateMutability": "view",
      "type": "function"
    }
  ],
  "bytecode": "0x608060405234801561001057600080fd5b50615e5780620000216000396000f3fe608060405234801561001057600080fd5b506004361061033c5760003560e01c806376346914116101b5578063c87b56dd116100f5578063c87b56dd14610685578063c93bd89914610698578063ca2dee4d146106a0578063cc5f5f21146106b3578063ce325bf8146106c6578063d1e8af0c146106e6578063d3aa4d3a146106f9578063d5a44f861461070c578063d7394c6314610739578063e5095b2b1461074c578063e7c201d91461075f578063e985e9c514610772578063eeaa4f2c14610785578063f2be3a6614610798578063f2fde38b146107a0578063fab42c90146107b3578063fb64884e146107c65761033c565b8063763469141461059a578063770346c6146105b557806377ca6f2b146105bd57806379eba717146105d057806380c8e7cb146105e357806386091394146105eb5780638da5cb5b146105f357806395d89b41146105fb5780639d8e2177146103c75780639feacf1f14610603578063a22cb46514610616578063a2c1f8ae14610629578063a898e93514610631578063aeb2c24e14610644578063b3e459ad1461064c578063b88d4fde1461065f578063c4d66de8146106725761033c565b80633b09de81116102805780633b09de81146104a257806342842e0e146104aa5780634f6ccce7146104bd5780635195e368146104d057806352057fec146104d85780635c975abb146104e05780635de9bdf6146104e85780636352211e146104f0578063637de3e31461050357806367bfc8701461050b5780636c0360eb1461051e5780636ef4a2e6146105265780636f44bb69146105395780636fa3a5ee1461055957806370a082311461056c578063715018a61461057f578063723050e4146105875761033c565b806301ead68a1461034157806301ffc9a71461036a57806302c9651e1461038a57806306fdde031461039f57806307e0b773146103b457806307ed5e25146103c7578063081812fc146103cf578063095ea7b3146103ef5780630ee8d2d51461040257806318160ddd146104155780631bfc03a21461041d57806323b872dd1461043057806329379cc3146104435780632dce0715146104565780632f745c591461046957806336e9a7c21461047c578063379607f51461048f575b600080fd5b61035461034f366004614f45565b6107d9565b6040516103619190615929565b60405180910390f35b61037d610378366004614e12565b610818565b6040516103619190615140565b61039d610398366004614ea3565b61083b565b005b6103a7610912565b604051610361919061514b565b6103546103c2366004614f76565b6109a8565b610354610a53565b6103e26103dd366004614ea3565b610a5f565b604051610361919061512c565b61039d6103fd366004614de7565b610ac1565b61039d610410366004614ea3565b610b97565b610354610c3c565b61039d61042b366004614ea3565b610c4d565b61039d61043e366004614cd0565b610cfb565b61039d610451366004614ea3565b610d52565b610354610464366004614c7c565b610e17565b610354610477366004614de7565b610e63565b61035461048a366004614c7c565b610e8e565b61039d61049d366004614ea3565b610edb565b61035461104f565b61039d6104b8366004614cd0565b611055565b6103546104cb366004614ea3565b611070565b610354611086565b61035461109a565b61037d6110a0565b6103546110aa565b6103e26104fe366004614ea3565b6110b0565b6103546110d8565b610354610519366004614ea3565b6110de565b6103a7611238565b610354610534366004614ea3565b611299565b61054c610547366004614c7c565b611647565b60405161036191906158f7565b61039d610567366004614ea3565b611696565b61035461057a366004614c7c565b61175a565b61039d6117c2565b61039d610595366004614ea3565b61185c565b6105a2611924565b6040516103619796959493929190615a2f565b61035461193c565b6103546105cb366004614ea3565b611942565b61039d6105de366004614de7565b611a1f565b6103e2611b3f565b610354611b4e565b6103e2611b54565b6103a7611b63565b610354610611366004614ea3565b611bc4565b61039d610624366004614db6565b611d84565b610354611e85565b61039d61063f366004614ef9565b611e8b565b61035461200b565b61035461065a366004614f1a565b612011565b61039d61066d366004614d10565b61203a565b61039d610680366004614c7c565b612098565b6103a7610693366004614ea3565b61226b565b6103e26124e0565b61039d6106ae366004614ea3565b6124ef565b61039d6106c1366004614ea3565b6125a3565b6106d96106d4366004614ea3565b612648565b604051610361919061591a565b61039d6106f4366004614ed3565b61270e565b61039d610707366004614ef9565b612a45565b61071f61071a366004614ea3565b612bcb565b6040516103619e9d9c9b9a999897969594939291906159c3565b61039d610747366004614c7c565b612c46565b6103e261075a366004614ea3565b612d05565b61035461076d366004614f1a565b612d20565b61037d610780366004614c98565b612d75565b61039d610793366004614ea3565b612da3565b610354612e6b565b61039d6107ae366004614c7c565b612e9f565b6103546107c1366004614f45565b612f90565b6103546107d4366004614ea3565b613009565b6000806107e6848761311d565b9050828111156107f85784915061080f565b61080c83610806878461317a565b906131d3565b91505b50949350505050565b6001600160e01b03198116600090815260ac602052604090205460ff165b919050565b610843613237565b6001600160a01b0316610854611b54565b6001600160a01b03161461089d576040805162461bcd60e51b81526020600482018190526024820152600080516020615d1d833981519152604482015290519081900360640190fd5b600081116108c65760405162461bcd60e51b81526004016108bd90615424565b60405180910390fd5b601481106108e65760405162461bcd60e51b81526004016108bd9061527b565b6076819055604051600080516020615dd883398151915290610907906153c4565b60405180910390a150565b60e38054604080516020601f600260001961010060018816150201909516949094049384018190048102820181019092528281526060939092909183018282801561099e5780601f106109735761010080835404028352916020019161099e565b820191906000526020600020905b81548152906001019060200180831161098157829003601f168201915b5050505050905090565b6000806109bf888885604001518660600151612f90565b905060006109d287878660200151612d20565b905060006109ec670de0b6b3a76400006108068c8e61317a565b905060006109ff8d838860800151612011565b9050610a42670de0b6b3a7640000610806670de0b6b3a76400006108068a60c001516108068d610a3c8b610a3c8e8c61317a90919063ffffffff16565b9061317a565b9d9c50505050505050505050505050565b670de0b6b3a764000081565b6000610a6a8261323b565b610aa55760405162461bcd60e51b815260040180806020018281038252602c815260200180615cf1602c913960400191505060405180910390fd5b50600090815260e160205260409020546001600160a01b031690565b6000610acc826110b0565b9050806001600160a01b0316836001600160a01b03161415610b1f5760405162461bcd60e51b8152600401808060200182810382526021815260200180615d866021913960400191505060405180910390fd5b806001600160a01b0316610b31613237565b6001600160a01b03161480610b4d5750610b4d81610780613237565b610b885760405162461bcd60e51b8152600401808060200182810382526038815260200180615bf56038913960400191505060405180910390fd5b610b928383613248565b505050565b610b9f613237565b6001600160a01b0316610bb0611b54565b6001600160a01b031614610bf9576040805162461bcd60e51b81526020600482018190526024820152600080516020615d1d833981519152604482015290519081900360640190fd5b6276a7008110610c1b5760405162461bcd60e51b81526004016108bd906158c4565b6072819055604051600080516020615dd883398151915290610907906157ae565b6000610c4860df6132b6565b905090565b610c55613237565b6001600160a01b0316610c66611b54565b6001600160a01b031614610caf576040805162461bcd60e51b81526020600482018190526024820152600080516020615d1d833981519152604482015290519081900360640190fd5b6a05ca4ec2a79a7f67000000811115610cda5760405162461bcd60e51b81526004016108bd906155ce565b606f819055604051600080516020615dd8833981519152906109079061515e565b610d0c610d06613237565b826132c1565b610d475760405162461bcd60e51b8152600401808060200182810382526031815260200180615da76031913960400191505060405180910390fd5b610b9283838361335d565b610d5a613237565b6001600160a01b0316610d6b611b54565b6001600160a01b031614610db4576040805162461bcd60e51b81526020600482018190526024820152600080516020615d1d833981519152604482015290519081900360640190fd5b60008111610dd45760405162461bcd60e51b81526004016108bd90615424565b62278d008110610df65760405162461bcd60e51b81526004016108bd90615663565b6071819055604051600080516020615dd88339815191529061090790615633565b600080610e238361175a565b905060005b81811015610e5c576000610e3c8583610e63565b9050610e51610e4a82611942565b85906134a9565b935050600101610e28565b5050919050565b6001600160a01b038216600090815260de60205260408120610e859083613501565b90505b92915050565b600080610e9a8361175a565b905060005b81811015610e5c576000610eb38583610e63565b600081815260696020526040902054909150610ed09085906134a9565b935050600101610e9f565b6002610142541415610f22576040805162461bcd60e51b815260206004820152601f6024820152600080516020615b07833981519152604482015290519081900360640190fd5b600261014255610f3233826132c1565b610f4e5760405162461bcd60e51b81526004016108bd90615869565b6000818152606960205260409020600681015460ff161515600114610f855760405162461bcd60e51b81526004016108bd9061589d565b6000610f90836110de565b905060008111610fb25760405162461bcd60e51b81526004016108bd906151e3565b610fbb816124ef565b6009820154610fca90826134a9565b6009830181905560088301541015610ff45760405162461bcd60e51b81526004016108bd9061556c565b60655461100b906001600160a01b0316338361350d565b7f022e3d29644ead4083349ca84d24bcac368b2461819b70f5921fea15de4dec4d838260405161103c9291906159b5565b60405180910390a1505060016101425550565b606c5481565b610b928383836040518060200160405280600081525061203a565b60008061107e60df8461355f565b509392505050565b6000610c48606e54606d54426070546107d9565b606d5481565b6101105460ff1690565b606f5481565b6000610e8882604051806060016040528060298152602001615c576029913960df919061357b565b60665481565b600081815260696020908152604080832081516101c0810183528154815260018201549381019390935260028101546001600160a01b0316918301919091526003810154606083015260048101546080830152600581015460a0830152600681015460ff16151560c0830152600781015460e0830181905260088201546101008401526009820154610120840152600a820154610140840152600b820154610160840152600c820154610180840152600d909101546101a08301526111a7576000915050610836565b60006111c36071548361010001516131d390919063ffffffff16565b905060006111de8360e001514261311d90919063ffffffff16565b9050607154811115611206576101208301516101008401516111ff9161311d565b9350611230565b6000611212838361317a565b905061122c8461012001518261311d90919063ffffffff16565b9450505b505050919050565b60e68054604080516020601f600260001961010060018816150201909516949094049384018190048102820181019092528281526060939092909183018282801561099e5780601f106109735761010080835404028352916020019161099e565b60006112a36110a0565b156112e8576040805162461bcd60e51b815260206004820152601060248201526f14185d5cd8589b194e881c185d5cd95960821b604482015290519081900360640190fd5b600261014254141561132f576040805162461bcd60e51b815260206004820152601f6024820152600080516020615b07833981519152604482015290519081900360640190fd5b60026101425561133f33836132c1565b61135b5760405162461bcd60e51b81526004016108bd90615869565b6000828152606960205260409020600d8101546004820154429161137f91906134a9565b1061139c5760405162461bcd60e51b81526004016108bd906152d4565b600681015460ff16156113c15760405162461bcd60e51b81526004016108bd90615721565b60028101546001600160a01b03166113eb5760405162461bcd60e51b81526004016108bd90615395565b60068101805460ff19166001179055426007820155600281015460408051633ffcdacb60e11b815290516000926001600160a01b031691637ff9b596916004808301926020929190829003018186803b15801561144757600080fd5b505afa15801561145b573d6000803e3d6000fd5b505050506040513d601f19601f8201168201806040525081019061147f9190614ebb565b600b83018190559050600061149385611942565b600c84018190556072546004850154919250906114b190429061311d565b1061152557600383015460058401546004850154600a8601546040805160e08101825260725481526073546020820152607454918101919091526075546060820152607654608082015260775460a082015260785460c082015261151f9486949093909288924291906109a8565b60088401555b825460008455611542611537876110b0565b828660010154613588565b9450600061156d670de0b6b3a76400006108068760030154886005015461317a90919063ffffffff16565b6002808701546001600160a01b031660009081526068602052604090200154909150611599908261311d565b6002808701546001600160a01b031660009081526068602052604090200155606b546115c5908261311d565b606b556008850154606c546115d9916134a9565b606c55600385015460028601546115fd916001600160a01b0390911690339061350d565b7f5a738eefb2b079f60643eb218e2e6e8bfb8e168ed8a0a9434ee3f42455db934d878760405161162e9291906159b5565b60405180910390a1505060016101425550919392505050565b61164f614b3e565b506001600160a01b03166000908152606860209081526040918290208251606081018452815460ff1615158152600182015492810192909252600201549181019190915290565b61169e613237565b6001600160a01b03166116af611b54565b6001600160a01b0316146116f8576040805162461bcd60e51b81526020600482018190526024820152600080516020615d1d833981519152604482015290519081900360640190fd5b606481116117185760405162461bcd60e51b81526004016108bd9061574b565b6107d081106117395760405162461bcd60e51b81526004016108bd906152fd565b6074819055604051600080516020615dd8833981519152906109079061520d565b60006001600160a01b0382166117a15760405162461bcd60e51b815260040180806020018281038252602a815260200180615c2d602a913960400191505060405180910390fd5b6001600160a01b038216600090815260de60205260409020610e88906132b6565b6117ca613237565b6001600160a01b03166117db611b54565b6001600160a01b031614611824576040805162461bcd60e51b81526020600482018190526024820152600080516020615d1d833981519152604482015290519081900360640190fd5b6033546040516000916001600160a01b031690600080516020615d3d833981519152908390a3603380546001600160a01b0319169055565b611864613237565b6001600160a01b0316611875611b54565b6001600160a01b0316146118be576040805162461bcd60e51b81526020600482018190526024820152600080516020615d1d833981519152604482015290519081900360640190fd5b62278d0081116118e05760405162461bcd60e51b81526004016108bd90615454565b6303c2670081106119035760405162461bcd60e51b81526004016108bd90615362565b6070819055604051600080516020615dd8833981519152906109079061577a565b60725460735460745460755460765460775460785487565b60715481565b600081815260696020908152604080832081516101c081018352815480825260018301549482019490945260028201546001600160a01b0316928101929092526003810154606083015260048101546080830152600581015460a0830152600681015460ff16151560c0830152600781015460e083015260088101546101008301526009810154610120830152600a810154610140830152600b810154610160830152600c810154610180830152600d01546101a08201529015611a1957611a1681602001518260000151426070546107d9565b91505b50919050565b611a27613237565b6001600160a01b0316611a38611b54565b6001600160a01b031614611a81576040805162461bcd60e51b81526020600482018190526024820152600080516020615d1d833981519152604482015290519081900360640190fd5b6001600160a01b038216611aa75760405162461bcd60e51b81526004016108bd90615836565b6001600160a01b0382166000908152606860205260409020805460ff16611b0f578054600160ff199091168117825560668054600090815260676020526040902080546001600160a01b0319166001600160a01b03871617905554611b0b916134a9565b6066555b60018101829055604051600080516020615dd883398151915290611b32906157e4565b60405180910390a1505050565b6065546001600160a01b031681565b606e5481565b6033546001600160a01b031690565b60e48054604080516020601f600260001961010060018816150201909516949094049384018190048102820181019092528281526060939092909183018282801561099e5780601f106109735761010080835404028352916020019161099e565b600081815260696020908152604080832081516101c0810183528154815260018201549381019390935260028101546001600160a01b03169183018290526003810154606084015260048101546080840152600581015460a0840152600681015460ff16151560c0840152600781015460e084015260088101546101008401526009810154610120840152600a810154610140840152600b810154610160840152600c810154610180840152600d01546101a083015215611d7b57600081604001516001600160a01b0316637ff9b5966040518163ffffffff1660e01b815260040160206040518083038186803b158015611cbe57600080fd5b505afa158015611cd2573d6000803e3d6000fd5b505050506040513d601f19601f82011682018060405250810190611cf69190614ebb565b9050611d73611d0485611942565b83606001518460a001518486608001514288610140015160726040518060e00160405290816000820154815260200160018201548152602001600282015481526020016003820154815260200160048201548152602001600582015481526020016006820154815250506109a8565b925050611a19565b50600092915050565b611d8c613237565b6001600160a01b0316826001600160a01b03161415611dee576040805162461bcd60e51b815260206004820152601960248201527822a9219b99189d1030b8383937bb32903a379031b0b63632b960391b604482015290519081900360640190fd5b8060e26000611dfb613237565b6001600160a01b03908116825260208083019390935260409182016000908120918716808252919093529120805460ff191692151592909217909155611e3f613237565b6001600160a01b03167f17307eab39ab6107e8899845ad3d59bd9653f200f220920489ca2b5937696c318360405180821515815260200191505060405180910390a35050565b60705481565b611e936110a0565b15611ed8576040805162461bcd60e51b815260206004820152601060248201526f14185d5cd8589b194e881c185d5cd95960821b604482015290519081900360640190fd5b6002610142541415611f1f576040805162461bcd60e51b815260206004820152601f6024820152600080516020615b07833981519152604482015290519081900360640190fd5b600261014255611f2f33836132c1565b611f4b5760405162461bcd60e51b81526004016108bd90615869565b60008281526069602052604090206006015460ff1615611f7d5760405162461bcd60e51b81526004016108bd90615721565b60008111611f9d5760405162461bcd60e51b81526004016108bd906152a9565b606554611fb5906001600160a01b03163330846136f6565b611fbf8282613750565b611fc8816137fd565b7fc7cf0b02d7bc323bf022631c2ddba1d26bf440897517e27d79acd9ddfe486e688282604051611ff99291906159b5565b60405180910390a15050600161014255565b606b5481565b60008061201e848461317a565b905080851161202d578461202f565b805b9150505b9392505050565b61204b612045613237565b836132c1565b6120865760405162461bcd60e51b8152600401808060200182810382526031815260200180615da76031913960400191505060405180910390fd5b6120928484848461386a565b50505050565b600054610100900460ff16806120b157506120b16138bc565b806120bf575060005460ff16155b6120fa5760405162461bcd60e51b815260040180806020018281038252602e815260200180615c80602e913960400191505060405180910390fd5b600054610100900460ff16158015612125576000805460ff1961ff0019909116610100171660011790555b6121746040518060400160405280600f81526020016e223432b233b2a9ba30b5b4b733ab1960891b8152506040518060400160405280600681526020016522242a29ab1960d11b8152506138cd565b61217c61398a565b612184613a3c565b61218c613ad9565b6001600160a01b0382166121b25760405162461bcd60e51b81526004016108bd90615603565b606580546001600160a01b0319166001600160a01b03841617905569d3c21bcecceda1000000606f5562093a80607155630167e98060708190556040805160e08101825262278d00808252602082018490526101f49282018390526103e8606083018190526006608084018190526105dc60a0850181905260c090940182905260729290925560739490945560749290925560758390556076919091556077556078558015612267576000805461ff00191690555b5050565b600081815260696020908152604080832081516101c0810183528154815260018201549381019390935260028101546001600160a01b0316918301829052600381015460608481019190915260048201546080850152600582015460a0850152600682015460ff16151560c0850152600782015460e085015260088201546101008501526009820154610120850152600a820154610140850152600b820154610160850152600c820154610180850152600d909101546101a0840152928391156124225782604001516001600160a01b03166395d89b416040518163ffffffff1660e01b815260040160006040518083038186803b15801561236c57600080fd5b505afa158015612380573d6000803e3d6000fd5b505050506040513d6000823e601f3d908101601f191682016040526123a89190810190614e3a565b915082604001516001600160a01b0316637ff9b5966040518163ffffffff1660e01b815260040160206040518083038186803b1580156123e757600080fd5b505afa1580156123fb573d6000803e3d6000fd5b505050506040513d601f19601f8201168201806040525081019061241f9190614ebb565b90505b6079546001600160a01b031663455564b9868561243e82611942565b6124478a611bc4565b606554889088906001600160a01b03166124608e6110b0565b6040518963ffffffff1660e01b8152600401612483989796959493929190615951565b60006040518083038186803b15801561249b57600080fd5b505afa1580156124af573d6000803e3d6000fd5b505050506040513d6000823e601f3d908101601f191682016040526124d79190810190614e3a565b95945050505050565b6079546001600160a01b031681565b606d546065546040516370a0823160e01b81526000926125819290916001600160a01b03909116906370a082319061252b90309060040161512c565b60206040518083038186803b15801561254357600080fd5b505afa158015612557573d6000803e3d6000fd5b505050506040513d601f19601f8201168201806040525081019061257b9190614ebb565b9061311d565b9050818110156122675760405162461bcd60e51b81526004016108bd9061580b565b6125ab613237565b6001600160a01b03166125bc611b54565b6001600160a01b031614612605576040805162461bcd60e51b81526020600482018190526024820152600080516020615d1d833981519152604482015290519081900360640190fd5b610bb88111156126275760405162461bcd60e51b81526004016108bd906154b2565b6077819055604051600080516020615dd883398151915290610907906156c2565b612650614b61565b5060009081526069602090815260409182902082516101c0810184528154815260018201549281019290925260028101546001600160a01b0316928201929092526003820154606082015260048201546080820152600582015460a0820152600682015460ff16151560c0820152600782015460e082015260088201546101008201526009820154610120820152600a820154610140820152600b820154610160820152600c820154610180820152600d909101546101a082015290565b6127166110a0565b1561275b576040805162461bcd60e51b815260206004820152601060248201526f14185d5cd8589b194e881c185d5cd95960821b604482015290519081900360640190fd5b60026101425414156127a2576040805162461bcd60e51b815260206004820152601f6024820152600080516020615b07833981519152604482015290519081900360640190fd5b6002610142556127b233846132c1565b6127ce5760405162461bcd60e51b81526004016108bd90615869565b6127d782613b6e565b6000838152606960205260409020600681015460ff161561280a5760405162461bcd60e51b81526004016108bd90615721565b60028101546001600160a01b0316156128355760405162461bcd60e51b81526004016108bd906156ec565b61284a6001600160a01b0384163330856136f6565b6000836001600160a01b0316637ff9b5966040518163ffffffff1660e01b815260040160206040518083038186803b15801561288557600080fd5b505afa158015612899573d6000803e3d6000fd5b505050506040513d601f19601f820116820180604052508101906128bd9190614ebb565b905060006128d7670de0b6b3a7640000610806848761317a565b6001600160a01b03861660009081526068602052604090206002015490915061290090826134a9565b6001600160a01b03861660009081526068602052604090206002015561292585613bab565b606b5461293290826134a9565b606b5561293d613c0e565b6002830180546001600160a01b0319166001600160a01b038716908117909155600384018590556005840183905542600480860191909155604051635c7515b760e11b815263b8ea2b6e916129949133910161512c565b60206040518083038186803b1580156129ac57600080fd5b505afa1580156129c0573d6000803e3d6000fd5b505050506040513d601f19601f820116820180604052508101906129e49190614ebb565b600d840155600283015460038401546040517ff8065474b96b14d04e28353bf0e555e6a1b84c2072ffca3264479960f32c950692612a2f928a926001600160a01b0390921691615932565b60405180910390a1505060016101425550505050565b612a4d6110a0565b15612a92576040805162461bcd60e51b815260206004820152601060248201526f14185d5cd8589b194e881c185d5cd95960821b604482015290519081900360640190fd5b6002610142541415612ad9576040805162461bcd60e51b815260206004820152601f6024820152600080516020615b07833981519152604482015290519081900360640190fd5b600261014255612ae933836132c1565b612b055760405162461bcd60e51b81526004016108bd90615869565b60008281526069602052604090208054821115612b345760405162461bcd60e51b81526004016108bd90615511565b6000612b3f84611942565b8254909150612b4e908461311d565b82556000612b5b85611942565b9050612b7084612b6b848461311d565b613c39565b606554612b87906001600160a01b0316338661350d565b7f0486f59d911399148879c8bc55de161183910e4b4b8126db49a5bd155bbeda5385604051612bb69190615929565b60405180910390a15050600161014255505050565b606960205260009081526040902080546001820154600283015460038401546004850154600586015460068701546007880154600889015460098a0154600a8b0154600b8c0154600c8d0154600d909d01549b9c9a9b6001600160a01b03909a169a98999798969760ff90961696949593949293919290918e565b612c4e613237565b6001600160a01b0316612c5f611b54565b6001600160a01b031614612ca8576040805162461bcd60e51b81526020600482018190526024820152600080516020615d1d833981519152604482015290519081900360640190fd5b6001600160a01b038116612cce5760405162461bcd60e51b81526004016108bd90615181565b607980546001600160a01b0319166001600160a01b038316179055604051600080516020615dd883398151915290610907906154e3565b6067602052600090815260409020546001600160a01b031681565b6000838311612d3157506000612033565b6000612d3d848661311d565b9050828110612d5757670de0b6b3a7640000915050612033565b612d6d8361080683670de0b6b3a764000061317a565b915050612033565b6001600160a01b03918216600090815260e26020908152604080832093909416825291909152205460ff1690565b612dab613237565b6001600160a01b0316612dbc611b54565b6001600160a01b031614612e05576040805162461bcd60e51b81526020600482018190526024820152600080516020615d1d833981519152604482015290519081900360640190fd5b62278d008111612e275760405162461bcd60e51b81526004016108bd90615454565b6303c267008110612e4a5760405162461bcd60e51b81526004016108bd90615362565b6073819055604051600080516020615dd883398151915290610907906151af565b6000610c48607260050154610806607260060154610a3c607260040154610806606c54606f5461311d90919063ffffffff16565b612ea7613237565b6001600160a01b0316612eb8611b54565b6001600160a01b031614612f01576040805162461bcd60e51b81526020600482018190526024820152600080516020615d1d833981519152604482015290519081900360640190fd5b6001600160a01b038116612f465760405162461bcd60e51b8152600401808060200182810382526026815260200180615b596026913960400191505060405180910390fd5b6033546040516001600160a01b03808416921690600080516020615d3d83398151915290600090a3603380546001600160a01b0319166001600160a01b0392909216919091179055565b6000848411612fa157506000613001565b6000612fad858761311d565b90506000612fd4612fbe868961317a565b61080684610a3c88670de0b6b3a764000061317a565b9050670de0b6b3a7640000811115612ff857670de0b6b3a764000092505050613001565b91506130019050565b949350505050565b60006130136110a0565b15613058576040805162461bcd60e51b815260206004820152601060248201526f14185d5cd8589b194e881c185d5cd95960821b604482015290519081900360640190fd5b600261014254141561309f576040805162461bcd60e51b815260206004820152601f6024820152600080516020615b07833981519152604482015290519081900360640190fd5b60026101425581156130c3576065546130c3906001600160a01b03163330856136f6565b6130ce338342613588565b90506130d9826137fd565b7fb298d3ab32c679086f18d987352596889499f5f20f410e2adb6a02f3b14abc04818360405161310a9291906159b5565b60405180910390a1600161014255919050565b600082821115613174576040805162461bcd60e51b815260206004820152601e60248201527f536166654d6174683a207375627472616374696f6e206f766572666c6f770000604482015290519081900360640190fd5b50900390565b60008261318957506000610e88565b8282028284828161319657fe5b0414610e855760405162461bcd60e51b8152600401808060200182810382526021815260200180615cd06021913960400191505060405180910390fd5b6000808211613226576040805162461bcd60e51b815260206004820152601a602482015279536166654d6174683a206469766973696f6e206279207a65726f60301b604482015290519081900360640190fd5b81838161322f57fe5b049392505050565b3390565b6000610e8860df83613cc2565b600081815260e16020526040902080546001600160a01b0319166001600160a01b038416908117909155819061327d826110b0565b6001600160a01b03167f8c5be1e5ebec7d5bd14f71427d1e84f3dd0314c0f7b2291e5b200ac8c7c3b92560405160405180910390a45050565b6000610e8882613cce565b60006132cc8261323b565b6133075760405162461bcd60e51b815260040180806020018281038252602c815260200180615bc9602c913960400191505060405180910390fd5b6000613312836110b0565b9050806001600160a01b0316846001600160a01b0316148061334d5750836001600160a01b031661334284610a5f565b6001600160a01b0316145b8061300157506130018185612d75565b826001600160a01b0316613370826110b0565b6001600160a01b0316146133b55760405162461bcd60e51b8152600401808060200182810382526029815260200180615d5d6029913960400191505060405180910390fd5b6001600160a01b0382166133fa5760405162461bcd60e51b8152600401808060200182810382526024815260200180615b7f6024913960400191505060405180910390fd5b613405838383613cd2565b613410600082613248565b6001600160a01b038316600090815260de602052604090206134329082613d16565b506001600160a01b038216600090815260de602052604090206134559082613d22565b5061346260df8284613d2e565b5080826001600160a01b0316846001600160a01b03167fddf252ad1be2c89b69c2b068fc378daa952ba7f163c4a11628f55a4df523b3ef60405160405180910390a4505050565b600082820183811015610e85576040805162461bcd60e51b815260206004820152601b60248201527a536166654d6174683a206164646974696f6e206f766572666c6f7760281b604482015290519081900360640190fd5b6000610e858383613d44565b604080516001600160a01b038416602482015260448082018490528251808303909101815260649091019091526020810180516001600160e01b031663a9059cbb60e01b179052610b92908490613da8565b600080808061356e8686613e59565b9097909650945050505050565b6000613001848484613ed4565b600061359384613f9e565b9050604051806101c0016040528084815260200183815260200160006001600160a01b0316815260200160008152602001600081526020016000815260200160001515815260200160008152602001600081526020016000815260200160726005015481526020016000815260200160008152602001600081525060696000838152602001908152602001600020600082015181600001556020820151816001015560408201518160020160006101000a8154816001600160a01b0302191690836001600160a01b03160217905550606082015181600301556080820151816004015560a0820151816005015560c08201518160060160006101000a81548160ff02191690831515021790555060e082015181600701556101008201518160080155610120820151816009015561014082015181600a015561016082015181600b015561018082015181600c01556101a082015181600d01559050509392505050565b604080516001600160a01b0380861660248301528416604482015260648082018490528251808303909101815260849091019091526020810180516001600160e01b03166323b872dd60e01b179052612092908590613da8565b600081116137705760405162461bcd60e51b81526004016108bd90615244565b6000828152606960205260409020600681015460ff16156137a35760405162461bcd60e51b81526004016108bd90615541565b60018101548154670de0b6b3a76400009142039060006137c382876134a9565b905060006137e1856108066137da8582888561317a565b879061317a565b90506137ed428261311d565b6001870155509093555050505050565b6000613807611086565b606d5490915061381790836134a9565b606d819055670de0b6b3a764000090156138605761385861385182610806606d5461080686610a3c8960705461317a90919063ffffffff16565b429061311d565b606e55610b92565b6000606e55505050565b61387584848461335d565b61388184848484613fc0565b6120925760405162461bcd60e51b8152600401808060200182810382526032815260200180615b276032913960400191505060405180910390fd5b60006138c730614128565b15905090565b600054610100900460ff16806138e657506138e66138bc565b806138f4575060005460ff16155b61392f5760405162461bcd60e51b815260040180806020018281038252602e815260200180615c80602e913960400191505060405180910390fd5b600054610100900460ff1615801561395a576000805460ff1961ff0019909116610100171660011790555b61396261412e565b61396a6141ce565b613974838361426b565b8015610b92576000805461ff0019169055505050565b600054610100900460ff16806139a357506139a36138bc565b806139b1575060005460ff16155b6139ec5760405162461bcd60e51b815260040180806020018281038252602e815260200180615c80602e913960400191505060405180910390fd5b600054610100900460ff16158015613a17576000805460ff1961ff0019909116610100171660011790555b613a1f61412e565b613a27614350565b8015613a39576000805461ff00191690555b50565b600054610100900460ff1680613a555750613a556138bc565b80613a63575060005460ff16155b613a9e5760405162461bcd60e51b815260040180806020018281038252602e815260200180615c80602e913960400191505060405180910390fd5b600054610100900460ff16158015613ac9576000805460ff1961ff0019909116610100171660011790555b613ad161412e565b613a27614437565b600054610100900460ff1680613af25750613af26138bc565b80613b00575060005460ff16155b613b3b5760405162461bcd60e51b815260040180806020018281038252602e815260200180615c80602e913960400191505060405180910390fd5b600054610100900460ff16158015613b66576000805460ff1961ff0019909116610100171660011790555b613a276144e3565b6001600160a01b03811660009081526068602052604090205460ff161515600114613a395760405162461bcd60e51b81526004016108bd90615487565b6001600160a01b0381166000908152606860209081526040918290208251606081018452815460ff161515815260018201549281018390526002909101549281018390529111156122675760405162461bcd60e51b81526004016108bd906153ed565b613c16612e6b565b606b541115613c375760405162461bcd60e51b81526004016108bd90615597565b565b80821015613c595760405162461bcd60e51b81526004016108bd9061532d565b6000613c678261257b611086565b606d54909150613c77908461311d565b606d819055670de0b6b3a764000090613c935742606e55612092565b613cb961385182610806606d5461080686610a3c8960705461317a90919063ffffffff16565b606e5550505050565b6000610e85838361458a565b5490565b6001600160a01b0382161580613cef57506001600160a01b038316155b613d0b5760405162461bcd60e51b81526004016108bd90615696565b610b92838383610b92565b6000610e8583836145a2565b6000610e858383614668565b600061300184846001600160a01b0385166146b2565b81546000908210613d865760405162461bcd60e51b8152600401808060200182810382526022815260200180615ae56022913960400191505060405180910390fd5b826000018281548110613d9557fe5b9060005260206000200154905092915050565b6000613dfd826040518060400160405280602081526020017f5361666545524332303a206c6f772d6c6576656c2063616c6c206661696c6564815250856001600160a01b03166147499092919063ffffffff16565b805190915015610b9257808060200190516020811015613e1c57600080fd5b5051610b925760405162461bcd60e51b815260040180806020018281038252602a815260200180615df8602a913960400191505060405180910390fd5b815460009081908310613e9d5760405162461bcd60e51b8152600401808060200182810382526022815260200180615cae6022913960400191505060405180910390fd5b6000846000018481548110613eae57fe5b906000526020600020906002020190508060000154816001015492509250509250929050565b60008281526001840160205260408120548281613f6f5760405162461bcd60e51b81526004018080602001828103825283818151815260200191508051906020019080838360005b83811015613f34578181015183820152602001613f1c565b50505050905090810190601f168015613f615780820380516001836020036101000a031916815260200191505b509250505060405180910390fd5b50846000016001820381548110613f8257fe5b9060005260206000209060020201600101549150509392505050565b6000613faa606a613cce565b9050613fb68282614758565b610836606a614772565b6000613fd4846001600160a01b0316614128565b613fe057506001613001565b60006140ee630a85bd0160e11b613ff5613237565b88878760405160240180856001600160a01b03168152602001846001600160a01b0316815260200183815260200180602001828103825283818151815260200191508051906020019080838360005b8381101561405c578181015183820152602001614044565b50505050905090810190601f1680156140895780820380516001836020036101000a031916815260200191505b5095505050505050604051602081830303815290604052906001600160e01b0319166020820180516001600160e01b038381831617835250505050604051806060016040528060328152602001615b27603291396001600160a01b0388169190614749565b9050600081806020019051602081101561410757600080fd5b50516001600160e01b031916630a85bd0160e11b1492505050949350505050565b3b151590565b600054610100900460ff168061414757506141476138bc565b80614155575060005460ff16155b6141905760405162461bcd60e51b815260040180806020018281038252602e815260200180615c80602e913960400191505060405180910390fd5b600054610100900460ff16158015613a27576000805460ff1961ff0019909116610100171660011790558015613a39576000805461ff001916905550565b600054610100900460ff16806141e757506141e76138bc565b806141f5575060005460ff16155b6142305760405162461bcd60e51b815260040180806020018281038252602e815260200180615c80602e913960400191505060405180910390fd5b600054610100900460ff1615801561425b576000805460ff1961ff0019909116610100171660011790555b613a276301ffc9a760e01b61477b565b600054610100900460ff168061428457506142846138bc565b80614292575060005460ff16155b6142cd5760405162461bcd60e51b815260040180806020018281038252602e815260200180615c80602e913960400191505060405180910390fd5b600054610100900460ff161580156142f8576000805460ff1961ff0019909116610100171660011790555b825161430b9060e3906020860190614bdb565b50815161431f9060e4906020850190614bdb565b506143306380ac58cd60e01b61477b565b614340635b5e139f60e01b61477b565b61397463780e9d6360e01b61477b565b600054610100900460ff168061436957506143696138bc565b80614377575060005460ff16155b6143b25760405162461bcd60e51b815260040180806020018281038252602e815260200180615c80602e913960400191505060405180910390fd5b600054610100900460ff161580156143dd576000805460ff1961ff0019909116610100171660011790555b60006143e7613237565b603380546001600160a01b0319166001600160a01b03831690811790915560405191925090600090600080516020615d3d833981519152908290a3508015613a39576000805461ff001916905550565b600054610100900460ff168061445057506144506138bc565b8061445e575060005460ff16155b6144995760405162461bcd60e51b815260040180806020018281038252602e815260200180615c80602e913960400191505060405180910390fd5b600054610100900460ff161580156144c4576000805460ff1961ff0019909116610100171660011790555b610110805460ff191690558015613a39576000805461ff001916905550565b600054610100900460ff16806144fc57506144fc6138bc565b8061450a575060005460ff16155b6145455760405162461bcd60e51b815260040180806020018281038252602e815260200180615c80602e913960400191505060405180910390fd5b600054610100900460ff16158015614570576000805460ff1961ff0019909116610100171660011790555b6001610142558015613a39576000805461ff001916905550565b60009081526001919091016020526040902054151590565b6000818152600183016020526040812054801561465e57835460001980830191908101906000908790839081106145d557fe5b90600052602060002001549050808760000184815481106145f257fe5b60009182526020808320909101929092558281526001898101909252604090209084019055865487908061462257fe5b60019003818190600052602060002001600090559055866001016000878152602001908152602001600020600090556001945050505050610e88565b6000915050610e88565b6000614674838361458a565b6146aa57508154600181810184556000848152602080822090930184905584548482528286019093526040902091909155610e88565b506000610e88565b600082815260018401602052604081205480614717575050604080518082018252838152602080820184815286546001818101895560008981528481209551600290930290950191825591519082015586548684528188019092529290912055612033565b8285600001600183038154811061472a57fe5b9060005260206000209060020201600101819055506000915050612033565b606061300184846000856147fe565b612267828260405180602001604052806000815250614959565b80546001019055565b6001600160e01b031980821614156147d9576040805162461bcd60e51b815260206004820152601c60248201527b115490cc4d8d4e881a5b9d985b1a59081a5b9d195c999858d9481a5960221b604482015290519081900360640190fd5b6001600160e01b031916600090815260ac60205260409020805460ff19166001179055565b60608247101561483f5760405162461bcd60e51b8152600401808060200182810382526026815260200180615ba36026913960400191505060405180910390fd5b61484885614128565b614899576040805162461bcd60e51b815260206004820152601d60248201527f416464726573733a2063616c6c20746f206e6f6e2d636f6e7472616374000000604482015290519081900360640190fd5b600080866001600160a01b031685876040518082805190602001908083835b602083106148d75780518252601f1990920191602091820191016148b8565b6001836020036101000a03801982511681845116808217855250505050505090500191505060006040518083038185875af1925050503d8060008114614939576040519150601f19603f3d011682016040523d82523d6000602084013e61493e565b606091505b509150915061494e8282866149ab565b979650505050505050565b6149638383614a11565b6149706000848484613fc0565b610b925760405162461bcd60e51b8152600401808060200182810382526032815260200180615b276032913960400191505060405180910390fd5b606083156149ba575081612033565b8251156149ca5782518084602001fd5b60405162461bcd60e51b8152602060048201818152845160248401528451859391928392604401919085019080838360008315613f34578181015183820152602001613f1c565b6001600160a01b038216614a6c576040805162461bcd60e51b815260206004820181905260248201527f4552433732313a206d696e7420746f20746865207a65726f2061646472657373604482015290519081900360640190fd5b614a758161323b565b15614ac6576040805162461bcd60e51b815260206004820152601c60248201527b115490cdcc8c4e881d1bdad95b88185b1c9958591e481b5a5b9d195960221b604482015290519081900360640190fd5b614ad260008383613cd2565b6001600160a01b038216600090815260de60205260409020614af49082613d22565b50614b0160df8284613d2e565b5060405181906001600160a01b038416906000907fddf252ad1be2c89b69c2b068fc378daa952ba7f163c4a11628f55a4df523b3ef908290a45050565b604051806060016040528060001515815260200160008152602001600081525090565b604051806101c00160405280600081526020016000815260200160006001600160a01b03168152602001600081526020016000815260200160008152602001600015158152602001600081526020016000815260200160008152602001600081526020016000815260200160008152602001600081525090565b828054600181600116156101000203166002900490600052602060002090601f016020900481019282614c115760008555614c57565b82601f10614c2a57805160ff1916838001178555614c57565b82800160010185558215614c57579182015b82811115614c57578251825591602001919060010190614c3c565b50614c63929150614c67565b5090565b5b80821115614c635760008155600101614c68565b600060208284031215614c8d578081fd5b8135610e8581615acf565b60008060408385031215614caa578081fd5b8235614cb581615acf565b91506020830135614cc581615acf565b809150509250929050565b600080600060608486031215614ce4578081fd5b8335614cef81615acf565b92506020840135614cff81615acf565b929592945050506040919091013590565b60008060008060808587031215614d25578081fd5b8435614d3081615acf565b93506020850135614d4081615acf565b92506040850135915060608501356001600160401b03811115614d61578182fd5b8501601f81018713614d71578182fd5b8035614d84614d7f82615a82565b615a5f565b818152886020838501011115614d98578384fd5b81602084016020830137908101602001929092525092959194509250565b60008060408385031215614dc8578182fd5b8235614dd381615acf565b915060208301358015158114614cc5578182fd5b60008060408385031215614df9578182fd5b8235614e0481615acf565b946020939093013593505050565b600060208284031215614e23578081fd5b81356001600160e01b031981168114610e85578182fd5b600060208284031215614e4b578081fd5b81516001600160401b03811115614e60578182fd5b8201601f81018413614e70578182fd5b8051614e7e614d7f82615a82565b818152856020838501011115614e92578384fd5b6124d7826020830160208601615aa3565b600060208284031215614eb4578081fd5b5035919050565b600060208284031215614ecc578081fd5b5051919050565b600080600060608486031215614ee7578283fd5b833592506020840135614cff81615acf565b60008060408385031215614f0b578182fd5b50508035926020909101359150565b600080600060608486031215614f2e578081fd5b505081359360208301359350604090920135919050565b60008060008060808587031215614f5a578182fd5b5050823594602084013594506040840135936060013592509050565b600080600080600080600080888a036101c0811215614f93578687fd5b8935985060208a0135975060408a0135965060608a0135955060808a0135945060a08a0135935060c08a0135925060e060df1982011215614fd2578182fd5b5060405160e081018181106001600160401b0382111715614fef57fe5b806040525060e08a013581526101008a013560208201526101208a013560408201526101408a013560608201526101608a013560808201526101808a013560a08201526101a08a013560c0820152809150509295985092959890939650565b6001600160a01b03169052565b15159052565b60008151808452615079816020860160208601615aa3565b601f01601f19169290920160200192915050565b805182526020810151602083015260408101516150ad604084018261504e565b50606081015160608301526080810151608083015260a081015160a083015260c08101516150de60c084018261505b565b5060e08181015190830152610100808201519083015261012080820151908301526101408082015190830152610160808201519083015261018080820151908301526101a090810151910152565b6001600160a01b0391909116815260200190565b901515815260200190565b600060208252610e856020830184615061565b60208082526009908201526807365744448544361760bc1b604082015260600190565b60208082526014908201527343616e6e6f74206265206164647265737328302960601b604082015260600190565b6020808252601a90820152797365744d61784475726174696f6e426f6f73745365636f6e647360301b604082015260600190565b60208082526010908201526f4e6f7468696e6720746f20636c61696d60801b604082015260600190565b6020808252601f908201527f7365744d6178506572666f726d616e6365426f6f73744e756d657261746f7200604082015260600190565b6020808252601f908201527f4d757374207374616b6520736f6d65206164646974696f6e616c206468742e00604082015260600190565b60208082526014908201527304d757374206265206c657373207468616e2032360641b604082015260600190565b602080825260119082015270135d5cdd08185919081cdbdb5948191a1d607a1b604082015260600190565b6020808252600f908201526e636f6f6c646f776e2061637469766560881b604082015260600190565b6020808252601690820152754d757374206265206c657373207468616e203230302560501b604082015260600190565b6020808252818101527f646874416d6f756e74206d757374206265203d3e207644485441636372756564604082015260600190565b6020808252601990820152784d757374206265206c657373207468616e203220796561727360381b604082015260600190565b602080825260159082015274139bc81c1bdbdb081d1bdad95b9cc81cdd185ad959605a1b604082015260600190565b6020808252600f908201526e7365745374616b696e67526174696f60881b604082015260600190565b6020808252601e908201527f43617020666f7220706f6f6c2077696c6c2062652065786365656465642e0000604082015260600190565b60208082526016908201527504d7573742062652067726561746572207468616e20360541b604082015260600190565b6020808252601990820152784d757374206265206d6f7265207468616e203330206461797360381b604082015260600190565b6020808252601190820152702837b7b6103737ba1030b63637bbb2b21760791b604082015260600190565b6020808252601790820152764d757374206265206c6f776572207468616e203330302560481b604082015260600190565b60208082526014908201527339b2ba2a37b5b2b72ab934a3b2b732b930ba37b960611b604082015260600190565b6020808252601690820152752737ba1032b737bab3b41039ba30b5b2b21032343a1760511b604082015260600190565b60208082526011908201527020b63932b0b23c903ab739ba30b5b2b21760791b604082015260600190565b60208082526011908201527021b630b4b6b4b733903a379036bab1b41760791b604082015260600190565b6020808252601d908201527f5374616b696e67206361702077696c6c2062652065786365656465642e000000604082015260600190565b6020808252818101527f4d757374206265206c6f776572207468616e2037206d696c6c696f6e20646874604082015260600190565b602080825260169082015275191a1d1059191c995cdcc81a5cc81c995c5d5a5c995960521b604082015260600190565b60208082526016908201527573657452657761726453747265616d696e6754696d6560501b604082015260600190565b6020808252601990820152784d757374206265206c657373207468616e203330206461797360381b604082015260600190565b602080825260129082015271151bdad95b881a5cc81cdbdd5b189bdd5b9960721b604082015260600190565b60208082526010908201526f736574456d697373696f6e735261746560801b604082015260600190565b6020808252601b908201527a2837b7b6102a37b5b2b7399030b63932b0b23c9039ba30b5b2b21760291b604082015260600190565b60208082526010908201526f105b1c9958591e481d5b9cdd185ad95960821b604082015260600190565b6020808252601590820152744d757374206265206d6f7265207468616e2031302560581b604082015260600190565b6020808252601a90820152797365744d6178564475726174696f6e54696d655365636f6e647360301b604082015260600190565b6020808252601c908201527b7365745374616b654475726174696f6e44656c61795365636f6e647360201b604082015260600190565b6020808252600d908201526c18dbdb999a59dd5c99541bdbdb609a1b604082015260600190565b6020808252601190820152702932bbb0b93239903232b83632ba32b21760791b604082015260600190565b602080825260199082015278506f6f6c2063616e6e6f74206265206164647265737328302960381b604082015260600190565b6020808252601a908201527926bab9ba1031329030b8383937bb32b21037b91037bbb732b91760311b604082015260600190565b6020808252600d908201526c2737ba102ab739ba30b5b2b21760991b604082015260600190565b6020808252601990820152784d757374206265206c657373207468616e203930206461797360381b604082015260600190565b815115158152602080830151908201526040918201519181019190915260600190565b6101c08101610e88828461508d565b90815260200190565b9283526001600160a01b03919091166020830152604082015260600190565b60006102a08a8352615966602084018b61508d565b886101e0840152876102008401528061022084015261598781840188615061565b61024084019690965250506001600160a01b0392831661026082015291166102809091015295945050505050565b918252602082015260400190565b9d8e5260208e019c909c526001600160a01b039a909a1660408d015260608c019890985260808b019690965260a08a019490945291151560c089015260e08801526101008701526101208601526101408501526101608401526101808301526101a08201526101c00190565b968752602087019590955260408601939093526060850191909152608084015260a083015260c082015260e00190565b6040518181016001600160401b0381118282101715615a7a57fe5b604052919050565b60006001600160401b03821115615a9557fe5b50601f01601f191660200190565b60005b83811015615abe578181015183820152602001615aa6565b838111156120925750506000910152565b6001600160a01b0381168114613a3957600080fdfe456e756d657261626c655365743a20696e646578206f7574206f6620626f756e64735265656e7472616e637947756172643a207265656e7472616e742063616c6c004552433732313a207472616e7366657220746f206e6f6e20455243373231526563656976657220696d706c656d656e7465724f776e61626c653a206e6577206f776e657220697320746865207a65726f20616464726573734552433732313a207472616e7366657220746f20746865207a65726f2061646472657373416464726573733a20696e73756666696369656e742062616c616e636520666f722063616c6c4552433732313a206f70657261746f7220717565727920666f72206e6f6e6578697374656e7420746f6b656e4552433732313a20617070726f76652063616c6c6572206973206e6f74206f776e6572206e6f7220617070726f76656420666f7220616c6c4552433732313a2062616c616e636520717565727920666f7220746865207a65726f20616464726573734552433732313a206f776e657220717565727920666f72206e6f6e6578697374656e7420746f6b656e496e697469616c697a61626c653a20636f6e747261637420697320616c726561647920696e697469616c697a6564456e756d657261626c654d61703a20696e646578206f7574206f6620626f756e6473536166654d6174683a206d756c7469706c69636174696f6e206f766572666c6f774552433732313a20617070726f76656420717565727920666f72206e6f6e6578697374656e7420746f6b656e4f776e61626c653a2063616c6c6572206973206e6f7420746865206f776e65728be0079c531659141344cd1fd0a4f28419497f9722a3daafe3b4186f6b6457e04552433732313a207472616e73666572206f6620746f6b656e2074686174206973206e6f74206f776e4552433732313a20617070726f76616c20746f2063757272656e74206f776e65724552433732313a207472616e736665722063616c6c6572206973206e6f74206f776e6572206e6f7220617070726f7665642a187da20163582a863d51103d3f0eeb25238ed59c945293838f3168ff2f337e5361666545524332303a204552433230206f7065726174696f6e20646964206e6f742073756363656564a264697066735822122074fff249f5d095c720b6f396548531b29cb7619897281fdcf6f1be0b4ffbb48b64736f6c63430007060033",
  "linkReferences": {},
  "deployedLinkReferences": {}
}