{
  "_format": "hh-sol-artifact-1",
  "contractName": "DhedgeOptionMarketWrapperForLyra",
  "sourceName": "contracts/utils/lyra/DhedgeOptionMarketWrapperForLyra.sol",
  "abi": [
    {
      "inputs": [
        {
          "internalType": "contract ILyraRegistry",
          "name": "_lyraRegistry",
          "type": "address"
        },
        {
          "internalType": "address",
          "name": "_aaveLendingPool",
          "type": "address"
        }
      ],
      "stateMutability": "nonpayable",
      "type": "constructor"
    },
    {
      "inputs": [],
      "name": "MARKET_VIEWER",
      "outputs": [
        {
          "internalType": "bytes32",
          "name": "",
          "type": "bytes32"
        }
      ],
      "stateMutability": "view",
      "type": "function"
    },
    {
      "inputs": [],
      "name": "MARKET_WRAPPER",
      "outputs": [
        {
          "internalType": "bytes32",
          "name": "",
          "type": "bytes32"
        }
      ],
      "stateMutability": "view",
      "type": "function"
    },
    {
      "inputs": [],
      "name": "SYNTHETIX_ADAPTER",
      "outputs": [
        {
          "internalType": "bytes32",
          "name": "",
          "type": "bytes32"
        }
      ],
      "stateMutability": "view",
      "type": "function"
    },
    {
      "inputs": [],
      "name": "aaveLendingPool",
      "outputs": [
        {
          "internalType": "contract ILendingPool",
          "name": "",
          "type": "address"
        }
      ],
      "stateMutability": "view",
      "type": "function"
    },
    {
      "inputs": [
        {
          "internalType": "address[]",
          "name": "assets",
          "type": "address[]"
        },
        {
          "internalType": "uint256[]",
          "name": "amounts",
          "type": "uint256[]"
        },
        {
          "internalType": "uint256[]",
          "name": "premiums",
          "type": "uint256[]"
        },
        {
          "internalType": "address",
          "name": "originator",
          "type": "address"
        },
        {
          "internalType": "bytes",
          "name": "params",
          "type": "bytes"
        }
      ],
      "name": "executeOperation",
      "outputs": [
        {
          "internalType": "bool",
          "name": "success",
          "type": "bool"
        }
      ],
      "stateMutability": "nonpayable",
      "type": "function"
    },
    {
      "inputs": [
        {
          "components": [
            {
              "internalType": "contract IOptionMarket",
              "name": "optionMarket",
              "type": "address"
            },
            {
              "internalType": "uint256",
              "name": "strikeId",
              "type": "uint256"
            },
            {
              "internalType": "uint256",
              "name": "positionId",
              "type": "uint256"
            },
            {
              "internalType": "uint256",
              "name": "iterations",
              "type": "uint256"
            },
            {
              "internalType": "uint256",
              "name": "setCollateralTo",
              "type": "uint256"
            },
            {
              "internalType": "uint256",
              "name": "currentCollateral",
              "type": "uint256"
            },
            {
              "internalType": "enum IOptionMarket.OptionType",
              "name": "optionType",
              "type": "uint8"
            },
            {
              "internalType": "uint256",
              "name": "amount",
              "type": "uint256"
            },
            {
              "internalType": "uint256",
              "name": "minCost",
              "type": "uint256"
            },
            {
              "internalType": "uint256",
              "name": "maxCost",
              "type": "uint256"
            },
            {
              "internalType": "uint256",
              "name": "inputAmount",
              "type": "uint256"
            },
            {
              "internalType": "contract IERC20",
              "name": "inputAsset",
              "type": "address"
            }
          ],
          "internalType": "struct IOptionMarketWrapper.OptionPositionParams",
          "name": "closeParams",
          "type": "tuple"
        }
      ],
      "name": "getAmountOfQuoteToBorrow",
      "outputs": [
        {
          "internalType": "uint256",
          "name": "",
          "type": "uint256"
        }
      ],
      "stateMutability": "view",
      "type": "function"
    },
    {
      "inputs": [],
      "name": "getOptionMarketViewer",
      "outputs": [
        {
          "internalType": "contract IOptionMarketViewer",
          "name": "",
          "type": "address"
        }
      ],
      "stateMutability": "view",
      "type": "function"
    },
    {
      "inputs": [],
      "name": "getOptionMarketWrapper",
      "outputs": [
        {
          "internalType": "contract IOptionMarketWrapper",
          "name": "",
          "type": "address"
        }
      ],
      "stateMutability": "view",
      "type": "function"
    },
    {
      "inputs": [],
      "name": "getSynthetixAdapter",
      "outputs": [
        {
          "internalType": "contract ISynthetixAdapter",
          "name": "",
          "type": "address"
        }
      ],
      "stateMutability": "view",
      "type": "function"
    },
    {
      "inputs": [],
      "name": "lyraRegistry",
      "outputs": [
        {
          "internalType": "contract ILyraRegistry",
          "name": "",
          "type": "address"
        }
      ],
      "stateMutability": "view",
      "type": "function"
    },
    {
      "inputs": [
        {
          "components": [
            {
              "internalType": "address",
              "name": "optionMarket",
              "type": "address"
            },
            {
              "internalType": "uint256",
              "name": "positionId",
              "type": "uint256"
            }
          ],
          "internalType": "struct LyraOptionMarketWrapperContractGuard.OptionPosition",
          "name": "dhedgeStoredPosition",
          "type": "tuple"
        },
        {
          "internalType": "uint256",
          "name": "portion",
          "type": "uint256"
        },
        {
          "internalType": "address",
          "name": "recipient",
          "type": "address"
        }
      ],
      "name": "tryCloseAndForceClosePosition",
      "outputs": [],
      "stateMutability": "nonpayable",
      "type": "function"
    }
  ],
  "bytecode": "0x60c06040523480156200001157600080fd5b506040516200265d3803806200265d833981016040819052620000349162000053565b6001600160601b0319606092831b8116608052911b1660a052620000aa565b6000806040838503121562000066578182fd5b8251620000738162000091565b6020840151909250620000868162000091565b809150509250929050565b6001600160a01b0381168114620000a757600080fd5b50565b60805160601c60a05160601c61256b620000f2600039806106d95280610f28528061159552806116ff52508061016252806116875280611723528061175e525061256b6000f3fe608060405234801561001057600080fd5b50600436106100995760003560e01c80634f4630da1461009e57806354ae0c74146100bc5780635e3c0dcc146100d15780636a66d552146100e6578063920f5c84146100f9578063ab78ac9914610119578063cd4ac1b714610121578063d2450c7614610129578063e9d337b814610131578063ee9e0e6a14610139578063faf8840b14610141575b600080fd5b6100a6610149565b6040516100b3919061222d565b60405180910390f35b6100cf6100ca366004611f9f565b6101fc565b005b6100d9610cc6565b6040516100b39190612340565b6100d96100f4366004611e55565b610cda565b61010c610107366004611bb7565b610f1b565b6040516100b39190612335565b6100a661166e565b6100d96116d0565b6100d96116e8565b6100a66116fd565b6100a6611721565b6100a6611745565b604051623f970360e91b81526000906001600160a01b037f00000000000000000000000000000000000000000000000000000000000000001690637f2e0600906101a7906c26a0a925a2aa2fab24a2aba2a960991b90600401612340565b60206040518083038186803b1580156101bf57600080fd5b505afa1580156101d3573d6000803e3d6000fd5b505050506040513d601f19601f820116820180604052508101906101f79190611b9b565b905090565b6000610206610149565b845160405163c71b7e5360e01b81526001600160a01b03929092169163c71b7e53916102349160040161222d565b6101406040518083038186803b15801561024d57600080fd5b505afa158015610261573d6000803e3d6000fd5b505050506040513d601f19601f820116820180604052508101906102859190611d20565b905060008160a001516001600160a01b03166399fbab8886602001516040518263ffffffff1660e01b81526004016102bd9190612340565b60c06040518083038186803b1580156102d557600080fd5b505afa1580156102e9573d6000803e3d6000fd5b505050506040513d601f19601f8201168201806040525081019061030d919061201a565b9050600061031c8383876117a4565b905060028160c00151600481111561033057fe5b148061034b575060038160c00151600481111561034957fe5b145b80610365575060048160c00151600481111561036357fe5b145b1561054e578051602083015160405163067b5e5d60e51b815260009283926001600160a01b039091169163cf6bcba0916103a191600401612340565b604080518083038186803b1580156103b857600080fd5b505afa1580156103cc573d6000803e3d6000fd5b505050506040513d601f19601f820116820180604052508101906103f09190612135565b9150915060006103fe61166e565b8451604051630fb75cc960e31b81526001600160a01b039290921691637dbae6489161042c9160040161222d565b60206040518083038186803b15801561044457600080fd5b505afa158015610458573d6000803e3d6000fd5b505050506040513d601f19601f8201168201806040525081019061047c9190611cee565b9050600086604001516001600160a01b031663a57ce6828660c001518686866104b68b60e001518d6060015161189490919063ffffffff16565b6040518663ffffffff1660e01b81526004016104d695949392919061235f565b60206040518083038186803b1580156104ee57600080fd5b505afa158015610502573d6000803e3d6000fd5b505050506040513d601f19601f820116820180604052508101906105269190611cee565b905080856080015110156105495760006080860152606086015160e08601523397505b505050505b6000610558611745565b90508360a001516001600160a01b031663095ea7b38284604001516040518363ffffffff1660e01b815260040161059092919061231c565b600060405180830381600087803b1580156105aa57600080fd5b505af11580156105be573d6000803e3d6000fd5b50600292506105cb915050565b8260c0015160048111156105db57fe5b14156107575760006105ec83610cda565b60408051600180825281830190925291925060009190602080830190803683370190505090508561010001518160008151811061062557fe5b6001600160a01b039290921660209283029190910190910152604080516001808252818301909252600091816020016020820280368337019050509050828160008151811061067057fe5b60209081029190910101526040805160018082528183019092526000918160200160208202803683370190505090506000866040516020016106b29190612410565b60408051601f198184030181529082905263ab9c4b5d60e01b825291506001600160a01b037f0000000000000000000000000000000000000000000000000000000000000000169063ab9c4b5d9061071b9030908890889088908490899060c490600401612265565b600060405180830381600087803b15801561073557600080fd5b505af1158015610749573d6000803e3d6000fd5b505050505050505050610859565b60405163b738a96b60e01b81526001600160a01b0382169063b738a96b90610783908590600401612410565b61010060405180830381600087803b15801561079e57600080fd5b505af19250505080156107ce575060408051601f3d908101601f191682019092526107cb9181019061209b565b60015b610857576040516305766e3d60e11b81526001600160a01b03821690630aecdc7a906107fe908590600401612410565b61010060405180830381600087803b15801561081957600080fd5b505af115801561082d573d6000803e3d6000fd5b505050506040513d601f19601f82011682018060405250810190610851919061209b565b50610859565b505b6101008401516040516370a0823160e01b81526001600160a01b039091169063a9059cbb90879083906370a082319061089690309060040161222d565b60206040518083038186803b1580156108ae57600080fd5b505afa1580156108c2573d6000803e3d6000fd5b505050506040513d601f19601f820116820180604052508101906108e69190611cee565b6040518363ffffffff1660e01b815260040161090392919061231c565b602060405180830381600087803b15801561091d57600080fd5b505af1158015610931573d6000803e3d6000fd5b505050506040513d601f19601f820116820180604052508101906109559190611cce565b506101208401516040516370a0823160e01b81526001600160a01b039091169063a9059cbb90879083906370a082319061099390309060040161222d565b60206040518083038186803b1580156109ab57600080fd5b505afa1580156109bf573d6000803e3d6000fd5b505050506040513d601f19601f820116820180604052508101906109e39190611cee565b6040518363ffffffff1660e01b8152600401610a0092919061231c565b602060405180830381600087803b158015610a1a57600080fd5b505af1158015610a2e573d6000803e3d6000fd5b505050506040513d601f19601f82011682018060405250810190610a529190611cce565b5060018460a001516001600160a01b031663eb29dc5e84604001516040518263ffffffff1660e01b8152600401610a899190612340565b60206040518083038186803b158015610aa157600080fd5b505afa158015610ab5573d6000803e3d6000fd5b505050506040513d601f19601f82011682018060405250810190610ad99190611d06565b6005811115610ae457fe5b1415610b59578360a001516001600160a01b03166323b872dd303385604001516040518463ffffffff1660e01b8152600401610b2293929190612241565b600060405180830381600087803b158015610b3c57600080fd5b505af1158015610b50573d6000803e3d6000fd5b50505050610cbd565b60003390506000816001600160a01b031663c45a01556040518163ffffffff1660e01b815260040160206040518083038186803b158015610b9957600080fd5b505afa158015610bad573d6000803e3d6000fd5b505050506040513d601f19601f82011682018060405250810190610bd19190611b9b565b90506000816001600160a01b0316634f8419b9856040518263ffffffff1660e01b8152600401610c01919061222d565b60206040518083038186803b158015610c1957600080fd5b505afa158015610c2d573d6000803e3d6000fd5b505050506040513d601f19601f82011682018060405250810190610c519190611b9b565b85516040808801519051630561e1a160e01b81529293506001600160a01b03841692630561e1a192610c87928892600401612241565b600060405180830381600087803b158015610ca157600080fd5b505af1158015610cb5573d6000803e3d6000fd5b505050505050505b50505050505050565b6c26a0a925a2aa2fab24a2aba2a960991b81565b608081015160a0820151600091900381610cf261166e565b84516040516327a008c160e01b81529192506000916001600160a01b038416916327a008c191610d25919060040161222d565b60206040518083038186803b158015610d3d57600080fd5b505afa158015610d51573d6000803e3d6000fd5b505050506040513d601f19601f82011682018060405250810190610d759190611cee565b855160405163664702e160e11b81529192506000916001600160a01b0385169163cc8e05c291610da8919060040161222d565b60206040518083038186803b158015610dc057600080fd5b505afa158015610dd4573d6000803e3d6000fd5b505050506040513d601f19601f82011682018060405250810190610df89190611cee565b90506000836001600160a01b0316634d12fca46040518163ffffffff1660e01b815260040160206040518083038186803b158015610e3557600080fd5b505afa158015610e49573d6000803e3d6000fd5b505050506040513d601f19601f82011682018060405250810190610e6d9190611b9b565b90506000816001600160a01b031663f450aa348785876040518463ffffffff1660e01b8152600401610ea193929190612349565b60606040518083038186803b158015610eb957600080fd5b505afa158015610ecd573d6000803e3d6000fd5b505050506040513d601f19601f82011682018060405250810190610ef19190612158565b50909150610f0d90506064610f078360636118f6565b90611956565b96505050505050505b919050565b6000336001600160a01b037f000000000000000000000000000000000000000000000000000000000000000016148015610f5d57506001600160a01b03831630145b610f825760405162461bcd60e51b8152600401610f79906123b6565b60405180910390fd5b85516001148015610f94575084516001145b8015610fa1575083516001145b610fbd5760405162461bcd60e51b8152600401610f79906123e8565b6000610fc7611745565b9050600083806020019051810190610fdf9190611efa565b80516040516373ccbf6760e01b81529192506000916001600160a01b038516916373ccbf6791611012919060040161222d565b60606040518083038186803b15801561102a57600080fd5b505afa15801561103e573d6000803e3d6000fd5b505050506040513d601f19601f820116820180604052508101906110629190611deb565b905080600001516001600160a01b03168960008151811061107f57fe5b60200260200101516001600160a01b0316146110ad5760405162461bcd60e51b8152600401610f799061238f565b80600001516001600160a01b031663095ea7b3848a6000815181106110ce57fe5b60200260200101516040518363ffffffff1660e01b81526004016110f392919061231c565b602060405180830381600087803b15801561110d57600080fd5b505af1158015611121573d6000803e3d6000fd5b505050506040513d601f19601f820116820180604052508101906111459190611cce565b508760008151811061115357fe5b602090810291909101015161014083015260405163b738a96b60e01b81526001600160a01b0384169063b738a96b90611190908590600401612410565b61010060405180830381600087803b1580156111ab57600080fd5b505af19250505080156111db575060408051601f3d908101601f191682019092526111d89181019061209b565b60015b611264576040516305766e3d60e11b81526001600160a01b03841690630aecdc7a9061120b908590600401612410565b61010060405180830381600087803b15801561122657600080fd5b505af115801561123a573d6000803e3d6000fd5b505050506040513d601f19601f8201168201806040525081019061125e919061209b565b50611266565b505b60208101516040516370a0823160e01b81526000916001600160a01b0316906370a082319061129990309060040161222d565b60206040518083038186803b1580156112b157600080fd5b505afa1580156112c5573d6000803e3d6000fd5b505050506040513d601f19601f820116820180604052508101906112e99190611cee565b905060006112f561166e565b84516040516327a008c160e01b81529192506000916001600160a01b038416916327a008c191611328919060040161222d565b60206040518083038186803b15801561134057600080fd5b505afa158015611354573d6000803e3d6000fd5b505050506040513d601f19601f820116820180604052508101906113789190611cee565b855160405163664702e160e11b81529192506000916001600160a01b0385169163cc8e05c2916113ab919060040161222d565b60206040518083038186803b1580156113c357600080fd5b505afa1580156113d7573d6000803e3d6000fd5b505050506040513d601f19601f820116820180604052508101906113fb9190611cee565b90506000836001600160a01b031663759b52256040518163ffffffff1660e01b815260040160206040518083038186803b15801561143857600080fd5b505afa15801561144c573d6000803e3d6000fd5b505050506040513d601f19601f820116820180604052508101906114709190611b9b565b602087015160405163095ea7b360e01b81529192506001600160a01b03169063095ea7b3906114a5908490899060040161231c565b602060405180830381600087803b1580156114bf57600080fd5b505af11580156114d3573d6000803e3d6000fd5b505050506040513d601f19601f820116820180604052508101906114f79190611cce565b5060405163ee52a2f360e01b81526001600160a01b0382169063ee52a2f39061152890859089908890600401612349565b602060405180830381600087803b15801561154257600080fd5b505af1158015611556573d6000803e3d6000fd5b505050506040513d601f19601f8201168201806040525081019061157a9190611cee565b50505050505080600001516001600160a01b031663095ea7b37f00000000000000000000000000000000000000000000000000000000000000006115ef8a6000815181106115c457fe5b60200260200101518c6000815181106115d957fe5b60200260200101516119ba90919063ffffffff16565b6040518363ffffffff1660e01b815260040161160c92919061231c565b602060405180830381600087803b15801561162657600080fd5b505af115801561163a573d6000803e3d6000fd5b505050506040513d601f19601f8201168201806040525081019061165e9190611cce565b5060019998505050505050505050565b604051623f970360e91b81526000906001600160a01b037f00000000000000000000000000000000000000000000000000000000000000001690637f2e0600906101a7907029aca72a2422aa24ac2fa0a220a82a22a960791b90600401612340565b7029aca72a2422aa24ac2fa0a220a82a22a960791b81565b6d26a0a925a2aa2faba920a82822a960911b81565b7f000000000000000000000000000000000000000000000000000000000000000081565b7f000000000000000000000000000000000000000000000000000000000000000081565b604051623f970360e91b81526000906001600160a01b037f00000000000000000000000000000000000000000000000000000000000000001690637f2e0600906101a7906d26a0a925a2aa2faba920a82822a960911b90600401612340565b6117ac611a12565b60405180610180016040528085606001516001600160a01b0316815260200184602001518152602001846000015181526020016001815260200161181761180c670de0b6b3a7640000610f078789608001516118f690919063ffffffff16565b608087015190611894565b8152602001846080015181526020018460400151600481111561183657fe5b815260200161185e670de0b6b3a7640000610f078688606001516118f690919063ffffffff16565b8152602001600081526020016000198152602001600081526020018561010001516001600160a01b031681525090509392505050565b6000828211156118eb576040805162461bcd60e51b815260206004820152601e60248201527f536166654d6174683a207375627472616374696f6e206f766572666c6f770000604482015290519081900360640190fd5b508082035b92915050565b600082611905575060006118f0565b8282028284828161191257fe5b041461194f5760405162461bcd60e51b81526004018080602001828103825260218152602001806125156021913960400191505060405180910390fd5b9392505050565b60008082116119a9576040805162461bcd60e51b815260206004820152601a602482015279536166654d6174683a206469766973696f6e206279207a65726f60301b604482015290519081900360640190fd5b8183816119b257fe5b049392505050565b60008282018381101561194f576040805162461bcd60e51b815260206004820152601b60248201527a536166654d6174683a206164646974696f6e206f766572666c6f7760281b604482015290519081900360640190fd5b60405180610180016040528060006001600160a01b03168152602001600081526020016000815260200160008152602001600081526020016000815260200160006004811115611a5e57fe5b81526020016000815260200160008152602001600081526020016000815260200160006001600160a01b031681525090565b8035610f16816124ef565b8051610f16816124ef565b600082601f830112611ab6578081fd5b81356020611acb611ac6836124d2565b6124af565b8281528181019085830183850287018401881015611ae7578586fd5b855b85811015611b0557813584529284019290840190600101611ae9565b5090979650505050505050565b600082601f830112611b22578081fd5b81356001600160401b03811115611b3557fe5b611b48601f8201601f19166020016124af565b818152846020838601011115611b5c578283fd5b816020850160208301379081016020019190915292915050565b8035610f1681612507565b8051610f1681612507565b805160068110610f1657600080fd5b600060208284031215611bac578081fd5b815161194f816124ef565b600080600080600060a08688031215611bce578081fd5b85356001600160401b0380821115611be4578283fd5b818801915088601f830112611bf7578283fd5b81356020611c07611ac6836124d2565b82815281810190858301838502870184018e1015611c23578788fd5b8796505b84871015611c4e578035611c3a816124ef565b835260019690960195918301918301611c27565b5099505089013592505080821115611c64578283fd5b611c7089838a01611aa6565b95506040880135915080821115611c85578283fd5b611c9189838a01611aa6565b9450611c9f60608901611a90565b93506080880135915080821115611cb4578283fd5b50611cc188828901611b12565b9150509295509295909350565b600060208284031215611cdf578081fd5b8151801515811461194f578182fd5b600060208284031215611cff578081fd5b5051919050565b600060208284031215611d17578081fd5b61194f82611b8c565b6000610140808385031215611d33578182fd5b611d3c816124af565b9050611d4783611a9b565b8152611d5560208401611a9b565b6020820152611d6660408401611a9b565b6040820152611d7760608401611a9b565b6060820152611d8860808401611a9b565b6080820152611d9960a08401611a9b565b60a0820152611daa60c08401611a9b565b60c0820152611dbb60e08401611a9b565b60e0820152610100611dce818501611a9b565b90820152610120611de0848201611a9b565b908201529392505050565b600060608284031215611dfc578081fd5b604051606081018181106001600160401b0382111715611e1857fe5b6040528251611e26816124ef565b81526020830151611e36816124ef565b60208201526040830151611e49816124ef565b60408201529392505050565b6000610180808385031215611e68578182fd5b611e71816124af565b9050611e7c83611a90565b81526020830135602082015260408301356040820152606083013560608201526080830135608082015260a083013560a0820152611ebc60c08401611b76565b60c082015260e08381013590820152610100808401359082015261012080840135908201526101408084013590820152610160611de0818501611a90565b6000610180808385031215611f0d578182fd5b611f16816124af565b9050611f2183611a9b565b81526020830151602082015260408301516040820152606083015160608201526080830151608082015260a083015160a0820152611f6160c08401611b81565b60c082015260e08381015190820152610100808401519082015261012080840151908201526101408084015190820152610160611de0818501611a9b565b60008060008385036080811215611fb4578182fd5b6040811215611fc1578182fd5b50604051604081018181106001600160401b0382111715611fde57fe5b6040528435611fec816124ef565b815260208581013590820152925060408401359150606084013561200f816124ef565b809150509250925092565b600060c0828403121561202b578081fd5b60405160c081018181106001600160401b038211171561204757fe5b80604052508251815260208301516020820152604083015161206881612507565b80604083015250606083015160608201526080830151608082015261208f60a08401611b8c565b60a08201529392505050565b60006101008083850312156120ae578182fd5b604051908101906001600160401b03821181831017156120ca57fe5b816040526120d784611a9b565b8152602084015160208201526120ef60408501611a9b565b6040820152606084015160608201526080840151608082015260a084015160a082015260c084015160c082015261212860e08501611a9b565b60e0820152949350505050565b60008060408385031215612147578182fd5b505080516020909101519092909150565b60008060006060848603121561216c578081fd5b8351925060208401519150604084015190509250925092565b6001600160a01b03169052565b6000815180845260208085019450808401835b838110156121c1578151875295820195908201906001016121a5565b509495945050505050565b60008151808452815b818110156121f1576020818501810151868301820152016121d5565b818111156122025782602083870101525b50601f01601f19169290920160200192915050565b6005811061222157fe5b9052565b61ffff169052565b6001600160a01b0391909116815260200190565b6001600160a01b039384168152919092166020820152604081019190915260600190565b6001600160a01b03888116825260e0602080840182905289519184018290526000928a820192909190610100860190855b818110156122b4578551851683529483019491830191600101612296565b505085810360408701526122c8818c612192565b935050505082810360608401526122df8188612192565b90506122ee6080840187612185565b82810360a084015261230081866121cc565b91505061231060c0830184612225565b98975050505050505050565b6001600160a01b03929092168252602082015260400190565b901515815260200190565b90815260200190565b9283526020830191909152604082015260600190565b60a0810161236d8288612217565b8560208301528460408301528360608301528260808301529695505050505050565b6020808252600d908201526c1a5b9d985b1a5908185cdcd95d609a1b604082015260600190565b60208082526018908201527734b73b30b634b210333630b9b43637b0b71037b934b3b4b760411b604082015260600190565b6020808252600e908201526d0d2dcecc2d8d2c840d8cadccee8d60931b604082015260600190565b600061018082019050612424828451612185565b6020830151602083015260408301516040830152606083015160608301526080830151608083015260a083015160a083015260c083015161246860c0840182612217565b5060e08381015190830152610100808401519083015261012080840151908301526101408084015190830152610160808401516124a782850182612185565b505092915050565b6040518181016001600160401b03811182821017156124ca57fe5b604052919050565b60006001600160401b038211156124e557fe5b5060209081020190565b6001600160a01b038116811461250457600080fd5b50565b6005811061250457600080fdfe536166654d6174683a206d756c7469706c69636174696f6e206f766572666c6f77a2646970667358221220d30d62e9cf4e444d018e8512c47290034a2ccb042f7983b7c31d5e53ac7b4be564736f6c63430007060033",
  "linkReferences": {},
  "deployedLinkReferences": {}
}