{
  "_format": "hh-sol-artifact-1",
  "contractName": "StargateLPAssetGuard",
  "sourceName": "contracts/guards/assetGuards/StargateLPAssetGuard.sol",
  "abi": [
    {
      "inputs": [
        {
          "internalType": "address",
          "name": "_stargateLpStaking",
          "type": "address"
        }
      ],
      "stateMutability": "nonpayable",
      "type": "constructor"
    },
    {
      "anonymous": false,
      "inputs": [
        {
          "indexed": false,
          "internalType": "address",
          "name": "fundAddress",
          "type": "address"
        },
        {
          "indexed": false,
          "internalType": "address",
          "name": "manager",
          "type": "address"
        },
        {
          "indexed": false,
          "internalType": "address",
          "name": "spender",
          "type": "address"
        },
        {
          "indexed": false,
          "internalType": "uint256",
          "name": "amount",
          "type": "uint256"
        },
        {
          "indexed": false,
          "internalType": "uint256",
          "name": "time",
          "type": "uint256"
        }
      ],
      "name": "Approve",
      "type": "event"
    },
    {
      "anonymous": false,
      "inputs": [
        {
          "indexed": false,
          "internalType": "address",
          "name": "fundAddress",
          "type": "address"
        },
        {
          "indexed": false,
          "internalType": "address",
          "name": "sourceAsset",
          "type": "address"
        },
        {
          "indexed": false,
          "internalType": "uint256",
          "name": "sourceAmount",
          "type": "uint256"
        },
        {
          "indexed": false,
          "internalType": "address",
          "name": "dstAsset",
          "type": "address"
        },
        {
          "indexed": false,
          "internalType": "uint256",
          "name": "time",
          "type": "uint256"
        }
      ],
      "name": "ExchangeFrom",
      "type": "event"
    },
    {
      "anonymous": false,
      "inputs": [
        {
          "indexed": false,
          "internalType": "address",
          "name": "fundAddress",
          "type": "address"
        },
        {
          "indexed": false,
          "internalType": "address",
          "name": "sourceAsset",
          "type": "address"
        },
        {
          "indexed": false,
          "internalType": "address",
          "name": "dstAsset",
          "type": "address"
        },
        {
          "indexed": false,
          "internalType": "uint256",
          "name": "dstAmount",
          "type": "uint256"
        },
        {
          "indexed": false,
          "internalType": "uint256",
          "name": "time",
          "type": "uint256"
        }
      ],
      "name": "ExchangeTo",
      "type": "event"
    },
    {
      "anonymous": false,
      "inputs": [
        {
          "indexed": true,
          "internalType": "address",
          "name": "lpToken",
          "type": "address"
        },
        {
          "indexed": true,
          "internalType": "uint256",
          "name": "poolId",
          "type": "uint256"
        }
      ],
      "name": "StargatePoolAdded",
      "type": "event"
    },
    {
      "inputs": [
        {
          "internalType": "bytes32",
          "name": "data",
          "type": "bytes32"
        }
      ],
      "name": "convert32toAddress",
      "outputs": [
        {
          "internalType": "address",
          "name": "o",
          "type": "address"
        }
      ],
      "stateMutability": "pure",
      "type": "function"
    },
    {
      "inputs": [
        {
          "internalType": "bytes",
          "name": "data",
          "type": "bytes"
        },
        {
          "internalType": "uint8",
          "name": "inputNum",
          "type": "uint8"
        },
        {
          "internalType": "uint8",
          "name": "arrayIndex",
          "type": "uint8"
        }
      ],
      "name": "getArrayIndex",
      "outputs": [
        {
          "internalType": "bytes32",
          "name": "",
          "type": "bytes32"
        }
      ],
      "stateMutability": "pure",
      "type": "function"
    },
    {
      "inputs": [
        {
          "internalType": "bytes",
          "name": "data",
          "type": "bytes"
        },
        {
          "internalType": "uint8",
          "name": "inputNum",
          "type": "uint8"
        }
      ],
      "name": "getArrayLast",
      "outputs": [
        {
          "internalType": "bytes32",
          "name": "",
          "type": "bytes32"
        }
      ],
      "stateMutability": "pure",
      "type": "function"
    },
    {
      "inputs": [
        {
          "internalType": "bytes",
          "name": "data",
          "type": "bytes"
        },
        {
          "internalType": "uint8",
          "name": "inputNum",
          "type": "uint8"
        }
      ],
      "name": "getArrayLength",
      "outputs": [
        {
          "internalType": "uint256",
          "name": "",
          "type": "uint256"
        }
      ],
      "stateMutability": "pure",
      "type": "function"
    },
    {
      "inputs": [
        {
          "internalType": "address",
          "name": "pool",
          "type": "address"
        },
        {
          "internalType": "address",
          "name": "asset",
          "type": "address"
        }
      ],
      "name": "getBalance",
      "outputs": [
        {
          "internalType": "uint256",
          "name": "balance",
          "type": "uint256"
        }
      ],
      "stateMutability": "view",
      "type": "function"
    },
    {
      "inputs": [
        {
          "internalType": "bytes",
          "name": "data",
          "type": "bytes"
        },
        {
          "internalType": "uint8",
          "name": "inputNum",
          "type": "uint8"
        },
        {
          "internalType": "uint256",
          "name": "offset",
          "type": "uint256"
        }
      ],
      "name": "getBytes",
      "outputs": [
        {
          "internalType": "bytes",
          "name": "",
          "type": "bytes"
        }
      ],
      "stateMutability": "pure",
      "type": "function"
    },
    {
      "inputs": [
        {
          "internalType": "address",
          "name": "asset",
          "type": "address"
        }
      ],
      "name": "getDecimals",
      "outputs": [
        {
          "internalType": "uint256",
          "name": "decimals",
          "type": "uint256"
        }
      ],
      "stateMutability": "view",
      "type": "function"
    },
    {
      "inputs": [
        {
          "internalType": "bytes",
          "name": "data",
          "type": "bytes"
        },
        {
          "internalType": "uint8",
          "name": "inputNum",
          "type": "uint8"
        }
      ],
      "name": "getInput",
      "outputs": [
        {
          "internalType": "bytes32",
          "name": "",
          "type": "bytes32"
        }
      ],
      "stateMutability": "pure",
      "type": "function"
    },
    {
      "inputs": [
        {
          "internalType": "bytes",
          "name": "data",
          "type": "bytes"
        }
      ],
      "name": "getMethod",
      "outputs": [
        {
          "internalType": "bytes4",
          "name": "",
          "type": "bytes4"
        }
      ],
      "stateMutability": "pure",
      "type": "function"
    },
    {
      "inputs": [
        {
          "internalType": "bytes",
          "name": "data",
          "type": "bytes"
        }
      ],
      "name": "getParams",
      "outputs": [
        {
          "internalType": "bytes",
          "name": "",
          "type": "bytes"
        }
      ],
      "stateMutability": "pure",
      "type": "function"
    },
    {
      "inputs": [
        {
          "internalType": "bytes",
          "name": "data",
          "type": "bytes"
        },
        {
          "internalType": "uint256",
          "name": "offset",
          "type": "uint256"
        },
        {
          "internalType": "uint256",
          "name": "length",
          "type": "uint256"
        }
      ],
      "name": "read32",
      "outputs": [
        {
          "internalType": "bytes32",
          "name": "o",
          "type": "bytes32"
        }
      ],
      "stateMutability": "pure",
      "type": "function"
    },
    {
      "inputs": [
        {
          "internalType": "bytes",
          "name": "data",
          "type": "bytes"
        },
        {
          "internalType": "uint256",
          "name": "offset",
          "type": "uint256"
        }
      ],
      "name": "read4left",
      "outputs": [
        {
          "internalType": "bytes4",
          "name": "o",
          "type": "bytes4"
        }
      ],
      "stateMutability": "pure",
      "type": "function"
    },
    {
      "inputs": [
        {
          "internalType": "address",
          "name": "pool",
          "type": "address"
        },
        {
          "internalType": "address",
          "name": "asset",
          "type": "address"
        }
      ],
      "name": "removeAssetCheck",
      "outputs": [],
      "stateMutability": "view",
      "type": "function"
    },
    {
      "inputs": [],
      "name": "stargateLpStaking",
      "outputs": [
        {
          "internalType": "contract IStargateLpStaking",
          "name": "",
          "type": "address"
        }
      ],
      "stateMutability": "view",
      "type": "function"
    },
    {
      "inputs": [
        {
          "internalType": "address",
          "name": "",
          "type": "address"
        }
      ],
      "name": "stargatePoolIds",
      "outputs": [
        {
          "internalType": "uint256",
          "name": "id",
          "type": "uint256"
        },
        {
          "internalType": "bool",
          "name": "configured",
          "type": "bool"
        }
      ],
      "stateMutability": "view",
      "type": "function"
    },
    {
      "inputs": [
        {
          "internalType": "address",
          "name": "_poolManagerLogic",
          "type": "address"
        },
        {
          "internalType": "address",
          "name": "",
          "type": "address"
        },
        {
          "internalType": "bytes",
          "name": "data",
          "type": "bytes"
        }
      ],
      "name": "txGuard",
      "outputs": [
        {
          "internalType": "uint16",
          "name": "txType",
          "type": "uint16"
        },
        {
          "internalType": "bool",
          "name": "",
          "type": "bool"
        }
      ],
      "stateMutability": "nonpayable",
      "type": "function"
    },
    {
      "inputs": [],
      "name": "updateStakingPoolIds",
      "outputs": [],
      "stateMutability": "nonpayable",
      "type": "function"
    },
    {
      "inputs": [
        {
          "internalType": "address",
          "name": "pool",
          "type": "address"
        },
        {
          "internalType": "address",
          "name": "asset",
          "type": "address"
        },
        {
          "internalType": "uint256",
          "name": "portion",
          "type": "uint256"
        },
        {
          "internalType": "address",
          "name": "",
          "type": "address"
        }
      ],
      "name": "withdrawProcessing",
      "outputs": [
        {
          "internalType": "address",
          "name": "withdrawAsset",
          "type": "address"
        },
        {
          "internalType": "uint256",
          "name": "withdrawBalance",
          "type": "uint256"
        },
        {
          "components": [
            {
              "internalType": "address",
              "name": "to",
              "type": "address"
            },
            {
              "internalType": "bytes",
              "name": "txData",
              "type": "bytes"
            }
          ],
          "internalType": "struct IAssetGuard.MultiTransaction[]",
          "name": "transactions",
          "type": "tuple[]"
        }
      ],
      "stateMutability": "view",
      "type": "function"
    }
  ],
  "bytecode": "0x60806040523480156200001157600080fd5b5060405162001d2c38038062001d2c83398101604081905262000034916200024c565b6001600160a01b038116620000665760405162461bcd60e51b81526004016200005d9062000327565b60405180910390fd5b600080546001600160a01b0319166001600160a01b0383161790556200008b62000092565b5062000367565b6000546001600160a01b0316620000bd5760405162461bcd60e51b81526004016200005d90620002f0565b60005b60008054906101000a90046001600160a01b03166001600160a01b031663081e3eda6040518163ffffffff1660e01b815260040160206040518083038186803b1580156200010d57600080fd5b505afa15801562000122573d6000803e3d6000fd5b505050506040513d601f19601f82011682018060405250810190620001489190620002d7565b8110156200022c57604080518082018252828152600160208201819052600080549351631526fe2760e01b81529293919290916001600160a01b031690631526fe27906200019b9087906004016200035e565b60806040518083038186803b158015620001b457600080fd5b505afa158015620001c9573d6000803e3d6000fd5b505050506040513d601f19601f82011682018060405250810190620001ef919062000270565b516001600160a01b03168152602080820192909252604001600020825181559101516001918201805460ff191691151591909117905501620000c0565b50565b80516001600160a01b03811681146200024757600080fd5b919050565b6000602082840312156200025e578081fd5b62000269826200022f565b9392505050565b60006080828403121562000282578081fd5b604051608081016001600160401b03811182821017156200029f57fe5b604052620002ad836200022f565b81526020830151602082015260408301516040820152606083015160608201528091505092915050565b600060208284031215620002e9578081fd5b5051919050565b60208082526014908201527f7374616b696e6720616464726573732069732030000000000000000000000000604082015260600190565b6020808252601a908201527f696e76616c6964204c50207374616b696e672061646472657373000000000000604082015260600190565b90815260200190565b6119b580620003776000396000f3fe608060405234801561001057600080fd5b50600436106100e65760003560e01c806309ff5c7d146100eb5780631053f952146101145780631eba307714610134578063293d80631461015457806341dc16c3146101745780636179309d1461018757806368901513146101a85780636d5fae54146101bb5780636f8ae202146101d05780637e2d5759146101f257806382f86acc146101fa5780638cf340601461020d578063998546e314610215578063be11ea1514610228578063c3c6279f14610249578063cf54aaa01461025c578063d4fac45d1461026f578063db896b5714610282575b600080fd5b6100fe6100f9366004611521565b610295565b60405161010b9190611802565b60405180910390f35b61012761012236600461156c565b610328565b60405161010b9190611820565b61014761014236600461144a565b6103c0565b60405161010b919061172c565b610167610162366004611494565b6103c7565b60405161010b919061180b565b6100fe6101823660046115c0565b610429565b61019a61019536600461136c565b610507565b60405161010b9291906118fe565b6101276101b6366004611462565b61086c565b6101ce6101c9366004611334565b610887565b005b6101e36101de3660046113f8565b6108b8565b60405161010b93929190611774565b610147610af9565b6100fe610208366004611521565b610b08565b6101ce610b26565b6100fe610223366004611521565b610cb4565b61023b6102363660046112fc565b610ce5565b60405161010b92919061192b565b610167610257366004611462565b610d01565b6100fe61026a3660046112fc565b610d0e565b6100fe61027d366004611334565b610d81565b6100fe6102903660046114d6565b610f7a565b6000806102ad848460200260040160ff166020610f7a565b905060006102c085600484016020610f7a565b905080610309576040805162461bcd60e51b8152602060048201526012602482015271696e707574206973206e6f7420617272617960701b604482015290519081900360640190fd5b61031d856020808402850160040190610f7a565b925050505b92915050565b606060148210610370576040805162461bcd60e51b815260206004820152600e60248201526d1a5b9d985b1a59081bd9999cd95d60921b604482015290519081900360640190fd5b816020029150600061038f85848660200260040160ff16016020610f7a565b905060006103a4868584016004016020610f7a565b90506103b68660248487010183610ff9565b9695505050505050565b805b919050565b60008160040183511015610420576040805162461bcd60e51b815260206004820152601b60248201527a52656164696e67206279746573206f7574206f6620626f756e647360281b604482015290519081900360640190fd5b50016020015190565b600080610441858560200260040160ff166020610f7a565b9050600061045486600484016020610f7a565b90508061049d576040805162461bcd60e51b8152602060048201526012602482015271696e707574206973206e6f7420617272617960701b604482015290519081900360640190fd5b60ff841681116104ed576040805162461bcd60e51b815260206004820152601660248201527534b73b30b634b21030b93930bc903837b9b4ba34b7b760511b604482015290519081900360640190fd5b6103b6866020600160ff8816018102850160040190610f7a565b600080600061054b85858080601f016020809104026020016040519081016040528093929190818152602001838380828437600092019190915250610d0192505050565b90506001600160e01b0319811663095ea7b360e01b141561085e5760006105aa61014287878080601f01602080910402602001604051908101604052809392919081815260200183838082843760009201829052509250610b08915050565b905060006105f087878080601f01602080910402602001604051908101604052809392919081815260200183838082843760009201919091525060019250610b08915050565b60001c905060008990506000816001600160a01b031663c45a01556040518163ffffffff1660e01b815260040160206040518083038186803b15801561063557600080fd5b505afa158015610649573d6000803e3d6000fd5b505050506040513d601f19601f8201168201806040525081019061066d9190611318565b90506000816001600160a01b0316634f8419b9866040518263ffffffff1660e01b815260040161069d919061172c565b60206040518083038186803b1580156106b557600080fd5b505afa1580156106c9573d6000803e3d6000fd5b505050506040513d601f19601f820116820180604052508101906106ed9190611318565b90506001600160a01b0381161580159061071057506001600160a01b0381163014155b6107355760405162461bcd60e51b815260040161072c90611898565b60405180910390fd5b7f5343b378d69227c1bc2016fd44e8104f0ffa7729f4f4f4110e349a2db0a0d0c8836001600160a01b03166339b81fd96040518163ffffffff1660e01b815260040160206040518083038186803b15801561078f57600080fd5b505afa1580156107a3573d6000803e3d6000fd5b505050506040513d601f19601f820116820180604052508101906107c79190611318565b8d6001600160a01b031663481c6a756040518163ffffffff1660e01b815260040160206040518083038186803b15801561080057600080fd5b505afa158015610814573d6000803e3d6000fd5b505050506040513d601f19601f820116820180604052508101906108389190611318565b87874260405161084c959493929190611740565b60405180910390a16001975050505050505b506000905094509492505050565b606061032260048084510384610ff99092919063ffffffff16565b60006108938383610d81565b905080156108b35760405162461bcd60e51b815260040161072c90611833565b505050565b6040516370a0823160e01b8152839060009060609082906001600160a01b038516906370a08231906108ee908b9060040161172c565b60206040518083038186803b15801561090657600080fd5b505afa15801561091a573d6000803e3d6000fd5b505050506040513d601f19601f8201168201806040525081019061093e91906116c9565b905061095c670de0b6b3a7640000610956838961114a565b906111a3565b6001600160a01b038089166000908152600160205260408082208254815492516393f1a40b60e01b81529598509094929316916393f1a40b916109a3918e90600401611914565b604080518083038186803b1580156109ba57600080fd5b505afa1580156109ce573d6000803e3d6000fd5b505050506040513d601f19601f820116820180604052508101906109f29190611682565b5190508015610aec576000610a13670de0b6b3a7640000610956848c61114a565b90508015610aea5760408051600180825281830190925290816020015b610a3861125f565b815260200190600190039081610a305750506000805482519297506001600160a01b031691879190610a6657fe5b60209081029190910101516001600160a01b0390911690528254604051630441a3e760e41b91610a9a91849060240161193b565b604051602081830303815290604052906001600160e01b0319166020820180516001600160e01b03838183161783525050505085600081518110610ada57fe5b6020026020010151602001819052505b505b5050509450945094915050565b6000546001600160a01b031681565b6000610b1f838360200260040160ff166020610f7a565b9392505050565b6000546001600160a01b0316610b4e5760405162461bcd60e51b815260040161072c9061186a565b60005b60008054906101000a90046001600160a01b03166001600160a01b031663081e3eda6040518163ffffffff1660e01b815260040160206040518083038186803b158015610b9d57600080fd5b505afa158015610bb1573d6000803e3d6000fd5b505050506040513d601f19601f82011682018060405250810190610bd591906116c9565b811015610cb157604080518082018252828152600160208201819052600080549351631526fe2760e01b81529293919290916001600160a01b031690631526fe2790610c25908790600401611802565b60806040518083038186803b158015610c3d57600080fd5b505afa158015610c51573d6000803e3d6000fd5b505050506040513d601f19601f82011682018060405250810190610c75919061161b565b516001600160a01b03168152602080820192909252604001600020825181559101516001918201805460ff191691151591909117905501610b51565b50565b600080610ccc848460200260040160ff166020610f7a565b9050610cdd84600483016020610f7a565b949350505050565b6001602081905260009182526040909120805491015460ff1682565b60006103228260006103c7565b6000816001600160a01b031663e46e70586040518163ffffffff1660e01b815260040160206040518083038186803b158015610d4957600080fd5b505afa158015610d5d573d6000803e3d6000fd5b505050506040513d601f19601f8201168201806040525081019061032291906116c9565b6001600160a01b038116600090815260016020819052604082209081015460ff16610dbe5760405162461bcd60e51b815260040161072c906118ce565b6000805482546040516393f1a40b60e01b81526001600160a01b03909216916393f1a40b91610df1918990600401611914565b604080518083038186803b158015610e0857600080fd5b505afa158015610e1c573d6000803e3d6000fd5b505050506040513d601f19601f82011682018060405250810190610e409190611682565b516040516370a0823160e01b81529091506000906001600160a01b038616906370a0823190610e7390899060040161172c565b60206040518083038186803b158015610e8b57600080fd5b505afa158015610e9f573d6000803e3d6000fd5b505050506040513d601f19601f82011682018060405250810190610ec391906116c9565b9050610ecf8282611207565b93506000856001600160a01b031663f6cd35ee670de0b6b3a76400006040518263ffffffff1660e01b8152600401610f079190611802565b60206040518083038186803b158015610f1f57600080fd5b505afa158015610f33573d6000803e3d6000fd5b505050506040513d601f19601f82011682018060405250810190610f5791906116c9565b9050610f6f670de0b6b3a7640000610956878461114a565b979650505050505050565b600081830184511015610fd2576040805162461bcd60e51b815260206004820152601b60248201527a52656164696e67206279746573206f7574206f6620626f756e647360281b604482015290519081900360640190fd5b826020018401519050816020038015610ff1576008810260020a820491505b509392505050565b60608182601f011015611044576040805162461bcd60e51b815260206004820152600e60248201526d736c6963655f6f766572666c6f7760901b604482015290519081900360640190fd5b82828401101561108c576040805162461bcd60e51b815260206004820152600e60248201526d736c6963655f6f766572666c6f7760901b604482015290519081900360640190fd5b818301845110156110d8576040805162461bcd60e51b8152602060048201526011602482015270736c6963655f6f75744f66426f756e647360781b604482015290519081900360640190fd5b6060821580156110f75760405191506000825260208201604052611141565b6040519150601f8416801560200281840101858101878315602002848b0101015b81831015611130578051835260209283019201611118565b5050858452601f01601f1916604052505b50949350505050565b60008261115957506000610322565b8282028284828161116657fe5b0414610b1f5760405162461bcd60e51b815260040180806020018281038252602181526020018061195f6021913960400191505060405180910390fd5b60008082116111f6576040805162461bcd60e51b815260206004820152601a602482015279536166654d6174683a206469766973696f6e206279207a65726f60301b604482015290519081900360640190fd5b8183816111ff57fe5b049392505050565b600082820183811015610b1f576040805162461bcd60e51b815260206004820152601b60248201527a536166654d6174683a206164646974696f6e206f766572666c6f7760281b604482015290519081900360640190fd5b60408051808201909152600081526060602082015290565b600082601f830112611287578081fd5b81356001600160401b038082111561129b57fe5b604051601f8301601f1916810160200182811182821017156112b957fe5b6040528281528483016020018610156112d0578384fd5b82602086016020830137918201602001929092529392505050565b803560ff811681146103c257600080fd5b60006020828403121561130d578081fd5b8135610b1f81611949565b600060208284031215611329578081fd5b8151610b1f81611949565b60008060408385031215611346578081fd5b823561135181611949565b9150602083013561136181611949565b809150509250929050565b60008060008060608587031215611381578182fd5b843561138c81611949565b9350602085013561139c81611949565b925060408501356001600160401b03808211156113b7578384fd5b818701915087601f8301126113ca578384fd5b8135818111156113d8578485fd5b8860208285010111156113e9578485fd5b95989497505060200194505050565b6000806000806080858703121561140d578384fd5b843561141881611949565b9350602085013561142881611949565b925060408501359150606085013561143f81611949565b939692955090935050565b60006020828403121561145b578081fd5b5035919050565b600060208284031215611473578081fd5b81356001600160401b03811115611488578182fd5b610cdd84828501611277565b600080604083850312156114a6578182fd5b82356001600160401b038111156114bb578283fd5b6114c785828601611277565b95602094909401359450505050565b6000806000606084860312156114ea578283fd5b83356001600160401b038111156114ff578384fd5b61150b86828701611277565b9660208601359650604090950135949350505050565b60008060408385031215611533578182fd5b82356001600160401b03811115611548578283fd5b61155485828601611277565b925050611563602084016112eb565b90509250929050565b600080600060608486031215611580578283fd5b83356001600160401b03811115611595578384fd5b6115a186828701611277565b9350506115b0602085016112eb565b9150604084013590509250925092565b6000806000606084860312156115d4578081fd5b83356001600160401b038111156115e9578182fd5b6115f586828701611277565b935050611604602085016112eb565b9150611612604085016112eb565b90509250925092565b60006080828403121561162c578081fd5b604051608081018181106001600160401b038211171561164857fe5b604052825161165681611949565b808252506020830151602082015260408301516040820152606083015160608201528091505092915050565b600060408284031215611693578081fd5b604051604081018181106001600160401b03821117156116af57fe5b604052825181526020928301519281019290925250919050565b6000602082840312156116da578081fd5b5051919050565b60008151808452815b81811015611706576020818501810151868301820152016116ea565b818111156117175782602083870101525b50601f01601f19169290920160200192915050565b6001600160a01b0391909116815260200190565b6001600160a01b03958616815293851660208501529190931660408301526060820192909252608081019190915260a00190565b60006060820160018060a01b03808716845260208681860152604060608187015283875180865260808801915060808482028901019550838901875b828110156117f157898803607f1901845281518051881689528601518689018690526117de868a01826116e1565b98505092850192908501906001016117b0565b50959b9a5050505050505050505050565b90815260200190565b6001600160e01b031991909116815260200190565b600060208252610b1f60208301846116e1565b6020808252601d908201527f63616e6e6f742072656d6f7665206e6f6e2d656d707479206173736574000000604082015260600190565b60208082526014908201527307374616b696e67206164647265737320697320360641b604082015260600190565b6020808252601c908201527b1d5b9cdd5c1c1bdc9d1959081cdc195b99195c88185c1c1c9bdd985b60221b604082015260600190565b6020808252601690820152751c1bdbdb081251081b9bdd0818dbdb999a59dd5c995960521b604082015260600190565b61ffff9290921682521515602082015260400190565b9182526001600160a01b0316602082015260400190565b9182521515602082015260400190565b918252602082015260400190565b6001600160a01b0381168114610cb157600080fdfe536166654d6174683a206d756c7469706c69636174696f6e206f766572666c6f77a26469706673582212206ba1e4e58d10739670a081d1f7df92e86e47068ea90cda3868005a2cf32ec95164736f6c63430007060033",
  "linkReferences": {},
  "deployedLinkReferences": {}
}