{
  "_format": "hh-sol-artifact-1",
  "contractName": "VelodromeLPAssetGuard",
  "sourceName": "contracts/guards/assetGuards/velodrome/VelodromeLPAssetGuard.sol",
  "abi": [
    {
      "inputs": [
        {
          "internalType": "address",
          "name": "_voter",
          "type": "address"
        }
      ],
      "stateMutability": "nonpayable",
      "type": "constructor"
    },
    {
      "anonymous": false,
      "inputs": [
        {
          "indexed": false,
          "internalType": "address",
          "name": "fundAddress",
          "type": "address"
        },
        {
          "indexed": false,
          "internalType": "address",
          "name": "manager",
          "type": "address"
        },
        {
          "indexed": false,
          "internalType": "address",
          "name": "spender",
          "type": "address"
        },
        {
          "indexed": false,
          "internalType": "uint256",
          "name": "amount",
          "type": "uint256"
        },
        {
          "indexed": false,
          "internalType": "uint256",
          "name": "time",
          "type": "uint256"
        }
      ],
      "name": "Approve",
      "type": "event"
    },
    {
      "anonymous": false,
      "inputs": [
        {
          "indexed": false,
          "internalType": "address",
          "name": "fundAddress",
          "type": "address"
        },
        {
          "indexed": false,
          "internalType": "address",
          "name": "sourceAsset",
          "type": "address"
        },
        {
          "indexed": false,
          "internalType": "uint256",
          "name": "sourceAmount",
          "type": "uint256"
        },
        {
          "indexed": false,
          "internalType": "address",
          "name": "dstAsset",
          "type": "address"
        },
        {
          "indexed": false,
          "internalType": "uint256",
          "name": "time",
          "type": "uint256"
        }
      ],
      "name": "ExchangeFrom",
      "type": "event"
    },
    {
      "anonymous": false,
      "inputs": [
        {
          "indexed": false,
          "internalType": "address",
          "name": "fundAddress",
          "type": "address"
        },
        {
          "indexed": false,
          "internalType": "address",
          "name": "sourceAsset",
          "type": "address"
        },
        {
          "indexed": false,
          "internalType": "address",
          "name": "dstAsset",
          "type": "address"
        },
        {
          "indexed": false,
          "internalType": "uint256",
          "name": "dstAmount",
          "type": "uint256"
        },
        {
          "indexed": false,
          "internalType": "uint256",
          "name": "time",
          "type": "uint256"
        }
      ],
      "name": "ExchangeTo",
      "type": "event"
    },
    {
      "inputs": [
        {
          "internalType": "bytes32",
          "name": "data",
          "type": "bytes32"
        }
      ],
      "name": "convert32toAddress",
      "outputs": [
        {
          "internalType": "address",
          "name": "o",
          "type": "address"
        }
      ],
      "stateMutability": "pure",
      "type": "function"
    },
    {
      "inputs": [
        {
          "internalType": "bytes",
          "name": "data",
          "type": "bytes"
        },
        {
          "internalType": "uint8",
          "name": "inputNum",
          "type": "uint8"
        },
        {
          "internalType": "uint8",
          "name": "arrayIndex",
          "type": "uint8"
        }
      ],
      "name": "getArrayIndex",
      "outputs": [
        {
          "internalType": "bytes32",
          "name": "",
          "type": "bytes32"
        }
      ],
      "stateMutability": "pure",
      "type": "function"
    },
    {
      "inputs": [
        {
          "internalType": "bytes",
          "name": "data",
          "type": "bytes"
        },
        {
          "internalType": "uint8",
          "name": "inputNum",
          "type": "uint8"
        }
      ],
      "name": "getArrayLast",
      "outputs": [
        {
          "internalType": "bytes32",
          "name": "",
          "type": "bytes32"
        }
      ],
      "stateMutability": "pure",
      "type": "function"
    },
    {
      "inputs": [
        {
          "internalType": "bytes",
          "name": "data",
          "type": "bytes"
        },
        {
          "internalType": "uint8",
          "name": "inputNum",
          "type": "uint8"
        }
      ],
      "name": "getArrayLength",
      "outputs": [
        {
          "internalType": "uint256",
          "name": "",
          "type": "uint256"
        }
      ],
      "stateMutability": "pure",
      "type": "function"
    },
    {
      "inputs": [
        {
          "internalType": "address",
          "name": "pool",
          "type": "address"
        },
        {
          "internalType": "address",
          "name": "asset",
          "type": "address"
        }
      ],
      "name": "getBalance",
      "outputs": [
        {
          "internalType": "uint256",
          "name": "balance",
          "type": "uint256"
        }
      ],
      "stateMutability": "view",
      "type": "function"
    },
    {
      "inputs": [
        {
          "internalType": "bytes",
          "name": "data",
          "type": "bytes"
        },
        {
          "internalType": "uint8",
          "name": "inputNum",
          "type": "uint8"
        },
        {
          "internalType": "uint256",
          "name": "offset",
          "type": "uint256"
        }
      ],
      "name": "getBytes",
      "outputs": [
        {
          "internalType": "bytes",
          "name": "",
          "type": "bytes"
        }
      ],
      "stateMutability": "pure",
      "type": "function"
    },
    {
      "inputs": [
        {
          "internalType": "address",
          "name": "asset",
          "type": "address"
        }
      ],
      "name": "getDecimals",
      "outputs": [
        {
          "internalType": "uint256",
          "name": "decimals",
          "type": "uint256"
        }
      ],
      "stateMutability": "view",
      "type": "function"
    },
    {
      "inputs": [
        {
          "internalType": "bytes",
          "name": "data",
          "type": "bytes"
        },
        {
          "internalType": "uint8",
          "name": "inputNum",
          "type": "uint8"
        }
      ],
      "name": "getInput",
      "outputs": [
        {
          "internalType": "bytes32",
          "name": "",
          "type": "bytes32"
        }
      ],
      "stateMutability": "pure",
      "type": "function"
    },
    {
      "inputs": [
        {
          "internalType": "bytes",
          "name": "data",
          "type": "bytes"
        }
      ],
      "name": "getMethod",
      "outputs": [
        {
          "internalType": "bytes4",
          "name": "",
          "type": "bytes4"
        }
      ],
      "stateMutability": "pure",
      "type": "function"
    },
    {
      "inputs": [
        {
          "internalType": "bytes",
          "name": "data",
          "type": "bytes"
        }
      ],
      "name": "getParams",
      "outputs": [
        {
          "internalType": "bytes",
          "name": "",
          "type": "bytes"
        }
      ],
      "stateMutability": "pure",
      "type": "function"
    },
    {
      "inputs": [
        {
          "internalType": "bytes",
          "name": "data",
          "type": "bytes"
        },
        {
          "internalType": "uint256",
          "name": "offset",
          "type": "uint256"
        },
        {
          "internalType": "uint256",
          "name": "length",
          "type": "uint256"
        }
      ],
      "name": "read32",
      "outputs": [
        {
          "internalType": "bytes32",
          "name": "o",
          "type": "bytes32"
        }
      ],
      "stateMutability": "pure",
      "type": "function"
    },
    {
      "inputs": [
        {
          "internalType": "bytes",
          "name": "data",
          "type": "bytes"
        },
        {
          "internalType": "uint256",
          "name": "offset",
          "type": "uint256"
        }
      ],
      "name": "read4left",
      "outputs": [
        {
          "internalType": "bytes4",
          "name": "o",
          "type": "bytes4"
        }
      ],
      "stateMutability": "pure",
      "type": "function"
    },
    {
      "inputs": [
        {
          "internalType": "address",
          "name": "pool",
          "type": "address"
        },
        {
          "internalType": "address",
          "name": "asset",
          "type": "address"
        }
      ],
      "name": "removeAssetCheck",
      "outputs": [],
      "stateMutability": "view",
      "type": "function"
    },
    {
      "inputs": [
        {
          "internalType": "address",
          "name": "_poolManagerLogic",
          "type": "address"
        },
        {
          "internalType": "address",
          "name": "",
          "type": "address"
        },
        {
          "internalType": "bytes",
          "name": "data",
          "type": "bytes"
        }
      ],
      "name": "txGuard",
      "outputs": [
        {
          "internalType": "uint16",
          "name": "txType",
          "type": "uint16"
        },
        {
          "internalType": "bool",
          "name": "",
          "type": "bool"
        }
      ],
      "stateMutability": "nonpayable",
      "type": "function"
    },
    {
      "inputs": [],
      "name": "voter",
      "outputs": [
        {
          "internalType": "contract IVelodromeVoter",
          "name": "",
          "type": "address"
        }
      ],
      "stateMutability": "view",
      "type": "function"
    },
    {
      "inputs": [
        {
          "internalType": "address",
          "name": "pool",
          "type": "address"
        },
        {
          "internalType": "address",
          "name": "asset",
          "type": "address"
        },
        {
          "internalType": "uint256",
          "name": "portion",
          "type": "uint256"
        },
        {
          "internalType": "address",
          "name": "to",
          "type": "address"
        }
      ],
      "name": "withdrawProcessing",
      "outputs": [
        {
          "internalType": "address",
          "name": "withdrawAsset",
          "type": "address"
        },
        {
          "internalType": "uint256",
          "name": "withdrawBalance",
          "type": "uint256"
        },
        {
          "components": [
            {
              "internalType": "address",
              "name": "to",
              "type": "address"
            },
            {
              "internalType": "bytes",
              "name": "txData",
              "type": "bytes"
            }
          ],
          "internalType": "struct IAssetGuard.MultiTransaction[]",
          "name": "transactions",
          "type": "tuple[]"
        }
      ],
      "stateMutability": "view",
      "type": "function"
    }
  ],
  "bytecode": "0x60806040523480156200001157600080fd5b506040516200270a3803806200270a83398101604081905262000034916200005a565b600080546001600160a01b0319166001600160a01b03929092169190911790556200008a565b6000602082840312156200006c578081fd5b81516001600160a01b038116811462000083578182fd5b9392505050565b612670806200009a6000396000f3fe608060405234801561001057600080fd5b50600436106100d05760003560e01c806309ff5c7d146100d55780631053f952146100fe5780631eba30771461011e578063293d80631461013e57806341dc16c31461015e57806346c96aac146101715780636179309d14610179578063689015131461019a5780636d5fae54146101ad5780636f8ae202146101c257806382f86acc146101e4578063998546e3146101f7578063c3c6279f1461020a578063cf54aaa01461021d578063d4fac45d14610230578063db896b5714610243575b600080fd5b6100e86100e336600461223e565b610256565b6040516100f5919061251e565b60405180910390f35b61011161010c366004612282565b6102e9565b6040516100f5919061253c565b61013161012c366004612167565b610381565b6040516100f591906123b9565b61015161014c3660046121b1565b610384565b6040516100f59190612527565b6100e861016c3660046122d9565b6103e6565b6101316104c4565b61018c610187366004612069565b6104d3565b6040516100f59291906125bc565b6101116101a836600461217f565b610838565b6101c06101bb366004612031565b610853565b005b6101d56101d03660046120f5565b610884565b6040516100f593929190612490565b6100e86101f236600461223e565b611340565b6100e861020536600461223e565b61135e565b61015161021836600461217f565b61138f565b6100e861022b366004611ff9565b61139c565b6100e861023e366004612031565b611418565b6100e86102513660046121f3565b611b0b565b60008061026e848460200260040160ff166020611b0b565b9050600061028185600484016020611b0b565b9050806102ca576040805162461bcd60e51b8152602060048201526012602482015271696e707574206973206e6f7420617272617960701b604482015290519081900360640190fd5b6102de856020808402850160040190611b0b565b925050505b92915050565b606060148210610331576040805162461bcd60e51b815260206004820152600e60248201526d1a5b9d985b1a59081bd9999cd95d60921b604482015290519081900360640190fd5b816020029150600061035085848660200260040160ff16016020611b0b565b90506000610365868584016004016020611b0b565b90506103778660248487010183611b8a565b9695505050505050565b90565b600081600401835110156103dd576040805162461bcd60e51b815260206004820152601b60248201527a52656164696e67206279746573206f7574206f6620626f756e647360281b604482015290519081900360640190fd5b50016020015190565b6000806103fe858560200260040160ff166020611b0b565b9050600061041186600484016020611b0b565b90508061045a576040805162461bcd60e51b8152602060048201526012602482015271696e707574206973206e6f7420617272617960701b604482015290519081900360640190fd5b60ff841681116104aa576040805162461bcd60e51b815260206004820152601660248201527534b73b30b634b21030b93930bc903837b9b4ba34b7b760511b604482015290519081900360640190fd5b610377866020600160ff8816018102850160040190611b0b565b6000546001600160a01b031681565b600080600061051785858080601f01602080910402602001604051908101604052809392919081815260200183838082843760009201919091525061138f92505050565b90506001600160e01b0319811663095ea7b360e01b141561082a57600061057661012c87878080601f01602080910402602001604051908101604052809392919081815260200183838082843760009201829052509250611340915050565b905060006105bc87878080601f01602080910402602001604051908101604052809392919081815260200183838082843760009201919091525060019250611340915050565b60001c905060008990506000816001600160a01b031663c45a01556040518163ffffffff1660e01b815260040160206040518083038186803b15801561060157600080fd5b505afa158015610615573d6000803e3d6000fd5b505050506040513d601f19601f820116820180604052508101906106399190612015565b90506000816001600160a01b0316634f8419b9866040518263ffffffff1660e01b815260040161066991906123b9565b60206040518083038186803b15801561068157600080fd5b505afa158015610695573d6000803e3d6000fd5b505050506040513d601f19601f820116820180604052508101906106b99190612015565b90506001600160a01b038116158015906106dc57506001600160a01b0381163014155b6107015760405162461bcd60e51b81526004016106f890612586565b60405180910390fd5b7f5343b378d69227c1bc2016fd44e8104f0ffa7729f4f4f4110e349a2db0a0d0c8836001600160a01b03166339b81fd96040518163ffffffff1660e01b815260040160206040518083038186803b15801561075b57600080fd5b505afa15801561076f573d6000803e3d6000fd5b505050506040513d601f19601f820116820180604052508101906107939190612015565b8d6001600160a01b031663481c6a756040518163ffffffff1660e01b815260040160206040518083038186803b1580156107cc57600080fd5b505afa1580156107e0573d6000803e3d6000fd5b505050506040513d601f19601f820116820180604052508101906108049190612015565b8787426040516108189594939291906123e7565b60405180910390a16001975050505050505b506000905094509492505050565b60606102e360048084510384611b8a9092919063ffffffff16565b600061085f8383611418565b9050801561087f5760405162461bcd60e51b81526004016106f89061254f565b505050565b6000806060859250610924670de0b6b3a764000061091e87896001600160a01b03166370a082318c6040518263ffffffff1660e01b81526004016108c891906123b9565b60206040518083038186803b1580156108e057600080fd5b505afa1580156108f4573d6000803e3d6000fd5b505050506040513d601f19601f82011682018060405250810190610918919061233a565b90611cdb565b90611d34565b6000805460405163b9a09fd560e01b815292945090916001600160a01b039091169063b9a09fd59061095a908a906004016123b9565b60206040518083038186803b15801561097257600080fd5b505afa158015610986573d6000803e3d6000fd5b505050506040513d601f19601f820116820180604052508101906109aa9190612015565b905060006001600160a01b03821615610a3357816001600160a01b031663e68863966040518163ffffffff1660e01b815260040160206040518083038186803b1580156109f657600080fd5b505afa158015610a0a573d6000803e3d6000fd5b505050506040513d601f19601f82011682018060405250810190610a2e919061233a565b610a36565b60005b90506000816005016001600160401b0381118015610a5357600080fd5b50604051908082528060200260200182016040528015610a8d57816020015b610a7a611f6d565b815260200190600190039081610a725790505b5093506000896001600160a01b0316634d5a9f8a8c6040518263ffffffff1660e01b8152600401610abe91906123b9565b60206040518083038186803b158015610ad657600080fd5b505afa158015610aea573d6000803e3d6000fd5b505050506040513d601f19601f82011682018060405250810190610b0e919061233a565b905060008a6001600160a01b031663a1ac4d138d6040518263ffffffff1660e01b8152600401610b3e91906123b9565b60206040518083038186803b158015610b5657600080fd5b505afa158015610b6a573d6000803e3d6000fd5b505050506040513d601f19601f82011682018060405250810190610b8e919061233a565b90506000821180610b9f5750600081115b15610e76578a868481518110610bb157fe5b6020908102919091018101516001600160a01b0390921690915260408051600481526024810190915290810180516001600160e01b031663d294f09360e01b1790528651879085908110610c0157fe5b6020908102919091018101510152610c1a836001611d98565b92508115610d49578a6001600160a01b0316630dfe16816040518163ffffffff1660e01b815260040160206040518083038186803b158015610c5b57600080fd5b505afa158015610c6f573d6000803e3d6000fd5b505050506040513d601f19601f82011682018060405250810190610c939190612015565b868481518110610c9f57fe5b60209081029190910101516001600160a01b0390911690526000805160206125fa83398151915289610cdd670de0b6b3a764000061091e868f611cdb565b604051602401610cee929190612477565b604051602081830303815290604052906001600160e01b0319166020820180516001600160e01b038381831617835250505050868481518110610d2d57fe5b6020908102919091018101510152610d46836001611d98565b92505b8015610e76578a6001600160a01b031663d21220a76040518163ffffffff1660e01b815260040160206040518083038186803b158015610d8857600080fd5b505afa158015610d9c573d6000803e3d6000fd5b505050506040513d601f19601f82011682018060405250810190610dc09190612015565b868481518110610dcc57fe5b60209081029190910101516001600160a01b0390911690526000805160206125fa83398151915289610e0a670de0b6b3a764000061091e858f611cdb565b604051602401610e1b929190612477565b604051602081830303815290604052906001600160e01b0319166020820180516001600160e01b038381831617835250505050868481518110610e5a57fe5b6020908102919091018101510152610e73836001611d98565b92505b50506001600160a01b0383161561131b576040516370a0823160e01b81526000906001600160a01b038516906370a0823190610eb6908e906004016123b9565b60206040518083038186803b158015610ece57600080fd5b505afa158015610ee2573d6000803e3d6000fd5b505050506040513d601f19601f82011682018060405250810190610f06919061233a565b90508015610fdc576000610f26670de0b6b3a764000061091e848d611cdb565b905084868481518110610f3557fe5b60209081029190910101516001600160a01b0390911690526040517f2e1a7d4d13322e7b96f9a57413e1525c250fb7a9021cf91d1540d5b69f16a49f90610f8090839060240161251e565b604051602081830303815290604052906001600160e01b0319166020820180516001600160e01b038381831617835250505050868481518110610fbf57fe5b6020908102919091018101510152610fd8836001611d98565b9250505b506000826001600160401b0381118015610ff557600080fd5b5060405190808252806020026020018201604052801561101f578160200160208202803683370190505b50905060005b838110156110d557604051637980d7a160e11b81526001600160a01b0386169063f301af429061105990849060040161251e565b60206040518083038186803b15801561107157600080fd5b505afa158015611085573d6000803e3d6000fd5b505050506040513d601f19601f820116820180604052508101906110a99190612015565b8282815181106110b557fe5b6001600160a01b0390921660209283029190910190910152600101611025565b50838583815181106110e357fe5b60209081029190910101516001600160a01b0390911690526040517f31279d3dc61616e90e0967daff75f9c7fba24d26d5911cb037289277292e178990611130908d90849060240161241b565b604051602081830303815290604052906001600160e01b0319166020820180516001600160e01b03838183161783525050505085838151811061116f57fe5b6020908102919091018101510152611188826001611d98565b915060005b83811015611318576000856001600160a01b031663211dc32d8484815181106111b257fe5b60200260200101518f6040518363ffffffff1660e01b81526004016111d89291906123cd565b60206040518083038186803b1580156111f057600080fd5b505afa158015611204573d6000803e3d6000fd5b505050506040513d601f19601f82011682018060405250810190611228919061233a565b9050801561130f5782828151811061123c57fe5b602002602001015187858151811061125057fe5b6020026020010151600001906001600160a01b031690816001600160a01b0316815250506000805160206125fa8339815191528a6112a3670de0b6b3a764000061091e8f86611cdb90919063ffffffff16565b6040516024016112b4929190612477565b604051602081830303815290604052906001600160e01b0319166020820180516001600160e01b0383818316178352505050508785815181106112f357fe5b602090810291909101810151015261130c846001611d98565b93505b5060010161118d565b50505b835160009061132a9083611df0565b9050808551038552505050509450945094915050565b6000611357838360200260040160ff166020611b0b565b9392505050565b600080611376848460200260040160ff166020611b0b565b905061138784600483016020611b0b565b949350505050565b60006102e3826000610384565b6000816001600160a01b031663313ce5676040518163ffffffff1660e01b815260040160206040518083038186803b1580156113d757600080fd5b505afa1580156113eb573d6000803e3d6000fd5b505050506040513d601f19601f8201168201806040525081019061140f9190612352565b60ff1692915050565b6000805460405163b9a09fd560e01b815282916001600160a01b03169063b9a09fd5906114499086906004016123b9565b60206040518083038186803b15801561146157600080fd5b505afa158015611475573d6000803e3d6000fd5b505050506040513d601f19601f820116820180604052508101906114999190612015565b6040516370a0823160e01b81529091506001600160a01b038416906370a08231906114c89087906004016123b9565b60206040518083038186803b1580156114e057600080fd5b505afa1580156114f4573d6000803e3d6000fd5b505050506040513d601f19601f82011682018060405250810190611518919061233a565b91506001600160a01b038116156115b3576040516370a0823160e01b81526115b0906001600160a01b038316906370a08231906115599088906004016123b9565b60206040518083038186803b15801561157157600080fd5b505afa158015611585573d6000803e3d6000fd5b505050506040513d601f19601f820116820180604052508101906115a9919061233a565b8390611d98565b91505b600080856001600160a01b031663c45a01556040518163ffffffff1660e01b815260040160206040518083038186803b1580156115ef57600080fd5b505afa158015611603573d6000803e3d6000fd5b505050506040513d601f19601f820116820180604052508101906116279190612015565b90506000866001600160a01b0316631e50a4a66040518163ffffffff1660e01b815260040160206040518083038186803b15801561166457600080fd5b505afa158015611678573d6000803e3d6000fd5b505050506040513d601f19601f8201168201806040525081019061169c9190612015565b90506000866001600160a01b0316630dfe16816040518163ffffffff1660e01b815260040160206040518083038186803b1580156116d957600080fd5b505afa1580156116ed573d6000803e3d6000fd5b505050506040513d601f19601f820116820180604052508101906117119190612015565b90506000876001600160a01b0316634d5a9f8a8a6040518263ffffffff1660e01b815260040161174191906123b9565b60206040518083038186803b15801561175957600080fd5b505afa15801561176d573d6000803e3d6000fd5b505050506040513d601f19601f82011682018060405250810190611791919061233a565b90506117a96117a285858585611e4d565b8690611d98565b945050506000866001600160a01b031663d21220a76040518163ffffffff1660e01b815260040160206040518083038186803b1580156117e857600080fd5b505afa1580156117fc573d6000803e3d6000fd5b505050506040513d601f19601f820116820180604052508101906118209190612015565b90506000876001600160a01b031663a1ac4d138a6040518263ffffffff1660e01b815260040161185091906123b9565b60206040518083038186803b15801561186857600080fd5b505afa15801561187c573d6000803e3d6000fd5b505050506040513d601f19601f820116820180604052508101906118a0919061233a565b90506118b16117a285858585611e4d565b945050506001600160a01b03841615611a6c576000846001600160a01b031663e68863966040518163ffffffff1660e01b815260040160206040518083038186803b1580156118ff57600080fd5b505afa158015611913573d6000803e3d6000fd5b505050506040513d601f19601f82011682018060405250810190611937919061233a565b905060005b81811015611a6957604051637980d7a160e11b81526000906001600160a01b0388169063f301af429061197390859060040161251e565b60206040518083038186803b15801561198b57600080fd5b505afa15801561199f573d6000803e3d6000fd5b505050506040513d601f19601f820116820180604052508101906119c39190612015565b90506000876001600160a01b031663211dc32d838d6040518363ffffffff1660e01b81526004016119f59291906123cd565b60206040518083038186803b158015611a0d57600080fd5b505afa158015611a21573d6000803e3d6000fd5b505050506040513d601f19601f82011682018060405250810190611a45919061233a565b9050611a5d611a5687878585611e4d565b8890611d98565b9650505060010161193c565b50505b611b006117a2836001600160a01b031663b3596f07896040518263ffffffff1660e01b8152600401611a9e91906123b9565b60206040518083038186803b158015611ab657600080fd5b505afa158015611aca573d6000803e3d6000fd5b505050506040513d601f19601f82011682018060405250810190611aee919061233a565b61091e86670de0b6b3a7640000611cdb565b979650505050505050565b600081830184511015611b63576040805162461bcd60e51b815260206004820152601b60248201527a52656164696e67206279746573206f7574206f6620626f756e647360281b604482015290519081900360640190fd5b826020018401519050816020038015611b82576008810260020a820491505b509392505050565b60608182601f011015611bd5576040805162461bcd60e51b815260206004820152600e60248201526d736c6963655f6f766572666c6f7760901b604482015290519081900360640190fd5b828284011015611c1d576040805162461bcd60e51b815260206004820152600e60248201526d736c6963655f6f766572666c6f7760901b604482015290519081900360640190fd5b81830184511015611c69576040805162461bcd60e51b8152602060048201526011602482015270736c6963655f6f75744f66426f756e647360781b604482015290519081900360640190fd5b606082158015611c885760405191506000825260208201604052611cd2565b6040519150601f8416801560200281840101858101878315602002848b0101015b81831015611cc1578051835260209283019201611ca9565b5050858452601f01601f1916604052505b50949350505050565b600082611cea575060006102e3565b82820282848281611cf757fe5b04146113575760405162461bcd60e51b815260040180806020018281038252602181526020018061261a6021913960400191505060405180910390fd5b6000808211611d87576040805162461bcd60e51b815260206004820152601a602482015279536166654d6174683a206469766973696f6e206279207a65726f60301b604482015290519081900360640190fd5b818381611d9057fe5b049392505050565b600082820183811015611357576040805162461bcd60e51b815260206004820152601b60248201527a536166654d6174683a206164646974696f6e206f766572666c6f7760281b604482015290519081900360640190fd5b600082821115611e47576040805162461bcd60e51b815260206004820152601e60248201527f536166654d6174683a207375627472616374696f6e206f766572666c6f770000604482015290519081900360640190fd5b50900390565b60405163cc435bf360e01b81526000906001600160a01b0386169063cc435bf390611e7c9086906004016123b9565b60206040518083038186803b158015611e9457600080fd5b505afa158015611ea8573d6000803e3d6000fd5b505050506040513d601f19601f82011682018060405250810190611ecc9190612147565b8015611ed85750600082115b15611f62576040516314e03fdd60e11b81526001600160a01b038516906329c07fba90611f0b9086908690600401612477565b60206040518083038186803b158015611f2357600080fd5b505afa158015611f37573d6000803e3d6000fd5b505050506040513d601f19601f82011682018060405250810190611f5b919061233a565b9050611387565b506000949350505050565b60408051808201909152600081526060602082015290565b600082601f830112611f95578081fd5b81356001600160401b0380821115611fa957fe5b604051601f8301601f191681016020018281118282101715611fc757fe5b604052828152848301602001861015611fde578384fd5b82602086016020830137918201602001929092529392505050565b60006020828403121561200a578081fd5b8135611357816125d2565b600060208284031215612026578081fd5b8151611357816125d2565b60008060408385031215612043578081fd5b823561204e816125d2565b9150602083013561205e816125d2565b809150509250929050565b6000806000806060858703121561207e578182fd5b8435612089816125d2565b93506020850135612099816125d2565b925060408501356001600160401b03808211156120b4578384fd5b818701915087601f8301126120c7578384fd5b8135818111156120d5578485fd5b8860208285010111156120e6578485fd5b95989497505060200194505050565b6000806000806080858703121561210a578384fd5b8435612115816125d2565b93506020850135612125816125d2565b925060408501359150606085013561213c816125d2565b939692955090935050565b600060208284031215612158578081fd5b81518015158114611357578182fd5b600060208284031215612178578081fd5b5035919050565b600060208284031215612190578081fd5b81356001600160401b038111156121a5578182fd5b61138784828501611f85565b600080604083850312156121c3578182fd5b82356001600160401b038111156121d8578283fd5b6121e485828601611f85565b95602094909401359450505050565b600080600060608486031215612207578283fd5b83356001600160401b0381111561221c578384fd5b61222886828701611f85565b9660208601359650604090950135949350505050565b60008060408385031215612250578182fd5b82356001600160401b03811115612265578283fd5b61227185828601611f85565b925050602083013561205e816125ea565b600080600060608486031215612296578283fd5b83356001600160401b038111156122ab578384fd5b6122b786828701611f85565b93505060208401356122c8816125ea565b929592945050506040919091013590565b6000806000606084860312156122ed578081fd5b83356001600160401b03811115612302578182fd5b61230e86828701611f85565b935050602084013561231f816125ea565b9150604084013561232f816125ea565b809150509250925092565b60006020828403121561234b578081fd5b5051919050565b600060208284031215612363578081fd5b8151611357816125ea565b60008151808452815b8181101561239357602081850181015186830182015201612377565b818111156123a45782602083870101525b50601f01601f19169290920160200192915050565b6001600160a01b0391909116815260200190565b6001600160a01b0392831681529116602082015260400190565b6001600160a01b03958616815293851660208501529190931660408301526060820192909252608081019190915260a00190565b6001600160a01b038381168252604060208084018290528451918401829052600092858201929091906060860190855b8181101561246957855185168352948301949183019160010161244b565b509098975050505050505050565b6001600160a01b03929092168252602082015260400190565b60006060820160018060a01b03808716845260208681860152604060608187015283875180865260808801915060808482028901019550838901875b8281101561250d57898803607f1901845281518051881689528601518689018690526124fa868a018261236e565b98505092850192908501906001016124cc565b50959b9a5050505050505050505050565b90815260200190565b6001600160e01b031991909116815260200190565b600060208252611357602083018461236e565b6020808252601d908201527f63616e6e6f742072656d6f7665206e6f6e2d656d707479206173736574000000604082015260600190565b6020808252601c908201527b1d5b9cdd5c1c1bdc9d1959081cdc195b99195c88185c1c1c9bdd985b60221b604082015260600190565b61ffff9290921682521515602082015260400190565b6001600160a01b03811681146125e757600080fd5b50565b60ff811681146125e757600080fdfea9059cbb2ab09eb219583f4a59a5d0623ade346d962bcd4e46b11da047c9049b536166654d6174683a206d756c7469706c69636174696f6e206f766572666c6f77a2646970667358221220e854122191396ea8da5ad4d8e803ecc3b2986e1194ae42c5000a03e700ed2d2f64736f6c63430007060033",
  "linkReferences": {},
  "deployedLinkReferences": {}
}