{
  "_format": "hh-sol-artifact-1",
  "contractName": "SushiMiniChefV2Guard",
  "sourceName": "contracts/guards/contractGuards/SushiMiniChefV2Guard.sol",
  "abi": [
    {
      "inputs": [
        {
          "internalType": "address[]",
          "name": "_rewardTokens",
          "type": "address[]"
        }
      ],
      "stateMutability": "nonpayable",
      "type": "constructor"
    },
    {
      "anonymous": false,
      "inputs": [
        {
          "indexed": false,
          "internalType": "address",
          "name": "fundAddress",
          "type": "address"
        },
        {
          "indexed": false,
          "internalType": "address",
          "name": "stakingContract",
          "type": "address"
        },
        {
          "indexed": false,
          "internalType": "uint256",
          "name": "time",
          "type": "uint256"
        }
      ],
      "name": "Claim",
      "type": "event"
    },
    {
      "anonymous": false,
      "inputs": [
        {
          "indexed": false,
          "internalType": "address",
          "name": "fundAddress",
          "type": "address"
        },
        {
          "indexed": false,
          "internalType": "address",
          "name": "sourceAsset",
          "type": "address"
        },
        {
          "indexed": false,
          "internalType": "uint256",
          "name": "sourceAmount",
          "type": "uint256"
        },
        {
          "indexed": false,
          "internalType": "address",
          "name": "dstAsset",
          "type": "address"
        },
        {
          "indexed": false,
          "internalType": "uint256",
          "name": "time",
          "type": "uint256"
        }
      ],
      "name": "ExchangeFrom",
      "type": "event"
    },
    {
      "anonymous": false,
      "inputs": [
        {
          "indexed": false,
          "internalType": "address",
          "name": "fundAddress",
          "type": "address"
        },
        {
          "indexed": false,
          "internalType": "address",
          "name": "sourceAsset",
          "type": "address"
        },
        {
          "indexed": false,
          "internalType": "address",
          "name": "dstAsset",
          "type": "address"
        },
        {
          "indexed": false,
          "internalType": "uint256",
          "name": "dstAmount",
          "type": "uint256"
        },
        {
          "indexed": false,
          "internalType": "uint256",
          "name": "time",
          "type": "uint256"
        }
      ],
      "name": "ExchangeTo",
      "type": "event"
    },
    {
      "anonymous": false,
      "inputs": [
        {
          "indexed": false,
          "internalType": "address",
          "name": "fundAddress",
          "type": "address"
        },
        {
          "indexed": false,
          "internalType": "address",
          "name": "asset",
          "type": "address"
        },
        {
          "indexed": false,
          "internalType": "address",
          "name": "stakingContract",
          "type": "address"
        },
        {
          "indexed": false,
          "internalType": "uint256",
          "name": "amount",
          "type": "uint256"
        },
        {
          "indexed": false,
          "internalType": "uint256",
          "name": "time",
          "type": "uint256"
        }
      ],
      "name": "Stake",
      "type": "event"
    },
    {
      "anonymous": false,
      "inputs": [
        {
          "indexed": false,
          "internalType": "address",
          "name": "fundAddress",
          "type": "address"
        },
        {
          "indexed": false,
          "internalType": "address",
          "name": "asset",
          "type": "address"
        },
        {
          "indexed": false,
          "internalType": "address",
          "name": "stakingContract",
          "type": "address"
        },
        {
          "indexed": false,
          "internalType": "uint256",
          "name": "amount",
          "type": "uint256"
        },
        {
          "indexed": false,
          "internalType": "uint256",
          "name": "time",
          "type": "uint256"
        }
      ],
      "name": "Unstake",
      "type": "event"
    },
    {
      "inputs": [
        {
          "internalType": "bytes32",
          "name": "data",
          "type": "bytes32"
        }
      ],
      "name": "convert32toAddress",
      "outputs": [
        {
          "internalType": "address",
          "name": "o",
          "type": "address"
        }
      ],
      "stateMutability": "pure",
      "type": "function"
    },
    {
      "inputs": [
        {
          "internalType": "bytes",
          "name": "data",
          "type": "bytes"
        },
        {
          "internalType": "uint8",
          "name": "inputNum",
          "type": "uint8"
        },
        {
          "internalType": "uint8",
          "name": "arrayIndex",
          "type": "uint8"
        }
      ],
      "name": "getArrayIndex",
      "outputs": [
        {
          "internalType": "bytes32",
          "name": "",
          "type": "bytes32"
        }
      ],
      "stateMutability": "pure",
      "type": "function"
    },
    {
      "inputs": [
        {
          "internalType": "bytes",
          "name": "data",
          "type": "bytes"
        },
        {
          "internalType": "uint8",
          "name": "inputNum",
          "type": "uint8"
        }
      ],
      "name": "getArrayLast",
      "outputs": [
        {
          "internalType": "bytes32",
          "name": "",
          "type": "bytes32"
        }
      ],
      "stateMutability": "pure",
      "type": "function"
    },
    {
      "inputs": [
        {
          "internalType": "bytes",
          "name": "data",
          "type": "bytes"
        },
        {
          "internalType": "uint8",
          "name": "inputNum",
          "type": "uint8"
        }
      ],
      "name": "getArrayLength",
      "outputs": [
        {
          "internalType": "uint256",
          "name": "",
          "type": "uint256"
        }
      ],
      "stateMutability": "pure",
      "type": "function"
    },
    {
      "inputs": [
        {
          "internalType": "bytes",
          "name": "data",
          "type": "bytes"
        },
        {
          "internalType": "uint8",
          "name": "inputNum",
          "type": "uint8"
        },
        {
          "internalType": "uint256",
          "name": "offset",
          "type": "uint256"
        }
      ],
      "name": "getBytes",
      "outputs": [
        {
          "internalType": "bytes",
          "name": "",
          "type": "bytes"
        }
      ],
      "stateMutability": "pure",
      "type": "function"
    },
    {
      "inputs": [
        {
          "internalType": "bytes",
          "name": "data",
          "type": "bytes"
        },
        {
          "internalType": "uint8",
          "name": "inputNum",
          "type": "uint8"
        }
      ],
      "name": "getInput",
      "outputs": [
        {
          "internalType": "bytes32",
          "name": "",
          "type": "bytes32"
        }
      ],
      "stateMutability": "pure",
      "type": "function"
    },
    {
      "inputs": [
        {
          "internalType": "bytes",
          "name": "data",
          "type": "bytes"
        }
      ],
      "name": "getMethod",
      "outputs": [
        {
          "internalType": "bytes4",
          "name": "",
          "type": "bytes4"
        }
      ],
      "stateMutability": "pure",
      "type": "function"
    },
    {
      "inputs": [
        {
          "internalType": "bytes",
          "name": "data",
          "type": "bytes"
        }
      ],
      "name": "getParams",
      "outputs": [
        {
          "internalType": "bytes",
          "name": "",
          "type": "bytes"
        }
      ],
      "stateMutability": "pure",
      "type": "function"
    },
    {
      "inputs": [
        {
          "internalType": "bytes",
          "name": "data",
          "type": "bytes"
        },
        {
          "internalType": "uint256",
          "name": "offset",
          "type": "uint256"
        },
        {
          "internalType": "uint256",
          "name": "length",
          "type": "uint256"
        }
      ],
      "name": "read32",
      "outputs": [
        {
          "internalType": "bytes32",
          "name": "o",
          "type": "bytes32"
        }
      ],
      "stateMutability": "pure",
      "type": "function"
    },
    {
      "inputs": [
        {
          "internalType": "bytes",
          "name": "data",
          "type": "bytes"
        },
        {
          "internalType": "uint256",
          "name": "offset",
          "type": "uint256"
        }
      ],
      "name": "read4left",
      "outputs": [
        {
          "internalType": "bytes4",
          "name": "o",
          "type": "bytes4"
        }
      ],
      "stateMutability": "pure",
      "type": "function"
    },
    {
      "inputs": [
        {
          "internalType": "uint256",
          "name": "",
          "type": "uint256"
        }
      ],
      "name": "rewardTokens",
      "outputs": [
        {
          "internalType": "address",
          "name": "",
          "type": "address"
        }
      ],
      "stateMutability": "view",
      "type": "function"
    },
    {
      "inputs": [
        {
          "internalType": "address",
          "name": "_poolManagerLogic",
          "type": "address"
        },
        {
          "internalType": "address",
          "name": "to",
          "type": "address"
        },
        {
          "internalType": "bytes",
          "name": "data",
          "type": "bytes"
        }
      ],
      "name": "txGuard",
      "outputs": [
        {
          "internalType": "uint16",
          "name": "txType",
          "type": "uint16"
        },
        {
          "internalType": "bool",
          "name": "isPublic",
          "type": "bool"
        }
      ],
      "stateMutability": "nonpayable",
      "type": "function"
    }
  ],
  "bytecode": "0x60806040523480156200001157600080fd5b506040516200213038038062002130833981810160405260208110156200003757600080fd5b81019080805160405193929190846401000000008211156200005857600080fd5b9083019060208201858111156200006e57600080fd5b82518660208202830111640100000000821117156200008c57600080fd5b82525081516020918201928201910280838360005b83811015620000bb578181015183820152602001620000a1565b505050509190910160405250508251620000df9250600091506020840190620000e7565b505062000168565b8280548282559060005260206000209081019282156200013f579160200282015b828111156200013f57825182546001600160a01b0319166001600160a01b0390911617825560209092019160019091019062000108565b506200014d92915062000151565b5090565b5b808211156200014d576000815560010162000152565b611fb880620001786000396000f3fe608060405234801561001057600080fd5b50600436106100a45760003560e01c806309ff5c7d146100a95780631053f952146101645780631eba307714610285578063293d8063146102be57806341dc16c3146103815780636179309d1461043557806368901513146104da5780637bb7bed11461057e57806382f86acc1461059b578063998546e314610644578063c3c6279f146106ed578063db896b5714610791575b600080fd5b610152600480360360408110156100bf57600080fd5b810190602081018135600160201b8111156100d957600080fd5b8201836020820111156100eb57600080fd5b803590602001918460018302840111600160201b8311171561010c57600080fd5b91908080601f0160208091040260200160405190810160405280939291908181526020018383808284376000920191909152509295505050903560ff16915061083a9050565b60408051918252519081900360200190f35b6102106004803603606081101561017a57600080fd5b810190602081018135600160201b81111561019457600080fd5b8201836020820111156101a657600080fd5b803590602001918460018302840111600160201b831117156101c757600080fd5b91908080601f0160208091040260200160405190810160405280939291908181526020018383808284376000920191909152509295505060ff83351693505050602001356108cb565b6040805160208082528351818301528351919283929083019185019080838360005b8381101561024a578181015183820152602001610232565b50505050905090810190601f1680156102775780820380516001836020036101000a031916815260200191505b509250505060405180910390f35b6102a26004803603602081101561029b57600080fd5b5035610963565b604080516001600160a01b039092168252519081900360200190f35b610364600480360360408110156102d457600080fd5b810190602081018135600160201b8111156102ee57600080fd5b82018360208201111561030057600080fd5b803590602001918460018302840111600160201b8311171561032157600080fd5b91908080601f0160208091040260200160405190810160405280939291908181526020018383808284376000920191909152509295505091359250610966915050565b604080516001600160e01b03199092168252519081900360200190f35b6101526004803603606081101561039757600080fd5b810190602081018135600160201b8111156103b157600080fd5b8201836020820111156103c357600080fd5b803590602001918460018302840111600160201b831117156103e457600080fd5b91908080601f0160208091040260200160405190810160405280939291908181526020018383808284376000920191909152509295505060ff83358116945060209093013590921691506109c89050565b6104bc6004803603606081101561044b57600080fd5b6001600160a01b038235811692602081013590911691810190606081016040820135600160201b81111561047e57600080fd5b82018360208201111561049057600080fd5b803590602001918460018302840111600160201b831117156104b157600080fd5b509092509050610aa6565b6040805161ffff909316835290151560208301528051918290030190f35b610210600480360360208110156104f057600080fd5b810190602081018135600160201b81111561050a57600080fd5b82018360208201111561051c57600080fd5b803590602001918460018302840111600160201b8311171561053d57600080fd5b91908080601f016020809104026020016040519081016040528093929190818152602001838380828437600092019190915250929550611ccb945050505050565b6102a26004803603602081101561059457600080fd5b5035611cec565b610152600480360360408110156105b157600080fd5b810190602081018135600160201b8111156105cb57600080fd5b8201836020820111156105dd57600080fd5b803590602001918460018302840111600160201b831117156105fe57600080fd5b91908080601f0160208091040260200160405190810160405280939291908181526020018383808284376000920191909152509295505050903560ff169150611d169050565b6101526004803603604081101561065a57600080fd5b810190602081018135600160201b81111561067457600080fd5b82018360208201111561068657600080fd5b803590602001918460018302840111600160201b831117156106a757600080fd5b91908080601f0160208091040260200160405190810160405280939291908181526020018383808284376000920191909152509295505050903560ff169150611d349050565b6103646004803603602081101561070357600080fd5b810190602081018135600160201b81111561071d57600080fd5b82018360208201111561072f57600080fd5b803590602001918460018302840111600160201b8311171561075057600080fd5b91908080601f016020809104026020016040519081016040528093929190818152602001838380828437600092019190915250929550611d65945050505050565b610152600480360360608110156107a757600080fd5b810190602081018135600160201b8111156107c157600080fd5b8201836020820111156107d357600080fd5b803590602001918460018302840111600160201b831117156107f457600080fd5b91908080601f0160208091040260200160405190810160405280939291908181526020018383808284376000920191909152509295505082359350505060200135611d72565b600080610852848460200260040160ff166020611d72565b9050600061086585600484016020611d72565b9050806108ae576040805162461bcd60e51b8152602060048201526012602482015271696e707574206973206e6f7420617272617960701b604482015290519081900360640190fd5b6108c2856020808402850160040190611d72565b95945050505050565b606060148210610913576040805162461bcd60e51b815260206004820152600e60248201526d1a5b9d985b1a59081bd9999cd95d60921b604482015290519081900360640190fd5b816020029150600061093285848660200260040160ff16016020611d72565b90506000610947868584016004016020611d72565b90506109598660248487010183611df1565b9695505050505050565b90565b600081600401835110156109bf576040805162461bcd60e51b815260206004820152601b60248201527a52656164696e67206279746573206f7574206f6620626f756e647360281b604482015290519081900360640190fd5b50016020015190565b6000806109e0858560200260040160ff166020611d72565b905060006109f386600484016020611d72565b905080610a3c576040805162461bcd60e51b8152602060048201526012602482015271696e707574206973206e6f7420617272617960701b604482015290519081900360640190fd5b60ff84168111610a8c576040805162461bcd60e51b815260206004820152601660248201527534b73b30b634b21030b93930bc903837b9b4ba34b7b760511b604482015290519081900360640190fd5b610959866020600160ff8816018102850160040190611d72565b6000806000610aea85858080601f016020809104026020016040519081016040528093929190818152602001838380828437600092019190915250611d6592505050565b90506001600160e01b03198116638dbdbe6d60e01b1415610f315760008790506000816001600160a01b03166339b81fd96040518163ffffffff1660e01b815260040160206040518083038186803b158015610b4557600080fd5b505afa158015610b59573d6000803e3d6000fd5b505050506040513d6020811015610b6f57600080fd5b5051604080516020601f8a01819004810282018101909252888152919250600091610bb4918a908a908190840183828082843760009201829052509250611d16915050565b60001c90506000610bfd89898080601f01602080910402602001604051908101604052809392919081815260200183838082843760009201919091525060019250611d16915050565b60001c90506000610c4e610c498b8b8080601f01602080910402602001604051908101604052809392919081815260200183838082843760009201919091525060029250611d16915050565b610963565b905060008b6001600160a01b03166378ed5d1f856040518263ffffffff1660e01b81526004018082815260200191505060206040518083038186803b158015610c9657600080fd5b505afa158015610caa573d6000803e3d6000fd5b505050506040513d6020811015610cc057600080fd5b505160408051634df48c7360e11b81526001600160a01b0380841660048301529151929350908f1691639be918e691602480820192602092909190829003018186803b158015610d0f57600080fd5b505afa158015610d23573d6000803e3d6000fd5b505050506040513d6020811015610d3957600080fd5b5051610d83576040805162461bcd60e51b81526020600482015260146024820152731d5b9cdd5c1c1bdc9d1959081b1c08185cdcd95d60621b604482015290519081900360640190fd5b816001600160a01b0316856001600160a01b031614610dd7576040805162461bcd60e51b81526020600482015260156024820152600080516020611f63833981519152604482015290519081900360640190fd5b60005b600054811015610ec9578d6001600160a01b0316639be918e660008381548110610e0057fe5b60009182526020918290200154604080516001600160e01b031960e086901b1681526001600160a01b0390921660048301525160248083019392829003018186803b158015610e4e57600080fd5b505afa158015610e62573d6000803e3d6000fd5b505050506040513d6020811015610e7857600080fd5b5051610ec1576040805162461bcd60e51b815260206004820152601360248201527232b730b13632903932bbb0b932103a37b5b2b760691b604482015290519081900360640190fd5b600101610dda565b50604080516001600160a01b03808816825280841660208301528e16818301526060810185905242608082015290517f592d8fba044f9498232ce6c14dc7eb3a60f723f4d6731918aea4f6ae0c0810449181900360a00190a160059850505050505050611cc1565b6001600160e01b03198116630ad58d2f60e01b141561126c5760008790506000816001600160a01b03166339b81fd96040518163ffffffff1660e01b815260040160206040518083038186803b158015610f8a57600080fd5b505afa158015610f9e573d6000803e3d6000fd5b505050506040513d6020811015610fb457600080fd5b5051604080516020601f8a01819004810282018101909252888152919250600091610ff9918a908a908190840183828082843760009201829052509250611d16915050565b60001c9050600061104289898080601f01602080910402602001604051908101604052809392919081815260200183838082843760009201919091525060019250611d16915050565b60001c9050600061108e610c498b8b8080601f01602080910402602001604051908101604052809392919081815260200183838082843760009201919091525060029250611d16915050565b905060008b6001600160a01b03166378ed5d1f856040518263ffffffff1660e01b81526004018082815260200191505060206040518083038186803b1580156110d657600080fd5b505afa1580156110ea573d6000803e3d6000fd5b505050506040513d602081101561110057600080fd5b505160408051634df48c7360e11b81526001600160a01b0380841660048301529151929350908f1691639be918e691602480820192602092909190829003018186803b15801561114f57600080fd5b505afa158015611163573d6000803e3d6000fd5b505050506040513d602081101561117957600080fd5b50516111c3576040805162461bcd60e51b81526020600482015260146024820152731d5b9cdd5c1c1bdc9d1959081b1c08185cdcd95d60621b604482015290519081900360640190fd5b816001600160a01b0316856001600160a01b031614611217576040805162461bcd60e51b81526020600482015260156024820152600080516020611f63833981519152604482015290519081900360640190fd5b604080516001600160a01b03808816825280841660208301528e1681830152606081018590524260808201529051600080516020611f438339815191529181900360a00190a160069850505050505050611cc1565b6001600160e01b03198116630c7e663b60e11b14156114de5760008790506000816001600160a01b03166339b81fd96040518163ffffffff1660e01b815260040160206040518083038186803b1580156112c557600080fd5b505afa1580156112d9573d6000803e3d6000fd5b505050506040513d60208110156112ef57600080fd5b5051604080516020601f8a0181900481028201810190925288815291925060009161133c91610c4991908b908b908190840183828082843760009201919091525060019250611d16915050565b905060005b600054811015611430578a6001600160a01b0316639be918e66000838154811061136757fe5b60009182526020918290200154604080516001600160e01b031960e086901b1681526001600160a01b0390921660048301525160248083019392829003018186803b1580156113b557600080fd5b505afa1580156113c9573d6000803e3d6000fd5b505050506040513d60208110156113df57600080fd5b5051611428576040805162461bcd60e51b815260206004820152601360248201527232b730b13632903932bbb0b932103a37b5b2b760691b604482015290519081900360640190fd5b600101611341565b50806001600160a01b0316826001600160a01b031614611485576040805162461bcd60e51b81526020600482015260156024820152600080516020611f63833981519152604482015290519081900360640190fd5b604080516001600160a01b0380851682528b166020820152428183015290517f70eb43c4a8ae8c40502dcf22436c509c28d6ff421cf07c491be56984bd9870689181900360600190a16007955060019450505050611cc1565b6001600160e01b0319811663d1abb90760e01b14156119555760008790506000816001600160a01b03166339b81fd96040518163ffffffff1660e01b815260040160206040518083038186803b15801561153757600080fd5b505afa15801561154b573d6000803e3d6000fd5b505050506040513d602081101561156157600080fd5b5051604080516020601f8a018190048102820181019092528881529192506000916115a6918a908a908190840183828082843760009201829052509250611d16915050565b60001c905060006115ef89898080601f01602080910402602001604051908101604052809392919081815260200183838082843760009201919091525060019250611d16915050565b60001c9050600061163b610c498b8b8080601f01602080910402602001604051908101604052809392919081815260200183838082843760009201919091525060029250611d16915050565b905060008b6001600160a01b03166378ed5d1f856040518263ffffffff1660e01b81526004018082815260200191505060206040518083038186803b15801561168357600080fd5b505afa158015611697573d6000803e3d6000fd5b505050506040513d60208110156116ad57600080fd5b505160408051634df48c7360e11b81526001600160a01b0380841660048301529151929350908f1691639be918e691602480820192602092909190829003018186803b1580156116fc57600080fd5b505afa158015611710573d6000803e3d6000fd5b505050506040513d602081101561172657600080fd5b5051611770576040805162461bcd60e51b81526020600482015260146024820152731d5b9cdd5c1c1bdc9d1959081b1c08185cdcd95d60621b604482015290519081900360640190fd5b816001600160a01b0316856001600160a01b0316146117c4576040805162461bcd60e51b81526020600482015260156024820152600080516020611f63833981519152604482015290519081900360640190fd5b60005b6000548110156118b6578d6001600160a01b0316639be918e6600083815481106117ed57fe5b60009182526020918290200154604080516001600160e01b031960e086901b1681526001600160a01b0390921660048301525160248083019392829003018186803b15801561183b57600080fd5b505afa15801561184f573d6000803e3d6000fd5b505050506040513d602081101561186557600080fd5b50516118ae576040805162461bcd60e51b815260206004820152601360248201527232b730b13632903932bbb0b932103a37b5b2b760691b604482015290519081900360640190fd5b6001016117c7565b50604080516001600160a01b03808816825280841660208301528e1681830152606081018590524260808201529051600080516020611f438339815191529181900360a00190a1604080516001600160a01b0380881682528e166020820152428183015290517f70eb43c4a8ae8c40502dcf22436c509c28d6ff421cf07c491be56984bd9870689181900360600190a160089850505050505050611cc1565b6001600160e01b031981166302f940c760e41b1415611cc15760008790506000816001600160a01b03166339b81fd96040518163ffffffff1660e01b815260040160206040518083038186803b1580156119ae57600080fd5b505afa1580156119c2573d6000803e3d6000fd5b505050506040513d60208110156119d857600080fd5b5051604080516020601f8a01819004810282018101909252888152919250600091611a1d918a908a908190840183828082843760009201829052509250611d16915050565b60001c90506000611a69610c498a8a8080601f01602080910402602001604051908101604052809392919081815260200183838082843760009201919091525060019250611d16915050565b905060008a6001600160a01b03166378ed5d1f846040518263ffffffff1660e01b81526004018082815260200191505060206040518083038186803b158015611ab157600080fd5b505afa158015611ac5573d6000803e3d6000fd5b505050506040513d6020811015611adb57600080fd5b5051604080516393f1a40b60e01b8152600481018690526001600160a01b0385811660248301528251939450600093908f16926393f1a40b9260448082019391829003018186803b158015611b2f57600080fd5b505afa158015611b43573d6000803e3d6000fd5b505050506040513d6040811015611b5957600080fd5b505160408051634df48c7360e11b81526001600160a01b0385811660048301529151929350908f1691639be918e691602480820192602092909190829003018186803b158015611ba857600080fd5b505afa158015611bbc573d6000803e3d6000fd5b505050506040513d6020811015611bd257600080fd5b5051611c1c576040805162461bcd60e51b81526020600482015260146024820152731d5b9cdd5c1c1bdc9d1959081b1c08185cdcd95d60621b604482015290519081900360640190fd5b826001600160a01b0316856001600160a01b031614611c70576040805162461bcd60e51b81526020600482015260156024820152600080516020611f63833981519152604482015290519081900360640190fd5b604080516001600160a01b03808816825280851660208301528e1681830152606081018390524260808201529051600080516020611f438339815191529181900360a00190a1600698505050505050505b5094509492505050565b6060611ce660048084510384611df19092919063ffffffff16565b92915050565b60008181548110611cfc57600080fd5b6000918252602090912001546001600160a01b0316905081565b6000611d2d838360200260040160ff166020611d72565b9392505050565b600080611d4c848460200260040160ff166020611d72565b9050611d5d84600483016020611d72565b949350505050565b6000611ce6826000610966565b600081830184511015611dca576040805162461bcd60e51b815260206004820152601b60248201527a52656164696e67206279746573206f7574206f6620626f756e647360281b604482015290519081900360640190fd5b826020018401519050816020038015611de9576008810260020a820491505b509392505050565b60608182601f011015611e3c576040805162461bcd60e51b815260206004820152600e60248201526d736c6963655f6f766572666c6f7760901b604482015290519081900360640190fd5b828284011015611e84576040805162461bcd60e51b815260206004820152600e60248201526d736c6963655f6f766572666c6f7760901b604482015290519081900360640190fd5b81830184511015611ed0576040805162461bcd60e51b8152602060048201526011602482015270736c6963655f6f75744f66426f756e647360781b604482015290519081900360640190fd5b606082158015611eef5760405191506000825260208201604052611f39565b6040519150601f8416801560200281840101858101878315602002848b0101015b81831015611f28578051835260209283019201611f10565b5050858452601f01601f1916604052505b5094935050505056fe844b93bba1dfa65e9a88d080df57fa731c72bebc9653aea6be132abde68c27c3726563697069656e74206973206e6f7420706f6f6c0000000000000000000000a2646970667358221220c2f1b4b5439612e742e7bd50bf98ca9b5db6fb6a62d8cb855ce5177d9a09179664736f6c63430007060033",
  "linkReferences": {},
  "deployedLinkReferences": {}
}