{
  "_format": "hh-sol-artifact-1",
  "contractName": "RamsesLPAssetGuard",
  "sourceName": "contracts/guards/assetGuards/RamsesLPAssetGuard.sol",
  "abi": [
    {
      "inputs": [
        {
          "internalType": "address",
          "name": "_voter",
          "type": "address"
        }
      ],
      "stateMutability": "nonpayable",
      "type": "constructor"
    },
    {
      "anonymous": false,
      "inputs": [
        {
          "indexed": false,
          "internalType": "address",
          "name": "fundAddress",
          "type": "address"
        },
        {
          "indexed": false,
          "internalType": "address",
          "name": "manager",
          "type": "address"
        },
        {
          "indexed": false,
          "internalType": "address",
          "name": "spender",
          "type": "address"
        },
        {
          "indexed": false,
          "internalType": "uint256",
          "name": "amount",
          "type": "uint256"
        },
        {
          "indexed": false,
          "internalType": "uint256",
          "name": "time",
          "type": "uint256"
        }
      ],
      "name": "Approve",
      "type": "event"
    },
    {
      "anonymous": false,
      "inputs": [
        {
          "indexed": false,
          "internalType": "address",
          "name": "fundAddress",
          "type": "address"
        },
        {
          "indexed": false,
          "internalType": "address",
          "name": "sourceAsset",
          "type": "address"
        },
        {
          "indexed": false,
          "internalType": "uint256",
          "name": "sourceAmount",
          "type": "uint256"
        },
        {
          "indexed": false,
          "internalType": "address",
          "name": "dstAsset",
          "type": "address"
        },
        {
          "indexed": false,
          "internalType": "uint256",
          "name": "time",
          "type": "uint256"
        }
      ],
      "name": "ExchangeFrom",
      "type": "event"
    },
    {
      "anonymous": false,
      "inputs": [
        {
          "indexed": false,
          "internalType": "address",
          "name": "fundAddress",
          "type": "address"
        },
        {
          "indexed": false,
          "internalType": "address",
          "name": "sourceAsset",
          "type": "address"
        },
        {
          "indexed": false,
          "internalType": "address",
          "name": "dstAsset",
          "type": "address"
        },
        {
          "indexed": false,
          "internalType": "uint256",
          "name": "dstAmount",
          "type": "uint256"
        },
        {
          "indexed": false,
          "internalType": "uint256",
          "name": "time",
          "type": "uint256"
        }
      ],
      "name": "ExchangeTo",
      "type": "event"
    },
    {
      "inputs": [
        {
          "internalType": "bytes32",
          "name": "data",
          "type": "bytes32"
        }
      ],
      "name": "convert32toAddress",
      "outputs": [
        {
          "internalType": "address",
          "name": "o",
          "type": "address"
        }
      ],
      "stateMutability": "pure",
      "type": "function"
    },
    {
      "inputs": [
        {
          "internalType": "bytes",
          "name": "data",
          "type": "bytes"
        },
        {
          "internalType": "uint8",
          "name": "inputNum",
          "type": "uint8"
        },
        {
          "internalType": "uint8",
          "name": "arrayIndex",
          "type": "uint8"
        }
      ],
      "name": "getArrayIndex",
      "outputs": [
        {
          "internalType": "bytes32",
          "name": "",
          "type": "bytes32"
        }
      ],
      "stateMutability": "pure",
      "type": "function"
    },
    {
      "inputs": [
        {
          "internalType": "bytes",
          "name": "data",
          "type": "bytes"
        },
        {
          "internalType": "uint8",
          "name": "inputNum",
          "type": "uint8"
        }
      ],
      "name": "getArrayLast",
      "outputs": [
        {
          "internalType": "bytes32",
          "name": "",
          "type": "bytes32"
        }
      ],
      "stateMutability": "pure",
      "type": "function"
    },
    {
      "inputs": [
        {
          "internalType": "bytes",
          "name": "data",
          "type": "bytes"
        },
        {
          "internalType": "uint8",
          "name": "inputNum",
          "type": "uint8"
        }
      ],
      "name": "getArrayLength",
      "outputs": [
        {
          "internalType": "uint256",
          "name": "",
          "type": "uint256"
        }
      ],
      "stateMutability": "pure",
      "type": "function"
    },
    {
      "inputs": [
        {
          "internalType": "address",
          "name": "_pool",
          "type": "address"
        },
        {
          "internalType": "address",
          "name": "_asset",
          "type": "address"
        }
      ],
      "name": "getBalance",
      "outputs": [
        {
          "internalType": "uint256",
          "name": "balance",
          "type": "uint256"
        }
      ],
      "stateMutability": "view",
      "type": "function"
    },
    {
      "inputs": [
        {
          "internalType": "bytes",
          "name": "data",
          "type": "bytes"
        },
        {
          "internalType": "uint8",
          "name": "inputNum",
          "type": "uint8"
        },
        {
          "internalType": "uint256",
          "name": "offset",
          "type": "uint256"
        }
      ],
      "name": "getBytes",
      "outputs": [
        {
          "internalType": "bytes",
          "name": "",
          "type": "bytes"
        }
      ],
      "stateMutability": "pure",
      "type": "function"
    },
    {
      "inputs": [
        {
          "internalType": "address",
          "name": "asset",
          "type": "address"
        }
      ],
      "name": "getDecimals",
      "outputs": [
        {
          "internalType": "uint256",
          "name": "decimals",
          "type": "uint256"
        }
      ],
      "stateMutability": "view",
      "type": "function"
    },
    {
      "inputs": [
        {
          "internalType": "bytes",
          "name": "data",
          "type": "bytes"
        },
        {
          "internalType": "uint8",
          "name": "inputNum",
          "type": "uint8"
        }
      ],
      "name": "getInput",
      "outputs": [
        {
          "internalType": "bytes32",
          "name": "",
          "type": "bytes32"
        }
      ],
      "stateMutability": "pure",
      "type": "function"
    },
    {
      "inputs": [
        {
          "internalType": "bytes",
          "name": "data",
          "type": "bytes"
        }
      ],
      "name": "getMethod",
      "outputs": [
        {
          "internalType": "bytes4",
          "name": "",
          "type": "bytes4"
        }
      ],
      "stateMutability": "pure",
      "type": "function"
    },
    {
      "inputs": [
        {
          "internalType": "bytes",
          "name": "data",
          "type": "bytes"
        }
      ],
      "name": "getParams",
      "outputs": [
        {
          "internalType": "bytes",
          "name": "",
          "type": "bytes"
        }
      ],
      "stateMutability": "pure",
      "type": "function"
    },
    {
      "inputs": [
        {
          "internalType": "bytes",
          "name": "data",
          "type": "bytes"
        },
        {
          "internalType": "uint256",
          "name": "offset",
          "type": "uint256"
        },
        {
          "internalType": "uint256",
          "name": "length",
          "type": "uint256"
        }
      ],
      "name": "read32",
      "outputs": [
        {
          "internalType": "bytes32",
          "name": "o",
          "type": "bytes32"
        }
      ],
      "stateMutability": "pure",
      "type": "function"
    },
    {
      "inputs": [
        {
          "internalType": "bytes",
          "name": "data",
          "type": "bytes"
        },
        {
          "internalType": "uint256",
          "name": "offset",
          "type": "uint256"
        }
      ],
      "name": "read4left",
      "outputs": [
        {
          "internalType": "bytes4",
          "name": "o",
          "type": "bytes4"
        }
      ],
      "stateMutability": "pure",
      "type": "function"
    },
    {
      "inputs": [
        {
          "internalType": "address",
          "name": "pool",
          "type": "address"
        },
        {
          "internalType": "address",
          "name": "asset",
          "type": "address"
        }
      ],
      "name": "removeAssetCheck",
      "outputs": [],
      "stateMutability": "view",
      "type": "function"
    },
    {
      "inputs": [
        {
          "internalType": "address",
          "name": "_poolManagerLogic",
          "type": "address"
        },
        {
          "internalType": "address",
          "name": "",
          "type": "address"
        },
        {
          "internalType": "bytes",
          "name": "data",
          "type": "bytes"
        }
      ],
      "name": "txGuard",
      "outputs": [
        {
          "internalType": "uint16",
          "name": "txType",
          "type": "uint16"
        },
        {
          "internalType": "bool",
          "name": "",
          "type": "bool"
        }
      ],
      "stateMutability": "nonpayable",
      "type": "function"
    },
    {
      "inputs": [],
      "name": "voter",
      "outputs": [
        {
          "internalType": "contract IRamsesVoter",
          "name": "",
          "type": "address"
        }
      ],
      "stateMutability": "view",
      "type": "function"
    },
    {
      "inputs": [
        {
          "internalType": "address",
          "name": "_pool",
          "type": "address"
        },
        {
          "internalType": "address",
          "name": "_asset",
          "type": "address"
        },
        {
          "internalType": "uint256",
          "name": "_portion",
          "type": "uint256"
        },
        {
          "internalType": "address",
          "name": "_to",
          "type": "address"
        }
      ],
      "name": "withdrawProcessing",
      "outputs": [
        {
          "internalType": "address",
          "name": "withdrawAsset",
          "type": "address"
        },
        {
          "internalType": "uint256",
          "name": "withdrawBalance",
          "type": "uint256"
        },
        {
          "components": [
            {
              "internalType": "address",
              "name": "to",
              "type": "address"
            },
            {
              "internalType": "bytes",
              "name": "txData",
              "type": "bytes"
            }
          ],
          "internalType": "struct IAssetGuard.MultiTransaction[]",
          "name": "transactions",
          "type": "tuple[]"
        }
      ],
      "stateMutability": "view",
      "type": "function"
    }
  ],
  "bytecode": "0x608060405234801561001057600080fd5b50604051620022a2380380620022a283398101604081905261003191610056565b600080546001600160a01b0319166001600160a01b0392909216919091179055610084565b600060208284031215610067578081fd5b81516001600160a01b038116811461007d578182fd5b9392505050565b61220e80620000946000396000f3fe608060405234801561001057600080fd5b50600436106100d05760003560e01c806309ff5c7d146100d55780631053f952146100fe5780631eba30771461011e578063293d80631461013e57806341dc16c31461015e57806346c96aac146101715780636179309d14610179578063689015131461019a5780636d5fae54146101ad5780636f8ae202146101c257806382f86acc146101e4578063998546e3146101f7578063c3c6279f1461020a578063cf54aaa01461021d578063d4fac45d14610230578063db896b5714610243575b600080fd5b6100e86100e3366004611dfc565b610256565b6040516100f591906120dc565b60405180910390f35b61011161010c366004611e40565b6102e9565b6040516100f591906120fa565b61013161012c366004611d25565b610383565b6040516100f59190611f77565b61015161014c366004611d6f565b610386565b6040516100f591906120e5565b6100e861016c366004611e97565b6103e8565b6101316104c6565b61018c610187366004611c27565b6104d5565b6040516100f592919061217a565b6101116101a8366004611d3d565b61083a565b6101c06101bb366004611bef565b610855565b005b6101d56101d0366004611cb3565b610886565b6040516100f59392919061204e565b6100e86101f2366004611dfc565b6109d7565b6100e8610205366004611dfc565b6109ee565b610151610218366004611d3d565b610a1f565b6100e861022b366004611bb7565b610a2c565b6100e861023e366004611bef565b610aa8565b6100e8610251366004611db1565b610f6d565b60008061026e848460200260040160ff166020610f6d565b9050600061028185600484016020610f6d565b9050806102ca576040805162461bcd60e51b8152602060048201526012602482015271696e707574206973206e6f7420617272617960701b604482015290519081900360640190fd5b6102de856020808402850160040190610f6d565b925050505b92915050565b606060148210610331576040805162461bcd60e51b815260206004820152600e60248201526d1a5b9d985b1a59081bd9999cd95d60921b604482015290519081900360640190fd5b816020029150600061035085848660200260040160ff16016020610f6d565b90506000610365868584016004016020610f6d565b90506103778660248487010183610fec565b925050505b9392505050565b90565b600081600401835110156103df576040805162461bcd60e51b815260206004820152601b60248201527a52656164696e67206279746573206f7574206f6620626f756e647360281b604482015290519081900360640190fd5b50016020015190565b600080610400858560200260040160ff166020610f6d565b9050600061041386600484016020610f6d565b90508061045c576040805162461bcd60e51b8152602060048201526012602482015271696e707574206973206e6f7420617272617960701b604482015290519081900360640190fd5b60ff841681116104ac576040805162461bcd60e51b815260206004820152601660248201527534b73b30b634b21030b93930bc903837b9b4ba34b7b760511b604482015290519081900360640190fd5b610377866020600160ff8816018102850160040190610f6d565b6000546001600160a01b031681565b600080600061051985858080601f016020809104026020016040519081016040528093929190818152602001838380828437600092019190915250610a1f92505050565b90506001600160e01b0319811663095ea7b360e01b141561082c57600061057861012c87878080601f016020809104026020016040519081016040528093929190818152602001838380828437600092018290525092506109d7915050565b905060006105be87878080601f016020809104026020016040519081016040528093929190818152602001838380828437600092019190915250600192506109d7915050565b60001c905060008990506000816001600160a01b031663c45a01556040518163ffffffff1660e01b815260040160206040518083038186803b15801561060357600080fd5b505afa158015610617573d6000803e3d6000fd5b505050506040513d601f19601f8201168201806040525081019061063b9190611bd3565b90506000816001600160a01b0316634f8419b9866040518263ffffffff1660e01b815260040161066b9190611f77565b60206040518083038186803b15801561068357600080fd5b505afa158015610697573d6000803e3d6000fd5b505050506040513d601f19601f820116820180604052508101906106bb9190611bd3565b90506001600160a01b038116158015906106de57506001600160a01b0381163014155b6107035760405162461bcd60e51b81526004016106fa90612144565b60405180910390fd5b7f5343b378d69227c1bc2016fd44e8104f0ffa7729f4f4f4110e349a2db0a0d0c8836001600160a01b03166339b81fd96040518163ffffffff1660e01b815260040160206040518083038186803b15801561075d57600080fd5b505afa158015610771573d6000803e3d6000fd5b505050506040513d601f19601f820116820180604052508101906107959190611bd3565b8d6001600160a01b031663481c6a756040518163ffffffff1660e01b815260040160206040518083038186803b1580156107ce57600080fd5b505afa1580156107e2573d6000803e3d6000fd5b505050506040513d601f19601f820116820180604052508101906108069190611bd3565b87874260405161081a959493929190611fa5565b60405180910390a16001975050505050505b506000905094509492505050565b60606102e360048084510384610fec9092919063ffffffff16565b60006108618383610aa8565b905080156108815760405162461bcd60e51b81526004016106fa9061210d565b505050565b6000806060859250610926670de0b6b3a764000061092087896001600160a01b03166370a082318c6040518263ffffffff1660e01b81526004016108ca9190611f77565b60206040518083038186803b1580156108e257600080fd5b505afa1580156108f6573d6000803e3d6000fd5b505050506040513d601f19601f8201168201806040525081019061091a9190611ef8565b9061113d565b90611196565b6000805460405163b9a09fd560e01b815292945090916001600160a01b039091169063b9a09fd59061095c908a90600401611f77565b60206040518083038186803b15801561097457600080fd5b505afa158015610988573d6000803e3d6000fd5b505050506040513d601f19601f820116820180604052508101906109ac9190611bd3565b90506001600160a01b038116156109cc576109c9818988886111fa565b91505b509450945094915050565b600061037c838360200260040160ff166020610f6d565b600080610a06848460200260040160ff166020610f6d565b9050610a1784600483016020610f6d565b949350505050565b60006102e3826000610386565b6000816001600160a01b031663313ce5676040518163ffffffff1660e01b815260040160206040518083038186803b158015610a6757600080fd5b505afa158015610a7b573d6000803e3d6000fd5b505050506040513d601f19601f82011682018060405250810190610a9f9190611f10565b60ff1692915050565b6040516370a0823160e01b81526000906001600160a01b038316906370a0823190610ad7908690600401611f77565b60206040518083038186803b158015610aef57600080fd5b505afa158015610b03573d6000803e3d6000fd5b505050506040513d601f19601f82011682018060405250810190610b279190611ef8565b6000805460405163b9a09fd560e01b815292935090916001600160a01b039091169063b9a09fd590610b5d908690600401611f77565b60206040518083038186803b158015610b7557600080fd5b505afa158015610b89573d6000803e3d6000fd5b505050506040513d601f19601f82011682018060405250810190610bad9190611bd3565b905060006001600160a01b03821615610e69576040516370a0823160e01b8152610c47906001600160a01b038416906370a0823190610bf0908990600401611f77565b60206040518083038186803b158015610c0857600080fd5b505afa158015610c1c573d6000803e3d6000fd5b505050506040513d601f19601f82011682018060405250810190610c409190611ef8565b8490611947565b92506000856001600160a01b0316631e50a4a66040518163ffffffff1660e01b815260040160206040518083038186803b158015610c8457600080fd5b505afa158015610c98573d6000803e3d6000fd5b505050506040513d601f19601f82011682018060405250810190610cbc9190611bd3565b90506000836001600160a01b031663e68863966040518163ffffffff1660e01b815260040160206040518083038186803b158015610cf957600080fd5b505afa158015610d0d573d6000803e3d6000fd5b505050506040513d601f19601f82011682018060405250810190610d319190611ef8565b905060005b81811015610e6557604051637980d7a160e11b81526000906001600160a01b0387169063f301af4290610d6d9085906004016120dc565b60206040518083038186803b158015610d8557600080fd5b505afa158015610d99573d6000803e3d6000fd5b505050506040513d601f19601f82011682018060405250810190610dbd9190611bd3565b90506000866001600160a01b031663211dc32d838c6040518363ffffffff1660e01b8152600401610def929190611f8b565b60206040518083038186803b158015610e0757600080fd5b505afa158015610e1b573d6000803e3d6000fd5b505050506040513d601f19601f82011682018060405250810190610e3f9190611ef8565b9050610e56610e4f86848461199f565b8790611947565b95505050806001019050610d36565b5050505b6102de610c40866001600160a01b031663c45a01556040518163ffffffff1660e01b815260040160206040518083038186803b158015610ea857600080fd5b505afa158015610ebc573d6000803e3d6000fd5b505050506040513d601f19601f82011682018060405250810190610ee09190611bd3565b6001600160a01b031663b3596f07876040518263ffffffff1660e01b8152600401610f0b9190611f77565b60206040518083038186803b158015610f2357600080fd5b505afa158015610f37573d6000803e3d6000fd5b505050506040513d601f19601f82011682018060405250810190610f5b9190611ef8565b61092084670de0b6b3a764000061113d565b600081830184511015610fc5576040805162461bcd60e51b815260206004820152601b60248201527a52656164696e67206279746573206f7574206f6620626f756e647360281b604482015290519081900360640190fd5b826020018401519050816020038015610fe4576008810260020a820491505b509392505050565b60608182601f011015611037576040805162461bcd60e51b815260206004820152600e60248201526d736c6963655f6f766572666c6f7760901b604482015290519081900360640190fd5b82828401101561107f576040805162461bcd60e51b815260206004820152600e60248201526d736c6963655f6f766572666c6f7760901b604482015290519081900360640190fd5b818301845110156110cb576040805162461bcd60e51b8152602060048201526011602482015270736c6963655f6f75744f66426f756e647360781b604482015290519081900360640190fd5b6060821580156110ea5760405191506000825260208201604052611134565b6040519150601f8416801560200281840101858101878315602002848b0101015b8183101561112357805183526020928301920161110b565b5050858452601f01601f1916604052505b50949350505050565b60008261114c575060006102e3565b8282028284828161115957fe5b041461037c5760405162461bcd60e51b81526004018080602001828103825260218152602001806121b86021913960400191505060405180910390fd5b60008082116111e9576040805162461bcd60e51b815260206004820152601a602482015279536166654d6174683a206469766973696f6e206279207a65726f60301b604482015290519081900360640190fd5b8183816111f257fe5b049392505050565b6060611204611b0a565b856001600160a01b031663e68863966040518163ffffffff1660e01b815260040160206040518083038186803b15801561123d57600080fd5b505afa158015611251573d6000803e3d6000fd5b505050506040513d601f19601f820116820180604052508101906112759190611ef8565b8082526002016001600160401b038111801561129057600080fd5b506040519080825280602002602001820160405280156112ca57816020015b6112b7611b2b565b8152602001906001900390816112af5790505b5091506000866001600160a01b03166370a08231876040518263ffffffff1660e01b81526004016112fb9190611f77565b60206040518083038186803b15801561131357600080fd5b505afa158015611327573d6000803e3d6000fd5b505050506040513d601f19601f8201168201806040525081019061134b9190611ef8565b9050801561141a57868383602001518151811061136457fe5b60209081029190910101516001600160a01b039091169052632e1a7d4d60e01b61139a670de0b6b3a7640000610920848961113d565b6040516024016113aa91906120dc565b604051602081830303815290604052906001600160e01b0319166020820180516001600160e01b038381831617835250505050838360200151815181106113ed57fe5b6020026020010151602001819052506114146001836020015161194790919063ffffffff16565b60208301525b5080516000906001600160401b038111801561143557600080fd5b5060405190808252806020026020018201604052801561145f578160200160208202803683370190505b50905060005b82518110156116b957604051637980d7a160e11b81526000906001600160a01b038a169063f301af429061149d9085906004016120dc565b60206040518083038186803b1580156114b557600080fd5b505afa1580156114c9573d6000803e3d6000fd5b505050506040513d601f19601f820116820180604052508101906114ed9190611bd3565b9050876001600160a01b031663c45a01556040518163ffffffff1660e01b815260040160206040518083038186803b15801561152857600080fd5b505afa15801561153c573d6000803e3d6000fd5b505050506040513d601f19601f820116820180604052508101906115609190611bd3565b6001600160a01b031663cc435bf3826040518263ffffffff1660e01b815260040161158b9190611f77565b60206040518083038186803b1580156115a357600080fd5b505afa1580156115b7573d6000803e3d6000fd5b505050506040513d601f19601f820116820180604052508101906115db9190611d05565b6115e557506116b1565b60405163211dc32d60e01b81526000906001600160a01b038b169063211dc32d906116169085908d90600401611f8b565b60206040518083038186803b15801561162e57600080fd5b505afa158015611642573d6000803e3d6000fd5b505050506040513d601f19601f820116820180604052508101906116669190611ef8565b1161167157506116b1565b808385604001518151811061168257fe5b6001600160a01b039092166020928302919091019091015260408401516116aa906001611947565b6040850152505b600101611465565b5060006116d483604001518351611aad90919063ffffffff16565b82510380835215905061191c5786838360200151815181106116f257fe5b60209081029190910101516001600160a01b0390911690526040516331279d3d60e01b906117269088908490602401611fd9565b604051602081830303815290604052906001600160e01b0319166020820180516001600160e01b0383818316178352505050508383602001518151811061176957fe5b6020026020010151602001819052506117906001836020015161194790919063ffffffff16565b602083015260005b815181101561191a576000886001600160a01b031663211dc32d8484815181106117be57fe5b60200260200101518a6040518363ffffffff1660e01b81526004016117e4929190611f8b565b60206040518083038186803b1580156117fc57600080fd5b505afa158015611810573d6000803e3d6000fd5b505050506040513d601f19601f820116820180604052508101906118349190611ef8565b905082828151811061184257fe5b60200260200101518585602001518151811061185a57fe5b60209081029190910101516001600160a01b03909116905263a9059cbb60e01b86611891670de0b6b3a7640000610920858c61113d565b6040516024016118a2929190612035565b604051602081830303815290604052906001600160e01b0319166020820180516001600160e01b038381831617835250505050858560200151815181106118e557fe5b60200260200101516020018190525061190c6001856020015161194790919063ffffffff16565b602085015250600101611798565b505b600061193683602001518551611aad90919063ffffffff16565b845103845250919695505050505050565b60008282018381101561037c576040805162461bcd60e51b815260206004820152601b60248201527a536166654d6174683a206164646974696f6e206f766572666c6f7760281b604482015290519081900360640190fd5b604051639240d29960e01b81526000906001600160a01b03851690639240d299906119ce908690600401611f77565b60206040518083038186803b1580156119e657600080fd5b505afa1580156119fa573d6000803e3d6000fd5b505050506040513d601f19601f82011682018060405250810190611a1e9190611d05565b8015611a2a5750600082115b1561037c576040516314e03fdd60e11b81526001600160a01b038516906329c07fba90611a5d9086908690600401612035565b60206040518083038186803b158015611a7557600080fd5b505afa158015611a89573d6000803e3d6000fd5b505050506040513d601f19601f82011682018060405250810190610a179190611ef8565b600082821115611b04576040805162461bcd60e51b815260206004820152601e60248201527f536166654d6174683a207375627472616374696f6e206f766572666c6f770000604482015290519081900360640190fd5b50900390565b60405180606001604052806000815260200160008152602001600081525090565b60408051808201909152600081526060602082015290565b600082601f830112611b53578081fd5b81356001600160401b0380821115611b6757fe5b604051601f8301601f191681016020018281118282101715611b8557fe5b604052828152848301602001861015611b9c578384fd5b82602086016020830137918201602001929092529392505050565b600060208284031215611bc8578081fd5b813561037c81612190565b600060208284031215611be4578081fd5b815161037c81612190565b60008060408385031215611c01578081fd5b8235611c0c81612190565b91506020830135611c1c81612190565b809150509250929050565b60008060008060608587031215611c3c578182fd5b8435611c4781612190565b93506020850135611c5781612190565b925060408501356001600160401b0380821115611c72578384fd5b818701915087601f830112611c85578384fd5b813581811115611c93578485fd5b886020828501011115611ca4578485fd5b95989497505060200194505050565b60008060008060808587031215611cc8578384fd5b8435611cd381612190565b93506020850135611ce381612190565b9250604085013591506060850135611cfa81612190565b939692955090935050565b600060208284031215611d16578081fd5b8151801515811461037c578182fd5b600060208284031215611d36578081fd5b5035919050565b600060208284031215611d4e578081fd5b81356001600160401b03811115611d63578182fd5b610a1784828501611b43565b60008060408385031215611d81578182fd5b82356001600160401b03811115611d96578283fd5b611da285828601611b43565b95602094909401359450505050565b600080600060608486031215611dc5578283fd5b83356001600160401b03811115611dda578384fd5b611de686828701611b43565b9660208601359650604090950135949350505050565b60008060408385031215611e0e578182fd5b82356001600160401b03811115611e23578283fd5b611e2f85828601611b43565b9250506020830135611c1c816121a8565b600080600060608486031215611e54578283fd5b83356001600160401b03811115611e69578384fd5b611e7586828701611b43565b9350506020840135611e86816121a8565b929592945050506040919091013590565b600080600060608486031215611eab578081fd5b83356001600160401b03811115611ec0578182fd5b611ecc86828701611b43565b9350506020840135611edd816121a8565b91506040840135611eed816121a8565b809150509250925092565b600060208284031215611f09578081fd5b5051919050565b600060208284031215611f21578081fd5b815161037c816121a8565b60008151808452815b81811015611f5157602081850181015186830182015201611f35565b81811115611f625782602083870101525b50601f01601f19169290920160200192915050565b6001600160a01b0391909116815260200190565b6001600160a01b0392831681529116602082015260400190565b6001600160a01b03958616815293851660208501529190931660408301526060820192909252608081019190915260a00190565b6001600160a01b038381168252604060208084018290528451918401829052600092858201929091906060860190855b81811015612027578551851683529483019491830191600101612009565b509098975050505050505050565b6001600160a01b03929092168252602082015260400190565b60006060820160018060a01b03808716845260208681860152604060608187015283875180865260808801915060808482028901019550838901875b828110156120cb57898803607f1901845281518051881689528601518689018690526120b8868a0182611f2c565b985050928501929085019060010161208a565b50959b9a5050505050505050505050565b90815260200190565b6001600160e01b031991909116815260200190565b60006020825261037c6020830184611f2c565b6020808252601d908201527f63616e6e6f742072656d6f7665206e6f6e2d656d707479206173736574000000604082015260600190565b6020808252601c908201527b1d5b9cdd5c1c1bdc9d1959081cdc195b99195c88185c1c1c9bdd985b60221b604082015260600190565b61ffff9290921682521515602082015260400190565b6001600160a01b03811681146121a557600080fd5b50565b60ff811681146121a557600080fdfe536166654d6174683a206d756c7469706c69636174696f6e206f766572666c6f77a264697066735822122033698292622e6fd87202e6fdf956b980eb231f33b0a7e7251ccfbaf8d7fd04ed64736f6c63430007060033",
  "linkReferences": {},
  "deployedLinkReferences": {}
}