{
  "_format": "hh-sol-artifact-1",
  "contractName": "SynthetixV3AssetGuard",
  "sourceName": "contracts/guards/assetGuards/synthetixV3/SynthetixV3AssetGuard.sol",
  "abi": [
    {
      "inputs": [
        {
          "internalType": "address",
          "name": "_snxSpotMarket",
          "type": "address"
        }
      ],
      "stateMutability": "nonpayable",
      "type": "constructor"
    },
    {
      "anonymous": false,
      "inputs": [
        {
          "indexed": false,
          "internalType": "address",
          "name": "fundAddress",
          "type": "address"
        },
        {
          "indexed": false,
          "internalType": "address",
          "name": "sourceAsset",
          "type": "address"
        },
        {
          "indexed": false,
          "internalType": "uint256",
          "name": "sourceAmount",
          "type": "uint256"
        },
        {
          "indexed": false,
          "internalType": "address",
          "name": "dstAsset",
          "type": "address"
        },
        {
          "indexed": false,
          "internalType": "uint256",
          "name": "time",
          "type": "uint256"
        }
      ],
      "name": "ExchangeFrom",
      "type": "event"
    },
    {
      "anonymous": false,
      "inputs": [
        {
          "indexed": false,
          "internalType": "address",
          "name": "fundAddress",
          "type": "address"
        },
        {
          "indexed": false,
          "internalType": "address",
          "name": "sourceAsset",
          "type": "address"
        },
        {
          "indexed": false,
          "internalType": "address",
          "name": "dstAsset",
          "type": "address"
        },
        {
          "indexed": false,
          "internalType": "uint256",
          "name": "dstAmount",
          "type": "uint256"
        },
        {
          "indexed": false,
          "internalType": "uint256",
          "name": "time",
          "type": "uint256"
        }
      ],
      "name": "ExchangeTo",
      "type": "event"
    },
    {
      "inputs": [
        {
          "internalType": "bytes32",
          "name": "data",
          "type": "bytes32"
        }
      ],
      "name": "convert32toAddress",
      "outputs": [
        {
          "internalType": "address",
          "name": "o",
          "type": "address"
        }
      ],
      "stateMutability": "pure",
      "type": "function"
    },
    {
      "inputs": [
        {
          "internalType": "bytes",
          "name": "data",
          "type": "bytes"
        },
        {
          "internalType": "uint8",
          "name": "inputNum",
          "type": "uint8"
        },
        {
          "internalType": "uint8",
          "name": "arrayIndex",
          "type": "uint8"
        }
      ],
      "name": "getArrayIndex",
      "outputs": [
        {
          "internalType": "bytes32",
          "name": "",
          "type": "bytes32"
        }
      ],
      "stateMutability": "pure",
      "type": "function"
    },
    {
      "inputs": [
        {
          "internalType": "bytes",
          "name": "data",
          "type": "bytes"
        },
        {
          "internalType": "uint8",
          "name": "inputNum",
          "type": "uint8"
        }
      ],
      "name": "getArrayLast",
      "outputs": [
        {
          "internalType": "bytes32",
          "name": "",
          "type": "bytes32"
        }
      ],
      "stateMutability": "pure",
      "type": "function"
    },
    {
      "inputs": [
        {
          "internalType": "bytes",
          "name": "data",
          "type": "bytes"
        },
        {
          "internalType": "uint8",
          "name": "inputNum",
          "type": "uint8"
        }
      ],
      "name": "getArrayLength",
      "outputs": [
        {
          "internalType": "uint256",
          "name": "",
          "type": "uint256"
        }
      ],
      "stateMutability": "pure",
      "type": "function"
    },
    {
      "inputs": [
        {
          "internalType": "address",
          "name": "_pool",
          "type": "address"
        },
        {
          "internalType": "address",
          "name": "_asset",
          "type": "address"
        }
      ],
      "name": "getBalance",
      "outputs": [
        {
          "internalType": "uint256",
          "name": "",
          "type": "uint256"
        }
      ],
      "stateMutability": "view",
      "type": "function"
    },
    {
      "inputs": [
        {
          "internalType": "address",
          "name": "_pool",
          "type": "address"
        },
        {
          "internalType": "address",
          "name": "_asset",
          "type": "address"
        }
      ],
      "name": "getBalanceMutable",
      "outputs": [
        {
          "internalType": "uint256",
          "name": "",
          "type": "uint256"
        }
      ],
      "stateMutability": "nonpayable",
      "type": "function"
    },
    {
      "inputs": [
        {
          "internalType": "bytes",
          "name": "data",
          "type": "bytes"
        },
        {
          "internalType": "uint8",
          "name": "inputNum",
          "type": "uint8"
        },
        {
          "internalType": "uint256",
          "name": "offset",
          "type": "uint256"
        }
      ],
      "name": "getBytes",
      "outputs": [
        {
          "internalType": "bytes",
          "name": "",
          "type": "bytes"
        }
      ],
      "stateMutability": "pure",
      "type": "function"
    },
    {
      "inputs": [
        {
          "internalType": "address",
          "name": "",
          "type": "address"
        }
      ],
      "name": "getDecimals",
      "outputs": [
        {
          "internalType": "uint256",
          "name": "decimals",
          "type": "uint256"
        }
      ],
      "stateMutability": "pure",
      "type": "function"
    },
    {
      "inputs": [
        {
          "internalType": "bytes",
          "name": "data",
          "type": "bytes"
        },
        {
          "internalType": "uint8",
          "name": "inputNum",
          "type": "uint8"
        }
      ],
      "name": "getInput",
      "outputs": [
        {
          "internalType": "bytes32",
          "name": "",
          "type": "bytes32"
        }
      ],
      "stateMutability": "pure",
      "type": "function"
    },
    {
      "inputs": [
        {
          "internalType": "bytes",
          "name": "data",
          "type": "bytes"
        }
      ],
      "name": "getMethod",
      "outputs": [
        {
          "internalType": "bytes4",
          "name": "",
          "type": "bytes4"
        }
      ],
      "stateMutability": "pure",
      "type": "function"
    },
    {
      "inputs": [
        {
          "internalType": "bytes",
          "name": "data",
          "type": "bytes"
        }
      ],
      "name": "getParams",
      "outputs": [
        {
          "internalType": "bytes",
          "name": "",
          "type": "bytes"
        }
      ],
      "stateMutability": "pure",
      "type": "function"
    },
    {
      "inputs": [],
      "name": "isStateMutatingGuard",
      "outputs": [
        {
          "internalType": "bool",
          "name": "",
          "type": "bool"
        }
      ],
      "stateMutability": "view",
      "type": "function"
    },
    {
      "inputs": [
        {
          "internalType": "address",
          "name": "",
          "type": "address"
        }
      ],
      "name": "latestDebtRecords",
      "outputs": [
        {
          "internalType": "int256",
          "name": "debt",
          "type": "int256"
        },
        {
          "internalType": "uint256",
          "name": "timestamp",
          "type": "uint256"
        }
      ],
      "stateMutability": "view",
      "type": "function"
    },
    {
      "inputs": [
        {
          "internalType": "bytes",
          "name": "data",
          "type": "bytes"
        },
        {
          "internalType": "uint256",
          "name": "offset",
          "type": "uint256"
        },
        {
          "internalType": "uint256",
          "name": "length",
          "type": "uint256"
        }
      ],
      "name": "read32",
      "outputs": [
        {
          "internalType": "bytes32",
          "name": "o",
          "type": "bytes32"
        }
      ],
      "stateMutability": "pure",
      "type": "function"
    },
    {
      "inputs": [
        {
          "internalType": "bytes",
          "name": "data",
          "type": "bytes"
        },
        {
          "internalType": "uint256",
          "name": "offset",
          "type": "uint256"
        }
      ],
      "name": "read4left",
      "outputs": [
        {
          "internalType": "bytes4",
          "name": "o",
          "type": "bytes4"
        }
      ],
      "stateMutability": "pure",
      "type": "function"
    },
    {
      "inputs": [
        {
          "internalType": "address",
          "name": "pool",
          "type": "address"
        },
        {
          "internalType": "address",
          "name": "asset",
          "type": "address"
        }
      ],
      "name": "removeAssetCheck",
      "outputs": [],
      "stateMutability": "view",
      "type": "function"
    },
    {
      "inputs": [],
      "name": "snxSpotMarket",
      "outputs": [
        {
          "internalType": "address",
          "name": "",
          "type": "address"
        }
      ],
      "stateMutability": "view",
      "type": "function"
    },
    {
      "inputs": [
        {
          "internalType": "address",
          "name": "",
          "type": "address"
        },
        {
          "internalType": "address",
          "name": "",
          "type": "address"
        },
        {
          "internalType": "bytes",
          "name": "",
          "type": "bytes"
        }
      ],
      "name": "txGuard",
      "outputs": [
        {
          "internalType": "uint16",
          "name": "txType",
          "type": "uint16"
        },
        {
          "internalType": "bool",
          "name": "",
          "type": "bool"
        }
      ],
      "stateMutability": "pure",
      "type": "function"
    },
    {
      "inputs": [
        {
          "internalType": "address",
          "name": "_pool",
          "type": "address"
        },
        {
          "internalType": "address",
          "name": "_asset",
          "type": "address"
        },
        {
          "internalType": "uint256",
          "name": "_withdrawPortion",
          "type": "uint256"
        },
        {
          "internalType": "address",
          "name": "_to",
          "type": "address"
        }
      ],
      "name": "withdrawProcessing",
      "outputs": [
        {
          "internalType": "address",
          "name": "withdrawAsset",
          "type": "address"
        },
        {
          "internalType": "uint256",
          "name": "withdrawBalance",
          "type": "uint256"
        },
        {
          "components": [
            {
              "internalType": "address",
              "name": "to",
              "type": "address"
            },
            {
              "internalType": "bytes",
              "name": "txData",
              "type": "bytes"
            }
          ],
          "internalType": "struct IAssetGuard.MultiTransaction[]",
          "name": "transactions",
          "type": "tuple[]"
        }
      ],
      "stateMutability": "nonpayable",
      "type": "function"
    }
  ],
  "bytecode": "0x60a06040526000805460ff191660011790553480156200001e57600080fd5b50604051620023b6380380620023b6833981016040819052620000419162000089565b6001600160a01b038116620000735760405162461bcd60e51b81526004016200006a90620000b9565b60405180910390fd5b60601b6001600160601b031916608052620000f0565b6000602082840312156200009b578081fd5b81516001600160a01b0381168114620000b2578182fd5b9392505050565b60208082526015908201527f696e76616c696420736e7853706f744d61726b65740000000000000000000000604082015260600190565b60805160601c61229e620001186000398061045852806107d8528061141b525061229e6000f3fe608060405234801561001057600080fd5b50600436106100f15760003560e01c806309ff5c7d146100f65780631053f9521461011f5780631eba30771461013f578063293d80631461015f5780634007f48b1461017f57806341dc16c3146101875780636179309d1461019a57806366adb4e2146101bb57806368901513146101d05780636d5fae54146101e35780636f8ae202146101f857806382f86acc1461021a578063998546e31461022d578063c3c6279f14610240578063cf54aaa014610253578063d4fac45d14610266578063db896b5714610279578063f2e111061461028c578063fcff356c146102ad575b600080fd5b610109610104366004611cb8565b6102c0565b6040516101169190612091565b60405180910390f35b61013261012d366004611cfc565b610353565b60405161011691906120af565b61015261014d366004611be1565b6103ed565b6040516101169190611fb1565b61017261016d366004611c2b565b6103f4565b604051610116919061209a565b610152610456565b610109610195366004611d53565b61047a565b6101ad6101a8366004611ae3565b610558565b60405161011692919061220a565b6101c3610564565b6040516101169190612086565b6101326101de366004611bf9565b61056d565b6101f66101f1366004611aab565b610588565b005b61020b610206366004611b6f565b6105c2565b60405161011693929190611ff8565b610109610228366004611cb8565b610945565b61010961023b366004611cb8565b61095c565b61017261024e366004611bf9565b61098d565b610109610261366004611a73565b61099a565b610109610274366004611aab565b6109a0565b610109610287366004611c6d565b6109f7565b61029f61029a366004611a73565b610a76565b6040516101169291906120c2565b6101096102bb366004611aab565b610a8f565b6000806102d8848460200260040160ff1660206109f7565b905060006102eb856004840160206109f7565b905080610334576040805162461bcd60e51b8152602060048201526012602482015271696e707574206973206e6f7420617272617960701b604482015290519081900360640190fd5b6103488560208084028501600401906109f7565b925050505b92915050565b60606014821061039b576040805162461bcd60e51b815260206004820152600e60248201526d1a5b9d985b1a59081bd9999cd95d60921b604482015290519081900360640190fd5b81602002915060006103ba85848660200260040160ff160160206109f7565b905060006103cf8685840160040160206109f7565b90506103e18660248487010183610c8d565b925050505b9392505050565b805b919050565b6000816004018351101561044d576040805162461bcd60e51b815260206004820152601b60248201527a52656164696e67206279746573206f7574206f6620626f756e647360281b604482015290519081900360640190fd5b50016020015190565b7f000000000000000000000000000000000000000000000000000000000000000081565b600080610492858560200260040160ff1660206109f7565b905060006104a5866004840160206109f7565b9050806104ee576040805162461bcd60e51b8152602060048201526012602482015271696e707574206973206e6f7420617272617960701b604482015290519081900360640190fd5b60ff8416811161053e576040805162461bcd60e51b815260206004820152601660248201527534b73b30b634b21030b93930bc903837b9b4ba34b7b760511b604482015290519081900360640190fd5b6103e1866020600160ff88160181028501600401906109f7565b60008094509492505050565b60005460ff1681565b606061034d60048084510384610c8d9092919063ffffffff16565b600061059483836109a0565b905080156105bd5760405162461bcd60e51b81526004016105b4906120d0565b60405180910390fd5b505050565b60008060606105cf6119a2565b6001600160a01b038088168252851660808201526105ed8888610dde565b50506001600160a01b031660408301526001600160801b0316602082015260006106178989610a8f565b905081602001516001600160801b031660001480610633575080155b156106465760008094509450505061093b565b6000886001600160a01b031663927482ff846020015185604001516040518363ffffffff1660e01b815260040161067e92919061213d565b60206040518083038186803b15801561069657600080fd5b505afa1580156106aa573d6000803e3d6000fd5b505050506040513d601f19601f820116820180604052508101906106ce9190611db4565b905060006106e18b856040015184610ff3565b90506000610701670de0b6b3a76400006106fb868d6111ec565b90611245565b905060006107108d8d84610ff3565b90508083101580156107225750600083115b61073e5760405162461bcd60e51b81526004016105b490612107565b61074c836106fb86846111ec565b86606001818152505060008d6001600160a01b031663c45a01556040518163ffffffff1660e01b815260040160206040518083038186803b15801561079057600080fd5b505afa1580156107a4573d6000803e3d6000fd5b505050506040513d601f19601f820116820180604052508101906107c89190611a8f565b6001600160a01b0316634f8419b97f00000000000000000000000000000000000000000000000000000000000000006040518263ffffffff1660e01b81526004016108139190611fb1565b60206040518083038186803b15801561082b57600080fd5b505afa15801561083f573d6000803e3d6000fd5b505050506040513d601f19601f820116820180604052508101906108639190611a8f565b6001600160a01b03166340f6405d88604001516040518263ffffffff1660e01b81526004016108929190611fb1565b60606040518083038186803b1580156108aa57600080fd5b505afa1580156108be573d6000803e3d6000fd5b505050506040513d601f19601f820116820180604052508101906108e29190611dcc565b80519091506001600160801b03161580159061090a575060408101516001600160a01b031615155b156109205761091987826112a9565b975061092c565b61092987611570565b97505b60008099509950505050505050505b9450945094915050565b60006103e6838360200260040160ff1660206109f7565b600080610974848460200260040160ff1660206109f7565b9050610985846004830160206109f7565b949350505050565b600061034d8260006103f4565b50601290565b6000806000806109b08686610dde565b935050925092506109ed8686858585600160008d6001600160a01b03166001600160a01b03168152602001908152602001600020600001546116e8565b9695505050505050565b600081830184511015610a4f576040805162461bcd60e51b815260206004820152601b60248201527a52656164696e67206279746573206f7574206f6620626f756e647360281b604482015290519081900360640190fd5b826020018401519050816020038015610a6e576008810260020a820491505b509392505050565b6001602081905260009182526040909120805491015482565b6000806000806000610aa18787610dde565b9350935093509350856001600160a01b0316632fa7bb658584866040518463ffffffff1660e01b8152600401610ad993929190612189565b602060405180830381600087803b158015610af357600080fd5b505af1158015610b07573d6000803e3d6000fd5b505050506040513d601f19601f82011682018060405250810190610b2b9190611bc1565b15610bb657604051631f019d0360e11b81526001600160a01b03871690633e033a0690610b629087908690889083906004016121b5565b606060405180830381600087803b158015610b7c57600080fd5b505af1158015610b90573d6000803e3d6000fd5b505050506040513d601f19601f82011682018060405250810190610bb49190611e34565b505b604051631ac9dde960e11b81526000906001600160a01b03881690633593bbd290610be990889087908990600401612189565b602060405180830381600087803b158015610c0357600080fd5b505af1158015610c17573d6000803e3d6000fd5b505050506040513d601f19601f82011682018060405250810190610c3b9190611db4565b6040805180820182528281524260208083019182526001600160a01b038d1660009081526001918290529390932091518255519101559050610c818888878786866116e8565b98975050505050505050565b60608182601f011015610cd8576040805162461bcd60e51b815260206004820152600e60248201526d736c6963655f6f766572666c6f7760901b604482015290519081900360640190fd5b828284011015610d20576040805162461bcd60e51b815260206004820152600e60248201526d736c6963655f6f766572666c6f7760901b604482015290519081900360640190fd5b81830184511015610d6c576040805162461bcd60e51b8152602060048201526011602482015270736c6963655f6f75744f66426f756e647360781b604482015290519081900360640190fd5b606082158015610d8b5760405191506000825260208201604052610dd5565b6040519150601f8416801560200281840101858101878315602002848b0101015b81831015610dc4578051835260209283019201610dac565b5050858452601f01601f1916604052505b50949350505050565b6000806000806000866001600160a01b031663c45a01556040518163ffffffff1660e01b815260040160206040518083038186803b158015610e1f57600080fd5b505afa158015610e33573d6000803e3d6000fd5b505050506040513d601f19601f82011682018060405250810190610e579190611a8f565b6001600160a01b0316634f8419b9876040518263ffffffff1660e01b8152600401610e829190611fb1565b60206040518083038186803b158015610e9a57600080fd5b505afa158015610eae573d6000803e3d6000fd5b505050506040513d601f19601f82011682018060405250810190610ed29190611a8f565b60405163098505c760e31b81529091506001600160a01b03821690634c282e3890610f03908a908a90600401611fc5565b60206040518083038186803b158015610f1b57600080fd5b505afa158015610f2f573d6000803e3d6000fd5b505050506040513d601f19601f82011682018060405250810190610f539190611f03565b94506000816001600160a01b031663f761dea0896040518263ffffffff1660e01b8152600401610f839190611fb1565b60806040518083038186803b158015610f9b57600080fd5b505afa158015610faf573d6000803e3d6000fd5b505050506040513d601f19601f82011682018060405250810190610fd39190611e88565b60208101516060820151604090920151979a909950909750945050505050565b6000836001600160a01b031663c45a01556040518163ffffffff1660e01b815260040160206040518083038186803b15801561102e57600080fd5b505afa158015611042573d6000803e3d6000fd5b505050506040513d601f19601f820116820180604052508101906110669190611a8f565b6001600160a01b031663cc435bf3846040518263ffffffff1660e01b81526004016110919190611fb1565b60206040518083038186803b1580156110a957600080fd5b505afa1580156110bd573d6000803e3d6000fd5b505050506040513d601f19601f820116820180604052508101906110e19190611bc1565b156111e2576000846001600160a01b0316631e50a4a66040518163ffffffff1660e01b815260040160206040518083038186803b15801561112157600080fd5b505afa158015611135573d6000803e3d6000fd5b505050506040513d601f19601f820116820180604052508101906111599190611a8f565b6040516314e03fdd60e11b81529091506001600160a01b038216906329c07fba9061118a9087908790600401611fdf565b60206040518083038186803b1580156111a257600080fd5b505afa1580156111b6573d6000803e3d6000fd5b505050506040513d601f19601f820116820180604052508101906111da9190611db4565b9150506103e6565b5060009392505050565b6000826111fb5750600061034d565b8282028284828161120857fe5b04146103e65760405162461bcd60e51b81526004018080602001828103825260218152602001806122486021913960400191505060405180910390fd5b6000808211611298576040805162461bcd60e51b815260206004820152601a602482015279536166654d6174683a206469766973696f6e206279207a65726f60301b604482015290519081900360640190fd5b8183816112a157fe5b049392505050565b60408051600380825260808201909252606091816020015b6112c96119d0565b8152602001906001900390816112c15790505090508260000151816000815181106112f057fe5b6020908102919091018101516001600160a01b03909216909152830151604080850151606086015191516395997c5160e01b936113329390929160240161215f565b604051602081830303815290604052906001600160e01b0319166020820180516001600160e01b0383818316178352505050508160008151811061137257fe5b602002602001015160200181905250600061141783604001516001600160a01b031663313ce5676040518163ffffffff1660e01b815260040160206040518083038186803b1580156113c357600080fd5b505afa1580156113d7573d6000803e3d6000fd5b505050506040513d601f19601f820116820180604052508101906113fb9190611f4a565b60120360ff16600a0a856060015161124590919063ffffffff16565b90507f00000000000000000000000000000000000000000000000000000000000000008260018151811061144757fe5b60209081029190910101516001600160a01b03909116905282516060850151604051633c26d6cf60e11b9261148292909185906024016121e9565b604051602081830303815290604052906001600160e01b0319166020820180516001600160e01b038381831617835250505050826001815181106114c257fe5b6020026020010151602001819052508260400151826002815181106114e357fe5b60209081029190910101516001600160a01b039091169052608084015160405163a9059cbb60e01b9161151a918490602401611fdf565b604051602081830303815290604052906001600160e01b0319166020820180516001600160e01b0383818316178352505050508260028151811061155a57fe5b6020026020010151602001819052505092915050565b6040805160028082526060828101909352816020015b61158e6119d0565b8152602001906001900390816115865790505090508160000151816000815181106115b557fe5b6020908102919091018101516001600160a01b03909216909152820151604080840151606085015191516395997c5160e01b936115f79390929160240161215f565b604051602081830303815290604052906001600160e01b0319166020820180516001600160e01b0383818316178352505050508160008151811061163757fe5b60200260200101516020018190525081604001518160018151811061165857fe5b60209081029190910101516001600160a01b0390911690526080820151606083015160405163a9059cbb60e01b92611694929091602401611fdf565b604051602081830303815290604052906001600160e01b0319166020820180516001600160e01b038381831617835250505050816001815181106116d457fe5b602002602001015160200181905250919050565b60006001600160801b038516611700575060006109ed565b6117888785886001600160a01b031663927482ff89896040518363ffffffff1660e01b815260040161173392919061213d565b60206040518083038186803b15801561174b57600080fd5b505afa15801561175f573d6000803e3d6000fd5b505050506040513d601f19601f820116820180604052508101906117839190611db4565b610ff3565b90506117c76117c08885896001600160a01b031663927482ff8a896040518363ffffffff1660e01b815260040161173392919061213d565b82906118c9565b90506000866001600160a01b031663ef45148e87876040518363ffffffff1660e01b81526004016117f992919061213d565b60606040518083038186803b15801561181157600080fd5b505afa158015611825573d6000803e3d6000fd5b505050506040513d601f19601f820116820180604052508101906118499190611f1d565b50915050600061185a898784610ff3565b905060008412156118915761188a61188361187c8b8861178389600003611921565b83906118c9565b84906118c9565b92506118bd565b60006118ab6118a48b8861178389611921565b839061197c565b91506118b9905084826118c9565b9350505b50509695505050505050565b6000828201838110156103e6576040805162461bcd60e51b815260206004820152601b60248201527a536166654d6174683a206164646974696f6e206f766572666c6f7760281b604482015290519081900360640190fd5b600080821215611978576040805162461bcd60e51b815260206004820181905260248201527f53616665436173743a2076616c7565206d75737420626520706f736974697665604482015290519081900360640190fd5b5090565b600080838311156119925750600090508061199b565b50600190508183035b9250929050565b6040805160a08101825260008082526020820181905291810182905260608101829052608081019190915290565b60408051808201909152600081526060602082015290565b600082601f8301126119f8578081fd5b81356001600160401b0380821115611a0c57fe5b604051601f8301601f191681016020018281118282101715611a2a57fe5b604052828152848301602001861015611a41578384fd5b82602086016020830137918201602001929092529392505050565b80516001600160801b03811681146103ef57600080fd5b600060208284031215611a84578081fd5b81356103e681612220565b600060208284031215611aa0578081fd5b81516103e681612220565b60008060408385031215611abd578081fd5b8235611ac881612220565b91506020830135611ad881612220565b809150509250929050565b60008060008060608587031215611af8578182fd5b8435611b0381612220565b93506020850135611b1381612220565b925060408501356001600160401b0380821115611b2e578384fd5b818701915087601f830112611b41578384fd5b813581811115611b4f578485fd5b886020828501011115611b60578485fd5b95989497505060200194505050565b60008060008060808587031215611b84578384fd5b8435611b8f81612220565b93506020850135611b9f81612220565b9250604085013591506060850135611bb681612220565b939692955090935050565b600060208284031215611bd2578081fd5b815180151581146103e6578182fd5b600060208284031215611bf2578081fd5b5035919050565b600060208284031215611c0a578081fd5b81356001600160401b03811115611c1f578182fd5b610985848285016119e8565b60008060408385031215611c3d578182fd5b82356001600160401b03811115611c52578283fd5b611c5e858286016119e8565b95602094909401359450505050565b600080600060608486031215611c81578081fd5b83356001600160401b03811115611c96578182fd5b611ca2868287016119e8565b9660208601359650604090950135949350505050565b60008060408385031215611cca578182fd5b82356001600160401b03811115611cdf578283fd5b611ceb858286016119e8565b9250506020830135611ad881612238565b600080600060608486031215611d10578081fd5b83356001600160401b03811115611d25578182fd5b611d31868287016119e8565b9350506020840135611d4281612238565b929592945050506040919091013590565b600080600060608486031215611d67578081fd5b83356001600160401b03811115611d7c578182fd5b611d88868287016119e8565b9350506020840135611d9981612238565b91506040840135611da981612238565b809150509250925092565b600060208284031215611dc5578081fd5b5051919050565b600060608284031215611ddd578081fd5b604051606081018181106001600160401b0382111715611df957fe5b604052611e0583611a5c565b81526020830151611e1581612220565b60208201526040830151611e2881612220565b60408201529392505050565b600060608284031215611e45578081fd5b604051606081018181106001600160401b0382111715611e6157fe5b80604052508251815260208301516020820152604083015160408201528091505092915050565b600060808284031215611e99578081fd5b604051608081018181106001600160401b0382111715611eb557fe5b6040528251611ec381612220565b81526020830151611ed381612220565b60208201526040830151611ee681612220565b6040820152611ef760608401611a5c565b60608201529392505050565b600060208284031215611f14578081fd5b6103e682611a5c565b600080600060608486031215611f31578081fd5b8351925060208401519150604084015190509250925092565b600060208284031215611f5b578081fd5b81516103e681612238565b60008151808452815b81811015611f8b57602081850181015186830182015201611f6f565b81811115611f9c5782602083870101525b50601f01601f19169290920160200192915050565b6001600160a01b0391909116815260200190565b6001600160a01b0392831681529116602082015260400190565b6001600160a01b03929092168252602082015260400190565b60006060820160018060a01b03808716845260208681860152604060608187015283875180865260808801915060808482028901019550838901875b8281101561207557898803607f190184528151805188168952860151868901869052612062868a0182611f66565b9850509285019290850190600101612034565b50959b9a5050505050505050505050565b901515815260200190565b90815260200190565b6001600160e01b031991909116815260200190565b6000602082526103e66020830184611f66565b918252602082015260400190565b6020808252601d908201527f63616e6e6f742072656d6f7665206e6f6e2d656d707479206173736574000000604082015260600190565b6020808252601c908201527b6e6f7420656e6f75676820617661696c61626c652062616c616e636560201b604082015260600190565b6001600160801b039290921682526001600160a01b0316602082015260400190565b6001600160801b039390931683526001600160a01b03919091166020830152604082015260600190565b6001600160801b0393841681529190921660208201526001600160a01b03909116604082015260600190565b6001600160801b03948516815292841660208401526001600160a01b03919091166040830152909116606082015260800190565b6001600160801b039390931683526020830191909152604082015260600190565b61ffff9290921682521515602082015260400190565b6001600160a01b038116811461223557600080fd5b50565b60ff8116811461223557600080fdfe536166654d6174683a206d756c7469706c69636174696f6e206f766572666c6f77a2646970667358221220bfaaa17265a7608fa656b5ab0fe3ee13148448d6d228f471eff5421cd12dda7664736f6c63430007060033",
  "linkReferences": {},
  "deployedLinkReferences": {}
}