{
  "_format": "hh-sol-artifact-1",
  "contractName": "ERC20Asset",
  "sourceName": "contracts/test/TestAssets.sol",
  "abi": [
    {
      "inputs": [
        {
          "internalType": "string",
          "name": "name",
          "type": "string"
        },
        {
          "internalType": "string",
          "name": "symbol",
          "type": "string"
        }
      ],
      "stateMutability": "nonpayable",
      "type": "constructor"
    },
    {
      "anonymous": false,
      "inputs": [
        {
          "indexed": true,
          "internalType": "address",
          "name": "owner",
          "type": "address"
        },
        {
          "indexed": true,
          "internalType": "address",
          "name": "spender",
          "type": "address"
        },
        {
          "indexed": false,
          "internalType": "uint256",
          "name": "value",
          "type": "uint256"
        }
      ],
      "name": "Approval",
      "type": "event"
    },
    {
      "anonymous": false,
      "inputs": [
        {
          "indexed": true,
          "internalType": "address",
          "name": "from",
          "type": "address"
        },
        {
          "indexed": true,
          "internalType": "address",
          "name": "to",
          "type": "address"
        },
        {
          "indexed": false,
          "internalType": "uint256",
          "name": "value",
          "type": "uint256"
        }
      ],
      "name": "Transfer",
      "type": "event"
    },
    {
      "inputs": [
        {
          "internalType": "address",
          "name": "owner",
          "type": "address"
        },
        {
          "internalType": "address",
          "name": "spender",
          "type": "address"
        }
      ],
      "name": "allowance",
      "outputs": [
        {
          "internalType": "uint256",
          "name": "",
          "type": "uint256"
        }
      ],
      "stateMutability": "view",
      "type": "function"
    },
    {
      "inputs": [
        {
          "internalType": "address",
          "name": "spender",
          "type": "address"
        },
        {
          "internalType": "uint256",
          "name": "amount",
          "type": "uint256"
        }
      ],
      "name": "approve",
      "outputs": [
        {
          "internalType": "bool",
          "name": "",
          "type": "bool"
        }
      ],
      "stateMutability": "nonpayable",
      "type": "function"
    },
    {
      "inputs": [
        {
          "internalType": "address",
          "name": "account",
          "type": "address"
        }
      ],
      "name": "balanceOf",
      "outputs": [
        {
          "internalType": "uint256",
          "name": "",
          "type": "uint256"
        }
      ],
      "stateMutability": "view",
      "type": "function"
    },
    {
      "inputs": [
        {
          "internalType": "address",
          "name": "owner",
          "type": "address"
        }
      ],
      "name": "burnAll",
      "outputs": [],
      "stateMutability": "nonpayable",
      "type": "function"
    },
    {
      "inputs": [],
      "name": "decimals",
      "outputs": [
        {
          "internalType": "uint8",
          "name": "",
          "type": "uint8"
        }
      ],
      "stateMutability": "view",
      "type": "function"
    },
    {
      "inputs": [
        {
          "internalType": "address",
          "name": "spender",
          "type": "address"
        },
        {
          "internalType": "uint256",
          "name": "subtractedValue",
          "type": "uint256"
        }
      ],
      "name": "decreaseAllowance",
      "outputs": [
        {
          "internalType": "bool",
          "name": "",
          "type": "bool"
        }
      ],
      "stateMutability": "nonpayable",
      "type": "function"
    },
    {
      "inputs": [
        {
          "internalType": "address",
          "name": "spender",
          "type": "address"
        },
        {
          "internalType": "uint256",
          "name": "addedValue",
          "type": "uint256"
        }
      ],
      "name": "increaseAllowance",
      "outputs": [
        {
          "internalType": "bool",
          "name": "",
          "type": "bool"
        }
      ],
      "stateMutability": "nonpayable",
      "type": "function"
    },
    {
      "inputs": [],
      "name": "name",
      "outputs": [
        {
          "internalType": "string",
          "name": "",
          "type": "string"
        }
      ],
      "stateMutability": "view",
      "type": "function"
    },
    {
      "inputs": [],
      "name": "symbol",
      "outputs": [
        {
          "internalType": "string",
          "name": "",
          "type": "string"
        }
      ],
      "stateMutability": "view",
      "type": "function"
    },
    {
      "inputs": [],
      "name": "totalSupply",
      "outputs": [
        {
          "internalType": "uint256",
          "name": "",
          "type": "uint256"
        }
      ],
      "stateMutability": "view",
      "type": "function"
    },
    {
      "inputs": [
        {
          "internalType": "address",
          "name": "recipient",
          "type": "address"
        },
        {
          "internalType": "uint256",
          "name": "amount",
          "type": "uint256"
        }
      ],
      "name": "transfer",
      "outputs": [
        {
          "internalType": "bool",
          "name": "",
          "type": "bool"
        }
      ],
      "stateMutability": "nonpayable",
      "type": "function"
    },
    {
      "inputs": [
        {
          "internalType": "address",
          "name": "sender",
          "type": "address"
        },
        {
          "internalType": "address",
          "name": "recipient",
          "type": "address"
        },
        {
          "internalType": "uint256",
          "name": "amount",
          "type": "uint256"
        }
      ],
      "name": "transferFrom",
      "outputs": [
        {
          "internalType": "bool",
          "name": "",
          "type": "bool"
        }
      ],
      "stateMutability": "nonpayable",
      "type": "function"
    }
  ],
  "bytecode": "0x60806040523480156200001157600080fd5b5060405162000ff138038062000ff1833981810160405260408110156200003757600080fd5b81019080805160405193929190846401000000008211156200005857600080fd5b9083019060208201858111156200006e57600080fd5b82516401000000008111828201881017156200008957600080fd5b82525081516020918201929091019080838360005b83811015620000b85781810151838201526020016200009e565b50505050905090810190601f168015620000e65780820380516001836020036101000a031916815260200191505b50604052602001805160405193929190846401000000008211156200010a57600080fd5b9083019060208201858111156200012057600080fd5b82516401000000008111828201881017156200013b57600080fd5b82525081516020918201929091019080838360005b838110156200016a57818101518382015260200162000150565b50505050905090810190601f168015620001985780820380516001836020036101000a031916815260200191505b50604052505082518391508290620001b890600390602085019062000371565b508051620001ce90600490602084019062000371565b50506005805460ff1916601217905550620001f333683635c9adc5dea00000620001fb565b50506200041d565b6001600160a01b03821662000257576040805162461bcd60e51b815260206004820152601f60248201527f45524332303a206d696e7420746f20746865207a65726f206164647265737300604482015290519081900360640190fd5b62000265600083836200030a565b62000281816002546200030f60201b620005ab1790919060201c565b6002556001600160a01b03821660009081526020818152604090912054620002b4918390620005ab6200030f821b17901c565b6001600160a01b0383166000818152602081815260408083209490945583518581529351929391927fddf252ad1be2c89b69c2b068fc378daa952ba7f163c4a11628f55a4df523b3ef9281900390910190a35050565b505050565b6000828201838110156200036a576040805162461bcd60e51b815260206004820152601b60248201527f536166654d6174683a206164646974696f6e206f766572666c6f770000000000604482015290519081900360640190fd5b9392505050565b828054600181600116156101000203166002900490600052602060002090601f016020900481019282620003a95760008555620003f4565b82601f10620003c457805160ff1916838001178555620003f4565b82800160010185558215620003f4579182015b82811115620003f4578251825591602001919060010190620003d7565b506200040292915062000406565b5090565b5b8082111562000402576000815560010162000407565b610bc4806200042d6000396000f3fe608060405234801561001057600080fd5b50600436106100a45760003560e01c806306fdde03146100a9578063095ea7b31461012657806318160ddd1461016657806323b872dd14610180578063313ce567146101b657806339509351146101d457806370a08231146102005780637e9d2ac11461022657806395d89b411461024e578063a457c2d714610256578063a9059cbb14610282578063dd62ed3e146102ae575b600080fd5b6100b16102dc565b6040805160208082528351818301528351919283929083019185019080838360005b838110156100eb5781810151838201526020016100d3565b50505050905090810190601f1680156101185780820380516001836020036101000a031916815260200191505b509250505060405180910390f35b6101526004803603604081101561013c57600080fd5b506001600160a01b038135169060200135610372565b604080519115158252519081900360200190f35b61016e61038f565b60408051918252519081900360200190f35b6101526004803603606081101561019657600080fd5b506001600160a01b03813581169160208101359091169060400135610395565b6101be61041c565b6040805160ff9092168252519081900360200190f35b610152600480360360408110156101ea57600080fd5b506001600160a01b038135169060200135610425565b61016e6004803603602081101561021657600080fd5b50356001600160a01b0316610473565b61024c6004803603602081101561023c57600080fd5b50356001600160a01b031661048e565b005b6100b16104a3565b6101526004803603604081101561026c57600080fd5b506001600160a01b038135169060200135610504565b6101526004803603604081101561029857600080fd5b506001600160a01b03813516906020013561056c565b61016e600480360360408110156102c457600080fd5b506001600160a01b0381358116916020013516610580565b60038054604080516020601f60026000196101006001881615020190951694909404938401819004810282018101909252828152606093909290918301828280156103685780601f1061033d57610100808354040283529160200191610368565b820191906000526020600020905b81548152906001019060200180831161034b57829003601f168201915b5050505050905090565b600061038661037f61060a565b848461060e565b50600192915050565b60025490565b60006103a28484846106fa565b610412846103ae61060a565b61040d85604051806060016040528060288152602001610ad8602891396001600160a01b038a166000908152600160205260408120906103ec61060a565b6001600160a01b031681526020810191909152604001600020549190610855565b61060e565b5060019392505050565b60055460ff1690565b600061038661043261060a565b8461040d856001600061044361060a565b6001600160a01b03908116825260208083019390935260409182016000908120918c1681529252902054906105ab565b6001600160a01b031660009081526020819052604090205490565b6104a08161049b83610473565b6108ec565b50565b60048054604080516020601f60026000196101006001881615020190951694909404938401819004810282018101909252828152606093909290918301828280156103685780601f1061033d57610100808354040283529160200191610368565b600061038661051161060a565b8461040d85604051806060016040528060258152602001610b6a602591396001600061053b61060a565b6001600160a01b03908116825260208083019390935260409182016000908120918d16815292529020549190610855565b600061038661057961060a565b84846106fa565b6001600160a01b03918216600090815260016020908152604080832093909416825291909152205490565b600082820183811015610603576040805162461bcd60e51b815260206004820152601b60248201527a536166654d6174683a206164646974696f6e206f766572666c6f7760281b604482015290519081900360640190fd5b9392505050565b3390565b6001600160a01b0383166106535760405162461bcd60e51b8152600401808060200182810382526024815260200180610b466024913960400191505060405180910390fd5b6001600160a01b0382166106985760405162461bcd60e51b8152600401808060200182810382526022815260200180610a906022913960400191505060405180910390fd5b6001600160a01b03808416600081815260016020908152604080832094871680845294825291829020859055815185815291517f8c5be1e5ebec7d5bd14f71427d1e84f3dd0314c0f7b2291e5b200ac8c7c3b9259281900390910190a3505050565b6001600160a01b03831661073f5760405162461bcd60e51b8152600401808060200182810382526025815260200180610b216025913960400191505060405180910390fd5b6001600160a01b0382166107845760405162461bcd60e51b8152600401808060200182810382526023815260200180610a4b6023913960400191505060405180910390fd5b61078f8383836109e8565b6107cc81604051806060016040528060268152602001610ab2602691396001600160a01b0386166000908152602081905260409020549190610855565b6001600160a01b0380851660009081526020819052604080822093909355908416815220546107fb90826105ab565b6001600160a01b038084166000818152602081815260409182902094909455805185815290519193928716927fddf252ad1be2c89b69c2b068fc378daa952ba7f163c4a11628f55a4df523b3ef92918290030190a3505050565b600081848411156108e45760405162461bcd60e51b81526004018080602001828103825283818151815260200191508051906020019080838360005b838110156108a9578181015183820152602001610891565b50505050905090810190601f1680156108d65780820380516001836020036101000a031916815260200191505b509250505060405180910390fd5b505050900390565b6001600160a01b0382166109315760405162461bcd60e51b8152600401808060200182810382526021815260200180610b006021913960400191505060405180910390fd5b61093d826000836109e8565b61097a81604051806060016040528060228152602001610a6e602291396001600160a01b0385166000908152602081905260409020549190610855565b6001600160a01b0383166000908152602081905260409020556002546109a090826109ed565b6002556040805182815290516000916001600160a01b038516917fddf252ad1be2c89b69c2b068fc378daa952ba7f163c4a11628f55a4df523b3ef9181900360200190a35050565b505050565b600082821115610a44576040805162461bcd60e51b815260206004820152601e60248201527f536166654d6174683a207375627472616374696f6e206f766572666c6f770000604482015290519081900360640190fd5b5090039056fe45524332303a207472616e7366657220746f20746865207a65726f206164647265737345524332303a206275726e20616d6f756e7420657863656564732062616c616e636545524332303a20617070726f766520746f20746865207a65726f206164647265737345524332303a207472616e7366657220616d6f756e7420657863656564732062616c616e636545524332303a207472616e7366657220616d6f756e74206578636565647320616c6c6f77616e636545524332303a206275726e2066726f6d20746865207a65726f206164647265737345524332303a207472616e736665722066726f6d20746865207a65726f206164647265737345524332303a20617070726f76652066726f6d20746865207a65726f206164647265737345524332303a2064656372656173656420616c6c6f77616e63652062656c6f77207a65726fa2646970667358221220792eafbacf3ad1624dbc845eaf96a81dbe7388f14f6ddc16ba8d9a5fee8f086a64736f6c63430007060033",
  "linkReferences": {},
  "deployedLinkReferences": {}
}