{
  "_format": "hh-sol-artifact-1",
  "contractName": "SynthetixV3SpotMarketContractGuard",
  "sourceName": "contracts/guards/contractGuards/synthetixV3/SynthetixV3SpotMarketContractGuard.sol",
  "abi": [
    {
      "inputs": [
        {
          "internalType": "address",
          "name": "_snxV3Core",
          "type": "address"
        },
        {
          "internalType": "address",
          "name": "_snxSpotMarket",
          "type": "address"
        },
        {
          "components": [
            {
              "internalType": "uint128",
              "name": "marketId",
              "type": "uint128"
            },
            {
              "internalType": "address",
              "name": "collateralSynth",
              "type": "address"
            },
            {
              "internalType": "address",
              "name": "collateralAsset",
              "type": "address"
            }
          ],
          "internalType": "struct SynthetixV3Structs.AllowedMarket[]",
          "name": "_allowedMarkets",
          "type": "tuple[]"
        }
      ],
      "stateMutability": "nonpayable",
      "type": "constructor"
    },
    {
      "anonymous": false,
      "inputs": [
        {
          "indexed": false,
          "internalType": "address",
          "name": "poolLogic",
          "type": "address"
        },
        {
          "indexed": false,
          "internalType": "address",
          "name": "pair",
          "type": "address"
        },
        {
          "indexed": false,
          "internalType": "bytes",
          "name": "params",
          "type": "bytes"
        },
        {
          "indexed": false,
          "internalType": "uint256",
          "name": "time",
          "type": "uint256"
        }
      ],
      "name": "AddLiquidity",
      "type": "event"
    },
    {
      "anonymous": false,
      "inputs": [
        {
          "indexed": false,
          "internalType": "address",
          "name": "fundAddress",
          "type": "address"
        },
        {
          "indexed": false,
          "internalType": "address",
          "name": "asset",
          "type": "address"
        },
        {
          "indexed": false,
          "internalType": "address",
          "name": "liquidityPool",
          "type": "address"
        },
        {
          "indexed": false,
          "internalType": "uint256",
          "name": "amount",
          "type": "uint256"
        },
        {
          "indexed": false,
          "internalType": "uint256",
          "name": "time",
          "type": "uint256"
        }
      ],
      "name": "AddLiquiditySingle",
      "type": "event"
    },
    {
      "anonymous": false,
      "inputs": [
        {
          "indexed": false,
          "internalType": "address",
          "name": "poolLogic",
          "type": "address"
        },
        {
          "indexed": false,
          "internalType": "address",
          "name": "stakingContract",
          "type": "address"
        },
        {
          "indexed": false,
          "internalType": "uint256",
          "name": "time",
          "type": "uint256"
        }
      ],
      "name": "Claim",
      "type": "event"
    },
    {
      "anonymous": false,
      "inputs": [
        {
          "indexed": false,
          "internalType": "address",
          "name": "fundAddress",
          "type": "address"
        },
        {
          "indexed": false,
          "internalType": "address",
          "name": "sourceAsset",
          "type": "address"
        },
        {
          "indexed": false,
          "internalType": "uint256",
          "name": "sourceAmount",
          "type": "uint256"
        },
        {
          "indexed": false,
          "internalType": "address",
          "name": "dstAsset",
          "type": "address"
        },
        {
          "indexed": false,
          "internalType": "uint256",
          "name": "time",
          "type": "uint256"
        }
      ],
      "name": "ExchangeFrom",
      "type": "event"
    },
    {
      "anonymous": false,
      "inputs": [
        {
          "indexed": false,
          "internalType": "address",
          "name": "fundAddress",
          "type": "address"
        },
        {
          "indexed": false,
          "internalType": "address",
          "name": "sourceAsset",
          "type": "address"
        },
        {
          "indexed": false,
          "internalType": "address",
          "name": "dstAsset",
          "type": "address"
        },
        {
          "indexed": false,
          "internalType": "uint256",
          "name": "dstAmount",
          "type": "uint256"
        },
        {
          "indexed": false,
          "internalType": "uint256",
          "name": "time",
          "type": "uint256"
        }
      ],
      "name": "ExchangeTo",
      "type": "event"
    },
    {
      "anonymous": false,
      "inputs": [
        {
          "indexed": false,
          "internalType": "address",
          "name": "poolLogic",
          "type": "address"
        },
        {
          "indexed": false,
          "internalType": "address",
          "name": "pair",
          "type": "address"
        },
        {
          "indexed": false,
          "internalType": "bytes",
          "name": "params",
          "type": "bytes"
        },
        {
          "indexed": false,
          "internalType": "uint256",
          "name": "time",
          "type": "uint256"
        }
      ],
      "name": "RemoveLiquidity",
      "type": "event"
    },
    {
      "anonymous": false,
      "inputs": [
        {
          "indexed": false,
          "internalType": "address",
          "name": "fundAddress",
          "type": "address"
        },
        {
          "indexed": false,
          "internalType": "address",
          "name": "asset",
          "type": "address"
        },
        {
          "indexed": false,
          "internalType": "address",
          "name": "liquidityPool",
          "type": "address"
        },
        {
          "indexed": false,
          "internalType": "uint256",
          "name": "amount",
          "type": "uint256"
        },
        {
          "indexed": false,
          "internalType": "uint256",
          "name": "time",
          "type": "uint256"
        }
      ],
      "name": "RemoveLiquiditySingle",
      "type": "event"
    },
    {
      "anonymous": false,
      "inputs": [
        {
          "indexed": true,
          "internalType": "address",
          "name": "fundAddress",
          "type": "address"
        },
        {
          "indexed": false,
          "internalType": "address",
          "name": "asset",
          "type": "address"
        },
        {
          "indexed": false,
          "internalType": "address",
          "name": "cToken",
          "type": "address"
        },
        {
          "indexed": false,
          "internalType": "uint256",
          "name": "amount",
          "type": "uint256"
        },
        {
          "indexed": false,
          "internalType": "uint256",
          "name": "time",
          "type": "uint256"
        }
      ],
      "name": "SonneBorrowEvent",
      "type": "event"
    },
    {
      "anonymous": false,
      "inputs": [
        {
          "indexed": true,
          "internalType": "address",
          "name": "poolLogic",
          "type": "address"
        },
        {
          "indexed": false,
          "internalType": "address[]",
          "name": "cTokens",
          "type": "address[]"
        },
        {
          "indexed": false,
          "internalType": "uint256",
          "name": "time",
          "type": "uint256"
        }
      ],
      "name": "SonneEnterMarkets",
      "type": "event"
    },
    {
      "anonymous": false,
      "inputs": [
        {
          "indexed": true,
          "internalType": "address",
          "name": "poolLogic",
          "type": "address"
        },
        {
          "indexed": false,
          "internalType": "address",
          "name": "cToken",
          "type": "address"
        },
        {
          "indexed": false,
          "internalType": "uint256",
          "name": "time",
          "type": "uint256"
        }
      ],
      "name": "SonneExitMarket",
      "type": "event"
    },
    {
      "anonymous": false,
      "inputs": [
        {
          "indexed": true,
          "internalType": "address",
          "name": "fundAddress",
          "type": "address"
        },
        {
          "indexed": false,
          "internalType": "address",
          "name": "asset",
          "type": "address"
        },
        {
          "indexed": false,
          "internalType": "address",
          "name": "cToken",
          "type": "address"
        },
        {
          "indexed": false,
          "internalType": "uint256",
          "name": "amount",
          "type": "uint256"
        },
        {
          "indexed": false,
          "internalType": "uint256",
          "name": "time",
          "type": "uint256"
        }
      ],
      "name": "SonneMintEvent",
      "type": "event"
    },
    {
      "anonymous": false,
      "inputs": [
        {
          "indexed": true,
          "internalType": "address",
          "name": "fundAddress",
          "type": "address"
        },
        {
          "indexed": false,
          "internalType": "address",
          "name": "asset",
          "type": "address"
        },
        {
          "indexed": false,
          "internalType": "address",
          "name": "cToken",
          "type": "address"
        },
        {
          "indexed": false,
          "internalType": "uint256",
          "name": "amount",
          "type": "uint256"
        },
        {
          "indexed": false,
          "internalType": "uint256",
          "name": "time",
          "type": "uint256"
        }
      ],
      "name": "SonneRedeemEvent",
      "type": "event"
    },
    {
      "anonymous": false,
      "inputs": [
        {
          "indexed": true,
          "internalType": "address",
          "name": "fundAddress",
          "type": "address"
        },
        {
          "indexed": false,
          "internalType": "address",
          "name": "asset",
          "type": "address"
        },
        {
          "indexed": false,
          "internalType": "address",
          "name": "cToken",
          "type": "address"
        },
        {
          "indexed": false,
          "internalType": "uint256",
          "name": "amount",
          "type": "uint256"
        },
        {
          "indexed": false,
          "internalType": "uint256",
          "name": "time",
          "type": "uint256"
        }
      ],
      "name": "SonneRedeemUnderlyingEvent",
      "type": "event"
    },
    {
      "anonymous": false,
      "inputs": [
        {
          "indexed": true,
          "internalType": "address",
          "name": "fundAddress",
          "type": "address"
        },
        {
          "indexed": false,
          "internalType": "address",
          "name": "asset",
          "type": "address"
        },
        {
          "indexed": false,
          "internalType": "address",
          "name": "cToken",
          "type": "address"
        },
        {
          "indexed": false,
          "internalType": "uint256",
          "name": "amount",
          "type": "uint256"
        },
        {
          "indexed": false,
          "internalType": "uint256",
          "name": "time",
          "type": "uint256"
        }
      ],
      "name": "SonneRepayEvent",
      "type": "event"
    },
    {
      "anonymous": false,
      "inputs": [
        {
          "indexed": false,
          "internalType": "address",
          "name": "poolLogic",
          "type": "address"
        },
        {
          "indexed": false,
          "internalType": "address",
          "name": "stakingToken",
          "type": "address"
        },
        {
          "indexed": false,
          "internalType": "address",
          "name": "to",
          "type": "address"
        },
        {
          "indexed": false,
          "internalType": "uint256",
          "name": "amount",
          "type": "uint256"
        },
        {
          "indexed": false,
          "internalType": "uint256",
          "name": "time",
          "type": "uint256"
        }
      ],
      "name": "Stake",
      "type": "event"
    },
    {
      "anonymous": false,
      "inputs": [
        {
          "indexed": false,
          "internalType": "address",
          "name": "poolAddress",
          "type": "address"
        },
        {
          "indexed": false,
          "internalType": "contract IERC20[]",
          "name": "synthProxies",
          "type": "address[]"
        }
      ],
      "name": "SynthRedeem",
      "type": "event"
    },
    {
      "anonymous": false,
      "inputs": [
        {
          "indexed": false,
          "internalType": "address",
          "name": "poolLogic",
          "type": "address"
        },
        {
          "indexed": false,
          "internalType": "uint256",
          "name": "txType",
          "type": "uint256"
        }
      ],
      "name": "SynthetixV3Event",
      "type": "event"
    },
    {
      "anonymous": false,
      "inputs": [
        {
          "indexed": false,
          "internalType": "address",
          "name": "poolLogic",
          "type": "address"
        },
        {
          "indexed": false,
          "internalType": "address",
          "name": "stakingToken",
          "type": "address"
        },
        {
          "indexed": false,
          "internalType": "address",
          "name": "to",
          "type": "address"
        },
        {
          "indexed": false,
          "internalType": "uint256",
          "name": "amount",
          "type": "uint256"
        },
        {
          "indexed": false,
          "internalType": "uint256",
          "name": "time",
          "type": "uint256"
        }
      ],
      "name": "Unstake",
      "type": "event"
    },
    {
      "inputs": [
        {
          "internalType": "address",
          "name": "",
          "type": "address"
        }
      ],
      "name": "allowedMarkets",
      "outputs": [
        {
          "internalType": "uint128",
          "name": "marketId",
          "type": "uint128"
        },
        {
          "internalType": "address",
          "name": "collateralSynth",
          "type": "address"
        },
        {
          "internalType": "address",
          "name": "collateralAsset",
          "type": "address"
        }
      ],
      "stateMutability": "view",
      "type": "function"
    },
    {
      "inputs": [
        {
          "internalType": "bytes32",
          "name": "data",
          "type": "bytes32"
        }
      ],
      "name": "convert32toAddress",
      "outputs": [
        {
          "internalType": "address",
          "name": "o",
          "type": "address"
        }
      ],
      "stateMutability": "pure",
      "type": "function"
    },
    {
      "inputs": [
        {
          "internalType": "bytes",
          "name": "data",
          "type": "bytes"
        },
        {
          "internalType": "uint8",
          "name": "inputNum",
          "type": "uint8"
        },
        {
          "internalType": "uint8",
          "name": "arrayIndex",
          "type": "uint8"
        }
      ],
      "name": "getArrayIndex",
      "outputs": [
        {
          "internalType": "bytes32",
          "name": "",
          "type": "bytes32"
        }
      ],
      "stateMutability": "pure",
      "type": "function"
    },
    {
      "inputs": [
        {
          "internalType": "bytes",
          "name": "data",
          "type": "bytes"
        },
        {
          "internalType": "uint8",
          "name": "inputNum",
          "type": "uint8"
        }
      ],
      "name": "getArrayLast",
      "outputs": [
        {
          "internalType": "bytes32",
          "name": "",
          "type": "bytes32"
        }
      ],
      "stateMutability": "pure",
      "type": "function"
    },
    {
      "inputs": [
        {
          "internalType": "bytes",
          "name": "data",
          "type": "bytes"
        },
        {
          "internalType": "uint8",
          "name": "inputNum",
          "type": "uint8"
        }
      ],
      "name": "getArrayLength",
      "outputs": [
        {
          "internalType": "uint256",
          "name": "",
          "type": "uint256"
        }
      ],
      "stateMutability": "pure",
      "type": "function"
    },
    {
      "inputs": [
        {
          "internalType": "bytes",
          "name": "data",
          "type": "bytes"
        },
        {
          "internalType": "uint8",
          "name": "inputNum",
          "type": "uint8"
        },
        {
          "internalType": "uint256",
          "name": "offset",
          "type": "uint256"
        }
      ],
      "name": "getBytes",
      "outputs": [
        {
          "internalType": "bytes",
          "name": "",
          "type": "bytes"
        }
      ],
      "stateMutability": "pure",
      "type": "function"
    },
    {
      "inputs": [
        {
          "internalType": "bytes",
          "name": "data",
          "type": "bytes"
        },
        {
          "internalType": "uint8",
          "name": "inputNum",
          "type": "uint8"
        }
      ],
      "name": "getInput",
      "outputs": [
        {
          "internalType": "bytes32",
          "name": "",
          "type": "bytes32"
        }
      ],
      "stateMutability": "pure",
      "type": "function"
    },
    {
      "inputs": [
        {
          "internalType": "bytes",
          "name": "data",
          "type": "bytes"
        }
      ],
      "name": "getMethod",
      "outputs": [
        {
          "internalType": "bytes4",
          "name": "",
          "type": "bytes4"
        }
      ],
      "stateMutability": "pure",
      "type": "function"
    },
    {
      "inputs": [
        {
          "internalType": "bytes",
          "name": "data",
          "type": "bytes"
        }
      ],
      "name": "getParams",
      "outputs": [
        {
          "internalType": "bytes",
          "name": "",
          "type": "bytes"
        }
      ],
      "stateMutability": "pure",
      "type": "function"
    },
    {
      "inputs": [
        {
          "internalType": "bytes",
          "name": "data",
          "type": "bytes"
        },
        {
          "internalType": "uint256",
          "name": "offset",
          "type": "uint256"
        },
        {
          "internalType": "uint256",
          "name": "length",
          "type": "uint256"
        }
      ],
      "name": "read32",
      "outputs": [
        {
          "internalType": "bytes32",
          "name": "o",
          "type": "bytes32"
        }
      ],
      "stateMutability": "pure",
      "type": "function"
    },
    {
      "inputs": [
        {
          "internalType": "bytes",
          "name": "data",
          "type": "bytes"
        },
        {
          "internalType": "uint256",
          "name": "offset",
          "type": "uint256"
        }
      ],
      "name": "read4left",
      "outputs": [
        {
          "internalType": "bytes4",
          "name": "o",
          "type": "bytes4"
        }
      ],
      "stateMutability": "pure",
      "type": "function"
    },
    {
      "inputs": [],
      "name": "snxSpotMarket",
      "outputs": [
        {
          "internalType": "contract ISpotMarketFactoryModule",
          "name": "",
          "type": "address"
        }
      ],
      "stateMutability": "view",
      "type": "function"
    },
    {
      "inputs": [],
      "name": "snxV3Core",
      "outputs": [
        {
          "internalType": "address",
          "name": "",
          "type": "address"
        }
      ],
      "stateMutability": "view",
      "type": "function"
    },
    {
      "inputs": [
        {
          "internalType": "address",
          "name": "_poolManagerLogic",
          "type": "address"
        },
        {
          "internalType": "address",
          "name": "",
          "type": "address"
        },
        {
          "internalType": "bytes",
          "name": "_data",
          "type": "bytes"
        }
      ],
      "name": "txGuard",
      "outputs": [
        {
          "internalType": "uint16",
          "name": "txType",
          "type": "uint16"
        },
        {
          "internalType": "bool",
          "name": "",
          "type": "bool"
        }
      ],
      "stateMutability": "nonpayable",
      "type": "function"
    }
  ],
  "bytecode": "0x60c06040523480156200001157600080fd5b50604051620019f6380380620019f68339810160408190526200003491620002db565b6001600160a01b038316620000665760405162461bcd60e51b81526004016200005d906200047c565b60405180910390fd5b6001600160a01b0382166200008f5760405162461bcd60e51b81526004016200005d9062000445565b6001600160601b0319606084811b821660805283901b1660a05260005b81518110156200029057818181518110620000c357fe5b6020026020010151602001516001600160a01b0316836001600160a01b03166369e0365f848481518110620000f457fe5b6020026020010151600001516040518263ffffffff1660e01b81526004016200011e9190620004de565b60206040518083038186803b1580156200013757600080fd5b505afa1580156200014c573d6000803e3d6000fd5b505050506040513d601f19601f82011682018060405250810190620001729190620002b7565b6001600160a01b0316146200019b5760405162461bcd60e51b81526004016200005d90620004a7565b60006001600160a01b0316828281518110620001b357fe5b6020026020010151604001516001600160a01b03161415620001e95760405162461bcd60e51b81526004016200005d906200040e565b818181518110620001f657fe5b60200260200101516000808484815181106200020e57fe5b6020908102919091018101518101516001600160a01b039081168352828201939093526040918201600020845181546001600160801b039091166001600160801b031990911617815590840151600180830180549286166001600160a01b031993841617905594909201516002909101805491909316911617905501620000ac565b5050505062000516565b80516001600160a01b0381168114620002b257600080fd5b919050565b600060208284031215620002c9578081fd5b620002d4826200029a565b9392505050565b60008060006060808587031215620002f1578283fd5b620002fc856200029a565b935060206200030d8187016200029a565b604087810151919550906001600160401b03808211156200032c578586fd5b818901915089601f83011262000340578586fd5b8151818111156200034d57fe5b6200035c8586830201620004f2565b81815285810190848701888402860188018e10156200037957898afd5b8995505b83861015620003fb5788818f0312156200039557898afd5b86518981018181108782111715620003a957fe5b885281516001600160801b0381168114620003c2578b8cfd5b8152620003d1828a016200029a565b89820152620003e28883016200029a565b818901528352600195909501949187019188016200037d565b5080985050505050505050509250925092565b6020808252601a908201527f696e76616c696420636f6c6c61746572616c2061646472657373000000000000604082015260600190565b60208082526015908201527f696e76616c696420736e7853706f744d61726b65740000000000000000000000604082015260600190565b602080825260119082015270696e76616c696420736e785633436f726560781b604082015260600190565b60208082526015908201527f696e76616c6964206d61726b657420636f6e6669670000000000000000000000604082015260600190565b6001600160801b0391909116815260200190565b6040518181016001600160401b03811182821017156200050e57fe5b604052919050565b60805160601c60a05160601c6114ac6200054a6000398061039f5280610da35250806106025280610b6052506114ac6000f3fe608060405234801561001057600080fd5b50600436106100ba5760003560e01c806309ff5c7d146100bf5780631053f952146100e85780631eba307714610108578063293d8063146101285780634007f48b1461014857806340f6405d1461015057806341dc16c3146101725780636179309d1461018557806368901513146101a657806382f86acc146101b9578063998546e3146101cc578063b70e68a0146101df578063c3c6279f146101e7578063db896b57146101fa575b600080fd5b6100d26100cd3660046110d3565b61020d565b6040516100df9190611268565b60405180910390f35b6100fb6100f6366004611122565b6102a0565b6040516100df9190611286565b61011b610116366004610ffc565b610338565b6040516100df9190611237565b61013b610136366004611046565b61033b565b6040516100df9190611271565b61011b61039d565b61016361015e366004610f45565b6103c1565b6040516100df939291906113ce565b6100d2610180366004611179565b6103f8565b610198610193366004610f7d565b6104d6565b6040516100df9291906113f8565b6100fb6101b4366004611014565b610af4565b6100d26101c73660046110d3565b610b0f565b6100d26101da3660046110d3565b610b2d565b61011b610b5e565b61013b6101f5366004611014565b610b82565b6100d2610208366004611088565b610b8f565b600080610225848460200260040160ff166020610b8f565b9050600061023885600484016020610b8f565b905080610281576040805162461bcd60e51b8152602060048201526012602482015271696e707574206973206e6f7420617272617960701b604482015290519081900360640190fd5b610295856020808402850160040190610b8f565b925050505b92915050565b6060601482106102e8576040805162461bcd60e51b815260206004820152600e60248201526d1a5b9d985b1a59081bd9999cd95d60921b604482015290519081900360640190fd5b816020029150600061030785848660200260040160ff16016020610b8f565b9050600061031c868584016004016020610b8f565b905061032e8660248487010183610c0e565b9695505050505050565b90565b60008160040183511015610394576040805162461bcd60e51b815260206004820152601b60248201527a52656164696e67206279746573206f7574206f6620626f756e647360281b604482015290519081900360640190fd5b50016020015190565b7f000000000000000000000000000000000000000000000000000000000000000081565b6000602081905290815260409020805460018201546002909201546001600160801b03909116916001600160a01b03908116911683565b600080610410858560200260040160ff166020610b8f565b9050600061042386600484016020610b8f565b90508061046c576040805162461bcd60e51b8152602060048201526012602482015271696e707574206973206e6f7420617272617960701b604482015290519081900360640190fd5b60ff841681116104bc576040805162461bcd60e51b815260206004820152601660248201527534b73b30b634b21030b93930bc903837b9b4ba34b7b760511b604482015290519081900360640190fd5b61032e866020600160ff8816018102850160040190610b8f565b6000806000856001600160a01b03166339b81fd96040518163ffffffff1660e01b815260040160206040518083038186803b15801561051457600080fd5b505afa158015610528573d6000803e3d6000fd5b505050506040513d601f19601f8201168201806040525081019061054c9190610f61565b9050336001600160a01b0382161461057f5760405162461bcd60e51b815260040161057690611368565b60405180910390fd5b6000816001600160a01b031663c45a01556040518163ffffffff1660e01b815260040160206040518083038186803b1580156105ba57600080fd5b505afa1580156105ce573d6000803e3d6000fd5b505050506040513d601f19601f820116820180604052508101906105f29190610f61565b6001600160a01b0316634f8419b97f00000000000000000000000000000000000000000000000000000000000000006040518263ffffffff1660e01b815260040161063d9190611237565b60206040518083038186803b15801561065557600080fd5b505afa158015610669573d6000803e3d6000fd5b505050506040513d601f19601f8201168201806040525081019061068d9190610f61565b60405163016406e960e71b81529091506001600160a01b0382169063b2037480906106bc908590600401611237565b60206040518083038186803b1580156106d457600080fd5b505afa1580156106e8573d6000803e3d6000fd5b505050506040513d601f19601f8201168201806040525081019061070c9190610fdc565b6107285760405162461bcd60e51b815260040161057690611332565b600061073386610b82565b9050600061074087610af4565b90506001600160e01b031982166335f39dc360e21b141561087e5760008060008380602001905181019061077491906111da565b925092509250600061078584610d5f565b905060008160020160009054906101000a90046001600160a01b03166001600160a01b031663313ce5676040518163ffffffff1660e01b815260040160206040518083038186803b1580156107d957600080fd5b505afa1580156107ed573d6000803e3d6000fd5b505050506040513d601f19601f82011682018060405250810190610811919061121b565b90506108278460ff601284900316600a0a610e78565b93508284146108485760405162461bcd60e51b815260040161057690611305565b602e5b9a50600080516020611457833981519152898c60405161086c92919061124b565b60405180910390a15050505050610ae4565b6001600160e01b03198216633c26d6cf60e11b141561098b576000806000838060200190518101906108b091906111da565b92509250925060006108c184610d5f565b905060008160020160009054906101000a90046001600160a01b03166001600160a01b031663313ce5676040518163ffffffff1660e01b815260040160206040518083038186803b15801561091557600080fd5b505afa158015610929573d6000803e3d6000fd5b505050506040513d601f19601f8201168201806040525081019061094d919061121b565b90506109638360ff601284900316600a0a610e78565b92508284146109845760405162461bcd60e51b815260040161057690611305565b602f61084b565b6001600160e01b031982166337fb336960e01b14806109b957506001600160e01b0319821662284b6560ea1b145b15610a39576000806000838060200190518101906109d791906111da565b9250925092506109e683610d5f565b50808214610a065760405162461bcd60e51b815260040161057690611305565b60309850600080516020611457833981519152878a604051610a2992919061124b565b60405180910390a1505050610ae4565b6001600160e01b03198216634d4bfbd560e01b1480610a6857506001600160e01b03198216630f46983960e21b145b15610ae457600080600083806020019051810190610a8691906111da565b925092509250610a9583610d5f565b50808214610ab55760405162461bcd60e51b815260040161057690611305565b60319850600080516020611457833981519152878a604051610ad892919061124b565b60405180910390a15050505b5060009350505050935093915050565b606061029a60048084510384610c0e9092919063ffffffff16565b6000610b26838360200260040160ff166020610b8f565b9392505050565b600080610b45848460200260040160ff166020610b8f565b9050610b5684600483016020610b8f565b949350505050565b7f000000000000000000000000000000000000000000000000000000000000000081565b600061029a82600061033b565b600081830184511015610be7576040805162461bcd60e51b815260206004820152601b60248201527a52656164696e67206279746573206f7574206f6620626f756e647360281b604482015290519081900360640190fd5b826020018401519050816020038015610c06576008810260020a820491505b509392505050565b60608182601f011015610c59576040805162461bcd60e51b815260206004820152600e60248201526d736c6963655f6f766572666c6f7760901b604482015290519081900360640190fd5b828284011015610ca1576040805162461bcd60e51b815260206004820152600e60248201526d736c6963655f6f766572666c6f7760901b604482015290519081900360640190fd5b81830184511015610ced576040805162461bcd60e51b8152602060048201526011602482015270736c6963655f6f75744f66426f756e647360781b604482015290519081900360640190fd5b606082158015610d0c5760405191506000825260208201604052610d56565b6040519150601f8416801560200281840101858101878315602002848b0101015b81831015610d45578051835260209283019201610d2d565b5050858452601f01601f1916604052505b50949350505050565b600080826001600160801b031611610d895760405162461bcd60e51b815260040161057690611390565b6040516369e0365f60e01b81526000906001600160a01b037f000000000000000000000000000000000000000000000000000000000000000016906369e0365f90610dd89086906004016113ba565b60206040518083038186803b158015610df057600080fd5b505afa158015610e04573d6000803e3d6000fd5b505050506040513d601f19601f82011682018060405250810190610e289190610f61565b6001600160a01b038116600090815260208190526040902080549093509091506001600160801b03848116911614610e725760405162461bcd60e51b8152600401610576906112d9565b50919050565b600082610e875750600061029a565b82820282848281610e9457fe5b0414610b265760405162461bcd60e51b81526004018080602001828103825260218152602001806114366021913960400191505060405180910390fd5b600082601f830112610ee1578081fd5b81356001600160401b0380821115610ef557fe5b604051601f8301601f191681016020018281118282101715610f1357fe5b604052828152848301602001861015610f2a578384fd5b82602086016020830137918201602001929092529392505050565b600060208284031215610f56578081fd5b8135610b268161140e565b600060208284031215610f72578081fd5b8151610b268161140e565b600080600060608486031215610f91578182fd5b8335610f9c8161140e565b92506020840135610fac8161140e565b915060408401356001600160401b03811115610fc6578182fd5b610fd286828701610ed1565b9150509250925092565b600060208284031215610fed578081fd5b81518015158114610b26578182fd5b60006020828403121561100d578081fd5b5035919050565b600060208284031215611025578081fd5b81356001600160401b0381111561103a578182fd5b610b5684828501610ed1565b60008060408385031215611058578182fd5b82356001600160401b0381111561106d578283fd5b61107985828601610ed1565b95602094909401359450505050565b60008060006060848603121561109c578283fd5b83356001600160401b038111156110b1578384fd5b6110bd86828701610ed1565b9660208601359650604090950135949350505050565b600080604083850312156110e5578182fd5b82356001600160401b038111156110fa578283fd5b61110685828601610ed1565b925050602083013561111781611426565b809150509250929050565b600080600060608486031215611136578283fd5b83356001600160401b0381111561114b578384fd5b61115786828701610ed1565b935050602084013561116881611426565b929592945050506040919091013590565b60008060006060848603121561118d578283fd5b83356001600160401b038111156111a2578384fd5b6111ae86828701610ed1565b93505060208401356111bf81611426565b915060408401356111cf81611426565b809150509250925092565b6000806000606084860312156111ee578283fd5b83516001600160801b0381168114611204578384fd5b602085015160409095015190969495509392505050565b60006020828403121561122c578081fd5b8151610b2681611426565b6001600160a01b0391909116815260200190565b6001600160a01b0392909216825261ffff16602082015260400190565b90815260200190565b6001600160e01b031991909116815260200190565b6000602080835283518082850152825b818110156112b257858101830151858201604001528201611296565b818111156112c35783604083870101525b50601f01601f1916929092016040019392505050565b6020808252601290820152711b585c9ad95d081b9bdd08185b1b1bddd95960721b604082015260600190565b6020808252601390820152720c2dadeeadce8e640c8dedc4ee840dac2e8c6d606b1b604082015260600190565b6020808252601c908201527b191a195919d9481d985d5b1d081b9bdd081dda1a5d195b1a5cdd195960221b604082015260600190565b6020808252600e908201526d6e6f7420706f6f6c206c6f67696360901b604082015260600190565b60208082526010908201526f1a5b9d985b1a59081b585c9ad95d125960821b604082015260600190565b6001600160801b0391909116815260200190565b6001600160801b039390931683526001600160a01b03918216602084015216604082015260600190565b61ffff9290921682521515602082015260400190565b6001600160a01b038116811461142357600080fd5b50565b60ff8116811461142357600080fdfe536166654d6174683a206d756c7469706c69636174696f6e206f766572666c6f778217dca87a87c07fc47f01c0ea0dc35c7e3b583046095a60e74ce9d9febb0d6fa264697066735822122045c06bf5ea8535e0974f1d4662636967443da53520af5d81fc80598cc2b7645764736f6c63430007060033",
  "linkReferences": {},
  "deployedLinkReferences": {}
}