{
  "_format": "hh-sol-artifact-1",
  "contractName": "ETHCrossAggregator",
  "sourceName": "contracts/priceAggregators/ETHCrossAggregator.sol",
  "abi": [
    {
      "inputs": [
        {
          "internalType": "address",
          "name": "_token",
          "type": "address"
        },
        {
          "internalType": "contract IAggregatorV3Interface",
          "name": "_tokenEthAggregator",
          "type": "address"
        },
        {
          "internalType": "contract IAggregatorV3Interface",
          "name": "_ethUsdAggregator",
          "type": "address"
        }
      ],
      "stateMutability": "nonpayable",
      "type": "constructor"
    },
    {
      "inputs": [],
      "name": "decimals",
      "outputs": [
        {
          "internalType": "uint8",
          "name": "",
          "type": "uint8"
        }
      ],
      "stateMutability": "pure",
      "type": "function"
    },
    {
      "inputs": [],
      "name": "ethUsdAggregator",
      "outputs": [
        {
          "internalType": "contract IAggregatorV3Interface",
          "name": "",
          "type": "address"
        }
      ],
      "stateMutability": "view",
      "type": "function"
    },
    {
      "inputs": [],
      "name": "latestRoundData",
      "outputs": [
        {
          "internalType": "uint80",
          "name": "roundId",
          "type": "uint80"
        },
        {
          "internalType": "int256",
          "name": "answer",
          "type": "int256"
        },
        {
          "internalType": "uint256",
          "name": "startedAt",
          "type": "uint256"
        },
        {
          "internalType": "uint256",
          "name": "updatedAt",
          "type": "uint256"
        },
        {
          "internalType": "uint80",
          "name": "answeredInRound",
          "type": "uint80"
        }
      ],
      "stateMutability": "view",
      "type": "function"
    },
    {
      "inputs": [],
      "name": "token",
      "outputs": [
        {
          "internalType": "address",
          "name": "",
          "type": "address"
        }
      ],
      "stateMutability": "view",
      "type": "function"
    },
    {
      "inputs": [],
      "name": "tokenEthAggregator",
      "outputs": [
        {
          "internalType": "contract IAggregatorV3Interface",
          "name": "",
          "type": "address"
        }
      ],
      "stateMutability": "view",
      "type": "function"
    }
  ],
  "bytecode": "0x608060405234801561001057600080fd5b506040516105043803806105048339818101604052606081101561003357600080fd5b5080516020820151604090920151600080546001600160a01b039384166001600160a01b03199182161790915560018054948416948216949094179093556002805492909116919092161790556104758061008f6000396000f3fe608060405234801561001057600080fd5b50600436106100575760003560e01c8063102360261461005c578063313ce567146100805780634d6642d51461009e578063fc0c546a146100a6578063feaf968c146100ae575b600080fd5b6100646100fa565b604080516001600160a01b039092168252519081900360200190f35b610088610109565b6040805160ff9092168252519081900360200190f35b61006461010e565b61006461011d565b6100b661012c565b60405180866001600160501b03168152602001858152602001848152602001838152602001826001600160501b031681526020019550505050505060405180910390f35b6002546001600160a01b031681565b600890565b6001546001600160a01b031681565b6000546001600160a01b031681565b6000806000806000806000600160009054906101000a90046001600160a01b03166001600160a01b031663feaf968c6040518163ffffffff1660e01b815260040160a06040518083038186803b15801561018557600080fd5b505afa158015610199573d6000803e3d6000fd5b505050506040513d60a08110156101af57600080fd5b50602081015160609091015160025460408051633fabe5a360e21b8152905193955091935060009283926001600160a01b039092169163feaf968c9160048083019260a0929190829003018186803b15801561020a57600080fd5b505afa15801561021e573d6000803e3d6000fd5b505050506040513d60a081101561023457600080fd5b5060208101516060909101519092509050610261670de0b6b3a764000061025b868561028d565b9061033f565b975060008860008386116102755785610277565b835b929c919b50995090975060009650945050505050565b60008261029c57506000610339565b826000191480156102b05750600160ff1b82145b156102ec5760405162461bcd60e51b81526004018080602001828103825260278152602001806104196027913960400191505060405180910390fd5b828202828482816102f957fe5b05146103365760405162461bcd60e51b81526004018080602001828103825260278152602001806104196027913960400191505060405180910390fd5b90505b92915050565b600081610393576040805162461bcd60e51b815260206004820181905260248201527f5369676e6564536166654d6174683a206469766973696f6e206279207a65726f604482015290519081900360640190fd5b816000191480156103a75750600160ff1b83145b156103e35760405162461bcd60e51b81526004018080602001828103825260218152602001806103f86021913960400191505060405180910390fd5b60008284816103ee57fe5b0594935050505056fe5369676e6564536166654d6174683a206469766973696f6e206f766572666c6f775369676e6564536166654d6174683a206d756c7469706c69636174696f6e206f766572666c6f77a2646970667358221220a213a0e275160f87bdf5f2a1e853b195cccefae5b972755fd5383e844a7a0f0264736f6c63430007060033",
  "linkReferences": {},
  "deployedLinkReferences": {}
}